{
	"Supplychain/Supplychain1.sol": {
		"Supplychain1": {
			"abi": [
				{
					"inputs": [],
					"stateMutability": "payable",
					"type": "constructor"
				},
				{
					"anonymous": false,
					"inputs": [
						{
							"indexed": true,
							"internalType": "address",
							"name": "account",
							"type": "address"
						}
					],
					"name": "ConsumerAdded",
					"type": "event"
				},
				{
					"anonymous": false,
					"inputs": [
						{
							"indexed": true,
							"internalType": "address",
							"name": "account",
							"type": "address"
						}
					],
					"name": "ConsumerRemoved",
					"type": "event"
				},
				{
					"anonymous": false,
					"inputs": [
						{
							"indexed": true,
							"internalType": "address",
							"name": "account",
							"type": "address"
						}
					],
					"name": "DistributorAdded",
					"type": "event"
				},
				{
					"anonymous": false,
					"inputs": [
						{
							"indexed": true,
							"internalType": "address",
							"name": "account",
							"type": "address"
						}
					],
					"name": "DistributorRemoved",
					"type": "event"
				},
				{
					"anonymous": false,
					"inputs": [
						{
							"indexed": false,
							"internalType": "uint256",
							"name": "productCode",
							"type": "uint256"
						}
					],
					"name": "ForSaleByDistributor",
					"type": "event"
				},
				{
					"anonymous": false,
					"inputs": [
						{
							"indexed": false,
							"internalType": "uint256",
							"name": "productCode",
							"type": "uint256"
						}
					],
					"name": "ForSaleByManufacturer",
					"type": "event"
				},
				{
					"anonymous": false,
					"inputs": [
						{
							"indexed": false,
							"internalType": "uint256",
							"name": "productCode",
							"type": "uint256"
						}
					],
					"name": "ForSaleByRetailer",
					"type": "event"
				},
				{
					"anonymous": false,
					"inputs": [
						{
							"indexed": false,
							"internalType": "uint256",
							"name": "productCode",
							"type": "uint256"
						}
					],
					"name": "ForSaleByWholesaler",
					"type": "event"
				},
				{
					"anonymous": false,
					"inputs": [
						{
							"indexed": true,
							"internalType": "address",
							"name": "account",
							"type": "address"
						}
					],
					"name": "ManufacturerAdded",
					"type": "event"
				},
				{
					"anonymous": false,
					"inputs": [
						{
							"indexed": true,
							"internalType": "address",
							"name": "account",
							"type": "address"
						}
					],
					"name": "ManufacturerRemoved",
					"type": "event"
				},
				{
					"anonymous": false,
					"inputs": [
						{
							"indexed": false,
							"internalType": "uint256",
							"name": "productCode",
							"type": "uint256"
						}
					],
					"name": "ProducedByManufacturer",
					"type": "event"
				},
				{
					"anonymous": false,
					"inputs": [
						{
							"indexed": false,
							"internalType": "uint256",
							"name": "productCode",
							"type": "uint256"
						}
					],
					"name": "PurchasedByConsumer",
					"type": "event"
				},
				{
					"anonymous": false,
					"inputs": [
						{
							"indexed": false,
							"internalType": "uint256",
							"name": "productCode",
							"type": "uint256"
						}
					],
					"name": "PurchasedByDistributor",
					"type": "event"
				},
				{
					"anonymous": false,
					"inputs": [
						{
							"indexed": false,
							"internalType": "uint256",
							"name": "productCode",
							"type": "uint256"
						}
					],
					"name": "PurchasedByRetailer",
					"type": "event"
				},
				{
					"anonymous": false,
					"inputs": [
						{
							"indexed": false,
							"internalType": "uint256",
							"name": "productCode",
							"type": "uint256"
						}
					],
					"name": "PurchasedByWholesaler",
					"type": "event"
				},
				{
					"anonymous": false,
					"inputs": [
						{
							"indexed": false,
							"internalType": "uint256",
							"name": "productCode",
							"type": "uint256"
						}
					],
					"name": "ReceivedByDistributor",
					"type": "event"
				},
				{
					"anonymous": false,
					"inputs": [
						{
							"indexed": false,
							"internalType": "uint256",
							"name": "productCode",
							"type": "uint256"
						}
					],
					"name": "ReceivedByRetailer",
					"type": "event"
				},
				{
					"anonymous": false,
					"inputs": [
						{
							"indexed": false,
							"internalType": "uint256",
							"name": "productCode",
							"type": "uint256"
						}
					],
					"name": "ReceivedByWholesaler",
					"type": "event"
				},
				{
					"anonymous": false,
					"inputs": [
						{
							"indexed": true,
							"internalType": "address",
							"name": "account",
							"type": "address"
						}
					],
					"name": "RetailerAdded",
					"type": "event"
				},
				{
					"anonymous": false,
					"inputs": [
						{
							"indexed": true,
							"internalType": "address",
							"name": "account",
							"type": "address"
						}
					],
					"name": "RetailerRemoved",
					"type": "event"
				},
				{
					"anonymous": false,
					"inputs": [
						{
							"indexed": false,
							"internalType": "uint256",
							"name": "productCode",
							"type": "uint256"
						}
					],
					"name": "ShippedByDistributor",
					"type": "event"
				},
				{
					"anonymous": false,
					"inputs": [
						{
							"indexed": false,
							"internalType": "uint256",
							"name": "productCode",
							"type": "uint256"
						}
					],
					"name": "ShippedByManufacturer",
					"type": "event"
				},
				{
					"anonymous": false,
					"inputs": [
						{
							"indexed": true,
							"internalType": "address",
							"name": "account",
							"type": "address"
						}
					],
					"name": "WholesalerAdded",
					"type": "event"
				},
				{
					"anonymous": false,
					"inputs": [
						{
							"indexed": true,
							"internalType": "address",
							"name": "account",
							"type": "address"
						}
					],
					"name": "WholesalerRemoved",
					"type": "event"
				},
				{
					"inputs": [
						{
							"internalType": "uint256",
							"name": "_productCode",
							"type": "uint256"
						},
						{
							"internalType": "string",
							"name": "_productInfo",
							"type": "string"
						},
						{
							"internalType": "uint256",
							"name": "_price",
							"type": "uint256"
						}
					],
					"name": "ProduceItemByManufacturer",
					"outputs": [],
					"stateMutability": "nonpayable",
					"type": "function"
				},
				{
					"inputs": [
						{
							"internalType": "address",
							"name": "account",
							"type": "address"
						}
					],
					"name": "addConsumer",
					"outputs": [],
					"stateMutability": "nonpayable",
					"type": "function"
				},
				{
					"inputs": [
						{
							"internalType": "address",
							"name": "account",
							"type": "address"
						}
					],
					"name": "addDistributor",
					"outputs": [],
					"stateMutability": "nonpayable",
					"type": "function"
				},
				{
					"inputs": [
						{
							"internalType": "address",
							"name": "account",
							"type": "address"
						}
					],
					"name": "addManufacturer",
					"outputs": [],
					"stateMutability": "nonpayable",
					"type": "function"
				},
				{
					"inputs": [
						{
							"internalType": "address",
							"name": "account",
							"type": "address"
						}
					],
					"name": "addRetailer",
					"outputs": [],
					"stateMutability": "nonpayable",
					"type": "function"
				},
				{
					"inputs": [
						{
							"internalType": "address",
							"name": "account",
							"type": "address"
						}
					],
					"name": "addWholesaler",
					"outputs": [],
					"stateMutability": "nonpayable",
					"type": "function"
				},
				{
					"inputs": [
						{
							"internalType": "address",
							"name": "account",
							"type": "address"
						}
					],
					"name": "isConsumer",
					"outputs": [
						{
							"internalType": "bool",
							"name": "",
							"type": "bool"
						}
					],
					"stateMutability": "view",
					"type": "function"
				},
				{
					"inputs": [
						{
							"internalType": "address",
							"name": "account",
							"type": "address"
						}
					],
					"name": "isDistributor",
					"outputs": [
						{
							"internalType": "bool",
							"name": "",
							"type": "bool"
						}
					],
					"stateMutability": "view",
					"type": "function"
				},
				{
					"inputs": [
						{
							"internalType": "address",
							"name": "account",
							"type": "address"
						}
					],
					"name": "isManufacturer",
					"outputs": [
						{
							"internalType": "bool",
							"name": "",
							"type": "bool"
						}
					],
					"stateMutability": "view",
					"type": "function"
				},
				{
					"inputs": [
						{
							"internalType": "address",
							"name": "account",
							"type": "address"
						}
					],
					"name": "isRetailer",
					"outputs": [
						{
							"internalType": "bool",
							"name": "",
							"type": "bool"
						}
					],
					"stateMutability": "view",
					"type": "function"
				},
				{
					"inputs": [
						{
							"internalType": "address",
							"name": "account",
							"type": "address"
						}
					],
					"name": "isWholesaler",
					"outputs": [
						{
							"internalType": "bool",
							"name": "",
							"type": "bool"
						}
					],
					"stateMutability": "view",
					"type": "function"
				},
				{
					"inputs": [],
					"name": "kill",
					"outputs": [],
					"stateMutability": "nonpayable",
					"type": "function"
				},
				{
					"inputs": [
						{
							"internalType": "uint256",
							"name": "_productCode",
							"type": "uint256"
						}
					],
					"name": "purchaseItemByDistributor",
					"outputs": [],
					"stateMutability": "payable",
					"type": "function"
				},
				{
					"inputs": [
						{
							"internalType": "uint256",
							"name": "_productCode",
							"type": "uint256"
						}
					],
					"name": "receivedItemByDistributor",
					"outputs": [],
					"stateMutability": "nonpayable",
					"type": "function"
				},
				{
					"inputs": [],
					"name": "renouceConsumer",
					"outputs": [],
					"stateMutability": "nonpayable",
					"type": "function"
				},
				{
					"inputs": [],
					"name": "renouceDistributor",
					"outputs": [],
					"stateMutability": "nonpayable",
					"type": "function"
				},
				{
					"inputs": [],
					"name": "renouceManufaturer",
					"outputs": [],
					"stateMutability": "nonpayable",
					"type": "function"
				},
				{
					"inputs": [],
					"name": "renouceRetailer",
					"outputs": [],
					"stateMutability": "nonpayable",
					"type": "function"
				},
				{
					"inputs": [],
					"name": "renouceWholesaler",
					"outputs": [],
					"stateMutability": "nonpayable",
					"type": "function"
				},
				{
					"inputs": [
						{
							"internalType": "uint256",
							"name": "_productCode",
							"type": "uint256"
						},
						{
							"internalType": "uint256",
							"name": "_price",
							"type": "uint256"
						}
					],
					"name": "sellItemByFarmer",
					"outputs": [],
					"stateMutability": "nonpayable",
					"type": "function"
				},
				{
					"inputs": [
						{
							"internalType": "uint256",
							"name": "_productCode",
							"type": "uint256"
						}
					],
					"name": "shippedItemByFarmer",
					"outputs": [],
					"stateMutability": "payable",
					"type": "function"
				}
			],
			"devdoc": {
				"kind": "dev",
				"methods": {},
				"version": 1
			},
			"evm": {
				"assembly": "    /* \"Supplychain/Supplychain1.sol\":244:11147  contract  Supplychain1 is ... */\n  mstore(0x40, 0x80)\n    /* \"Access/Manufacturer.sol\":389:419  _addManufacturer(_msgSender()) */\n  tag_8\n    /* \"Access/Manufacturer.sol\":406:418  _msgSender() */\n  tag_9\n    /* \"Access/Manufacturer.sol\":406:416  _msgSender */\n  shl(0x20, tag_10)\n    /* \"Access/Manufacturer.sol\":406:418  _msgSender() */\n  0x20\n  shr\n  jump\t// in\ntag_9:\n    /* \"Access/Manufacturer.sol\":389:405  _addManufacturer */\n  shl(0x20, tag_11)\n    /* \"Access/Manufacturer.sol\":389:419  _addManufacturer(_msgSender()) */\n  0x20\n  shr\n  jump\t// in\ntag_8:\n    /* \"Access/Distributor.sol\":385:414  _addDistributor(_msgSender()) */\n  tag_13\n    /* \"Access/Distributor.sol\":401:413  _msgSender() */\n  tag_14\n    /* \"Access/Distributor.sol\":401:411  _msgSender */\n  shl(0x20, tag_10)\n    /* \"Access/Distributor.sol\":401:413  _msgSender() */\n  0x20\n  shr\n  jump\t// in\ntag_14:\n    /* \"Access/Distributor.sol\":385:400  _addDistributor */\n  shl(0x20, tag_15)\n    /* \"Access/Distributor.sol\":385:414  _addDistributor(_msgSender()) */\n  0x20\n  shr\n  jump\t// in\ntag_13:\n    /* \"Access/Wholesaler.sol\":381:409  _addWholesaler(_msgSender()) */\n  tag_17\n    /* \"Access/Wholesaler.sol\":396:408  _msgSender() */\n  tag_18\n    /* \"Access/Wholesaler.sol\":396:406  _msgSender */\n  shl(0x20, tag_10)\n    /* \"Access/Wholesaler.sol\":396:408  _msgSender() */\n  0x20\n  shr\n  jump\t// in\ntag_18:\n    /* \"Access/Wholesaler.sol\":381:395  _addWholesaler */\n  shl(0x20, tag_19)\n    /* \"Access/Wholesaler.sol\":381:409  _addWholesaler(_msgSender()) */\n  0x20\n  shr\n  jump\t// in\ntag_17:\n    /* \"Access/Retailer.sol\":373:399  _addRetailer(_msgSender()) */\n  tag_21\n    /* \"Access/Retailer.sol\":386:398  _msgSender() */\n  tag_22\n    /* \"Access/Retailer.sol\":386:396  _msgSender */\n  shl(0x20, tag_10)\n    /* \"Access/Retailer.sol\":386:398  _msgSender() */\n  0x20\n  shr\n  jump\t// in\ntag_22:\n    /* \"Access/Retailer.sol\":373:385  _addRetailer */\n  shl(0x20, tag_23)\n    /* \"Access/Retailer.sol\":373:399  _addRetailer(_msgSender()) */\n  0x20\n  shr\n  jump\t// in\ntag_21:\n    /* \"Access/Consumer.sol\":373:399  _addConsumer(_msgSender()) */\n  tag_25\n    /* \"Access/Consumer.sol\":386:398  _msgSender() */\n  tag_26\n    /* \"Access/Consumer.sol\":386:396  _msgSender */\n  shl(0x20, tag_10)\n    /* \"Access/Consumer.sol\":386:398  _msgSender() */\n  0x20\n  shr\n  jump\t// in\ntag_26:\n    /* \"Access/Consumer.sol\":373:385  _addConsumer */\n  shl(0x20, tag_27)\n    /* \"Access/Consumer.sol\":373:399  _addConsumer(_msgSender()) */\n  0x20\n  shr\n  jump\t// in\ntag_25:\n    /* \"Supplychain/Supplychain1.sol\":1252:1264  _msgSender() */\n  tag_29\n    /* \"Supplychain/Supplychain1.sol\":1252:1262  _msgSender */\n  shl(0x20, tag_10)\n    /* \"Supplychain/Supplychain1.sol\":1252:1264  _msgSender() */\n  0x20\n  shr\n  jump\t// in\ntag_29:\n    /* \"Supplychain/Supplychain1.sol\":1244:1249  owner */\n  0x05\n  0x00\n    /* \"Supplychain/Supplychain1.sol\":1244:1264  owner = _msgSender() */\n  0x0100\n  exp\n  dup2\n  sload\n  dup2\n  0xffffffffffffffffffffffffffffffffffffffff\n  mul\n  not\n  and\n  swap1\n  dup4\n  0xffffffffffffffffffffffffffffffffffffffff\n  and\n  mul\n  or\n  swap1\n  sstore\n  pop\n    /* \"Supplychain/Supplychain1.sol\":1295:1296  1 */\n  0x01\n    /* \"Supplychain/Supplychain1.sol\":1283:1292  stockUnit */\n  0x07\n    /* \"Supplychain/Supplychain1.sol\":1283:1296  stockUnit = 1 */\n  dup2\n  swap1\n  sstore\n  pop\n    /* \"Supplychain/Supplychain1.sol\":1329:1330  1 */\n  0x01\n    /* \"Supplychain/Supplychain1.sol\":1315:1326  productCode */\n  0x06\n    /* \"Supplychain/Supplychain1.sol\":1315:1330  productCode = 1 */\n  dup2\n  swap1\n  sstore\n  pop\n    /* \"Supplychain/Supplychain1.sol\":244:11147  contract  Supplychain1 is ... */\n  jump(tag_30)\n    /* \"Utils/Context.sol\":97:195  function _msgSender() internal view virtual returns (address) {... */\ntag_10:\n    /* \"Utils/Context.sol\":150:157  address */\n  0x00\n    /* \"Utils/Context.sol\":177:187  msg.sender */\n  caller\n    /* \"Utils/Context.sol\":170:187  return msg.sender */\n  swap1\n  pop\n    /* \"Utils/Context.sol\":97:195  function _msgSender() internal view virtual returns (address) {... */\n  swap1\n  jump\t// out\n    /* \"Access/Manufacturer.sol\":1048:1189  function _addManufacturer  (address account ) internal{... */\ntag_11:\n    /* \"Access/Manufacturer.sol\":1113:1139  manufacturers.add(account) */\n  tag_33\n    /* \"Access/Manufacturer.sol\":1131:1138  account */\n  dup2\n    /* \"Access/Manufacturer.sol\":1113:1126  manufacturers */\n  0x00\n    /* \"Access/Manufacturer.sol\":1113:1130  manufacturers.add */\n  or(tag_0_112, shl(0x20, tag_34))\n  swap1\n    /* \"Access/Manufacturer.sol\":1113:1139  manufacturers.add(account) */\n  swap2\n  swap1\n  0x20\n  shr\n  jump\t// in\ntag_33:\n    /* \"Access/Manufacturer.sol\":1173:1180  account */\n  dup1\n    /* \"Access/Manufacturer.sol\":1155:1181  ManufacturerAdded(account) */\n  0xffffffffffffffffffffffffffffffffffffffff\n  and\n  0x561138658ca49a8540dc70dcfe64c9026c1c5b9344642242dd6562970f9c1278\n  mload(0x40)\n  mload(0x40)\n  dup1\n  swap2\n  sub\n  swap1\n  log2\n    /* \"Access/Manufacturer.sol\":1048:1189  function _addManufacturer  (address account ) internal{... */\n  pop\n  jump\t// out\n    /* \"Access/Distributor.sol\":1035:1173  function _addDistributor  (address account ) internal{... */\ntag_15:\n    /* \"Access/Distributor.sol\":1099:1124  distributors.add(account) */\n  tag_36\n    /* \"Access/Distributor.sol\":1116:1123  account */\n  dup2\n    /* \"Access/Distributor.sol\":1099:1111  distributors */\n  0x01\n    /* \"Access/Distributor.sol\":1099:1115  distributors.add */\n  or(tag_0_112, shl(0x20, tag_34))\n  swap1\n    /* \"Access/Distributor.sol\":1099:1124  distributors.add(account) */\n  swap2\n  swap1\n  0x20\n  shr\n  jump\t// in\ntag_36:\n    /* \"Access/Distributor.sol\":1157:1164  account */\n  dup1\n    /* \"Access/Distributor.sol\":1140:1165  DistributorAdded(account) */\n  0xffffffffffffffffffffffffffffffffffffffff\n  and\n  0xddbf200aa634dc3fb81cfd68583dd1040d1c751d335e1d86b631bde3e977fea8\n  mload(0x40)\n  mload(0x40)\n  dup1\n  swap2\n  sub\n  swap1\n  log2\n    /* \"Access/Distributor.sol\":1035:1173  function _addDistributor  (address account ) internal{... */\n  pop\n  jump\t// out\n    /* \"Access/Wholesaler.sol\":1021:1156  function _addWholesaler  (address account ) internal{... */\ntag_19:\n    /* \"Access/Wholesaler.sol\":1084:1108  wholesalers.add(account) */\n  tag_38\n    /* \"Access/Wholesaler.sol\":1100:1107  account */\n  dup2\n    /* \"Access/Wholesaler.sol\":1084:1095  wholesalers */\n  0x02\n    /* \"Access/Wholesaler.sol\":1084:1099  wholesalers.add */\n  or(tag_0_112, shl(0x20, tag_34))\n  swap1\n    /* \"Access/Wholesaler.sol\":1084:1108  wholesalers.add(account) */\n  swap2\n  swap1\n  0x20\n  shr\n  jump\t// in\ntag_38:\n    /* \"Access/Wholesaler.sol\":1140:1147  account */\n  dup1\n    /* \"Access/Wholesaler.sol\":1124:1148  WholesalerAdded(account) */\n  0xffffffffffffffffffffffffffffffffffffffff\n  and\n  0xd8a7ad7929975a375d2b12bf49040286b5b105df0fe351f10df6d85e5b7142f7\n  mload(0x40)\n  mload(0x40)\n  dup1\n  swap2\n  sub\n  swap1\n  log2\n    /* \"Access/Wholesaler.sol\":1021:1156  function _addWholesaler  (address account ) internal{... */\n  pop\n  jump\t// out\n    /* \"Access/Retailer.sol\":993:1122  function _addRetailer  (address account ) internal{... */\ntag_23:\n    /* \"Access/Retailer.sol\":1054:1076  retailers.add(account) */\n  tag_40\n    /* \"Access/Retailer.sol\":1068:1075  account */\n  dup2\n    /* \"Access/Retailer.sol\":1054:1063  retailers */\n  0x03\n    /* \"Access/Retailer.sol\":1054:1067  retailers.add */\n  or(tag_0_112, shl(0x20, tag_34))\n  swap1\n    /* \"Access/Retailer.sol\":1054:1076  retailers.add(account) */\n  swap2\n  swap1\n  0x20\n  shr\n  jump\t// in\ntag_40:\n    /* \"Access/Retailer.sol\":1106:1113  account */\n  dup1\n    /* \"Access/Retailer.sol\":1092:1114  RetailerAdded(account) */\n  0xffffffffffffffffffffffffffffffffffffffff\n  and\n  0x71ae26cad02663e3d92efd6ec56031a80d74a20c0ab4183faa8bf262261c9baa\n  mload(0x40)\n  mload(0x40)\n  dup1\n  swap2\n  sub\n  swap1\n  log2\n    /* \"Access/Retailer.sol\":993:1122  function _addRetailer  (address account ) internal{... */\n  pop\n  jump\t// out\n    /* \"Access/Consumer.sol\":993:1122  function _addConsumer  (address account ) internal{... */\ntag_27:\n    /* \"Access/Consumer.sol\":1054:1076  consumers.add(account) */\n  tag_42\n    /* \"Access/Consumer.sol\":1068:1075  account */\n  dup2\n    /* \"Access/Consumer.sol\":1054:1063  consumers */\n  0x04\n    /* \"Access/Consumer.sol\":1054:1067  consumers.add */\n  or(tag_0_112, shl(0x20, tag_34))\n  swap1\n    /* \"Access/Consumer.sol\":1054:1076  consumers.add(account) */\n  swap2\n  swap1\n  0x20\n  shr\n  jump\t// in\ntag_42:\n    /* \"Access/Consumer.sol\":1106:1113  account */\n  dup1\n    /* \"Access/Consumer.sol\":1092:1114  ConsumerAdded(account) */\n  0xffffffffffffffffffffffffffffffffffffffff\n  and\n  0x28b26e7a3d20aedbc5f8f2ebf7da671c0491723a2b78f47a097b0e46dee07142\n  mload(0x40)\n  mload(0x40)\n  dup1\n  swap2\n  sub\n  swap1\n  log2\n    /* \"Access/Consumer.sol\":993:1122  function _addConsumer  (address account ) internal{... */\n  pop\n  jump\t// out\n    /* \"Access/Roles.sol\":153:344  function add(Role storage role , address account) internal {... */\ntag_34:\n    /* \"Access/Roles.sol\":252:253  0 */\n  0x00\n    /* \"Access/Roles.sol\":233:254  account != address(0) */\n  0xffffffffffffffffffffffffffffffffffffffff\n  and\n    /* \"Access/Roles.sol\":233:240  account */\n  dup2\n    /* \"Access/Roles.sol\":233:254  account != address(0) */\n  0xffffffffffffffffffffffffffffffffffffffff\n  and\n  sub\n    /* \"Access/Roles.sol\":223:256  require( (account != address(0))) */\n  tag_44\n  jumpi\n  0x00\n  dup1\n  revert\ntag_44:\n    /* \"Access/Roles.sol\":276:296  has(role , account ) */\n  tag_45\n    /* \"Access/Roles.sol\":280:284  role */\n  dup3\n    /* \"Access/Roles.sol\":287:294  account */\n  dup3\n    /* \"Access/Roles.sol\":276:279  has */\n  shl(0x20, tag_46)\n    /* \"Access/Roles.sol\":276:296  has(role , account ) */\n  0x20\n  shr\n  jump\t// in\ntag_45:\n    /* \"Access/Roles.sol\":275:296  !has(role , account ) */\n  iszero\n    /* \"Access/Roles.sol\":267:297  require(!has(role , account )) */\n  tag_47\n  jumpi\n  0x00\n  dup1\n  revert\ntag_47:\n    /* \"Access/Roles.sol\":330:334  true */\n  0x01\n    /* \"Access/Roles.sol\":308:312  role */\n  dup3\n    /* \"Access/Roles.sol\":308:319  role.bearer */\n  0x00\n  add\n    /* \"Access/Roles.sol\":308:328  role.bearer[account] */\n  0x00\n    /* \"Access/Roles.sol\":320:327  account */\n  dup4\n    /* \"Access/Roles.sol\":308:328  role.bearer[account] */\n  0xffffffffffffffffffffffffffffffffffffffff\n  and\n  0xffffffffffffffffffffffffffffffffffffffff\n  and\n  dup2\n  mstore\n  0x20\n  add\n  swap1\n  dup2\n  mstore\n  0x20\n  add\n  0x00\n  keccak256\n  0x00\n    /* \"Access/Roles.sol\":308:334  role.bearer[account]= true */\n  0x0100\n  exp\n  dup2\n  sload\n  dup2\n  0xff\n  mul\n  not\n  and\n  swap1\n  dup4\n  iszero\n  iszero\n  mul\n  or\n  swap1\n  sstore\n  pop\n    /* \"Access/Roles.sol\":153:344  function add(Role storage role , address account) internal {... */\n  pop\n  pop\n  jump\t// out\n    /* \"Access/Roles.sol\":552:724  function has(Role storage role , address account ) internal view returns (bool) {... */\ntag_46:\n    /* \"Access/Roles.sol\":626:630  bool */\n  0x00\n    /* \"Access/Roles.sol\":671:672  0 */\n  dup1\n    /* \"Access/Roles.sol\":652:673  account != address(0) */\n  0xffffffffffffffffffffffffffffffffffffffff\n  and\n    /* \"Access/Roles.sol\":652:659  account */\n  dup3\n    /* \"Access/Roles.sol\":652:673  account != address(0) */\n  0xffffffffffffffffffffffffffffffffffffffff\n  and\n  sub\n    /* \"Access/Roles.sol\":644:674  require(account != address(0)) */\n  tag_49\n  jumpi\n  0x00\n  dup1\n  revert\ntag_49:\n    /* \"Access/Roles.sol\":693:697  role */\n  dup3\n    /* \"Access/Roles.sol\":693:704  role.bearer */\n  0x00\n  add\n    /* \"Access/Roles.sol\":693:713  role.bearer[account] */\n  0x00\n    /* \"Access/Roles.sol\":705:712  account */\n  dup4\n    /* \"Access/Roles.sol\":693:713  role.bearer[account] */\n  0xffffffffffffffffffffffffffffffffffffffff\n  and\n  0xffffffffffffffffffffffffffffffffffffffff\n  and\n  dup2\n  mstore\n  0x20\n  add\n  swap1\n  dup2\n  mstore\n  0x20\n  add\n  0x00\n  keccak256\n  0x00\n  swap1\n  sload\n  swap1\n  0x0100\n  exp\n  swap1\n  div\n  0xff\n  and\n    /* \"Access/Roles.sol\":686:713  return role.bearer[account] */\n  swap1\n  pop\n    /* \"Access/Roles.sol\":552:724  function has(Role storage role , address account ) internal view returns (bool) {... */\n  swap3\n  swap2\n  pop\n  pop\n  jump\t// out\n    /* \"Supplychain/Supplychain1.sol\":244:11147  contract  Supplychain1 is ... */\ntag_30:\n  dataSize(sub_0)\n  dup1\n  dataOffset(sub_0)\n  0x00\n  codecopy\n  0x00\n  return\nstop\n\nsub_0: assembly {\n        /* \"Supplychain/Supplychain1.sol\":244:11147  contract  Supplychain1 is ... */\n      mstore(0x40, 0x80)\n      jumpi(tag_1, lt(calldatasize, 0x04))\n      shr(0xe0, calldataload(0x00))\n      dup1\n      0x71f3ff90\n      gt\n      tag_23\n      jumpi\n      dup1\n      0x8f0c86fa\n      gt\n      tag_24\n      jumpi\n      dup1\n      0x8f0c86fa\n      eq\n      tag_17\n      jumpi\n      dup1\n      0xad88bac8\n      eq\n      tag_18\n      jumpi\n      dup1\n      0xde63bdb9\n      eq\n      tag_19\n      jumpi\n      dup1\n      0xe34d7a07\n      eq\n      tag_20\n      jumpi\n      dup1\n      0xe618f000\n      eq\n      tag_21\n      jumpi\n      dup1\n      0xfdcdc06f\n      eq\n      tag_22\n      jumpi\n      jump(tag_1)\n    tag_24:\n      dup1\n      0x71f3ff90\n      eq\n      tag_12\n      jumpi\n      dup1\n      0x7250e224\n      eq\n      tag_13\n      jumpi\n      dup1\n      0x834ff739\n      eq\n      tag_14\n      jumpi\n      dup1\n      0x8b828a08\n      eq\n      tag_15\n      jumpi\n      dup1\n      0x8ec4f505\n      eq\n      tag_16\n      jumpi\n      jump(tag_1)\n    tag_23:\n      dup1\n      0x41c0e1b5\n      gt\n      tag_25\n      jumpi\n      dup1\n      0x41c0e1b5\n      eq\n      tag_7\n      jumpi\n      dup1\n      0x4ea90d2d\n      eq\n      tag_8\n      jumpi\n      dup1\n      0x5da09b88\n      eq\n      tag_9\n      jumpi\n      dup1\n      0x5f8a5afa\n      eq\n      tag_10\n      jumpi\n      dup1\n      0x64d1ba1f\n      eq\n      tag_11\n      jumpi\n      jump(tag_1)\n    tag_25:\n      dup1\n      0x070ef987\n      eq\n      tag_2\n      jumpi\n      dup1\n      0x112940f9\n      eq\n      tag_3\n      jumpi\n      dup1\n      0x17d4a491\n      eq\n      tag_4\n      jumpi\n      dup1\n      0x24cb1669\n      eq\n      tag_5\n      jumpi\n      dup1\n      0x3496c175\n      eq\n      tag_6\n      jumpi\n    tag_1:\n      0x00\n      dup1\n      revert\n        /* \"Access/Wholesaler.sol\":917:1013  function  renouceWholesaler() public{... */\n    tag_2:\n      callvalue\n      dup1\n      iszero\n      tag_26\n      jumpi\n      0x00\n      dup1\n      revert\n    tag_26:\n      pop\n      tag_27\n      tag_28\n      jump\t// in\n    tag_27:\n      stop\n        /* \"Access/Consumer.sol\":787:885  function addConsumer (address account) public onlyConsumer{... */\n    tag_3:\n      callvalue\n      dup1\n      iszero\n      tag_29\n      jumpi\n      0x00\n      dup1\n      revert\n    tag_29:\n      pop\n      tag_30\n      0x04\n      dup1\n      calldatasize\n      sub\n      dup2\n      add\n      swap1\n      tag_31\n      swap2\n      swap1\n      tag_32\n      jump\t// in\n    tag_31:\n      tag_33\n      jump\t// in\n    tag_30:\n      stop\n        /* \"Access/Manufacturer.sol\":674:811  function isManufacturer(address account )... */\n    tag_4:\n      callvalue\n      dup1\n      iszero\n      tag_34\n      jumpi\n      0x00\n      dup1\n      revert\n    tag_34:\n      pop\n      tag_35\n      0x04\n      dup1\n      calldatasize\n      sub\n      dup2\n      add\n      swap1\n      tag_36\n      swap2\n      swap1\n      tag_32\n      jump\t// in\n    tag_36:\n      tag_37\n      jump\t// in\n    tag_35:\n      mload(0x40)\n      tag_38\n      swap2\n      swap1\n      tag_39\n      jump\t// in\n    tag_38:\n      mload(0x40)\n      dup1\n      swap2\n      sub\n      swap1\n      return\n        /* \"Supplychain/Supplychain1.sol\":10698:11122  function receivedItemByDistributor(uint256 _productCode)... */\n    tag_5:\n      callvalue\n      dup1\n      iszero\n      tag_40\n      jumpi\n      0x00\n      dup1\n      revert\n    tag_40:\n      pop\n      tag_41\n      0x04\n      dup1\n      calldatasize\n      sub\n      dup2\n      add\n      swap1\n      tag_42\n      swap2\n      swap1\n      tag_43\n      jump\t// in\n    tag_42:\n      tag_44\n      jump\t// in\n    tag_41:\n      stop\n        /* \"Access/Consumer.sol\":893:985  function  renouceConsumer() public{... */\n    tag_6:\n      callvalue\n      dup1\n      iszero\n      tag_45\n      jumpi\n      0x00\n      dup1\n      revert\n    tag_45:\n      pop\n      tag_46\n      tag_47\n      jump\t// in\n    tag_46:\n      stop\n        /* \"Supplychain/Supplychain1.sol\":6417:6618  function kill() public {... */\n    tag_7:\n      callvalue\n      dup1\n      iszero\n      tag_48\n      jumpi\n      0x00\n      dup1\n      revert\n    tag_48:\n      pop\n      tag_49\n      tag_50\n      jump\t// in\n    tag_49:\n      stop\n        /* \"Access/Distributor.sol\":929:1027  function  renouceDistributor() public{... */\n    tag_8:\n      callvalue\n      dup1\n      iszero\n      tag_51\n      jumpi\n      0x00\n      dup1\n      revert\n    tag_51:\n      pop\n      tag_52\n      tag_53\n      jump\t// in\n    tag_52:\n      stop\n        /* \"Access/Retailer.sol\":646:775  function isRetailer(address account )... */\n    tag_9:\n      callvalue\n      dup1\n      iszero\n      tag_54\n      jumpi\n      0x00\n      dup1\n      revert\n    tag_54:\n      pop\n      tag_55\n      0x04\n      dup1\n      calldatasize\n      sub\n      dup2\n      add\n      swap1\n      tag_56\n      swap2\n      swap1\n      tag_32\n      jump\t// in\n    tag_56:\n      tag_57\n      jump\t// in\n    tag_55:\n      mload(0x40)\n      tag_58\n      swap2\n      swap1\n      tag_39\n      jump\t// in\n    tag_58:\n      mload(0x40)\n      dup1\n      swap2\n      sub\n      swap1\n      return\n        /* \"Access/Manufacturer.sol\":823:933  function addManufacturer (address account) public onlyManufacturer{... */\n    tag_10:\n      callvalue\n      dup1\n      iszero\n      tag_59\n      jumpi\n      0x00\n      dup1\n      revert\n    tag_59:\n      pop\n      tag_60\n      0x04\n      dup1\n      calldatasize\n      sub\n      dup2\n      add\n      swap1\n      tag_61\n      swap2\n      swap1\n      tag_32\n      jump\t// in\n    tag_61:\n      tag_62\n      jump\t// in\n    tag_60:\n      stop\n        /* \"Access/Wholesaler.sol\":660:793  function isWholesaler(address account )... */\n    tag_11:\n      callvalue\n      dup1\n      iszero\n      tag_63\n      jumpi\n      0x00\n      dup1\n      revert\n    tag_63:\n      pop\n      tag_64\n      0x04\n      dup1\n      calldatasize\n      sub\n      dup2\n      add\n      swap1\n      tag_65\n      swap2\n      swap1\n      tag_32\n      jump\t// in\n    tag_65:\n      tag_66\n      jump\t// in\n    tag_64:\n      mload(0x40)\n      tag_67\n      swap2\n      swap1\n      tag_39\n      jump\t// in\n    tag_67:\n      mload(0x40)\n      dup1\n      swap2\n      sub\n      swap1\n      return\n        /* \"Supplychain/Supplychain1.sol\":10146:10605  function shippedItemByFarmer(uint256 _productCode)... */\n    tag_12:\n      tag_68\n      0x04\n      dup1\n      calldatasize\n      sub\n      dup2\n      add\n      swap1\n      tag_69\n      swap2\n      swap1\n      tag_43\n      jump\t// in\n    tag_69:\n      tag_70\n      jump\t// in\n    tag_68:\n      stop\n        /* \"Access/Distributor.sol\":814:921  function addDistributor (address account) public onlyDistributor{... */\n    tag_13:\n      callvalue\n      dup1\n      iszero\n      tag_71\n      jumpi\n      0x00\n      dup1\n      revert\n    tag_71:\n      pop\n      tag_72\n      0x04\n      dup1\n      calldatasize\n      sub\n      dup2\n      add\n      swap1\n      tag_73\n      swap2\n      swap1\n      tag_32\n      jump\t// in\n    tag_73:\n      tag_74\n      jump\t// in\n    tag_72:\n      stop\n        /* \"Access/Consumer.sol\":646:775  function isConsumer(address account )... */\n    tag_14:\n      callvalue\n      dup1\n      iszero\n      tag_75\n      jumpi\n      0x00\n      dup1\n      revert\n    tag_75:\n      pop\n      tag_76\n      0x04\n      dup1\n      calldatasize\n      sub\n      dup2\n      add\n      swap1\n      tag_77\n      swap2\n      swap1\n      tag_32\n      jump\t// in\n    tag_77:\n      tag_78\n      jump\t// in\n    tag_76:\n      mload(0x40)\n      tag_79\n      swap2\n      swap1\n      tag_39\n      jump\t// in\n    tag_79:\n      mload(0x40)\n      dup1\n      swap2\n      sub\n      swap1\n      return\n        /* \"Access/Manufacturer.sol\":941:1040  function  renouceManufaturer() public{... */\n    tag_15:\n      callvalue\n      dup1\n      iszero\n      tag_80\n      jumpi\n      0x00\n      dup1\n      revert\n    tag_80:\n      pop\n      tag_81\n      tag_82\n      jump\t// in\n    tag_81:\n      stop\n        /* \"Access/Retailer.sol\":787:885  function addRetailer (address account) public onlyRetailer{... */\n    tag_16:\n      callvalue\n      dup1\n      iszero\n      tag_83\n      jumpi\n      0x00\n      dup1\n      revert\n    tag_83:\n      pop\n      tag_84\n      0x04\n      dup1\n      calldatasize\n      sub\n      dup2\n      add\n      swap1\n      tag_85\n      swap2\n      swap1\n      tag_32\n      jump\t// in\n    tag_85:\n      tag_86\n      jump\t// in\n    tag_84:\n      stop\n        /* \"Access/Distributor.sol\":667:802  function isDistributor(address account )... */\n    tag_17:\n      callvalue\n      dup1\n      iszero\n      tag_87\n      jumpi\n      0x00\n      dup1\n      revert\n    tag_87:\n      pop\n      tag_88\n      0x04\n      dup1\n      calldatasize\n      sub\n      dup2\n      add\n      swap1\n      tag_89\n      swap2\n      swap1\n      tag_32\n      jump\t// in\n    tag_89:\n      tag_90\n      jump\t// in\n    tag_88:\n      mload(0x40)\n      tag_91\n      swap2\n      swap1\n      tag_39\n      jump\t// in\n    tag_91:\n      mload(0x40)\n      dup1\n      swap2\n      sub\n      swap1\n      return\n        /* \"Supplychain/Supplychain1.sol\":6915:8381  function ProduceItemByManufacturer(... */\n    tag_18:\n      callvalue\n      dup1\n      iszero\n      tag_92\n      jumpi\n      0x00\n      dup1\n      revert\n    tag_92:\n      pop\n      tag_93\n      0x04\n      dup1\n      calldatasize\n      sub\n      dup2\n      add\n      swap1\n      tag_94\n      swap2\n      swap1\n      tag_95\n      jump\t// in\n    tag_94:\n      tag_96\n      jump\t// in\n    tag_93:\n      stop\n        /* \"Access/Wholesaler.sol\":805:909  function addWholesaler (address account) public onlyWholesaler{... */\n    tag_19:\n      callvalue\n      dup1\n      iszero\n      tag_97\n      jumpi\n      0x00\n      dup1\n      revert\n    tag_97:\n      pop\n      tag_98\n      0x04\n      dup1\n      calldatasize\n      sub\n      dup2\n      add\n      swap1\n      tag_99\n      swap2\n      swap1\n      tag_32\n      jump\t// in\n    tag_99:\n      tag_100\n      jump\t// in\n    tag_98:\n      stop\n        /* \"Access/Retailer.sol\":893:985  function  renouceRetailer() public{... */\n    tag_20:\n      callvalue\n      dup1\n      iszero\n      tag_101\n      jumpi\n      0x00\n      dup1\n      revert\n    tag_101:\n      pop\n      tag_102\n      tag_103\n      jump\t// in\n    tag_102:\n      stop\n        /* \"Supplychain/Supplychain1.sol\":8429:8891  function sellItemByFarmer(uint256 _productCode, uint256 _price)... */\n    tag_21:\n      callvalue\n      dup1\n      iszero\n      tag_104\n      jumpi\n      0x00\n      dup1\n      revert\n    tag_104:\n      pop\n      tag_105\n      0x04\n      dup1\n      calldatasize\n      sub\n      dup2\n      add\n      swap1\n      tag_106\n      swap2\n      swap1\n      tag_107\n      jump\t// in\n    tag_106:\n      tag_108\n      jump\t// in\n    tag_105:\n      stop\n        /* \"Supplychain/Supplychain1.sol\":8934:10032  function purchaseItemByDistributor(uint256 _productCode)... */\n    tag_22:\n      tag_109\n      0x04\n      dup1\n      calldatasize\n      sub\n      dup2\n      add\n      swap1\n      tag_110\n      swap2\n      swap1\n      tag_43\n      jump\t// in\n    tag_110:\n      tag_111\n      jump\t// in\n    tag_109:\n      stop\n        /* \"Access/Wholesaler.sol\":917:1013  function  renouceWholesaler() public{... */\n    tag_28:\n        /* \"Access/Wholesaler.sol\":974:1005  _removeWholesaler(_msgSender()) */\n      tag_114\n        /* \"Access/Wholesaler.sol\":992:1004  _msgSender() */\n      tag_115\n        /* \"Access/Wholesaler.sol\":992:1002  _msgSender */\n      tag_116\n        /* \"Access/Wholesaler.sol\":992:1004  _msgSender() */\n      jump\t// in\n    tag_115:\n        /* \"Access/Wholesaler.sol\":974:991  _removeWholesaler */\n      tag_117\n        /* \"Access/Wholesaler.sol\":974:1005  _removeWholesaler(_msgSender()) */\n      jump\t// in\n    tag_114:\n        /* \"Access/Wholesaler.sol\":917:1013  function  renouceWholesaler() public{... */\n      jump\t// out\n        /* \"Access/Consumer.sol\":787:885  function addConsumer (address account) public onlyConsumer{... */\n    tag_33:\n        /* \"Access/Consumer.sol\":534:558  isConsumer(_msgSender()) */\n      tag_119\n        /* \"Access/Consumer.sol\":545:557  _msgSender() */\n      tag_120\n        /* \"Access/Consumer.sol\":545:555  _msgSender */\n      tag_116\n        /* \"Access/Consumer.sol\":545:557  _msgSender() */\n      jump\t// in\n    tag_120:\n        /* \"Access/Consumer.sol\":534:544  isConsumer */\n      tag_78\n        /* \"Access/Consumer.sol\":534:558  isConsumer(_msgSender()) */\n      jump\t// in\n    tag_119:\n        /* \"Access/Consumer.sol\":526:559  require(isConsumer(_msgSender())) */\n      tag_121\n      jumpi\n      0x00\n      dup1\n      revert\n    tag_121:\n        /* \"Access/Consumer.sol\":856:877  _addConsumer(account) */\n      tag_123\n        /* \"Access/Consumer.sol\":869:876  account */\n      dup2\n        /* \"Access/Consumer.sol\":856:868  _addConsumer */\n      tag_124\n        /* \"Access/Consumer.sol\":856:877  _addConsumer(account) */\n      jump\t// in\n    tag_123:\n        /* \"Access/Consumer.sol\":787:885  function addConsumer (address account) public onlyConsumer{... */\n      pop\n      jump\t// out\n        /* \"Access/Manufacturer.sol\":674:811  function isManufacturer(address account )... */\n    tag_37:\n        /* \"Access/Manufacturer.sol\":754:758  bool */\n      0x00\n        /* \"Access/Manufacturer.sol\":777:803  manufacturers.has(account) */\n      tag_126\n        /* \"Access/Manufacturer.sol\":795:802  account */\n      dup3\n        /* \"Access/Manufacturer.sol\":777:790  manufacturers */\n      0x00\n        /* \"Access/Manufacturer.sol\":777:794  manufacturers.has */\n      tag_127\n      swap1\n        /* \"Access/Manufacturer.sol\":777:803  manufacturers.has(account) */\n      swap2\n      swap1\n      0xffffffff\n      and\n      jump\t// in\n    tag_126:\n        /* \"Access/Manufacturer.sol\":770:803  return manufacturers.has(account) */\n      swap1\n      pop\n        /* \"Access/Manufacturer.sol\":674:811  function isManufacturer(address account )... */\n      swap2\n      swap1\n      pop\n      jump\t// out\n        /* \"Supplychain/Supplychain1.sol\":10698:11122  function receivedItemByDistributor(uint256 _productCode)... */\n    tag_44:\n        /* \"Access/Distributor.sol\":552:579  isDistributor(_msgSender()) */\n      tag_129\n        /* \"Access/Distributor.sol\":566:578  _msgSender() */\n      tag_130\n        /* \"Access/Distributor.sol\":566:576  _msgSender */\n      tag_116\n        /* \"Access/Distributor.sol\":566:578  _msgSender() */\n      jump\t// in\n    tag_130:\n        /* \"Access/Distributor.sol\":552:565  isDistributor */\n      tag_90\n        /* \"Access/Distributor.sol\":552:579  isDistributor(_msgSender()) */\n      jump\t// in\n    tag_129:\n        /* \"Access/Distributor.sol\":544:580  require(isDistributor(_msgSender())) */\n      tag_131\n      jumpi\n      0x00\n      dup1\n      revert\n    tag_131:\n        /* \"Supplychain/Supplychain1.sol\":10877:10889  _productCode */\n      dup1\n        /* \"Supplychain/Supplychain1.sol\":4591:4617  state.ShippedByDistributor */\n      0x07\n        /* \"Supplychain/Supplychain1.sol\":4558:4617  items[_ProductCode].itemState == state.ShippedByDistributor */\n      0x0d\n      dup2\n      gt\n      iszero\n      tag_133\n      jumpi\n      tag_134\n      tag_135\n      jump\t// in\n    tag_134:\n    tag_133:\n        /* \"Supplychain/Supplychain1.sol\":4558:4563  items */\n      0x08\n        /* \"Supplychain/Supplychain1.sol\":4558:4577  items[_ProductCode] */\n      0x00\n        /* \"Supplychain/Supplychain1.sol\":4564:4576  _ProductCode */\n      dup4\n        /* \"Supplychain/Supplychain1.sol\":4558:4577  items[_ProductCode] */\n      dup2\n      mstore\n      0x20\n      add\n      swap1\n      dup2\n      mstore\n      0x20\n      add\n      0x00\n      keccak256\n        /* \"Supplychain/Supplychain1.sol\":4558:4587  items[_ProductCode].itemState */\n      0x06\n      add\n      0x00\n      swap1\n      sload\n      swap1\n      0x0100\n      exp\n      swap1\n      div\n      0xff\n      and\n        /* \"Supplychain/Supplychain1.sol\":4558:4617  items[_ProductCode].itemState == state.ShippedByDistributor */\n      0x0d\n      dup2\n      gt\n      iszero\n      tag_136\n      jumpi\n      tag_137\n      tag_135\n      jump\t// in\n    tag_137:\n    tag_136:\n      eq\n        /* \"Supplychain/Supplychain1.sol\":4550:4618  require(items[_ProductCode].itemState == state.ShippedByDistributor) */\n      tag_138\n      jumpi\n      0x00\n      dup1\n      revert\n    tag_138:\n        /* \"Supplychain/Supplychain1.sol\":10913:10918  items */\n      0x08\n        /* \"Supplychain/Supplychain1.sol\":10913:10932  items[_productCode] */\n      0x00\n        /* \"Supplychain/Supplychain1.sol\":10919:10931  _productCode */\n      dup4\n        /* \"Supplychain/Supplychain1.sol\":10913:10932  items[_productCode] */\n      dup2\n      mstore\n      0x20\n      add\n      swap1\n      dup2\n      mstore\n      0x20\n      add\n      0x00\n      keccak256\n        /* \"Supplychain/Supplychain1.sol\":10913:10940  items[_productCode].ownerID */\n      0x02\n      add\n      0x00\n      swap1\n      sload\n      swap1\n      0x0100\n      exp\n      swap1\n      div\n      0xffffffffffffffffffffffffffffffffffffffff\n      and\n        /* \"Supplychain/Supplychain1.sol\":3352:3360  _address */\n      dup1\n        /* \"Supplychain/Supplychain1.sol\":3336:3360  _msgSender() == _address */\n      0xffffffffffffffffffffffffffffffffffffffff\n      and\n        /* \"Supplychain/Supplychain1.sol\":3336:3348  _msgSender() */\n      tag_140\n        /* \"Supplychain/Supplychain1.sol\":3336:3346  _msgSender */\n      tag_116\n        /* \"Supplychain/Supplychain1.sol\":3336:3348  _msgSender() */\n      jump\t// in\n    tag_140:\n        /* \"Supplychain/Supplychain1.sol\":3336:3360  _msgSender() == _address */\n      0xffffffffffffffffffffffffffffffffffffffff\n      and\n      eq\n        /* \"Supplychain/Supplychain1.sol\":3328:3361  require(_msgSender() == _address) */\n      tag_141\n      jumpi\n      0x00\n      dup1\n      revert\n    tag_141:\n        /* \"Supplychain/Supplychain1.sol\":11020:11047  state.ReceivedByDistributor */\n      0x04\n        /* \"Supplychain/Supplychain1.sol\":10989:10994  items */\n      0x08\n        /* \"Supplychain/Supplychain1.sol\":10989:11008  items[_productCode] */\n      0x00\n        /* \"Supplychain/Supplychain1.sol\":10995:11007  _productCode */\n      dup6\n        /* \"Supplychain/Supplychain1.sol\":10989:11008  items[_productCode] */\n      dup2\n      mstore\n      0x20\n      add\n      swap1\n      dup2\n      mstore\n      0x20\n      add\n      0x00\n      keccak256\n        /* \"Supplychain/Supplychain1.sol\":10989:11018  items[_productCode].itemState */\n      0x06\n      add\n      0x00\n        /* \"Supplychain/Supplychain1.sol\":10989:11047  items[_productCode].itemState =state.ReceivedByDistributor */\n      0x0100\n      exp\n      dup2\n      sload\n      dup2\n      0xff\n      mul\n      not\n      and\n      swap1\n      dup4\n      0x0d\n      dup2\n      gt\n      iszero\n      tag_143\n      jumpi\n      tag_144\n      tag_135\n      jump\t// in\n    tag_144:\n    tag_143:\n      mul\n      or\n      swap1\n      sstore\n      pop\n        /* \"Supplychain/Supplychain1.sol\":11079:11114  ReceivedByDistributor(_productCode) */\n      0xc8ca2150e6e1849a10ef5aa4932060fa353bcacdffeb150c9e1890c6ab9403cc\n        /* \"Supplychain/Supplychain1.sol\":11101:11113  _productCode */\n      dup4\n        /* \"Supplychain/Supplychain1.sol\":11079:11114  ReceivedByDistributor(_productCode) */\n      mload(0x40)\n      tag_145\n      swap2\n      swap1\n      tag_146\n      jump\t// in\n    tag_145:\n      mload(0x40)\n      dup1\n      swap2\n      sub\n      swap1\n      log1\n        /* \"Supplychain/Supplychain1.sol\":4632:4633  _ */\n      pop\n        /* \"Access/Distributor.sol\":590:591  _ */\n      pop\n        /* \"Supplychain/Supplychain1.sol\":10698:11122  function receivedItemByDistributor(uint256 _productCode)... */\n      pop\n      jump\t// out\n        /* \"Access/Consumer.sol\":893:985  function  renouceConsumer() public{... */\n    tag_47:\n        /* \"Access/Consumer.sol\":948:977  _removeConsumer(_msgSender()) */\n      tag_148\n        /* \"Access/Consumer.sol\":964:976  _msgSender() */\n      tag_149\n        /* \"Access/Consumer.sol\":964:974  _msgSender */\n      tag_116\n        /* \"Access/Consumer.sol\":964:976  _msgSender() */\n      jump\t// in\n    tag_149:\n        /* \"Access/Consumer.sol\":948:963  _removeConsumer */\n      tag_150\n        /* \"Access/Consumer.sol\":948:977  _removeConsumer(_msgSender()) */\n      jump\t// in\n    tag_148:\n        /* \"Access/Consumer.sol\":893:985  function  renouceConsumer() public{... */\n      jump\t// out\n        /* \"Supplychain/Supplychain1.sol\":6417:6618  function kill() public {... */\n    tag_50:\n        /* \"Supplychain/Supplychain1.sol\":6471:6476  owner */\n      0x05\n      0x00\n      swap1\n      sload\n      swap1\n      0x0100\n      exp\n      swap1\n      div\n      0xffffffffffffffffffffffffffffffffffffffff\n      and\n        /* \"Supplychain/Supplychain1.sol\":6455:6476  _msgSender() == owner */\n      0xffffffffffffffffffffffffffffffffffffffff\n      and\n        /* \"Supplychain/Supplychain1.sol\":6455:6467  _msgSender() */\n      tag_152\n        /* \"Supplychain/Supplychain1.sol\":6455:6465  _msgSender */\n      tag_116\n        /* \"Supplychain/Supplychain1.sol\":6455:6467  _msgSender() */\n      jump\t// in\n    tag_152:\n        /* \"Supplychain/Supplychain1.sol\":6455:6476  _msgSender() == owner */\n      0xffffffffffffffffffffffffffffffffffffffff\n      and\n      sub\n        /* \"Supplychain/Supplychain1.sol\":6451:6611  if (_msgSender() == owner) {... */\n      tag_153\n      jumpi\n        /* \"Supplychain/Supplychain1.sol\":6493:6528  address payable ownerAddressPayable */\n      0x00\n        /* \"Supplychain/Supplychain1.sol\":6531:6551  _make_payable(owner) */\n      tag_154\n        /* \"Supplychain/Supplychain1.sol\":6545:6550  owner */\n      0x05\n      0x00\n      swap1\n      sload\n      swap1\n      0x0100\n      exp\n      swap1\n      div\n      0xffffffffffffffffffffffffffffffffffffffff\n      and\n        /* \"Supplychain/Supplychain1.sol\":6531:6544  _make_payable */\n      tag_155\n        /* \"Supplychain/Supplychain1.sol\":6531:6551  _make_payable(owner) */\n      jump\t// in\n    tag_154:\n        /* \"Supplychain/Supplychain1.sol\":6493:6551  address payable ownerAddressPayable = _make_payable(owner) */\n      swap1\n      pop\n        /* \"Supplychain/Supplychain1.sol\":6579:6598  ownerAddressPayable */\n      dup1\n        /* \"Supplychain/Supplychain1.sol\":6566:6599  selfdestruct(ownerAddressPayable) */\n      0xffffffffffffffffffffffffffffffffffffffff\n      and\n      selfdestruct\n        /* \"Supplychain/Supplychain1.sol\":6451:6611  if (_msgSender() == owner) {... */\n    tag_153:\n        /* \"Supplychain/Supplychain1.sol\":6417:6618  function kill() public {... */\n      jump\t// out\n        /* \"Access/Distributor.sol\":929:1027  function  renouceDistributor() public{... */\n    tag_53:\n        /* \"Access/Distributor.sol\":987:1019  _removeDistributor(_msgSender()) */\n      tag_157\n        /* \"Access/Distributor.sol\":1006:1018  _msgSender() */\n      tag_158\n        /* \"Access/Distributor.sol\":1006:1016  _msgSender */\n      tag_116\n        /* \"Access/Distributor.sol\":1006:1018  _msgSender() */\n      jump\t// in\n    tag_158:\n        /* \"Access/Distributor.sol\":987:1005  _removeDistributor */\n      tag_159\n        /* \"Access/Distributor.sol\":987:1019  _removeDistributor(_msgSender()) */\n      jump\t// in\n    tag_157:\n        /* \"Access/Distributor.sol\":929:1027  function  renouceDistributor() public{... */\n      jump\t// out\n        /* \"Access/Retailer.sol\":646:775  function isRetailer(address account )... */\n    tag_57:\n        /* \"Access/Retailer.sol\":722:726  bool */\n      0x00\n        /* \"Access/Retailer.sol\":745:767  retailers.has(account) */\n      tag_161\n        /* \"Access/Retailer.sol\":759:766  account */\n      dup3\n        /* \"Access/Retailer.sol\":745:754  retailers */\n      0x03\n        /* \"Access/Retailer.sol\":745:758  retailers.has */\n      tag_127\n      swap1\n        /* \"Access/Retailer.sol\":745:767  retailers.has(account) */\n      swap2\n      swap1\n      0xffffffff\n      and\n      jump\t// in\n    tag_161:\n        /* \"Access/Retailer.sol\":738:767  return retailers.has(account) */\n      swap1\n      pop\n        /* \"Access/Retailer.sol\":646:775  function isRetailer(address account )... */\n      swap2\n      swap1\n      pop\n      jump\t// out\n        /* \"Access/Manufacturer.sol\":823:933  function addManufacturer (address account) public onlyManufacturer{... */\n    tag_62:\n        /* \"Access/Manufacturer.sol\":558:586  isManufacturer(_msgSender()) */\n      tag_163\n        /* \"Access/Manufacturer.sol\":573:585  _msgSender() */\n      tag_164\n        /* \"Access/Manufacturer.sol\":573:583  _msgSender */\n      tag_116\n        /* \"Access/Manufacturer.sol\":573:585  _msgSender() */\n      jump\t// in\n    tag_164:\n        /* \"Access/Manufacturer.sol\":558:572  isManufacturer */\n      tag_37\n        /* \"Access/Manufacturer.sol\":558:586  isManufacturer(_msgSender()) */\n      jump\t// in\n    tag_163:\n        /* \"Access/Manufacturer.sol\":550:587  require(isManufacturer(_msgSender())) */\n      tag_165\n      jumpi\n      0x00\n      dup1\n      revert\n    tag_165:\n        /* \"Access/Manufacturer.sol\":900:925  _addManufacturer(account) */\n      tag_167\n        /* \"Access/Manufacturer.sol\":917:924  account */\n      dup2\n        /* \"Access/Manufacturer.sol\":900:916  _addManufacturer */\n      tag_168\n        /* \"Access/Manufacturer.sol\":900:925  _addManufacturer(account) */\n      jump\t// in\n    tag_167:\n        /* \"Access/Manufacturer.sol\":823:933  function addManufacturer (address account) public onlyManufacturer{... */\n      pop\n      jump\t// out\n        /* \"Access/Wholesaler.sol\":660:793  function isWholesaler(address account )... */\n    tag_66:\n        /* \"Access/Wholesaler.sol\":738:742  bool */\n      0x00\n        /* \"Access/Wholesaler.sol\":761:785  wholesalers.has(account) */\n      tag_170\n        /* \"Access/Wholesaler.sol\":777:784  account */\n      dup3\n        /* \"Access/Wholesaler.sol\":761:772  wholesalers */\n      0x02\n        /* \"Access/Wholesaler.sol\":761:776  wholesalers.has */\n      tag_127\n      swap1\n        /* \"Access/Wholesaler.sol\":761:785  wholesalers.has(account) */\n      swap2\n      swap1\n      0xffffffff\n      and\n      jump\t// in\n    tag_170:\n        /* \"Access/Wholesaler.sol\":754:785  return wholesalers.has(account) */\n      swap1\n      pop\n        /* \"Access/Wholesaler.sol\":660:793  function isWholesaler(address account )... */\n      swap2\n      swap1\n      pop\n      jump\t// out\n        /* \"Supplychain/Supplychain1.sol\":10146:10605  function shippedItemByFarmer(uint256 _productCode)... */\n    tag_70:\n        /* \"Access/Manufacturer.sol\":558:586  isManufacturer(_msgSender()) */\n      tag_172\n        /* \"Access/Manufacturer.sol\":573:585  _msgSender() */\n      tag_173\n        /* \"Access/Manufacturer.sol\":573:583  _msgSender */\n      tag_116\n        /* \"Access/Manufacturer.sol\":573:585  _msgSender() */\n      jump\t// in\n    tag_173:\n        /* \"Access/Manufacturer.sol\":558:572  isManufacturer */\n      tag_37\n        /* \"Access/Manufacturer.sol\":558:586  isManufacturer(_msgSender()) */\n      jump\t// in\n    tag_172:\n        /* \"Access/Manufacturer.sol\":550:587  require(isManufacturer(_msgSender())) */\n      tag_174\n      jumpi\n      0x00\n      dup1\n      revert\n    tag_174:\n        /* \"Supplychain/Supplychain1.sol\":10332:10344  _productCode */\n      dup1\n        /* \"Supplychain/Supplychain1.sol\":4413:4441  state.PurchasedByDistributor */\n      0x02\n        /* \"Supplychain/Supplychain1.sol\":4380:4441  items[_ProductCode].itemState == state.PurchasedByDistributor */\n      0x0d\n      dup2\n      gt\n      iszero\n      tag_176\n      jumpi\n      tag_177\n      tag_135\n      jump\t// in\n    tag_177:\n    tag_176:\n        /* \"Supplychain/Supplychain1.sol\":4380:4385  items */\n      0x08\n        /* \"Supplychain/Supplychain1.sol\":4380:4399  items[_ProductCode] */\n      0x00\n        /* \"Supplychain/Supplychain1.sol\":4386:4398  _ProductCode */\n      dup4\n        /* \"Supplychain/Supplychain1.sol\":4380:4399  items[_ProductCode] */\n      dup2\n      mstore\n      0x20\n      add\n      swap1\n      dup2\n      mstore\n      0x20\n      add\n      0x00\n      keccak256\n        /* \"Supplychain/Supplychain1.sol\":4380:4409  items[_ProductCode].itemState */\n      0x06\n      add\n      0x00\n      swap1\n      sload\n      swap1\n      0x0100\n      exp\n      swap1\n      div\n      0xff\n      and\n        /* \"Supplychain/Supplychain1.sol\":4380:4441  items[_ProductCode].itemState == state.PurchasedByDistributor */\n      0x0d\n      dup2\n      gt\n      iszero\n      tag_178\n      jumpi\n      tag_179\n      tag_135\n      jump\t// in\n    tag_179:\n    tag_178:\n      eq\n        /* \"Supplychain/Supplychain1.sol\":4372:4442  require(items[_ProductCode].itemState == state.PurchasedByDistributor) */\n      tag_180\n      jumpi\n      0x00\n      dup1\n      revert\n    tag_180:\n        /* \"Supplychain/Supplychain1.sol\":10368:10373  items */\n      0x08\n        /* \"Supplychain/Supplychain1.sol\":10368:10387  items[_productCode] */\n      0x00\n        /* \"Supplychain/Supplychain1.sol\":10374:10386  _productCode */\n      dup4\n        /* \"Supplychain/Supplychain1.sol\":10368:10387  items[_productCode] */\n      dup2\n      mstore\n      0x20\n      add\n      swap1\n      dup2\n      mstore\n      0x20\n      add\n      0x00\n      keccak256\n        /* \"Supplychain/Supplychain1.sol\":10368:10402  items[_productCode].manufacturerID */\n      0x03\n      add\n      0x00\n      swap1\n      sload\n      swap1\n      0x0100\n      exp\n      swap1\n      div\n      0xffffffffffffffffffffffffffffffffffffffff\n      and\n        /* \"Supplychain/Supplychain1.sol\":3352:3360  _address */\n      dup1\n        /* \"Supplychain/Supplychain1.sol\":3336:3360  _msgSender() == _address */\n      0xffffffffffffffffffffffffffffffffffffffff\n      and\n        /* \"Supplychain/Supplychain1.sol\":3336:3348  _msgSender() */\n      tag_182\n        /* \"Supplychain/Supplychain1.sol\":3336:3346  _msgSender */\n      tag_116\n        /* \"Supplychain/Supplychain1.sol\":3336:3348  _msgSender() */\n      jump\t// in\n    tag_182:\n        /* \"Supplychain/Supplychain1.sol\":3336:3360  _msgSender() == _address */\n      0xffffffffffffffffffffffffffffffffffffffff\n      and\n      eq\n        /* \"Supplychain/Supplychain1.sol\":3328:3361  require(_msgSender() == _address) */\n      tag_183\n      jumpi\n      0x00\n      dup1\n      revert\n    tag_183:\n        /* \"Supplychain/Supplychain1.sol\":10498:10525  state.ShippedByManufacturer */\n      0x03\n        /* \"Supplychain/Supplychain1.sol\":10466:10471  items */\n      0x08\n        /* \"Supplychain/Supplychain1.sol\":10466:10485  items[_productCode] */\n      0x00\n        /* \"Supplychain/Supplychain1.sol\":10472:10484  _productCode */\n      dup6\n        /* \"Supplychain/Supplychain1.sol\":10466:10485  items[_productCode] */\n      dup2\n      mstore\n      0x20\n      add\n      swap1\n      dup2\n      mstore\n      0x20\n      add\n      0x00\n      keccak256\n        /* \"Supplychain/Supplychain1.sol\":10466:10495  items[_productCode].itemState */\n      0x06\n      add\n      0x00\n        /* \"Supplychain/Supplychain1.sol\":10466:10525  items[_productCode].itemState = state.ShippedByManufacturer */\n      0x0100\n      exp\n      dup2\n      sload\n      dup2\n      0xff\n      mul\n      not\n      and\n      swap1\n      dup4\n      0x0d\n      dup2\n      gt\n      iszero\n      tag_185\n      jumpi\n      tag_186\n      tag_135\n      jump\t// in\n    tag_186:\n    tag_185:\n      mul\n      or\n      swap1\n      sstore\n      pop\n        /* \"Supplychain/Supplychain1.sol\":10557:10591  ShippedByManufacturer(productCode) */\n      0x25727bef8a186dd95a062151451f2d651551b53124c18208d7653b1217ae31ba\n        /* \"Supplychain/Supplychain1.sol\":10579:10590  productCode */\n      sload(0x06)\n        /* \"Supplychain/Supplychain1.sol\":10557:10591  ShippedByManufacturer(productCode) */\n      mload(0x40)\n      tag_187\n      swap2\n      swap1\n      tag_146\n      jump\t// in\n    tag_187:\n      mload(0x40)\n      dup1\n      swap2\n      sub\n      swap1\n      log1\n        /* \"Supplychain/Supplychain1.sol\":4456:4457  _ */\n      pop\n        /* \"Access/Manufacturer.sol\":597:598  _ */\n      pop\n        /* \"Supplychain/Supplychain1.sol\":10146:10605  function shippedItemByFarmer(uint256 _productCode)... */\n      pop\n      jump\t// out\n        /* \"Access/Distributor.sol\":814:921  function addDistributor (address account) public onlyDistributor{... */\n    tag_74:\n        /* \"Access/Distributor.sol\":552:579  isDistributor(_msgSender()) */\n      tag_189\n        /* \"Access/Distributor.sol\":566:578  _msgSender() */\n      tag_190\n        /* \"Access/Distributor.sol\":566:576  _msgSender */\n      tag_116\n        /* \"Access/Distributor.sol\":566:578  _msgSender() */\n      jump\t// in\n    tag_190:\n        /* \"Access/Distributor.sol\":552:565  isDistributor */\n      tag_90\n        /* \"Access/Distributor.sol\":552:579  isDistributor(_msgSender()) */\n      jump\t// in\n    tag_189:\n        /* \"Access/Distributor.sol\":544:580  require(isDistributor(_msgSender())) */\n      tag_191\n      jumpi\n      0x00\n      dup1\n      revert\n    tag_191:\n        /* \"Access/Distributor.sol\":889:913  _addDistributor(account) */\n      tag_193\n        /* \"Access/Distributor.sol\":905:912  account */\n      dup2\n        /* \"Access/Distributor.sol\":889:904  _addDistributor */\n      tag_194\n        /* \"Access/Distributor.sol\":889:913  _addDistributor(account) */\n      jump\t// in\n    tag_193:\n        /* \"Access/Distributor.sol\":814:921  function addDistributor (address account) public onlyDistributor{... */\n      pop\n      jump\t// out\n        /* \"Access/Consumer.sol\":646:775  function isConsumer(address account )... */\n    tag_78:\n        /* \"Access/Consumer.sol\":722:726  bool */\n      0x00\n        /* \"Access/Consumer.sol\":745:767  consumers.has(account) */\n      tag_196\n        /* \"Access/Consumer.sol\":759:766  account */\n      dup3\n        /* \"Access/Consumer.sol\":745:754  consumers */\n      0x04\n        /* \"Access/Consumer.sol\":745:758  consumers.has */\n      tag_127\n      swap1\n        /* \"Access/Consumer.sol\":745:767  consumers.has(account) */\n      swap2\n      swap1\n      0xffffffff\n      and\n      jump\t// in\n    tag_196:\n        /* \"Access/Consumer.sol\":738:767  return consumers.has(account) */\n      swap1\n      pop\n        /* \"Access/Consumer.sol\":646:775  function isConsumer(address account )... */\n      swap2\n      swap1\n      pop\n      jump\t// out\n        /* \"Access/Manufacturer.sol\":941:1040  function  renouceManufaturer() public{... */\n    tag_82:\n        /* \"Access/Manufacturer.sol\":999:1032  _removeManufacturer(_msgSender()) */\n      tag_198\n        /* \"Access/Manufacturer.sol\":1019:1031  _msgSender() */\n      tag_199\n        /* \"Access/Manufacturer.sol\":1019:1029  _msgSender */\n      tag_116\n        /* \"Access/Manufacturer.sol\":1019:1031  _msgSender() */\n      jump\t// in\n    tag_199:\n        /* \"Access/Manufacturer.sol\":999:1018  _removeManufacturer */\n      tag_200\n        /* \"Access/Manufacturer.sol\":999:1032  _removeManufacturer(_msgSender()) */\n      jump\t// in\n    tag_198:\n        /* \"Access/Manufacturer.sol\":941:1040  function  renouceManufaturer() public{... */\n      jump\t// out\n        /* \"Access/Retailer.sol\":787:885  function addRetailer (address account) public onlyRetailer{... */\n    tag_86:\n        /* \"Access/Retailer.sol\":534:558  isRetailer(_msgSender()) */\n      tag_202\n        /* \"Access/Retailer.sol\":545:557  _msgSender() */\n      tag_203\n        /* \"Access/Retailer.sol\":545:555  _msgSender */\n      tag_116\n        /* \"Access/Retailer.sol\":545:557  _msgSender() */\n      jump\t// in\n    tag_203:\n        /* \"Access/Retailer.sol\":534:544  isRetailer */\n      tag_57\n        /* \"Access/Retailer.sol\":534:558  isRetailer(_msgSender()) */\n      jump\t// in\n    tag_202:\n        /* \"Access/Retailer.sol\":526:559  require(isRetailer(_msgSender())) */\n      tag_204\n      jumpi\n      0x00\n      dup1\n      revert\n    tag_204:\n        /* \"Access/Retailer.sol\":856:877  _addRetailer(account) */\n      tag_206\n        /* \"Access/Retailer.sol\":869:876  account */\n      dup2\n        /* \"Access/Retailer.sol\":856:868  _addRetailer */\n      tag_207\n        /* \"Access/Retailer.sol\":856:877  _addRetailer(account) */\n      jump\t// in\n    tag_206:\n        /* \"Access/Retailer.sol\":787:885  function addRetailer (address account) public onlyRetailer{... */\n      pop\n      jump\t// out\n        /* \"Access/Distributor.sol\":667:802  function isDistributor(address account )... */\n    tag_90:\n        /* \"Access/Distributor.sol\":746:750  bool */\n      0x00\n        /* \"Access/Distributor.sol\":769:794  distributors.has(account) */\n      tag_209\n        /* \"Access/Distributor.sol\":786:793  account */\n      dup3\n        /* \"Access/Distributor.sol\":769:781  distributors */\n      0x01\n        /* \"Access/Distributor.sol\":769:785  distributors.has */\n      tag_127\n      swap1\n        /* \"Access/Distributor.sol\":769:794  distributors.has(account) */\n      swap2\n      swap1\n      0xffffffff\n      and\n      jump\t// in\n    tag_209:\n        /* \"Access/Distributor.sol\":762:794  return distributors.has(account) */\n      swap1\n      pop\n        /* \"Access/Distributor.sol\":667:802  function isDistributor(address account )... */\n      swap2\n      swap1\n      pop\n      jump\t// out\n        /* \"Supplychain/Supplychain1.sol\":6915:8381  function ProduceItemByManufacturer(... */\n    tag_96:\n        /* \"Access/Manufacturer.sol\":558:586  isManufacturer(_msgSender()) */\n      tag_211\n        /* \"Access/Manufacturer.sol\":573:585  _msgSender() */\n      tag_212\n        /* \"Access/Manufacturer.sol\":573:583  _msgSender */\n      tag_116\n        /* \"Access/Manufacturer.sol\":573:585  _msgSender() */\n      jump\t// in\n    tag_212:\n        /* \"Access/Manufacturer.sol\":558:572  isManufacturer */\n      tag_37\n        /* \"Access/Manufacturer.sol\":558:586  isManufacturer(_msgSender()) */\n      jump\t// in\n    tag_211:\n        /* \"Access/Manufacturer.sol\":550:587  require(isManufacturer(_msgSender())) */\n      tag_213\n      jumpi\n      0x00\n      dup1\n      revert\n    tag_213:\n        /* \"Supplychain/Supplychain1.sol\":7127:7149  address manufacturerID */\n      0x00\n        /* \"Supplychain/Supplychain1.sol\":7162:7183  address distributorID */\n      dup1\n        /* \"Supplychain/Supplychain1.sol\":7196:7216  address wholesalerID */\n      0x00\n        /* \"Supplychain/Supplychain1.sol\":7229:7247  address retailerID */\n      dup1\n        /* \"Supplychain/Supplychain1.sol\":7260:7278  address consumerID */\n      0x00\n        /* \"Supplychain/Supplychain1.sol\":7303:7325  Item memory newProduce */\n      tag_215\n      tag_216\n      jump\t// in\n    tag_215:\n        /* \"Supplychain/Supplychain1.sol\":7366:7378  _msgSender() */\n      tag_217\n        /* \"Supplychain/Supplychain1.sol\":7366:7376  _msgSender */\n      tag_116\n        /* \"Supplychain/Supplychain1.sol\":7366:7378  _msgSender() */\n      jump\t// in\n    tag_217:\n        /* \"Supplychain/Supplychain1.sol\":7338:7348  newProduce */\n      dup2\n        /* \"Supplychain/Supplychain1.sol\":7338:7363  newProduce.manufacturerID */\n      0x60\n      add\n        /* \"Supplychain/Supplychain1.sol\":7338:7378  newProduce.manufacturerID = _msgSender() */\n      swap1\n      0xffffffffffffffffffffffffffffffffffffffff\n      and\n      swap1\n      dup2\n      0xffffffffffffffffffffffffffffffffffffffff\n      and\n      dup2\n      mstore\n      pop\n      pop\n        /* \"Supplychain/Supplychain1.sol\":7414:7423  stockUnit */\n      sload(0x07)\n        /* \"Supplychain/Supplychain1.sol\":7391:7401  newProduce */\n      dup2\n        /* \"Supplychain/Supplychain1.sol\":7391:7411  newProduce.stockUnit */\n      0x00\n      add\n        /* \"Supplychain/Supplychain1.sol\":7391:7423  newProduce.stockUnit = stockUnit */\n      dup2\n      dup2\n      mstore\n      pop\n      pop\n        /* \"Supplychain/Supplychain1.sol\":7461:7473  _productCode */\n      dup9\n        /* \"Supplychain/Supplychain1.sol\":7436:7446  newProduce */\n      dup2\n        /* \"Supplychain/Supplychain1.sol\":7436:7458  newProduce.productCode */\n      0x20\n      add\n        /* \"Supplychain/Supplychain1.sol\":7436:7473  newProduce.productCode = _productCode */\n      dup2\n      dup2\n      mstore\n      pop\n      pop\n        /* \"Supplychain/Supplychain1.sol\":7507:7519  _msgSender() */\n      tag_218\n        /* \"Supplychain/Supplychain1.sol\":7507:7517  _msgSender */\n      tag_116\n        /* \"Supplychain/Supplychain1.sol\":7507:7519  _msgSender() */\n      jump\t// in\n    tag_218:\n        /* \"Supplychain/Supplychain1.sol\":7486:7496  newProduce */\n      dup2\n        /* \"Supplychain/Supplychain1.sol\":7486:7504  newProduce.ownerID */\n      0x40\n      add\n        /* \"Supplychain/Supplychain1.sol\":7486:7519  newProduce.ownerID = _msgSender() */\n      swap1\n      0xffffffffffffffffffffffffffffffffffffffff\n      and\n      swap1\n      dup2\n      0xffffffffffffffffffffffffffffffffffffffff\n      and\n      dup2\n      mstore\n      pop\n      pop\n        /* \"Supplychain/Supplychain1.sol\":7557:7569  _productInfo */\n      dup8\n        /* \"Supplychain/Supplychain1.sol\":7532:7542  newProduce */\n      dup2\n        /* \"Supplychain/Supplychain1.sol\":7532:7554  newProduce.productInfo */\n      0xa0\n      add\n        /* \"Supplychain/Supplychain1.sol\":7532:7569  newProduce.productInfo = _productInfo */\n      dup2\n      swap1\n      mstore\n      pop\n        /* \"Supplychain/Supplychain1.sol\":7608:7614  _price */\n      dup7\n        /* \"Supplychain/Supplychain1.sol\":7582:7592  newProduce */\n      dup2\n        /* \"Supplychain/Supplychain1.sol\":7582:7605  newProduce.productPrice */\n      0xe0\n      add\n        /* \"Supplychain/Supplychain1.sol\":7582:7614  newProduce.productPrice = _price */\n      dup2\n      dup2\n      mstore\n      pop\n      pop\n        /* \"Supplychain/Supplychain1.sol\":7663:7672  stockUnit */\n      sload(0x07)\n        /* \"Supplychain/Supplychain1.sol\":7650:7662  _productCode */\n      dup10\n        /* \"Supplychain/Supplychain1.sol\":7650:7672  _productCode+stockUnit */\n      tag_219\n      swap2\n      swap1\n      tag_220\n      jump\t// in\n    tag_219:\n        /* \"Supplychain/Supplychain1.sol\":7627:7637  newProduce */\n      dup2\n        /* \"Supplychain/Supplychain1.sol\":7627:7647  newProduce.productID */\n      0x80\n      add\n        /* \"Supplychain/Supplychain1.sol\":7627:7672  newProduce.productID = _productCode+stockUnit */\n      dup2\n      dup2\n      mstore\n      pop\n      pop\n        /* \"Supplychain/Supplychain1.sol\":1144:1172  state.ProducedByManufacturer */\n      0x00\n        /* \"Supplychain/Supplychain1.sol\":7685:7695  newProduce */\n      dup2\n        /* \"Supplychain/Supplychain1.sol\":7685:7705  newProduce.itemState */\n      0xc0\n      add\n        /* \"Supplychain/Supplychain1.sol\":7685:7720  newProduce.itemState = defaultState */\n      swap1\n      0x0d\n      dup2\n      gt\n      iszero\n      tag_221\n      jumpi\n      tag_222\n      tag_135\n      jump\t// in\n    tag_222:\n    tag_221:\n      swap1\n      dup2\n      0x0d\n      dup2\n      gt\n      iszero\n      tag_223\n      jumpi\n      tag_224\n      tag_135\n      jump\t// in\n    tag_224:\n    tag_223:\n      dup2\n      mstore\n      pop\n      pop\n        /* \"Supplychain/Supplychain1.sol\":7763:7775  wholesalerID */\n      dup4\n        /* \"Supplychain/Supplychain1.sol\":7737:7747  newProduce */\n      dup2\n        /* \"Supplychain/Supplychain1.sol\":7737:7760  newProduce.wholesalerID */\n      0x0100\n      add\n        /* \"Supplychain/Supplychain1.sol\":7737:7775  newProduce.wholesalerID = wholesalerID */\n      swap1\n      0xffffffffffffffffffffffffffffffffffffffff\n      and\n      swap1\n      dup2\n      0xffffffffffffffffffffffffffffffffffffffff\n      and\n      dup2\n      mstore\n      pop\n      pop\n        /* \"Supplychain/Supplychain1.sol\":7815:7828  distributorID */\n      dup5\n        /* \"Supplychain/Supplychain1.sol\":7788:7798  newProduce */\n      dup2\n        /* \"Supplychain/Supplychain1.sol\":7788:7812  newProduce.distributorID */\n      0x0120\n      add\n        /* \"Supplychain/Supplychain1.sol\":7788:7828  newProduce.distributorID = distributorID */\n      swap1\n      0xffffffffffffffffffffffffffffffffffffffff\n      and\n      swap1\n      dup2\n      0xffffffffffffffffffffffffffffffffffffffff\n      and\n      dup2\n      mstore\n      pop\n      pop\n        /* \"Supplychain/Supplychain1.sol\":7865:7875  retailerID */\n      dup3\n        /* \"Supplychain/Supplychain1.sol\":7841:7851  newProduce */\n      dup2\n        /* \"Supplychain/Supplychain1.sol\":7841:7862  newProduce.retailerID */\n      0x0140\n      add\n        /* \"Supplychain/Supplychain1.sol\":7841:7875  newProduce.retailerID = retailerID */\n      swap1\n      0xffffffffffffffffffffffffffffffffffffffff\n      and\n      swap1\n      dup2\n      0xffffffffffffffffffffffffffffffffffffffff\n      and\n      dup2\n      mstore\n      pop\n      pop\n        /* \"Supplychain/Supplychain1.sol\":7912:7922  consumerID */\n      dup2\n        /* \"Supplychain/Supplychain1.sol\":7888:7898  newProduce */\n      dup2\n        /* \"Supplychain/Supplychain1.sol\":7888:7909  newProduce.consumerID */\n      0x0160\n      add\n        /* \"Supplychain/Supplychain1.sol\":7888:7922  newProduce.consumerID = consumerID */\n      swap1\n      0xffffffffffffffffffffffffffffffffffffffff\n      and\n      swap1\n      dup2\n      0xffffffffffffffffffffffffffffffffffffffff\n      and\n      dup2\n      mstore\n      pop\n      pop\n        /* \"Supplychain/Supplychain1.sol\":7969:7979  newProduce */\n      dup1\n        /* \"Supplychain/Supplychain1.sol\":7947:7952  items */\n      0x08\n        /* \"Supplychain/Supplychain1.sol\":7947:7966  items[_productCode] */\n      0x00\n        /* \"Supplychain/Supplychain1.sol\":7953:7965  _productCode */\n      dup12\n        /* \"Supplychain/Supplychain1.sol\":7947:7966  items[_productCode] */\n      dup2\n      mstore\n      0x20\n      add\n      swap1\n      dup2\n      mstore\n      0x20\n      add\n      0x00\n      keccak256\n        /* \"Supplychain/Supplychain1.sol\":7947:7979  items[_productCode] = newProduce */\n      0x00\n      dup3\n      add\n      mload\n      dup2\n      0x00\n      add\n      sstore\n      0x20\n      dup3\n      add\n      mload\n      dup2\n      0x01\n      add\n      sstore\n      0x40\n      dup3\n      add\n      mload\n      dup2\n      0x02\n      add\n      exp(0x0100, 0x00)\n      dup2\n      sload\n      dup2\n      0xffffffffffffffffffffffffffffffffffffffff\n      mul\n      not\n      and\n      swap1\n      dup4\n      0xffffffffffffffffffffffffffffffffffffffff\n      and\n      mul\n      or\n      swap1\n      sstore\n      pop\n      0x60\n      dup3\n      add\n      mload\n      dup2\n      0x03\n      add\n      exp(0x0100, 0x00)\n      dup2\n      sload\n      dup2\n      0xffffffffffffffffffffffffffffffffffffffff\n      mul\n      not\n      and\n      swap1\n      dup4\n      0xffffffffffffffffffffffffffffffffffffffff\n      and\n      mul\n      or\n      swap1\n      sstore\n      pop\n      0x80\n      dup3\n      add\n      mload\n      dup2\n      0x04\n      add\n      sstore\n      0xa0\n      dup3\n      add\n      mload\n      dup2\n      0x05\n      add\n      swap1\n      dup2\n      tag_225\n      swap2\n      swap1\n      tag_226\n      jump\t// in\n    tag_225:\n      pop\n      0xc0\n      dup3\n      add\n      mload\n      dup2\n      0x06\n      add\n      exp(0x0100, 0x00)\n      dup2\n      sload\n      dup2\n      0xff\n      mul\n      not\n      and\n      swap1\n      dup4\n      0x0d\n      dup2\n      gt\n      iszero\n      tag_227\n      jumpi\n      tag_228\n      tag_135\n      jump\t// in\n    tag_228:\n    tag_227:\n      mul\n      or\n      swap1\n      sstore\n      pop\n      0xe0\n      dup3\n      add\n      mload\n      dup2\n      0x07\n      add\n      sstore\n      0x0100\n      dup3\n      add\n      mload\n      dup2\n      0x08\n      add\n      exp(0x0100, 0x00)\n      dup2\n      sload\n      dup2\n      0xffffffffffffffffffffffffffffffffffffffff\n      mul\n      not\n      and\n      swap1\n      dup4\n      0xffffffffffffffffffffffffffffffffffffffff\n      and\n      mul\n      or\n      swap1\n      sstore\n      pop\n      0x0120\n      dup3\n      add\n      mload\n      dup2\n      0x09\n      add\n      exp(0x0100, 0x00)\n      dup2\n      sload\n      dup2\n      0xffffffffffffffffffffffffffffffffffffffff\n      mul\n      not\n      and\n      swap1\n      dup4\n      0xffffffffffffffffffffffffffffffffffffffff\n      and\n      mul\n      or\n      swap1\n      sstore\n      pop\n      0x0140\n      dup3\n      add\n      mload\n      dup2\n      0x0a\n      add\n      exp(0x0100, 0x00)\n      dup2\n      sload\n      dup2\n      0xffffffffffffffffffffffffffffffffffffffff\n      mul\n      not\n      and\n      swap1\n      dup4\n      0xffffffffffffffffffffffffffffffffffffffff\n      and\n      mul\n      or\n      swap1\n      sstore\n      pop\n      0x0160\n      dup3\n      add\n      mload\n      dup2\n      0x0b\n      add\n      exp(0x0100, 0x00)\n      dup2\n      sload\n      dup2\n      0xffffffffffffffffffffffffffffffffffffffff\n      mul\n      not\n      and\n      swap1\n      dup4\n      0xffffffffffffffffffffffffffffffffffffffff\n      and\n      mul\n      or\n      swap1\n      sstore\n      pop\n      0x0180\n      dup3\n      add\n      mload\n      dup2\n      0x0c\n      add\n      sstore\n      0x01a0\n      dup3\n      add\n      mload\n      dup2\n      0x0d\n      add\n      sstore\n      swap1\n      pop\n      pop\n        /* \"Supplychain/Supplychain1.sol\":7993:8013  uint256  placeholder */\n      0x00\n        /* \"Supplychain/Supplychain1.sol\":8026:8049  txBlocks memory txBlock */\n      tag_229\n      tag_230\n      jump\t// in\n    tag_229:\n        /* \"Supplychain/Supplychain1.sol\":8088:8099  placeholder */\n      dup2\n        /* \"Supplychain/Supplychain1.sol\":8074:8081  txBlock */\n      dup2\n        /* \"Supplychain/Supplychain1.sol\":8074:8085  txBlock.FTD */\n      0x00\n      add\n        /* \"Supplychain/Supplychain1.sol\":8074:8099  txBlock.FTD = placeholder */\n      dup2\n      dup2\n      mstore\n      pop\n      pop\n        /* \"Supplychain/Supplychain1.sol\":8155:8166  placeholder */\n      dup2\n        /* \"Supplychain/Supplychain1.sol\":8141:8148  txBlock */\n      dup2\n        /* \"Supplychain/Supplychain1.sol\":8141:8152  txBlock.DTW */\n      0x20\n      add\n        /* \"Supplychain/Supplychain1.sol\":8141:8166  txBlock.DTW = placeholder */\n      dup2\n      dup2\n      mstore\n      pop\n      pop\n        /* \"Supplychain/Supplychain1.sol\":8193:8204  placeholder */\n      dup2\n        /* \"Supplychain/Supplychain1.sol\":8179:8186  txBlock */\n      dup2\n        /* \"Supplychain/Supplychain1.sol\":8179:8190  txBlock.WTR */\n      0x40\n      add\n        /* \"Supplychain/Supplychain1.sol\":8179:8204  txBlock.WTR = placeholder */\n      dup2\n      dup2\n      mstore\n      pop\n      pop\n        /* \"Supplychain/Supplychain1.sol\":8231:8242  placeholder */\n      dup2\n        /* \"Supplychain/Supplychain1.sol\":8217:8224  txBlock */\n      dup2\n        /* \"Supplychain/Supplychain1.sol\":8217:8228  txBlock.RTC */\n      0x60\n      add\n        /* \"Supplychain/Supplychain1.sol\":8217:8242  txBlock.RTC = placeholder */\n      dup2\n      dup2\n      mstore\n      pop\n      pop\n        /* \"Supplychain/Supplychain1.sol\":8283:8290  txBlock */\n      dup1\n        /* \"Supplychain/Supplychain1.sol\":8255:8267  itemsHistory */\n      0x09\n        /* \"Supplychain/Supplychain1.sol\":8255:8280  itemsHistory[productCode] */\n      0x00\n        /* \"Supplychain/Supplychain1.sol\":8268:8279  productCode */\n      sload(0x06)\n        /* \"Supplychain/Supplychain1.sol\":8255:8280  itemsHistory[productCode] */\n      dup2\n      mstore\n      0x20\n      add\n      swap1\n      dup2\n      mstore\n      0x20\n      add\n      0x00\n      keccak256\n        /* \"Supplychain/Supplychain1.sol\":8255:8290  itemsHistory[productCode] = txBlock */\n      0x00\n      dup3\n      add\n      mload\n      dup2\n      0x00\n      add\n      sstore\n      0x20\n      dup3\n      add\n      mload\n      dup2\n      0x01\n      add\n      sstore\n      0x40\n      dup3\n      add\n      mload\n      dup2\n      0x02\n      add\n      sstore\n      0x60\n      dup3\n      add\n      mload\n      dup2\n      0x03\n      add\n      sstore\n      swap1\n      pop\n      pop\n        /* \"Supplychain/Supplychain1.sol\":8305:8314  stockUnit */\n      0x07\n      0x00\n        /* \"Supplychain/Supplychain1.sol\":8305:8316  stockUnit++ */\n      dup2\n      sload\n      dup1\n      swap3\n      swap2\n      swap1\n      tag_231\n      swap1\n      tag_232\n      jump\t// in\n    tag_231:\n      swap2\n      swap1\n      pop\n      sstore\n      pop\n        /* \"Supplychain/Supplychain1.sol\":8334:8369  ProducedByManufacturer(productCode) */\n      0xb7cacbe76ffd2319b73ee6a0f921b205bdb46926c6342d478b159eedd699d4b6\n        /* \"Supplychain/Supplychain1.sol\":8357:8368  productCode */\n      sload(0x06)\n        /* \"Supplychain/Supplychain1.sol\":8334:8369  ProducedByManufacturer(productCode) */\n      mload(0x40)\n      tag_233\n      swap2\n      swap1\n      tag_146\n      jump\t// in\n    tag_233:\n      mload(0x40)\n      dup1\n      swap2\n      sub\n      swap1\n      log1\n        /* \"Supplychain/Supplychain1.sol\":7114:8381  {... */\n      pop\n      pop\n      pop\n      pop\n      pop\n      pop\n      pop\n      pop\n        /* \"Supplychain/Supplychain1.sol\":6915:8381  function ProduceItemByManufacturer(... */\n      pop\n      pop\n      pop\n      jump\t// out\n        /* \"Access/Wholesaler.sol\":805:909  function addWholesaler (address account) public onlyWholesaler{... */\n    tag_100:\n        /* \"Access/Wholesaler.sol\":546:572  isWholesaler(_msgSender()) */\n      tag_235\n        /* \"Access/Wholesaler.sol\":559:571  _msgSender() */\n      tag_236\n        /* \"Access/Wholesaler.sol\":559:569  _msgSender */\n      tag_116\n        /* \"Access/Wholesaler.sol\":559:571  _msgSender() */\n      jump\t// in\n    tag_236:\n        /* \"Access/Wholesaler.sol\":546:558  isWholesaler */\n      tag_66\n        /* \"Access/Wholesaler.sol\":546:572  isWholesaler(_msgSender()) */\n      jump\t// in\n    tag_235:\n        /* \"Access/Wholesaler.sol\":538:573  require(isWholesaler(_msgSender())) */\n      tag_237\n      jumpi\n      0x00\n      dup1\n      revert\n    tag_237:\n        /* \"Access/Wholesaler.sol\":878:901  _addWholesaler(account) */\n      tag_239\n        /* \"Access/Wholesaler.sol\":893:900  account */\n      dup2\n        /* \"Access/Wholesaler.sol\":878:892  _addWholesaler */\n      tag_240\n        /* \"Access/Wholesaler.sol\":878:901  _addWholesaler(account) */\n      jump\t// in\n    tag_239:\n        /* \"Access/Wholesaler.sol\":805:909  function addWholesaler (address account) public onlyWholesaler{... */\n      pop\n      jump\t// out\n        /* \"Access/Retailer.sol\":893:985  function  renouceRetailer() public{... */\n    tag_103:\n        /* \"Access/Retailer.sol\":948:977  _removeRetailer(_msgSender()) */\n      tag_242\n        /* \"Access/Retailer.sol\":964:976  _msgSender() */\n      tag_243\n        /* \"Access/Retailer.sol\":964:974  _msgSender */\n      tag_116\n        /* \"Access/Retailer.sol\":964:976  _msgSender() */\n      jump\t// in\n    tag_243:\n        /* \"Access/Retailer.sol\":948:963  _removeRetailer */\n      tag_244\n        /* \"Access/Retailer.sol\":948:977  _removeRetailer(_msgSender()) */\n      jump\t// in\n    tag_242:\n        /* \"Access/Retailer.sol\":893:985  function  renouceRetailer() public{... */\n      jump\t// out\n        /* \"Supplychain/Supplychain1.sol\":8429:8891  function sellItemByFarmer(uint256 _productCode, uint256 _price)... */\n    tag_108:\n        /* \"Access/Manufacturer.sol\":558:586  isManufacturer(_msgSender()) */\n      tag_246\n        /* \"Access/Manufacturer.sol\":573:585  _msgSender() */\n      tag_247\n        /* \"Access/Manufacturer.sol\":573:583  _msgSender */\n      tag_116\n        /* \"Access/Manufacturer.sol\":573:585  _msgSender() */\n      jump\t// in\n    tag_247:\n        /* \"Access/Manufacturer.sol\":558:572  isManufacturer */\n      tag_37\n        /* \"Access/Manufacturer.sol\":558:586  isManufacturer(_msgSender()) */\n      jump\t// in\n    tag_246:\n        /* \"Access/Manufacturer.sol\":550:587  require(isManufacturer(_msgSender())) */\n      tag_248\n      jumpi\n      0x00\n      dup1\n      revert\n    tag_248:\n        /* \"Supplychain/Supplychain1.sol\":8571:8583  _productCode */\n      dup2\n        /* \"Supplychain/Supplychain1.sol\":4036:4064  state.ProducedByManufacturer */\n      0x00\n        /* \"Supplychain/Supplychain1.sol\":4003:4064  items[_ProductCode].itemState == state.ProducedByManufacturer */\n      0x0d\n      dup2\n      gt\n      iszero\n      tag_250\n      jumpi\n      tag_251\n      tag_135\n      jump\t// in\n    tag_251:\n    tag_250:\n        /* \"Supplychain/Supplychain1.sol\":4003:4008  items */\n      0x08\n        /* \"Supplychain/Supplychain1.sol\":4003:4022  items[_ProductCode] */\n      0x00\n        /* \"Supplychain/Supplychain1.sol\":4009:4021  _ProductCode */\n      dup4\n        /* \"Supplychain/Supplychain1.sol\":4003:4022  items[_ProductCode] */\n      dup2\n      mstore\n      0x20\n      add\n      swap1\n      dup2\n      mstore\n      0x20\n      add\n      0x00\n      keccak256\n        /* \"Supplychain/Supplychain1.sol\":4003:4032  items[_ProductCode].itemState */\n      0x06\n      add\n      0x00\n      swap1\n      sload\n      swap1\n      0x0100\n      exp\n      swap1\n      div\n      0xff\n      and\n        /* \"Supplychain/Supplychain1.sol\":4003:4064  items[_ProductCode].itemState == state.ProducedByManufacturer */\n      0x0d\n      dup2\n      gt\n      iszero\n      tag_252\n      jumpi\n      tag_253\n      tag_135\n      jump\t// in\n    tag_253:\n    tag_252:\n      eq\n        /* \"Supplychain/Supplychain1.sol\":3995:4065  require(items[_ProductCode].itemState == state.ProducedByManufacturer) */\n      tag_254\n      jumpi\n      0x00\n      dup1\n      revert\n    tag_254:\n        /* \"Supplychain/Supplychain1.sol\":8645:8650  items */\n      0x08\n        /* \"Supplychain/Supplychain1.sol\":8645:8664  items[_productCode] */\n      0x00\n        /* \"Supplychain/Supplychain1.sol\":8651:8663  _productCode */\n      dup5\n        /* \"Supplychain/Supplychain1.sol\":8645:8664  items[_productCode] */\n      dup2\n      mstore\n      0x20\n      add\n      swap1\n      dup2\n      mstore\n      0x20\n      add\n      0x00\n      keccak256\n        /* \"Supplychain/Supplychain1.sol\":8645:8672  items[_productCode].ownerID */\n      0x02\n      add\n      0x00\n      swap1\n      sload\n      swap1\n      0x0100\n      exp\n      swap1\n      div\n      0xffffffffffffffffffffffffffffffffffffffff\n      and\n        /* \"Supplychain/Supplychain1.sol\":3352:3360  _address */\n      dup1\n        /* \"Supplychain/Supplychain1.sol\":3336:3360  _msgSender() == _address */\n      0xffffffffffffffffffffffffffffffffffffffff\n      and\n        /* \"Supplychain/Supplychain1.sol\":3336:3348  _msgSender() */\n      tag_256\n        /* \"Supplychain/Supplychain1.sol\":3336:3346  _msgSender */\n      tag_116\n        /* \"Supplychain/Supplychain1.sol\":3336:3348  _msgSender() */\n      jump\t// in\n    tag_256:\n        /* \"Supplychain/Supplychain1.sol\":3336:3360  _msgSender() == _address */\n      0xffffffffffffffffffffffffffffffffffffffff\n      and\n      eq\n        /* \"Supplychain/Supplychain1.sol\":3328:3361  require(_msgSender() == _address) */\n      tag_257\n      jumpi\n      0x00\n      dup1\n      revert\n    tag_257:\n        /* \"Supplychain/Supplychain1.sol\":8753:8780  state.ForSaleByManufacturer */\n      0x01\n        /* \"Supplychain/Supplychain1.sol\":8721:8726  items */\n      0x08\n        /* \"Supplychain/Supplychain1.sol\":8721:8740  items[_productCode] */\n      0x00\n        /* \"Supplychain/Supplychain1.sol\":8727:8739  _productCode */\n      dup7\n        /* \"Supplychain/Supplychain1.sol\":8721:8740  items[_productCode] */\n      dup2\n      mstore\n      0x20\n      add\n      swap1\n      dup2\n      mstore\n      0x20\n      add\n      0x00\n      keccak256\n        /* \"Supplychain/Supplychain1.sol\":8721:8750  items[_productCode].itemState */\n      0x06\n      add\n      0x00\n        /* \"Supplychain/Supplychain1.sol\":8721:8780  items[_productCode].itemState = state.ForSaleByManufacturer */\n      0x0100\n      exp\n      dup2\n      sload\n      dup2\n      0xff\n      mul\n      not\n      and\n      swap1\n      dup4\n      0x0d\n      dup2\n      gt\n      iszero\n      tag_259\n      jumpi\n      tag_260\n      tag_135\n      jump\t// in\n    tag_260:\n    tag_259:\n      mul\n      or\n      swap1\n      sstore\n      pop\n        /* \"Supplychain/Supplychain1.sol\":8826:8832  _price */\n      dup3\n        /* \"Supplychain/Supplychain1.sol\":8791:8796  items */\n      0x08\n        /* \"Supplychain/Supplychain1.sol\":8791:8810  items[_productCode] */\n      0x00\n        /* \"Supplychain/Supplychain1.sol\":8797:8809  _productCode */\n      dup7\n        /* \"Supplychain/Supplychain1.sol\":8791:8810  items[_productCode] */\n      dup2\n      mstore\n      0x20\n      add\n      swap1\n      dup2\n      mstore\n      0x20\n      add\n      0x00\n      keccak256\n        /* \"Supplychain/Supplychain1.sol\":8791:8823  items[_productCode].productPrice */\n      0x07\n      add\n        /* \"Supplychain/Supplychain1.sol\":8791:8832  items[_productCode].productPrice = _price */\n      dup2\n      swap1\n      sstore\n      pop\n        /* \"Supplychain/Supplychain1.sol\":8848:8883  ForSaleByManufacturer(_productCode) */\n      0xaec623c8803eb3c795344cb3d2178da45139e85d984a1dc348cf9dc8bd7ff160\n        /* \"Supplychain/Supplychain1.sol\":8870:8882  _productCode */\n      dup5\n        /* \"Supplychain/Supplychain1.sol\":8848:8883  ForSaleByManufacturer(_productCode) */\n      mload(0x40)\n      tag_261\n      swap2\n      swap1\n      tag_146\n      jump\t// in\n    tag_261:\n      mload(0x40)\n      dup1\n      swap2\n      sub\n      swap1\n      log1\n        /* \"Supplychain/Supplychain1.sol\":4079:4080  _ */\n      pop\n        /* \"Access/Manufacturer.sol\":597:598  _ */\n      pop\n        /* \"Supplychain/Supplychain1.sol\":8429:8891  function sellItemByFarmer(uint256 _productCode, uint256 _price)... */\n      pop\n      pop\n      jump\t// out\n        /* \"Supplychain/Supplychain1.sol\":8934:10032  function purchaseItemByDistributor(uint256 _productCode)... */\n    tag_111:\n        /* \"Access/Distributor.sol\":552:579  isDistributor(_msgSender()) */\n      tag_263\n        /* \"Access/Distributor.sol\":566:578  _msgSender() */\n      tag_264\n        /* \"Access/Distributor.sol\":566:576  _msgSender */\n      tag_116\n        /* \"Access/Distributor.sol\":566:578  _msgSender() */\n      jump\t// in\n    tag_264:\n        /* \"Access/Distributor.sol\":552:565  isDistributor */\n      tag_90\n        /* \"Access/Distributor.sol\":552:579  isDistributor(_msgSender()) */\n      jump\t// in\n    tag_263:\n        /* \"Access/Distributor.sol\":544:580  require(isDistributor(_msgSender())) */\n      tag_265\n      jumpi\n      0x00\n      dup1\n      revert\n    tag_265:\n        /* \"Supplychain/Supplychain1.sol\":9130:9142  _productCode */\n      dup1\n        /* \"Supplychain/Supplychain1.sol\":4234:4261  state.ForSaleByManufacturer */\n      0x01\n        /* \"Supplychain/Supplychain1.sol\":4201:4261  items[_ProductCode].itemState == state.ForSaleByManufacturer */\n      0x0d\n      dup2\n      gt\n      iszero\n      tag_267\n      jumpi\n      tag_268\n      tag_135\n      jump\t// in\n    tag_268:\n    tag_267:\n        /* \"Supplychain/Supplychain1.sol\":4201:4206  items */\n      0x08\n        /* \"Supplychain/Supplychain1.sol\":4201:4220  items[_ProductCode] */\n      0x00\n        /* \"Supplychain/Supplychain1.sol\":4207:4219  _ProductCode */\n      dup4\n        /* \"Supplychain/Supplychain1.sol\":4201:4220  items[_ProductCode] */\n      dup2\n      mstore\n      0x20\n      add\n      swap1\n      dup2\n      mstore\n      0x20\n      add\n      0x00\n      keccak256\n        /* \"Supplychain/Supplychain1.sol\":4201:4230  items[_ProductCode].itemState */\n      0x06\n      add\n      0x00\n      swap1\n      sload\n      swap1\n      0x0100\n      exp\n      swap1\n      div\n      0xff\n      and\n        /* \"Supplychain/Supplychain1.sol\":4201:4261  items[_ProductCode].itemState == state.ForSaleByManufacturer */\n      0x0d\n      dup2\n      gt\n      iszero\n      tag_269\n      jumpi\n      tag_270\n      tag_135\n      jump\t// in\n    tag_270:\n    tag_269:\n      eq\n        /* \"Supplychain/Supplychain1.sol\":4193:4262  require(items[_ProductCode].itemState == state.ForSaleByManufacturer) */\n      tag_271\n      jumpi\n      0x00\n      dup1\n      revert\n    tag_271:\n        /* \"Supplychain/Supplychain1.sol\":9207:9212  items */\n      0x08\n        /* \"Supplychain/Supplychain1.sol\":9207:9226  items[_productCode] */\n      0x00\n        /* \"Supplychain/Supplychain1.sol\":9213:9225  _productCode */\n      dup4\n        /* \"Supplychain/Supplychain1.sol\":9207:9226  items[_productCode] */\n      dup2\n      mstore\n      0x20\n      add\n      swap1\n      dup2\n      mstore\n      0x20\n      add\n      0x00\n      keccak256\n        /* \"Supplychain/Supplychain1.sol\":9207:9239  items[_productCode].productPrice */\n      0x07\n      add\n      sload\n        /* \"Supplychain/Supplychain1.sol\":3547:3553  _price */\n      dup1\n        /* \"Supplychain/Supplychain1.sol\":3534:3543  msg.value */\n      callvalue\n        /* \"Supplychain/Supplychain1.sol\":3534:3553  msg.value >= _price */\n      lt\n      iszero\n        /* \"Supplychain/Supplychain1.sol\":3526:3554  require(msg.value >= _price) */\n      tag_273\n      jumpi\n      0x00\n      dup1\n      revert\n    tag_273:\n        /* \"Supplychain/Supplychain1.sol\":9312:9324  _productCode */\n      dup3\n        /* \"Supplychain/Supplychain1.sol\":9334:9346  _msgSender() */\n      tag_274\n        /* \"Supplychain/Supplychain1.sol\":9334:9344  _msgSender */\n      tag_116\n        /* \"Supplychain/Supplychain1.sol\":9334:9346  _msgSender() */\n      jump\t// in\n    tag_274:\n        /* \"Supplychain/Supplychain1.sol\":3748:3762  uint256 _price */\n      0x00\n        /* \"Supplychain/Supplychain1.sol\":3765:3770  items */\n      0x08\n        /* \"Supplychain/Supplychain1.sol\":3765:3784  items[_productCode] */\n      0x00\n        /* \"Supplychain/Supplychain1.sol\":3771:3783  _productCode */\n      dup5\n        /* \"Supplychain/Supplychain1.sol\":3765:3784  items[_productCode] */\n      dup2\n      mstore\n      0x20\n      add\n      swap1\n      dup2\n      mstore\n      0x20\n      add\n      0x00\n      keccak256\n        /* \"Supplychain/Supplychain1.sol\":3765:3794  items[_productCode].itemPrice */\n      0x0c\n      add\n      sload\n        /* \"Supplychain/Supplychain1.sol\":3748:3794  uint256 _price = items[_productCode].itemPrice */\n      swap1\n      pop\n        /* \"Supplychain/Supplychain1.sol\":3805:3827  uint256 amountToReturn */\n      0x00\n        /* \"Supplychain/Supplychain1.sol\":3842:3848  _price */\n      dup2\n        /* \"Supplychain/Supplychain1.sol\":3830:3839  msg.value */\n      callvalue\n        /* \"Supplychain/Supplychain1.sol\":3830:3848  msg.value - _price */\n      tag_276\n      swap2\n      swap1\n      tag_277\n      jump\t// in\n    tag_276:\n        /* \"Supplychain/Supplychain1.sol\":3805:3848  uint256 amountToReturn = msg.value - _price */\n      swap1\n      pop\n        /* \"Supplychain/Supplychain1.sol\":3859:3872  addressToFund */\n      dup3\n        /* \"Supplychain/Supplychain1.sol\":3859:3881  addressToFund.transfer */\n      0xffffffffffffffffffffffffffffffffffffffff\n      and\n        /* \"Supplychain/Supplychain1.sol\":3859:3897  addressToFund.transfer(amountToReturn) */\n      0x08fc\n        /* \"Supplychain/Supplychain1.sol\":3882:3896  amountToReturn */\n      dup3\n        /* \"Supplychain/Supplychain1.sol\":3859:3897  addressToFund.transfer(amountToReturn) */\n      swap1\n      dup2\n      iszero\n      mul\n      swap1\n      mload(0x40)\n      0x00\n      mload(0x40)\n      dup1\n      dup4\n      sub\n      dup2\n      dup6\n      dup9\n      dup9\n      call\n      swap4\n      pop\n      pop\n      pop\n      pop\n      iszero\n      dup1\n      iszero\n      tag_279\n      jumpi\n      returndatasize\n      0x00\n      dup1\n      returndatacopy\n      revert(0x00, returndatasize)\n    tag_279:\n      pop\n        /* \"Supplychain/Supplychain1.sol\":9429:9464  address payable ownerAddressPayable */\n      0x00\n        /* \"Supplychain/Supplychain1.sol\":9467:9540  _make_payable(... */\n      tag_281\n        /* \"Supplychain/Supplychain1.sol\":9495:9500  items */\n      0x08\n        /* \"Supplychain/Supplychain1.sol\":9495:9514  items[_productCode] */\n      0x00\n        /* \"Supplychain/Supplychain1.sol\":9501:9513  _productCode */\n      dup11\n        /* \"Supplychain/Supplychain1.sol\":9495:9514  items[_productCode] */\n      dup2\n      mstore\n      0x20\n      add\n      swap1\n      dup2\n      mstore\n      0x20\n      add\n      0x00\n      keccak256\n        /* \"Supplychain/Supplychain1.sol\":9495:9529  items[_productCode].manufacturerID */\n      0x03\n      add\n      0x00\n      swap1\n      sload\n      swap1\n      0x0100\n      exp\n      swap1\n      div\n      0xffffffffffffffffffffffffffffffffffffffff\n      and\n        /* \"Supplychain/Supplychain1.sol\":9467:9480  _make_payable */\n      tag_155\n        /* \"Supplychain/Supplychain1.sol\":9467:9540  _make_payable(... */\n      jump\t// in\n    tag_281:\n        /* \"Supplychain/Supplychain1.sol\":9429:9540  address payable ownerAddressPayable = _make_payable(... */\n      swap1\n      pop\n        /* \"Supplychain/Supplychain1.sol\":9552:9571  ownerAddressPayable */\n      dup1\n        /* \"Supplychain/Supplychain1.sol\":9552:9580  ownerAddressPayable.transfer */\n      0xffffffffffffffffffffffffffffffffffffffff\n      and\n        /* \"Supplychain/Supplychain1.sol\":9552:9614  ownerAddressPayable.transfer(items[_productCode].productPrice) */\n      0x08fc\n        /* \"Supplychain/Supplychain1.sol\":9581:9586  items */\n      0x08\n        /* \"Supplychain/Supplychain1.sol\":9581:9600  items[_productCode] */\n      0x00\n        /* \"Supplychain/Supplychain1.sol\":9587:9599  _productCode */\n      dup12\n        /* \"Supplychain/Supplychain1.sol\":9581:9600  items[_productCode] */\n      dup2\n      mstore\n      0x20\n      add\n      swap1\n      dup2\n      mstore\n      0x20\n      add\n      0x00\n      keccak256\n        /* \"Supplychain/Supplychain1.sol\":9581:9613  items[_productCode].productPrice */\n      0x07\n      add\n      sload\n        /* \"Supplychain/Supplychain1.sol\":9552:9614  ownerAddressPayable.transfer(items[_productCode].productPrice) */\n      swap1\n      dup2\n      iszero\n      mul\n      swap1\n      mload(0x40)\n      0x00\n      mload(0x40)\n      dup1\n      dup4\n      sub\n      dup2\n      dup6\n      dup9\n      dup9\n      call\n      swap4\n      pop\n      pop\n      pop\n      pop\n      iszero\n      dup1\n      iszero\n      tag_283\n      jumpi\n      returndatasize\n      0x00\n      dup1\n      returndatacopy\n      revert(0x00, returndatasize)\n    tag_283:\n      pop\n        /* \"Supplychain/Supplychain1.sol\":9700:9712  _msgSender() */\n      tag_284\n        /* \"Supplychain/Supplychain1.sol\":9700:9710  _msgSender */\n      tag_116\n        /* \"Supplychain/Supplychain1.sol\":9700:9712  _msgSender() */\n      jump\t// in\n    tag_284:\n        /* \"Supplychain/Supplychain1.sol\":9670:9675  items */\n      0x08\n        /* \"Supplychain/Supplychain1.sol\":9670:9689  items[_productCode] */\n      0x00\n        /* \"Supplychain/Supplychain1.sol\":9676:9688  _productCode */\n      dup11\n        /* \"Supplychain/Supplychain1.sol\":9670:9689  items[_productCode] */\n      dup2\n      mstore\n      0x20\n      add\n      swap1\n      dup2\n      mstore\n      0x20\n      add\n      0x00\n      keccak256\n        /* \"Supplychain/Supplychain1.sol\":9670:9697  items[_productCode].ownerID */\n      0x02\n      add\n      0x00\n        /* \"Supplychain/Supplychain1.sol\":9670:9712  items[_productCode].ownerID = _msgSender() */\n      0x0100\n      exp\n      dup2\n      sload\n      dup2\n      0xffffffffffffffffffffffffffffffffffffffff\n      mul\n      not\n      and\n      swap1\n      dup4\n      0xffffffffffffffffffffffffffffffffffffffff\n      and\n      mul\n      or\n      swap1\n      sstore\n      pop\n        /* \"Supplychain/Supplychain1.sol\":9775:9787  _msgSender() */\n      tag_285\n        /* \"Supplychain/Supplychain1.sol\":9775:9785  _msgSender */\n      tag_116\n        /* \"Supplychain/Supplychain1.sol\":9775:9787  _msgSender() */\n      jump\t// in\n    tag_285:\n        /* \"Supplychain/Supplychain1.sol\":9739:9744  items */\n      0x08\n        /* \"Supplychain/Supplychain1.sol\":9739:9758  items[_productCode] */\n      0x00\n        /* \"Supplychain/Supplychain1.sol\":9745:9757  _productCode */\n      dup11\n        /* \"Supplychain/Supplychain1.sol\":9739:9758  items[_productCode] */\n      dup2\n      mstore\n      0x20\n      add\n      swap1\n      dup2\n      mstore\n      0x20\n      add\n      0x00\n      keccak256\n        /* \"Supplychain/Supplychain1.sol\":9739:9772  items[_productCode].distributorID */\n      0x09\n      add\n      0x00\n        /* \"Supplychain/Supplychain1.sol\":9739:9787  items[_productCode].distributorID = _msgSender() */\n      0x0100\n      exp\n      dup2\n      sload\n      dup2\n      0xffffffffffffffffffffffffffffffffffffffff\n      mul\n      not\n      and\n      swap1\n      dup4\n      0xffffffffffffffffffffffffffffffffffffffff\n      and\n      mul\n      or\n      swap1\n      sstore\n      pop\n        /* \"Supplychain/Supplychain1.sol\":9852:9880  state.PurchasedByDistributor */\n      0x02\n        /* \"Supplychain/Supplychain1.sol\":9820:9825  items */\n      0x08\n        /* \"Supplychain/Supplychain1.sol\":9820:9839  items[_productCode] */\n      0x00\n        /* \"Supplychain/Supplychain1.sol\":9826:9838  _productCode */\n      dup11\n        /* \"Supplychain/Supplychain1.sol\":9820:9839  items[_productCode] */\n      dup2\n      mstore\n      0x20\n      add\n      swap1\n      dup2\n      mstore\n      0x20\n      add\n      0x00\n      keccak256\n        /* \"Supplychain/Supplychain1.sol\":9820:9849  items[_productCode].itemState */\n      0x06\n      add\n      0x00\n        /* \"Supplychain/Supplychain1.sol\":9820:9880  items[_productCode].itemState = state.PurchasedByDistributor */\n      0x0100\n      exp\n      dup2\n      sload\n      dup2\n      0xff\n      mul\n      not\n      and\n      swap1\n      dup4\n      0x0d\n      dup2\n      gt\n      iszero\n      tag_286\n      jumpi\n      tag_287\n      tag_135\n      jump\t// in\n    tag_287:\n    tag_286:\n      mul\n      or\n      swap1\n      sstore\n      pop\n        /* \"Supplychain/Supplychain1.sol\":9940:9952  block.number */\n      number\n        /* \"Supplychain/Supplychain1.sol\":9907:9919  itemsHistory */\n      0x09\n        /* \"Supplychain/Supplychain1.sol\":9907:9933  itemsHistory[_productCode] */\n      0x00\n        /* \"Supplychain/Supplychain1.sol\":9920:9932  _productCode */\n      dup11\n        /* \"Supplychain/Supplychain1.sol\":9907:9933  itemsHistory[_productCode] */\n      dup2\n      mstore\n      0x20\n      add\n      swap1\n      dup2\n      mstore\n      0x20\n      add\n      0x00\n      keccak256\n        /* \"Supplychain/Supplychain1.sol\":9907:9937  itemsHistory[_productCode].FTD */\n      0x00\n      add\n        /* \"Supplychain/Supplychain1.sol\":9907:9952  itemsHistory[_productCode].FTD = block.number */\n      dup2\n      swap1\n      sstore\n      pop\n        /* \"Supplychain/Supplychain1.sol\":9988:10024  PurchasedByDistributor(_productCode) */\n      0xacd9402b9f9e8c15fa7c1819f8393ca56eb61316cc354fc6ac2150aed3ce7931\n        /* \"Supplychain/Supplychain1.sol\":10011:10023  _productCode */\n      dup9\n        /* \"Supplychain/Supplychain1.sol\":9988:10024  PurchasedByDistributor(_productCode) */\n      mload(0x40)\n      tag_288\n      swap2\n      swap1\n      tag_146\n      jump\t// in\n    tag_288:\n      mload(0x40)\n      dup1\n      swap2\n      sub\n      swap1\n      log1\n        /* \"Supplychain/Supplychain1.sol\":9418:10032  {... */\n      pop\n        /* \"Supplychain/Supplychain1.sol\":3737:3917  {... */\n      pop\n      pop\n        /* \"Supplychain/Supplychain1.sol\":3565:3566  _ */\n      pop\n      pop\n        /* \"Supplychain/Supplychain1.sol\":4276:4277  _ */\n      pop\n        /* \"Access/Distributor.sol\":590:591  _ */\n      pop\n        /* \"Supplychain/Supplychain1.sol\":8934:10032  function purchaseItemByDistributor(uint256 _productCode)... */\n      pop\n      jump\t// out\n        /* \"Access/Roles.sol\":153:344  function add(Role storage role , address account) internal {... */\n    tag_112:\n        /* \"Access/Roles.sol\":252:253  0 */\n      0x00\n        /* \"Access/Roles.sol\":233:254  account != address(0) */\n      0xffffffffffffffffffffffffffffffffffffffff\n      and\n        /* \"Access/Roles.sol\":233:240  account */\n      dup2\n        /* \"Access/Roles.sol\":233:254  account != address(0) */\n      0xffffffffffffffffffffffffffffffffffffffff\n      and\n      sub\n        /* \"Access/Roles.sol\":223:256  require( (account != address(0))) */\n      tag_290\n      jumpi\n      0x00\n      dup1\n      revert\n    tag_290:\n        /* \"Access/Roles.sol\":276:296  has(role , account ) */\n      tag_291\n        /* \"Access/Roles.sol\":280:284  role */\n      dup3\n        /* \"Access/Roles.sol\":287:294  account */\n      dup3\n        /* \"Access/Roles.sol\":276:279  has */\n      tag_127\n        /* \"Access/Roles.sol\":276:296  has(role , account ) */\n      jump\t// in\n    tag_291:\n        /* \"Access/Roles.sol\":275:296  !has(role , account ) */\n      iszero\n        /* \"Access/Roles.sol\":267:297  require(!has(role , account )) */\n      tag_292\n      jumpi\n      0x00\n      dup1\n      revert\n    tag_292:\n        /* \"Access/Roles.sol\":330:334  true */\n      0x01\n        /* \"Access/Roles.sol\":308:312  role */\n      dup3\n        /* \"Access/Roles.sol\":308:319  role.bearer */\n      0x00\n      add\n        /* \"Access/Roles.sol\":308:328  role.bearer[account] */\n      0x00\n        /* \"Access/Roles.sol\":320:327  account */\n      dup4\n        /* \"Access/Roles.sol\":308:328  role.bearer[account] */\n      0xffffffffffffffffffffffffffffffffffffffff\n      and\n      0xffffffffffffffffffffffffffffffffffffffff\n      and\n      dup2\n      mstore\n      0x20\n      add\n      swap1\n      dup2\n      mstore\n      0x20\n      add\n      0x00\n      keccak256\n      0x00\n        /* \"Access/Roles.sol\":308:334  role.bearer[account]= true */\n      0x0100\n      exp\n      dup2\n      sload\n      dup2\n      0xff\n      mul\n      not\n      and\n      swap1\n      dup4\n      iszero\n      iszero\n      mul\n      or\n      swap1\n      sstore\n      pop\n        /* \"Access/Roles.sol\":153:344  function add(Role storage role , address account) internal {... */\n      pop\n      pop\n      jump\t// out\n        /* \"Utils/Context.sol\":97:195  function _msgSender() internal view virtual returns (address) {... */\n    tag_116:\n        /* \"Utils/Context.sol\":150:157  address */\n      0x00\n        /* \"Utils/Context.sol\":177:187  msg.sender */\n      caller\n        /* \"Utils/Context.sol\":170:187  return msg.sender */\n      swap1\n      pop\n        /* \"Utils/Context.sol\":97:195  function _msgSender() internal view virtual returns (address) {... */\n      swap1\n      jump\t// out\n        /* \"Access/Wholesaler.sol\":1168:1311  function _removeWholesaler(address account ) internal {... */\n    tag_117:\n        /* \"Access/Wholesaler.sol\":1233:1260  wholesalers.remove(account) */\n      tag_295\n        /* \"Access/Wholesaler.sol\":1252:1259  account */\n      dup2\n        /* \"Access/Wholesaler.sol\":1233:1244  wholesalers */\n      0x02\n        /* \"Access/Wholesaler.sol\":1233:1251  wholesalers.remove */\n      tag_296\n      swap1\n        /* \"Access/Wholesaler.sol\":1233:1260  wholesalers.remove(account) */\n      swap2\n      swap1\n      0xffffffff\n      and\n      jump\t// in\n    tag_295:\n        /* \"Access/Wholesaler.sol\":1294:1301  account */\n      dup1\n        /* \"Access/Wholesaler.sol\":1276:1303  WholesalerRemoved(account ) */\n      0xffffffffffffffffffffffffffffffffffffffff\n      and\n      0x7f865f710a7604537eb2bc0334f082fa642d210a705398937f53663384485b28\n      mload(0x40)\n      mload(0x40)\n      dup1\n      swap2\n      sub\n      swap1\n      log2\n        /* \"Access/Wholesaler.sol\":1168:1311  function _removeWholesaler(address account ) internal {... */\n      pop\n      jump\t// out\n        /* \"Access/Consumer.sol\":993:1122  function _addConsumer  (address account ) internal{... */\n    tag_124:\n        /* \"Access/Consumer.sol\":1054:1076  consumers.add(account) */\n      tag_298\n        /* \"Access/Consumer.sol\":1068:1075  account */\n      dup2\n        /* \"Access/Consumer.sol\":1054:1063  consumers */\n      0x04\n        /* \"Access/Consumer.sol\":1054:1067  consumers.add */\n      tag_112\n      swap1\n        /* \"Access/Consumer.sol\":1054:1076  consumers.add(account) */\n      swap2\n      swap1\n      0xffffffff\n      and\n      jump\t// in\n    tag_298:\n        /* \"Access/Consumer.sol\":1106:1113  account */\n      dup1\n        /* \"Access/Consumer.sol\":1092:1114  ConsumerAdded(account) */\n      0xffffffffffffffffffffffffffffffffffffffff\n      and\n      0x28b26e7a3d20aedbc5f8f2ebf7da671c0491723a2b78f47a097b0e46dee07142\n      mload(0x40)\n      mload(0x40)\n      dup1\n      swap2\n      sub\n      swap1\n      log2\n        /* \"Access/Consumer.sol\":993:1122  function _addConsumer  (address account ) internal{... */\n      pop\n      jump\t// out\n        /* \"Access/Roles.sol\":552:724  function has(Role storage role , address account ) internal view returns (bool) {... */\n    tag_127:\n        /* \"Access/Roles.sol\":626:630  bool */\n      0x00\n        /* \"Access/Roles.sol\":671:672  0 */\n      dup1\n        /* \"Access/Roles.sol\":652:673  account != address(0) */\n      0xffffffffffffffffffffffffffffffffffffffff\n      and\n        /* \"Access/Roles.sol\":652:659  account */\n      dup3\n        /* \"Access/Roles.sol\":652:673  account != address(0) */\n      0xffffffffffffffffffffffffffffffffffffffff\n      and\n      sub\n        /* \"Access/Roles.sol\":644:674  require(account != address(0)) */\n      tag_300\n      jumpi\n      0x00\n      dup1\n      revert\n    tag_300:\n        /* \"Access/Roles.sol\":693:697  role */\n      dup3\n        /* \"Access/Roles.sol\":693:704  role.bearer */\n      0x00\n      add\n        /* \"Access/Roles.sol\":693:713  role.bearer[account] */\n      0x00\n        /* \"Access/Roles.sol\":705:712  account */\n      dup4\n        /* \"Access/Roles.sol\":693:713  role.bearer[account] */\n      0xffffffffffffffffffffffffffffffffffffffff\n      and\n      0xffffffffffffffffffffffffffffffffffffffff\n      and\n      dup2\n      mstore\n      0x20\n      add\n      swap1\n      dup2\n      mstore\n      0x20\n      add\n      0x00\n      keccak256\n      0x00\n      swap1\n      sload\n      swap1\n      0x0100\n      exp\n      swap1\n      div\n      0xff\n      and\n        /* \"Access/Roles.sol\":686:713  return role.bearer[account] */\n      swap1\n      pop\n        /* \"Access/Roles.sol\":552:724  function has(Role storage role , address account ) internal view returns (bool) {... */\n      swap3\n      swap2\n      pop\n      pop\n      jump\t// out\n        /* \"Access/Consumer.sol\":1134:1271  function _removeConsumer(address account ) internal {... */\n    tag_150:\n        /* \"Access/Consumer.sol\":1197:1222  consumers.remove(account) */\n      tag_302\n        /* \"Access/Consumer.sol\":1214:1221  account */\n      dup2\n        /* \"Access/Consumer.sol\":1197:1206  consumers */\n      0x04\n        /* \"Access/Consumer.sol\":1197:1213  consumers.remove */\n      tag_296\n      swap1\n        /* \"Access/Consumer.sol\":1197:1222  consumers.remove(account) */\n      swap2\n      swap1\n      0xffffffff\n      and\n      jump\t// in\n    tag_302:\n        /* \"Access/Consumer.sol\":1254:1261  account */\n      dup1\n        /* \"Access/Consumer.sol\":1238:1263  ConsumerRemoved(account ) */\n      0xffffffffffffffffffffffffffffffffffffffff\n      and\n      0xe3f5ed5f263f1f01764a96edfc7d025f511ec5f7d180e8816908b78bcf74f098\n      mload(0x40)\n      mload(0x40)\n      dup1\n      swap2\n      sub\n      swap1\n      log2\n        /* \"Access/Consumer.sol\":1134:1271  function _removeConsumer(address account ) internal {... */\n      pop\n      jump\t// out\n        /* \"Supplychain/Supplychain1.sol\":6690:6818  function _make_payable(address x) internal pure returns (address payable) {... */\n    tag_155:\n        /* \"Supplychain/Supplychain1.sol\":6747:6762  address payable */\n      0x00\n        /* \"Supplychain/Supplychain1.sol\":6806:6807  x */\n      dup2\n        /* \"Supplychain/Supplychain1.sol\":6775:6810  return payable(address(uint160(x))) */\n      swap1\n      pop\n        /* \"Supplychain/Supplychain1.sol\":6690:6818  function _make_payable(address x) internal pure returns (address payable) {... */\n      swap2\n      swap1\n      pop\n      jump\t// out\n        /* \"Access/Distributor.sol\":1185:1331  function _removeDistributor(address account ) internal {... */\n    tag_159:\n        /* \"Access/Distributor.sol\":1251:1279  distributors.remove(account) */\n      tag_305\n        /* \"Access/Distributor.sol\":1271:1278  account */\n      dup2\n        /* \"Access/Distributor.sol\":1251:1263  distributors */\n      0x01\n        /* \"Access/Distributor.sol\":1251:1270  distributors.remove */\n      tag_296\n      swap1\n        /* \"Access/Distributor.sol\":1251:1279  distributors.remove(account) */\n      swap2\n      swap1\n      0xffffffff\n      and\n      jump\t// in\n    tag_305:\n        /* \"Access/Distributor.sol\":1314:1321  account */\n      dup1\n        /* \"Access/Distributor.sol\":1295:1323  DistributorRemoved(account ) */\n      0xffffffffffffffffffffffffffffffffffffffff\n      and\n      0x126174f6cf49c81cdb4a9214c6b8f037bef55b4ec31e4fc776cea2a1c8a88d59\n      mload(0x40)\n      mload(0x40)\n      dup1\n      swap2\n      sub\n      swap1\n      log2\n        /* \"Access/Distributor.sol\":1185:1331  function _removeDistributor(address account ) internal {... */\n      pop\n      jump\t// out\n        /* \"Access/Manufacturer.sol\":1048:1189  function _addManufacturer  (address account ) internal{... */\n    tag_168:\n        /* \"Access/Manufacturer.sol\":1113:1139  manufacturers.add(account) */\n      tag_307\n        /* \"Access/Manufacturer.sol\":1131:1138  account */\n      dup2\n        /* \"Access/Manufacturer.sol\":1113:1126  manufacturers */\n      0x00\n        /* \"Access/Manufacturer.sol\":1113:1130  manufacturers.add */\n      tag_112\n      swap1\n        /* \"Access/Manufacturer.sol\":1113:1139  manufacturers.add(account) */\n      swap2\n      swap1\n      0xffffffff\n      and\n      jump\t// in\n    tag_307:\n        /* \"Access/Manufacturer.sol\":1173:1180  account */\n      dup1\n        /* \"Access/Manufacturer.sol\":1155:1181  ManufacturerAdded(account) */\n      0xffffffffffffffffffffffffffffffffffffffff\n      and\n      0x561138658ca49a8540dc70dcfe64c9026c1c5b9344642242dd6562970f9c1278\n      mload(0x40)\n      mload(0x40)\n      dup1\n      swap2\n      sub\n      swap1\n      log2\n        /* \"Access/Manufacturer.sol\":1048:1189  function _addManufacturer  (address account ) internal{... */\n      pop\n      jump\t// out\n        /* \"Access/Distributor.sol\":1035:1173  function _addDistributor  (address account ) internal{... */\n    tag_194:\n        /* \"Access/Distributor.sol\":1099:1124  distributors.add(account) */\n      tag_309\n        /* \"Access/Distributor.sol\":1116:1123  account */\n      dup2\n        /* \"Access/Distributor.sol\":1099:1111  distributors */\n      0x01\n        /* \"Access/Distributor.sol\":1099:1115  distributors.add */\n      tag_112\n      swap1\n        /* \"Access/Distributor.sol\":1099:1124  distributors.add(account) */\n      swap2\n      swap1\n      0xffffffff\n      and\n      jump\t// in\n    tag_309:\n        /* \"Access/Distributor.sol\":1157:1164  account */\n      dup1\n        /* \"Access/Distributor.sol\":1140:1165  DistributorAdded(account) */\n      0xffffffffffffffffffffffffffffffffffffffff\n      and\n      0xddbf200aa634dc3fb81cfd68583dd1040d1c751d335e1d86b631bde3e977fea8\n      mload(0x40)\n      mload(0x40)\n      dup1\n      swap2\n      sub\n      swap1\n      log2\n        /* \"Access/Distributor.sol\":1035:1173  function _addDistributor  (address account ) internal{... */\n      pop\n      jump\t// out\n        /* \"Access/Manufacturer.sol\":1201:1350  function _removeManufacturer(address account ) internal {... */\n    tag_200:\n        /* \"Access/Manufacturer.sol\":1268:1297  manufacturers.remove(account) */\n      tag_311\n        /* \"Access/Manufacturer.sol\":1289:1296  account */\n      dup2\n        /* \"Access/Manufacturer.sol\":1268:1281  manufacturers */\n      0x00\n        /* \"Access/Manufacturer.sol\":1268:1288  manufacturers.remove */\n      tag_296\n      swap1\n        /* \"Access/Manufacturer.sol\":1268:1297  manufacturers.remove(account) */\n      swap2\n      swap1\n      0xffffffff\n      and\n      jump\t// in\n    tag_311:\n        /* \"Access/Manufacturer.sol\":1333:1340  account */\n      dup1\n        /* \"Access/Manufacturer.sol\":1313:1342  ManufacturerRemoved(account ) */\n      0xffffffffffffffffffffffffffffffffffffffff\n      and\n      0x2fed5abf6a80d6dfe30b4895481b2fc5d7dce5f8f7b931832f4a2947d5040c7f\n      mload(0x40)\n      mload(0x40)\n      dup1\n      swap2\n      sub\n      swap1\n      log2\n        /* \"Access/Manufacturer.sol\":1201:1350  function _removeManufacturer(address account ) internal {... */\n      pop\n      jump\t// out\n        /* \"Access/Retailer.sol\":993:1122  function _addRetailer  (address account ) internal{... */\n    tag_207:\n        /* \"Access/Retailer.sol\":1054:1076  retailers.add(account) */\n      tag_313\n        /* \"Access/Retailer.sol\":1068:1075  account */\n      dup2\n        /* \"Access/Retailer.sol\":1054:1063  retailers */\n      0x03\n        /* \"Access/Retailer.sol\":1054:1067  retailers.add */\n      tag_112\n      swap1\n        /* \"Access/Retailer.sol\":1054:1076  retailers.add(account) */\n      swap2\n      swap1\n      0xffffffff\n      and\n      jump\t// in\n    tag_313:\n        /* \"Access/Retailer.sol\":1106:1113  account */\n      dup1\n        /* \"Access/Retailer.sol\":1092:1114  RetailerAdded(account) */\n      0xffffffffffffffffffffffffffffffffffffffff\n      and\n      0x71ae26cad02663e3d92efd6ec56031a80d74a20c0ab4183faa8bf262261c9baa\n      mload(0x40)\n      mload(0x40)\n      dup1\n      swap2\n      sub\n      swap1\n      log2\n        /* \"Access/Retailer.sol\":993:1122  function _addRetailer  (address account ) internal{... */\n      pop\n      jump\t// out\n        /* \"Access/Wholesaler.sol\":1021:1156  function _addWholesaler  (address account ) internal{... */\n    tag_240:\n        /* \"Access/Wholesaler.sol\":1084:1108  wholesalers.add(account) */\n      tag_315\n        /* \"Access/Wholesaler.sol\":1100:1107  account */\n      dup2\n        /* \"Access/Wholesaler.sol\":1084:1095  wholesalers */\n      0x02\n        /* \"Access/Wholesaler.sol\":1084:1099  wholesalers.add */\n      tag_112\n      swap1\n        /* \"Access/Wholesaler.sol\":1084:1108  wholesalers.add(account) */\n      swap2\n      swap1\n      0xffffffff\n      and\n      jump\t// in\n    tag_315:\n        /* \"Access/Wholesaler.sol\":1140:1147  account */\n      dup1\n        /* \"Access/Wholesaler.sol\":1124:1148  WholesalerAdded(account) */\n      0xffffffffffffffffffffffffffffffffffffffff\n      and\n      0xd8a7ad7929975a375d2b12bf49040286b5b105df0fe351f10df6d85e5b7142f7\n      mload(0x40)\n      mload(0x40)\n      dup1\n      swap2\n      sub\n      swap1\n      log2\n        /* \"Access/Wholesaler.sol\":1021:1156  function _addWholesaler  (address account ) internal{... */\n      pop\n      jump\t// out\n        /* \"Access/Retailer.sol\":1134:1271  function _removeRetailer(address account ) internal {... */\n    tag_244:\n        /* \"Access/Retailer.sol\":1197:1222  retailers.remove(account) */\n      tag_317\n        /* \"Access/Retailer.sol\":1214:1221  account */\n      dup2\n        /* \"Access/Retailer.sol\":1197:1206  retailers */\n      0x03\n        /* \"Access/Retailer.sol\":1197:1213  retailers.remove */\n      tag_296\n      swap1\n        /* \"Access/Retailer.sol\":1197:1222  retailers.remove(account) */\n      swap2\n      swap1\n      0xffffffff\n      and\n      jump\t// in\n    tag_317:\n        /* \"Access/Retailer.sol\":1254:1261  account */\n      dup1\n        /* \"Access/Retailer.sol\":1238:1263  RetailerRemoved(account ) */\n      0xffffffffffffffffffffffffffffffffffffffff\n      and\n      0xdb7176e79cffef81cb01767dd0447a0b24bb72ca9778d4b245581086b2a7e6db\n      mload(0x40)\n      mload(0x40)\n      dup1\n      swap2\n      sub\n      swap1\n      log2\n        /* \"Access/Retailer.sol\":1134:1271  function _removeRetailer(address account ) internal {... */\n      pop\n      jump\t// out\n        /* \"Access/Roles.sol\":351:545  function remove(Role storage role , address account) internal {... */\n    tag_296:\n        /* \"Access/Roles.sol\":453:454  0 */\n      0x00\n        /* \"Access/Roles.sol\":434:455  account != address(0) */\n      0xffffffffffffffffffffffffffffffffffffffff\n      and\n        /* \"Access/Roles.sol\":434:441  account */\n      dup2\n        /* \"Access/Roles.sol\":434:455  account != address(0) */\n      0xffffffffffffffffffffffffffffffffffffffff\n      and\n      sub\n        /* \"Access/Roles.sol\":424:457  require( (account != address(0))) */\n      tag_319\n      jumpi\n      0x00\n      dup1\n      revert\n    tag_319:\n        /* \"Access/Roles.sol\":476:496  has(role , account ) */\n      tag_320\n        /* \"Access/Roles.sol\":480:484  role */\n      dup3\n        /* \"Access/Roles.sol\":487:494  account */\n      dup3\n        /* \"Access/Roles.sol\":476:479  has */\n      tag_127\n        /* \"Access/Roles.sol\":476:496  has(role , account ) */\n      jump\t// in\n    tag_320:\n        /* \"Access/Roles.sol\":468:497  require(has(role , account )) */\n      tag_321\n      jumpi\n      0x00\n      dup1\n      revert\n    tag_321:\n        /* \"Access/Roles.sol\":530:535  false */\n      0x00\n        /* \"Access/Roles.sol\":508:512  role */\n      dup3\n        /* \"Access/Roles.sol\":508:519  role.bearer */\n      0x00\n      add\n        /* \"Access/Roles.sol\":508:528  role.bearer[account] */\n      0x00\n        /* \"Access/Roles.sol\":520:527  account */\n      dup4\n        /* \"Access/Roles.sol\":508:528  role.bearer[account] */\n      0xffffffffffffffffffffffffffffffffffffffff\n      and\n      0xffffffffffffffffffffffffffffffffffffffff\n      and\n      dup2\n      mstore\n      0x20\n      add\n      swap1\n      dup2\n      mstore\n      0x20\n      add\n      0x00\n      keccak256\n      0x00\n        /* \"Access/Roles.sol\":508:535  role.bearer[account]= false */\n      0x0100\n      exp\n      dup2\n      sload\n      dup2\n      0xff\n      mul\n      not\n      and\n      swap1\n      dup4\n      iszero\n      iszero\n      mul\n      or\n      swap1\n      sstore\n      pop\n        /* \"Access/Roles.sol\":351:545  function remove(Role storage role , address account) internal {... */\n      pop\n      pop\n      jump\t// out\n    tag_216:\n      mload(0x40)\n      dup1\n      0x01c0\n      add\n      0x40\n      mstore\n      dup1\n      0x00\n      dup2\n      mstore\n      0x20\n      add\n      0x00\n      dup2\n      mstore\n      0x20\n      add\n      and(0xffffffffffffffffffffffffffffffffffffffff, 0x00)\n      dup2\n      mstore\n      0x20\n      add\n      and(0xffffffffffffffffffffffffffffffffffffffff, 0x00)\n      dup2\n      mstore\n      0x20\n      add\n      0x00\n      dup2\n      mstore\n      0x20\n      add\n      0x60\n      dup2\n      mstore\n      0x20\n      add\n      0x00\n      0x0d\n      dup2\n      gt\n      iszero\n      tag_322\n      jumpi\n      tag_323\n      tag_135\n      jump\t// in\n    tag_323:\n    tag_322:\n      dup2\n      mstore\n      0x20\n      add\n      0x00\n      dup2\n      mstore\n      0x20\n      add\n      and(0xffffffffffffffffffffffffffffffffffffffff, 0x00)\n      dup2\n      mstore\n      0x20\n      add\n      and(0xffffffffffffffffffffffffffffffffffffffff, 0x00)\n      dup2\n      mstore\n      0x20\n      add\n      and(0xffffffffffffffffffffffffffffffffffffffff, 0x00)\n      dup2\n      mstore\n      0x20\n      add\n      and(0xffffffffffffffffffffffffffffffffffffffff, 0x00)\n      dup2\n      mstore\n      0x20\n      add\n      0x00\n      dup2\n      mstore\n      0x20\n      add\n      0x00\n      dup2\n      mstore\n      pop\n      swap1\n      jump\t// out\n    tag_230:\n      mload(0x40)\n      dup1\n      0x80\n      add\n      0x40\n      mstore\n      dup1\n      0x00\n      dup2\n      mstore\n      0x20\n      add\n      0x00\n      dup2\n      mstore\n      0x20\n      add\n      0x00\n      dup2\n      mstore\n      0x20\n      add\n      0x00\n      dup2\n      mstore\n      pop\n      swap1\n      jump\t// out\n        /* \"#utility.yul\":7:82   */\n    tag_324:\n        /* \"#utility.yul\":40:46   */\n      0x00\n        /* \"#utility.yul\":73:75   */\n      0x40\n        /* \"#utility.yul\":67:76   */\n      mload\n        /* \"#utility.yul\":57:76   */\n      swap1\n      pop\n        /* \"#utility.yul\":7:82   */\n      swap1\n      jump\t// out\n        /* \"#utility.yul\":88:205   */\n    tag_325:\n        /* \"#utility.yul\":197:198   */\n      0x00\n        /* \"#utility.yul\":194:195   */\n      dup1\n        /* \"#utility.yul\":187:199   */\n      revert\n        /* \"#utility.yul\":211:328   */\n    tag_326:\n        /* \"#utility.yul\":320:321   */\n      0x00\n        /* \"#utility.yul\":317:318   */\n      dup1\n        /* \"#utility.yul\":310:322   */\n      revert\n        /* \"#utility.yul\":334:460   */\n    tag_327:\n        /* \"#utility.yul\":371:378   */\n      0x00\n        /* \"#utility.yul\":411:453   */\n      0xffffffffffffffffffffffffffffffffffffffff\n        /* \"#utility.yul\":404:409   */\n      dup3\n        /* \"#utility.yul\":400:454   */\n      and\n        /* \"#utility.yul\":389:454   */\n      swap1\n      pop\n        /* \"#utility.yul\":334:460   */\n      swap2\n      swap1\n      pop\n      jump\t// out\n        /* \"#utility.yul\":466:562   */\n    tag_328:\n        /* \"#utility.yul\":503:510   */\n      0x00\n        /* \"#utility.yul\":532:556   */\n      tag_372\n        /* \"#utility.yul\":550:555   */\n      dup3\n        /* \"#utility.yul\":532:556   */\n      tag_327\n      jump\t// in\n    tag_372:\n        /* \"#utility.yul\":521:556   */\n      swap1\n      pop\n        /* \"#utility.yul\":466:562   */\n      swap2\n      swap1\n      pop\n      jump\t// out\n        /* \"#utility.yul\":568:690   */\n    tag_329:\n        /* \"#utility.yul\":641:665   */\n      tag_374\n        /* \"#utility.yul\":659:664   */\n      dup2\n        /* \"#utility.yul\":641:665   */\n      tag_328\n      jump\t// in\n    tag_374:\n        /* \"#utility.yul\":634:639   */\n      dup2\n        /* \"#utility.yul\":631:666   */\n      eq\n        /* \"#utility.yul\":621:684   */\n      tag_375\n      jumpi\n        /* \"#utility.yul\":680:681   */\n      0x00\n        /* \"#utility.yul\":677:678   */\n      dup1\n        /* \"#utility.yul\":670:682   */\n      revert\n        /* \"#utility.yul\":621:684   */\n    tag_375:\n        /* \"#utility.yul\":568:690   */\n      pop\n      jump\t// out\n        /* \"#utility.yul\":696:835   */\n    tag_330:\n        /* \"#utility.yul\":742:747   */\n      0x00\n        /* \"#utility.yul\":780:786   */\n      dup2\n        /* \"#utility.yul\":767:787   */\n      calldataload\n        /* \"#utility.yul\":758:787   */\n      swap1\n      pop\n        /* \"#utility.yul\":796:829   */\n      tag_377\n        /* \"#utility.yul\":823:828   */\n      dup2\n        /* \"#utility.yul\":796:829   */\n      tag_329\n      jump\t// in\n    tag_377:\n        /* \"#utility.yul\":696:835   */\n      swap3\n      swap2\n      pop\n      pop\n      jump\t// out\n        /* \"#utility.yul\":841:1170   */\n    tag_32:\n        /* \"#utility.yul\":900:906   */\n      0x00\n        /* \"#utility.yul\":949:951   */\n      0x20\n        /* \"#utility.yul\":937:946   */\n      dup3\n        /* \"#utility.yul\":928:935   */\n      dup5\n        /* \"#utility.yul\":924:947   */\n      sub\n        /* \"#utility.yul\":920:952   */\n      slt\n        /* \"#utility.yul\":917:1036   */\n      iszero\n      tag_379\n      jumpi\n        /* \"#utility.yul\":955:1034   */\n      tag_380\n      tag_325\n      jump\t// in\n    tag_380:\n        /* \"#utility.yul\":917:1036   */\n    tag_379:\n        /* \"#utility.yul\":1075:1076   */\n      0x00\n        /* \"#utility.yul\":1100:1153   */\n      tag_381\n        /* \"#utility.yul\":1145:1152   */\n      dup5\n        /* \"#utility.yul\":1136:1142   */\n      dup3\n        /* \"#utility.yul\":1125:1134   */\n      dup6\n        /* \"#utility.yul\":1121:1143   */\n      add\n        /* \"#utility.yul\":1100:1153   */\n      tag_330\n      jump\t// in\n    tag_381:\n        /* \"#utility.yul\":1090:1153   */\n      swap2\n      pop\n        /* \"#utility.yul\":1046:1163   */\n      pop\n        /* \"#utility.yul\":841:1170   */\n      swap3\n      swap2\n      pop\n      pop\n      jump\t// out\n        /* \"#utility.yul\":1176:1266   */\n    tag_331:\n        /* \"#utility.yul\":1210:1217   */\n      0x00\n        /* \"#utility.yul\":1253:1258   */\n      dup2\n        /* \"#utility.yul\":1246:1259   */\n      iszero\n        /* \"#utility.yul\":1239:1260   */\n      iszero\n        /* \"#utility.yul\":1228:1260   */\n      swap1\n      pop\n        /* \"#utility.yul\":1176:1266   */\n      swap2\n      swap1\n      pop\n      jump\t// out\n        /* \"#utility.yul\":1272:1381   */\n    tag_332:\n        /* \"#utility.yul\":1353:1374   */\n      tag_384\n        /* \"#utility.yul\":1368:1373   */\n      dup2\n        /* \"#utility.yul\":1353:1374   */\n      tag_331\n      jump\t// in\n    tag_384:\n        /* \"#utility.yul\":1348:1351   */\n      dup3\n        /* \"#utility.yul\":1341:1375   */\n      mstore\n        /* \"#utility.yul\":1272:1381   */\n      pop\n      pop\n      jump\t// out\n        /* \"#utility.yul\":1387:1597   */\n    tag_39:\n        /* \"#utility.yul\":1474:1478   */\n      0x00\n        /* \"#utility.yul\":1512:1514   */\n      0x20\n        /* \"#utility.yul\":1501:1510   */\n      dup3\n        /* \"#utility.yul\":1497:1515   */\n      add\n        /* \"#utility.yul\":1489:1515   */\n      swap1\n      pop\n        /* \"#utility.yul\":1525:1590   */\n      tag_386\n        /* \"#utility.yul\":1587:1588   */\n      0x00\n        /* \"#utility.yul\":1576:1585   */\n      dup4\n        /* \"#utility.yul\":1572:1589   */\n      add\n        /* \"#utility.yul\":1563:1569   */\n      dup5\n        /* \"#utility.yul\":1525:1590   */\n      tag_332\n      jump\t// in\n    tag_386:\n        /* \"#utility.yul\":1387:1597   */\n      swap3\n      swap2\n      pop\n      pop\n      jump\t// out\n        /* \"#utility.yul\":1603:1680   */\n    tag_333:\n        /* \"#utility.yul\":1640:1647   */\n      0x00\n        /* \"#utility.yul\":1669:1674   */\n      dup2\n        /* \"#utility.yul\":1658:1674   */\n      swap1\n      pop\n        /* \"#utility.yul\":1603:1680   */\n      swap2\n      swap1\n      pop\n      jump\t// out\n        /* \"#utility.yul\":1686:1808   */\n    tag_334:\n        /* \"#utility.yul\":1759:1783   */\n      tag_389\n        /* \"#utility.yul\":1777:1782   */\n      dup2\n        /* \"#utility.yul\":1759:1783   */\n      tag_333\n      jump\t// in\n    tag_389:\n        /* \"#utility.yul\":1752:1757   */\n      dup2\n        /* \"#utility.yul\":1749:1784   */\n      eq\n        /* \"#utility.yul\":1739:1802   */\n      tag_390\n      jumpi\n        /* \"#utility.yul\":1798:1799   */\n      0x00\n        /* \"#utility.yul\":1795:1796   */\n      dup1\n        /* \"#utility.yul\":1788:1800   */\n      revert\n        /* \"#utility.yul\":1739:1802   */\n    tag_390:\n        /* \"#utility.yul\":1686:1808   */\n      pop\n      jump\t// out\n        /* \"#utility.yul\":1814:1953   */\n    tag_335:\n        /* \"#utility.yul\":1860:1865   */\n      0x00\n        /* \"#utility.yul\":1898:1904   */\n      dup2\n        /* \"#utility.yul\":1885:1905   */\n      calldataload\n        /* \"#utility.yul\":1876:1905   */\n      swap1\n      pop\n        /* \"#utility.yul\":1914:1947   */\n      tag_392\n        /* \"#utility.yul\":1941:1946   */\n      dup2\n        /* \"#utility.yul\":1914:1947   */\n      tag_334\n      jump\t// in\n    tag_392:\n        /* \"#utility.yul\":1814:1953   */\n      swap3\n      swap2\n      pop\n      pop\n      jump\t// out\n        /* \"#utility.yul\":1959:2288   */\n    tag_43:\n        /* \"#utility.yul\":2018:2024   */\n      0x00\n        /* \"#utility.yul\":2067:2069   */\n      0x20\n        /* \"#utility.yul\":2055:2064   */\n      dup3\n        /* \"#utility.yul\":2046:2053   */\n      dup5\n        /* \"#utility.yul\":2042:2065   */\n      sub\n        /* \"#utility.yul\":2038:2070   */\n      slt\n        /* \"#utility.yul\":2035:2154   */\n      iszero\n      tag_394\n      jumpi\n        /* \"#utility.yul\":2073:2152   */\n      tag_395\n      tag_325\n      jump\t// in\n    tag_395:\n        /* \"#utility.yul\":2035:2154   */\n    tag_394:\n        /* \"#utility.yul\":2193:2194   */\n      0x00\n        /* \"#utility.yul\":2218:2271   */\n      tag_396\n        /* \"#utility.yul\":2263:2270   */\n      dup5\n        /* \"#utility.yul\":2254:2260   */\n      dup3\n        /* \"#utility.yul\":2243:2252   */\n      dup6\n        /* \"#utility.yul\":2239:2261   */\n      add\n        /* \"#utility.yul\":2218:2271   */\n      tag_335\n      jump\t// in\n    tag_396:\n        /* \"#utility.yul\":2208:2271   */\n      swap2\n      pop\n        /* \"#utility.yul\":2164:2281   */\n      pop\n        /* \"#utility.yul\":1959:2288   */\n      swap3\n      swap2\n      pop\n      pop\n      jump\t// out\n        /* \"#utility.yul\":2294:2411   */\n    tag_336:\n        /* \"#utility.yul\":2403:2404   */\n      0x00\n        /* \"#utility.yul\":2400:2401   */\n      dup1\n        /* \"#utility.yul\":2393:2405   */\n      revert\n        /* \"#utility.yul\":2417:2534   */\n    tag_337:\n        /* \"#utility.yul\":2526:2527   */\n      0x00\n        /* \"#utility.yul\":2523:2524   */\n      dup1\n        /* \"#utility.yul\":2516:2528   */\n      revert\n        /* \"#utility.yul\":2540:2642   */\n    tag_338:\n        /* \"#utility.yul\":2581:2587   */\n      0x00\n        /* \"#utility.yul\":2632:2634   */\n      0x1f\n        /* \"#utility.yul\":2628:2635   */\n      not\n        /* \"#utility.yul\":2623:2625   */\n      0x1f\n        /* \"#utility.yul\":2616:2621   */\n      dup4\n        /* \"#utility.yul\":2612:2626   */\n      add\n        /* \"#utility.yul\":2608:2636   */\n      and\n        /* \"#utility.yul\":2598:2636   */\n      swap1\n      pop\n        /* \"#utility.yul\":2540:2642   */\n      swap2\n      swap1\n      pop\n      jump\t// out\n        /* \"#utility.yul\":2648:2828   */\n    tag_339:\n        /* \"#utility.yul\":2696:2773   */\n      0x4e487b7100000000000000000000000000000000000000000000000000000000\n        /* \"#utility.yul\":2693:2694   */\n      0x00\n        /* \"#utility.yul\":2686:2774   */\n      mstore\n        /* \"#utility.yul\":2793:2797   */\n      0x41\n        /* \"#utility.yul\":2790:2791   */\n      0x04\n        /* \"#utility.yul\":2783:2798   */\n      mstore\n        /* \"#utility.yul\":2817:2821   */\n      0x24\n        /* \"#utility.yul\":2814:2815   */\n      0x00\n        /* \"#utility.yul\":2807:2822   */\n      revert\n        /* \"#utility.yul\":2834:3115   */\n    tag_340:\n        /* \"#utility.yul\":2917:2944   */\n      tag_402\n        /* \"#utility.yul\":2939:2943   */\n      dup3\n        /* \"#utility.yul\":2917:2944   */\n      tag_338\n      jump\t// in\n    tag_402:\n        /* \"#utility.yul\":2909:2915   */\n      dup2\n        /* \"#utility.yul\":2905:2945   */\n      add\n        /* \"#utility.yul\":3047:3053   */\n      dup2\n        /* \"#utility.yul\":3035:3045   */\n      dup2\n        /* \"#utility.yul\":3032:3054   */\n      lt\n        /* \"#utility.yul\":3011:3029   */\n      0xffffffffffffffff\n        /* \"#utility.yul\":2999:3009   */\n      dup3\n        /* \"#utility.yul\":2996:3030   */\n      gt\n        /* \"#utility.yul\":2993:3055   */\n      or\n        /* \"#utility.yul\":2990:3078   */\n      iszero\n      tag_403\n      jumpi\n        /* \"#utility.yul\":3058:3076   */\n      tag_404\n      tag_339\n      jump\t// in\n    tag_404:\n        /* \"#utility.yul\":2990:3078   */\n    tag_403:\n        /* \"#utility.yul\":3098:3108   */\n      dup1\n        /* \"#utility.yul\":3094:3096   */\n      0x40\n        /* \"#utility.yul\":3087:3109   */\n      mstore\n        /* \"#utility.yul\":2877:3115   */\n      pop\n        /* \"#utility.yul\":2834:3115   */\n      pop\n      pop\n      jump\t// out\n        /* \"#utility.yul\":3121:3250   */\n    tag_341:\n        /* \"#utility.yul\":3155:3161   */\n      0x00\n        /* \"#utility.yul\":3182:3202   */\n      tag_406\n      tag_324\n      jump\t// in\n    tag_406:\n        /* \"#utility.yul\":3172:3202   */\n      swap1\n      pop\n        /* \"#utility.yul\":3211:3244   */\n      tag_407\n        /* \"#utility.yul\":3239:3243   */\n      dup3\n        /* \"#utility.yul\":3231:3237   */\n      dup3\n        /* \"#utility.yul\":3211:3244   */\n      tag_340\n      jump\t// in\n    tag_407:\n        /* \"#utility.yul\":3121:3250   */\n      swap2\n      swap1\n      pop\n      jump\t// out\n        /* \"#utility.yul\":3256:3564   */\n    tag_342:\n        /* \"#utility.yul\":3318:3322   */\n      0x00\n        /* \"#utility.yul\":3408:3426   */\n      0xffffffffffffffff\n        /* \"#utility.yul\":3400:3406   */\n      dup3\n        /* \"#utility.yul\":3397:3427   */\n      gt\n        /* \"#utility.yul\":3394:3450   */\n      iszero\n      tag_409\n      jumpi\n        /* \"#utility.yul\":3430:3448   */\n      tag_410\n      tag_339\n      jump\t// in\n    tag_410:\n        /* \"#utility.yul\":3394:3450   */\n    tag_409:\n        /* \"#utility.yul\":3468:3497   */\n      tag_411\n        /* \"#utility.yul\":3490:3496   */\n      dup3\n        /* \"#utility.yul\":3468:3497   */\n      tag_338\n      jump\t// in\n    tag_411:\n        /* \"#utility.yul\":3460:3497   */\n      swap1\n      pop\n        /* \"#utility.yul\":3552:3556   */\n      0x20\n        /* \"#utility.yul\":3546:3550   */\n      dup2\n        /* \"#utility.yul\":3542:3557   */\n      add\n        /* \"#utility.yul\":3534:3557   */\n      swap1\n      pop\n        /* \"#utility.yul\":3256:3564   */\n      swap2\n      swap1\n      pop\n      jump\t// out\n        /* \"#utility.yul\":3570:3716   */\n    tag_343:\n        /* \"#utility.yul\":3667:3673   */\n      dup3\n        /* \"#utility.yul\":3662:3665   */\n      dup2\n        /* \"#utility.yul\":3657:3660   */\n      dup4\n        /* \"#utility.yul\":3644:3674   */\n      calldatacopy\n        /* \"#utility.yul\":3708:3709   */\n      0x00\n        /* \"#utility.yul\":3699:3705   */\n      dup4\n        /* \"#utility.yul\":3694:3697   */\n      dup4\n        /* \"#utility.yul\":3690:3706   */\n      add\n        /* \"#utility.yul\":3683:3710   */\n      mstore\n        /* \"#utility.yul\":3570:3716   */\n      pop\n      pop\n      pop\n      jump\t// out\n        /* \"#utility.yul\":3722:4147   */\n    tag_344:\n        /* \"#utility.yul\":3800:3805   */\n      0x00\n        /* \"#utility.yul\":3825:3891   */\n      tag_414\n        /* \"#utility.yul\":3841:3890   */\n      tag_415\n        /* \"#utility.yul\":3883:3889   */\n      dup5\n        /* \"#utility.yul\":3841:3890   */\n      tag_342\n      jump\t// in\n    tag_415:\n        /* \"#utility.yul\":3825:3891   */\n      tag_341\n      jump\t// in\n    tag_414:\n        /* \"#utility.yul\":3816:3891   */\n      swap1\n      pop\n        /* \"#utility.yul\":3914:3920   */\n      dup3\n        /* \"#utility.yul\":3907:3912   */\n      dup2\n        /* \"#utility.yul\":3900:3921   */\n      mstore\n        /* \"#utility.yul\":3952:3956   */\n      0x20\n        /* \"#utility.yul\":3945:3950   */\n      dup2\n        /* \"#utility.yul\":3941:3957   */\n      add\n        /* \"#utility.yul\":3990:3993   */\n      dup5\n        /* \"#utility.yul\":3981:3987   */\n      dup5\n        /* \"#utility.yul\":3976:3979   */\n      dup5\n        /* \"#utility.yul\":3972:3988   */\n      add\n        /* \"#utility.yul\":3969:3994   */\n      gt\n        /* \"#utility.yul\":3966:4078   */\n      iszero\n      tag_416\n      jumpi\n        /* \"#utility.yul\":3997:4076   */\n      tag_417\n      tag_337\n      jump\t// in\n    tag_417:\n        /* \"#utility.yul\":3966:4078   */\n    tag_416:\n        /* \"#utility.yul\":4087:4141   */\n      tag_418\n        /* \"#utility.yul\":4134:4140   */\n      dup5\n        /* \"#utility.yul\":4129:4132   */\n      dup3\n        /* \"#utility.yul\":4124:4127   */\n      dup6\n        /* \"#utility.yul\":4087:4141   */\n      tag_343\n      jump\t// in\n    tag_418:\n        /* \"#utility.yul\":3806:4147   */\n      pop\n        /* \"#utility.yul\":3722:4147   */\n      swap4\n      swap3\n      pop\n      pop\n      pop\n      jump\t// out\n        /* \"#utility.yul\":4167:4507   */\n    tag_345:\n        /* \"#utility.yul\":4223:4228   */\n      0x00\n        /* \"#utility.yul\":4272:4275   */\n      dup3\n        /* \"#utility.yul\":4265:4269   */\n      0x1f\n        /* \"#utility.yul\":4257:4263   */\n      dup4\n        /* \"#utility.yul\":4253:4270   */\n      add\n        /* \"#utility.yul\":4249:4276   */\n      slt\n        /* \"#utility.yul\":4239:4361   */\n      tag_420\n      jumpi\n        /* \"#utility.yul\":4280:4359   */\n      tag_421\n      tag_336\n      jump\t// in\n    tag_421:\n        /* \"#utility.yul\":4239:4361   */\n    tag_420:\n        /* \"#utility.yul\":4397:4403   */\n      dup2\n        /* \"#utility.yul\":4384:4404   */\n      calldataload\n        /* \"#utility.yul\":4422:4501   */\n      tag_422\n        /* \"#utility.yul\":4497:4500   */\n      dup5\n        /* \"#utility.yul\":4489:4495   */\n      dup3\n        /* \"#utility.yul\":4482:4486   */\n      0x20\n        /* \"#utility.yul\":4474:4480   */\n      dup7\n        /* \"#utility.yul\":4470:4487   */\n      add\n        /* \"#utility.yul\":4422:4501   */\n      tag_344\n      jump\t// in\n    tag_422:\n        /* \"#utility.yul\":4413:4501   */\n      swap2\n      pop\n        /* \"#utility.yul\":4229:4507   */\n      pop\n        /* \"#utility.yul\":4167:4507   */\n      swap3\n      swap2\n      pop\n      pop\n      jump\t// out\n        /* \"#utility.yul\":4513:5312   */\n    tag_95:\n        /* \"#utility.yul\":4600:4606   */\n      0x00\n        /* \"#utility.yul\":4608:4614   */\n      dup1\n        /* \"#utility.yul\":4616:4622   */\n      0x00\n        /* \"#utility.yul\":4665:4667   */\n      0x60\n        /* \"#utility.yul\":4653:4662   */\n      dup5\n        /* \"#utility.yul\":4644:4651   */\n      dup7\n        /* \"#utility.yul\":4640:4663   */\n      sub\n        /* \"#utility.yul\":4636:4668   */\n      slt\n        /* \"#utility.yul\":4633:4752   */\n      iszero\n      tag_424\n      jumpi\n        /* \"#utility.yul\":4671:4750   */\n      tag_425\n      tag_325\n      jump\t// in\n    tag_425:\n        /* \"#utility.yul\":4633:4752   */\n    tag_424:\n        /* \"#utility.yul\":4791:4792   */\n      0x00\n        /* \"#utility.yul\":4816:4869   */\n      tag_426\n        /* \"#utility.yul\":4861:4868   */\n      dup7\n        /* \"#utility.yul\":4852:4858   */\n      dup3\n        /* \"#utility.yul\":4841:4850   */\n      dup8\n        /* \"#utility.yul\":4837:4859   */\n      add\n        /* \"#utility.yul\":4816:4869   */\n      tag_335\n      jump\t// in\n    tag_426:\n        /* \"#utility.yul\":4806:4869   */\n      swap4\n      pop\n        /* \"#utility.yul\":4762:4879   */\n      pop\n        /* \"#utility.yul\":4946:4948   */\n      0x20\n        /* \"#utility.yul\":4935:4944   */\n      dup5\n        /* \"#utility.yul\":4931:4949   */\n      add\n        /* \"#utility.yul\":4918:4950   */\n      calldataload\n        /* \"#utility.yul\":4977:4995   */\n      0xffffffffffffffff\n        /* \"#utility.yul\":4969:4975   */\n      dup2\n        /* \"#utility.yul\":4966:4996   */\n      gt\n        /* \"#utility.yul\":4963:5080   */\n      iszero\n      tag_427\n      jumpi\n        /* \"#utility.yul\":4999:5078   */\n      tag_428\n      tag_326\n      jump\t// in\n    tag_428:\n        /* \"#utility.yul\":4963:5080   */\n    tag_427:\n        /* \"#utility.yul\":5104:5167   */\n      tag_429\n        /* \"#utility.yul\":5159:5166   */\n      dup7\n        /* \"#utility.yul\":5150:5156   */\n      dup3\n        /* \"#utility.yul\":5139:5148   */\n      dup8\n        /* \"#utility.yul\":5135:5157   */\n      add\n        /* \"#utility.yul\":5104:5167   */\n      tag_345\n      jump\t// in\n    tag_429:\n        /* \"#utility.yul\":5094:5167   */\n      swap3\n      pop\n        /* \"#utility.yul\":4889:5177   */\n      pop\n        /* \"#utility.yul\":5216:5218   */\n      0x40\n        /* \"#utility.yul\":5242:5295   */\n      tag_430\n        /* \"#utility.yul\":5287:5294   */\n      dup7\n        /* \"#utility.yul\":5278:5284   */\n      dup3\n        /* \"#utility.yul\":5267:5276   */\n      dup8\n        /* \"#utility.yul\":5263:5285   */\n      add\n        /* \"#utility.yul\":5242:5295   */\n      tag_335\n      jump\t// in\n    tag_430:\n        /* \"#utility.yul\":5232:5295   */\n      swap2\n      pop\n        /* \"#utility.yul\":5187:5305   */\n      pop\n        /* \"#utility.yul\":4513:5312   */\n      swap3\n      pop\n      swap3\n      pop\n      swap3\n      jump\t// out\n        /* \"#utility.yul\":5318:5792   */\n    tag_107:\n        /* \"#utility.yul\":5386:5392   */\n      0x00\n        /* \"#utility.yul\":5394:5400   */\n      dup1\n        /* \"#utility.yul\":5443:5445   */\n      0x40\n        /* \"#utility.yul\":5431:5440   */\n      dup4\n        /* \"#utility.yul\":5422:5429   */\n      dup6\n        /* \"#utility.yul\":5418:5441   */\n      sub\n        /* \"#utility.yul\":5414:5446   */\n      slt\n        /* \"#utility.yul\":5411:5530   */\n      iszero\n      tag_432\n      jumpi\n        /* \"#utility.yul\":5449:5528   */\n      tag_433\n      tag_325\n      jump\t// in\n    tag_433:\n        /* \"#utility.yul\":5411:5530   */\n    tag_432:\n        /* \"#utility.yul\":5569:5570   */\n      0x00\n        /* \"#utility.yul\":5594:5647   */\n      tag_434\n        /* \"#utility.yul\":5639:5646   */\n      dup6\n        /* \"#utility.yul\":5630:5636   */\n      dup3\n        /* \"#utility.yul\":5619:5628   */\n      dup7\n        /* \"#utility.yul\":5615:5637   */\n      add\n        /* \"#utility.yul\":5594:5647   */\n      tag_335\n      jump\t// in\n    tag_434:\n        /* \"#utility.yul\":5584:5647   */\n      swap3\n      pop\n        /* \"#utility.yul\":5540:5657   */\n      pop\n        /* \"#utility.yul\":5696:5698   */\n      0x20\n        /* \"#utility.yul\":5722:5775   */\n      tag_435\n        /* \"#utility.yul\":5767:5774   */\n      dup6\n        /* \"#utility.yul\":5758:5764   */\n      dup3\n        /* \"#utility.yul\":5747:5756   */\n      dup7\n        /* \"#utility.yul\":5743:5765   */\n      add\n        /* \"#utility.yul\":5722:5775   */\n      tag_335\n      jump\t// in\n    tag_435:\n        /* \"#utility.yul\":5712:5775   */\n      swap2\n      pop\n        /* \"#utility.yul\":5667:5785   */\n      pop\n        /* \"#utility.yul\":5318:5792   */\n      swap3\n      pop\n      swap3\n      swap1\n      pop\n      jump\t// out\n        /* \"#utility.yul\":5798:5978   */\n    tag_135:\n        /* \"#utility.yul\":5846:5923   */\n      0x4e487b7100000000000000000000000000000000000000000000000000000000\n        /* \"#utility.yul\":5843:5844   */\n      0x00\n        /* \"#utility.yul\":5836:5924   */\n      mstore\n        /* \"#utility.yul\":5943:5947   */\n      0x21\n        /* \"#utility.yul\":5940:5941   */\n      0x04\n        /* \"#utility.yul\":5933:5948   */\n      mstore\n        /* \"#utility.yul\":5967:5971   */\n      0x24\n        /* \"#utility.yul\":5964:5965   */\n      0x00\n        /* \"#utility.yul\":5957:5972   */\n      revert\n        /* \"#utility.yul\":5984:6102   */\n    tag_346:\n        /* \"#utility.yul\":6071:6095   */\n      tag_438\n        /* \"#utility.yul\":6089:6094   */\n      dup2\n        /* \"#utility.yul\":6071:6095   */\n      tag_333\n      jump\t// in\n    tag_438:\n        /* \"#utility.yul\":6066:6069   */\n      dup3\n        /* \"#utility.yul\":6059:6096   */\n      mstore\n        /* \"#utility.yul\":5984:6102   */\n      pop\n      pop\n      jump\t// out\n        /* \"#utility.yul\":6108:6330   */\n    tag_146:\n        /* \"#utility.yul\":6201:6205   */\n      0x00\n        /* \"#utility.yul\":6239:6241   */\n      0x20\n        /* \"#utility.yul\":6228:6237   */\n      dup3\n        /* \"#utility.yul\":6224:6242   */\n      add\n        /* \"#utility.yul\":6216:6242   */\n      swap1\n      pop\n        /* \"#utility.yul\":6252:6323   */\n      tag_440\n        /* \"#utility.yul\":6320:6321   */\n      0x00\n        /* \"#utility.yul\":6309:6318   */\n      dup4\n        /* \"#utility.yul\":6305:6322   */\n      add\n        /* \"#utility.yul\":6296:6302   */\n      dup5\n        /* \"#utility.yul\":6252:6323   */\n      tag_346\n      jump\t// in\n    tag_440:\n        /* \"#utility.yul\":6108:6330   */\n      swap3\n      swap2\n      pop\n      pop\n      jump\t// out\n        /* \"#utility.yul\":6336:6516   */\n    tag_347:\n        /* \"#utility.yul\":6384:6461   */\n      0x4e487b7100000000000000000000000000000000000000000000000000000000\n        /* \"#utility.yul\":6381:6382   */\n      0x00\n        /* \"#utility.yul\":6374:6462   */\n      mstore\n        /* \"#utility.yul\":6481:6485   */\n      0x11\n        /* \"#utility.yul\":6478:6479   */\n      0x04\n        /* \"#utility.yul\":6471:6486   */\n      mstore\n        /* \"#utility.yul\":6505:6509   */\n      0x24\n        /* \"#utility.yul\":6502:6503   */\n      0x00\n        /* \"#utility.yul\":6495:6510   */\n      revert\n        /* \"#utility.yul\":6522:6713   */\n    tag_220:\n        /* \"#utility.yul\":6562:6565   */\n      0x00\n        /* \"#utility.yul\":6581:6601   */\n      tag_443\n        /* \"#utility.yul\":6599:6600   */\n      dup3\n        /* \"#utility.yul\":6581:6601   */\n      tag_333\n      jump\t// in\n    tag_443:\n        /* \"#utility.yul\":6576:6601   */\n      swap2\n      pop\n        /* \"#utility.yul\":6615:6635   */\n      tag_444\n        /* \"#utility.yul\":6633:6634   */\n      dup4\n        /* \"#utility.yul\":6615:6635   */\n      tag_333\n      jump\t// in\n    tag_444:\n        /* \"#utility.yul\":6610:6635   */\n      swap3\n      pop\n        /* \"#utility.yul\":6658:6659   */\n      dup3\n        /* \"#utility.yul\":6655:6656   */\n      dup3\n        /* \"#utility.yul\":6651:6660   */\n      add\n        /* \"#utility.yul\":6644:6660   */\n      swap1\n      pop\n        /* \"#utility.yul\":6679:6682   */\n      dup1\n        /* \"#utility.yul\":6676:6677   */\n      dup3\n        /* \"#utility.yul\":6673:6683   */\n      gt\n        /* \"#utility.yul\":6670:6706   */\n      iszero\n      tag_445\n      jumpi\n        /* \"#utility.yul\":6686:6704   */\n      tag_446\n      tag_347\n      jump\t// in\n    tag_446:\n        /* \"#utility.yul\":6670:6706   */\n    tag_445:\n        /* \"#utility.yul\":6522:6713   */\n      swap3\n      swap2\n      pop\n      pop\n      jump\t// out\n        /* \"#utility.yul\":6719:6818   */\n    tag_348:\n        /* \"#utility.yul\":6771:6777   */\n      0x00\n        /* \"#utility.yul\":6805:6810   */\n      dup2\n        /* \"#utility.yul\":6799:6811   */\n      mload\n        /* \"#utility.yul\":6789:6811   */\n      swap1\n      pop\n        /* \"#utility.yul\":6719:6818   */\n      swap2\n      swap1\n      pop\n      jump\t// out\n        /* \"#utility.yul\":6824:7004   */\n    tag_349:\n        /* \"#utility.yul\":6872:6949   */\n      0x4e487b7100000000000000000000000000000000000000000000000000000000\n        /* \"#utility.yul\":6869:6870   */\n      0x00\n        /* \"#utility.yul\":6862:6950   */\n      mstore\n        /* \"#utility.yul\":6969:6973   */\n      0x22\n        /* \"#utility.yul\":6966:6967   */\n      0x04\n        /* \"#utility.yul\":6959:6974   */\n      mstore\n        /* \"#utility.yul\":6993:6997   */\n      0x24\n        /* \"#utility.yul\":6990:6991   */\n      0x00\n        /* \"#utility.yul\":6983:6998   */\n      revert\n        /* \"#utility.yul\":7010:7330   */\n    tag_350:\n        /* \"#utility.yul\":7054:7060   */\n      0x00\n        /* \"#utility.yul\":7091:7092   */\n      0x02\n        /* \"#utility.yul\":7085:7089   */\n      dup3\n        /* \"#utility.yul\":7081:7093   */\n      div\n        /* \"#utility.yul\":7071:7093   */\n      swap1\n      pop\n        /* \"#utility.yul\":7138:7139   */\n      0x01\n        /* \"#utility.yul\":7132:7136   */\n      dup3\n        /* \"#utility.yul\":7128:7140   */\n      and\n        /* \"#utility.yul\":7159:7177   */\n      dup1\n        /* \"#utility.yul\":7149:7230   */\n      tag_450\n      jumpi\n        /* \"#utility.yul\":7215:7219   */\n      0x7f\n        /* \"#utility.yul\":7207:7213   */\n      dup3\n        /* \"#utility.yul\":7203:7220   */\n      and\n        /* \"#utility.yul\":7193:7220   */\n      swap2\n      pop\n        /* \"#utility.yul\":7149:7230   */\n    tag_450:\n        /* \"#utility.yul\":7277:7279   */\n      0x20\n        /* \"#utility.yul\":7269:7275   */\n      dup3\n        /* \"#utility.yul\":7266:7280   */\n      lt\n        /* \"#utility.yul\":7246:7264   */\n      dup2\n        /* \"#utility.yul\":7243:7281   */\n      sub\n        /* \"#utility.yul\":7240:7324   */\n      tag_451\n      jumpi\n        /* \"#utility.yul\":7296:7314   */\n      tag_452\n      tag_349\n      jump\t// in\n    tag_452:\n        /* \"#utility.yul\":7240:7324   */\n    tag_451:\n        /* \"#utility.yul\":7061:7330   */\n      pop\n        /* \"#utility.yul\":7010:7330   */\n      swap2\n      swap1\n      pop\n      jump\t// out\n        /* \"#utility.yul\":7336:7477   */\n    tag_351:\n        /* \"#utility.yul\":7385:7389   */\n      0x00\n        /* \"#utility.yul\":7408:7411   */\n      dup2\n        /* \"#utility.yul\":7400:7411   */\n      swap1\n      pop\n        /* \"#utility.yul\":7431:7434   */\n      dup2\n        /* \"#utility.yul\":7428:7429   */\n      0x00\n        /* \"#utility.yul\":7421:7435   */\n      mstore\n        /* \"#utility.yul\":7465:7469   */\n      0x20\n        /* \"#utility.yul\":7462:7463   */\n      0x00\n        /* \"#utility.yul\":7452:7470   */\n      keccak256\n        /* \"#utility.yul\":7444:7470   */\n      swap1\n      pop\n        /* \"#utility.yul\":7336:7477   */\n      swap2\n      swap1\n      pop\n      jump\t// out\n        /* \"#utility.yul\":7483:7576   */\n    tag_352:\n        /* \"#utility.yul\":7520:7526   */\n      0x00\n        /* \"#utility.yul\":7567:7569   */\n      0x20\n        /* \"#utility.yul\":7562:7564   */\n      0x1f\n        /* \"#utility.yul\":7555:7560   */\n      dup4\n        /* \"#utility.yul\":7551:7565   */\n      add\n        /* \"#utility.yul\":7547:7570   */\n      div\n        /* \"#utility.yul\":7537:7570   */\n      swap1\n      pop\n        /* \"#utility.yul\":7483:7576   */\n      swap2\n      swap1\n      pop\n      jump\t// out\n        /* \"#utility.yul\":7582:7689   */\n    tag_353:\n        /* \"#utility.yul\":7626:7634   */\n      0x00\n        /* \"#utility.yul\":7676:7681   */\n      dup3\n        /* \"#utility.yul\":7670:7674   */\n      dup3\n        /* \"#utility.yul\":7666:7682   */\n      shl\n        /* \"#utility.yul\":7645:7682   */\n      swap1\n      pop\n        /* \"#utility.yul\":7582:7689   */\n      swap3\n      swap2\n      pop\n      pop\n      jump\t// out\n        /* \"#utility.yul\":7695:8088   */\n    tag_354:\n        /* \"#utility.yul\":7764:7770   */\n      0x00\n        /* \"#utility.yul\":7814:7815   */\n      0x08\n        /* \"#utility.yul\":7802:7812   */\n      dup4\n        /* \"#utility.yul\":7798:7816   */\n      mul\n        /* \"#utility.yul\":7837:7934   */\n      tag_457\n        /* \"#utility.yul\":7867:7933   */\n      0xffffffffffffffffffffffffffffffffffffffffffffffffffffffffffffffff\n        /* \"#utility.yul\":7856:7865   */\n      dup3\n        /* \"#utility.yul\":7837:7934   */\n      tag_353\n      jump\t// in\n    tag_457:\n        /* \"#utility.yul\":7955:7994   */\n      tag_458\n        /* \"#utility.yul\":7985:7993   */\n      dup7\n        /* \"#utility.yul\":7974:7983   */\n      dup4\n        /* \"#utility.yul\":7955:7994   */\n      tag_353\n      jump\t// in\n    tag_458:\n        /* \"#utility.yul\":7943:7994   */\n      swap6\n      pop\n        /* \"#utility.yul\":8027:8031   */\n      dup1\n        /* \"#utility.yul\":8023:8032   */\n      not\n        /* \"#utility.yul\":8016:8021   */\n      dup5\n        /* \"#utility.yul\":8012:8033   */\n      and\n        /* \"#utility.yul\":8003:8033   */\n      swap4\n      pop\n        /* \"#utility.yul\":8076:8080   */\n      dup1\n        /* \"#utility.yul\":8066:8074   */\n      dup7\n        /* \"#utility.yul\":8062:8081   */\n      and\n        /* \"#utility.yul\":8055:8060   */\n      dup5\n        /* \"#utility.yul\":8052:8082   */\n      or\n        /* \"#utility.yul\":8042:8082   */\n      swap3\n      pop\n        /* \"#utility.yul\":7771:8088   */\n      pop\n      pop\n        /* \"#utility.yul\":7695:8088   */\n      swap4\n      swap3\n      pop\n      pop\n      pop\n      jump\t// out\n        /* \"#utility.yul\":8094:8154   */\n    tag_355:\n        /* \"#utility.yul\":8122:8125   */\n      0x00\n        /* \"#utility.yul\":8143:8148   */\n      dup2\n        /* \"#utility.yul\":8136:8148   */\n      swap1\n      pop\n        /* \"#utility.yul\":8094:8154   */\n      swap2\n      swap1\n      pop\n      jump\t// out\n        /* \"#utility.yul\":8160:8302   */\n    tag_356:\n        /* \"#utility.yul\":8210:8219   */\n      0x00\n        /* \"#utility.yul\":8243:8296   */\n      tag_461\n        /* \"#utility.yul\":8261:8295   */\n      tag_462\n        /* \"#utility.yul\":8270:8294   */\n      tag_463\n        /* \"#utility.yul\":8288:8293   */\n      dup5\n        /* \"#utility.yul\":8270:8294   */\n      tag_333\n      jump\t// in\n    tag_463:\n        /* \"#utility.yul\":8261:8295   */\n      tag_355\n      jump\t// in\n    tag_462:\n        /* \"#utility.yul\":8243:8296   */\n      tag_333\n      jump\t// in\n    tag_461:\n        /* \"#utility.yul\":8230:8296   */\n      swap1\n      pop\n        /* \"#utility.yul\":8160:8302   */\n      swap2\n      swap1\n      pop\n      jump\t// out\n        /* \"#utility.yul\":8308:8383   */\n    tag_357:\n        /* \"#utility.yul\":8351:8354   */\n      0x00\n        /* \"#utility.yul\":8372:8377   */\n      dup2\n        /* \"#utility.yul\":8365:8377   */\n      swap1\n      pop\n        /* \"#utility.yul\":8308:8383   */\n      swap2\n      swap1\n      pop\n      jump\t// out\n        /* \"#utility.yul\":8389:8658   */\n    tag_358:\n        /* \"#utility.yul\":8499:8538   */\n      tag_466\n        /* \"#utility.yul\":8530:8537   */\n      dup4\n        /* \"#utility.yul\":8499:8538   */\n      tag_356\n      jump\t// in\n    tag_466:\n        /* \"#utility.yul\":8560:8651   */\n      tag_467\n        /* \"#utility.yul\":8609:8650   */\n      tag_468\n        /* \"#utility.yul\":8633:8649   */\n      dup3\n        /* \"#utility.yul\":8609:8650   */\n      tag_357\n      jump\t// in\n    tag_468:\n        /* \"#utility.yul\":8601:8607   */\n      dup5\n        /* \"#utility.yul\":8594:8598   */\n      dup5\n        /* \"#utility.yul\":8588:8599   */\n      sload\n        /* \"#utility.yul\":8560:8651   */\n      tag_354\n      jump\t// in\n    tag_467:\n        /* \"#utility.yul\":8554:8558   */\n      dup3\n        /* \"#utility.yul\":8547:8652   */\n      sstore\n        /* \"#utility.yul\":8465:8658   */\n      pop\n        /* \"#utility.yul\":8389:8658   */\n      pop\n      pop\n      pop\n      jump\t// out\n        /* \"#utility.yul\":8664:8737   */\n    tag_359:\n        /* \"#utility.yul\":8709:8712   */\n      0x00\n        /* \"#utility.yul\":8664:8737   */\n      swap1\n      jump\t// out\n        /* \"#utility.yul\":8743:8932   */\n    tag_360:\n        /* \"#utility.yul\":8820:8852   */\n      tag_471\n      tag_359\n      jump\t// in\n    tag_471:\n        /* \"#utility.yul\":8861:8926   */\n      tag_472\n        /* \"#utility.yul\":8919:8925   */\n      dup2\n        /* \"#utility.yul\":8911:8917   */\n      dup5\n        /* \"#utility.yul\":8905:8909   */\n      dup5\n        /* \"#utility.yul\":8861:8926   */\n      tag_358\n      jump\t// in\n    tag_472:\n        /* \"#utility.yul\":8796:8932   */\n      pop\n        /* \"#utility.yul\":8743:8932   */\n      pop\n      pop\n      jump\t// out\n        /* \"#utility.yul\":8938:9124   */\n    tag_361:\n        /* \"#utility.yul\":8998:9118   */\n    tag_474:\n        /* \"#utility.yul\":9015:9018   */\n      dup2\n        /* \"#utility.yul\":9008:9013   */\n      dup2\n        /* \"#utility.yul\":9005:9019   */\n      lt\n        /* \"#utility.yul\":8998:9118   */\n      iszero\n      tag_476\n      jumpi\n        /* \"#utility.yul\":9069:9108   */\n      tag_477\n        /* \"#utility.yul\":9106:9107   */\n      0x00\n        /* \"#utility.yul\":9099:9104   */\n      dup3\n        /* \"#utility.yul\":9069:9108   */\n      tag_360\n      jump\t// in\n    tag_477:\n        /* \"#utility.yul\":9042:9043   */\n      0x01\n        /* \"#utility.yul\":9035:9040   */\n      dup2\n        /* \"#utility.yul\":9031:9044   */\n      add\n        /* \"#utility.yul\":9022:9044   */\n      swap1\n      pop\n        /* \"#utility.yul\":8998:9118   */\n      jump(tag_474)\n    tag_476:\n        /* \"#utility.yul\":8938:9124   */\n      pop\n      pop\n      jump\t// out\n        /* \"#utility.yul\":9130:9673   */\n    tag_362:\n        /* \"#utility.yul\":9231:9233   */\n      0x1f\n        /* \"#utility.yul\":9226:9229   */\n      dup3\n        /* \"#utility.yul\":9223:9234   */\n      gt\n        /* \"#utility.yul\":9220:9666   */\n      iszero\n      tag_479\n      jumpi\n        /* \"#utility.yul\":9265:9303   */\n      tag_480\n        /* \"#utility.yul\":9297:9302   */\n      dup2\n        /* \"#utility.yul\":9265:9303   */\n      tag_351\n      jump\t// in\n    tag_480:\n        /* \"#utility.yul\":9349:9378   */\n      tag_481\n        /* \"#utility.yul\":9367:9377   */\n      dup5\n        /* \"#utility.yul\":9349:9378   */\n      tag_352\n      jump\t// in\n    tag_481:\n        /* \"#utility.yul\":9339:9347   */\n      dup2\n        /* \"#utility.yul\":9335:9379   */\n      add\n        /* \"#utility.yul\":9532:9534   */\n      0x20\n        /* \"#utility.yul\":9520:9530   */\n      dup6\n        /* \"#utility.yul\":9517:9535   */\n      lt\n        /* \"#utility.yul\":9514:9563   */\n      iszero\n      tag_482\n      jumpi\n        /* \"#utility.yul\":9553:9561   */\n      dup2\n        /* \"#utility.yul\":9538:9561   */\n      swap1\n      pop\n        /* \"#utility.yul\":9514:9563   */\n    tag_482:\n        /* \"#utility.yul\":9576:9656   */\n      tag_483\n        /* \"#utility.yul\":9632:9654   */\n      tag_484\n        /* \"#utility.yul\":9650:9653   */\n      dup6\n        /* \"#utility.yul\":9632:9654   */\n      tag_352\n      jump\t// in\n    tag_484:\n        /* \"#utility.yul\":9622:9630   */\n      dup4\n        /* \"#utility.yul\":9618:9655   */\n      add\n        /* \"#utility.yul\":9605:9616   */\n      dup3\n        /* \"#utility.yul\":9576:9656   */\n      tag_361\n      jump\t// in\n    tag_483:\n        /* \"#utility.yul\":9235:9666   */\n      pop\n      pop\n        /* \"#utility.yul\":9220:9666   */\n    tag_479:\n        /* \"#utility.yul\":9130:9673   */\n      pop\n      pop\n      pop\n      jump\t// out\n        /* \"#utility.yul\":9679:9796   */\n    tag_363:\n        /* \"#utility.yul\":9733:9741   */\n      0x00\n        /* \"#utility.yul\":9783:9788   */\n      dup3\n        /* \"#utility.yul\":9777:9781   */\n      dup3\n        /* \"#utility.yul\":9773:9789   */\n      shr\n        /* \"#utility.yul\":9752:9789   */\n      swap1\n      pop\n        /* \"#utility.yul\":9679:9796   */\n      swap3\n      swap2\n      pop\n      pop\n      jump\t// out\n        /* \"#utility.yul\":9802:9971   */\n    tag_364:\n        /* \"#utility.yul\":9846:9852   */\n      0x00\n        /* \"#utility.yul\":9879:9930   */\n      tag_487\n        /* \"#utility.yul\":9927:9928   */\n      0x00\n        /* \"#utility.yul\":9923:9929   */\n      not\n        /* \"#utility.yul\":9915:9920   */\n      dup5\n        /* \"#utility.yul\":9912:9913   */\n      0x08\n        /* \"#utility.yul\":9908:9921   */\n      mul\n        /* \"#utility.yul\":9879:9930   */\n      tag_363\n      jump\t// in\n    tag_487:\n        /* \"#utility.yul\":9875:9931   */\n      not\n        /* \"#utility.yul\":9960:9964   */\n      dup1\n        /* \"#utility.yul\":9954:9958   */\n      dup4\n        /* \"#utility.yul\":9950:9965   */\n      and\n        /* \"#utility.yul\":9940:9965   */\n      swap2\n      pop\n        /* \"#utility.yul\":9853:9971   */\n      pop\n        /* \"#utility.yul\":9802:9971   */\n      swap3\n      swap2\n      pop\n      pop\n      jump\t// out\n        /* \"#utility.yul\":9976:10271   */\n    tag_365:\n        /* \"#utility.yul\":10052:10056   */\n      0x00\n        /* \"#utility.yul\":10198:10227   */\n      tag_489\n        /* \"#utility.yul\":10223:10226   */\n      dup4\n        /* \"#utility.yul\":10217:10221   */\n      dup4\n        /* \"#utility.yul\":10198:10227   */\n      tag_364\n      jump\t// in\n    tag_489:\n        /* \"#utility.yul\":10190:10227   */\n      swap2\n      pop\n        /* \"#utility.yul\":10260:10263   */\n      dup3\n        /* \"#utility.yul\":10257:10258   */\n      0x02\n        /* \"#utility.yul\":10253:10264   */\n      mul\n        /* \"#utility.yul\":10247:10251   */\n      dup3\n        /* \"#utility.yul\":10244:10265   */\n      or\n        /* \"#utility.yul\":10236:10265   */\n      swap1\n      pop\n        /* \"#utility.yul\":9976:10271   */\n      swap3\n      swap2\n      pop\n      pop\n      jump\t// out\n        /* \"#utility.yul\":10276:11671   */\n    tag_226:\n        /* \"#utility.yul\":10393:10430   */\n      tag_491\n        /* \"#utility.yul\":10426:10429   */\n      dup3\n        /* \"#utility.yul\":10393:10430   */\n      tag_348\n      jump\t// in\n    tag_491:\n        /* \"#utility.yul\":10495:10513   */\n      0xffffffffffffffff\n        /* \"#utility.yul\":10487:10493   */\n      dup2\n        /* \"#utility.yul\":10484:10514   */\n      gt\n        /* \"#utility.yul\":10481:10537   */\n      iszero\n      tag_492\n      jumpi\n        /* \"#utility.yul\":10517:10535   */\n      tag_493\n      tag_339\n      jump\t// in\n    tag_493:\n        /* \"#utility.yul\":10481:10537   */\n    tag_492:\n        /* \"#utility.yul\":10561:10599   */\n      tag_494\n        /* \"#utility.yul\":10593:10597   */\n      dup3\n        /* \"#utility.yul\":10587:10598   */\n      sload\n        /* \"#utility.yul\":10561:10599   */\n      tag_350\n      jump\t// in\n    tag_494:\n        /* \"#utility.yul\":10646:10713   */\n      tag_495\n        /* \"#utility.yul\":10706:10712   */\n      dup3\n        /* \"#utility.yul\":10698:10704   */\n      dup3\n        /* \"#utility.yul\":10692:10696   */\n      dup6\n        /* \"#utility.yul\":10646:10713   */\n      tag_362\n      jump\t// in\n    tag_495:\n        /* \"#utility.yul\":10740:10741   */\n      0x00\n        /* \"#utility.yul\":10764:10768   */\n      0x20\n        /* \"#utility.yul\":10751:10768   */\n      swap1\n      pop\n        /* \"#utility.yul\":10796:10798   */\n      0x1f\n        /* \"#utility.yul\":10788:10794   */\n      dup4\n        /* \"#utility.yul\":10785:10799   */\n      gt\n        /* \"#utility.yul\":10813:10814   */\n      0x01\n        /* \"#utility.yul\":10808:11426   */\n      dup2\n      eq\n      tag_497\n      jumpi\n        /* \"#utility.yul\":11470:11471   */\n      0x00\n        /* \"#utility.yul\":11487:11493   */\n      dup5\n        /* \"#utility.yul\":11484:11561   */\n      iszero\n      tag_498\n      jumpi\n        /* \"#utility.yul\":11536:11545   */\n      dup3\n        /* \"#utility.yul\":11531:11534   */\n      dup8\n        /* \"#utility.yul\":11527:11546   */\n      add\n        /* \"#utility.yul\":11521:11547   */\n      mload\n        /* \"#utility.yul\":11512:11547   */\n      swap1\n      pop\n        /* \"#utility.yul\":11484:11561   */\n    tag_498:\n        /* \"#utility.yul\":11587:11654   */\n      tag_499\n        /* \"#utility.yul\":11647:11653   */\n      dup6\n        /* \"#utility.yul\":11640:11645   */\n      dup3\n        /* \"#utility.yul\":11587:11654   */\n      tag_365\n      jump\t// in\n    tag_499:\n        /* \"#utility.yul\":11581:11585   */\n      dup7\n        /* \"#utility.yul\":11574:11655   */\n      sstore\n        /* \"#utility.yul\":11443:11665   */\n      pop\n        /* \"#utility.yul\":10778:11665   */\n      jump(tag_496)\n        /* \"#utility.yul\":10808:11426   */\n    tag_497:\n        /* \"#utility.yul\":10860:10864   */\n      0x1f\n        /* \"#utility.yul\":10856:10865   */\n      not\n        /* \"#utility.yul\":10848:10854   */\n      dup5\n        /* \"#utility.yul\":10844:10866   */\n      and\n        /* \"#utility.yul\":10894:10931   */\n      tag_500\n        /* \"#utility.yul\":10926:10930   */\n      dup7\n        /* \"#utility.yul\":10894:10931   */\n      tag_351\n      jump\t// in\n    tag_500:\n        /* \"#utility.yul\":10953:10954   */\n      0x00\n        /* \"#utility.yul\":10967:11175   */\n    tag_501:\n        /* \"#utility.yul\":10981:10988   */\n      dup3\n        /* \"#utility.yul\":10978:10979   */\n      dup2\n        /* \"#utility.yul\":10975:10989   */\n      lt\n        /* \"#utility.yul\":10967:11175   */\n      iszero\n      tag_503\n      jumpi\n        /* \"#utility.yul\":11060:11069   */\n      dup5\n        /* \"#utility.yul\":11055:11058   */\n      dup10\n        /* \"#utility.yul\":11051:11070   */\n      add\n        /* \"#utility.yul\":11045:11071   */\n      mload\n        /* \"#utility.yul\":11037:11043   */\n      dup3\n        /* \"#utility.yul\":11030:11072   */\n      sstore\n        /* \"#utility.yul\":11111:11112   */\n      0x01\n        /* \"#utility.yul\":11103:11109   */\n      dup3\n        /* \"#utility.yul\":11099:11113   */\n      add\n        /* \"#utility.yul\":11089:11113   */\n      swap2\n      pop\n        /* \"#utility.yul\":11158:11160   */\n      0x20\n        /* \"#utility.yul\":11147:11156   */\n      dup6\n        /* \"#utility.yul\":11143:11161   */\n      add\n        /* \"#utility.yul\":11130:11161   */\n      swap5\n      pop\n        /* \"#utility.yul\":11004:11008   */\n      0x20\n        /* \"#utility.yul\":11001:11002   */\n      dup2\n        /* \"#utility.yul\":10997:11009   */\n      add\n        /* \"#utility.yul\":10992:11009   */\n      swap1\n      pop\n        /* \"#utility.yul\":10967:11175   */\n      jump(tag_501)\n    tag_503:\n        /* \"#utility.yul\":11203:11209   */\n      dup7\n        /* \"#utility.yul\":11194:11201   */\n      dup4\n        /* \"#utility.yul\":11191:11210   */\n      lt\n        /* \"#utility.yul\":11188:11367   */\n      iszero\n      tag_504\n      jumpi\n        /* \"#utility.yul\":11261:11270   */\n      dup5\n        /* \"#utility.yul\":11256:11259   */\n      dup10\n        /* \"#utility.yul\":11252:11271   */\n      add\n        /* \"#utility.yul\":11246:11272   */\n      mload\n        /* \"#utility.yul\":11304:11352   */\n      tag_505\n        /* \"#utility.yul\":11346:11350   */\n      0x1f\n        /* \"#utility.yul\":11338:11344   */\n      dup10\n        /* \"#utility.yul\":11334:11351   */\n      and\n        /* \"#utility.yul\":11323:11332   */\n      dup3\n        /* \"#utility.yul\":11304:11352   */\n      tag_364\n      jump\t// in\n    tag_505:\n        /* \"#utility.yul\":11296:11302   */\n      dup4\n        /* \"#utility.yul\":11289:11353   */\n      sstore\n        /* \"#utility.yul\":11211:11367   */\n      pop\n        /* \"#utility.yul\":11188:11367   */\n    tag_504:\n        /* \"#utility.yul\":11413:11414   */\n      0x01\n        /* \"#utility.yul\":11409:11410   */\n      0x02\n        /* \"#utility.yul\":11401:11407   */\n      dup9\n        /* \"#utility.yul\":11397:11411   */\n      mul\n        /* \"#utility.yul\":11393:11415   */\n      add\n        /* \"#utility.yul\":11387:11391   */\n      dup9\n        /* \"#utility.yul\":11380:11416   */\n      sstore\n        /* \"#utility.yul\":10815:11426   */\n      pop\n      pop\n      pop\n        /* \"#utility.yul\":10778:11665   */\n    tag_496:\n      pop\n        /* \"#utility.yul\":10368:11671   */\n      pop\n      pop\n      pop\n        /* \"#utility.yul\":10276:11671   */\n      pop\n      pop\n      jump\t// out\n        /* \"#utility.yul\":11677:11910   */\n    tag_232:\n        /* \"#utility.yul\":11716:11719   */\n      0x00\n        /* \"#utility.yul\":11739:11763   */\n      tag_507\n        /* \"#utility.yul\":11757:11762   */\n      dup3\n        /* \"#utility.yul\":11739:11763   */\n      tag_333\n      jump\t// in\n    tag_507:\n        /* \"#utility.yul\":11730:11763   */\n      swap2\n      pop\n        /* \"#utility.yul\":11785:11851   */\n      0xffffffffffffffffffffffffffffffffffffffffffffffffffffffffffffffff\n        /* \"#utility.yul\":11778:11783   */\n      dup3\n        /* \"#utility.yul\":11775:11852   */\n      sub\n        /* \"#utility.yul\":11772:11875   */\n      tag_508\n      jumpi\n        /* \"#utility.yul\":11855:11873   */\n      tag_509\n      tag_347\n      jump\t// in\n    tag_509:\n        /* \"#utility.yul\":11772:11875   */\n    tag_508:\n        /* \"#utility.yul\":11902:11903   */\n      0x01\n        /* \"#utility.yul\":11895:11900   */\n      dup3\n        /* \"#utility.yul\":11891:11904   */\n      add\n        /* \"#utility.yul\":11884:11904   */\n      swap1\n      pop\n        /* \"#utility.yul\":11677:11910   */\n      swap2\n      swap1\n      pop\n      jump\t// out\n        /* \"#utility.yul\":11916:12110   */\n    tag_277:\n        /* \"#utility.yul\":11956:11960   */\n      0x00\n        /* \"#utility.yul\":11976:11996   */\n      tag_511\n        /* \"#utility.yul\":11994:11995   */\n      dup3\n        /* \"#utility.yul\":11976:11996   */\n      tag_333\n      jump\t// in\n    tag_511:\n        /* \"#utility.yul\":11971:11996   */\n      swap2\n      pop\n        /* \"#utility.yul\":12010:12030   */\n      tag_512\n        /* \"#utility.yul\":12028:12029   */\n      dup4\n        /* \"#utility.yul\":12010:12030   */\n      tag_333\n      jump\t// in\n    tag_512:\n        /* \"#utility.yul\":12005:12030   */\n      swap3\n      pop\n        /* \"#utility.yul\":12054:12055   */\n      dup3\n        /* \"#utility.yul\":12051:12052   */\n      dup3\n        /* \"#utility.yul\":12047:12056   */\n      sub\n        /* \"#utility.yul\":12039:12056   */\n      swap1\n      pop\n        /* \"#utility.yul\":12078:12079   */\n      dup2\n        /* \"#utility.yul\":12072:12076   */\n      dup2\n        /* \"#utility.yul\":12069:12080   */\n      gt\n        /* \"#utility.yul\":12066:12103   */\n      iszero\n      tag_513\n      jumpi\n        /* \"#utility.yul\":12083:12101   */\n      tag_514\n      tag_347\n      jump\t// in\n    tag_514:\n        /* \"#utility.yul\":12066:12103   */\n    tag_513:\n        /* \"#utility.yul\":11916:12110   */\n      swap3\n      swap2\n      pop\n      pop\n      jump\t// out\n\n    auxdata: 0xa2646970667358221220f1a38923a5a67d5d66490ce4cd8a37728064a2ce9b75f6a922c34c54b5c1b8ac64736f6c63430008120033\n}\n",
				"bytecode": {
					"linkReferences": {},
					"object": "608060405262000024620000186200010a60201b60201c565b6200011260201b60201c565b62000044620000386200010a60201b60201c565b6200017360201b60201c565b62000064620000586200010a60201b60201c565b620001d460201b60201c565b62000084620000786200010a60201b60201c565b6200023560201b60201c565b620000a4620000986200010a60201b60201c565b6200029660201b60201c565b620000b46200010a60201b60201c565b600560006101000a81548173ffffffffffffffffffffffffffffffffffffffff021916908373ffffffffffffffffffffffffffffffffffffffff160217905550600160078190555060016006819055506200043e565b600033905090565b6200012d816000620002f760201b620013051790919060201c565b8073ffffffffffffffffffffffffffffffffffffffff167f561138658ca49a8540dc70dcfe64c9026c1c5b9344642242dd6562970f9c127860405160405180910390a250565b6200018e816001620002f760201b620013051790919060201c565b8073ffffffffffffffffffffffffffffffffffffffff167fddbf200aa634dc3fb81cfd68583dd1040d1c751d335e1d86b631bde3e977fea860405160405180910390a250565b620001ef816002620002f760201b620013051790919060201c565b8073ffffffffffffffffffffffffffffffffffffffff167fd8a7ad7929975a375d2b12bf49040286b5b105df0fe351f10df6d85e5b7142f760405160405180910390a250565b62000250816003620002f760201b620013051790919060201c565b8073ffffffffffffffffffffffffffffffffffffffff167f71ae26cad02663e3d92efd6ec56031a80d74a20c0ab4183faa8bf262261c9baa60405160405180910390a250565b620002b1816004620002f760201b620013051790919060201c565b8073ffffffffffffffffffffffffffffffffffffffff167f28b26e7a3d20aedbc5f8f2ebf7da671c0491723a2b78f47a097b0e46dee0714260405160405180910390a250565b600073ffffffffffffffffffffffffffffffffffffffff168173ffffffffffffffffffffffffffffffffffffffff16036200033157600080fd5b620003438282620003ac60201b60201c565b156200034e57600080fd5b60018260000160008373ffffffffffffffffffffffffffffffffffffffff1673ffffffffffffffffffffffffffffffffffffffff16815260200190815260200160002060006101000a81548160ff0219169083151502179055505050565b60008073ffffffffffffffffffffffffffffffffffffffff168273ffffffffffffffffffffffffffffffffffffffff1603620003e757600080fd5b8260000160008373ffffffffffffffffffffffffffffffffffffffff1673ffffffffffffffffffffffffffffffffffffffff16815260200190815260200160002060009054906101000a900460ff16905092915050565b612132806200044e6000396000f3fe60806040526004361061012a5760003560e01c806371f3ff90116100ab5780638f0c86fa1161006f5780638f0c86fa1461037f578063ad88bac8146103bc578063de63bdb9146103e5578063e34d7a071461040e578063e618f00014610425578063fdcdc06f1461044e5761012a565b806371f3ff90146102bd5780637250e224146102d9578063834ff739146103025780638b828a081461033f5780638ec4f505146103565761012a565b806341c0e1b5116100f257806341c0e1b5146101ec5780634ea90d2d146102035780635da09b881461021a5780635f8a5afa1461025757806364d1ba1f146102805761012a565b8063070ef9871461012f578063112940f91461014657806317d4a4911461016f57806324cb1669146101ac5780633496c175146101d5575b600080fd5b34801561013b57600080fd5b5061014461046a565b005b34801561015257600080fd5b5061016d60048036038101906101689190611a20565b61047c565b005b34801561017b57600080fd5b5061019660048036038101906101919190611a20565b6104a1565b6040516101a39190611a68565b60405180910390f35b3480156101b857600080fd5b506101d360048036038101906101ce9190611ab9565b6104be565b005b3480156101e157600080fd5b506101ea61061d565b005b3480156101f857600080fd5b5061020161062f565b005b34801561020f57600080fd5b506102186106d5565b005b34801561022657600080fd5b50610241600480360381019061023c9190611a20565b6106e7565b60405161024e9190611a68565b60405180910390f35b34801561026357600080fd5b5061027e60048036038101906102799190611a20565b610704565b005b34801561028c57600080fd5b506102a760048036038101906102a29190611a20565b610729565b6040516102b49190611a68565b60405180910390f35b6102d760048036038101906102d29190611ab9565b610746565b005b3480156102e557600080fd5b5061030060048036038101906102fb9190611a20565b6108a7565b005b34801561030e57600080fd5b5061032960048036038101906103249190611a20565b6108cc565b6040516103369190611a68565b60405180910390f35b34801561034b57600080fd5b506103546108e9565b005b34801561036257600080fd5b5061037d60048036038101906103789190611a20565b6108fb565b005b34801561038b57600080fd5b506103a660048036038101906103a19190611a20565b610920565b6040516103b39190611a68565b60405180910390f35b3480156103c857600080fd5b506103e360048036038101906103de9190611c2c565b61093d565b005b3480156103f157600080fd5b5061040c60048036038101906104079190611a20565b610e53565b005b34801561041a57600080fd5b50610423610e78565b005b34801561043157600080fd5b5061044c60048036038101906104479190611c9b565b610e8a565b005b61046860048036038101906104639190611ab9565b611005565b005b61047a6104756113b0565b6113b8565b565b61048c6104876113b0565b6108cc565b61049557600080fd5b61049e81611412565b50565b60006104b782600061146c90919063ffffffff16565b9050919050565b6104ce6104c96113b0565b610920565b6104d757600080fd5b806007600d8111156104ec576104eb611cdb565b5b6008600083815260200190815260200160002060060160009054906101000a900460ff16600d81111561052257610521611cdb565b5b1461052c57600080fd5b6008600083815260200190815260200160002060020160009054906101000a900473ffffffffffffffffffffffffffffffffffffffff168073ffffffffffffffffffffffffffffffffffffffff166105826113b0565b73ffffffffffffffffffffffffffffffffffffffff16146105a257600080fd5b60046008600085815260200190815260200160002060060160006101000a81548160ff0219169083600d8111156105dc576105db611cdb565b5b02179055507fc8ca2150e6e1849a10ef5aa4932060fa353bcacdffeb150c9e1890c6ab9403cc836040516106109190611d19565b60405180910390a1505050565b61062d6106286113b0565b6114fd565b565b600560009054906101000a900473ffffffffffffffffffffffffffffffffffffffff1673ffffffffffffffffffffffffffffffffffffffff166106706113b0565b73ffffffffffffffffffffffffffffffffffffffff16036106d35760006106b8600560009054906101000a900473ffffffffffffffffffffffffffffffffffffffff16611557565b90508073ffffffffffffffffffffffffffffffffffffffff16ff5b565b6106e56106e06113b0565b611561565b565b60006106fd82600361146c90919063ffffffff16565b9050919050565b61071461070f6113b0565b6104a1565b61071d57600080fd5b610726816115bb565b50565b600061073f82600261146c90919063ffffffff16565b9050919050565b6107566107516113b0565b6104a1565b61075f57600080fd5b806002600d81111561077457610773611cdb565b5b6008600083815260200190815260200160002060060160009054906101000a900460ff16600d8111156107aa576107a9611cdb565b5b146107b457600080fd5b6008600083815260200190815260200160002060030160009054906101000a900473ffffffffffffffffffffffffffffffffffffffff168073ffffffffffffffffffffffffffffffffffffffff1661080a6113b0565b73ffffffffffffffffffffffffffffffffffffffff161461082a57600080fd5b60036008600085815260200190815260200160002060060160006101000a81548160ff0219169083600d81111561086457610863611cdb565b5b02179055507f25727bef8a186dd95a062151451f2d651551b53124c18208d7653b1217ae31ba60065460405161089a9190611d19565b60405180910390a1505050565b6108b76108b26113b0565b610920565b6108c057600080fd5b6108c981611615565b50565b60006108e282600461146c90919063ffffffff16565b9050919050565b6108f96108f46113b0565b61166f565b565b61090b6109066113b0565b6106e7565b61091457600080fd5b61091d816116c9565b50565b600061093682600161146c90919063ffffffff16565b9050919050565b61094d6109486113b0565b6104a1565b61095657600080fd5b6000806000806000610966611881565b61096e6113b0565b816060019073ffffffffffffffffffffffffffffffffffffffff16908173ffffffffffffffffffffffffffffffffffffffff1681525050600754816000018181525050888160200181815250506109c36113b0565b816040019073ffffffffffffffffffffffffffffffffffffffff16908173ffffffffffffffffffffffffffffffffffffffff1681525050878160a00181905250868160e001818152505060075489610a1b9190611d63565b81608001818152505060008160c00190600d811115610a3d57610a3c611cdb565b5b9081600d811115610a5157610a50611cdb565b5b815250508381610100019073ffffffffffffffffffffffffffffffffffffffff16908173ffffffffffffffffffffffffffffffffffffffff16815250508481610120019073ffffffffffffffffffffffffffffffffffffffff16908173ffffffffffffffffffffffffffffffffffffffff16815250508281610140019073ffffffffffffffffffffffffffffffffffffffff16908173ffffffffffffffffffffffffffffffffffffffff16815250508181610160019073ffffffffffffffffffffffffffffffffffffffff16908173ffffffffffffffffffffffffffffffffffffffff168152505080600860008b8152602001908152602001600020600082015181600001556020820151816001015560408201518160020160006101000a81548173ffffffffffffffffffffffffffffffffffffffff021916908373ffffffffffffffffffffffffffffffffffffffff16021790555060608201518160030160006101000a81548173ffffffffffffffffffffffffffffffffffffffff021916908373ffffffffffffffffffffffffffffffffffffffff1602179055506080820151816004015560a0820151816005019081610c0e9190611fae565b5060c08201518160060160006101000a81548160ff0219169083600d811115610c3a57610c39611cdb565b5b021790555060e082015181600701556101008201518160080160006101000a81548173ffffffffffffffffffffffffffffffffffffffff021916908373ffffffffffffffffffffffffffffffffffffffff1602179055506101208201518160090160006101000a81548173ffffffffffffffffffffffffffffffffffffffff021916908373ffffffffffffffffffffffffffffffffffffffff16021790555061014082015181600a0160006101000a81548173ffffffffffffffffffffffffffffffffffffffff021916908373ffffffffffffffffffffffffffffffffffffffff16021790555061016082015181600b0160006101000a81548173ffffffffffffffffffffffffffffffffffffffff021916908373ffffffffffffffffffffffffffffffffffffffff16021790555061018082015181600c01556101a082015181600d01559050506000610d8c611986565b81816000018181525050818160200181815250508181604001818152505081816060018181525050806009600060065481526020019081526020016000206000820151816000015560208201518160010155604082015181600201556060820151816003015590505060076000815480929190610e0890612080565b91905055507fb7cacbe76ffd2319b73ee6a0f921b205bdb46926c6342d478b159eedd699d4b6600654604051610e3e9190611d19565b60405180910390a15050505050505050505050565b610e63610e5e6113b0565b610729565b610e6c57600080fd5b610e7581611723565b50565b610e88610e836113b0565b61177d565b565b610e9a610e956113b0565b6104a1565b610ea357600080fd5b816000600d811115610eb857610eb7611cdb565b5b6008600083815260200190815260200160002060060160009054906101000a900460ff16600d811115610eee57610eed611cdb565b5b14610ef857600080fd5b6008600084815260200190815260200160002060020160009054906101000a900473ffffffffffffffffffffffffffffffffffffffff168073ffffffffffffffffffffffffffffffffffffffff16610f4e6113b0565b73ffffffffffffffffffffffffffffffffffffffff1614610f6e57600080fd5b60016008600086815260200190815260200160002060060160006101000a81548160ff0219169083600d811115610fa857610fa7611cdb565b5b02179055508260086000868152602001908152602001600020600701819055507faec623c8803eb3c795344cb3d2178da45139e85d984a1dc348cf9dc8bd7ff16084604051610ff79190611d19565b60405180910390a150505050565b6110156110106113b0565b610920565b61101e57600080fd5b806001600d81111561103357611032611cdb565b5b6008600083815260200190815260200160002060060160009054906101000a900460ff16600d81111561106957611068611cdb565b5b1461107357600080fd5b60086000838152602001908152602001600020600701548034101561109757600080fd5b826110a06113b0565b600060086000848152602001908152602001600020600c01549050600081346110c991906120c8565b90508273ffffffffffffffffffffffffffffffffffffffff166108fc829081150290604051600060405180830381858888f19350505050158015611111573d6000803e3d6000fd5b506000611153600860008a815260200190815260200160002060030160009054906101000a900473ffffffffffffffffffffffffffffffffffffffff16611557565b90508073ffffffffffffffffffffffffffffffffffffffff166108fc600860008b8152602001908152602001600020600701549081150290604051600060405180830381858888f193505050501580156111b1573d6000803e3d6000fd5b506111ba6113b0565b600860008a815260200190815260200160002060020160006101000a81548173ffffffffffffffffffffffffffffffffffffffff021916908373ffffffffffffffffffffffffffffffffffffffff1602179055506112166113b0565b600860008a815260200190815260200160002060090160006101000a81548173ffffffffffffffffffffffffffffffffffffffff021916908373ffffffffffffffffffffffffffffffffffffffff1602179055506002600860008a815260200190815260200160002060060160006101000a81548160ff0219169083600d8111156112a4576112a3611cdb565b5b021790555043600960008a8152602001908152602001600020600001819055507facd9402b9f9e8c15fa7c1819f8393ca56eb61316cc354fc6ac2150aed3ce7931886040516112f39190611d19565b60405180910390a15050505050505050565b600073ffffffffffffffffffffffffffffffffffffffff168173ffffffffffffffffffffffffffffffffffffffff160361133e57600080fd5b611348828261146c565b1561135257600080fd5b60018260000160008373ffffffffffffffffffffffffffffffffffffffff1673ffffffffffffffffffffffffffffffffffffffff16815260200190815260200160002060006101000a81548160ff0219169083151502179055505050565b600033905090565b6113cc8160026117d790919063ffffffff16565b8073ffffffffffffffffffffffffffffffffffffffff167f7f865f710a7604537eb2bc0334f082fa642d210a705398937f53663384485b2860405160405180910390a250565b61142681600461130590919063ffffffff16565b8073ffffffffffffffffffffffffffffffffffffffff167f28b26e7a3d20aedbc5f8f2ebf7da671c0491723a2b78f47a097b0e46dee0714260405160405180910390a250565b60008073ffffffffffffffffffffffffffffffffffffffff168273ffffffffffffffffffffffffffffffffffffffff16036114a657600080fd5b8260000160008373ffffffffffffffffffffffffffffffffffffffff1673ffffffffffffffffffffffffffffffffffffffff16815260200190815260200160002060009054906101000a900460ff16905092915050565b6115118160046117d790919063ffffffff16565b8073ffffffffffffffffffffffffffffffffffffffff167fe3f5ed5f263f1f01764a96edfc7d025f511ec5f7d180e8816908b78bcf74f09860405160405180910390a250565b6000819050919050565b6115758160016117d790919063ffffffff16565b8073ffffffffffffffffffffffffffffffffffffffff167f126174f6cf49c81cdb4a9214c6b8f037bef55b4ec31e4fc776cea2a1c8a88d5960405160405180910390a250565b6115cf81600061130590919063ffffffff16565b8073ffffffffffffffffffffffffffffffffffffffff167f561138658ca49a8540dc70dcfe64c9026c1c5b9344642242dd6562970f9c127860405160405180910390a250565b61162981600161130590919063ffffffff16565b8073ffffffffffffffffffffffffffffffffffffffff167fddbf200aa634dc3fb81cfd68583dd1040d1c751d335e1d86b631bde3e977fea860405160405180910390a250565b6116838160006117d790919063ffffffff16565b8073ffffffffffffffffffffffffffffffffffffffff167f2fed5abf6a80d6dfe30b4895481b2fc5d7dce5f8f7b931832f4a2947d5040c7f60405160405180910390a250565b6116dd81600361130590919063ffffffff16565b8073ffffffffffffffffffffffffffffffffffffffff167f71ae26cad02663e3d92efd6ec56031a80d74a20c0ab4183faa8bf262261c9baa60405160405180910390a250565b61173781600261130590919063ffffffff16565b8073ffffffffffffffffffffffffffffffffffffffff167fd8a7ad7929975a375d2b12bf49040286b5b105df0fe351f10df6d85e5b7142f760405160405180910390a250565b6117918160036117d790919063ffffffff16565b8073ffffffffffffffffffffffffffffffffffffffff167fdb7176e79cffef81cb01767dd0447a0b24bb72ca9778d4b245581086b2a7e6db60405160405180910390a250565b600073ffffffffffffffffffffffffffffffffffffffff168173ffffffffffffffffffffffffffffffffffffffff160361181057600080fd5b61181a828261146c565b61182357600080fd5b60008260000160008373ffffffffffffffffffffffffffffffffffffffff1673ffffffffffffffffffffffffffffffffffffffff16815260200190815260200160002060006101000a81548160ff0219169083151502179055505050565b604051806101c001604052806000815260200160008152602001600073ffffffffffffffffffffffffffffffffffffffff168152602001600073ffffffffffffffffffffffffffffffffffffffff16815260200160008152602001606081526020016000600d8111156118f7576118f6611cdb565b5b815260200160008152602001600073ffffffffffffffffffffffffffffffffffffffff168152602001600073ffffffffffffffffffffffffffffffffffffffff168152602001600073ffffffffffffffffffffffffffffffffffffffff168152602001600073ffffffffffffffffffffffffffffffffffffffff16815260200160008152602001600081525090565b6040518060800160405280600081526020016000815260200160008152602001600081525090565b6000604051905090565b600080fd5b600080fd5b600073ffffffffffffffffffffffffffffffffffffffff82169050919050565b60006119ed826119c2565b9050919050565b6119fd816119e2565b8114611a0857600080fd5b50565b600081359050611a1a816119f4565b92915050565b600060208284031215611a3657611a356119b8565b5b6000611a4484828501611a0b565b91505092915050565b60008115159050919050565b611a6281611a4d565b82525050565b6000602082019050611a7d6000830184611a59565b92915050565b6000819050919050565b611a9681611a83565b8114611aa157600080fd5b50565b600081359050611ab381611a8d565b92915050565b600060208284031215611acf57611ace6119b8565b5b6000611add84828501611aa4565b91505092915050565b600080fd5b600080fd5b6000601f19601f8301169050919050565b7f4e487b7100000000000000000000000000000000000000000000000000000000600052604160045260246000fd5b611b3982611af0565b810181811067ffffffffffffffff82111715611b5857611b57611b01565b5b80604052505050565b6000611b6b6119ae565b9050611b778282611b30565b919050565b600067ffffffffffffffff821115611b9757611b96611b01565b5b611ba082611af0565b9050602081019050919050565b82818337600083830152505050565b6000611bcf611bca84611b7c565b611b61565b905082815260208101848484011115611beb57611bea611aeb565b5b611bf6848285611bad565b509392505050565b600082601f830112611c1357611c12611ae6565b5b8135611c23848260208601611bbc565b91505092915050565b600080600060608486031215611c4557611c446119b8565b5b6000611c5386828701611aa4565b935050602084013567ffffffffffffffff811115611c7457611c736119bd565b5b611c8086828701611bfe565b9250506040611c9186828701611aa4565b9150509250925092565b60008060408385031215611cb257611cb16119b8565b5b6000611cc085828601611aa4565b9250506020611cd185828601611aa4565b9150509250929050565b7f4e487b7100000000000000000000000000000000000000000000000000000000600052602160045260246000fd5b611d1381611a83565b82525050565b6000602082019050611d2e6000830184611d0a565b92915050565b7f4e487b7100000000000000000000000000000000000000000000000000000000600052601160045260246000fd5b6000611d6e82611a83565b9150611d7983611a83565b9250828201905080821115611d9157611d90611d34565b5b92915050565b600081519050919050565b7f4e487b7100000000000000000000000000000000000000000000000000000000600052602260045260246000fd5b60006002820490506001821680611de957607f821691505b602082108103611dfc57611dfb611da2565b5b50919050565b60008190508160005260206000209050919050565b60006020601f8301049050919050565b600082821b905092915050565b600060088302611e647fffffffffffffffffffffffffffffffffffffffffffffffffffffffffffffffff82611e27565b611e6e8683611e27565b95508019841693508086168417925050509392505050565b6000819050919050565b6000611eab611ea6611ea184611a83565b611e86565b611a83565b9050919050565b6000819050919050565b611ec583611e90565b611ed9611ed182611eb2565b848454611e34565b825550505050565b600090565b611eee611ee1565b611ef9818484611ebc565b505050565b5b81811015611f1d57611f12600082611ee6565b600181019050611eff565b5050565b601f821115611f6257611f3381611e02565b611f3c84611e17565b81016020851015611f4b578190505b611f5f611f5785611e17565b830182611efe565b50505b505050565b600082821c905092915050565b6000611f8560001984600802611f67565b1980831691505092915050565b6000611f9e8383611f74565b9150826002028217905092915050565b611fb782611d97565b67ffffffffffffffff811115611fd057611fcf611b01565b5b611fda8254611dd1565b611fe5828285611f21565b600060209050601f8311600181146120185760008415612006578287015190505b6120108582611f92565b865550612078565b601f19841661202686611e02565b60005b8281101561204e57848901518255600182019150602085019450602081019050612029565b8683101561206b5784890151612067601f891682611f74565b8355505b6001600288020188555050505b505050505050565b600061208b82611a83565b91507fffffffffffffffffffffffffffffffffffffffffffffffffffffffffffffffff82036120bd576120bc611d34565b5b600182019050919050565b60006120d382611a83565b91506120de83611a83565b92508282039050818111156120f6576120f5611d34565b5b9291505056fea2646970667358221220f1a38923a5a67d5d66490ce4cd8a37728064a2ce9b75f6a922c34c54b5c1b8ac64736f6c63430008120033",
					"opcodes": "PUSH1 0x80 PUSH1 0x40 MSTORE PUSH3 0x24 PUSH3 0x18 PUSH3 0x10A PUSH1 0x20 SHL PUSH1 0x20 SHR JUMP JUMPDEST PUSH3 0x112 PUSH1 0x20 SHL PUSH1 0x20 SHR JUMP JUMPDEST PUSH3 0x44 PUSH3 0x38 PUSH3 0x10A PUSH1 0x20 SHL PUSH1 0x20 SHR JUMP JUMPDEST PUSH3 0x173 PUSH1 0x20 SHL PUSH1 0x20 SHR JUMP JUMPDEST PUSH3 0x64 PUSH3 0x58 PUSH3 0x10A PUSH1 0x20 SHL PUSH1 0x20 SHR JUMP JUMPDEST PUSH3 0x1D4 PUSH1 0x20 SHL PUSH1 0x20 SHR JUMP JUMPDEST PUSH3 0x84 PUSH3 0x78 PUSH3 0x10A PUSH1 0x20 SHL PUSH1 0x20 SHR JUMP JUMPDEST PUSH3 0x235 PUSH1 0x20 SHL PUSH1 0x20 SHR JUMP JUMPDEST PUSH3 0xA4 PUSH3 0x98 PUSH3 0x10A PUSH1 0x20 SHL PUSH1 0x20 SHR JUMP JUMPDEST PUSH3 0x296 PUSH1 0x20 SHL PUSH1 0x20 SHR JUMP JUMPDEST PUSH3 0xB4 PUSH3 0x10A PUSH1 0x20 SHL PUSH1 0x20 SHR JUMP JUMPDEST PUSH1 0x5 PUSH1 0x0 PUSH2 0x100 EXP DUP2 SLOAD DUP2 PUSH20 0xFFFFFFFFFFFFFFFFFFFFFFFFFFFFFFFFFFFFFFFF MUL NOT AND SWAP1 DUP4 PUSH20 0xFFFFFFFFFFFFFFFFFFFFFFFFFFFFFFFFFFFFFFFF AND MUL OR SWAP1 SSTORE POP PUSH1 0x1 PUSH1 0x7 DUP2 SWAP1 SSTORE POP PUSH1 0x1 PUSH1 0x6 DUP2 SWAP1 SSTORE POP PUSH3 0x43E JUMP JUMPDEST PUSH1 0x0 CALLER SWAP1 POP SWAP1 JUMP JUMPDEST PUSH3 0x12D DUP2 PUSH1 0x0 PUSH3 0x2F7 PUSH1 0x20 SHL PUSH3 0x1305 OR SWAP1 SWAP2 SWAP1 PUSH1 0x20 SHR JUMP JUMPDEST DUP1 PUSH20 0xFFFFFFFFFFFFFFFFFFFFFFFFFFFFFFFFFFFFFFFF AND PUSH32 0x561138658CA49A8540DC70DCFE64C9026C1C5B9344642242DD6562970F9C1278 PUSH1 0x40 MLOAD PUSH1 0x40 MLOAD DUP1 SWAP2 SUB SWAP1 LOG2 POP JUMP JUMPDEST PUSH3 0x18E DUP2 PUSH1 0x1 PUSH3 0x2F7 PUSH1 0x20 SHL PUSH3 0x1305 OR SWAP1 SWAP2 SWAP1 PUSH1 0x20 SHR JUMP JUMPDEST DUP1 PUSH20 0xFFFFFFFFFFFFFFFFFFFFFFFFFFFFFFFFFFFFFFFF AND PUSH32 0xDDBF200AA634DC3FB81CFD68583DD1040D1C751D335E1D86B631BDE3E977FEA8 PUSH1 0x40 MLOAD PUSH1 0x40 MLOAD DUP1 SWAP2 SUB SWAP1 LOG2 POP JUMP JUMPDEST PUSH3 0x1EF DUP2 PUSH1 0x2 PUSH3 0x2F7 PUSH1 0x20 SHL PUSH3 0x1305 OR SWAP1 SWAP2 SWAP1 PUSH1 0x20 SHR JUMP JUMPDEST DUP1 PUSH20 0xFFFFFFFFFFFFFFFFFFFFFFFFFFFFFFFFFFFFFFFF AND PUSH32 0xD8A7AD7929975A375D2B12BF49040286B5B105DF0FE351F10DF6D85E5B7142F7 PUSH1 0x40 MLOAD PUSH1 0x40 MLOAD DUP1 SWAP2 SUB SWAP1 LOG2 POP JUMP JUMPDEST PUSH3 0x250 DUP2 PUSH1 0x3 PUSH3 0x2F7 PUSH1 0x20 SHL PUSH3 0x1305 OR SWAP1 SWAP2 SWAP1 PUSH1 0x20 SHR JUMP JUMPDEST DUP1 PUSH20 0xFFFFFFFFFFFFFFFFFFFFFFFFFFFFFFFFFFFFFFFF AND PUSH32 0x71AE26CAD02663E3D92EFD6EC56031A80D74A20C0AB4183FAA8BF262261C9BAA PUSH1 0x40 MLOAD PUSH1 0x40 MLOAD DUP1 SWAP2 SUB SWAP1 LOG2 POP JUMP JUMPDEST PUSH3 0x2B1 DUP2 PUSH1 0x4 PUSH3 0x2F7 PUSH1 0x20 SHL PUSH3 0x1305 OR SWAP1 SWAP2 SWAP1 PUSH1 0x20 SHR JUMP JUMPDEST DUP1 PUSH20 0xFFFFFFFFFFFFFFFFFFFFFFFFFFFFFFFFFFFFFFFF AND PUSH32 0x28B26E7A3D20AEDBC5F8F2EBF7DA671C0491723A2B78F47A097B0E46DEE07142 PUSH1 0x40 MLOAD PUSH1 0x40 MLOAD DUP1 SWAP2 SUB SWAP1 LOG2 POP JUMP JUMPDEST PUSH1 0x0 PUSH20 0xFFFFFFFFFFFFFFFFFFFFFFFFFFFFFFFFFFFFFFFF AND DUP2 PUSH20 0xFFFFFFFFFFFFFFFFFFFFFFFFFFFFFFFFFFFFFFFF AND SUB PUSH3 0x331 JUMPI PUSH1 0x0 DUP1 REVERT JUMPDEST PUSH3 0x343 DUP3 DUP3 PUSH3 0x3AC PUSH1 0x20 SHL PUSH1 0x20 SHR JUMP JUMPDEST ISZERO PUSH3 0x34E JUMPI PUSH1 0x0 DUP1 REVERT JUMPDEST PUSH1 0x1 DUP3 PUSH1 0x0 ADD PUSH1 0x0 DUP4 PUSH20 0xFFFFFFFFFFFFFFFFFFFFFFFFFFFFFFFFFFFFFFFF AND PUSH20 0xFFFFFFFFFFFFFFFFFFFFFFFFFFFFFFFFFFFFFFFF AND DUP2 MSTORE PUSH1 0x20 ADD SWAP1 DUP2 MSTORE PUSH1 0x20 ADD PUSH1 0x0 KECCAK256 PUSH1 0x0 PUSH2 0x100 EXP DUP2 SLOAD DUP2 PUSH1 0xFF MUL NOT AND SWAP1 DUP4 ISZERO ISZERO MUL OR SWAP1 SSTORE POP POP POP JUMP JUMPDEST PUSH1 0x0 DUP1 PUSH20 0xFFFFFFFFFFFFFFFFFFFFFFFFFFFFFFFFFFFFFFFF AND DUP3 PUSH20 0xFFFFFFFFFFFFFFFFFFFFFFFFFFFFFFFFFFFFFFFF AND SUB PUSH3 0x3E7 JUMPI PUSH1 0x0 DUP1 REVERT JUMPDEST DUP3 PUSH1 0x0 ADD PUSH1 0x0 DUP4 PUSH20 0xFFFFFFFFFFFFFFFFFFFFFFFFFFFFFFFFFFFFFFFF AND PUSH20 0xFFFFFFFFFFFFFFFFFFFFFFFFFFFFFFFFFFFFFFFF AND DUP2 MSTORE PUSH1 0x20 ADD SWAP1 DUP2 MSTORE PUSH1 0x20 ADD PUSH1 0x0 KECCAK256 PUSH1 0x0 SWAP1 SLOAD SWAP1 PUSH2 0x100 EXP SWAP1 DIV PUSH1 0xFF AND SWAP1 POP SWAP3 SWAP2 POP POP JUMP JUMPDEST PUSH2 0x2132 DUP1 PUSH3 0x44E PUSH1 0x0 CODECOPY PUSH1 0x0 RETURN INVALID PUSH1 0x80 PUSH1 0x40 MSTORE PUSH1 0x4 CALLDATASIZE LT PUSH2 0x12A JUMPI PUSH1 0x0 CALLDATALOAD PUSH1 0xE0 SHR DUP1 PUSH4 0x71F3FF90 GT PUSH2 0xAB JUMPI DUP1 PUSH4 0x8F0C86FA GT PUSH2 0x6F JUMPI DUP1 PUSH4 0x8F0C86FA EQ PUSH2 0x37F JUMPI DUP1 PUSH4 0xAD88BAC8 EQ PUSH2 0x3BC JUMPI DUP1 PUSH4 0xDE63BDB9 EQ PUSH2 0x3E5 JUMPI DUP1 PUSH4 0xE34D7A07 EQ PUSH2 0x40E JUMPI DUP1 PUSH4 0xE618F000 EQ PUSH2 0x425 JUMPI DUP1 PUSH4 0xFDCDC06F EQ PUSH2 0x44E JUMPI PUSH2 0x12A JUMP JUMPDEST DUP1 PUSH4 0x71F3FF90 EQ PUSH2 0x2BD JUMPI DUP1 PUSH4 0x7250E224 EQ PUSH2 0x2D9 JUMPI DUP1 PUSH4 0x834FF739 EQ PUSH2 0x302 JUMPI DUP1 PUSH4 0x8B828A08 EQ PUSH2 0x33F JUMPI DUP1 PUSH4 0x8EC4F505 EQ PUSH2 0x356 JUMPI PUSH2 0x12A JUMP JUMPDEST DUP1 PUSH4 0x41C0E1B5 GT PUSH2 0xF2 JUMPI DUP1 PUSH4 0x41C0E1B5 EQ PUSH2 0x1EC JUMPI DUP1 PUSH4 0x4EA90D2D EQ PUSH2 0x203 JUMPI DUP1 PUSH4 0x5DA09B88 EQ PUSH2 0x21A JUMPI DUP1 PUSH4 0x5F8A5AFA EQ PUSH2 0x257 JUMPI DUP1 PUSH4 0x64D1BA1F EQ PUSH2 0x280 JUMPI PUSH2 0x12A JUMP JUMPDEST DUP1 PUSH4 0x70EF987 EQ PUSH2 0x12F JUMPI DUP1 PUSH4 0x112940F9 EQ PUSH2 0x146 JUMPI DUP1 PUSH4 0x17D4A491 EQ PUSH2 0x16F JUMPI DUP1 PUSH4 0x24CB1669 EQ PUSH2 0x1AC JUMPI DUP1 PUSH4 0x3496C175 EQ PUSH2 0x1D5 JUMPI JUMPDEST PUSH1 0x0 DUP1 REVERT JUMPDEST CALLVALUE DUP1 ISZERO PUSH2 0x13B JUMPI PUSH1 0x0 DUP1 REVERT JUMPDEST POP PUSH2 0x144 PUSH2 0x46A JUMP JUMPDEST STOP JUMPDEST CALLVALUE DUP1 ISZERO PUSH2 0x152 JUMPI PUSH1 0x0 DUP1 REVERT JUMPDEST POP PUSH2 0x16D PUSH1 0x4 DUP1 CALLDATASIZE SUB DUP2 ADD SWAP1 PUSH2 0x168 SWAP2 SWAP1 PUSH2 0x1A20 JUMP JUMPDEST PUSH2 0x47C JUMP JUMPDEST STOP JUMPDEST CALLVALUE DUP1 ISZERO PUSH2 0x17B JUMPI PUSH1 0x0 DUP1 REVERT JUMPDEST POP PUSH2 0x196 PUSH1 0x4 DUP1 CALLDATASIZE SUB DUP2 ADD SWAP1 PUSH2 0x191 SWAP2 SWAP1 PUSH2 0x1A20 JUMP JUMPDEST PUSH2 0x4A1 JUMP JUMPDEST PUSH1 0x40 MLOAD PUSH2 0x1A3 SWAP2 SWAP1 PUSH2 0x1A68 JUMP JUMPDEST PUSH1 0x40 MLOAD DUP1 SWAP2 SUB SWAP1 RETURN JUMPDEST CALLVALUE DUP1 ISZERO PUSH2 0x1B8 JUMPI PUSH1 0x0 DUP1 REVERT JUMPDEST POP PUSH2 0x1D3 PUSH1 0x4 DUP1 CALLDATASIZE SUB DUP2 ADD SWAP1 PUSH2 0x1CE SWAP2 SWAP1 PUSH2 0x1AB9 JUMP JUMPDEST PUSH2 0x4BE JUMP JUMPDEST STOP JUMPDEST CALLVALUE DUP1 ISZERO PUSH2 0x1E1 JUMPI PUSH1 0x0 DUP1 REVERT JUMPDEST POP PUSH2 0x1EA PUSH2 0x61D JUMP JUMPDEST STOP JUMPDEST CALLVALUE DUP1 ISZERO PUSH2 0x1F8 JUMPI PUSH1 0x0 DUP1 REVERT JUMPDEST POP PUSH2 0x201 PUSH2 0x62F JUMP JUMPDEST STOP JUMPDEST CALLVALUE DUP1 ISZERO PUSH2 0x20F JUMPI PUSH1 0x0 DUP1 REVERT JUMPDEST POP PUSH2 0x218 PUSH2 0x6D5 JUMP JUMPDEST STOP JUMPDEST CALLVALUE DUP1 ISZERO PUSH2 0x226 JUMPI PUSH1 0x0 DUP1 REVERT JUMPDEST POP PUSH2 0x241 PUSH1 0x4 DUP1 CALLDATASIZE SUB DUP2 ADD SWAP1 PUSH2 0x23C SWAP2 SWAP1 PUSH2 0x1A20 JUMP JUMPDEST PUSH2 0x6E7 JUMP JUMPDEST PUSH1 0x40 MLOAD PUSH2 0x24E SWAP2 SWAP1 PUSH2 0x1A68 JUMP JUMPDEST PUSH1 0x40 MLOAD DUP1 SWAP2 SUB SWAP1 RETURN JUMPDEST CALLVALUE DUP1 ISZERO PUSH2 0x263 JUMPI PUSH1 0x0 DUP1 REVERT JUMPDEST POP PUSH2 0x27E PUSH1 0x4 DUP1 CALLDATASIZE SUB DUP2 ADD SWAP1 PUSH2 0x279 SWAP2 SWAP1 PUSH2 0x1A20 JUMP JUMPDEST PUSH2 0x704 JUMP JUMPDEST STOP JUMPDEST CALLVALUE DUP1 ISZERO PUSH2 0x28C JUMPI PUSH1 0x0 DUP1 REVERT JUMPDEST POP PUSH2 0x2A7 PUSH1 0x4 DUP1 CALLDATASIZE SUB DUP2 ADD SWAP1 PUSH2 0x2A2 SWAP2 SWAP1 PUSH2 0x1A20 JUMP JUMPDEST PUSH2 0x729 JUMP JUMPDEST PUSH1 0x40 MLOAD PUSH2 0x2B4 SWAP2 SWAP1 PUSH2 0x1A68 JUMP JUMPDEST PUSH1 0x40 MLOAD DUP1 SWAP2 SUB SWAP1 RETURN JUMPDEST PUSH2 0x2D7 PUSH1 0x4 DUP1 CALLDATASIZE SUB DUP2 ADD SWAP1 PUSH2 0x2D2 SWAP2 SWAP1 PUSH2 0x1AB9 JUMP JUMPDEST PUSH2 0x746 JUMP JUMPDEST STOP JUMPDEST CALLVALUE DUP1 ISZERO PUSH2 0x2E5 JUMPI PUSH1 0x0 DUP1 REVERT JUMPDEST POP PUSH2 0x300 PUSH1 0x4 DUP1 CALLDATASIZE SUB DUP2 ADD SWAP1 PUSH2 0x2FB SWAP2 SWAP1 PUSH2 0x1A20 JUMP JUMPDEST PUSH2 0x8A7 JUMP JUMPDEST STOP JUMPDEST CALLVALUE DUP1 ISZERO PUSH2 0x30E JUMPI PUSH1 0x0 DUP1 REVERT JUMPDEST POP PUSH2 0x329 PUSH1 0x4 DUP1 CALLDATASIZE SUB DUP2 ADD SWAP1 PUSH2 0x324 SWAP2 SWAP1 PUSH2 0x1A20 JUMP JUMPDEST PUSH2 0x8CC JUMP JUMPDEST PUSH1 0x40 MLOAD PUSH2 0x336 SWAP2 SWAP1 PUSH2 0x1A68 JUMP JUMPDEST PUSH1 0x40 MLOAD DUP1 SWAP2 SUB SWAP1 RETURN JUMPDEST CALLVALUE DUP1 ISZERO PUSH2 0x34B JUMPI PUSH1 0x0 DUP1 REVERT JUMPDEST POP PUSH2 0x354 PUSH2 0x8E9 JUMP JUMPDEST STOP JUMPDEST CALLVALUE DUP1 ISZERO PUSH2 0x362 JUMPI PUSH1 0x0 DUP1 REVERT JUMPDEST POP PUSH2 0x37D PUSH1 0x4 DUP1 CALLDATASIZE SUB DUP2 ADD SWAP1 PUSH2 0x378 SWAP2 SWAP1 PUSH2 0x1A20 JUMP JUMPDEST PUSH2 0x8FB JUMP JUMPDEST STOP JUMPDEST CALLVALUE DUP1 ISZERO PUSH2 0x38B JUMPI PUSH1 0x0 DUP1 REVERT JUMPDEST POP PUSH2 0x3A6 PUSH1 0x4 DUP1 CALLDATASIZE SUB DUP2 ADD SWAP1 PUSH2 0x3A1 SWAP2 SWAP1 PUSH2 0x1A20 JUMP JUMPDEST PUSH2 0x920 JUMP JUMPDEST PUSH1 0x40 MLOAD PUSH2 0x3B3 SWAP2 SWAP1 PUSH2 0x1A68 JUMP JUMPDEST PUSH1 0x40 MLOAD DUP1 SWAP2 SUB SWAP1 RETURN JUMPDEST CALLVALUE DUP1 ISZERO PUSH2 0x3C8 JUMPI PUSH1 0x0 DUP1 REVERT JUMPDEST POP PUSH2 0x3E3 PUSH1 0x4 DUP1 CALLDATASIZE SUB DUP2 ADD SWAP1 PUSH2 0x3DE SWAP2 SWAP1 PUSH2 0x1C2C JUMP JUMPDEST PUSH2 0x93D JUMP JUMPDEST STOP JUMPDEST CALLVALUE DUP1 ISZERO PUSH2 0x3F1 JUMPI PUSH1 0x0 DUP1 REVERT JUMPDEST POP PUSH2 0x40C PUSH1 0x4 DUP1 CALLDATASIZE SUB DUP2 ADD SWAP1 PUSH2 0x407 SWAP2 SWAP1 PUSH2 0x1A20 JUMP JUMPDEST PUSH2 0xE53 JUMP JUMPDEST STOP JUMPDEST CALLVALUE DUP1 ISZERO PUSH2 0x41A JUMPI PUSH1 0x0 DUP1 REVERT JUMPDEST POP PUSH2 0x423 PUSH2 0xE78 JUMP JUMPDEST STOP JUMPDEST CALLVALUE DUP1 ISZERO PUSH2 0x431 JUMPI PUSH1 0x0 DUP1 REVERT JUMPDEST POP PUSH2 0x44C PUSH1 0x4 DUP1 CALLDATASIZE SUB DUP2 ADD SWAP1 PUSH2 0x447 SWAP2 SWAP1 PUSH2 0x1C9B JUMP JUMPDEST PUSH2 0xE8A JUMP JUMPDEST STOP JUMPDEST PUSH2 0x468 PUSH1 0x4 DUP1 CALLDATASIZE SUB DUP2 ADD SWAP1 PUSH2 0x463 SWAP2 SWAP1 PUSH2 0x1AB9 JUMP JUMPDEST PUSH2 0x1005 JUMP JUMPDEST STOP JUMPDEST PUSH2 0x47A PUSH2 0x475 PUSH2 0x13B0 JUMP JUMPDEST PUSH2 0x13B8 JUMP JUMPDEST JUMP JUMPDEST PUSH2 0x48C PUSH2 0x487 PUSH2 0x13B0 JUMP JUMPDEST PUSH2 0x8CC JUMP JUMPDEST PUSH2 0x495 JUMPI PUSH1 0x0 DUP1 REVERT JUMPDEST PUSH2 0x49E DUP2 PUSH2 0x1412 JUMP JUMPDEST POP JUMP JUMPDEST PUSH1 0x0 PUSH2 0x4B7 DUP3 PUSH1 0x0 PUSH2 0x146C SWAP1 SWAP2 SWAP1 PUSH4 0xFFFFFFFF AND JUMP JUMPDEST SWAP1 POP SWAP2 SWAP1 POP JUMP JUMPDEST PUSH2 0x4CE PUSH2 0x4C9 PUSH2 0x13B0 JUMP JUMPDEST PUSH2 0x920 JUMP JUMPDEST PUSH2 0x4D7 JUMPI PUSH1 0x0 DUP1 REVERT JUMPDEST DUP1 PUSH1 0x7 PUSH1 0xD DUP2 GT ISZERO PUSH2 0x4EC JUMPI PUSH2 0x4EB PUSH2 0x1CDB JUMP JUMPDEST JUMPDEST PUSH1 0x8 PUSH1 0x0 DUP4 DUP2 MSTORE PUSH1 0x20 ADD SWAP1 DUP2 MSTORE PUSH1 0x20 ADD PUSH1 0x0 KECCAK256 PUSH1 0x6 ADD PUSH1 0x0 SWAP1 SLOAD SWAP1 PUSH2 0x100 EXP SWAP1 DIV PUSH1 0xFF AND PUSH1 0xD DUP2 GT ISZERO PUSH2 0x522 JUMPI PUSH2 0x521 PUSH2 0x1CDB JUMP JUMPDEST JUMPDEST EQ PUSH2 0x52C JUMPI PUSH1 0x0 DUP1 REVERT JUMPDEST PUSH1 0x8 PUSH1 0x0 DUP4 DUP2 MSTORE PUSH1 0x20 ADD SWAP1 DUP2 MSTORE PUSH1 0x20 ADD PUSH1 0x0 KECCAK256 PUSH1 0x2 ADD PUSH1 0x0 SWAP1 SLOAD SWAP1 PUSH2 0x100 EXP SWAP1 DIV PUSH20 0xFFFFFFFFFFFFFFFFFFFFFFFFFFFFFFFFFFFFFFFF AND DUP1 PUSH20 0xFFFFFFFFFFFFFFFFFFFFFFFFFFFFFFFFFFFFFFFF AND PUSH2 0x582 PUSH2 0x13B0 JUMP JUMPDEST PUSH20 0xFFFFFFFFFFFFFFFFFFFFFFFFFFFFFFFFFFFFFFFF AND EQ PUSH2 0x5A2 JUMPI PUSH1 0x0 DUP1 REVERT JUMPDEST PUSH1 0x4 PUSH1 0x8 PUSH1 0x0 DUP6 DUP2 MSTORE PUSH1 0x20 ADD SWAP1 DUP2 MSTORE PUSH1 0x20 ADD PUSH1 0x0 KECCAK256 PUSH1 0x6 ADD PUSH1 0x0 PUSH2 0x100 EXP DUP2 SLOAD DUP2 PUSH1 0xFF MUL NOT AND SWAP1 DUP4 PUSH1 0xD DUP2 GT ISZERO PUSH2 0x5DC JUMPI PUSH2 0x5DB PUSH2 0x1CDB JUMP JUMPDEST JUMPDEST MUL OR SWAP1 SSTORE POP PUSH32 0xC8CA2150E6E1849A10EF5AA4932060FA353BCACDFFEB150C9E1890C6AB9403CC DUP4 PUSH1 0x40 MLOAD PUSH2 0x610 SWAP2 SWAP1 PUSH2 0x1D19 JUMP JUMPDEST PUSH1 0x40 MLOAD DUP1 SWAP2 SUB SWAP1 LOG1 POP POP POP JUMP JUMPDEST PUSH2 0x62D PUSH2 0x628 PUSH2 0x13B0 JUMP JUMPDEST PUSH2 0x14FD JUMP JUMPDEST JUMP JUMPDEST PUSH1 0x5 PUSH1 0x0 SWAP1 SLOAD SWAP1 PUSH2 0x100 EXP SWAP1 DIV PUSH20 0xFFFFFFFFFFFFFFFFFFFFFFFFFFFFFFFFFFFFFFFF AND PUSH20 0xFFFFFFFFFFFFFFFFFFFFFFFFFFFFFFFFFFFFFFFF AND PUSH2 0x670 PUSH2 0x13B0 JUMP JUMPDEST PUSH20 0xFFFFFFFFFFFFFFFFFFFFFFFFFFFFFFFFFFFFFFFF AND SUB PUSH2 0x6D3 JUMPI PUSH1 0x0 PUSH2 0x6B8 PUSH1 0x5 PUSH1 0x0 SWAP1 SLOAD SWAP1 PUSH2 0x100 EXP SWAP1 DIV PUSH20 0xFFFFFFFFFFFFFFFFFFFFFFFFFFFFFFFFFFFFFFFF AND PUSH2 0x1557 JUMP JUMPDEST SWAP1 POP DUP1 PUSH20 0xFFFFFFFFFFFFFFFFFFFFFFFFFFFFFFFFFFFFFFFF AND SELFDESTRUCT JUMPDEST JUMP JUMPDEST PUSH2 0x6E5 PUSH2 0x6E0 PUSH2 0x13B0 JUMP JUMPDEST PUSH2 0x1561 JUMP JUMPDEST JUMP JUMPDEST PUSH1 0x0 PUSH2 0x6FD DUP3 PUSH1 0x3 PUSH2 0x146C SWAP1 SWAP2 SWAP1 PUSH4 0xFFFFFFFF AND JUMP JUMPDEST SWAP1 POP SWAP2 SWAP1 POP JUMP JUMPDEST PUSH2 0x714 PUSH2 0x70F PUSH2 0x13B0 JUMP JUMPDEST PUSH2 0x4A1 JUMP JUMPDEST PUSH2 0x71D JUMPI PUSH1 0x0 DUP1 REVERT JUMPDEST PUSH2 0x726 DUP2 PUSH2 0x15BB JUMP JUMPDEST POP JUMP JUMPDEST PUSH1 0x0 PUSH2 0x73F DUP3 PUSH1 0x2 PUSH2 0x146C SWAP1 SWAP2 SWAP1 PUSH4 0xFFFFFFFF AND JUMP JUMPDEST SWAP1 POP SWAP2 SWAP1 POP JUMP JUMPDEST PUSH2 0x756 PUSH2 0x751 PUSH2 0x13B0 JUMP JUMPDEST PUSH2 0x4A1 JUMP JUMPDEST PUSH2 0x75F JUMPI PUSH1 0x0 DUP1 REVERT JUMPDEST DUP1 PUSH1 0x2 PUSH1 0xD DUP2 GT ISZERO PUSH2 0x774 JUMPI PUSH2 0x773 PUSH2 0x1CDB JUMP JUMPDEST JUMPDEST PUSH1 0x8 PUSH1 0x0 DUP4 DUP2 MSTORE PUSH1 0x20 ADD SWAP1 DUP2 MSTORE PUSH1 0x20 ADD PUSH1 0x0 KECCAK256 PUSH1 0x6 ADD PUSH1 0x0 SWAP1 SLOAD SWAP1 PUSH2 0x100 EXP SWAP1 DIV PUSH1 0xFF AND PUSH1 0xD DUP2 GT ISZERO PUSH2 0x7AA JUMPI PUSH2 0x7A9 PUSH2 0x1CDB JUMP JUMPDEST JUMPDEST EQ PUSH2 0x7B4 JUMPI PUSH1 0x0 DUP1 REVERT JUMPDEST PUSH1 0x8 PUSH1 0x0 DUP4 DUP2 MSTORE PUSH1 0x20 ADD SWAP1 DUP2 MSTORE PUSH1 0x20 ADD PUSH1 0x0 KECCAK256 PUSH1 0x3 ADD PUSH1 0x0 SWAP1 SLOAD SWAP1 PUSH2 0x100 EXP SWAP1 DIV PUSH20 0xFFFFFFFFFFFFFFFFFFFFFFFFFFFFFFFFFFFFFFFF AND DUP1 PUSH20 0xFFFFFFFFFFFFFFFFFFFFFFFFFFFFFFFFFFFFFFFF AND PUSH2 0x80A PUSH2 0x13B0 JUMP JUMPDEST PUSH20 0xFFFFFFFFFFFFFFFFFFFFFFFFFFFFFFFFFFFFFFFF AND EQ PUSH2 0x82A JUMPI PUSH1 0x0 DUP1 REVERT JUMPDEST PUSH1 0x3 PUSH1 0x8 PUSH1 0x0 DUP6 DUP2 MSTORE PUSH1 0x20 ADD SWAP1 DUP2 MSTORE PUSH1 0x20 ADD PUSH1 0x0 KECCAK256 PUSH1 0x6 ADD PUSH1 0x0 PUSH2 0x100 EXP DUP2 SLOAD DUP2 PUSH1 0xFF MUL NOT AND SWAP1 DUP4 PUSH1 0xD DUP2 GT ISZERO PUSH2 0x864 JUMPI PUSH2 0x863 PUSH2 0x1CDB JUMP JUMPDEST JUMPDEST MUL OR SWAP1 SSTORE POP PUSH32 0x25727BEF8A186DD95A062151451F2D651551B53124C18208D7653B1217AE31BA PUSH1 0x6 SLOAD PUSH1 0x40 MLOAD PUSH2 0x89A SWAP2 SWAP1 PUSH2 0x1D19 JUMP JUMPDEST PUSH1 0x40 MLOAD DUP1 SWAP2 SUB SWAP1 LOG1 POP POP POP JUMP JUMPDEST PUSH2 0x8B7 PUSH2 0x8B2 PUSH2 0x13B0 JUMP JUMPDEST PUSH2 0x920 JUMP JUMPDEST PUSH2 0x8C0 JUMPI PUSH1 0x0 DUP1 REVERT JUMPDEST PUSH2 0x8C9 DUP2 PUSH2 0x1615 JUMP JUMPDEST POP JUMP JUMPDEST PUSH1 0x0 PUSH2 0x8E2 DUP3 PUSH1 0x4 PUSH2 0x146C SWAP1 SWAP2 SWAP1 PUSH4 0xFFFFFFFF AND JUMP JUMPDEST SWAP1 POP SWAP2 SWAP1 POP JUMP JUMPDEST PUSH2 0x8F9 PUSH2 0x8F4 PUSH2 0x13B0 JUMP JUMPDEST PUSH2 0x166F JUMP JUMPDEST JUMP JUMPDEST PUSH2 0x90B PUSH2 0x906 PUSH2 0x13B0 JUMP JUMPDEST PUSH2 0x6E7 JUMP JUMPDEST PUSH2 0x914 JUMPI PUSH1 0x0 DUP1 REVERT JUMPDEST PUSH2 0x91D DUP2 PUSH2 0x16C9 JUMP JUMPDEST POP JUMP JUMPDEST PUSH1 0x0 PUSH2 0x936 DUP3 PUSH1 0x1 PUSH2 0x146C SWAP1 SWAP2 SWAP1 PUSH4 0xFFFFFFFF AND JUMP JUMPDEST SWAP1 POP SWAP2 SWAP1 POP JUMP JUMPDEST PUSH2 0x94D PUSH2 0x948 PUSH2 0x13B0 JUMP JUMPDEST PUSH2 0x4A1 JUMP JUMPDEST PUSH2 0x956 JUMPI PUSH1 0x0 DUP1 REVERT JUMPDEST PUSH1 0x0 DUP1 PUSH1 0x0 DUP1 PUSH1 0x0 PUSH2 0x966 PUSH2 0x1881 JUMP JUMPDEST PUSH2 0x96E PUSH2 0x13B0 JUMP JUMPDEST DUP2 PUSH1 0x60 ADD SWAP1 PUSH20 0xFFFFFFFFFFFFFFFFFFFFFFFFFFFFFFFFFFFFFFFF AND SWAP1 DUP2 PUSH20 0xFFFFFFFFFFFFFFFFFFFFFFFFFFFFFFFFFFFFFFFF AND DUP2 MSTORE POP POP PUSH1 0x7 SLOAD DUP2 PUSH1 0x0 ADD DUP2 DUP2 MSTORE POP POP DUP9 DUP2 PUSH1 0x20 ADD DUP2 DUP2 MSTORE POP POP PUSH2 0x9C3 PUSH2 0x13B0 JUMP JUMPDEST DUP2 PUSH1 0x40 ADD SWAP1 PUSH20 0xFFFFFFFFFFFFFFFFFFFFFFFFFFFFFFFFFFFFFFFF AND SWAP1 DUP2 PUSH20 0xFFFFFFFFFFFFFFFFFFFFFFFFFFFFFFFFFFFFFFFF AND DUP2 MSTORE POP POP DUP8 DUP2 PUSH1 0xA0 ADD DUP2 SWAP1 MSTORE POP DUP7 DUP2 PUSH1 0xE0 ADD DUP2 DUP2 MSTORE POP POP PUSH1 0x7 SLOAD DUP10 PUSH2 0xA1B SWAP2 SWAP1 PUSH2 0x1D63 JUMP JUMPDEST DUP2 PUSH1 0x80 ADD DUP2 DUP2 MSTORE POP POP PUSH1 0x0 DUP2 PUSH1 0xC0 ADD SWAP1 PUSH1 0xD DUP2 GT ISZERO PUSH2 0xA3D JUMPI PUSH2 0xA3C PUSH2 0x1CDB JUMP JUMPDEST JUMPDEST SWAP1 DUP2 PUSH1 0xD DUP2 GT ISZERO PUSH2 0xA51 JUMPI PUSH2 0xA50 PUSH2 0x1CDB JUMP JUMPDEST JUMPDEST DUP2 MSTORE POP POP DUP4 DUP2 PUSH2 0x100 ADD SWAP1 PUSH20 0xFFFFFFFFFFFFFFFFFFFFFFFFFFFFFFFFFFFFFFFF AND SWAP1 DUP2 PUSH20 0xFFFFFFFFFFFFFFFFFFFFFFFFFFFFFFFFFFFFFFFF AND DUP2 MSTORE POP POP DUP5 DUP2 PUSH2 0x120 ADD SWAP1 PUSH20 0xFFFFFFFFFFFFFFFFFFFFFFFFFFFFFFFFFFFFFFFF AND SWAP1 DUP2 PUSH20 0xFFFFFFFFFFFFFFFFFFFFFFFFFFFFFFFFFFFFFFFF AND DUP2 MSTORE POP POP DUP3 DUP2 PUSH2 0x140 ADD SWAP1 PUSH20 0xFFFFFFFFFFFFFFFFFFFFFFFFFFFFFFFFFFFFFFFF AND SWAP1 DUP2 PUSH20 0xFFFFFFFFFFFFFFFFFFFFFFFFFFFFFFFFFFFFFFFF AND DUP2 MSTORE POP POP DUP2 DUP2 PUSH2 0x160 ADD SWAP1 PUSH20 0xFFFFFFFFFFFFFFFFFFFFFFFFFFFFFFFFFFFFFFFF AND SWAP1 DUP2 PUSH20 0xFFFFFFFFFFFFFFFFFFFFFFFFFFFFFFFFFFFFFFFF AND DUP2 MSTORE POP POP DUP1 PUSH1 0x8 PUSH1 0x0 DUP12 DUP2 MSTORE PUSH1 0x20 ADD SWAP1 DUP2 MSTORE PUSH1 0x20 ADD PUSH1 0x0 KECCAK256 PUSH1 0x0 DUP3 ADD MLOAD DUP2 PUSH1 0x0 ADD SSTORE PUSH1 0x20 DUP3 ADD MLOAD DUP2 PUSH1 0x1 ADD SSTORE PUSH1 0x40 DUP3 ADD MLOAD DUP2 PUSH1 0x2 ADD PUSH1 0x0 PUSH2 0x100 EXP DUP2 SLOAD DUP2 PUSH20 0xFFFFFFFFFFFFFFFFFFFFFFFFFFFFFFFFFFFFFFFF MUL NOT AND SWAP1 DUP4 PUSH20 0xFFFFFFFFFFFFFFFFFFFFFFFFFFFFFFFFFFFFFFFF AND MUL OR SWAP1 SSTORE POP PUSH1 0x60 DUP3 ADD MLOAD DUP2 PUSH1 0x3 ADD PUSH1 0x0 PUSH2 0x100 EXP DUP2 SLOAD DUP2 PUSH20 0xFFFFFFFFFFFFFFFFFFFFFFFFFFFFFFFFFFFFFFFF MUL NOT AND SWAP1 DUP4 PUSH20 0xFFFFFFFFFFFFFFFFFFFFFFFFFFFFFFFFFFFFFFFF AND MUL OR SWAP1 SSTORE POP PUSH1 0x80 DUP3 ADD MLOAD DUP2 PUSH1 0x4 ADD SSTORE PUSH1 0xA0 DUP3 ADD MLOAD DUP2 PUSH1 0x5 ADD SWAP1 DUP2 PUSH2 0xC0E SWAP2 SWAP1 PUSH2 0x1FAE JUMP JUMPDEST POP PUSH1 0xC0 DUP3 ADD MLOAD DUP2 PUSH1 0x6 ADD PUSH1 0x0 PUSH2 0x100 EXP DUP2 SLOAD DUP2 PUSH1 0xFF MUL NOT AND SWAP1 DUP4 PUSH1 0xD DUP2 GT ISZERO PUSH2 0xC3A JUMPI PUSH2 0xC39 PUSH2 0x1CDB JUMP JUMPDEST JUMPDEST MUL OR SWAP1 SSTORE POP PUSH1 0xE0 DUP3 ADD MLOAD DUP2 PUSH1 0x7 ADD SSTORE PUSH2 0x100 DUP3 ADD MLOAD DUP2 PUSH1 0x8 ADD PUSH1 0x0 PUSH2 0x100 EXP DUP2 SLOAD DUP2 PUSH20 0xFFFFFFFFFFFFFFFFFFFFFFFFFFFFFFFFFFFFFFFF MUL NOT AND SWAP1 DUP4 PUSH20 0xFFFFFFFFFFFFFFFFFFFFFFFFFFFFFFFFFFFFFFFF AND MUL OR SWAP1 SSTORE POP PUSH2 0x120 DUP3 ADD MLOAD DUP2 PUSH1 0x9 ADD PUSH1 0x0 PUSH2 0x100 EXP DUP2 SLOAD DUP2 PUSH20 0xFFFFFFFFFFFFFFFFFFFFFFFFFFFFFFFFFFFFFFFF MUL NOT AND SWAP1 DUP4 PUSH20 0xFFFFFFFFFFFFFFFFFFFFFFFFFFFFFFFFFFFFFFFF AND MUL OR SWAP1 SSTORE POP PUSH2 0x140 DUP3 ADD MLOAD DUP2 PUSH1 0xA ADD PUSH1 0x0 PUSH2 0x100 EXP DUP2 SLOAD DUP2 PUSH20 0xFFFFFFFFFFFFFFFFFFFFFFFFFFFFFFFFFFFFFFFF MUL NOT AND SWAP1 DUP4 PUSH20 0xFFFFFFFFFFFFFFFFFFFFFFFFFFFFFFFFFFFFFFFF AND MUL OR SWAP1 SSTORE POP PUSH2 0x160 DUP3 ADD MLOAD DUP2 PUSH1 0xB ADD PUSH1 0x0 PUSH2 0x100 EXP DUP2 SLOAD DUP2 PUSH20 0xFFFFFFFFFFFFFFFFFFFFFFFFFFFFFFFFFFFFFFFF MUL NOT AND SWAP1 DUP4 PUSH20 0xFFFFFFFFFFFFFFFFFFFFFFFFFFFFFFFFFFFFFFFF AND MUL OR SWAP1 SSTORE POP PUSH2 0x180 DUP3 ADD MLOAD DUP2 PUSH1 0xC ADD SSTORE PUSH2 0x1A0 DUP3 ADD MLOAD DUP2 PUSH1 0xD ADD SSTORE SWAP1 POP POP PUSH1 0x0 PUSH2 0xD8C PUSH2 0x1986 JUMP JUMPDEST DUP2 DUP2 PUSH1 0x0 ADD DUP2 DUP2 MSTORE POP POP DUP2 DUP2 PUSH1 0x20 ADD DUP2 DUP2 MSTORE POP POP DUP2 DUP2 PUSH1 0x40 ADD DUP2 DUP2 MSTORE POP POP DUP2 DUP2 PUSH1 0x60 ADD DUP2 DUP2 MSTORE POP POP DUP1 PUSH1 0x9 PUSH1 0x0 PUSH1 0x6 SLOAD DUP2 MSTORE PUSH1 0x20 ADD SWAP1 DUP2 MSTORE PUSH1 0x20 ADD PUSH1 0x0 KECCAK256 PUSH1 0x0 DUP3 ADD MLOAD DUP2 PUSH1 0x0 ADD SSTORE PUSH1 0x20 DUP3 ADD MLOAD DUP2 PUSH1 0x1 ADD SSTORE PUSH1 0x40 DUP3 ADD MLOAD DUP2 PUSH1 0x2 ADD SSTORE PUSH1 0x60 DUP3 ADD MLOAD DUP2 PUSH1 0x3 ADD SSTORE SWAP1 POP POP PUSH1 0x7 PUSH1 0x0 DUP2 SLOAD DUP1 SWAP3 SWAP2 SWAP1 PUSH2 0xE08 SWAP1 PUSH2 0x2080 JUMP JUMPDEST SWAP2 SWAP1 POP SSTORE POP PUSH32 0xB7CACBE76FFD2319B73EE6A0F921B205BDB46926C6342D478B159EEDD699D4B6 PUSH1 0x6 SLOAD PUSH1 0x40 MLOAD PUSH2 0xE3E SWAP2 SWAP1 PUSH2 0x1D19 JUMP JUMPDEST PUSH1 0x40 MLOAD DUP1 SWAP2 SUB SWAP1 LOG1 POP POP POP POP POP POP POP POP POP POP POP JUMP JUMPDEST PUSH2 0xE63 PUSH2 0xE5E PUSH2 0x13B0 JUMP JUMPDEST PUSH2 0x729 JUMP JUMPDEST PUSH2 0xE6C JUMPI PUSH1 0x0 DUP1 REVERT JUMPDEST PUSH2 0xE75 DUP2 PUSH2 0x1723 JUMP JUMPDEST POP JUMP JUMPDEST PUSH2 0xE88 PUSH2 0xE83 PUSH2 0x13B0 JUMP JUMPDEST PUSH2 0x177D JUMP JUMPDEST JUMP JUMPDEST PUSH2 0xE9A PUSH2 0xE95 PUSH2 0x13B0 JUMP JUMPDEST PUSH2 0x4A1 JUMP JUMPDEST PUSH2 0xEA3 JUMPI PUSH1 0x0 DUP1 REVERT JUMPDEST DUP2 PUSH1 0x0 PUSH1 0xD DUP2 GT ISZERO PUSH2 0xEB8 JUMPI PUSH2 0xEB7 PUSH2 0x1CDB JUMP JUMPDEST JUMPDEST PUSH1 0x8 PUSH1 0x0 DUP4 DUP2 MSTORE PUSH1 0x20 ADD SWAP1 DUP2 MSTORE PUSH1 0x20 ADD PUSH1 0x0 KECCAK256 PUSH1 0x6 ADD PUSH1 0x0 SWAP1 SLOAD SWAP1 PUSH2 0x100 EXP SWAP1 DIV PUSH1 0xFF AND PUSH1 0xD DUP2 GT ISZERO PUSH2 0xEEE JUMPI PUSH2 0xEED PUSH2 0x1CDB JUMP JUMPDEST JUMPDEST EQ PUSH2 0xEF8 JUMPI PUSH1 0x0 DUP1 REVERT JUMPDEST PUSH1 0x8 PUSH1 0x0 DUP5 DUP2 MSTORE PUSH1 0x20 ADD SWAP1 DUP2 MSTORE PUSH1 0x20 ADD PUSH1 0x0 KECCAK256 PUSH1 0x2 ADD PUSH1 0x0 SWAP1 SLOAD SWAP1 PUSH2 0x100 EXP SWAP1 DIV PUSH20 0xFFFFFFFFFFFFFFFFFFFFFFFFFFFFFFFFFFFFFFFF AND DUP1 PUSH20 0xFFFFFFFFFFFFFFFFFFFFFFFFFFFFFFFFFFFFFFFF AND PUSH2 0xF4E PUSH2 0x13B0 JUMP JUMPDEST PUSH20 0xFFFFFFFFFFFFFFFFFFFFFFFFFFFFFFFFFFFFFFFF AND EQ PUSH2 0xF6E JUMPI PUSH1 0x0 DUP1 REVERT JUMPDEST PUSH1 0x1 PUSH1 0x8 PUSH1 0x0 DUP7 DUP2 MSTORE PUSH1 0x20 ADD SWAP1 DUP2 MSTORE PUSH1 0x20 ADD PUSH1 0x0 KECCAK256 PUSH1 0x6 ADD PUSH1 0x0 PUSH2 0x100 EXP DUP2 SLOAD DUP2 PUSH1 0xFF MUL NOT AND SWAP1 DUP4 PUSH1 0xD DUP2 GT ISZERO PUSH2 0xFA8 JUMPI PUSH2 0xFA7 PUSH2 0x1CDB JUMP JUMPDEST JUMPDEST MUL OR SWAP1 SSTORE POP DUP3 PUSH1 0x8 PUSH1 0x0 DUP7 DUP2 MSTORE PUSH1 0x20 ADD SWAP1 DUP2 MSTORE PUSH1 0x20 ADD PUSH1 0x0 KECCAK256 PUSH1 0x7 ADD DUP2 SWAP1 SSTORE POP PUSH32 0xAEC623C8803EB3C795344CB3D2178DA45139E85D984A1DC348CF9DC8BD7FF160 DUP5 PUSH1 0x40 MLOAD PUSH2 0xFF7 SWAP2 SWAP1 PUSH2 0x1D19 JUMP JUMPDEST PUSH1 0x40 MLOAD DUP1 SWAP2 SUB SWAP1 LOG1 POP POP POP POP JUMP JUMPDEST PUSH2 0x1015 PUSH2 0x1010 PUSH2 0x13B0 JUMP JUMPDEST PUSH2 0x920 JUMP JUMPDEST PUSH2 0x101E JUMPI PUSH1 0x0 DUP1 REVERT JUMPDEST DUP1 PUSH1 0x1 PUSH1 0xD DUP2 GT ISZERO PUSH2 0x1033 JUMPI PUSH2 0x1032 PUSH2 0x1CDB JUMP JUMPDEST JUMPDEST PUSH1 0x8 PUSH1 0x0 DUP4 DUP2 MSTORE PUSH1 0x20 ADD SWAP1 DUP2 MSTORE PUSH1 0x20 ADD PUSH1 0x0 KECCAK256 PUSH1 0x6 ADD PUSH1 0x0 SWAP1 SLOAD SWAP1 PUSH2 0x100 EXP SWAP1 DIV PUSH1 0xFF AND PUSH1 0xD DUP2 GT ISZERO PUSH2 0x1069 JUMPI PUSH2 0x1068 PUSH2 0x1CDB JUMP JUMPDEST JUMPDEST EQ PUSH2 0x1073 JUMPI PUSH1 0x0 DUP1 REVERT JUMPDEST PUSH1 0x8 PUSH1 0x0 DUP4 DUP2 MSTORE PUSH1 0x20 ADD SWAP1 DUP2 MSTORE PUSH1 0x20 ADD PUSH1 0x0 KECCAK256 PUSH1 0x7 ADD SLOAD DUP1 CALLVALUE LT ISZERO PUSH2 0x1097 JUMPI PUSH1 0x0 DUP1 REVERT JUMPDEST DUP3 PUSH2 0x10A0 PUSH2 0x13B0 JUMP JUMPDEST PUSH1 0x0 PUSH1 0x8 PUSH1 0x0 DUP5 DUP2 MSTORE PUSH1 0x20 ADD SWAP1 DUP2 MSTORE PUSH1 0x20 ADD PUSH1 0x0 KECCAK256 PUSH1 0xC ADD SLOAD SWAP1 POP PUSH1 0x0 DUP2 CALLVALUE PUSH2 0x10C9 SWAP2 SWAP1 PUSH2 0x20C8 JUMP JUMPDEST SWAP1 POP DUP3 PUSH20 0xFFFFFFFFFFFFFFFFFFFFFFFFFFFFFFFFFFFFFFFF AND PUSH2 0x8FC DUP3 SWAP1 DUP2 ISZERO MUL SWAP1 PUSH1 0x40 MLOAD PUSH1 0x0 PUSH1 0x40 MLOAD DUP1 DUP4 SUB DUP2 DUP6 DUP9 DUP9 CALL SWAP4 POP POP POP POP ISZERO DUP1 ISZERO PUSH2 0x1111 JUMPI RETURNDATASIZE PUSH1 0x0 DUP1 RETURNDATACOPY RETURNDATASIZE PUSH1 0x0 REVERT JUMPDEST POP PUSH1 0x0 PUSH2 0x1153 PUSH1 0x8 PUSH1 0x0 DUP11 DUP2 MSTORE PUSH1 0x20 ADD SWAP1 DUP2 MSTORE PUSH1 0x20 ADD PUSH1 0x0 KECCAK256 PUSH1 0x3 ADD PUSH1 0x0 SWAP1 SLOAD SWAP1 PUSH2 0x100 EXP SWAP1 DIV PUSH20 0xFFFFFFFFFFFFFFFFFFFFFFFFFFFFFFFFFFFFFFFF AND PUSH2 0x1557 JUMP JUMPDEST SWAP1 POP DUP1 PUSH20 0xFFFFFFFFFFFFFFFFFFFFFFFFFFFFFFFFFFFFFFFF AND PUSH2 0x8FC PUSH1 0x8 PUSH1 0x0 DUP12 DUP2 MSTORE PUSH1 0x20 ADD SWAP1 DUP2 MSTORE PUSH1 0x20 ADD PUSH1 0x0 KECCAK256 PUSH1 0x7 ADD SLOAD SWAP1 DUP2 ISZERO MUL SWAP1 PUSH1 0x40 MLOAD PUSH1 0x0 PUSH1 0x40 MLOAD DUP1 DUP4 SUB DUP2 DUP6 DUP9 DUP9 CALL SWAP4 POP POP POP POP ISZERO DUP1 ISZERO PUSH2 0x11B1 JUMPI RETURNDATASIZE PUSH1 0x0 DUP1 RETURNDATACOPY RETURNDATASIZE PUSH1 0x0 REVERT JUMPDEST POP PUSH2 0x11BA PUSH2 0x13B0 JUMP JUMPDEST PUSH1 0x8 PUSH1 0x0 DUP11 DUP2 MSTORE PUSH1 0x20 ADD SWAP1 DUP2 MSTORE PUSH1 0x20 ADD PUSH1 0x0 KECCAK256 PUSH1 0x2 ADD PUSH1 0x0 PUSH2 0x100 EXP DUP2 SLOAD DUP2 PUSH20 0xFFFFFFFFFFFFFFFFFFFFFFFFFFFFFFFFFFFFFFFF MUL NOT AND SWAP1 DUP4 PUSH20 0xFFFFFFFFFFFFFFFFFFFFFFFFFFFFFFFFFFFFFFFF AND MUL OR SWAP1 SSTORE POP PUSH2 0x1216 PUSH2 0x13B0 JUMP JUMPDEST PUSH1 0x8 PUSH1 0x0 DUP11 DUP2 MSTORE PUSH1 0x20 ADD SWAP1 DUP2 MSTORE PUSH1 0x20 ADD PUSH1 0x0 KECCAK256 PUSH1 0x9 ADD PUSH1 0x0 PUSH2 0x100 EXP DUP2 SLOAD DUP2 PUSH20 0xFFFFFFFFFFFFFFFFFFFFFFFFFFFFFFFFFFFFFFFF MUL NOT AND SWAP1 DUP4 PUSH20 0xFFFFFFFFFFFFFFFFFFFFFFFFFFFFFFFFFFFFFFFF AND MUL OR SWAP1 SSTORE POP PUSH1 0x2 PUSH1 0x8 PUSH1 0x0 DUP11 DUP2 MSTORE PUSH1 0x20 ADD SWAP1 DUP2 MSTORE PUSH1 0x20 ADD PUSH1 0x0 KECCAK256 PUSH1 0x6 ADD PUSH1 0x0 PUSH2 0x100 EXP DUP2 SLOAD DUP2 PUSH1 0xFF MUL NOT AND SWAP1 DUP4 PUSH1 0xD DUP2 GT ISZERO PUSH2 0x12A4 JUMPI PUSH2 0x12A3 PUSH2 0x1CDB JUMP JUMPDEST JUMPDEST MUL OR SWAP1 SSTORE POP NUMBER PUSH1 0x9 PUSH1 0x0 DUP11 DUP2 MSTORE PUSH1 0x20 ADD SWAP1 DUP2 MSTORE PUSH1 0x20 ADD PUSH1 0x0 KECCAK256 PUSH1 0x0 ADD DUP2 SWAP1 SSTORE POP PUSH32 0xACD9402B9F9E8C15FA7C1819F8393CA56EB61316CC354FC6AC2150AED3CE7931 DUP9 PUSH1 0x40 MLOAD PUSH2 0x12F3 SWAP2 SWAP1 PUSH2 0x1D19 JUMP JUMPDEST PUSH1 0x40 MLOAD DUP1 SWAP2 SUB SWAP1 LOG1 POP POP POP POP POP POP POP POP JUMP JUMPDEST PUSH1 0x0 PUSH20 0xFFFFFFFFFFFFFFFFFFFFFFFFFFFFFFFFFFFFFFFF AND DUP2 PUSH20 0xFFFFFFFFFFFFFFFFFFFFFFFFFFFFFFFFFFFFFFFF AND SUB PUSH2 0x133E JUMPI PUSH1 0x0 DUP1 REVERT JUMPDEST PUSH2 0x1348 DUP3 DUP3 PUSH2 0x146C JUMP JUMPDEST ISZERO PUSH2 0x1352 JUMPI PUSH1 0x0 DUP1 REVERT JUMPDEST PUSH1 0x1 DUP3 PUSH1 0x0 ADD PUSH1 0x0 DUP4 PUSH20 0xFFFFFFFFFFFFFFFFFFFFFFFFFFFFFFFFFFFFFFFF AND PUSH20 0xFFFFFFFFFFFFFFFFFFFFFFFFFFFFFFFFFFFFFFFF AND DUP2 MSTORE PUSH1 0x20 ADD SWAP1 DUP2 MSTORE PUSH1 0x20 ADD PUSH1 0x0 KECCAK256 PUSH1 0x0 PUSH2 0x100 EXP DUP2 SLOAD DUP2 PUSH1 0xFF MUL NOT AND SWAP1 DUP4 ISZERO ISZERO MUL OR SWAP1 SSTORE POP POP POP JUMP JUMPDEST PUSH1 0x0 CALLER SWAP1 POP SWAP1 JUMP JUMPDEST PUSH2 0x13CC DUP2 PUSH1 0x2 PUSH2 0x17D7 SWAP1 SWAP2 SWAP1 PUSH4 0xFFFFFFFF AND JUMP JUMPDEST DUP1 PUSH20 0xFFFFFFFFFFFFFFFFFFFFFFFFFFFFFFFFFFFFFFFF AND PUSH32 0x7F865F710A7604537EB2BC0334F082FA642D210A705398937F53663384485B28 PUSH1 0x40 MLOAD PUSH1 0x40 MLOAD DUP1 SWAP2 SUB SWAP1 LOG2 POP JUMP JUMPDEST PUSH2 0x1426 DUP2 PUSH1 0x4 PUSH2 0x1305 SWAP1 SWAP2 SWAP1 PUSH4 0xFFFFFFFF AND JUMP JUMPDEST DUP1 PUSH20 0xFFFFFFFFFFFFFFFFFFFFFFFFFFFFFFFFFFFFFFFF AND PUSH32 0x28B26E7A3D20AEDBC5F8F2EBF7DA671C0491723A2B78F47A097B0E46DEE07142 PUSH1 0x40 MLOAD PUSH1 0x40 MLOAD DUP1 SWAP2 SUB SWAP1 LOG2 POP JUMP JUMPDEST PUSH1 0x0 DUP1 PUSH20 0xFFFFFFFFFFFFFFFFFFFFFFFFFFFFFFFFFFFFFFFF AND DUP3 PUSH20 0xFFFFFFFFFFFFFFFFFFFFFFFFFFFFFFFFFFFFFFFF AND SUB PUSH2 0x14A6 JUMPI PUSH1 0x0 DUP1 REVERT JUMPDEST DUP3 PUSH1 0x0 ADD PUSH1 0x0 DUP4 PUSH20 0xFFFFFFFFFFFFFFFFFFFFFFFFFFFFFFFFFFFFFFFF AND PUSH20 0xFFFFFFFFFFFFFFFFFFFFFFFFFFFFFFFFFFFFFFFF AND DUP2 MSTORE PUSH1 0x20 ADD SWAP1 DUP2 MSTORE PUSH1 0x20 ADD PUSH1 0x0 KECCAK256 PUSH1 0x0 SWAP1 SLOAD SWAP1 PUSH2 0x100 EXP SWAP1 DIV PUSH1 0xFF AND SWAP1 POP SWAP3 SWAP2 POP POP JUMP JUMPDEST PUSH2 0x1511 DUP2 PUSH1 0x4 PUSH2 0x17D7 SWAP1 SWAP2 SWAP1 PUSH4 0xFFFFFFFF AND JUMP JUMPDEST DUP1 PUSH20 0xFFFFFFFFFFFFFFFFFFFFFFFFFFFFFFFFFFFFFFFF AND PUSH32 0xE3F5ED5F263F1F01764A96EDFC7D025F511EC5F7D180E8816908B78BCF74F098 PUSH1 0x40 MLOAD PUSH1 0x40 MLOAD DUP1 SWAP2 SUB SWAP1 LOG2 POP JUMP JUMPDEST PUSH1 0x0 DUP2 SWAP1 POP SWAP2 SWAP1 POP JUMP JUMPDEST PUSH2 0x1575 DUP2 PUSH1 0x1 PUSH2 0x17D7 SWAP1 SWAP2 SWAP1 PUSH4 0xFFFFFFFF AND JUMP JUMPDEST DUP1 PUSH20 0xFFFFFFFFFFFFFFFFFFFFFFFFFFFFFFFFFFFFFFFF AND PUSH32 0x126174F6CF49C81CDB4A9214C6B8F037BEF55B4EC31E4FC776CEA2A1C8A88D59 PUSH1 0x40 MLOAD PUSH1 0x40 MLOAD DUP1 SWAP2 SUB SWAP1 LOG2 POP JUMP JUMPDEST PUSH2 0x15CF DUP2 PUSH1 0x0 PUSH2 0x1305 SWAP1 SWAP2 SWAP1 PUSH4 0xFFFFFFFF AND JUMP JUMPDEST DUP1 PUSH20 0xFFFFFFFFFFFFFFFFFFFFFFFFFFFFFFFFFFFFFFFF AND PUSH32 0x561138658CA49A8540DC70DCFE64C9026C1C5B9344642242DD6562970F9C1278 PUSH1 0x40 MLOAD PUSH1 0x40 MLOAD DUP1 SWAP2 SUB SWAP1 LOG2 POP JUMP JUMPDEST PUSH2 0x1629 DUP2 PUSH1 0x1 PUSH2 0x1305 SWAP1 SWAP2 SWAP1 PUSH4 0xFFFFFFFF AND JUMP JUMPDEST DUP1 PUSH20 0xFFFFFFFFFFFFFFFFFFFFFFFFFFFFFFFFFFFFFFFF AND PUSH32 0xDDBF200AA634DC3FB81CFD68583DD1040D1C751D335E1D86B631BDE3E977FEA8 PUSH1 0x40 MLOAD PUSH1 0x40 MLOAD DUP1 SWAP2 SUB SWAP1 LOG2 POP JUMP JUMPDEST PUSH2 0x1683 DUP2 PUSH1 0x0 PUSH2 0x17D7 SWAP1 SWAP2 SWAP1 PUSH4 0xFFFFFFFF AND JUMP JUMPDEST DUP1 PUSH20 0xFFFFFFFFFFFFFFFFFFFFFFFFFFFFFFFFFFFFFFFF AND PUSH32 0x2FED5ABF6A80D6DFE30B4895481B2FC5D7DCE5F8F7B931832F4A2947D5040C7F PUSH1 0x40 MLOAD PUSH1 0x40 MLOAD DUP1 SWAP2 SUB SWAP1 LOG2 POP JUMP JUMPDEST PUSH2 0x16DD DUP2 PUSH1 0x3 PUSH2 0x1305 SWAP1 SWAP2 SWAP1 PUSH4 0xFFFFFFFF AND JUMP JUMPDEST DUP1 PUSH20 0xFFFFFFFFFFFFFFFFFFFFFFFFFFFFFFFFFFFFFFFF AND PUSH32 0x71AE26CAD02663E3D92EFD6EC56031A80D74A20C0AB4183FAA8BF262261C9BAA PUSH1 0x40 MLOAD PUSH1 0x40 MLOAD DUP1 SWAP2 SUB SWAP1 LOG2 POP JUMP JUMPDEST PUSH2 0x1737 DUP2 PUSH1 0x2 PUSH2 0x1305 SWAP1 SWAP2 SWAP1 PUSH4 0xFFFFFFFF AND JUMP JUMPDEST DUP1 PUSH20 0xFFFFFFFFFFFFFFFFFFFFFFFFFFFFFFFFFFFFFFFF AND PUSH32 0xD8A7AD7929975A375D2B12BF49040286B5B105DF0FE351F10DF6D85E5B7142F7 PUSH1 0x40 MLOAD PUSH1 0x40 MLOAD DUP1 SWAP2 SUB SWAP1 LOG2 POP JUMP JUMPDEST PUSH2 0x1791 DUP2 PUSH1 0x3 PUSH2 0x17D7 SWAP1 SWAP2 SWAP1 PUSH4 0xFFFFFFFF AND JUMP JUMPDEST DUP1 PUSH20 0xFFFFFFFFFFFFFFFFFFFFFFFFFFFFFFFFFFFFFFFF AND PUSH32 0xDB7176E79CFFEF81CB01767DD0447A0B24BB72CA9778D4B245581086B2A7E6DB PUSH1 0x40 MLOAD PUSH1 0x40 MLOAD DUP1 SWAP2 SUB SWAP1 LOG2 POP JUMP JUMPDEST PUSH1 0x0 PUSH20 0xFFFFFFFFFFFFFFFFFFFFFFFFFFFFFFFFFFFFFFFF AND DUP2 PUSH20 0xFFFFFFFFFFFFFFFFFFFFFFFFFFFFFFFFFFFFFFFF AND SUB PUSH2 0x1810 JUMPI PUSH1 0x0 DUP1 REVERT JUMPDEST PUSH2 0x181A DUP3 DUP3 PUSH2 0x146C JUMP JUMPDEST PUSH2 0x1823 JUMPI PUSH1 0x0 DUP1 REVERT JUMPDEST PUSH1 0x0 DUP3 PUSH1 0x0 ADD PUSH1 0x0 DUP4 PUSH20 0xFFFFFFFFFFFFFFFFFFFFFFFFFFFFFFFFFFFFFFFF AND PUSH20 0xFFFFFFFFFFFFFFFFFFFFFFFFFFFFFFFFFFFFFFFF AND DUP2 MSTORE PUSH1 0x20 ADD SWAP1 DUP2 MSTORE PUSH1 0x20 ADD PUSH1 0x0 KECCAK256 PUSH1 0x0 PUSH2 0x100 EXP DUP2 SLOAD DUP2 PUSH1 0xFF MUL NOT AND SWAP1 DUP4 ISZERO ISZERO MUL OR SWAP1 SSTORE POP POP POP JUMP JUMPDEST PUSH1 0x40 MLOAD DUP1 PUSH2 0x1C0 ADD PUSH1 0x40 MSTORE DUP1 PUSH1 0x0 DUP2 MSTORE PUSH1 0x20 ADD PUSH1 0x0 DUP2 MSTORE PUSH1 0x20 ADD PUSH1 0x0 PUSH20 0xFFFFFFFFFFFFFFFFFFFFFFFFFFFFFFFFFFFFFFFF AND DUP2 MSTORE PUSH1 0x20 ADD PUSH1 0x0 PUSH20 0xFFFFFFFFFFFFFFFFFFFFFFFFFFFFFFFFFFFFFFFF AND DUP2 MSTORE PUSH1 0x20 ADD PUSH1 0x0 DUP2 MSTORE PUSH1 0x20 ADD PUSH1 0x60 DUP2 MSTORE PUSH1 0x20 ADD PUSH1 0x0 PUSH1 0xD DUP2 GT ISZERO PUSH2 0x18F7 JUMPI PUSH2 0x18F6 PUSH2 0x1CDB JUMP JUMPDEST JUMPDEST DUP2 MSTORE PUSH1 0x20 ADD PUSH1 0x0 DUP2 MSTORE PUSH1 0x20 ADD PUSH1 0x0 PUSH20 0xFFFFFFFFFFFFFFFFFFFFFFFFFFFFFFFFFFFFFFFF AND DUP2 MSTORE PUSH1 0x20 ADD PUSH1 0x0 PUSH20 0xFFFFFFFFFFFFFFFFFFFFFFFFFFFFFFFFFFFFFFFF AND DUP2 MSTORE PUSH1 0x20 ADD PUSH1 0x0 PUSH20 0xFFFFFFFFFFFFFFFFFFFFFFFFFFFFFFFFFFFFFFFF AND DUP2 MSTORE PUSH1 0x20 ADD PUSH1 0x0 PUSH20 0xFFFFFFFFFFFFFFFFFFFFFFFFFFFFFFFFFFFFFFFF AND DUP2 MSTORE PUSH1 0x20 ADD PUSH1 0x0 DUP2 MSTORE PUSH1 0x20 ADD PUSH1 0x0 DUP2 MSTORE POP SWAP1 JUMP JUMPDEST PUSH1 0x40 MLOAD DUP1 PUSH1 0x80 ADD PUSH1 0x40 MSTORE DUP1 PUSH1 0x0 DUP2 MSTORE PUSH1 0x20 ADD PUSH1 0x0 DUP2 MSTORE PUSH1 0x20 ADD PUSH1 0x0 DUP2 MSTORE PUSH1 0x20 ADD PUSH1 0x0 DUP2 MSTORE POP SWAP1 JUMP JUMPDEST PUSH1 0x0 PUSH1 0x40 MLOAD SWAP1 POP SWAP1 JUMP JUMPDEST PUSH1 0x0 DUP1 REVERT JUMPDEST PUSH1 0x0 DUP1 REVERT JUMPDEST PUSH1 0x0 PUSH20 0xFFFFFFFFFFFFFFFFFFFFFFFFFFFFFFFFFFFFFFFF DUP3 AND SWAP1 POP SWAP2 SWAP1 POP JUMP JUMPDEST PUSH1 0x0 PUSH2 0x19ED DUP3 PUSH2 0x19C2 JUMP JUMPDEST SWAP1 POP SWAP2 SWAP1 POP JUMP JUMPDEST PUSH2 0x19FD DUP2 PUSH2 0x19E2 JUMP JUMPDEST DUP2 EQ PUSH2 0x1A08 JUMPI PUSH1 0x0 DUP1 REVERT JUMPDEST POP JUMP JUMPDEST PUSH1 0x0 DUP2 CALLDATALOAD SWAP1 POP PUSH2 0x1A1A DUP2 PUSH2 0x19F4 JUMP JUMPDEST SWAP3 SWAP2 POP POP JUMP JUMPDEST PUSH1 0x0 PUSH1 0x20 DUP3 DUP5 SUB SLT ISZERO PUSH2 0x1A36 JUMPI PUSH2 0x1A35 PUSH2 0x19B8 JUMP JUMPDEST JUMPDEST PUSH1 0x0 PUSH2 0x1A44 DUP5 DUP3 DUP6 ADD PUSH2 0x1A0B JUMP JUMPDEST SWAP2 POP POP SWAP3 SWAP2 POP POP JUMP JUMPDEST PUSH1 0x0 DUP2 ISZERO ISZERO SWAP1 POP SWAP2 SWAP1 POP JUMP JUMPDEST PUSH2 0x1A62 DUP2 PUSH2 0x1A4D JUMP JUMPDEST DUP3 MSTORE POP POP JUMP JUMPDEST PUSH1 0x0 PUSH1 0x20 DUP3 ADD SWAP1 POP PUSH2 0x1A7D PUSH1 0x0 DUP4 ADD DUP5 PUSH2 0x1A59 JUMP JUMPDEST SWAP3 SWAP2 POP POP JUMP JUMPDEST PUSH1 0x0 DUP2 SWAP1 POP SWAP2 SWAP1 POP JUMP JUMPDEST PUSH2 0x1A96 DUP2 PUSH2 0x1A83 JUMP JUMPDEST DUP2 EQ PUSH2 0x1AA1 JUMPI PUSH1 0x0 DUP1 REVERT JUMPDEST POP JUMP JUMPDEST PUSH1 0x0 DUP2 CALLDATALOAD SWAP1 POP PUSH2 0x1AB3 DUP2 PUSH2 0x1A8D JUMP JUMPDEST SWAP3 SWAP2 POP POP JUMP JUMPDEST PUSH1 0x0 PUSH1 0x20 DUP3 DUP5 SUB SLT ISZERO PUSH2 0x1ACF JUMPI PUSH2 0x1ACE PUSH2 0x19B8 JUMP JUMPDEST JUMPDEST PUSH1 0x0 PUSH2 0x1ADD DUP5 DUP3 DUP6 ADD PUSH2 0x1AA4 JUMP JUMPDEST SWAP2 POP POP SWAP3 SWAP2 POP POP JUMP JUMPDEST PUSH1 0x0 DUP1 REVERT JUMPDEST PUSH1 0x0 DUP1 REVERT JUMPDEST PUSH1 0x0 PUSH1 0x1F NOT PUSH1 0x1F DUP4 ADD AND SWAP1 POP SWAP2 SWAP1 POP JUMP JUMPDEST PUSH32 0x4E487B7100000000000000000000000000000000000000000000000000000000 PUSH1 0x0 MSTORE PUSH1 0x41 PUSH1 0x4 MSTORE PUSH1 0x24 PUSH1 0x0 REVERT JUMPDEST PUSH2 0x1B39 DUP3 PUSH2 0x1AF0 JUMP JUMPDEST DUP2 ADD DUP2 DUP2 LT PUSH8 0xFFFFFFFFFFFFFFFF DUP3 GT OR ISZERO PUSH2 0x1B58 JUMPI PUSH2 0x1B57 PUSH2 0x1B01 JUMP JUMPDEST JUMPDEST DUP1 PUSH1 0x40 MSTORE POP POP POP JUMP JUMPDEST PUSH1 0x0 PUSH2 0x1B6B PUSH2 0x19AE JUMP JUMPDEST SWAP1 POP PUSH2 0x1B77 DUP3 DUP3 PUSH2 0x1B30 JUMP JUMPDEST SWAP2 SWAP1 POP JUMP JUMPDEST PUSH1 0x0 PUSH8 0xFFFFFFFFFFFFFFFF DUP3 GT ISZERO PUSH2 0x1B97 JUMPI PUSH2 0x1B96 PUSH2 0x1B01 JUMP JUMPDEST JUMPDEST PUSH2 0x1BA0 DUP3 PUSH2 0x1AF0 JUMP JUMPDEST SWAP1 POP PUSH1 0x20 DUP2 ADD SWAP1 POP SWAP2 SWAP1 POP JUMP JUMPDEST DUP3 DUP2 DUP4 CALLDATACOPY PUSH1 0x0 DUP4 DUP4 ADD MSTORE POP POP POP JUMP JUMPDEST PUSH1 0x0 PUSH2 0x1BCF PUSH2 0x1BCA DUP5 PUSH2 0x1B7C JUMP JUMPDEST PUSH2 0x1B61 JUMP JUMPDEST SWAP1 POP DUP3 DUP2 MSTORE PUSH1 0x20 DUP2 ADD DUP5 DUP5 DUP5 ADD GT ISZERO PUSH2 0x1BEB JUMPI PUSH2 0x1BEA PUSH2 0x1AEB JUMP JUMPDEST JUMPDEST PUSH2 0x1BF6 DUP5 DUP3 DUP6 PUSH2 0x1BAD JUMP JUMPDEST POP SWAP4 SWAP3 POP POP POP JUMP JUMPDEST PUSH1 0x0 DUP3 PUSH1 0x1F DUP4 ADD SLT PUSH2 0x1C13 JUMPI PUSH2 0x1C12 PUSH2 0x1AE6 JUMP JUMPDEST JUMPDEST DUP2 CALLDATALOAD PUSH2 0x1C23 DUP5 DUP3 PUSH1 0x20 DUP7 ADD PUSH2 0x1BBC JUMP JUMPDEST SWAP2 POP POP SWAP3 SWAP2 POP POP JUMP JUMPDEST PUSH1 0x0 DUP1 PUSH1 0x0 PUSH1 0x60 DUP5 DUP7 SUB SLT ISZERO PUSH2 0x1C45 JUMPI PUSH2 0x1C44 PUSH2 0x19B8 JUMP JUMPDEST JUMPDEST PUSH1 0x0 PUSH2 0x1C53 DUP7 DUP3 DUP8 ADD PUSH2 0x1AA4 JUMP JUMPDEST SWAP4 POP POP PUSH1 0x20 DUP5 ADD CALLDATALOAD PUSH8 0xFFFFFFFFFFFFFFFF DUP2 GT ISZERO PUSH2 0x1C74 JUMPI PUSH2 0x1C73 PUSH2 0x19BD JUMP JUMPDEST JUMPDEST PUSH2 0x1C80 DUP7 DUP3 DUP8 ADD PUSH2 0x1BFE JUMP JUMPDEST SWAP3 POP POP PUSH1 0x40 PUSH2 0x1C91 DUP7 DUP3 DUP8 ADD PUSH2 0x1AA4 JUMP JUMPDEST SWAP2 POP POP SWAP3 POP SWAP3 POP SWAP3 JUMP JUMPDEST PUSH1 0x0 DUP1 PUSH1 0x40 DUP4 DUP6 SUB SLT ISZERO PUSH2 0x1CB2 JUMPI PUSH2 0x1CB1 PUSH2 0x19B8 JUMP JUMPDEST JUMPDEST PUSH1 0x0 PUSH2 0x1CC0 DUP6 DUP3 DUP7 ADD PUSH2 0x1AA4 JUMP JUMPDEST SWAP3 POP POP PUSH1 0x20 PUSH2 0x1CD1 DUP6 DUP3 DUP7 ADD PUSH2 0x1AA4 JUMP JUMPDEST SWAP2 POP POP SWAP3 POP SWAP3 SWAP1 POP JUMP JUMPDEST PUSH32 0x4E487B7100000000000000000000000000000000000000000000000000000000 PUSH1 0x0 MSTORE PUSH1 0x21 PUSH1 0x4 MSTORE PUSH1 0x24 PUSH1 0x0 REVERT JUMPDEST PUSH2 0x1D13 DUP2 PUSH2 0x1A83 JUMP JUMPDEST DUP3 MSTORE POP POP JUMP JUMPDEST PUSH1 0x0 PUSH1 0x20 DUP3 ADD SWAP1 POP PUSH2 0x1D2E PUSH1 0x0 DUP4 ADD DUP5 PUSH2 0x1D0A JUMP JUMPDEST SWAP3 SWAP2 POP POP JUMP JUMPDEST PUSH32 0x4E487B7100000000000000000000000000000000000000000000000000000000 PUSH1 0x0 MSTORE PUSH1 0x11 PUSH1 0x4 MSTORE PUSH1 0x24 PUSH1 0x0 REVERT JUMPDEST PUSH1 0x0 PUSH2 0x1D6E DUP3 PUSH2 0x1A83 JUMP JUMPDEST SWAP2 POP PUSH2 0x1D79 DUP4 PUSH2 0x1A83 JUMP JUMPDEST SWAP3 POP DUP3 DUP3 ADD SWAP1 POP DUP1 DUP3 GT ISZERO PUSH2 0x1D91 JUMPI PUSH2 0x1D90 PUSH2 0x1D34 JUMP JUMPDEST JUMPDEST SWAP3 SWAP2 POP POP JUMP JUMPDEST PUSH1 0x0 DUP2 MLOAD SWAP1 POP SWAP2 SWAP1 POP JUMP JUMPDEST PUSH32 0x4E487B7100000000000000000000000000000000000000000000000000000000 PUSH1 0x0 MSTORE PUSH1 0x22 PUSH1 0x4 MSTORE PUSH1 0x24 PUSH1 0x0 REVERT JUMPDEST PUSH1 0x0 PUSH1 0x2 DUP3 DIV SWAP1 POP PUSH1 0x1 DUP3 AND DUP1 PUSH2 0x1DE9 JUMPI PUSH1 0x7F DUP3 AND SWAP2 POP JUMPDEST PUSH1 0x20 DUP3 LT DUP2 SUB PUSH2 0x1DFC JUMPI PUSH2 0x1DFB PUSH2 0x1DA2 JUMP JUMPDEST JUMPDEST POP SWAP2 SWAP1 POP JUMP JUMPDEST PUSH1 0x0 DUP2 SWAP1 POP DUP2 PUSH1 0x0 MSTORE PUSH1 0x20 PUSH1 0x0 KECCAK256 SWAP1 POP SWAP2 SWAP1 POP JUMP JUMPDEST PUSH1 0x0 PUSH1 0x20 PUSH1 0x1F DUP4 ADD DIV SWAP1 POP SWAP2 SWAP1 POP JUMP JUMPDEST PUSH1 0x0 DUP3 DUP3 SHL SWAP1 POP SWAP3 SWAP2 POP POP JUMP JUMPDEST PUSH1 0x0 PUSH1 0x8 DUP4 MUL PUSH2 0x1E64 PUSH32 0xFFFFFFFFFFFFFFFFFFFFFFFFFFFFFFFFFFFFFFFFFFFFFFFFFFFFFFFFFFFFFFFF DUP3 PUSH2 0x1E27 JUMP JUMPDEST PUSH2 0x1E6E DUP7 DUP4 PUSH2 0x1E27 JUMP JUMPDEST SWAP6 POP DUP1 NOT DUP5 AND SWAP4 POP DUP1 DUP7 AND DUP5 OR SWAP3 POP POP POP SWAP4 SWAP3 POP POP POP JUMP JUMPDEST PUSH1 0x0 DUP2 SWAP1 POP SWAP2 SWAP1 POP JUMP JUMPDEST PUSH1 0x0 PUSH2 0x1EAB PUSH2 0x1EA6 PUSH2 0x1EA1 DUP5 PUSH2 0x1A83 JUMP JUMPDEST PUSH2 0x1E86 JUMP JUMPDEST PUSH2 0x1A83 JUMP JUMPDEST SWAP1 POP SWAP2 SWAP1 POP JUMP JUMPDEST PUSH1 0x0 DUP2 SWAP1 POP SWAP2 SWAP1 POP JUMP JUMPDEST PUSH2 0x1EC5 DUP4 PUSH2 0x1E90 JUMP JUMPDEST PUSH2 0x1ED9 PUSH2 0x1ED1 DUP3 PUSH2 0x1EB2 JUMP JUMPDEST DUP5 DUP5 SLOAD PUSH2 0x1E34 JUMP JUMPDEST DUP3 SSTORE POP POP POP POP JUMP JUMPDEST PUSH1 0x0 SWAP1 JUMP JUMPDEST PUSH2 0x1EEE PUSH2 0x1EE1 JUMP JUMPDEST PUSH2 0x1EF9 DUP2 DUP5 DUP5 PUSH2 0x1EBC JUMP JUMPDEST POP POP POP JUMP JUMPDEST JUMPDEST DUP2 DUP2 LT ISZERO PUSH2 0x1F1D JUMPI PUSH2 0x1F12 PUSH1 0x0 DUP3 PUSH2 0x1EE6 JUMP JUMPDEST PUSH1 0x1 DUP2 ADD SWAP1 POP PUSH2 0x1EFF JUMP JUMPDEST POP POP JUMP JUMPDEST PUSH1 0x1F DUP3 GT ISZERO PUSH2 0x1F62 JUMPI PUSH2 0x1F33 DUP2 PUSH2 0x1E02 JUMP JUMPDEST PUSH2 0x1F3C DUP5 PUSH2 0x1E17 JUMP JUMPDEST DUP2 ADD PUSH1 0x20 DUP6 LT ISZERO PUSH2 0x1F4B JUMPI DUP2 SWAP1 POP JUMPDEST PUSH2 0x1F5F PUSH2 0x1F57 DUP6 PUSH2 0x1E17 JUMP JUMPDEST DUP4 ADD DUP3 PUSH2 0x1EFE JUMP JUMPDEST POP POP JUMPDEST POP POP POP JUMP JUMPDEST PUSH1 0x0 DUP3 DUP3 SHR SWAP1 POP SWAP3 SWAP2 POP POP JUMP JUMPDEST PUSH1 0x0 PUSH2 0x1F85 PUSH1 0x0 NOT DUP5 PUSH1 0x8 MUL PUSH2 0x1F67 JUMP JUMPDEST NOT DUP1 DUP4 AND SWAP2 POP POP SWAP3 SWAP2 POP POP JUMP JUMPDEST PUSH1 0x0 PUSH2 0x1F9E DUP4 DUP4 PUSH2 0x1F74 JUMP JUMPDEST SWAP2 POP DUP3 PUSH1 0x2 MUL DUP3 OR SWAP1 POP SWAP3 SWAP2 POP POP JUMP JUMPDEST PUSH2 0x1FB7 DUP3 PUSH2 0x1D97 JUMP JUMPDEST PUSH8 0xFFFFFFFFFFFFFFFF DUP2 GT ISZERO PUSH2 0x1FD0 JUMPI PUSH2 0x1FCF PUSH2 0x1B01 JUMP JUMPDEST JUMPDEST PUSH2 0x1FDA DUP3 SLOAD PUSH2 0x1DD1 JUMP JUMPDEST PUSH2 0x1FE5 DUP3 DUP3 DUP6 PUSH2 0x1F21 JUMP JUMPDEST PUSH1 0x0 PUSH1 0x20 SWAP1 POP PUSH1 0x1F DUP4 GT PUSH1 0x1 DUP2 EQ PUSH2 0x2018 JUMPI PUSH1 0x0 DUP5 ISZERO PUSH2 0x2006 JUMPI DUP3 DUP8 ADD MLOAD SWAP1 POP JUMPDEST PUSH2 0x2010 DUP6 DUP3 PUSH2 0x1F92 JUMP JUMPDEST DUP7 SSTORE POP PUSH2 0x2078 JUMP JUMPDEST PUSH1 0x1F NOT DUP5 AND PUSH2 0x2026 DUP7 PUSH2 0x1E02 JUMP JUMPDEST PUSH1 0x0 JUMPDEST DUP3 DUP2 LT ISZERO PUSH2 0x204E JUMPI DUP5 DUP10 ADD MLOAD DUP3 SSTORE PUSH1 0x1 DUP3 ADD SWAP2 POP PUSH1 0x20 DUP6 ADD SWAP5 POP PUSH1 0x20 DUP2 ADD SWAP1 POP PUSH2 0x2029 JUMP JUMPDEST DUP7 DUP4 LT ISZERO PUSH2 0x206B JUMPI DUP5 DUP10 ADD MLOAD PUSH2 0x2067 PUSH1 0x1F DUP10 AND DUP3 PUSH2 0x1F74 JUMP JUMPDEST DUP4 SSTORE POP JUMPDEST PUSH1 0x1 PUSH1 0x2 DUP9 MUL ADD DUP9 SSTORE POP POP POP JUMPDEST POP POP POP POP POP POP JUMP JUMPDEST PUSH1 0x0 PUSH2 0x208B DUP3 PUSH2 0x1A83 JUMP JUMPDEST SWAP2 POP PUSH32 0xFFFFFFFFFFFFFFFFFFFFFFFFFFFFFFFFFFFFFFFFFFFFFFFFFFFFFFFFFFFFFFFF DUP3 SUB PUSH2 0x20BD JUMPI PUSH2 0x20BC PUSH2 0x1D34 JUMP JUMPDEST JUMPDEST PUSH1 0x1 DUP3 ADD SWAP1 POP SWAP2 SWAP1 POP JUMP JUMPDEST PUSH1 0x0 PUSH2 0x20D3 DUP3 PUSH2 0x1A83 JUMP JUMPDEST SWAP2 POP PUSH2 0x20DE DUP4 PUSH2 0x1A83 JUMP JUMPDEST SWAP3 POP DUP3 DUP3 SUB SWAP1 POP DUP2 DUP2 GT ISZERO PUSH2 0x20F6 JUMPI PUSH2 0x20F5 PUSH2 0x1D34 JUMP JUMPDEST JUMPDEST SWAP3 SWAP2 POP POP JUMP INVALID LOG2 PUSH5 0x6970667358 0x22 SLT KECCAK256 CALL LOG3 DUP10 0x23 0xA5 0xA6 PUSH30 0x5D66490CE4CD8A37728064A2CE9B75F6A922C34C54B5C1B8AC64736F6C63 NUMBER STOP ADDMOD SLT STOP CALLER "
				},
				"gasEstimates": {
					"creation": {
						"codeDepositCost": "1699600",
						"executionCost": "infinite",
						"totalCost": "infinite"
					},
					"external": {
						"ProduceItemByManufacturer(uint256,string,uint256)": "infinite",
						"addConsumer(address)": "infinite",
						"addDistributor(address)": "infinite",
						"addManufacturer(address)": "infinite",
						"addRetailer(address)": "infinite",
						"addWholesaler(address)": "infinite",
						"isConsumer(address)": "infinite",
						"isDistributor(address)": "infinite",
						"isManufacturer(address)": "infinite",
						"isRetailer(address)": "infinite",
						"isWholesaler(address)": "infinite",
						"kill()": "32161",
						"purchaseItemByDistributor(uint256)": "infinite",
						"receivedItemByDistributor(uint256)": "infinite",
						"renouceConsumer()": "infinite",
						"renouceDistributor()": "infinite",
						"renouceManufaturer()": "infinite",
						"renouceRetailer()": "infinite",
						"renouceWholesaler()": "infinite",
						"sellItemByFarmer(uint256,uint256)": "infinite",
						"shippedItemByFarmer(uint256)": "infinite"
					},
					"internal": {
						"_make_payable(address)": "28"
					}
				},
				"methodIdentifiers": {
					"ProduceItemByManufacturer(uint256,string,uint256)": "ad88bac8",
					"addConsumer(address)": "112940f9",
					"addDistributor(address)": "7250e224",
					"addManufacturer(address)": "5f8a5afa",
					"addRetailer(address)": "8ec4f505",
					"addWholesaler(address)": "de63bdb9",
					"isConsumer(address)": "834ff739",
					"isDistributor(address)": "8f0c86fa",
					"isManufacturer(address)": "17d4a491",
					"isRetailer(address)": "5da09b88",
					"isWholesaler(address)": "64d1ba1f",
					"kill()": "41c0e1b5",
					"purchaseItemByDistributor(uint256)": "fdcdc06f",
					"receivedItemByDistributor(uint256)": "24cb1669",
					"renouceConsumer()": "3496c175",
					"renouceDistributor()": "4ea90d2d",
					"renouceManufaturer()": "8b828a08",
					"renouceRetailer()": "e34d7a07",
					"renouceWholesaler()": "070ef987",
					"sellItemByFarmer(uint256,uint256)": "e618f000",
					"shippedItemByFarmer(uint256)": "71f3ff90"
				}
			},
			"storageLayout": {
				"storage": [
					{
						"astId": 236,
						"contract": "Supplychain/Supplychain1.sol:Supplychain1",
						"label": "manufacturers",
						"offset": 0,
						"slot": "0",
						"type": "t_struct(Role)438_storage"
					},
					{
						"astId": 128,
						"contract": "Supplychain/Supplychain1.sol:Supplychain1",
						"label": "distributors",
						"offset": 0,
						"slot": "1",
						"type": "t_struct(Role)438_storage"
					},
					{
						"astId": 554,
						"contract": "Supplychain/Supplychain1.sol:Supplychain1",
						"label": "wholesalers",
						"offset": 0,
						"slot": "2",
						"type": "t_struct(Role)438_storage"
					},
					{
						"astId": 344,
						"contract": "Supplychain/Supplychain1.sol:Supplychain1",
						"label": "retailers",
						"offset": 0,
						"slot": "3",
						"type": "t_struct(Role)438_storage"
					},
					{
						"astId": 20,
						"contract": "Supplychain/Supplychain1.sol:Supplychain1",
						"label": "consumers",
						"offset": 0,
						"slot": "4",
						"type": "t_struct(Role)438_storage"
					},
					{
						"astId": 781,
						"contract": "Supplychain/Supplychain1.sol:Supplychain1",
						"label": "owner",
						"offset": 0,
						"slot": "5",
						"type": "t_address"
					},
					{
						"astId": 783,
						"contract": "Supplychain/Supplychain1.sol:Supplychain1",
						"label": "productCode",
						"offset": 0,
						"slot": "6",
						"type": "t_uint256"
					},
					{
						"astId": 785,
						"contract": "Supplychain/Supplychain1.sol:Supplychain1",
						"label": "stockUnit",
						"offset": 0,
						"slot": "7",
						"type": "t_uint256"
					},
					{
						"astId": 790,
						"contract": "Supplychain/Supplychain1.sol:Supplychain1",
						"label": "items",
						"offset": 0,
						"slot": "8",
						"type": "t_mapping(t_uint256,t_struct(Item)862_storage)"
					},
					{
						"astId": 795,
						"contract": "Supplychain/Supplychain1.sol:Supplychain1",
						"label": "itemsHistory",
						"offset": 0,
						"slot": "9",
						"type": "t_mapping(t_uint256,t_struct(txBlocks)871_storage)"
					}
				],
				"types": {
					"t_address": {
						"encoding": "inplace",
						"label": "address",
						"numberOfBytes": "20"
					},
					"t_bool": {
						"encoding": "inplace",
						"label": "bool",
						"numberOfBytes": "1"
					},
					"t_enum(state)810": {
						"encoding": "inplace",
						"label": "enum Supplychain1.state",
						"numberOfBytes": "1"
					},
					"t_mapping(t_address,t_bool)": {
						"encoding": "mapping",
						"key": "t_address",
						"label": "mapping(address => bool)",
						"numberOfBytes": "32",
						"value": "t_bool"
					},
					"t_mapping(t_uint256,t_struct(Item)862_storage)": {
						"encoding": "mapping",
						"key": "t_uint256",
						"label": "mapping(uint256 => struct Supplychain1.Item)",
						"numberOfBytes": "32",
						"value": "t_struct(Item)862_storage"
					},
					"t_mapping(t_uint256,t_struct(txBlocks)871_storage)": {
						"encoding": "mapping",
						"key": "t_uint256",
						"label": "mapping(uint256 => struct Supplychain1.txBlocks)",
						"numberOfBytes": "32",
						"value": "t_struct(txBlocks)871_storage"
					},
					"t_string_storage": {
						"encoding": "bytes",
						"label": "string",
						"numberOfBytes": "32"
					},
					"t_struct(Item)862_storage": {
						"encoding": "inplace",
						"label": "struct Supplychain1.Item",
						"members": [
							{
								"astId": 834,
								"contract": "Supplychain/Supplychain1.sol:Supplychain1",
								"label": "stockUnit",
								"offset": 0,
								"slot": "0",
								"type": "t_uint256"
							},
							{
								"astId": 836,
								"contract": "Supplychain/Supplychain1.sol:Supplychain1",
								"label": "productCode",
								"offset": 0,
								"slot": "1",
								"type": "t_uint256"
							},
							{
								"astId": 838,
								"contract": "Supplychain/Supplychain1.sol:Supplychain1",
								"label": "ownerID",
								"offset": 0,
								"slot": "2",
								"type": "t_address"
							},
							{
								"astId": 840,
								"contract": "Supplychain/Supplychain1.sol:Supplychain1",
								"label": "manufacturerID",
								"offset": 0,
								"slot": "3",
								"type": "t_address"
							},
							{
								"astId": 842,
								"contract": "Supplychain/Supplychain1.sol:Supplychain1",
								"label": "productID",
								"offset": 0,
								"slot": "4",
								"type": "t_uint256"
							},
							{
								"astId": 844,
								"contract": "Supplychain/Supplychain1.sol:Supplychain1",
								"label": "productInfo",
								"offset": 0,
								"slot": "5",
								"type": "t_string_storage"
							},
							{
								"astId": 847,
								"contract": "Supplychain/Supplychain1.sol:Supplychain1",
								"label": "itemState",
								"offset": 0,
								"slot": "6",
								"type": "t_enum(state)810"
							},
							{
								"astId": 849,
								"contract": "Supplychain/Supplychain1.sol:Supplychain1",
								"label": "productPrice",
								"offset": 0,
								"slot": "7",
								"type": "t_uint256"
							},
							{
								"astId": 851,
								"contract": "Supplychain/Supplychain1.sol:Supplychain1",
								"label": "wholesalerID",
								"offset": 0,
								"slot": "8",
								"type": "t_address"
							},
							{
								"astId": 853,
								"contract": "Supplychain/Supplychain1.sol:Supplychain1",
								"label": "distributorID",
								"offset": 0,
								"slot": "9",
								"type": "t_address"
							},
							{
								"astId": 855,
								"contract": "Supplychain/Supplychain1.sol:Supplychain1",
								"label": "retailerID",
								"offset": 0,
								"slot": "10",
								"type": "t_address"
							},
							{
								"astId": 857,
								"contract": "Supplychain/Supplychain1.sol:Supplychain1",
								"label": "consumerID",
								"offset": 0,
								"slot": "11",
								"type": "t_address"
							},
							{
								"astId": 859,
								"contract": "Supplychain/Supplychain1.sol:Supplychain1",
								"label": "itemPrice",
								"offset": 0,
								"slot": "12",
								"type": "t_uint256"
							},
							{
								"astId": 861,
								"contract": "Supplychain/Supplychain1.sol:Supplychain1",
								"label": "ProductQuantity",
								"offset": 0,
								"slot": "13",
								"type": "t_uint256"
							}
						],
						"numberOfBytes": "448"
					},
					"t_struct(Role)438_storage": {
						"encoding": "inplace",
						"label": "struct Roles.Role",
						"members": [
							{
								"astId": 437,
								"contract": "Supplychain/Supplychain1.sol:Supplychain1",
								"label": "bearer",
								"offset": 0,
								"slot": "0",
								"type": "t_mapping(t_address,t_bool)"
							}
						],
						"numberOfBytes": "32"
					},
					"t_struct(txBlocks)871_storage": {
						"encoding": "inplace",
						"label": "struct Supplychain1.txBlocks",
						"members": [
							{
								"astId": 864,
								"contract": "Supplychain/Supplychain1.sol:Supplychain1",
								"label": "FTD",
								"offset": 0,
								"slot": "0",
								"type": "t_uint256"
							},
							{
								"astId": 866,
								"contract": "Supplychain/Supplychain1.sol:Supplychain1",
								"label": "DTW",
								"offset": 0,
								"slot": "1",
								"type": "t_uint256"
							},
							{
								"astId": 868,
								"contract": "Supplychain/Supplychain1.sol:Supplychain1",
								"label": "WTR",
								"offset": 0,
								"slot": "2",
								"type": "t_uint256"
							},
							{
								"astId": 870,
								"contract": "Supplychain/Supplychain1.sol:Supplychain1",
								"label": "RTC",
								"offset": 0,
								"slot": "3",
								"type": "t_uint256"
							}
						],
						"numberOfBytes": "128"
					},
					"t_uint256": {
						"encoding": "inplace",
						"label": "uint256",
						"numberOfBytes": "32"
					}
				}
			},
			"userdoc": {
				"kind": "user",
				"methods": {},
				"version": 1
			}
		}
	}
}