{
	"Contracts/Access/Distributor.sol": {
		"Distributor": {
			"abi": [
				{
					"inputs": [],
					"stateMutability": "nonpayable",
					"type": "constructor"
				},
				{
					"anonymous": false,
					"inputs": [
						{
							"indexed": true,
							"internalType": "address",
							"name": "account",
							"type": "address"
						}
					],
					"name": "DistributorAdded",
					"type": "event"
				},
				{
					"anonymous": false,
					"inputs": [
						{
							"indexed": true,
							"internalType": "address",
							"name": "account",
							"type": "address"
						}
					],
					"name": "DistributorRemoved",
					"type": "event"
				},
				{
					"inputs": [
						{
							"internalType": "address",
							"name": "account",
							"type": "address"
						}
					],
					"name": "addDistributor",
					"outputs": [],
					"stateMutability": "nonpayable",
					"type": "function"
				},
				{
					"inputs": [
						{
							"internalType": "address",
							"name": "account",
							"type": "address"
						}
					],
					"name": "isDistributor",
					"outputs": [
						{
							"internalType": "bool",
							"name": "",
							"type": "bool"
						}
					],
					"stateMutability": "view",
					"type": "function"
				},
				{
					"inputs": [],
					"name": "renouceDistributor",
					"outputs": [],
					"stateMutability": "nonpayable",
					"type": "function"
				}
			],
			"devdoc": {
				"kind": "dev",
				"methods": {},
				"version": 1
			},
			"evm": {
				"assembly": "    /* \"Contracts/Access/Distributor.sol\":121:1338  contract Distributor is Context{... */\n  mstore(0x40, 0x80)\n    /* \"Contracts/Access/Distributor.sol\":361:423  constructor() {... */\n  callvalue\n  dup1\n  iszero\n  tag_1\n  jumpi\n  0x00\n  dup1\n  revert\ntag_1:\n  pop\n    /* \"Contracts/Access/Distributor.sol\":385:414  _addDistributor(_msgSender()) */\n  tag_4\n    /* \"Contracts/Access/Distributor.sol\":401:413  _msgSender() */\n  tag_5\n    /* \"Contracts/Access/Distributor.sol\":401:411  _msgSender */\n  shl(0x20, tag_6)\n    /* \"Contracts/Access/Distributor.sol\":401:413  _msgSender() */\n  0x20\n  shr\n  jump\t// in\ntag_5:\n    /* \"Contracts/Access/Distributor.sol\":385:400  _addDistributor */\n  shl(0x20, tag_7)\n    /* \"Contracts/Access/Distributor.sol\":385:414  _addDistributor(_msgSender()) */\n  0x20\n  shr\n  jump\t// in\ntag_4:\n    /* \"Contracts/Access/Distributor.sol\":121:1338  contract Distributor is Context{... */\n  jump(tag_8)\n    /* \"Contracts/Utils/Context.sol\":97:201  function _msgSender() internal view virtual returns (address) ... */\ntag_6:\n    /* \"Contracts/Utils/Context.sol\":150:157  address */\n  0x00\n    /* \"Contracts/Utils/Context.sol\":183:193  msg.sender */\n  caller\n    /* \"Contracts/Utils/Context.sol\":176:193  return msg.sender */\n  swap1\n  pop\n    /* \"Contracts/Utils/Context.sol\":97:201  function _msgSender() internal view virtual returns (address) ... */\n  swap1\n  jump\t// out\n    /* \"Contracts/Access/Distributor.sol\":1035:1173  function _addDistributor  (address account ) internal{... */\ntag_7:\n    /* \"Contracts/Access/Distributor.sol\":1099:1124  distributors.add(account) */\n  tag_11\n    /* \"Contracts/Access/Distributor.sol\":1116:1123  account */\n  dup2\n    /* \"Contracts/Access/Distributor.sol\":1099:1111  distributors */\n  0x00\n    /* \"Contracts/Access/Distributor.sol\":1099:1115  distributors.add */\n  or(tag_0_17, shl(0x20, tag_12))\n  swap1\n    /* \"Contracts/Access/Distributor.sol\":1099:1124  distributors.add(account) */\n  swap2\n  swap1\n  0x20\n  shr\n  jump\t// in\ntag_11:\n    /* \"Contracts/Access/Distributor.sol\":1157:1164  account */\n  dup1\n    /* \"Contracts/Access/Distributor.sol\":1140:1165  DistributorAdded(account) */\n  0xffffffffffffffffffffffffffffffffffffffff\n  and\n  0xddbf200aa634dc3fb81cfd68583dd1040d1c751d335e1d86b631bde3e977fea8\n  mload(0x40)\n  mload(0x40)\n  dup1\n  swap2\n  sub\n  swap1\n  log2\n    /* \"Contracts/Access/Distributor.sol\":1035:1173  function _addDistributor  (address account ) internal{... */\n  pop\n  jump\t// out\n    /* \"Contracts/Access/Roles.sol\":153:344  function add(Role storage role , address account) internal {... */\ntag_12:\n    /* \"Contracts/Access/Roles.sol\":252:253  0 */\n  0x00\n    /* \"Contracts/Access/Roles.sol\":233:254  account != address(0) */\n  0xffffffffffffffffffffffffffffffffffffffff\n  and\n    /* \"Contracts/Access/Roles.sol\":233:240  account */\n  dup2\n    /* \"Contracts/Access/Roles.sol\":233:254  account != address(0) */\n  0xffffffffffffffffffffffffffffffffffffffff\n  and\n  sub\n    /* \"Contracts/Access/Roles.sol\":223:256  require( (account != address(0))) */\n  tag_14\n  jumpi\n  0x00\n  dup1\n  revert\ntag_14:\n    /* \"Contracts/Access/Roles.sol\":276:296  has(role , account ) */\n  tag_15\n    /* \"Contracts/Access/Roles.sol\":280:284  role */\n  dup3\n    /* \"Contracts/Access/Roles.sol\":287:294  account */\n  dup3\n    /* \"Contracts/Access/Roles.sol\":276:279  has */\n  shl(0x20, tag_16)\n    /* \"Contracts/Access/Roles.sol\":276:296  has(role , account ) */\n  0x20\n  shr\n  jump\t// in\ntag_15:\n    /* \"Contracts/Access/Roles.sol\":275:296  !has(role , account ) */\n  iszero\n    /* \"Contracts/Access/Roles.sol\":267:297  require(!has(role , account )) */\n  tag_17\n  jumpi\n  0x00\n  dup1\n  revert\ntag_17:\n    /* \"Contracts/Access/Roles.sol\":330:334  true */\n  0x01\n    /* \"Contracts/Access/Roles.sol\":308:312  role */\n  dup3\n    /* \"Contracts/Access/Roles.sol\":308:319  role.bearer */\n  0x00\n  add\n    /* \"Contracts/Access/Roles.sol\":308:328  role.bearer[account] */\n  0x00\n    /* \"Contracts/Access/Roles.sol\":320:327  account */\n  dup4\n    /* \"Contracts/Access/Roles.sol\":308:328  role.bearer[account] */\n  0xffffffffffffffffffffffffffffffffffffffff\n  and\n  0xffffffffffffffffffffffffffffffffffffffff\n  and\n  dup2\n  mstore\n  0x20\n  add\n  swap1\n  dup2\n  mstore\n  0x20\n  add\n  0x00\n  keccak256\n  0x00\n    /* \"Contracts/Access/Roles.sol\":308:334  role.bearer[account]= true */\n  0x0100\n  exp\n  dup2\n  sload\n  dup2\n  0xff\n  mul\n  not\n  and\n  swap1\n  dup4\n  iszero\n  iszero\n  mul\n  or\n  swap1\n  sstore\n  pop\n    /* \"Contracts/Access/Roles.sol\":153:344  function add(Role storage role , address account) internal {... */\n  pop\n  pop\n  jump\t// out\n    /* \"Contracts/Access/Roles.sol\":552:724  function has(Role storage role , address account ) internal view returns (bool) {... */\ntag_16:\n    /* \"Contracts/Access/Roles.sol\":626:630  bool */\n  0x00\n    /* \"Contracts/Access/Roles.sol\":671:672  0 */\n  dup1\n    /* \"Contracts/Access/Roles.sol\":652:673  account != address(0) */\n  0xffffffffffffffffffffffffffffffffffffffff\n  and\n    /* \"Contracts/Access/Roles.sol\":652:659  account */\n  dup3\n    /* \"Contracts/Access/Roles.sol\":652:673  account != address(0) */\n  0xffffffffffffffffffffffffffffffffffffffff\n  and\n  sub\n    /* \"Contracts/Access/Roles.sol\":644:674  require(account != address(0)) */\n  tag_19\n  jumpi\n  0x00\n  dup1\n  revert\ntag_19:\n    /* \"Contracts/Access/Roles.sol\":693:697  role */\n  dup3\n    /* \"Contracts/Access/Roles.sol\":693:704  role.bearer */\n  0x00\n  add\n    /* \"Contracts/Access/Roles.sol\":693:713  role.bearer[account] */\n  0x00\n    /* \"Contracts/Access/Roles.sol\":705:712  account */\n  dup4\n    /* \"Contracts/Access/Roles.sol\":693:713  role.bearer[account] */\n  0xffffffffffffffffffffffffffffffffffffffff\n  and\n  0xffffffffffffffffffffffffffffffffffffffff\n  and\n  dup2\n  mstore\n  0x20\n  add\n  swap1\n  dup2\n  mstore\n  0x20\n  add\n  0x00\n  keccak256\n  0x00\n  swap1\n  sload\n  swap1\n  0x0100\n  exp\n  swap1\n  div\n  0xff\n  and\n    /* \"Contracts/Access/Roles.sol\":686:713  return role.bearer[account] */\n  swap1\n  pop\n    /* \"Contracts/Access/Roles.sol\":552:724  function has(Role storage role , address account ) internal view returns (bool) {... */\n  swap3\n  swap2\n  pop\n  pop\n  jump\t// out\n    /* \"Contracts/Access/Distributor.sol\":121:1338  contract Distributor is Context{... */\ntag_8:\n  dataSize(sub_0)\n  dup1\n  dataOffset(sub_0)\n  0x00\n  codecopy\n  0x00\n  return\nstop\n\nsub_0: assembly {\n        /* \"Contracts/Access/Distributor.sol\":121:1338  contract Distributor is Context{... */\n      mstore(0x40, 0x80)\n      callvalue\n      dup1\n      iszero\n      tag_1\n      jumpi\n      0x00\n      dup1\n      revert\n    tag_1:\n      pop\n      jumpi(tag_2, lt(calldatasize, 0x04))\n      shr(0xe0, calldataload(0x00))\n      dup1\n      0x4ea90d2d\n      eq\n      tag_3\n      jumpi\n      dup1\n      0x7250e224\n      eq\n      tag_4\n      jumpi\n      dup1\n      0x8f0c86fa\n      eq\n      tag_5\n      jumpi\n    tag_2:\n      0x00\n      dup1\n      revert\n        /* \"Contracts/Access/Distributor.sol\":929:1027  function  renouceDistributor() public{... */\n    tag_3:\n      tag_6\n      tag_7\n      jump\t// in\n    tag_6:\n      stop\n        /* \"Contracts/Access/Distributor.sol\":814:921  function addDistributor (address account) public onlyDistributor{... */\n    tag_4:\n      tag_8\n      0x04\n      dup1\n      calldatasize\n      sub\n      dup2\n      add\n      swap1\n      tag_9\n      swap2\n      swap1\n      tag_10\n      jump\t// in\n    tag_9:\n      tag_11\n      jump\t// in\n    tag_8:\n      stop\n        /* \"Contracts/Access/Distributor.sol\":667:802  function isDistributor(address account )... */\n    tag_5:\n      tag_12\n      0x04\n      dup1\n      calldatasize\n      sub\n      dup2\n      add\n      swap1\n      tag_13\n      swap2\n      swap1\n      tag_10\n      jump\t// in\n    tag_13:\n      tag_14\n      jump\t// in\n    tag_12:\n      mload(0x40)\n      tag_15\n      swap2\n      swap1\n      tag_16\n      jump\t// in\n    tag_15:\n      mload(0x40)\n      dup1\n      swap2\n      sub\n      swap1\n      return\n        /* \"Contracts/Access/Distributor.sol\":929:1027  function  renouceDistributor() public{... */\n    tag_7:\n        /* \"Contracts/Access/Distributor.sol\":987:1019  _removeDistributor(_msgSender()) */\n      tag_19\n        /* \"Contracts/Access/Distributor.sol\":1006:1018  _msgSender() */\n      tag_20\n        /* \"Contracts/Access/Distributor.sol\":1006:1016  _msgSender */\n      tag_21\n        /* \"Contracts/Access/Distributor.sol\":1006:1018  _msgSender() */\n      jump\t// in\n    tag_20:\n        /* \"Contracts/Access/Distributor.sol\":987:1005  _removeDistributor */\n      tag_22\n        /* \"Contracts/Access/Distributor.sol\":987:1019  _removeDistributor(_msgSender()) */\n      jump\t// in\n    tag_19:\n        /* \"Contracts/Access/Distributor.sol\":929:1027  function  renouceDistributor() public{... */\n      jump\t// out\n        /* \"Contracts/Access/Distributor.sol\":814:921  function addDistributor (address account) public onlyDistributor{... */\n    tag_11:\n        /* \"Contracts/Access/Distributor.sol\":552:579  isDistributor(_msgSender()) */\n      tag_24\n        /* \"Contracts/Access/Distributor.sol\":566:578  _msgSender() */\n      tag_25\n        /* \"Contracts/Access/Distributor.sol\":566:576  _msgSender */\n      tag_21\n        /* \"Contracts/Access/Distributor.sol\":566:578  _msgSender() */\n      jump\t// in\n    tag_25:\n        /* \"Contracts/Access/Distributor.sol\":552:565  isDistributor */\n      tag_14\n        /* \"Contracts/Access/Distributor.sol\":552:579  isDistributor(_msgSender()) */\n      jump\t// in\n    tag_24:\n        /* \"Contracts/Access/Distributor.sol\":544:580  require(isDistributor(_msgSender())) */\n      tag_26\n      jumpi\n      0x00\n      dup1\n      revert\n    tag_26:\n        /* \"Contracts/Access/Distributor.sol\":889:913  _addDistributor(account) */\n      tag_28\n        /* \"Contracts/Access/Distributor.sol\":905:912  account */\n      dup2\n        /* \"Contracts/Access/Distributor.sol\":889:904  _addDistributor */\n      tag_29\n        /* \"Contracts/Access/Distributor.sol\":889:913  _addDistributor(account) */\n      jump\t// in\n    tag_28:\n        /* \"Contracts/Access/Distributor.sol\":814:921  function addDistributor (address account) public onlyDistributor{... */\n      pop\n      jump\t// out\n        /* \"Contracts/Access/Distributor.sol\":667:802  function isDistributor(address account )... */\n    tag_14:\n        /* \"Contracts/Access/Distributor.sol\":746:750  bool */\n      0x00\n        /* \"Contracts/Access/Distributor.sol\":769:794  distributors.has(account) */\n      tag_31\n        /* \"Contracts/Access/Distributor.sol\":786:793  account */\n      dup3\n        /* \"Contracts/Access/Distributor.sol\":769:781  distributors */\n      0x00\n        /* \"Contracts/Access/Distributor.sol\":769:785  distributors.has */\n      tag_32\n      swap1\n        /* \"Contracts/Access/Distributor.sol\":769:794  distributors.has(account) */\n      swap2\n      swap1\n      0xffffffff\n      and\n      jump\t// in\n    tag_31:\n        /* \"Contracts/Access/Distributor.sol\":762:794  return distributors.has(account) */\n      swap1\n      pop\n        /* \"Contracts/Access/Distributor.sol\":667:802  function isDistributor(address account )... */\n      swap2\n      swap1\n      pop\n      jump\t// out\n        /* \"Contracts/Access/Roles.sol\":153:344  function add(Role storage role , address account) internal {... */\n    tag_17:\n        /* \"Contracts/Access/Roles.sol\":252:253  0 */\n      0x00\n        /* \"Contracts/Access/Roles.sol\":233:254  account != address(0) */\n      0xffffffffffffffffffffffffffffffffffffffff\n      and\n        /* \"Contracts/Access/Roles.sol\":233:240  account */\n      dup2\n        /* \"Contracts/Access/Roles.sol\":233:254  account != address(0) */\n      0xffffffffffffffffffffffffffffffffffffffff\n      and\n      sub\n        /* \"Contracts/Access/Roles.sol\":223:256  require( (account != address(0))) */\n      tag_34\n      jumpi\n      0x00\n      dup1\n      revert\n    tag_34:\n        /* \"Contracts/Access/Roles.sol\":276:296  has(role , account ) */\n      tag_35\n        /* \"Contracts/Access/Roles.sol\":280:284  role */\n      dup3\n        /* \"Contracts/Access/Roles.sol\":287:294  account */\n      dup3\n        /* \"Contracts/Access/Roles.sol\":276:279  has */\n      tag_32\n        /* \"Contracts/Access/Roles.sol\":276:296  has(role , account ) */\n      jump\t// in\n    tag_35:\n        /* \"Contracts/Access/Roles.sol\":275:296  !has(role , account ) */\n      iszero\n        /* \"Contracts/Access/Roles.sol\":267:297  require(!has(role , account )) */\n      tag_36\n      jumpi\n      0x00\n      dup1\n      revert\n    tag_36:\n        /* \"Contracts/Access/Roles.sol\":330:334  true */\n      0x01\n        /* \"Contracts/Access/Roles.sol\":308:312  role */\n      dup3\n        /* \"Contracts/Access/Roles.sol\":308:319  role.bearer */\n      0x00\n      add\n        /* \"Contracts/Access/Roles.sol\":308:328  role.bearer[account] */\n      0x00\n        /* \"Contracts/Access/Roles.sol\":320:327  account */\n      dup4\n        /* \"Contracts/Access/Roles.sol\":308:328  role.bearer[account] */\n      0xffffffffffffffffffffffffffffffffffffffff\n      and\n      0xffffffffffffffffffffffffffffffffffffffff\n      and\n      dup2\n      mstore\n      0x20\n      add\n      swap1\n      dup2\n      mstore\n      0x20\n      add\n      0x00\n      keccak256\n      0x00\n        /* \"Contracts/Access/Roles.sol\":308:334  role.bearer[account]= true */\n      0x0100\n      exp\n      dup2\n      sload\n      dup2\n      0xff\n      mul\n      not\n      and\n      swap1\n      dup4\n      iszero\n      iszero\n      mul\n      or\n      swap1\n      sstore\n      pop\n        /* \"Contracts/Access/Roles.sol\":153:344  function add(Role storage role , address account) internal {... */\n      pop\n      pop\n      jump\t// out\n        /* \"Contracts/Utils/Context.sol\":97:201  function _msgSender() internal view virtual returns (address) ... */\n    tag_21:\n        /* \"Contracts/Utils/Context.sol\":150:157  address */\n      0x00\n        /* \"Contracts/Utils/Context.sol\":183:193  msg.sender */\n      caller\n        /* \"Contracts/Utils/Context.sol\":176:193  return msg.sender */\n      swap1\n      pop\n        /* \"Contracts/Utils/Context.sol\":97:201  function _msgSender() internal view virtual returns (address) ... */\n      swap1\n      jump\t// out\n        /* \"Contracts/Access/Distributor.sol\":1185:1331  function _removeDistributor(address account ) internal {... */\n    tag_22:\n        /* \"Contracts/Access/Distributor.sol\":1251:1279  distributors.remove(account) */\n      tag_39\n        /* \"Contracts/Access/Distributor.sol\":1271:1278  account */\n      dup2\n        /* \"Contracts/Access/Distributor.sol\":1251:1263  distributors */\n      0x00\n        /* \"Contracts/Access/Distributor.sol\":1251:1270  distributors.remove */\n      tag_40\n      swap1\n        /* \"Contracts/Access/Distributor.sol\":1251:1279  distributors.remove(account) */\n      swap2\n      swap1\n      0xffffffff\n      and\n      jump\t// in\n    tag_39:\n        /* \"Contracts/Access/Distributor.sol\":1314:1321  account */\n      dup1\n        /* \"Contracts/Access/Distributor.sol\":1295:1323  DistributorRemoved(account ) */\n      0xffffffffffffffffffffffffffffffffffffffff\n      and\n      0x126174f6cf49c81cdb4a9214c6b8f037bef55b4ec31e4fc776cea2a1c8a88d59\n      mload(0x40)\n      mload(0x40)\n      dup1\n      swap2\n      sub\n      swap1\n      log2\n        /* \"Contracts/Access/Distributor.sol\":1185:1331  function _removeDistributor(address account ) internal {... */\n      pop\n      jump\t// out\n        /* \"Contracts/Access/Distributor.sol\":1035:1173  function _addDistributor  (address account ) internal{... */\n    tag_29:\n        /* \"Contracts/Access/Distributor.sol\":1099:1124  distributors.add(account) */\n      tag_42\n        /* \"Contracts/Access/Distributor.sol\":1116:1123  account */\n      dup2\n        /* \"Contracts/Access/Distributor.sol\":1099:1111  distributors */\n      0x00\n        /* \"Contracts/Access/Distributor.sol\":1099:1115  distributors.add */\n      tag_17\n      swap1\n        /* \"Contracts/Access/Distributor.sol\":1099:1124  distributors.add(account) */\n      swap2\n      swap1\n      0xffffffff\n      and\n      jump\t// in\n    tag_42:\n        /* \"Contracts/Access/Distributor.sol\":1157:1164  account */\n      dup1\n        /* \"Contracts/Access/Distributor.sol\":1140:1165  DistributorAdded(account) */\n      0xffffffffffffffffffffffffffffffffffffffff\n      and\n      0xddbf200aa634dc3fb81cfd68583dd1040d1c751d335e1d86b631bde3e977fea8\n      mload(0x40)\n      mload(0x40)\n      dup1\n      swap2\n      sub\n      swap1\n      log2\n        /* \"Contracts/Access/Distributor.sol\":1035:1173  function _addDistributor  (address account ) internal{... */\n      pop\n      jump\t// out\n        /* \"Contracts/Access/Roles.sol\":552:724  function has(Role storage role , address account ) internal view returns (bool) {... */\n    tag_32:\n        /* \"Contracts/Access/Roles.sol\":626:630  bool */\n      0x00\n        /* \"Contracts/Access/Roles.sol\":671:672  0 */\n      dup1\n        /* \"Contracts/Access/Roles.sol\":652:673  account != address(0) */\n      0xffffffffffffffffffffffffffffffffffffffff\n      and\n        /* \"Contracts/Access/Roles.sol\":652:659  account */\n      dup3\n        /* \"Contracts/Access/Roles.sol\":652:673  account != address(0) */\n      0xffffffffffffffffffffffffffffffffffffffff\n      and\n      sub\n        /* \"Contracts/Access/Roles.sol\":644:674  require(account != address(0)) */\n      tag_44\n      jumpi\n      0x00\n      dup1\n      revert\n    tag_44:\n        /* \"Contracts/Access/Roles.sol\":693:697  role */\n      dup3\n        /* \"Contracts/Access/Roles.sol\":693:704  role.bearer */\n      0x00\n      add\n        /* \"Contracts/Access/Roles.sol\":693:713  role.bearer[account] */\n      0x00\n        /* \"Contracts/Access/Roles.sol\":705:712  account */\n      dup4\n        /* \"Contracts/Access/Roles.sol\":693:713  role.bearer[account] */\n      0xffffffffffffffffffffffffffffffffffffffff\n      and\n      0xffffffffffffffffffffffffffffffffffffffff\n      and\n      dup2\n      mstore\n      0x20\n      add\n      swap1\n      dup2\n      mstore\n      0x20\n      add\n      0x00\n      keccak256\n      0x00\n      swap1\n      sload\n      swap1\n      0x0100\n      exp\n      swap1\n      div\n      0xff\n      and\n        /* \"Contracts/Access/Roles.sol\":686:713  return role.bearer[account] */\n      swap1\n      pop\n        /* \"Contracts/Access/Roles.sol\":552:724  function has(Role storage role , address account ) internal view returns (bool) {... */\n      swap3\n      swap2\n      pop\n      pop\n      jump\t// out\n        /* \"Contracts/Access/Roles.sol\":351:545  function remove(Role storage role , address account) internal {... */\n    tag_40:\n        /* \"Contracts/Access/Roles.sol\":453:454  0 */\n      0x00\n        /* \"Contracts/Access/Roles.sol\":434:455  account != address(0) */\n      0xffffffffffffffffffffffffffffffffffffffff\n      and\n        /* \"Contracts/Access/Roles.sol\":434:441  account */\n      dup2\n        /* \"Contracts/Access/Roles.sol\":434:455  account != address(0) */\n      0xffffffffffffffffffffffffffffffffffffffff\n      and\n      sub\n        /* \"Contracts/Access/Roles.sol\":424:457  require( (account != address(0))) */\n      tag_46\n      jumpi\n      0x00\n      dup1\n      revert\n    tag_46:\n        /* \"Contracts/Access/Roles.sol\":476:496  has(role , account ) */\n      tag_47\n        /* \"Contracts/Access/Roles.sol\":480:484  role */\n      dup3\n        /* \"Contracts/Access/Roles.sol\":487:494  account */\n      dup3\n        /* \"Contracts/Access/Roles.sol\":476:479  has */\n      tag_32\n        /* \"Contracts/Access/Roles.sol\":476:496  has(role , account ) */\n      jump\t// in\n    tag_47:\n        /* \"Contracts/Access/Roles.sol\":468:497  require(has(role , account )) */\n      tag_48\n      jumpi\n      0x00\n      dup1\n      revert\n    tag_48:\n        /* \"Contracts/Access/Roles.sol\":530:535  false */\n      0x00\n        /* \"Contracts/Access/Roles.sol\":508:512  role */\n      dup3\n        /* \"Contracts/Access/Roles.sol\":508:519  role.bearer */\n      0x00\n      add\n        /* \"Contracts/Access/Roles.sol\":508:528  role.bearer[account] */\n      0x00\n        /* \"Contracts/Access/Roles.sol\":520:527  account */\n      dup4\n        /* \"Contracts/Access/Roles.sol\":508:528  role.bearer[account] */\n      0xffffffffffffffffffffffffffffffffffffffff\n      and\n      0xffffffffffffffffffffffffffffffffffffffff\n      and\n      dup2\n      mstore\n      0x20\n      add\n      swap1\n      dup2\n      mstore\n      0x20\n      add\n      0x00\n      keccak256\n      0x00\n        /* \"Contracts/Access/Roles.sol\":508:535  role.bearer[account]= false */\n      0x0100\n      exp\n      dup2\n      sload\n      dup2\n      0xff\n      mul\n      not\n      and\n      swap1\n      dup4\n      iszero\n      iszero\n      mul\n      or\n      swap1\n      sstore\n      pop\n        /* \"Contracts/Access/Roles.sol\":351:545  function remove(Role storage role , address account) internal {... */\n      pop\n      pop\n      jump\t// out\n        /* \"#utility.yul\":88:205   */\n    tag_50:\n        /* \"#utility.yul\":197:198   */\n      0x00\n        /* \"#utility.yul\":194:195   */\n      dup1\n        /* \"#utility.yul\":187:199   */\n      revert\n        /* \"#utility.yul\":334:460   */\n    tag_52:\n        /* \"#utility.yul\":371:378   */\n      0x00\n        /* \"#utility.yul\":411:453   */\n      0xffffffffffffffffffffffffffffffffffffffff\n        /* \"#utility.yul\":404:409   */\n      dup3\n        /* \"#utility.yul\":400:454   */\n      and\n        /* \"#utility.yul\":389:454   */\n      swap1\n      pop\n        /* \"#utility.yul\":334:460   */\n      swap2\n      swap1\n      pop\n      jump\t// out\n        /* \"#utility.yul\":466:562   */\n    tag_53:\n        /* \"#utility.yul\":503:510   */\n      0x00\n        /* \"#utility.yul\":532:556   */\n      tag_64\n        /* \"#utility.yul\":550:555   */\n      dup3\n        /* \"#utility.yul\":532:556   */\n      tag_52\n      jump\t// in\n    tag_64:\n        /* \"#utility.yul\":521:556   */\n      swap1\n      pop\n        /* \"#utility.yul\":466:562   */\n      swap2\n      swap1\n      pop\n      jump\t// out\n        /* \"#utility.yul\":568:690   */\n    tag_54:\n        /* \"#utility.yul\":641:665   */\n      tag_66\n        /* \"#utility.yul\":659:664   */\n      dup2\n        /* \"#utility.yul\":641:665   */\n      tag_53\n      jump\t// in\n    tag_66:\n        /* \"#utility.yul\":634:639   */\n      dup2\n        /* \"#utility.yul\":631:666   */\n      eq\n        /* \"#utility.yul\":621:684   */\n      tag_67\n      jumpi\n        /* \"#utility.yul\":680:681   */\n      0x00\n        /* \"#utility.yul\":677:678   */\n      dup1\n        /* \"#utility.yul\":670:682   */\n      revert\n        /* \"#utility.yul\":621:684   */\n    tag_67:\n        /* \"#utility.yul\":568:690   */\n      pop\n      jump\t// out\n        /* \"#utility.yul\":696:835   */\n    tag_55:\n        /* \"#utility.yul\":742:747   */\n      0x00\n        /* \"#utility.yul\":780:786   */\n      dup2\n        /* \"#utility.yul\":767:787   */\n      calldataload\n        /* \"#utility.yul\":758:787   */\n      swap1\n      pop\n        /* \"#utility.yul\":796:829   */\n      tag_69\n        /* \"#utility.yul\":823:828   */\n      dup2\n        /* \"#utility.yul\":796:829   */\n      tag_54\n      jump\t// in\n    tag_69:\n        /* \"#utility.yul\":696:835   */\n      swap3\n      swap2\n      pop\n      pop\n      jump\t// out\n        /* \"#utility.yul\":841:1170   */\n    tag_10:\n        /* \"#utility.yul\":900:906   */\n      0x00\n        /* \"#utility.yul\":949:951   */\n      0x20\n        /* \"#utility.yul\":937:946   */\n      dup3\n        /* \"#utility.yul\":928:935   */\n      dup5\n        /* \"#utility.yul\":924:947   */\n      sub\n        /* \"#utility.yul\":920:952   */\n      slt\n        /* \"#utility.yul\":917:1036   */\n      iszero\n      tag_71\n      jumpi\n        /* \"#utility.yul\":955:1034   */\n      tag_72\n      tag_50\n      jump\t// in\n    tag_72:\n        /* \"#utility.yul\":917:1036   */\n    tag_71:\n        /* \"#utility.yul\":1075:1076   */\n      0x00\n        /* \"#utility.yul\":1100:1153   */\n      tag_73\n        /* \"#utility.yul\":1145:1152   */\n      dup5\n        /* \"#utility.yul\":1136:1142   */\n      dup3\n        /* \"#utility.yul\":1125:1134   */\n      dup6\n        /* \"#utility.yul\":1121:1143   */\n      add\n        /* \"#utility.yul\":1100:1153   */\n      tag_55\n      jump\t// in\n    tag_73:\n        /* \"#utility.yul\":1090:1153   */\n      swap2\n      pop\n        /* \"#utility.yul\":1046:1163   */\n      pop\n        /* \"#utility.yul\":841:1170   */\n      swap3\n      swap2\n      pop\n      pop\n      jump\t// out\n        /* \"#utility.yul\":1176:1266   */\n    tag_56:\n        /* \"#utility.yul\":1210:1217   */\n      0x00\n        /* \"#utility.yul\":1253:1258   */\n      dup2\n        /* \"#utility.yul\":1246:1259   */\n      iszero\n        /* \"#utility.yul\":1239:1260   */\n      iszero\n        /* \"#utility.yul\":1228:1260   */\n      swap1\n      pop\n        /* \"#utility.yul\":1176:1266   */\n      swap2\n      swap1\n      pop\n      jump\t// out\n        /* \"#utility.yul\":1272:1381   */\n    tag_57:\n        /* \"#utility.yul\":1353:1374   */\n      tag_76\n        /* \"#utility.yul\":1368:1373   */\n      dup2\n        /* \"#utility.yul\":1353:1374   */\n      tag_56\n      jump\t// in\n    tag_76:\n        /* \"#utility.yul\":1348:1351   */\n      dup3\n        /* \"#utility.yul\":1341:1375   */\n      mstore\n        /* \"#utility.yul\":1272:1381   */\n      pop\n      pop\n      jump\t// out\n        /* \"#utility.yul\":1387:1597   */\n    tag_16:\n        /* \"#utility.yul\":1474:1478   */\n      0x00\n        /* \"#utility.yul\":1512:1514   */\n      0x20\n        /* \"#utility.yul\":1501:1510   */\n      dup3\n        /* \"#utility.yul\":1497:1515   */\n      add\n        /* \"#utility.yul\":1489:1515   */\n      swap1\n      pop\n        /* \"#utility.yul\":1525:1590   */\n      tag_78\n        /* \"#utility.yul\":1587:1588   */\n      0x00\n        /* \"#utility.yul\":1576:1585   */\n      dup4\n        /* \"#utility.yul\":1572:1589   */\n      add\n        /* \"#utility.yul\":1563:1569   */\n      dup5\n        /* \"#utility.yul\":1525:1590   */\n      tag_57\n      jump\t// in\n    tag_78:\n        /* \"#utility.yul\":1387:1597   */\n      swap3\n      swap2\n      pop\n      pop\n      jump\t// out\n\n    auxdata: 0xa2646970667358221220efc736a42a82e927f7b225ba80302386e1565db72d5550acd18dfe7685593aa664736f6c63430008120033\n}\n",
				"bytecode": {
					"linkReferences": {},
					"object": "608060405234801561001057600080fd5b5061002d61002261003260201b60201c565b61003a60201b60201c565b6101da565b600033905090565b61005281600061009860201b6100f01790919060201c565b8073ffffffffffffffffffffffffffffffffffffffff167fddbf200aa634dc3fb81cfd68583dd1040d1c751d335e1d86b631bde3e977fea860405160405180910390a250565b600073ffffffffffffffffffffffffffffffffffffffff168173ffffffffffffffffffffffffffffffffffffffff16036100d157600080fd5b6100e1828261014960201b60201c565b156100eb57600080fd5b60018260000160008373ffffffffffffffffffffffffffffffffffffffff1673ffffffffffffffffffffffffffffffffffffffff16815260200190815260200160002060006101000a81548160ff0219169083151502179055505050565b60008073ffffffffffffffffffffffffffffffffffffffff168273ffffffffffffffffffffffffffffffffffffffff160361018357600080fd5b8260000160008373ffffffffffffffffffffffffffffffffffffffff1673ffffffffffffffffffffffffffffffffffffffff16815260200190815260200160002060009054906101000a900460ff16905092915050565b61048e806101e96000396000f3fe608060405234801561001057600080fd5b50600436106100415760003560e01c80634ea90d2d146100465780637250e224146100505780638f0c86fa1461006c575b600080fd5b61004e61009c565b005b61006a600480360381019061006591906103f5565b6100ae565b005b610086600480360381019061008191906103f5565b6100d3565b604051610093919061043d565b60405180910390f35b6100ac6100a761019b565b6101a3565b565b6100be6100b961019b565b6100d3565b6100c757600080fd5b6100d0816101fd565b50565b60006100e982600061025790919063ffffffff16565b9050919050565b600073ffffffffffffffffffffffffffffffffffffffff168173ffffffffffffffffffffffffffffffffffffffff160361012957600080fd5b6101338282610257565b1561013d57600080fd5b60018260000160008373ffffffffffffffffffffffffffffffffffffffff1673ffffffffffffffffffffffffffffffffffffffff16815260200190815260200160002060006101000a81548160ff0219169083151502179055505050565b600033905090565b6101b78160006102e890919063ffffffff16565b8073ffffffffffffffffffffffffffffffffffffffff167f126174f6cf49c81cdb4a9214c6b8f037bef55b4ec31e4fc776cea2a1c8a88d5960405160405180910390a250565b6102118160006100f090919063ffffffff16565b8073ffffffffffffffffffffffffffffffffffffffff167fddbf200aa634dc3fb81cfd68583dd1040d1c751d335e1d86b631bde3e977fea860405160405180910390a250565b60008073ffffffffffffffffffffffffffffffffffffffff168273ffffffffffffffffffffffffffffffffffffffff160361029157600080fd5b8260000160008373ffffffffffffffffffffffffffffffffffffffff1673ffffffffffffffffffffffffffffffffffffffff16815260200190815260200160002060009054906101000a900460ff16905092915050565b600073ffffffffffffffffffffffffffffffffffffffff168173ffffffffffffffffffffffffffffffffffffffff160361032157600080fd5b61032b8282610257565b61033457600080fd5b60008260000160008373ffffffffffffffffffffffffffffffffffffffff1673ffffffffffffffffffffffffffffffffffffffff16815260200190815260200160002060006101000a81548160ff0219169083151502179055505050565b600080fd5b600073ffffffffffffffffffffffffffffffffffffffff82169050919050565b60006103c282610397565b9050919050565b6103d2816103b7565b81146103dd57600080fd5b50565b6000813590506103ef816103c9565b92915050565b60006020828403121561040b5761040a610392565b5b6000610419848285016103e0565b91505092915050565b60008115159050919050565b61043781610422565b82525050565b6000602082019050610452600083018461042e565b9291505056fea2646970667358221220efc736a42a82e927f7b225ba80302386e1565db72d5550acd18dfe7685593aa664736f6c63430008120033",
					"opcodes": "PUSH1 0x80 PUSH1 0x40 MSTORE CALLVALUE DUP1 ISZERO PUSH2 0x10 JUMPI PUSH1 0x0 DUP1 REVERT JUMPDEST POP PUSH2 0x2D PUSH2 0x22 PUSH2 0x32 PUSH1 0x20 SHL PUSH1 0x20 SHR JUMP JUMPDEST PUSH2 0x3A PUSH1 0x20 SHL PUSH1 0x20 SHR JUMP JUMPDEST PUSH2 0x1DA JUMP JUMPDEST PUSH1 0x0 CALLER SWAP1 POP SWAP1 JUMP JUMPDEST PUSH2 0x52 DUP2 PUSH1 0x0 PUSH2 0x98 PUSH1 0x20 SHL PUSH2 0xF0 OR SWAP1 SWAP2 SWAP1 PUSH1 0x20 SHR JUMP JUMPDEST DUP1 PUSH20 0xFFFFFFFFFFFFFFFFFFFFFFFFFFFFFFFFFFFFFFFF AND PUSH32 0xDDBF200AA634DC3FB81CFD68583DD1040D1C751D335E1D86B631BDE3E977FEA8 PUSH1 0x40 MLOAD PUSH1 0x40 MLOAD DUP1 SWAP2 SUB SWAP1 LOG2 POP JUMP JUMPDEST PUSH1 0x0 PUSH20 0xFFFFFFFFFFFFFFFFFFFFFFFFFFFFFFFFFFFFFFFF AND DUP2 PUSH20 0xFFFFFFFFFFFFFFFFFFFFFFFFFFFFFFFFFFFFFFFF AND SUB PUSH2 0xD1 JUMPI PUSH1 0x0 DUP1 REVERT JUMPDEST PUSH2 0xE1 DUP3 DUP3 PUSH2 0x149 PUSH1 0x20 SHL PUSH1 0x20 SHR JUMP JUMPDEST ISZERO PUSH2 0xEB JUMPI PUSH1 0x0 DUP1 REVERT JUMPDEST PUSH1 0x1 DUP3 PUSH1 0x0 ADD PUSH1 0x0 DUP4 PUSH20 0xFFFFFFFFFFFFFFFFFFFFFFFFFFFFFFFFFFFFFFFF AND PUSH20 0xFFFFFFFFFFFFFFFFFFFFFFFFFFFFFFFFFFFFFFFF AND DUP2 MSTORE PUSH1 0x20 ADD SWAP1 DUP2 MSTORE PUSH1 0x20 ADD PUSH1 0x0 KECCAK256 PUSH1 0x0 PUSH2 0x100 EXP DUP2 SLOAD DUP2 PUSH1 0xFF MUL NOT AND SWAP1 DUP4 ISZERO ISZERO MUL OR SWAP1 SSTORE POP POP POP JUMP JUMPDEST PUSH1 0x0 DUP1 PUSH20 0xFFFFFFFFFFFFFFFFFFFFFFFFFFFFFFFFFFFFFFFF AND DUP3 PUSH20 0xFFFFFFFFFFFFFFFFFFFFFFFFFFFFFFFFFFFFFFFF AND SUB PUSH2 0x183 JUMPI PUSH1 0x0 DUP1 REVERT JUMPDEST DUP3 PUSH1 0x0 ADD PUSH1 0x0 DUP4 PUSH20 0xFFFFFFFFFFFFFFFFFFFFFFFFFFFFFFFFFFFFFFFF AND PUSH20 0xFFFFFFFFFFFFFFFFFFFFFFFFFFFFFFFFFFFFFFFF AND DUP2 MSTORE PUSH1 0x20 ADD SWAP1 DUP2 MSTORE PUSH1 0x20 ADD PUSH1 0x0 KECCAK256 PUSH1 0x0 SWAP1 SLOAD SWAP1 PUSH2 0x100 EXP SWAP1 DIV PUSH1 0xFF AND SWAP1 POP SWAP3 SWAP2 POP POP JUMP JUMPDEST PUSH2 0x48E DUP1 PUSH2 0x1E9 PUSH1 0x0 CODECOPY PUSH1 0x0 RETURN INVALID PUSH1 0x80 PUSH1 0x40 MSTORE CALLVALUE DUP1 ISZERO PUSH2 0x10 JUMPI PUSH1 0x0 DUP1 REVERT JUMPDEST POP PUSH1 0x4 CALLDATASIZE LT PUSH2 0x41 JUMPI PUSH1 0x0 CALLDATALOAD PUSH1 0xE0 SHR DUP1 PUSH4 0x4EA90D2D EQ PUSH2 0x46 JUMPI DUP1 PUSH4 0x7250E224 EQ PUSH2 0x50 JUMPI DUP1 PUSH4 0x8F0C86FA EQ PUSH2 0x6C JUMPI JUMPDEST PUSH1 0x0 DUP1 REVERT JUMPDEST PUSH2 0x4E PUSH2 0x9C JUMP JUMPDEST STOP JUMPDEST PUSH2 0x6A PUSH1 0x4 DUP1 CALLDATASIZE SUB DUP2 ADD SWAP1 PUSH2 0x65 SWAP2 SWAP1 PUSH2 0x3F5 JUMP JUMPDEST PUSH2 0xAE JUMP JUMPDEST STOP JUMPDEST PUSH2 0x86 PUSH1 0x4 DUP1 CALLDATASIZE SUB DUP2 ADD SWAP1 PUSH2 0x81 SWAP2 SWAP1 PUSH2 0x3F5 JUMP JUMPDEST PUSH2 0xD3 JUMP JUMPDEST PUSH1 0x40 MLOAD PUSH2 0x93 SWAP2 SWAP1 PUSH2 0x43D JUMP JUMPDEST PUSH1 0x40 MLOAD DUP1 SWAP2 SUB SWAP1 RETURN JUMPDEST PUSH2 0xAC PUSH2 0xA7 PUSH2 0x19B JUMP JUMPDEST PUSH2 0x1A3 JUMP JUMPDEST JUMP JUMPDEST PUSH2 0xBE PUSH2 0xB9 PUSH2 0x19B JUMP JUMPDEST PUSH2 0xD3 JUMP JUMPDEST PUSH2 0xC7 JUMPI PUSH1 0x0 DUP1 REVERT JUMPDEST PUSH2 0xD0 DUP2 PUSH2 0x1FD JUMP JUMPDEST POP JUMP JUMPDEST PUSH1 0x0 PUSH2 0xE9 DUP3 PUSH1 0x0 PUSH2 0x257 SWAP1 SWAP2 SWAP1 PUSH4 0xFFFFFFFF AND JUMP JUMPDEST SWAP1 POP SWAP2 SWAP1 POP JUMP JUMPDEST PUSH1 0x0 PUSH20 0xFFFFFFFFFFFFFFFFFFFFFFFFFFFFFFFFFFFFFFFF AND DUP2 PUSH20 0xFFFFFFFFFFFFFFFFFFFFFFFFFFFFFFFFFFFFFFFF AND SUB PUSH2 0x129 JUMPI PUSH1 0x0 DUP1 REVERT JUMPDEST PUSH2 0x133 DUP3 DUP3 PUSH2 0x257 JUMP JUMPDEST ISZERO PUSH2 0x13D JUMPI PUSH1 0x0 DUP1 REVERT JUMPDEST PUSH1 0x1 DUP3 PUSH1 0x0 ADD PUSH1 0x0 DUP4 PUSH20 0xFFFFFFFFFFFFFFFFFFFFFFFFFFFFFFFFFFFFFFFF AND PUSH20 0xFFFFFFFFFFFFFFFFFFFFFFFFFFFFFFFFFFFFFFFF AND DUP2 MSTORE PUSH1 0x20 ADD SWAP1 DUP2 MSTORE PUSH1 0x20 ADD PUSH1 0x0 KECCAK256 PUSH1 0x0 PUSH2 0x100 EXP DUP2 SLOAD DUP2 PUSH1 0xFF MUL NOT AND SWAP1 DUP4 ISZERO ISZERO MUL OR SWAP1 SSTORE POP POP POP JUMP JUMPDEST PUSH1 0x0 CALLER SWAP1 POP SWAP1 JUMP JUMPDEST PUSH2 0x1B7 DUP2 PUSH1 0x0 PUSH2 0x2E8 SWAP1 SWAP2 SWAP1 PUSH4 0xFFFFFFFF AND JUMP JUMPDEST DUP1 PUSH20 0xFFFFFFFFFFFFFFFFFFFFFFFFFFFFFFFFFFFFFFFF AND PUSH32 0x126174F6CF49C81CDB4A9214C6B8F037BEF55B4EC31E4FC776CEA2A1C8A88D59 PUSH1 0x40 MLOAD PUSH1 0x40 MLOAD DUP1 SWAP2 SUB SWAP1 LOG2 POP JUMP JUMPDEST PUSH2 0x211 DUP2 PUSH1 0x0 PUSH2 0xF0 SWAP1 SWAP2 SWAP1 PUSH4 0xFFFFFFFF AND JUMP JUMPDEST DUP1 PUSH20 0xFFFFFFFFFFFFFFFFFFFFFFFFFFFFFFFFFFFFFFFF AND PUSH32 0xDDBF200AA634DC3FB81CFD68583DD1040D1C751D335E1D86B631BDE3E977FEA8 PUSH1 0x40 MLOAD PUSH1 0x40 MLOAD DUP1 SWAP2 SUB SWAP1 LOG2 POP JUMP JUMPDEST PUSH1 0x0 DUP1 PUSH20 0xFFFFFFFFFFFFFFFFFFFFFFFFFFFFFFFFFFFFFFFF AND DUP3 PUSH20 0xFFFFFFFFFFFFFFFFFFFFFFFFFFFFFFFFFFFFFFFF AND SUB PUSH2 0x291 JUMPI PUSH1 0x0 DUP1 REVERT JUMPDEST DUP3 PUSH1 0x0 ADD PUSH1 0x0 DUP4 PUSH20 0xFFFFFFFFFFFFFFFFFFFFFFFFFFFFFFFFFFFFFFFF AND PUSH20 0xFFFFFFFFFFFFFFFFFFFFFFFFFFFFFFFFFFFFFFFF AND DUP2 MSTORE PUSH1 0x20 ADD SWAP1 DUP2 MSTORE PUSH1 0x20 ADD PUSH1 0x0 KECCAK256 PUSH1 0x0 SWAP1 SLOAD SWAP1 PUSH2 0x100 EXP SWAP1 DIV PUSH1 0xFF AND SWAP1 POP SWAP3 SWAP2 POP POP JUMP JUMPDEST PUSH1 0x0 PUSH20 0xFFFFFFFFFFFFFFFFFFFFFFFFFFFFFFFFFFFFFFFF AND DUP2 PUSH20 0xFFFFFFFFFFFFFFFFFFFFFFFFFFFFFFFFFFFFFFFF AND SUB PUSH2 0x321 JUMPI PUSH1 0x0 DUP1 REVERT JUMPDEST PUSH2 0x32B DUP3 DUP3 PUSH2 0x257 JUMP JUMPDEST PUSH2 0x334 JUMPI PUSH1 0x0 DUP1 REVERT JUMPDEST PUSH1 0x0 DUP3 PUSH1 0x0 ADD PUSH1 0x0 DUP4 PUSH20 0xFFFFFFFFFFFFFFFFFFFFFFFFFFFFFFFFFFFFFFFF AND PUSH20 0xFFFFFFFFFFFFFFFFFFFFFFFFFFFFFFFFFFFFFFFF AND DUP2 MSTORE PUSH1 0x20 ADD SWAP1 DUP2 MSTORE PUSH1 0x20 ADD PUSH1 0x0 KECCAK256 PUSH1 0x0 PUSH2 0x100 EXP DUP2 SLOAD DUP2 PUSH1 0xFF MUL NOT AND SWAP1 DUP4 ISZERO ISZERO MUL OR SWAP1 SSTORE POP POP POP JUMP JUMPDEST PUSH1 0x0 DUP1 REVERT JUMPDEST PUSH1 0x0 PUSH20 0xFFFFFFFFFFFFFFFFFFFFFFFFFFFFFFFFFFFFFFFF DUP3 AND SWAP1 POP SWAP2 SWAP1 POP JUMP JUMPDEST PUSH1 0x0 PUSH2 0x3C2 DUP3 PUSH2 0x397 JUMP JUMPDEST SWAP1 POP SWAP2 SWAP1 POP JUMP JUMPDEST PUSH2 0x3D2 DUP2 PUSH2 0x3B7 JUMP JUMPDEST DUP2 EQ PUSH2 0x3DD JUMPI PUSH1 0x0 DUP1 REVERT JUMPDEST POP JUMP JUMPDEST PUSH1 0x0 DUP2 CALLDATALOAD SWAP1 POP PUSH2 0x3EF DUP2 PUSH2 0x3C9 JUMP JUMPDEST SWAP3 SWAP2 POP POP JUMP JUMPDEST PUSH1 0x0 PUSH1 0x20 DUP3 DUP5 SUB SLT ISZERO PUSH2 0x40B JUMPI PUSH2 0x40A PUSH2 0x392 JUMP JUMPDEST JUMPDEST PUSH1 0x0 PUSH2 0x419 DUP5 DUP3 DUP6 ADD PUSH2 0x3E0 JUMP JUMPDEST SWAP2 POP POP SWAP3 SWAP2 POP POP JUMP JUMPDEST PUSH1 0x0 DUP2 ISZERO ISZERO SWAP1 POP SWAP2 SWAP1 POP JUMP JUMPDEST PUSH2 0x437 DUP2 PUSH2 0x422 JUMP JUMPDEST DUP3 MSTORE POP POP JUMP JUMPDEST PUSH1 0x0 PUSH1 0x20 DUP3 ADD SWAP1 POP PUSH2 0x452 PUSH1 0x0 DUP4 ADD DUP5 PUSH2 0x42E JUMP JUMPDEST SWAP3 SWAP2 POP POP JUMP INVALID LOG2 PUSH5 0x6970667358 0x22 SLT KECCAK256 0xEF 0xC7 CALLDATASIZE LOG4 0x2A DUP3 0xE9 0x27 0xF7 0xB2 0x25 0xBA DUP1 ADDRESS 0x23 DUP7 0xE1 JUMP 0x5D 0xB7 0x2D SSTORE POP 0xAC 0xD1 DUP14 INVALID PUSH23 0x85593AA664736F6C634300081200330000000000000000 "
				},
				"gasEstimates": {
					"creation": {
						"codeDepositCost": "233200",
						"executionCost": "infinite",
						"totalCost": "infinite"
					},
					"external": {
						"addDistributor(address)": "infinite",
						"isDistributor(address)": "infinite",
						"renouceDistributor()": "infinite"
					},
					"internal": {
						"_addDistributor(address)": "infinite",
						"_removeDistributor(address)": "infinite"
					}
				},
				"methodIdentifiers": {
					"addDistributor(address)": "7250e224",
					"isDistributor(address)": "8f0c86fa",
					"renouceDistributor()": "4ea90d2d"
				}
			},
			"storageLayout": {
				"storage": [
					{
						"astId": 128,
						"contract": "Contracts/Access/Distributor.sol:Distributor",
						"label": "distributors",
						"offset": 0,
						"slot": "0",
						"type": "t_struct(Role)438_storage"
					}
				],
				"types": {
					"t_address": {
						"encoding": "inplace",
						"label": "address",
						"numberOfBytes": "20"
					},
					"t_bool": {
						"encoding": "inplace",
						"label": "bool",
						"numberOfBytes": "1"
					},
					"t_mapping(t_address,t_bool)": {
						"encoding": "mapping",
						"key": "t_address",
						"label": "mapping(address => bool)",
						"numberOfBytes": "32",
						"value": "t_bool"
					},
					"t_struct(Role)438_storage": {
						"encoding": "inplace",
						"label": "struct Roles.Role",
						"members": [
							{
								"astId": 437,
								"contract": "Contracts/Access/Distributor.sol:Distributor",
								"label": "bearer",
								"offset": 0,
								"slot": "0",
								"type": "t_mapping(t_address,t_bool)"
							}
						],
						"numberOfBytes": "32"
					}
				}
			},
			"userdoc": {
				"kind": "user",
				"methods": {},
				"version": 1
			}
		}
	}
}