{
	"Contracts/Access/Consumer.sol": {
		"Consumer": {
			"abi": [
				{
					"inputs": [],
					"stateMutability": "nonpayable",
					"type": "constructor"
				},
				{
					"anonymous": false,
					"inputs": [
						{
							"indexed": true,
							"internalType": "address",
							"name": "account",
							"type": "address"
						}
					],
					"name": "ConsumerAdded",
					"type": "event"
				},
				{
					"anonymous": false,
					"inputs": [
						{
							"indexed": true,
							"internalType": "address",
							"name": "account",
							"type": "address"
						}
					],
					"name": "ConsumerRemoved",
					"type": "event"
				},
				{
					"inputs": [
						{
							"internalType": "address",
							"name": "account",
							"type": "address"
						}
					],
					"name": "addConsumer",
					"outputs": [],
					"stateMutability": "nonpayable",
					"type": "function"
				},
				{
					"inputs": [
						{
							"internalType": "address",
							"name": "account",
							"type": "address"
						}
					],
					"name": "isConsumer",
					"outputs": [
						{
							"internalType": "bool",
							"name": "",
							"type": "bool"
						}
					],
					"stateMutability": "view",
					"type": "function"
				},
				{
					"inputs": [],
					"name": "renouceConsumer",
					"outputs": [],
					"stateMutability": "nonpayable",
					"type": "function"
				}
			],
			"devdoc": {
				"kind": "dev",
				"methods": {},
				"version": 1
			},
			"evm": {
				"assembly": "    /* \"Contracts/Access/Consumer.sol\":121:1278  contract Consumer is Context{... */\n  mstore(0x40, 0x80)\n    /* \"Contracts/Access/Consumer.sol\":349:408  constructor() {... */\n  callvalue\n  dup1\n  iszero\n  tag_1\n  jumpi\n  0x00\n  dup1\n  revert\ntag_1:\n  pop\n    /* \"Contracts/Access/Consumer.sol\":373:399  _addConsumer(_msgSender()) */\n  tag_4\n    /* \"Contracts/Access/Consumer.sol\":386:398  _msgSender() */\n  tag_5\n    /* \"Contracts/Access/Consumer.sol\":386:396  _msgSender */\n  shl(0x20, tag_6)\n    /* \"Contracts/Access/Consumer.sol\":386:398  _msgSender() */\n  0x20\n  shr\n  jump\t// in\ntag_5:\n    /* \"Contracts/Access/Consumer.sol\":373:385  _addConsumer */\n  shl(0x20, tag_7)\n    /* \"Contracts/Access/Consumer.sol\":373:399  _addConsumer(_msgSender()) */\n  0x20\n  shr\n  jump\t// in\ntag_4:\n    /* \"Contracts/Access/Consumer.sol\":121:1278  contract Consumer is Context{... */\n  jump(tag_8)\n    /* \"Contracts/Utils/Context.sol\":97:201  function _msgSender() internal view virtual returns (address) ... */\ntag_6:\n    /* \"Contracts/Utils/Context.sol\":150:157  address */\n  0x00\n    /* \"Contracts/Utils/Context.sol\":183:193  msg.sender */\n  caller\n    /* \"Contracts/Utils/Context.sol\":176:193  return msg.sender */\n  swap1\n  pop\n    /* \"Contracts/Utils/Context.sol\":97:201  function _msgSender() internal view virtual returns (address) ... */\n  swap1\n  jump\t// out\n    /* \"Contracts/Access/Consumer.sol\":993:1122  function _addConsumer  (address account ) internal{... */\ntag_7:\n    /* \"Contracts/Access/Consumer.sol\":1054:1076  consumers.add(account) */\n  tag_11\n    /* \"Contracts/Access/Consumer.sol\":1068:1075  account */\n  dup2\n    /* \"Contracts/Access/Consumer.sol\":1054:1063  consumers */\n  0x00\n    /* \"Contracts/Access/Consumer.sol\":1054:1067  consumers.add */\n  or(tag_0_17, shl(0x20, tag_12))\n  swap1\n    /* \"Contracts/Access/Consumer.sol\":1054:1076  consumers.add(account) */\n  swap2\n  swap1\n  0x20\n  shr\n  jump\t// in\ntag_11:\n    /* \"Contracts/Access/Consumer.sol\":1106:1113  account */\n  dup1\n    /* \"Contracts/Access/Consumer.sol\":1092:1114  ConsumerAdded(account) */\n  0xffffffffffffffffffffffffffffffffffffffff\n  and\n  0x28b26e7a3d20aedbc5f8f2ebf7da671c0491723a2b78f47a097b0e46dee07142\n  mload(0x40)\n  mload(0x40)\n  dup1\n  swap2\n  sub\n  swap1\n  log2\n    /* \"Contracts/Access/Consumer.sol\":993:1122  function _addConsumer  (address account ) internal{... */\n  pop\n  jump\t// out\n    /* \"Contracts/Access/Roles.sol\":153:344  function add(Role storage role , address account) internal {... */\ntag_12:\n    /* \"Contracts/Access/Roles.sol\":252:253  0 */\n  0x00\n    /* \"Contracts/Access/Roles.sol\":233:254  account != address(0) */\n  0xffffffffffffffffffffffffffffffffffffffff\n  and\n    /* \"Contracts/Access/Roles.sol\":233:240  account */\n  dup2\n    /* \"Contracts/Access/Roles.sol\":233:254  account != address(0) */\n  0xffffffffffffffffffffffffffffffffffffffff\n  and\n  sub\n    /* \"Contracts/Access/Roles.sol\":223:256  require( (account != address(0))) */\n  tag_14\n  jumpi\n  0x00\n  dup1\n  revert\ntag_14:\n    /* \"Contracts/Access/Roles.sol\":276:296  has(role , account ) */\n  tag_15\n    /* \"Contracts/Access/Roles.sol\":280:284  role */\n  dup3\n    /* \"Contracts/Access/Roles.sol\":287:294  account */\n  dup3\n    /* \"Contracts/Access/Roles.sol\":276:279  has */\n  shl(0x20, tag_16)\n    /* \"Contracts/Access/Roles.sol\":276:296  has(role , account ) */\n  0x20\n  shr\n  jump\t// in\ntag_15:\n    /* \"Contracts/Access/Roles.sol\":275:296  !has(role , account ) */\n  iszero\n    /* \"Contracts/Access/Roles.sol\":267:297  require(!has(role , account )) */\n  tag_17\n  jumpi\n  0x00\n  dup1\n  revert\ntag_17:\n    /* \"Contracts/Access/Roles.sol\":330:334  true */\n  0x01\n    /* \"Contracts/Access/Roles.sol\":308:312  role */\n  dup3\n    /* \"Contracts/Access/Roles.sol\":308:319  role.bearer */\n  0x00\n  add\n    /* \"Contracts/Access/Roles.sol\":308:328  role.bearer[account] */\n  0x00\n    /* \"Contracts/Access/Roles.sol\":320:327  account */\n  dup4\n    /* \"Contracts/Access/Roles.sol\":308:328  role.bearer[account] */\n  0xffffffffffffffffffffffffffffffffffffffff\n  and\n  0xffffffffffffffffffffffffffffffffffffffff\n  and\n  dup2\n  mstore\n  0x20\n  add\n  swap1\n  dup2\n  mstore\n  0x20\n  add\n  0x00\n  keccak256\n  0x00\n    /* \"Contracts/Access/Roles.sol\":308:334  role.bearer[account]= true */\n  0x0100\n  exp\n  dup2\n  sload\n  dup2\n  0xff\n  mul\n  not\n  and\n  swap1\n  dup4\n  iszero\n  iszero\n  mul\n  or\n  swap1\n  sstore\n  pop\n    /* \"Contracts/Access/Roles.sol\":153:344  function add(Role storage role , address account) internal {... */\n  pop\n  pop\n  jump\t// out\n    /* \"Contracts/Access/Roles.sol\":552:724  function has(Role storage role , address account ) internal view returns (bool) {... */\ntag_16:\n    /* \"Contracts/Access/Roles.sol\":626:630  bool */\n  0x00\n    /* \"Contracts/Access/Roles.sol\":671:672  0 */\n  dup1\n    /* \"Contracts/Access/Roles.sol\":652:673  account != address(0) */\n  0xffffffffffffffffffffffffffffffffffffffff\n  and\n    /* \"Contracts/Access/Roles.sol\":652:659  account */\n  dup3\n    /* \"Contracts/Access/Roles.sol\":652:673  account != address(0) */\n  0xffffffffffffffffffffffffffffffffffffffff\n  and\n  sub\n    /* \"Contracts/Access/Roles.sol\":644:674  require(account != address(0)) */\n  tag_19\n  jumpi\n  0x00\n  dup1\n  revert\ntag_19:\n    /* \"Contracts/Access/Roles.sol\":693:697  role */\n  dup3\n    /* \"Contracts/Access/Roles.sol\":693:704  role.bearer */\n  0x00\n  add\n    /* \"Contracts/Access/Roles.sol\":693:713  role.bearer[account] */\n  0x00\n    /* \"Contracts/Access/Roles.sol\":705:712  account */\n  dup4\n    /* \"Contracts/Access/Roles.sol\":693:713  role.bearer[account] */\n  0xffffffffffffffffffffffffffffffffffffffff\n  and\n  0xffffffffffffffffffffffffffffffffffffffff\n  and\n  dup2\n  mstore\n  0x20\n  add\n  swap1\n  dup2\n  mstore\n  0x20\n  add\n  0x00\n  keccak256\n  0x00\n  swap1\n  sload\n  swap1\n  0x0100\n  exp\n  swap1\n  div\n  0xff\n  and\n    /* \"Contracts/Access/Roles.sol\":686:713  return role.bearer[account] */\n  swap1\n  pop\n    /* \"Contracts/Access/Roles.sol\":552:724  function has(Role storage role , address account ) internal view returns (bool) {... */\n  swap3\n  swap2\n  pop\n  pop\n  jump\t// out\n    /* \"Contracts/Access/Consumer.sol\":121:1278  contract Consumer is Context{... */\ntag_8:\n  dataSize(sub_0)\n  dup1\n  dataOffset(sub_0)\n  0x00\n  codecopy\n  0x00\n  return\nstop\n\nsub_0: assembly {\n        /* \"Contracts/Access/Consumer.sol\":121:1278  contract Consumer is Context{... */\n      mstore(0x40, 0x80)\n      callvalue\n      dup1\n      iszero\n      tag_1\n      jumpi\n      0x00\n      dup1\n      revert\n    tag_1:\n      pop\n      jumpi(tag_2, lt(calldatasize, 0x04))\n      shr(0xe0, calldataload(0x00))\n      dup1\n      0x112940f9\n      eq\n      tag_3\n      jumpi\n      dup1\n      0x3496c175\n      eq\n      tag_4\n      jumpi\n      dup1\n      0x834ff739\n      eq\n      tag_5\n      jumpi\n    tag_2:\n      0x00\n      dup1\n      revert\n        /* \"Contracts/Access/Consumer.sol\":787:885  function addConsumer (address account) public onlyConsumer{... */\n    tag_3:\n      tag_6\n      0x04\n      dup1\n      calldatasize\n      sub\n      dup2\n      add\n      swap1\n      tag_7\n      swap2\n      swap1\n      tag_8\n      jump\t// in\n    tag_7:\n      tag_9\n      jump\t// in\n    tag_6:\n      stop\n        /* \"Contracts/Access/Consumer.sol\":893:985  function  renouceConsumer() public{... */\n    tag_4:\n      tag_10\n      tag_11\n      jump\t// in\n    tag_10:\n      stop\n        /* \"Contracts/Access/Consumer.sol\":646:775  function isConsumer(address account )... */\n    tag_5:\n      tag_12\n      0x04\n      dup1\n      calldatasize\n      sub\n      dup2\n      add\n      swap1\n      tag_13\n      swap2\n      swap1\n      tag_8\n      jump\t// in\n    tag_13:\n      tag_14\n      jump\t// in\n    tag_12:\n      mload(0x40)\n      tag_15\n      swap2\n      swap1\n      tag_16\n      jump\t// in\n    tag_15:\n      mload(0x40)\n      dup1\n      swap2\n      sub\n      swap1\n      return\n        /* \"Contracts/Access/Consumer.sol\":787:885  function addConsumer (address account) public onlyConsumer{... */\n    tag_9:\n        /* \"Contracts/Access/Consumer.sol\":534:558  isConsumer(_msgSender()) */\n      tag_19\n        /* \"Contracts/Access/Consumer.sol\":545:557  _msgSender() */\n      tag_20\n        /* \"Contracts/Access/Consumer.sol\":545:555  _msgSender */\n      tag_21\n        /* \"Contracts/Access/Consumer.sol\":545:557  _msgSender() */\n      jump\t// in\n    tag_20:\n        /* \"Contracts/Access/Consumer.sol\":534:544  isConsumer */\n      tag_14\n        /* \"Contracts/Access/Consumer.sol\":534:558  isConsumer(_msgSender()) */\n      jump\t// in\n    tag_19:\n        /* \"Contracts/Access/Consumer.sol\":526:559  require(isConsumer(_msgSender())) */\n      tag_22\n      jumpi\n      0x00\n      dup1\n      revert\n    tag_22:\n        /* \"Contracts/Access/Consumer.sol\":856:877  _addConsumer(account) */\n      tag_24\n        /* \"Contracts/Access/Consumer.sol\":869:876  account */\n      dup2\n        /* \"Contracts/Access/Consumer.sol\":856:868  _addConsumer */\n      tag_25\n        /* \"Contracts/Access/Consumer.sol\":856:877  _addConsumer(account) */\n      jump\t// in\n    tag_24:\n        /* \"Contracts/Access/Consumer.sol\":787:885  function addConsumer (address account) public onlyConsumer{... */\n      pop\n      jump\t// out\n        /* \"Contracts/Access/Consumer.sol\":893:985  function  renouceConsumer() public{... */\n    tag_11:\n        /* \"Contracts/Access/Consumer.sol\":948:977  _removeConsumer(_msgSender()) */\n      tag_27\n        /* \"Contracts/Access/Consumer.sol\":964:976  _msgSender() */\n      tag_28\n        /* \"Contracts/Access/Consumer.sol\":964:974  _msgSender */\n      tag_21\n        /* \"Contracts/Access/Consumer.sol\":964:976  _msgSender() */\n      jump\t// in\n    tag_28:\n        /* \"Contracts/Access/Consumer.sol\":948:963  _removeConsumer */\n      tag_29\n        /* \"Contracts/Access/Consumer.sol\":948:977  _removeConsumer(_msgSender()) */\n      jump\t// in\n    tag_27:\n        /* \"Contracts/Access/Consumer.sol\":893:985  function  renouceConsumer() public{... */\n      jump\t// out\n        /* \"Contracts/Access/Consumer.sol\":646:775  function isConsumer(address account )... */\n    tag_14:\n        /* \"Contracts/Access/Consumer.sol\":722:726  bool */\n      0x00\n        /* \"Contracts/Access/Consumer.sol\":745:767  consumers.has(account) */\n      tag_31\n        /* \"Contracts/Access/Consumer.sol\":759:766  account */\n      dup3\n        /* \"Contracts/Access/Consumer.sol\":745:754  consumers */\n      0x00\n        /* \"Contracts/Access/Consumer.sol\":745:758  consumers.has */\n      tag_32\n      swap1\n        /* \"Contracts/Access/Consumer.sol\":745:767  consumers.has(account) */\n      swap2\n      swap1\n      0xffffffff\n      and\n      jump\t// in\n    tag_31:\n        /* \"Contracts/Access/Consumer.sol\":738:767  return consumers.has(account) */\n      swap1\n      pop\n        /* \"Contracts/Access/Consumer.sol\":646:775  function isConsumer(address account )... */\n      swap2\n      swap1\n      pop\n      jump\t// out\n        /* \"Contracts/Access/Roles.sol\":153:344  function add(Role storage role , address account) internal {... */\n    tag_17:\n        /* \"Contracts/Access/Roles.sol\":252:253  0 */\n      0x00\n        /* \"Contracts/Access/Roles.sol\":233:254  account != address(0) */\n      0xffffffffffffffffffffffffffffffffffffffff\n      and\n        /* \"Contracts/Access/Roles.sol\":233:240  account */\n      dup2\n        /* \"Contracts/Access/Roles.sol\":233:254  account != address(0) */\n      0xffffffffffffffffffffffffffffffffffffffff\n      and\n      sub\n        /* \"Contracts/Access/Roles.sol\":223:256  require( (account != address(0))) */\n      tag_34\n      jumpi\n      0x00\n      dup1\n      revert\n    tag_34:\n        /* \"Contracts/Access/Roles.sol\":276:296  has(role , account ) */\n      tag_35\n        /* \"Contracts/Access/Roles.sol\":280:284  role */\n      dup3\n        /* \"Contracts/Access/Roles.sol\":287:294  account */\n      dup3\n        /* \"Contracts/Access/Roles.sol\":276:279  has */\n      tag_32\n        /* \"Contracts/Access/Roles.sol\":276:296  has(role , account ) */\n      jump\t// in\n    tag_35:\n        /* \"Contracts/Access/Roles.sol\":275:296  !has(role , account ) */\n      iszero\n        /* \"Contracts/Access/Roles.sol\":267:297  require(!has(role , account )) */\n      tag_36\n      jumpi\n      0x00\n      dup1\n      revert\n    tag_36:\n        /* \"Contracts/Access/Roles.sol\":330:334  true */\n      0x01\n        /* \"Contracts/Access/Roles.sol\":308:312  role */\n      dup3\n        /* \"Contracts/Access/Roles.sol\":308:319  role.bearer */\n      0x00\n      add\n        /* \"Contracts/Access/Roles.sol\":308:328  role.bearer[account] */\n      0x00\n        /* \"Contracts/Access/Roles.sol\":320:327  account */\n      dup4\n        /* \"Contracts/Access/Roles.sol\":308:328  role.bearer[account] */\n      0xffffffffffffffffffffffffffffffffffffffff\n      and\n      0xffffffffffffffffffffffffffffffffffffffff\n      and\n      dup2\n      mstore\n      0x20\n      add\n      swap1\n      dup2\n      mstore\n      0x20\n      add\n      0x00\n      keccak256\n      0x00\n        /* \"Contracts/Access/Roles.sol\":308:334  role.bearer[account]= true */\n      0x0100\n      exp\n      dup2\n      sload\n      dup2\n      0xff\n      mul\n      not\n      and\n      swap1\n      dup4\n      iszero\n      iszero\n      mul\n      or\n      swap1\n      sstore\n      pop\n        /* \"Contracts/Access/Roles.sol\":153:344  function add(Role storage role , address account) internal {... */\n      pop\n      pop\n      jump\t// out\n        /* \"Contracts/Utils/Context.sol\":97:201  function _msgSender() internal view virtual returns (address) ... */\n    tag_21:\n        /* \"Contracts/Utils/Context.sol\":150:157  address */\n      0x00\n        /* \"Contracts/Utils/Context.sol\":183:193  msg.sender */\n      caller\n        /* \"Contracts/Utils/Context.sol\":176:193  return msg.sender */\n      swap1\n      pop\n        /* \"Contracts/Utils/Context.sol\":97:201  function _msgSender() internal view virtual returns (address) ... */\n      swap1\n      jump\t// out\n        /* \"Contracts/Access/Consumer.sol\":993:1122  function _addConsumer  (address account ) internal{... */\n    tag_25:\n        /* \"Contracts/Access/Consumer.sol\":1054:1076  consumers.add(account) */\n      tag_39\n        /* \"Contracts/Access/Consumer.sol\":1068:1075  account */\n      dup2\n        /* \"Contracts/Access/Consumer.sol\":1054:1063  consumers */\n      0x00\n        /* \"Contracts/Access/Consumer.sol\":1054:1067  consumers.add */\n      tag_17\n      swap1\n        /* \"Contracts/Access/Consumer.sol\":1054:1076  consumers.add(account) */\n      swap2\n      swap1\n      0xffffffff\n      and\n      jump\t// in\n    tag_39:\n        /* \"Contracts/Access/Consumer.sol\":1106:1113  account */\n      dup1\n        /* \"Contracts/Access/Consumer.sol\":1092:1114  ConsumerAdded(account) */\n      0xffffffffffffffffffffffffffffffffffffffff\n      and\n      0x28b26e7a3d20aedbc5f8f2ebf7da671c0491723a2b78f47a097b0e46dee07142\n      mload(0x40)\n      mload(0x40)\n      dup1\n      swap2\n      sub\n      swap1\n      log2\n        /* \"Contracts/Access/Consumer.sol\":993:1122  function _addConsumer  (address account ) internal{... */\n      pop\n      jump\t// out\n        /* \"Contracts/Access/Consumer.sol\":1134:1271  function _removeConsumer(address account ) internal {... */\n    tag_29:\n        /* \"Contracts/Access/Consumer.sol\":1197:1222  consumers.remove(account) */\n      tag_41\n        /* \"Contracts/Access/Consumer.sol\":1214:1221  account */\n      dup2\n        /* \"Contracts/Access/Consumer.sol\":1197:1206  consumers */\n      0x00\n        /* \"Contracts/Access/Consumer.sol\":1197:1213  consumers.remove */\n      tag_42\n      swap1\n        /* \"Contracts/Access/Consumer.sol\":1197:1222  consumers.remove(account) */\n      swap2\n      swap1\n      0xffffffff\n      and\n      jump\t// in\n    tag_41:\n        /* \"Contracts/Access/Consumer.sol\":1254:1261  account */\n      dup1\n        /* \"Contracts/Access/Consumer.sol\":1238:1263  ConsumerRemoved(account ) */\n      0xffffffffffffffffffffffffffffffffffffffff\n      and\n      0xe3f5ed5f263f1f01764a96edfc7d025f511ec5f7d180e8816908b78bcf74f098\n      mload(0x40)\n      mload(0x40)\n      dup1\n      swap2\n      sub\n      swap1\n      log2\n        /* \"Contracts/Access/Consumer.sol\":1134:1271  function _removeConsumer(address account ) internal {... */\n      pop\n      jump\t// out\n        /* \"Contracts/Access/Roles.sol\":552:724  function has(Role storage role , address account ) internal view returns (bool) {... */\n    tag_32:\n        /* \"Contracts/Access/Roles.sol\":626:630  bool */\n      0x00\n        /* \"Contracts/Access/Roles.sol\":671:672  0 */\n      dup1\n        /* \"Contracts/Access/Roles.sol\":652:673  account != address(0) */\n      0xffffffffffffffffffffffffffffffffffffffff\n      and\n        /* \"Contracts/Access/Roles.sol\":652:659  account */\n      dup3\n        /* \"Contracts/Access/Roles.sol\":652:673  account != address(0) */\n      0xffffffffffffffffffffffffffffffffffffffff\n      and\n      sub\n        /* \"Contracts/Access/Roles.sol\":644:674  require(account != address(0)) */\n      tag_44\n      jumpi\n      0x00\n      dup1\n      revert\n    tag_44:\n        /* \"Contracts/Access/Roles.sol\":693:697  role */\n      dup3\n        /* \"Contracts/Access/Roles.sol\":693:704  role.bearer */\n      0x00\n      add\n        /* \"Contracts/Access/Roles.sol\":693:713  role.bearer[account] */\n      0x00\n        /* \"Contracts/Access/Roles.sol\":705:712  account */\n      dup4\n        /* \"Contracts/Access/Roles.sol\":693:713  role.bearer[account] */\n      0xffffffffffffffffffffffffffffffffffffffff\n      and\n      0xffffffffffffffffffffffffffffffffffffffff\n      and\n      dup2\n      mstore\n      0x20\n      add\n      swap1\n      dup2\n      mstore\n      0x20\n      add\n      0x00\n      keccak256\n      0x00\n      swap1\n      sload\n      swap1\n      0x0100\n      exp\n      swap1\n      div\n      0xff\n      and\n        /* \"Contracts/Access/Roles.sol\":686:713  return role.bearer[account] */\n      swap1\n      pop\n        /* \"Contracts/Access/Roles.sol\":552:724  function has(Role storage role , address account ) internal view returns (bool) {... */\n      swap3\n      swap2\n      pop\n      pop\n      jump\t// out\n        /* \"Contracts/Access/Roles.sol\":351:545  function remove(Role storage role , address account) internal {... */\n    tag_42:\n        /* \"Contracts/Access/Roles.sol\":453:454  0 */\n      0x00\n        /* \"Contracts/Access/Roles.sol\":434:455  account != address(0) */\n      0xffffffffffffffffffffffffffffffffffffffff\n      and\n        /* \"Contracts/Access/Roles.sol\":434:441  account */\n      dup2\n        /* \"Contracts/Access/Roles.sol\":434:455  account != address(0) */\n      0xffffffffffffffffffffffffffffffffffffffff\n      and\n      sub\n        /* \"Contracts/Access/Roles.sol\":424:457  require( (account != address(0))) */\n      tag_46\n      jumpi\n      0x00\n      dup1\n      revert\n    tag_46:\n        /* \"Contracts/Access/Roles.sol\":476:496  has(role , account ) */\n      tag_47\n        /* \"Contracts/Access/Roles.sol\":480:484  role */\n      dup3\n        /* \"Contracts/Access/Roles.sol\":487:494  account */\n      dup3\n        /* \"Contracts/Access/Roles.sol\":476:479  has */\n      tag_32\n        /* \"Contracts/Access/Roles.sol\":476:496  has(role , account ) */\n      jump\t// in\n    tag_47:\n        /* \"Contracts/Access/Roles.sol\":468:497  require(has(role , account )) */\n      tag_48\n      jumpi\n      0x00\n      dup1\n      revert\n    tag_48:\n        /* \"Contracts/Access/Roles.sol\":530:535  false */\n      0x00\n        /* \"Contracts/Access/Roles.sol\":508:512  role */\n      dup3\n        /* \"Contracts/Access/Roles.sol\":508:519  role.bearer */\n      0x00\n      add\n        /* \"Contracts/Access/Roles.sol\":508:528  role.bearer[account] */\n      0x00\n        /* \"Contracts/Access/Roles.sol\":520:527  account */\n      dup4\n        /* \"Contracts/Access/Roles.sol\":508:528  role.bearer[account] */\n      0xffffffffffffffffffffffffffffffffffffffff\n      and\n      0xffffffffffffffffffffffffffffffffffffffff\n      and\n      dup2\n      mstore\n      0x20\n      add\n      swap1\n      dup2\n      mstore\n      0x20\n      add\n      0x00\n      keccak256\n      0x00\n        /* \"Contracts/Access/Roles.sol\":508:535  role.bearer[account]= false */\n      0x0100\n      exp\n      dup2\n      sload\n      dup2\n      0xff\n      mul\n      not\n      and\n      swap1\n      dup4\n      iszero\n      iszero\n      mul\n      or\n      swap1\n      sstore\n      pop\n        /* \"Contracts/Access/Roles.sol\":351:545  function remove(Role storage role , address account) internal {... */\n      pop\n      pop\n      jump\t// out\n        /* \"#utility.yul\":88:205   */\n    tag_50:\n        /* \"#utility.yul\":197:198   */\n      0x00\n        /* \"#utility.yul\":194:195   */\n      dup1\n        /* \"#utility.yul\":187:199   */\n      revert\n        /* \"#utility.yul\":334:460   */\n    tag_52:\n        /* \"#utility.yul\":371:378   */\n      0x00\n        /* \"#utility.yul\":411:453   */\n      0xffffffffffffffffffffffffffffffffffffffff\n        /* \"#utility.yul\":404:409   */\n      dup3\n        /* \"#utility.yul\":400:454   */\n      and\n        /* \"#utility.yul\":389:454   */\n      swap1\n      pop\n        /* \"#utility.yul\":334:460   */\n      swap2\n      swap1\n      pop\n      jump\t// out\n        /* \"#utility.yul\":466:562   */\n    tag_53:\n        /* \"#utility.yul\":503:510   */\n      0x00\n        /* \"#utility.yul\":532:556   */\n      tag_64\n        /* \"#utility.yul\":550:555   */\n      dup3\n        /* \"#utility.yul\":532:556   */\n      tag_52\n      jump\t// in\n    tag_64:\n        /* \"#utility.yul\":521:556   */\n      swap1\n      pop\n        /* \"#utility.yul\":466:562   */\n      swap2\n      swap1\n      pop\n      jump\t// out\n        /* \"#utility.yul\":568:690   */\n    tag_54:\n        /* \"#utility.yul\":641:665   */\n      tag_66\n        /* \"#utility.yul\":659:664   */\n      dup2\n        /* \"#utility.yul\":641:665   */\n      tag_53\n      jump\t// in\n    tag_66:\n        /* \"#utility.yul\":634:639   */\n      dup2\n        /* \"#utility.yul\":631:666   */\n      eq\n        /* \"#utility.yul\":621:684   */\n      tag_67\n      jumpi\n        /* \"#utility.yul\":680:681   */\n      0x00\n        /* \"#utility.yul\":677:678   */\n      dup1\n        /* \"#utility.yul\":670:682   */\n      revert\n        /* \"#utility.yul\":621:684   */\n    tag_67:\n        /* \"#utility.yul\":568:690   */\n      pop\n      jump\t// out\n        /* \"#utility.yul\":696:835   */\n    tag_55:\n        /* \"#utility.yul\":742:747   */\n      0x00\n        /* \"#utility.yul\":780:786   */\n      dup2\n        /* \"#utility.yul\":767:787   */\n      calldataload\n        /* \"#utility.yul\":758:787   */\n      swap1\n      pop\n        /* \"#utility.yul\":796:829   */\n      tag_69\n        /* \"#utility.yul\":823:828   */\n      dup2\n        /* \"#utility.yul\":796:829   */\n      tag_54\n      jump\t// in\n    tag_69:\n        /* \"#utility.yul\":696:835   */\n      swap3\n      swap2\n      pop\n      pop\n      jump\t// out\n        /* \"#utility.yul\":841:1170   */\n    tag_8:\n        /* \"#utility.yul\":900:906   */\n      0x00\n        /* \"#utility.yul\":949:951   */\n      0x20\n        /* \"#utility.yul\":937:946   */\n      dup3\n        /* \"#utility.yul\":928:935   */\n      dup5\n        /* \"#utility.yul\":924:947   */\n      sub\n        /* \"#utility.yul\":920:952   */\n      slt\n        /* \"#utility.yul\":917:1036   */\n      iszero\n      tag_71\n      jumpi\n        /* \"#utility.yul\":955:1034   */\n      tag_72\n      tag_50\n      jump\t// in\n    tag_72:\n        /* \"#utility.yul\":917:1036   */\n    tag_71:\n        /* \"#utility.yul\":1075:1076   */\n      0x00\n        /* \"#utility.yul\":1100:1153   */\n      tag_73\n        /* \"#utility.yul\":1145:1152   */\n      dup5\n        /* \"#utility.yul\":1136:1142   */\n      dup3\n        /* \"#utility.yul\":1125:1134   */\n      dup6\n        /* \"#utility.yul\":1121:1143   */\n      add\n        /* \"#utility.yul\":1100:1153   */\n      tag_55\n      jump\t// in\n    tag_73:\n        /* \"#utility.yul\":1090:1153   */\n      swap2\n      pop\n        /* \"#utility.yul\":1046:1163   */\n      pop\n        /* \"#utility.yul\":841:1170   */\n      swap3\n      swap2\n      pop\n      pop\n      jump\t// out\n        /* \"#utility.yul\":1176:1266   */\n    tag_56:\n        /* \"#utility.yul\":1210:1217   */\n      0x00\n        /* \"#utility.yul\":1253:1258   */\n      dup2\n        /* \"#utility.yul\":1246:1259   */\n      iszero\n        /* \"#utility.yul\":1239:1260   */\n      iszero\n        /* \"#utility.yul\":1228:1260   */\n      swap1\n      pop\n        /* \"#utility.yul\":1176:1266   */\n      swap2\n      swap1\n      pop\n      jump\t// out\n        /* \"#utility.yul\":1272:1381   */\n    tag_57:\n        /* \"#utility.yul\":1353:1374   */\n      tag_76\n        /* \"#utility.yul\":1368:1373   */\n      dup2\n        /* \"#utility.yul\":1353:1374   */\n      tag_56\n      jump\t// in\n    tag_76:\n        /* \"#utility.yul\":1348:1351   */\n      dup3\n        /* \"#utility.yul\":1341:1375   */\n      mstore\n        /* \"#utility.yul\":1272:1381   */\n      pop\n      pop\n      jump\t// out\n        /* \"#utility.yul\":1387:1597   */\n    tag_16:\n        /* \"#utility.yul\":1474:1478   */\n      0x00\n        /* \"#utility.yul\":1512:1514   */\n      0x20\n        /* \"#utility.yul\":1501:1510   */\n      dup3\n        /* \"#utility.yul\":1497:1515   */\n      add\n        /* \"#utility.yul\":1489:1515   */\n      swap1\n      pop\n        /* \"#utility.yul\":1525:1590   */\n      tag_78\n        /* \"#utility.yul\":1587:1588   */\n      0x00\n        /* \"#utility.yul\":1576:1585   */\n      dup4\n        /* \"#utility.yul\":1572:1589   */\n      add\n        /* \"#utility.yul\":1563:1569   */\n      dup5\n        /* \"#utility.yul\":1525:1590   */\n      tag_57\n      jump\t// in\n    tag_78:\n        /* \"#utility.yul\":1387:1597   */\n      swap3\n      swap2\n      pop\n      pop\n      jump\t// out\n\n    auxdata: 0xa26469706673582212208e42a2264ace9e71760701d6fd61656ae2ba47eb860d464b3aa8fe00fec6d71964736f6c63430008120033\n}\n",
				"bytecode": {
					"linkReferences": {},
					"object": "608060405234801561001057600080fd5b5061002d61002261003260201b60201c565b61003a60201b60201c565b6101da565b600033905090565b61005281600061009860201b6100f01790919060201c565b8073ffffffffffffffffffffffffffffffffffffffff167f28b26e7a3d20aedbc5f8f2ebf7da671c0491723a2b78f47a097b0e46dee0714260405160405180910390a250565b600073ffffffffffffffffffffffffffffffffffffffff168173ffffffffffffffffffffffffffffffffffffffff16036100d157600080fd5b6100e1828261014960201b60201c565b156100eb57600080fd5b60018260000160008373ffffffffffffffffffffffffffffffffffffffff1673ffffffffffffffffffffffffffffffffffffffff16815260200190815260200160002060006101000a81548160ff0219169083151502179055505050565b60008073ffffffffffffffffffffffffffffffffffffffff168273ffffffffffffffffffffffffffffffffffffffff160361018357600080fd5b8260000160008373ffffffffffffffffffffffffffffffffffffffff1673ffffffffffffffffffffffffffffffffffffffff16815260200190815260200160002060009054906101000a900460ff16905092915050565b61048e806101e96000396000f3fe608060405234801561001057600080fd5b50600436106100415760003560e01c8063112940f9146100465780633496c17514610062578063834ff7391461006c575b600080fd5b610060600480360381019061005b91906103f5565b61009c565b005b61006a6100c1565b005b610086600480360381019061008191906103f5565b6100d3565b604051610093919061043d565b60405180910390f35b6100ac6100a761019b565b6100d3565b6100b557600080fd5b6100be816101a3565b50565b6100d16100cc61019b565b6101fd565b565b60006100e982600061025790919063ffffffff16565b9050919050565b600073ffffffffffffffffffffffffffffffffffffffff168173ffffffffffffffffffffffffffffffffffffffff160361012957600080fd5b6101338282610257565b1561013d57600080fd5b60018260000160008373ffffffffffffffffffffffffffffffffffffffff1673ffffffffffffffffffffffffffffffffffffffff16815260200190815260200160002060006101000a81548160ff0219169083151502179055505050565b600033905090565b6101b78160006100f090919063ffffffff16565b8073ffffffffffffffffffffffffffffffffffffffff167f28b26e7a3d20aedbc5f8f2ebf7da671c0491723a2b78f47a097b0e46dee0714260405160405180910390a250565b6102118160006102e890919063ffffffff16565b8073ffffffffffffffffffffffffffffffffffffffff167fe3f5ed5f263f1f01764a96edfc7d025f511ec5f7d180e8816908b78bcf74f09860405160405180910390a250565b60008073ffffffffffffffffffffffffffffffffffffffff168273ffffffffffffffffffffffffffffffffffffffff160361029157600080fd5b8260000160008373ffffffffffffffffffffffffffffffffffffffff1673ffffffffffffffffffffffffffffffffffffffff16815260200190815260200160002060009054906101000a900460ff16905092915050565b600073ffffffffffffffffffffffffffffffffffffffff168173ffffffffffffffffffffffffffffffffffffffff160361032157600080fd5b61032b8282610257565b61033457600080fd5b60008260000160008373ffffffffffffffffffffffffffffffffffffffff1673ffffffffffffffffffffffffffffffffffffffff16815260200190815260200160002060006101000a81548160ff0219169083151502179055505050565b600080fd5b600073ffffffffffffffffffffffffffffffffffffffff82169050919050565b60006103c282610397565b9050919050565b6103d2816103b7565b81146103dd57600080fd5b50565b6000813590506103ef816103c9565b92915050565b60006020828403121561040b5761040a610392565b5b6000610419848285016103e0565b91505092915050565b60008115159050919050565b61043781610422565b82525050565b6000602082019050610452600083018461042e565b9291505056fea26469706673582212208e42a2264ace9e71760701d6fd61656ae2ba47eb860d464b3aa8fe00fec6d71964736f6c63430008120033",
					"opcodes": "PUSH1 0x80 PUSH1 0x40 MSTORE CALLVALUE DUP1 ISZERO PUSH2 0x10 JUMPI PUSH1 0x0 DUP1 REVERT JUMPDEST POP PUSH2 0x2D PUSH2 0x22 PUSH2 0x32 PUSH1 0x20 SHL PUSH1 0x20 SHR JUMP JUMPDEST PUSH2 0x3A PUSH1 0x20 SHL PUSH1 0x20 SHR JUMP JUMPDEST PUSH2 0x1DA JUMP JUMPDEST PUSH1 0x0 CALLER SWAP1 POP SWAP1 JUMP JUMPDEST PUSH2 0x52 DUP2 PUSH1 0x0 PUSH2 0x98 PUSH1 0x20 SHL PUSH2 0xF0 OR SWAP1 SWAP2 SWAP1 PUSH1 0x20 SHR JUMP JUMPDEST DUP1 PUSH20 0xFFFFFFFFFFFFFFFFFFFFFFFFFFFFFFFFFFFFFFFF AND PUSH32 0x28B26E7A3D20AEDBC5F8F2EBF7DA671C0491723A2B78F47A097B0E46DEE07142 PUSH1 0x40 MLOAD PUSH1 0x40 MLOAD DUP1 SWAP2 SUB SWAP1 LOG2 POP JUMP JUMPDEST PUSH1 0x0 PUSH20 0xFFFFFFFFFFFFFFFFFFFFFFFFFFFFFFFFFFFFFFFF AND DUP2 PUSH20 0xFFFFFFFFFFFFFFFFFFFFFFFFFFFFFFFFFFFFFFFF AND SUB PUSH2 0xD1 JUMPI PUSH1 0x0 DUP1 REVERT JUMPDEST PUSH2 0xE1 DUP3 DUP3 PUSH2 0x149 PUSH1 0x20 SHL PUSH1 0x20 SHR JUMP JUMPDEST ISZERO PUSH2 0xEB JUMPI PUSH1 0x0 DUP1 REVERT JUMPDEST PUSH1 0x1 DUP3 PUSH1 0x0 ADD PUSH1 0x0 DUP4 PUSH20 0xFFFFFFFFFFFFFFFFFFFFFFFFFFFFFFFFFFFFFFFF AND PUSH20 0xFFFFFFFFFFFFFFFFFFFFFFFFFFFFFFFFFFFFFFFF AND DUP2 MSTORE PUSH1 0x20 ADD SWAP1 DUP2 MSTORE PUSH1 0x20 ADD PUSH1 0x0 KECCAK256 PUSH1 0x0 PUSH2 0x100 EXP DUP2 SLOAD DUP2 PUSH1 0xFF MUL NOT AND SWAP1 DUP4 ISZERO ISZERO MUL OR SWAP1 SSTORE POP POP POP JUMP JUMPDEST PUSH1 0x0 DUP1 PUSH20 0xFFFFFFFFFFFFFFFFFFFFFFFFFFFFFFFFFFFFFFFF AND DUP3 PUSH20 0xFFFFFFFFFFFFFFFFFFFFFFFFFFFFFFFFFFFFFFFF AND SUB PUSH2 0x183 JUMPI PUSH1 0x0 DUP1 REVERT JUMPDEST DUP3 PUSH1 0x0 ADD PUSH1 0x0 DUP4 PUSH20 0xFFFFFFFFFFFFFFFFFFFFFFFFFFFFFFFFFFFFFFFF AND PUSH20 0xFFFFFFFFFFFFFFFFFFFFFFFFFFFFFFFFFFFFFFFF AND DUP2 MSTORE PUSH1 0x20 ADD SWAP1 DUP2 MSTORE PUSH1 0x20 ADD PUSH1 0x0 KECCAK256 PUSH1 0x0 SWAP1 SLOAD SWAP1 PUSH2 0x100 EXP SWAP1 DIV PUSH1 0xFF AND SWAP1 POP SWAP3 SWAP2 POP POP JUMP JUMPDEST PUSH2 0x48E DUP1 PUSH2 0x1E9 PUSH1 0x0 CODECOPY PUSH1 0x0 RETURN INVALID PUSH1 0x80 PUSH1 0x40 MSTORE CALLVALUE DUP1 ISZERO PUSH2 0x10 JUMPI PUSH1 0x0 DUP1 REVERT JUMPDEST POP PUSH1 0x4 CALLDATASIZE LT PUSH2 0x41 JUMPI PUSH1 0x0 CALLDATALOAD PUSH1 0xE0 SHR DUP1 PUSH4 0x112940F9 EQ PUSH2 0x46 JUMPI DUP1 PUSH4 0x3496C175 EQ PUSH2 0x62 JUMPI DUP1 PUSH4 0x834FF739 EQ PUSH2 0x6C JUMPI JUMPDEST PUSH1 0x0 DUP1 REVERT JUMPDEST PUSH2 0x60 PUSH1 0x4 DUP1 CALLDATASIZE SUB DUP2 ADD SWAP1 PUSH2 0x5B SWAP2 SWAP1 PUSH2 0x3F5 JUMP JUMPDEST PUSH2 0x9C JUMP JUMPDEST STOP JUMPDEST PUSH2 0x6A PUSH2 0xC1 JUMP JUMPDEST STOP JUMPDEST PUSH2 0x86 PUSH1 0x4 DUP1 CALLDATASIZE SUB DUP2 ADD SWAP1 PUSH2 0x81 SWAP2 SWAP1 PUSH2 0x3F5 JUMP JUMPDEST PUSH2 0xD3 JUMP JUMPDEST PUSH1 0x40 MLOAD PUSH2 0x93 SWAP2 SWAP1 PUSH2 0x43D JUMP JUMPDEST PUSH1 0x40 MLOAD DUP1 SWAP2 SUB SWAP1 RETURN JUMPDEST PUSH2 0xAC PUSH2 0xA7 PUSH2 0x19B JUMP JUMPDEST PUSH2 0xD3 JUMP JUMPDEST PUSH2 0xB5 JUMPI PUSH1 0x0 DUP1 REVERT JUMPDEST PUSH2 0xBE DUP2 PUSH2 0x1A3 JUMP JUMPDEST POP JUMP JUMPDEST PUSH2 0xD1 PUSH2 0xCC PUSH2 0x19B JUMP JUMPDEST PUSH2 0x1FD JUMP JUMPDEST JUMP JUMPDEST PUSH1 0x0 PUSH2 0xE9 DUP3 PUSH1 0x0 PUSH2 0x257 SWAP1 SWAP2 SWAP1 PUSH4 0xFFFFFFFF AND JUMP JUMPDEST SWAP1 POP SWAP2 SWAP1 POP JUMP JUMPDEST PUSH1 0x0 PUSH20 0xFFFFFFFFFFFFFFFFFFFFFFFFFFFFFFFFFFFFFFFF AND DUP2 PUSH20 0xFFFFFFFFFFFFFFFFFFFFFFFFFFFFFFFFFFFFFFFF AND SUB PUSH2 0x129 JUMPI PUSH1 0x0 DUP1 REVERT JUMPDEST PUSH2 0x133 DUP3 DUP3 PUSH2 0x257 JUMP JUMPDEST ISZERO PUSH2 0x13D JUMPI PUSH1 0x0 DUP1 REVERT JUMPDEST PUSH1 0x1 DUP3 PUSH1 0x0 ADD PUSH1 0x0 DUP4 PUSH20 0xFFFFFFFFFFFFFFFFFFFFFFFFFFFFFFFFFFFFFFFF AND PUSH20 0xFFFFFFFFFFFFFFFFFFFFFFFFFFFFFFFFFFFFFFFF AND DUP2 MSTORE PUSH1 0x20 ADD SWAP1 DUP2 MSTORE PUSH1 0x20 ADD PUSH1 0x0 KECCAK256 PUSH1 0x0 PUSH2 0x100 EXP DUP2 SLOAD DUP2 PUSH1 0xFF MUL NOT AND SWAP1 DUP4 ISZERO ISZERO MUL OR SWAP1 SSTORE POP POP POP JUMP JUMPDEST PUSH1 0x0 CALLER SWAP1 POP SWAP1 JUMP JUMPDEST PUSH2 0x1B7 DUP2 PUSH1 0x0 PUSH2 0xF0 SWAP1 SWAP2 SWAP1 PUSH4 0xFFFFFFFF AND JUMP JUMPDEST DUP1 PUSH20 0xFFFFFFFFFFFFFFFFFFFFFFFFFFFFFFFFFFFFFFFF AND PUSH32 0x28B26E7A3D20AEDBC5F8F2EBF7DA671C0491723A2B78F47A097B0E46DEE07142 PUSH1 0x40 MLOAD PUSH1 0x40 MLOAD DUP1 SWAP2 SUB SWAP1 LOG2 POP JUMP JUMPDEST PUSH2 0x211 DUP2 PUSH1 0x0 PUSH2 0x2E8 SWAP1 SWAP2 SWAP1 PUSH4 0xFFFFFFFF AND JUMP JUMPDEST DUP1 PUSH20 0xFFFFFFFFFFFFFFFFFFFFFFFFFFFFFFFFFFFFFFFF AND PUSH32 0xE3F5ED5F263F1F01764A96EDFC7D025F511EC5F7D180E8816908B78BCF74F098 PUSH1 0x40 MLOAD PUSH1 0x40 MLOAD DUP1 SWAP2 SUB SWAP1 LOG2 POP JUMP JUMPDEST PUSH1 0x0 DUP1 PUSH20 0xFFFFFFFFFFFFFFFFFFFFFFFFFFFFFFFFFFFFFFFF AND DUP3 PUSH20 0xFFFFFFFFFFFFFFFFFFFFFFFFFFFFFFFFFFFFFFFF AND SUB PUSH2 0x291 JUMPI PUSH1 0x0 DUP1 REVERT JUMPDEST DUP3 PUSH1 0x0 ADD PUSH1 0x0 DUP4 PUSH20 0xFFFFFFFFFFFFFFFFFFFFFFFFFFFFFFFFFFFFFFFF AND PUSH20 0xFFFFFFFFFFFFFFFFFFFFFFFFFFFFFFFFFFFFFFFF AND DUP2 MSTORE PUSH1 0x20 ADD SWAP1 DUP2 MSTORE PUSH1 0x20 ADD PUSH1 0x0 KECCAK256 PUSH1 0x0 SWAP1 SLOAD SWAP1 PUSH2 0x100 EXP SWAP1 DIV PUSH1 0xFF AND SWAP1 POP SWAP3 SWAP2 POP POP JUMP JUMPDEST PUSH1 0x0 PUSH20 0xFFFFFFFFFFFFFFFFFFFFFFFFFFFFFFFFFFFFFFFF AND DUP2 PUSH20 0xFFFFFFFFFFFFFFFFFFFFFFFFFFFFFFFFFFFFFFFF AND SUB PUSH2 0x321 JUMPI PUSH1 0x0 DUP1 REVERT JUMPDEST PUSH2 0x32B DUP3 DUP3 PUSH2 0x257 JUMP JUMPDEST PUSH2 0x334 JUMPI PUSH1 0x0 DUP1 REVERT JUMPDEST PUSH1 0x0 DUP3 PUSH1 0x0 ADD PUSH1 0x0 DUP4 PUSH20 0xFFFFFFFFFFFFFFFFFFFFFFFFFFFFFFFFFFFFFFFF AND PUSH20 0xFFFFFFFFFFFFFFFFFFFFFFFFFFFFFFFFFFFFFFFF AND DUP2 MSTORE PUSH1 0x20 ADD SWAP1 DUP2 MSTORE PUSH1 0x20 ADD PUSH1 0x0 KECCAK256 PUSH1 0x0 PUSH2 0x100 EXP DUP2 SLOAD DUP2 PUSH1 0xFF MUL NOT AND SWAP1 DUP4 ISZERO ISZERO MUL OR SWAP1 SSTORE POP POP POP JUMP JUMPDEST PUSH1 0x0 DUP1 REVERT JUMPDEST PUSH1 0x0 PUSH20 0xFFFFFFFFFFFFFFFFFFFFFFFFFFFFFFFFFFFFFFFF DUP3 AND SWAP1 POP SWAP2 SWAP1 POP JUMP JUMPDEST PUSH1 0x0 PUSH2 0x3C2 DUP3 PUSH2 0x397 JUMP JUMPDEST SWAP1 POP SWAP2 SWAP1 POP JUMP JUMPDEST PUSH2 0x3D2 DUP2 PUSH2 0x3B7 JUMP JUMPDEST DUP2 EQ PUSH2 0x3DD JUMPI PUSH1 0x0 DUP1 REVERT JUMPDEST POP JUMP JUMPDEST PUSH1 0x0 DUP2 CALLDATALOAD SWAP1 POP PUSH2 0x3EF DUP2 PUSH2 0x3C9 JUMP JUMPDEST SWAP3 SWAP2 POP POP JUMP JUMPDEST PUSH1 0x0 PUSH1 0x20 DUP3 DUP5 SUB SLT ISZERO PUSH2 0x40B JUMPI PUSH2 0x40A PUSH2 0x392 JUMP JUMPDEST JUMPDEST PUSH1 0x0 PUSH2 0x419 DUP5 DUP3 DUP6 ADD PUSH2 0x3E0 JUMP JUMPDEST SWAP2 POP POP SWAP3 SWAP2 POP POP JUMP JUMPDEST PUSH1 0x0 DUP2 ISZERO ISZERO SWAP1 POP SWAP2 SWAP1 POP JUMP JUMPDEST PUSH2 0x437 DUP2 PUSH2 0x422 JUMP JUMPDEST DUP3 MSTORE POP POP JUMP JUMPDEST PUSH1 0x0 PUSH1 0x20 DUP3 ADD SWAP1 POP PUSH2 0x452 PUSH1 0x0 DUP4 ADD DUP5 PUSH2 0x42E JUMP JUMPDEST SWAP3 SWAP2 POP POP JUMP INVALID LOG2 PUSH5 0x6970667358 0x22 SLT KECCAK256 DUP15 TIMESTAMP LOG2 0x26 0x4A 0xCE SWAP15 PUSH18 0x760701D6FD61656AE2BA47EB860D464B3AA8 INVALID STOP INVALID 0xC6 0xD7 NOT PUSH5 0x736F6C6343 STOP ADDMOD SLT STOP CALLER "
				},
				"gasEstimates": {
					"creation": {
						"codeDepositCost": "233200",
						"executionCost": "infinite",
						"totalCost": "infinite"
					},
					"external": {
						"addConsumer(address)": "infinite",
						"isConsumer(address)": "infinite",
						"renouceConsumer()": "infinite"
					},
					"internal": {
						"_addConsumer(address)": "infinite",
						"_removeConsumer(address)": "infinite"
					}
				},
				"methodIdentifiers": {
					"addConsumer(address)": "112940f9",
					"isConsumer(address)": "834ff739",
					"renouceConsumer()": "3496c175"
				}
			},
			"storageLayout": {
				"storage": [
					{
						"astId": 20,
						"contract": "Contracts/Access/Consumer.sol:Consumer",
						"label": "consumers",
						"offset": 0,
						"slot": "0",
						"type": "t_struct(Role)438_storage"
					}
				],
				"types": {
					"t_address": {
						"encoding": "inplace",
						"label": "address",
						"numberOfBytes": "20"
					},
					"t_bool": {
						"encoding": "inplace",
						"label": "bool",
						"numberOfBytes": "1"
					},
					"t_mapping(t_address,t_bool)": {
						"encoding": "mapping",
						"key": "t_address",
						"label": "mapping(address => bool)",
						"numberOfBytes": "32",
						"value": "t_bool"
					},
					"t_struct(Role)438_storage": {
						"encoding": "inplace",
						"label": "struct Roles.Role",
						"members": [
							{
								"astId": 437,
								"contract": "Contracts/Access/Consumer.sol:Consumer",
								"label": "bearer",
								"offset": 0,
								"slot": "0",
								"type": "t_mapping(t_address,t_bool)"
							}
						],
						"numberOfBytes": "32"
					}
				}
			},
			"userdoc": {
				"kind": "user",
				"methods": {},
				"version": 1
			}
		}
	}
}