{
	"Contracts/Supplychain/Supplychain1.sol": {
		"Supplychain1": {
			"abi": [
				{
					"inputs": [],
					"stateMutability": "payable",
					"type": "constructor"
				},
				{
					"anonymous": false,
					"inputs": [
						{
							"indexed": true,
							"internalType": "address",
							"name": "account",
							"type": "address"
						}
					],
					"name": "ConsumerAdded",
					"type": "event"
				},
				{
					"anonymous": false,
					"inputs": [
						{
							"indexed": true,
							"internalType": "address",
							"name": "account",
							"type": "address"
						}
					],
					"name": "ConsumerRemoved",
					"type": "event"
				},
				{
					"anonymous": false,
					"inputs": [
						{
							"indexed": true,
							"internalType": "address",
							"name": "account",
							"type": "address"
						}
					],
					"name": "DistributorAdded",
					"type": "event"
				},
				{
					"anonymous": false,
					"inputs": [
						{
							"indexed": true,
							"internalType": "address",
							"name": "account",
							"type": "address"
						}
					],
					"name": "DistributorRemoved",
					"type": "event"
				},
				{
					"anonymous": false,
					"inputs": [
						{
							"indexed": false,
							"internalType": "uint256",
							"name": "productCode",
							"type": "uint256"
						}
					],
					"name": "ForSaleByDistributor",
					"type": "event"
				},
				{
					"anonymous": false,
					"inputs": [
						{
							"indexed": false,
							"internalType": "uint256",
							"name": "productCode",
							"type": "uint256"
						}
					],
					"name": "ForSaleByManufacturer",
					"type": "event"
				},
				{
					"anonymous": false,
					"inputs": [
						{
							"indexed": false,
							"internalType": "uint256",
							"name": "productCode",
							"type": "uint256"
						}
					],
					"name": "ForSaleByRetailer",
					"type": "event"
				},
				{
					"anonymous": false,
					"inputs": [
						{
							"indexed": false,
							"internalType": "uint256",
							"name": "productCode",
							"type": "uint256"
						}
					],
					"name": "ForSaleByWholesaler",
					"type": "event"
				},
				{
					"anonymous": false,
					"inputs": [
						{
							"indexed": true,
							"internalType": "address",
							"name": "account",
							"type": "address"
						}
					],
					"name": "ManufacturerAdded",
					"type": "event"
				},
				{
					"anonymous": false,
					"inputs": [
						{
							"indexed": true,
							"internalType": "address",
							"name": "account",
							"type": "address"
						}
					],
					"name": "ManufacturerRemoved",
					"type": "event"
				},
				{
					"anonymous": false,
					"inputs": [
						{
							"indexed": false,
							"internalType": "uint256",
							"name": "productCode",
							"type": "uint256"
						}
					],
					"name": "ProcessedByDistributor",
					"type": "event"
				},
				{
					"anonymous": false,
					"inputs": [
						{
							"indexed": false,
							"internalType": "uint256",
							"name": "productCode",
							"type": "uint256"
						}
					],
					"name": "ProcessedByRetailer",
					"type": "event"
				},
				{
					"anonymous": false,
					"inputs": [
						{
							"indexed": false,
							"internalType": "uint256",
							"name": "productCode",
							"type": "uint256"
						}
					],
					"name": "ProcessedByWholesaler",
					"type": "event"
				},
				{
					"anonymous": false,
					"inputs": [
						{
							"indexed": false,
							"internalType": "uint256",
							"name": "productCode",
							"type": "uint256"
						}
					],
					"name": "ProducedByManufacturer",
					"type": "event"
				},
				{
					"anonymous": false,
					"inputs": [
						{
							"indexed": false,
							"internalType": "uint256",
							"name": "productCode",
							"type": "uint256"
						}
					],
					"name": "PurchasedByConsumer",
					"type": "event"
				},
				{
					"anonymous": false,
					"inputs": [
						{
							"indexed": false,
							"internalType": "uint256",
							"name": "productCode",
							"type": "uint256"
						}
					],
					"name": "PurchasedByDistributor",
					"type": "event"
				},
				{
					"anonymous": false,
					"inputs": [
						{
							"indexed": false,
							"internalType": "uint256",
							"name": "productCode",
							"type": "uint256"
						}
					],
					"name": "PurchasedByRetailer",
					"type": "event"
				},
				{
					"anonymous": false,
					"inputs": [
						{
							"indexed": false,
							"internalType": "uint256",
							"name": "productCode",
							"type": "uint256"
						}
					],
					"name": "PurchasedByWholesaler",
					"type": "event"
				},
				{
					"anonymous": false,
					"inputs": [
						{
							"indexed": false,
							"internalType": "uint256",
							"name": "productCode",
							"type": "uint256"
						}
					],
					"name": "ReceivedByDistributor",
					"type": "event"
				},
				{
					"anonymous": false,
					"inputs": [
						{
							"indexed": false,
							"internalType": "uint256",
							"name": "productCode",
							"type": "uint256"
						}
					],
					"name": "ReceivedByRetailer",
					"type": "event"
				},
				{
					"anonymous": false,
					"inputs": [
						{
							"indexed": false,
							"internalType": "uint256",
							"name": "productCode",
							"type": "uint256"
						}
					],
					"name": "ReceivedByWholesaler",
					"type": "event"
				},
				{
					"anonymous": false,
					"inputs": [
						{
							"indexed": true,
							"internalType": "address",
							"name": "account",
							"type": "address"
						}
					],
					"name": "RetailerAdded",
					"type": "event"
				},
				{
					"anonymous": false,
					"inputs": [
						{
							"indexed": true,
							"internalType": "address",
							"name": "account",
							"type": "address"
						}
					],
					"name": "RetailerRemoved",
					"type": "event"
				},
				{
					"anonymous": false,
					"inputs": [
						{
							"indexed": false,
							"internalType": "uint256",
							"name": "productCode",
							"type": "uint256"
						}
					],
					"name": "ShippedByDistributor",
					"type": "event"
				},
				{
					"anonymous": false,
					"inputs": [
						{
							"indexed": false,
							"internalType": "uint256",
							"name": "productCode",
							"type": "uint256"
						}
					],
					"name": "ShippedByManufacturer",
					"type": "event"
				},
				{
					"anonymous": false,
					"inputs": [
						{
							"indexed": false,
							"internalType": "uint256",
							"name": "productCode",
							"type": "uint256"
						}
					],
					"name": "ShippedByWholesaler",
					"type": "event"
				},
				{
					"anonymous": false,
					"inputs": [
						{
							"indexed": true,
							"internalType": "address",
							"name": "account",
							"type": "address"
						}
					],
					"name": "WholesalerAdded",
					"type": "event"
				},
				{
					"anonymous": false,
					"inputs": [
						{
							"indexed": true,
							"internalType": "address",
							"name": "account",
							"type": "address"
						}
					],
					"name": "WholesalerRemoved",
					"type": "event"
				},
				{
					"inputs": [
						{
							"internalType": "uint256",
							"name": "_productCode",
							"type": "uint256"
						},
						{
							"internalType": "string",
							"name": "_productInfo",
							"type": "string"
						},
						{
							"internalType": "uint256",
							"name": "_price",
							"type": "uint256"
						}
					],
					"name": "ProduceItemByManufacturer",
					"outputs": [],
					"stateMutability": "nonpayable",
					"type": "function"
				},
				{
					"inputs": [
						{
							"internalType": "address",
							"name": "account",
							"type": "address"
						}
					],
					"name": "addConsumer",
					"outputs": [],
					"stateMutability": "nonpayable",
					"type": "function"
				},
				{
					"inputs": [
						{
							"internalType": "address",
							"name": "account",
							"type": "address"
						}
					],
					"name": "addDistributor",
					"outputs": [],
					"stateMutability": "nonpayable",
					"type": "function"
				},
				{
					"inputs": [
						{
							"internalType": "address",
							"name": "account",
							"type": "address"
						}
					],
					"name": "addManufacturer",
					"outputs": [],
					"stateMutability": "nonpayable",
					"type": "function"
				},
				{
					"inputs": [
						{
							"internalType": "address",
							"name": "account",
							"type": "address"
						}
					],
					"name": "addRetailer",
					"outputs": [],
					"stateMutability": "nonpayable",
					"type": "function"
				},
				{
					"inputs": [
						{
							"internalType": "address",
							"name": "account",
							"type": "address"
						}
					],
					"name": "addWholesaler",
					"outputs": [],
					"stateMutability": "nonpayable",
					"type": "function"
				},
				{
					"inputs": [
						{
							"internalType": "address",
							"name": "account",
							"type": "address"
						}
					],
					"name": "isConsumer",
					"outputs": [
						{
							"internalType": "bool",
							"name": "",
							"type": "bool"
						}
					],
					"stateMutability": "view",
					"type": "function"
				},
				{
					"inputs": [
						{
							"internalType": "address",
							"name": "account",
							"type": "address"
						}
					],
					"name": "isDistributor",
					"outputs": [
						{
							"internalType": "bool",
							"name": "",
							"type": "bool"
						}
					],
					"stateMutability": "view",
					"type": "function"
				},
				{
					"inputs": [
						{
							"internalType": "address",
							"name": "account",
							"type": "address"
						}
					],
					"name": "isManufacturer",
					"outputs": [
						{
							"internalType": "bool",
							"name": "",
							"type": "bool"
						}
					],
					"stateMutability": "view",
					"type": "function"
				},
				{
					"inputs": [
						{
							"internalType": "address",
							"name": "account",
							"type": "address"
						}
					],
					"name": "isRetailer",
					"outputs": [
						{
							"internalType": "bool",
							"name": "",
							"type": "bool"
						}
					],
					"stateMutability": "view",
					"type": "function"
				},
				{
					"inputs": [
						{
							"internalType": "address",
							"name": "account",
							"type": "address"
						}
					],
					"name": "isWholesaler",
					"outputs": [
						{
							"internalType": "bool",
							"name": "",
							"type": "bool"
						}
					],
					"stateMutability": "view",
					"type": "function"
				},
				{
					"inputs": [],
					"name": "kill",
					"outputs": [],
					"stateMutability": "nonpayable",
					"type": "function"
				},
				{
					"inputs": [
						{
							"internalType": "uint256",
							"name": "_productCode",
							"type": "uint256"
						},
						{
							"internalType": "uint256",
							"name": "slices",
							"type": "uint256"
						}
					],
					"name": "processedItemByDistributor",
					"outputs": [],
					"stateMutability": "nonpayable",
					"type": "function"
				},
				{
					"inputs": [
						{
							"internalType": "uint256",
							"name": "_productCode",
							"type": "uint256"
						},
						{
							"internalType": "uint256",
							"name": "slices",
							"type": "uint256"
						}
					],
					"name": "processedItemByWholesaler",
					"outputs": [],
					"stateMutability": "nonpayable",
					"type": "function"
				},
				{
					"inputs": [
						{
							"internalType": "uint256",
							"name": "_productCode",
							"type": "uint256"
						}
					],
					"name": "purchaseItemByDistributor",
					"outputs": [],
					"stateMutability": "payable",
					"type": "function"
				},
				{
					"inputs": [
						{
							"internalType": "uint256",
							"name": "_productCode",
							"type": "uint256"
						}
					],
					"name": "purchaseItemByRetailer",
					"outputs": [],
					"stateMutability": "payable",
					"type": "function"
				},
				{
					"inputs": [
						{
							"internalType": "uint256",
							"name": "_productCode",
							"type": "uint256"
						}
					],
					"name": "purchaseItemByWholesaler",
					"outputs": [],
					"stateMutability": "payable",
					"type": "function"
				},
				{
					"inputs": [
						{
							"internalType": "uint256",
							"name": "_productCode",
							"type": "uint256"
						}
					],
					"name": "receivedItemByDistributor",
					"outputs": [],
					"stateMutability": "nonpayable",
					"type": "function"
				},
				{
					"inputs": [
						{
							"internalType": "uint256",
							"name": "_productCode",
							"type": "uint256"
						}
					],
					"name": "receivedItemByWholesalerr",
					"outputs": [],
					"stateMutability": "nonpayable",
					"type": "function"
				},
				{
					"inputs": [],
					"name": "renouceConsumer",
					"outputs": [],
					"stateMutability": "nonpayable",
					"type": "function"
				},
				{
					"inputs": [],
					"name": "renouceDistributor",
					"outputs": [],
					"stateMutability": "nonpayable",
					"type": "function"
				},
				{
					"inputs": [],
					"name": "renouceManufaturer",
					"outputs": [],
					"stateMutability": "nonpayable",
					"type": "function"
				},
				{
					"inputs": [],
					"name": "renouceRetailer",
					"outputs": [],
					"stateMutability": "nonpayable",
					"type": "function"
				},
				{
					"inputs": [],
					"name": "renouceWholesaler",
					"outputs": [],
					"stateMutability": "nonpayable",
					"type": "function"
				},
				{
					"inputs": [
						{
							"internalType": "uint256",
							"name": "_productCode",
							"type": "uint256"
						},
						{
							"internalType": "uint256",
							"name": "_price",
							"type": "uint256"
						}
					],
					"name": "sellItemByDistributor",
					"outputs": [],
					"stateMutability": "nonpayable",
					"type": "function"
				},
				{
					"inputs": [
						{
							"internalType": "uint256",
							"name": "_productCode",
							"type": "uint256"
						},
						{
							"internalType": "uint256",
							"name": "_price",
							"type": "uint256"
						}
					],
					"name": "sellItemByFarmer",
					"outputs": [],
					"stateMutability": "nonpayable",
					"type": "function"
				},
				{
					"inputs": [
						{
							"internalType": "uint256",
							"name": "_productCode",
							"type": "uint256"
						},
						{
							"internalType": "uint256",
							"name": "_price",
							"type": "uint256"
						}
					],
					"name": "sellItemByWholesaler",
					"outputs": [],
					"stateMutability": "nonpayable",
					"type": "function"
				},
				{
					"inputs": [
						{
							"internalType": "uint256",
							"name": "_productCode",
							"type": "uint256"
						}
					],
					"name": "shippedItemByDistributor",
					"outputs": [],
					"stateMutability": "payable",
					"type": "function"
				},
				{
					"inputs": [
						{
							"internalType": "uint256",
							"name": "_productCode",
							"type": "uint256"
						}
					],
					"name": "shippedItemByManufacturer",
					"outputs": [],
					"stateMutability": "payable",
					"type": "function"
				}
			],
			"devdoc": {
				"kind": "dev",
				"methods": {},
				"version": 1
			},
			"evm": {
				"assembly": "    /* \"Contracts/Supplychain/Supplychain1.sol\":244:17682  contract  Supplychain1 is ... */\n  mstore(0x40, 0x80)\n    /* \"Contracts/Access/Manufacturer.sol\":389:419  _addManufacturer(_msgSender()) */\n  tag_8\n    /* \"Contracts/Access/Manufacturer.sol\":406:418  _msgSender() */\n  tag_9\n    /* \"Contracts/Access/Manufacturer.sol\":406:416  _msgSender */\n  shl(0x20, tag_10)\n    /* \"Contracts/Access/Manufacturer.sol\":406:418  _msgSender() */\n  0x20\n  shr\n  jump\t// in\ntag_9:\n    /* \"Contracts/Access/Manufacturer.sol\":389:405  _addManufacturer */\n  shl(0x20, tag_11)\n    /* \"Contracts/Access/Manufacturer.sol\":389:419  _addManufacturer(_msgSender()) */\n  0x20\n  shr\n  jump\t// in\ntag_8:\n    /* \"Contracts/Access/Distributor.sol\":385:414  _addDistributor(_msgSender()) */\n  tag_13\n    /* \"Contracts/Access/Distributor.sol\":401:413  _msgSender() */\n  tag_14\n    /* \"Contracts/Access/Distributor.sol\":401:411  _msgSender */\n  shl(0x20, tag_10)\n    /* \"Contracts/Access/Distributor.sol\":401:413  _msgSender() */\n  0x20\n  shr\n  jump\t// in\ntag_14:\n    /* \"Contracts/Access/Distributor.sol\":385:400  _addDistributor */\n  shl(0x20, tag_15)\n    /* \"Contracts/Access/Distributor.sol\":385:414  _addDistributor(_msgSender()) */\n  0x20\n  shr\n  jump\t// in\ntag_13:\n    /* \"Contracts/Access/Wholesaler.sol\":381:409  _addWholesaler(_msgSender()) */\n  tag_17\n    /* \"Contracts/Access/Wholesaler.sol\":396:408  _msgSender() */\n  tag_18\n    /* \"Contracts/Access/Wholesaler.sol\":396:406  _msgSender */\n  shl(0x20, tag_10)\n    /* \"Contracts/Access/Wholesaler.sol\":396:408  _msgSender() */\n  0x20\n  shr\n  jump\t// in\ntag_18:\n    /* \"Contracts/Access/Wholesaler.sol\":381:395  _addWholesaler */\n  shl(0x20, tag_19)\n    /* \"Contracts/Access/Wholesaler.sol\":381:409  _addWholesaler(_msgSender()) */\n  0x20\n  shr\n  jump\t// in\ntag_17:\n    /* \"Contracts/Access/Retailer.sol\":373:399  _addRetailer(_msgSender()) */\n  tag_21\n    /* \"Contracts/Access/Retailer.sol\":386:398  _msgSender() */\n  tag_22\n    /* \"Contracts/Access/Retailer.sol\":386:396  _msgSender */\n  shl(0x20, tag_10)\n    /* \"Contracts/Access/Retailer.sol\":386:398  _msgSender() */\n  0x20\n  shr\n  jump\t// in\ntag_22:\n    /* \"Contracts/Access/Retailer.sol\":373:385  _addRetailer */\n  shl(0x20, tag_23)\n    /* \"Contracts/Access/Retailer.sol\":373:399  _addRetailer(_msgSender()) */\n  0x20\n  shr\n  jump\t// in\ntag_21:\n    /* \"Contracts/Access/Consumer.sol\":373:399  _addConsumer(_msgSender()) */\n  tag_25\n    /* \"Contracts/Access/Consumer.sol\":386:398  _msgSender() */\n  tag_26\n    /* \"Contracts/Access/Consumer.sol\":386:396  _msgSender */\n  shl(0x20, tag_10)\n    /* \"Contracts/Access/Consumer.sol\":386:398  _msgSender() */\n  0x20\n  shr\n  jump\t// in\ntag_26:\n    /* \"Contracts/Access/Consumer.sol\":373:385  _addConsumer */\n  shl(0x20, tag_27)\n    /* \"Contracts/Access/Consumer.sol\":373:399  _addConsumer(_msgSender()) */\n  0x20\n  shr\n  jump\t// in\ntag_25:\n    /* \"Contracts/Supplychain/Supplychain1.sol\":1348:1360  _msgSender() */\n  tag_29\n    /* \"Contracts/Supplychain/Supplychain1.sol\":1348:1358  _msgSender */\n  shl(0x20, tag_10)\n    /* \"Contracts/Supplychain/Supplychain1.sol\":1348:1360  _msgSender() */\n  0x20\n  shr\n  jump\t// in\ntag_29:\n    /* \"Contracts/Supplychain/Supplychain1.sol\":1340:1345  owner */\n  0x05\n  0x00\n    /* \"Contracts/Supplychain/Supplychain1.sol\":1340:1360  owner = _msgSender() */\n  0x0100\n  exp\n  dup2\n  sload\n  dup2\n  0xffffffffffffffffffffffffffffffffffffffff\n  mul\n  not\n  and\n  swap1\n  dup4\n  0xffffffffffffffffffffffffffffffffffffffff\n  and\n  mul\n  or\n  swap1\n  sstore\n  pop\n    /* \"Contracts/Supplychain/Supplychain1.sol\":1391:1392  1 */\n  0x01\n    /* \"Contracts/Supplychain/Supplychain1.sol\":1379:1388  stockUnit */\n  0x07\n    /* \"Contracts/Supplychain/Supplychain1.sol\":1379:1392  stockUnit = 1 */\n  dup2\n  swap1\n  sstore\n  pop\n    /* \"Contracts/Supplychain/Supplychain1.sol\":1425:1426  1 */\n  0x01\n    /* \"Contracts/Supplychain/Supplychain1.sol\":1411:1422  productCode */\n  0x06\n    /* \"Contracts/Supplychain/Supplychain1.sol\":1411:1426  productCode = 1 */\n  dup2\n  swap1\n  sstore\n  pop\n    /* \"Contracts/Supplychain/Supplychain1.sol\":244:17682  contract  Supplychain1 is ... */\n  jump(tag_30)\n    /* \"Contracts/Utils/Context.sol\":97:201  function _msgSender() internal view virtual returns (address) ... */\ntag_10:\n    /* \"Contracts/Utils/Context.sol\":150:157  address */\n  0x00\n    /* \"Contracts/Utils/Context.sol\":183:193  msg.sender */\n  caller\n    /* \"Contracts/Utils/Context.sol\":176:193  return msg.sender */\n  swap1\n  pop\n    /* \"Contracts/Utils/Context.sol\":97:201  function _msgSender() internal view virtual returns (address) ... */\n  swap1\n  jump\t// out\n    /* \"Contracts/Access/Manufacturer.sol\":1048:1189  function _addManufacturer  (address account ) internal{... */\ntag_11:\n    /* \"Contracts/Access/Manufacturer.sol\":1113:1139  manufacturers.add(account) */\n  tag_33\n    /* \"Contracts/Access/Manufacturer.sol\":1131:1138  account */\n  dup2\n    /* \"Contracts/Access/Manufacturer.sol\":1113:1126  manufacturers */\n  0x00\n    /* \"Contracts/Access/Manufacturer.sol\":1113:1130  manufacturers.add */\n  or(tag_0_153, shl(0x20, tag_34))\n  swap1\n    /* \"Contracts/Access/Manufacturer.sol\":1113:1139  manufacturers.add(account) */\n  swap2\n  swap1\n  0x20\n  shr\n  jump\t// in\ntag_33:\n    /* \"Contracts/Access/Manufacturer.sol\":1173:1180  account */\n  dup1\n    /* \"Contracts/Access/Manufacturer.sol\":1155:1181  ManufacturerAdded(account) */\n  0xffffffffffffffffffffffffffffffffffffffff\n  and\n  0x561138658ca49a8540dc70dcfe64c9026c1c5b9344642242dd6562970f9c1278\n  mload(0x40)\n  mload(0x40)\n  dup1\n  swap2\n  sub\n  swap1\n  log2\n    /* \"Contracts/Access/Manufacturer.sol\":1048:1189  function _addManufacturer  (address account ) internal{... */\n  pop\n  jump\t// out\n    /* \"Contracts/Access/Distributor.sol\":1035:1173  function _addDistributor  (address account ) internal{... */\ntag_15:\n    /* \"Contracts/Access/Distributor.sol\":1099:1124  distributors.add(account) */\n  tag_36\n    /* \"Contracts/Access/Distributor.sol\":1116:1123  account */\n  dup2\n    /* \"Contracts/Access/Distributor.sol\":1099:1111  distributors */\n  0x01\n    /* \"Contracts/Access/Distributor.sol\":1099:1115  distributors.add */\n  or(tag_0_153, shl(0x20, tag_34))\n  swap1\n    /* \"Contracts/Access/Distributor.sol\":1099:1124  distributors.add(account) */\n  swap2\n  swap1\n  0x20\n  shr\n  jump\t// in\ntag_36:\n    /* \"Contracts/Access/Distributor.sol\":1157:1164  account */\n  dup1\n    /* \"Contracts/Access/Distributor.sol\":1140:1165  DistributorAdded(account) */\n  0xffffffffffffffffffffffffffffffffffffffff\n  and\n  0xddbf200aa634dc3fb81cfd68583dd1040d1c751d335e1d86b631bde3e977fea8\n  mload(0x40)\n  mload(0x40)\n  dup1\n  swap2\n  sub\n  swap1\n  log2\n    /* \"Contracts/Access/Distributor.sol\":1035:1173  function _addDistributor  (address account ) internal{... */\n  pop\n  jump\t// out\n    /* \"Contracts/Access/Wholesaler.sol\":1021:1156  function _addWholesaler  (address account ) internal{... */\ntag_19:\n    /* \"Contracts/Access/Wholesaler.sol\":1084:1108  wholesalers.add(account) */\n  tag_38\n    /* \"Contracts/Access/Wholesaler.sol\":1100:1107  account */\n  dup2\n    /* \"Contracts/Access/Wholesaler.sol\":1084:1095  wholesalers */\n  0x02\n    /* \"Contracts/Access/Wholesaler.sol\":1084:1099  wholesalers.add */\n  or(tag_0_153, shl(0x20, tag_34))\n  swap1\n    /* \"Contracts/Access/Wholesaler.sol\":1084:1108  wholesalers.add(account) */\n  swap2\n  swap1\n  0x20\n  shr\n  jump\t// in\ntag_38:\n    /* \"Contracts/Access/Wholesaler.sol\":1140:1147  account */\n  dup1\n    /* \"Contracts/Access/Wholesaler.sol\":1124:1148  WholesalerAdded(account) */\n  0xffffffffffffffffffffffffffffffffffffffff\n  and\n  0xd8a7ad7929975a375d2b12bf49040286b5b105df0fe351f10df6d85e5b7142f7\n  mload(0x40)\n  mload(0x40)\n  dup1\n  swap2\n  sub\n  swap1\n  log2\n    /* \"Contracts/Access/Wholesaler.sol\":1021:1156  function _addWholesaler  (address account ) internal{... */\n  pop\n  jump\t// out\n    /* \"Contracts/Access/Retailer.sol\":993:1122  function _addRetailer  (address account ) internal{... */\ntag_23:\n    /* \"Contracts/Access/Retailer.sol\":1054:1076  retailers.add(account) */\n  tag_40\n    /* \"Contracts/Access/Retailer.sol\":1068:1075  account */\n  dup2\n    /* \"Contracts/Access/Retailer.sol\":1054:1063  retailers */\n  0x03\n    /* \"Contracts/Access/Retailer.sol\":1054:1067  retailers.add */\n  or(tag_0_153, shl(0x20, tag_34))\n  swap1\n    /* \"Contracts/Access/Retailer.sol\":1054:1076  retailers.add(account) */\n  swap2\n  swap1\n  0x20\n  shr\n  jump\t// in\ntag_40:\n    /* \"Contracts/Access/Retailer.sol\":1106:1113  account */\n  dup1\n    /* \"Contracts/Access/Retailer.sol\":1092:1114  RetailerAdded(account) */\n  0xffffffffffffffffffffffffffffffffffffffff\n  and\n  0x71ae26cad02663e3d92efd6ec56031a80d74a20c0ab4183faa8bf262261c9baa\n  mload(0x40)\n  mload(0x40)\n  dup1\n  swap2\n  sub\n  swap1\n  log2\n    /* \"Contracts/Access/Retailer.sol\":993:1122  function _addRetailer  (address account ) internal{... */\n  pop\n  jump\t// out\n    /* \"Contracts/Access/Consumer.sol\":993:1122  function _addConsumer  (address account ) internal{... */\ntag_27:\n    /* \"Contracts/Access/Consumer.sol\":1054:1076  consumers.add(account) */\n  tag_42\n    /* \"Contracts/Access/Consumer.sol\":1068:1075  account */\n  dup2\n    /* \"Contracts/Access/Consumer.sol\":1054:1063  consumers */\n  0x04\n    /* \"Contracts/Access/Consumer.sol\":1054:1067  consumers.add */\n  or(tag_0_153, shl(0x20, tag_34))\n  swap1\n    /* \"Contracts/Access/Consumer.sol\":1054:1076  consumers.add(account) */\n  swap2\n  swap1\n  0x20\n  shr\n  jump\t// in\ntag_42:\n    /* \"Contracts/Access/Consumer.sol\":1106:1113  account */\n  dup1\n    /* \"Contracts/Access/Consumer.sol\":1092:1114  ConsumerAdded(account) */\n  0xffffffffffffffffffffffffffffffffffffffff\n  and\n  0x28b26e7a3d20aedbc5f8f2ebf7da671c0491723a2b78f47a097b0e46dee07142\n  mload(0x40)\n  mload(0x40)\n  dup1\n  swap2\n  sub\n  swap1\n  log2\n    /* \"Contracts/Access/Consumer.sol\":993:1122  function _addConsumer  (address account ) internal{... */\n  pop\n  jump\t// out\n    /* \"Contracts/Access/Roles.sol\":153:344  function add(Role storage role , address account) internal {... */\ntag_34:\n    /* \"Contracts/Access/Roles.sol\":252:253  0 */\n  0x00\n    /* \"Contracts/Access/Roles.sol\":233:254  account != address(0) */\n  0xffffffffffffffffffffffffffffffffffffffff\n  and\n    /* \"Contracts/Access/Roles.sol\":233:240  account */\n  dup2\n    /* \"Contracts/Access/Roles.sol\":233:254  account != address(0) */\n  0xffffffffffffffffffffffffffffffffffffffff\n  and\n  sub\n    /* \"Contracts/Access/Roles.sol\":223:256  require( (account != address(0))) */\n  tag_44\n  jumpi\n  0x00\n  dup1\n  revert\ntag_44:\n    /* \"Contracts/Access/Roles.sol\":276:296  has(role , account ) */\n  tag_45\n    /* \"Contracts/Access/Roles.sol\":280:284  role */\n  dup3\n    /* \"Contracts/Access/Roles.sol\":287:294  account */\n  dup3\n    /* \"Contracts/Access/Roles.sol\":276:279  has */\n  shl(0x20, tag_46)\n    /* \"Contracts/Access/Roles.sol\":276:296  has(role , account ) */\n  0x20\n  shr\n  jump\t// in\ntag_45:\n    /* \"Contracts/Access/Roles.sol\":275:296  !has(role , account ) */\n  iszero\n    /* \"Contracts/Access/Roles.sol\":267:297  require(!has(role , account )) */\n  tag_47\n  jumpi\n  0x00\n  dup1\n  revert\ntag_47:\n    /* \"Contracts/Access/Roles.sol\":330:334  true */\n  0x01\n    /* \"Contracts/Access/Roles.sol\":308:312  role */\n  dup3\n    /* \"Contracts/Access/Roles.sol\":308:319  role.bearer */\n  0x00\n  add\n    /* \"Contracts/Access/Roles.sol\":308:328  role.bearer[account] */\n  0x00\n    /* \"Contracts/Access/Roles.sol\":320:327  account */\n  dup4\n    /* \"Contracts/Access/Roles.sol\":308:328  role.bearer[account] */\n  0xffffffffffffffffffffffffffffffffffffffff\n  and\n  0xffffffffffffffffffffffffffffffffffffffff\n  and\n  dup2\n  mstore\n  0x20\n  add\n  swap1\n  dup2\n  mstore\n  0x20\n  add\n  0x00\n  keccak256\n  0x00\n    /* \"Contracts/Access/Roles.sol\":308:334  role.bearer[account]= true */\n  0x0100\n  exp\n  dup2\n  sload\n  dup2\n  0xff\n  mul\n  not\n  and\n  swap1\n  dup4\n  iszero\n  iszero\n  mul\n  or\n  swap1\n  sstore\n  pop\n    /* \"Contracts/Access/Roles.sol\":153:344  function add(Role storage role , address account) internal {... */\n  pop\n  pop\n  jump\t// out\n    /* \"Contracts/Access/Roles.sol\":552:724  function has(Role storage role , address account ) internal view returns (bool) {... */\ntag_46:\n    /* \"Contracts/Access/Roles.sol\":626:630  bool */\n  0x00\n    /* \"Contracts/Access/Roles.sol\":671:672  0 */\n  dup1\n    /* \"Contracts/Access/Roles.sol\":652:673  account != address(0) */\n  0xffffffffffffffffffffffffffffffffffffffff\n  and\n    /* \"Contracts/Access/Roles.sol\":652:659  account */\n  dup3\n    /* \"Contracts/Access/Roles.sol\":652:673  account != address(0) */\n  0xffffffffffffffffffffffffffffffffffffffff\n  and\n  sub\n    /* \"Contracts/Access/Roles.sol\":644:674  require(account != address(0)) */\n  tag_49\n  jumpi\n  0x00\n  dup1\n  revert\ntag_49:\n    /* \"Contracts/Access/Roles.sol\":693:697  role */\n  dup3\n    /* \"Contracts/Access/Roles.sol\":693:704  role.bearer */\n  0x00\n  add\n    /* \"Contracts/Access/Roles.sol\":693:713  role.bearer[account] */\n  0x00\n    /* \"Contracts/Access/Roles.sol\":705:712  account */\n  dup4\n    /* \"Contracts/Access/Roles.sol\":693:713  role.bearer[account] */\n  0xffffffffffffffffffffffffffffffffffffffff\n  and\n  0xffffffffffffffffffffffffffffffffffffffff\n  and\n  dup2\n  mstore\n  0x20\n  add\n  swap1\n  dup2\n  mstore\n  0x20\n  add\n  0x00\n  keccak256\n  0x00\n  swap1\n  sload\n  swap1\n  0x0100\n  exp\n  swap1\n  div\n  0xff\n  and\n    /* \"Contracts/Access/Roles.sol\":686:713  return role.bearer[account] */\n  swap1\n  pop\n    /* \"Contracts/Access/Roles.sol\":552:724  function has(Role storage role , address account ) internal view returns (bool) {... */\n  swap3\n  swap2\n  pop\n  pop\n  jump\t// out\n    /* \"Contracts/Supplychain/Supplychain1.sol\":244:17682  contract  Supplychain1 is ... */\ntag_30:\n  dataSize(sub_0)\n  dup1\n  dataOffset(sub_0)\n  0x00\n  codecopy\n  0x00\n  return\nstop\n\nsub_0: assembly {\n        /* \"Contracts/Supplychain/Supplychain1.sol\":244:17682  contract  Supplychain1 is ... */\n      mstore(0x40, 0x80)\n      jumpi(tag_1, lt(calldatasize, 0x04))\n      shr(0xe0, calldataload(0x00))\n      dup1\n      0x82e831ec\n      gt\n      tag_31\n      jumpi\n      dup1\n      0xb9a40d04\n      gt\n      tag_32\n      jumpi\n      dup1\n      0xe34d7a07\n      gt\n      tag_33\n      jumpi\n      dup1\n      0xe34d7a07\n      eq\n      tag_27\n      jumpi\n      dup1\n      0xe618f000\n      eq\n      tag_28\n      jumpi\n      dup1\n      0xeab7d6e8\n      eq\n      tag_29\n      jumpi\n      dup1\n      0xfdcdc06f\n      eq\n      tag_30\n      jumpi\n      jump(tag_1)\n    tag_33:\n      dup1\n      0xb9a40d04\n      eq\n      tag_23\n      jumpi\n      dup1\n      0xdd589030\n      eq\n      tag_24\n      jumpi\n      dup1\n      0xde568ab9\n      eq\n      tag_25\n      jumpi\n      dup1\n      0xde63bdb9\n      eq\n      tag_26\n      jumpi\n      jump(tag_1)\n    tag_32:\n      dup1\n      0x8b828a08\n      gt\n      tag_34\n      jumpi\n      dup1\n      0x8b828a08\n      eq\n      tag_19\n      jumpi\n      dup1\n      0x8ec4f505\n      eq\n      tag_20\n      jumpi\n      dup1\n      0x8f0c86fa\n      eq\n      tag_21\n      jumpi\n      dup1\n      0xad88bac8\n      eq\n      tag_22\n      jumpi\n      jump(tag_1)\n    tag_34:\n      dup1\n      0x82e831ec\n      eq\n      tag_16\n      jumpi\n      dup1\n      0x834ff739\n      eq\n      tag_17\n      jumpi\n      dup1\n      0x8adff8ba\n      eq\n      tag_18\n      jumpi\n      jump(tag_1)\n    tag_31:\n      dup1\n      0x3496c175\n      gt\n      tag_35\n      jumpi\n      dup1\n      0x5da09b88\n      gt\n      tag_36\n      jumpi\n      dup1\n      0x5da09b88\n      eq\n      tag_12\n      jumpi\n      dup1\n      0x5f8a5afa\n      eq\n      tag_13\n      jumpi\n      dup1\n      0x64d1ba1f\n      eq\n      tag_14\n      jumpi\n      dup1\n      0x7250e224\n      eq\n      tag_15\n      jumpi\n      jump(tag_1)\n    tag_36:\n      dup1\n      0x3496c175\n      eq\n      tag_9\n      jumpi\n      dup1\n      0x41c0e1b5\n      eq\n      tag_10\n      jumpi\n      dup1\n      0x4ea90d2d\n      eq\n      tag_11\n      jumpi\n      jump(tag_1)\n    tag_35:\n      dup1\n      0x17d4a491\n      gt\n      tag_37\n      jumpi\n      dup1\n      0x17d4a491\n      eq\n      tag_5\n      jumpi\n      dup1\n      0x24cb1669\n      eq\n      tag_6\n      jumpi\n      dup1\n      0x26d529b4\n      eq\n      tag_7\n      jumpi\n      dup1\n      0x297b47e7\n      eq\n      tag_8\n      jumpi\n      jump(tag_1)\n    tag_37:\n      dup1\n      0x070ef987\n      eq\n      tag_2\n      jumpi\n      dup1\n      0x112940f9\n      eq\n      tag_3\n      jumpi\n      dup1\n      0x152d0b32\n      eq\n      tag_4\n      jumpi\n    tag_1:\n      0x00\n      dup1\n      revert\n        /* \"Contracts/Access/Wholesaler.sol\":917:1013  function  renouceWholesaler() public{... */\n    tag_2:\n      callvalue\n      dup1\n      iszero\n      tag_38\n      jumpi\n      0x00\n      dup1\n      revert\n    tag_38:\n      pop\n      tag_39\n      tag_40\n      jump\t// in\n    tag_39:\n      stop\n        /* \"Contracts/Access/Consumer.sol\":787:885  function addConsumer (address account) public onlyConsumer{... */\n    tag_3:\n      callvalue\n      dup1\n      iszero\n      tag_41\n      jumpi\n      0x00\n      dup1\n      revert\n    tag_41:\n      pop\n      tag_42\n      0x04\n      dup1\n      calldatasize\n      sub\n      dup2\n      add\n      swap1\n      tag_43\n      swap2\n      swap1\n      tag_44\n      jump\t// in\n    tag_43:\n      tag_45\n      jump\t// in\n    tag_42:\n      stop\n        /* \"Contracts/Supplychain/Supplychain1.sol\":13250:14341  function purchaseItemByWholesaler(uint256 _productCode)... */\n    tag_4:\n      tag_46\n      0x04\n      dup1\n      calldatasize\n      sub\n      dup2\n      add\n      swap1\n      tag_47\n      swap2\n      swap1\n      tag_48\n      jump\t// in\n    tag_47:\n      tag_49\n      jump\t// in\n    tag_46:\n      stop\n        /* \"Contracts/Access/Manufacturer.sol\":674:811  function isManufacturer(address account )... */\n    tag_5:\n      callvalue\n      dup1\n      iszero\n      tag_50\n      jumpi\n      0x00\n      dup1\n      revert\n    tag_50:\n      pop\n      tag_51\n      0x04\n      dup1\n      calldatasize\n      sub\n      dup2\n      add\n      swap1\n      tag_52\n      swap2\n      swap1\n      tag_44\n      jump\t// in\n    tag_52:\n      tag_53\n      jump\t// in\n    tag_51:\n      mload(0x40)\n      tag_54\n      swap2\n      swap1\n      tag_55\n      jump\t// in\n    tag_54:\n      mload(0x40)\n      dup1\n      swap2\n      sub\n      swap1\n      return\n        /* \"Contracts/Supplychain/Supplychain1.sol\":11882:12306  function receivedItemByDistributor(uint256 _productCode)... */\n    tag_6:\n      callvalue\n      dup1\n      iszero\n      tag_56\n      jumpi\n      0x00\n      dup1\n      revert\n    tag_56:\n      pop\n      tag_57\n      0x04\n      dup1\n      calldatasize\n      sub\n      dup2\n      add\n      swap1\n      tag_58\n      swap2\n      swap1\n      tag_48\n      jump\t// in\n    tag_58:\n      tag_59\n      jump\t// in\n    tag_57:\n      stop\n        /* \"Contracts/Supplychain/Supplychain1.sol\":16268:17117  function purchaseItemByRetailer(uint256 _productCode)... */\n    tag_7:\n      tag_60\n      0x04\n      dup1\n      calldatasize\n      sub\n      dup2\n      add\n      swap1\n      tag_61\n      swap2\n      swap1\n      tag_48\n      jump\t// in\n    tag_61:\n      tag_62\n      jump\t// in\n    tag_60:\n      stop\n        /* \"Contracts/Supplychain/Supplychain1.sol\":15393:15774  function processedItemByWholesaler(uint256 _productCode , uint256 slices)... */\n    tag_8:\n      callvalue\n      dup1\n      iszero\n      tag_63\n      jumpi\n      0x00\n      dup1\n      revert\n    tag_63:\n      pop\n      tag_64\n      0x04\n      dup1\n      calldatasize\n      sub\n      dup2\n      add\n      swap1\n      tag_65\n      swap2\n      swap1\n      tag_66\n      jump\t// in\n    tag_65:\n      tag_67\n      jump\t// in\n    tag_64:\n      stop\n        /* \"Contracts/Access/Consumer.sol\":893:985  function  renouceConsumer() public{... */\n    tag_9:\n      callvalue\n      dup1\n      iszero\n      tag_68\n      jumpi\n      0x00\n      dup1\n      revert\n    tag_68:\n      pop\n      tag_69\n      tag_70\n      jump\t// in\n    tag_69:\n      stop\n        /* \"Contracts/Supplychain/Supplychain1.sol\":7529:7730  function kill() public {... */\n    tag_10:\n      callvalue\n      dup1\n      iszero\n      tag_71\n      jumpi\n      0x00\n      dup1\n      revert\n    tag_71:\n      pop\n      tag_72\n      tag_73\n      jump\t// in\n    tag_72:\n      stop\n        /* \"Contracts/Access/Distributor.sol\":929:1027  function  renouceDistributor() public{... */\n    tag_11:\n      callvalue\n      dup1\n      iszero\n      tag_74\n      jumpi\n      0x00\n      dup1\n      revert\n    tag_74:\n      pop\n      tag_75\n      tag_76\n      jump\t// in\n    tag_75:\n      stop\n        /* \"Contracts/Access/Retailer.sol\":646:775  function isRetailer(address account )... */\n    tag_12:\n      callvalue\n      dup1\n      iszero\n      tag_77\n      jumpi\n      0x00\n      dup1\n      revert\n    tag_77:\n      pop\n      tag_78\n      0x04\n      dup1\n      calldatasize\n      sub\n      dup2\n      add\n      swap1\n      tag_79\n      swap2\n      swap1\n      tag_44\n      jump\t// in\n    tag_79:\n      tag_80\n      jump\t// in\n    tag_78:\n      mload(0x40)\n      tag_81\n      swap2\n      swap1\n      tag_55\n      jump\t// in\n    tag_81:\n      mload(0x40)\n      dup1\n      swap2\n      sub\n      swap1\n      return\n        /* \"Contracts/Access/Manufacturer.sol\":823:933  function addManufacturer (address account) public onlyManufacturer{... */\n    tag_13:\n      callvalue\n      dup1\n      iszero\n      tag_82\n      jumpi\n      0x00\n      dup1\n      revert\n    tag_82:\n      pop\n      tag_83\n      0x04\n      dup1\n      calldatasize\n      sub\n      dup2\n      add\n      swap1\n      tag_84\n      swap2\n      swap1\n      tag_44\n      jump\t// in\n    tag_84:\n      tag_85\n      jump\t// in\n    tag_83:\n      stop\n        /* \"Contracts/Access/Wholesaler.sol\":660:793  function isWholesaler(address account )... */\n    tag_14:\n      callvalue\n      dup1\n      iszero\n      tag_86\n      jumpi\n      0x00\n      dup1\n      revert\n    tag_86:\n      pop\n      tag_87\n      0x04\n      dup1\n      calldatasize\n      sub\n      dup2\n      add\n      swap1\n      tag_88\n      swap2\n      swap1\n      tag_44\n      jump\t// in\n    tag_88:\n      tag_89\n      jump\t// in\n    tag_87:\n      mload(0x40)\n      tag_90\n      swap2\n      swap1\n      tag_55\n      jump\t// in\n    tag_90:\n      mload(0x40)\n      dup1\n      swap2\n      sub\n      swap1\n      return\n        /* \"Contracts/Access/Distributor.sol\":814:921  function addDistributor (address account) public onlyDistributor{... */\n    tag_15:\n      callvalue\n      dup1\n      iszero\n      tag_91\n      jumpi\n      0x00\n      dup1\n      revert\n    tag_91:\n      pop\n      tag_92\n      0x04\n      dup1\n      calldatasize\n      sub\n      dup2\n      add\n      swap1\n      tag_93\n      swap2\n      swap1\n      tag_44\n      jump\t// in\n    tag_93:\n      tag_94\n      jump\t// in\n    tag_92:\n      stop\n        /* \"Contracts/Supplychain/Supplychain1.sol\":14411:14848  function shippedItemByDistributor(uint256 _productCode)... */\n    tag_16:\n      tag_95\n      0x04\n      dup1\n      calldatasize\n      sub\n      dup2\n      add\n      swap1\n      tag_96\n      swap2\n      swap1\n      tag_48\n      jump\t// in\n    tag_96:\n      tag_97\n      jump\t// in\n    tag_95:\n      stop\n        /* \"Contracts/Access/Consumer.sol\":646:775  function isConsumer(address account )... */\n    tag_17:\n      callvalue\n      dup1\n      iszero\n      tag_98\n      jumpi\n      0x00\n      dup1\n      revert\n    tag_98:\n      pop\n      tag_99\n      0x04\n      dup1\n      calldatasize\n      sub\n      dup2\n      add\n      swap1\n      tag_100\n      swap2\n      swap1\n      tag_44\n      jump\t// in\n    tag_100:\n      tag_101\n      jump\t// in\n    tag_99:\n      mload(0x40)\n      tag_102\n      swap2\n      swap1\n      tag_55\n      jump\t// in\n    tag_102:\n      mload(0x40)\n      dup1\n      swap2\n      sub\n      swap1\n      return\n        /* \"Contracts/Supplychain/Supplychain1.sol\":12819:13188  function sellItemByDistributor(uint256 _productCode, uint _price)... */\n    tag_18:\n      callvalue\n      dup1\n      iszero\n      tag_103\n      jumpi\n      0x00\n      dup1\n      revert\n    tag_103:\n      pop\n      tag_104\n      0x04\n      dup1\n      calldatasize\n      sub\n      dup2\n      add\n      swap1\n      tag_105\n      swap2\n      swap1\n      tag_66\n      jump\t// in\n    tag_105:\n      tag_106\n      jump\t// in\n    tag_104:\n      stop\n        /* \"Contracts/Access/Manufacturer.sol\":941:1040  function  renouceManufaturer() public{... */\n    tag_19:\n      callvalue\n      dup1\n      iszero\n      tag_107\n      jumpi\n      0x00\n      dup1\n      revert\n    tag_107:\n      pop\n      tag_108\n      tag_109\n      jump\t// in\n    tag_108:\n      stop\n        /* \"Contracts/Access/Retailer.sol\":787:885  function addRetailer (address account) public onlyRetailer{... */\n    tag_20:\n      callvalue\n      dup1\n      iszero\n      tag_110\n      jumpi\n      0x00\n      dup1\n      revert\n    tag_110:\n      pop\n      tag_111\n      0x04\n      dup1\n      calldatasize\n      sub\n      dup2\n      add\n      swap1\n      tag_112\n      swap2\n      swap1\n      tag_44\n      jump\t// in\n    tag_112:\n      tag_113\n      jump\t// in\n    tag_111:\n      stop\n        /* \"Contracts/Access/Distributor.sol\":667:802  function isDistributor(address account )... */\n    tag_21:\n      callvalue\n      dup1\n      iszero\n      tag_114\n      jumpi\n      0x00\n      dup1\n      revert\n    tag_114:\n      pop\n      tag_115\n      0x04\n      dup1\n      calldatasize\n      sub\n      dup2\n      add\n      swap1\n      tag_116\n      swap2\n      swap1\n      tag_44\n      jump\t// in\n    tag_116:\n      tag_117\n      jump\t// in\n    tag_115:\n      mload(0x40)\n      tag_118\n      swap2\n      swap1\n      tag_55\n      jump\t// in\n    tag_118:\n      mload(0x40)\n      dup1\n      swap2\n      sub\n      swap1\n      return\n        /* \"Contracts/Supplychain/Supplychain1.sol\":8027:9536  function ProduceItemByManufacturer(... */\n    tag_22:\n      callvalue\n      dup1\n      iszero\n      tag_119\n      jumpi\n      0x00\n      dup1\n      revert\n    tag_119:\n      pop\n      tag_120\n      0x04\n      dup1\n      calldatasize\n      sub\n      dup2\n      add\n      swap1\n      tag_121\n      swap2\n      swap1\n      tag_122\n      jump\t// in\n    tag_121:\n      tag_123\n      jump\t// in\n    tag_120:\n      stop\n        /* \"Contracts/Supplychain/Supplychain1.sol\":11324:11789  function shippedItemByManufacturer(uint256 _productCode)... */\n    tag_23:\n      tag_124\n      0x04\n      dup1\n      calldatasize\n      sub\n      dup2\n      add\n      swap1\n      tag_125\n      swap2\n      swap1\n      tag_48\n      jump\t// in\n    tag_125:\n      tag_126\n      jump\t// in\n    tag_124:\n      stop\n        /* \"Contracts/Supplychain/Supplychain1.sol\":15845:16210  function sellItemByWholesaler(uint256 _productCode, uint _price)... */\n    tag_24:\n      callvalue\n      dup1\n      iszero\n      tag_127\n      jumpi\n      0x00\n      dup1\n      revert\n    tag_127:\n      pop\n      tag_128\n      0x04\n      dup1\n      calldatasize\n      sub\n      dup2\n      add\n      swap1\n      tag_129\n      swap2\n      swap1\n      tag_66\n      jump\t// in\n    tag_129:\n      tag_130\n      jump\t// in\n    tag_128:\n      stop\n        /* \"Contracts/Supplychain/Supplychain1.sol\":14901:15322  function receivedItemByWholesalerr(uint256 _productCode)... */\n    tag_25:\n      callvalue\n      dup1\n      iszero\n      tag_131\n      jumpi\n      0x00\n      dup1\n      revert\n    tag_131:\n      pop\n      tag_132\n      0x04\n      dup1\n      calldatasize\n      sub\n      dup2\n      add\n      swap1\n      tag_133\n      swap2\n      swap1\n      tag_48\n      jump\t// in\n    tag_133:\n      tag_134\n      jump\t// in\n    tag_132:\n      stop\n        /* \"Contracts/Access/Wholesaler.sol\":805:909  function addWholesaler (address account) public onlyWholesaler{... */\n    tag_26:\n      callvalue\n      dup1\n      iszero\n      tag_135\n      jumpi\n      0x00\n      dup1\n      revert\n    tag_135:\n      pop\n      tag_136\n      0x04\n      dup1\n      calldatasize\n      sub\n      dup2\n      add\n      swap1\n      tag_137\n      swap2\n      swap1\n      tag_44\n      jump\t// in\n    tag_137:\n      tag_138\n      jump\t// in\n    tag_136:\n      stop\n        /* \"Contracts/Access/Retailer.sol\":893:985  function  renouceRetailer() public{... */\n    tag_27:\n      callvalue\n      dup1\n      iszero\n      tag_139\n      jumpi\n      0x00\n      dup1\n      revert\n    tag_139:\n      pop\n      tag_140\n      tag_141\n      jump\t// in\n    tag_140:\n      stop\n        /* \"Contracts/Supplychain/Supplychain1.sol\":9596:10058  function sellItemByFarmer(uint256 _productCode, uint256 _price)... */\n    tag_28:\n      callvalue\n      dup1\n      iszero\n      tag_142\n      jumpi\n      0x00\n      dup1\n      revert\n    tag_142:\n      pop\n      tag_143\n      0x04\n      dup1\n      calldatasize\n      sub\n      dup2\n      add\n      swap1\n      tag_144\n      swap2\n      swap1\n      tag_66\n      jump\t// in\n    tag_144:\n      tag_145\n      jump\t// in\n    tag_143:\n      stop\n        /* \"Contracts/Supplychain/Supplychain1.sol\":12376:12763  function processedItemByDistributor(uint256 _productCode , uint256 slices)... */\n    tag_29:\n      callvalue\n      dup1\n      iszero\n      tag_146\n      jumpi\n      0x00\n      dup1\n      revert\n    tag_146:\n      pop\n      tag_147\n      0x04\n      dup1\n      calldatasize\n      sub\n      dup2\n      add\n      swap1\n      tag_148\n      swap2\n      swap1\n      tag_66\n      jump\t// in\n    tag_148:\n      tag_149\n      jump\t// in\n    tag_147:\n      stop\n        /* \"Contracts/Supplychain/Supplychain1.sol\":10112:11210  function purchaseItemByDistributor(uint256 _productCode)... */\n    tag_30:\n      tag_150\n      0x04\n      dup1\n      calldatasize\n      sub\n      dup2\n      add\n      swap1\n      tag_151\n      swap2\n      swap1\n      tag_48\n      jump\t// in\n    tag_151:\n      tag_152\n      jump\t// in\n    tag_150:\n      stop\n        /* \"Contracts/Access/Wholesaler.sol\":917:1013  function  renouceWholesaler() public{... */\n    tag_40:\n        /* \"Contracts/Access/Wholesaler.sol\":974:1005  _removeWholesaler(_msgSender()) */\n      tag_155\n        /* \"Contracts/Access/Wholesaler.sol\":992:1004  _msgSender() */\n      tag_156\n        /* \"Contracts/Access/Wholesaler.sol\":992:1002  _msgSender */\n      tag_157\n        /* \"Contracts/Access/Wholesaler.sol\":992:1004  _msgSender() */\n      jump\t// in\n    tag_156:\n        /* \"Contracts/Access/Wholesaler.sol\":974:991  _removeWholesaler */\n      tag_158\n        /* \"Contracts/Access/Wholesaler.sol\":974:1005  _removeWholesaler(_msgSender()) */\n      jump\t// in\n    tag_155:\n        /* \"Contracts/Access/Wholesaler.sol\":917:1013  function  renouceWholesaler() public{... */\n      jump\t// out\n        /* \"Contracts/Access/Consumer.sol\":787:885  function addConsumer (address account) public onlyConsumer{... */\n    tag_45:\n        /* \"Contracts/Access/Consumer.sol\":534:558  isConsumer(_msgSender()) */\n      tag_160\n        /* \"Contracts/Access/Consumer.sol\":545:557  _msgSender() */\n      tag_161\n        /* \"Contracts/Access/Consumer.sol\":545:555  _msgSender */\n      tag_157\n        /* \"Contracts/Access/Consumer.sol\":545:557  _msgSender() */\n      jump\t// in\n    tag_161:\n        /* \"Contracts/Access/Consumer.sol\":534:544  isConsumer */\n      tag_101\n        /* \"Contracts/Access/Consumer.sol\":534:558  isConsumer(_msgSender()) */\n      jump\t// in\n    tag_160:\n        /* \"Contracts/Access/Consumer.sol\":526:559  require(isConsumer(_msgSender())) */\n      tag_162\n      jumpi\n      0x00\n      dup1\n      revert\n    tag_162:\n        /* \"Contracts/Access/Consumer.sol\":856:877  _addConsumer(account) */\n      tag_164\n        /* \"Contracts/Access/Consumer.sol\":869:876  account */\n      dup2\n        /* \"Contracts/Access/Consumer.sol\":856:868  _addConsumer */\n      tag_165\n        /* \"Contracts/Access/Consumer.sol\":856:877  _addConsumer(account) */\n      jump\t// in\n    tag_164:\n        /* \"Contracts/Access/Consumer.sol\":787:885  function addConsumer (address account) public onlyConsumer{... */\n      pop\n      jump\t// out\n        /* \"Contracts/Supplychain/Supplychain1.sol\":13250:14341  function purchaseItemByWholesaler(uint256 _productCode)... */\n    tag_49:\n        /* \"Contracts/Access/Wholesaler.sol\":546:572  isWholesaler(_msgSender()) */\n      tag_167\n        /* \"Contracts/Access/Wholesaler.sol\":559:571  _msgSender() */\n      tag_168\n        /* \"Contracts/Access/Wholesaler.sol\":559:569  _msgSender */\n      tag_157\n        /* \"Contracts/Access/Wholesaler.sol\":559:571  _msgSender() */\n      jump\t// in\n    tag_168:\n        /* \"Contracts/Access/Wholesaler.sol\":546:558  isWholesaler */\n      tag_89\n        /* \"Contracts/Access/Wholesaler.sol\":546:572  isWholesaler(_msgSender()) */\n      jump\t// in\n    tag_167:\n        /* \"Contracts/Access/Wholesaler.sol\":538:573  require(isWholesaler(_msgSender())) */\n      tag_169\n      jumpi\n      0x00\n      dup1\n      revert\n    tag_169:\n        /* \"Contracts/Supplychain/Supplychain1.sol\":13443:13455  _productCode */\n      dup1\n        /* \"Contracts/Supplychain/Supplychain1.sol\":5518:5544  state.ForSaleByDistributor */\n      0x06\n        /* \"Contracts/Supplychain/Supplychain1.sol\":5485:5544  items[_ProductCode].itemState == state.ForSaleByDistributor */\n      0x10\n      dup2\n      gt\n      iszero\n      tag_171\n      jumpi\n      tag_172\n      tag_173\n      jump\t// in\n    tag_172:\n    tag_171:\n        /* \"Contracts/Supplychain/Supplychain1.sol\":5485:5490  items */\n      0x08\n        /* \"Contracts/Supplychain/Supplychain1.sol\":5485:5504  items[_ProductCode] */\n      0x00\n        /* \"Contracts/Supplychain/Supplychain1.sol\":5491:5503  _ProductCode */\n      dup4\n        /* \"Contracts/Supplychain/Supplychain1.sol\":5485:5504  items[_ProductCode] */\n      dup2\n      mstore\n      0x20\n      add\n      swap1\n      dup2\n      mstore\n      0x20\n      add\n      0x00\n      keccak256\n        /* \"Contracts/Supplychain/Supplychain1.sol\":5485:5514  items[_ProductCode].itemState */\n      0x06\n      add\n      0x00\n      swap1\n      sload\n      swap1\n      0x0100\n      exp\n      swap1\n      div\n      0xff\n      and\n        /* \"Contracts/Supplychain/Supplychain1.sol\":5485:5544  items[_ProductCode].itemState == state.ForSaleByDistributor */\n      0x10\n      dup2\n      gt\n      iszero\n      tag_174\n      jumpi\n      tag_175\n      tag_173\n      jump\t// in\n    tag_175:\n    tag_174:\n      eq\n        /* \"Contracts/Supplychain/Supplychain1.sol\":5477:5545  require(items[_ProductCode].itemState == state.ForSaleByDistributor) */\n      tag_176\n      jumpi\n      0x00\n      dup1\n      revert\n    tag_176:\n        /* \"Contracts/Supplychain/Supplychain1.sol\":13520:13525  items */\n      0x08\n        /* \"Contracts/Supplychain/Supplychain1.sol\":13520:13539  items[_productCode] */\n      0x00\n        /* \"Contracts/Supplychain/Supplychain1.sol\":13526:13538  _productCode */\n      dup4\n        /* \"Contracts/Supplychain/Supplychain1.sol\":13520:13539  items[_productCode] */\n      dup2\n      mstore\n      0x20\n      add\n      swap1\n      dup2\n      mstore\n      0x20\n      add\n      0x00\n      keccak256\n        /* \"Contracts/Supplychain/Supplychain1.sol\":13520:13552  items[_productCode].productPrice */\n      0x07\n      add\n      sload\n        /* \"Contracts/Supplychain/Supplychain1.sol\":3939:3945  _price */\n      dup1\n        /* \"Contracts/Supplychain/Supplychain1.sol\":3926:3935  msg.value */\n      callvalue\n        /* \"Contracts/Supplychain/Supplychain1.sol\":3926:3945  msg.value >= _price */\n      lt\n      iszero\n        /* \"Contracts/Supplychain/Supplychain1.sol\":3918:3946  require(msg.value >= _price) */\n      tag_178\n      jumpi\n      0x00\n      dup1\n      revert\n    tag_178:\n        /* \"Contracts/Supplychain/Supplychain1.sol\":13625:13637  _productCode */\n      dup3\n        /* \"Contracts/Supplychain/Supplychain1.sol\":13647:13659  _msgSender() */\n      tag_179\n        /* \"Contracts/Supplychain/Supplychain1.sol\":13647:13657  _msgSender */\n      tag_157\n        /* \"Contracts/Supplychain/Supplychain1.sol\":13647:13659  _msgSender() */\n      jump\t// in\n    tag_179:\n        /* \"Contracts/Supplychain/Supplychain1.sol\":4140:4154  uint256 _price */\n      0x00\n        /* \"Contracts/Supplychain/Supplychain1.sol\":4157:4162  items */\n      0x08\n        /* \"Contracts/Supplychain/Supplychain1.sol\":4157:4176  items[_productCode] */\n      0x00\n        /* \"Contracts/Supplychain/Supplychain1.sol\":4163:4175  _productCode */\n      dup5\n        /* \"Contracts/Supplychain/Supplychain1.sol\":4157:4176  items[_productCode] */\n      dup2\n      mstore\n      0x20\n      add\n      swap1\n      dup2\n      mstore\n      0x20\n      add\n      0x00\n      keccak256\n        /* \"Contracts/Supplychain/Supplychain1.sol\":4157:4186  items[_productCode].itemPrice */\n      0x0d\n      add\n      sload\n        /* \"Contracts/Supplychain/Supplychain1.sol\":4140:4186  uint256 _price = items[_productCode].itemPrice */\n      swap1\n      pop\n        /* \"Contracts/Supplychain/Supplychain1.sol\":4197:4219  uint256 amountToReturn */\n      0x00\n        /* \"Contracts/Supplychain/Supplychain1.sol\":4234:4240  _price */\n      dup2\n        /* \"Contracts/Supplychain/Supplychain1.sol\":4222:4231  msg.value */\n      callvalue\n        /* \"Contracts/Supplychain/Supplychain1.sol\":4222:4240  msg.value - _price */\n      tag_181\n      swap2\n      swap1\n      tag_182\n      jump\t// in\n    tag_181:\n        /* \"Contracts/Supplychain/Supplychain1.sol\":4197:4240  uint256 amountToReturn = msg.value - _price */\n      swap1\n      pop\n        /* \"Contracts/Supplychain/Supplychain1.sol\":4251:4264  addressToFund */\n      dup3\n        /* \"Contracts/Supplychain/Supplychain1.sol\":4251:4273  addressToFund.transfer */\n      0xffffffffffffffffffffffffffffffffffffffff\n      and\n        /* \"Contracts/Supplychain/Supplychain1.sol\":4251:4289  addressToFund.transfer(amountToReturn) */\n      0x08fc\n        /* \"Contracts/Supplychain/Supplychain1.sol\":4274:4288  amountToReturn */\n      dup3\n        /* \"Contracts/Supplychain/Supplychain1.sol\":4251:4289  addressToFund.transfer(amountToReturn) */\n      swap1\n      dup2\n      iszero\n      mul\n      swap1\n      mload(0x40)\n      0x00\n      mload(0x40)\n      dup1\n      dup4\n      sub\n      dup2\n      dup6\n      dup9\n      dup9\n      call\n      swap4\n      pop\n      pop\n      pop\n      pop\n      iszero\n      dup1\n      iszero\n      tag_184\n      jumpi\n      returndatasize\n      0x00\n      dup1\n      returndatacopy\n      revert(0x00, returndatasize)\n    tag_184:\n      pop\n        /* \"Contracts/Supplychain/Supplychain1.sol\":13742:13777  address payable ownerAddressPayable */\n      0x00\n        /* \"Contracts/Supplychain/Supplychain1.sol\":13780:13852  _make_payable(... */\n      tag_186\n        /* \"Contracts/Supplychain/Supplychain1.sol\":13808:13813  items */\n      0x08\n        /* \"Contracts/Supplychain/Supplychain1.sol\":13808:13827  items[_productCode] */\n      0x00\n        /* \"Contracts/Supplychain/Supplychain1.sol\":13814:13826  _productCode */\n      dup11\n        /* \"Contracts/Supplychain/Supplychain1.sol\":13808:13827  items[_productCode] */\n      dup2\n      mstore\n      0x20\n      add\n      swap1\n      dup2\n      mstore\n      0x20\n      add\n      0x00\n      keccak256\n        /* \"Contracts/Supplychain/Supplychain1.sol\":13808:13841  items[_productCode].distributorID */\n      0x0a\n      add\n      0x00\n      swap1\n      sload\n      swap1\n      0x0100\n      exp\n      swap1\n      div\n      0xffffffffffffffffffffffffffffffffffffffff\n      and\n        /* \"Contracts/Supplychain/Supplychain1.sol\":13780:13793  _make_payable */\n      tag_187\n        /* \"Contracts/Supplychain/Supplychain1.sol\":13780:13852  _make_payable(... */\n      jump\t// in\n    tag_186:\n        /* \"Contracts/Supplychain/Supplychain1.sol\":13742:13852  address payable ownerAddressPayable = _make_payable(... */\n      swap1\n      pop\n        /* \"Contracts/Supplychain/Supplychain1.sol\":13864:13883  ownerAddressPayable */\n      dup1\n        /* \"Contracts/Supplychain/Supplychain1.sol\":13864:13892  ownerAddressPayable.transfer */\n      0xffffffffffffffffffffffffffffffffffffffff\n      and\n        /* \"Contracts/Supplychain/Supplychain1.sol\":13864:13926  ownerAddressPayable.transfer(items[_productCode].productPrice) */\n      0x08fc\n        /* \"Contracts/Supplychain/Supplychain1.sol\":13893:13898  items */\n      0x08\n        /* \"Contracts/Supplychain/Supplychain1.sol\":13893:13912  items[_productCode] */\n      0x00\n        /* \"Contracts/Supplychain/Supplychain1.sol\":13899:13911  _productCode */\n      dup12\n        /* \"Contracts/Supplychain/Supplychain1.sol\":13893:13912  items[_productCode] */\n      dup2\n      mstore\n      0x20\n      add\n      swap1\n      dup2\n      mstore\n      0x20\n      add\n      0x00\n      keccak256\n        /* \"Contracts/Supplychain/Supplychain1.sol\":13893:13925  items[_productCode].productPrice */\n      0x07\n      add\n      sload\n        /* \"Contracts/Supplychain/Supplychain1.sol\":13864:13926  ownerAddressPayable.transfer(items[_productCode].productPrice) */\n      swap1\n      dup2\n      iszero\n      mul\n      swap1\n      mload(0x40)\n      0x00\n      mload(0x40)\n      dup1\n      dup4\n      sub\n      dup2\n      dup6\n      dup9\n      dup9\n      call\n      swap4\n      pop\n      pop\n      pop\n      pop\n      iszero\n      dup1\n      iszero\n      tag_189\n      jumpi\n      returndatasize\n      0x00\n      dup1\n      returndatacopy\n      revert(0x00, returndatasize)\n    tag_189:\n      pop\n        /* \"Contracts/Supplychain/Supplychain1.sol\":14012:14024  _msgSender() */\n      tag_190\n        /* \"Contracts/Supplychain/Supplychain1.sol\":14012:14022  _msgSender */\n      tag_157\n        /* \"Contracts/Supplychain/Supplychain1.sol\":14012:14024  _msgSender() */\n      jump\t// in\n    tag_190:\n        /* \"Contracts/Supplychain/Supplychain1.sol\":13982:13987  items */\n      0x08\n        /* \"Contracts/Supplychain/Supplychain1.sol\":13982:14001  items[_productCode] */\n      0x00\n        /* \"Contracts/Supplychain/Supplychain1.sol\":13988:14000  _productCode */\n      dup11\n        /* \"Contracts/Supplychain/Supplychain1.sol\":13982:14001  items[_productCode] */\n      dup2\n      mstore\n      0x20\n      add\n      swap1\n      dup2\n      mstore\n      0x20\n      add\n      0x00\n      keccak256\n        /* \"Contracts/Supplychain/Supplychain1.sol\":13982:14009  items[_productCode].ownerID */\n      0x02\n      add\n      0x00\n        /* \"Contracts/Supplychain/Supplychain1.sol\":13982:14024  items[_productCode].ownerID = _msgSender() */\n      0x0100\n      exp\n      dup2\n      sload\n      dup2\n      0xffffffffffffffffffffffffffffffffffffffff\n      mul\n      not\n      and\n      swap1\n      dup4\n      0xffffffffffffffffffffffffffffffffffffffff\n      and\n      mul\n      or\n      swap1\n      sstore\n      pop\n        /* \"Contracts/Supplychain/Supplychain1.sol\":14086:14098  _msgSender() */\n      tag_191\n        /* \"Contracts/Supplychain/Supplychain1.sol\":14086:14096  _msgSender */\n      tag_157\n        /* \"Contracts/Supplychain/Supplychain1.sol\":14086:14098  _msgSender() */\n      jump\t// in\n    tag_191:\n        /* \"Contracts/Supplychain/Supplychain1.sol\":14051:14056  items */\n      0x08\n        /* \"Contracts/Supplychain/Supplychain1.sol\":14051:14070  items[_productCode] */\n      0x00\n        /* \"Contracts/Supplychain/Supplychain1.sol\":14057:14069  _productCode */\n      dup11\n        /* \"Contracts/Supplychain/Supplychain1.sol\":14051:14070  items[_productCode] */\n      dup2\n      mstore\n      0x20\n      add\n      swap1\n      dup2\n      mstore\n      0x20\n      add\n      0x00\n      keccak256\n        /* \"Contracts/Supplychain/Supplychain1.sol\":14051:14083  items[_productCode].wholesalerID */\n      0x09\n      add\n      0x00\n        /* \"Contracts/Supplychain/Supplychain1.sol\":14051:14098  items[_productCode].wholesalerID = _msgSender() */\n      0x0100\n      exp\n      dup2\n      sload\n      dup2\n      0xffffffffffffffffffffffffffffffffffffffff\n      mul\n      not\n      and\n      swap1\n      dup4\n      0xffffffffffffffffffffffffffffffffffffffff\n      and\n      mul\n      or\n      swap1\n      sstore\n      pop\n        /* \"Contracts/Supplychain/Supplychain1.sol\":14163:14190  state.PurchasedByWholesaler */\n      0x07\n        /* \"Contracts/Supplychain/Supplychain1.sol\":14131:14136  items */\n      0x08\n        /* \"Contracts/Supplychain/Supplychain1.sol\":14131:14150  items[_productCode] */\n      0x00\n        /* \"Contracts/Supplychain/Supplychain1.sol\":14137:14149  _productCode */\n      dup11\n        /* \"Contracts/Supplychain/Supplychain1.sol\":14131:14150  items[_productCode] */\n      dup2\n      mstore\n      0x20\n      add\n      swap1\n      dup2\n      mstore\n      0x20\n      add\n      0x00\n      keccak256\n        /* \"Contracts/Supplychain/Supplychain1.sol\":14131:14160  items[_productCode].itemState */\n      0x06\n      add\n      0x00\n        /* \"Contracts/Supplychain/Supplychain1.sol\":14131:14190  items[_productCode].itemState = state.PurchasedByWholesaler */\n      0x0100\n      exp\n      dup2\n      sload\n      dup2\n      0xff\n      mul\n      not\n      and\n      swap1\n      dup4\n      0x10\n      dup2\n      gt\n      iszero\n      tag_192\n      jumpi\n      tag_193\n      tag_173\n      jump\t// in\n    tag_193:\n    tag_192:\n      mul\n      or\n      swap1\n      sstore\n      pop\n        /* \"Contracts/Supplychain/Supplychain1.sol\":14250:14262  block.number */\n      number\n        /* \"Contracts/Supplychain/Supplychain1.sol\":14217:14229  itemsHistory */\n      0x09\n        /* \"Contracts/Supplychain/Supplychain1.sol\":14217:14243  itemsHistory[_productCode] */\n      0x00\n        /* \"Contracts/Supplychain/Supplychain1.sol\":14230:14242  _productCode */\n      dup11\n        /* \"Contracts/Supplychain/Supplychain1.sol\":14217:14243  itemsHistory[_productCode] */\n      dup2\n      mstore\n      0x20\n      add\n      swap1\n      dup2\n      mstore\n      0x20\n      add\n      0x00\n      keccak256\n        /* \"Contracts/Supplychain/Supplychain1.sol\":14217:14247  itemsHistory[_productCode].DTW */\n      0x01\n      add\n        /* \"Contracts/Supplychain/Supplychain1.sol\":14217:14262  itemsHistory[_productCode].DTW = block.number */\n      dup2\n      swap1\n      sstore\n      pop\n        /* \"Contracts/Supplychain/Supplychain1.sol\":14298:14333  PurchasedByWholesaler(_productCode) */\n      0x0b2ad8447953e780f58d2343ea44f2be15d412dc219f1ca265728cdc5cac9b66\n        /* \"Contracts/Supplychain/Supplychain1.sol\":14320:14332  _productCode */\n      dup9\n        /* \"Contracts/Supplychain/Supplychain1.sol\":14298:14333  PurchasedByWholesaler(_productCode) */\n      mload(0x40)\n      tag_194\n      swap2\n      swap1\n      tag_195\n      jump\t// in\n    tag_194:\n      mload(0x40)\n      dup1\n      swap2\n      sub\n      swap1\n      log1\n        /* \"Contracts/Supplychain/Supplychain1.sol\":13731:14341  {... */\n      pop\n        /* \"Contracts/Supplychain/Supplychain1.sol\":4129:4309  {... */\n      pop\n      pop\n        /* \"Contracts/Supplychain/Supplychain1.sol\":3957:3958  _ */\n      pop\n      pop\n        /* \"Contracts/Supplychain/Supplychain1.sol\":5559:5560  _ */\n      pop\n        /* \"Contracts/Access/Wholesaler.sol\":583:584  _ */\n      pop\n        /* \"Contracts/Supplychain/Supplychain1.sol\":13250:14341  function purchaseItemByWholesaler(uint256 _productCode)... */\n      pop\n      jump\t// out\n        /* \"Contracts/Access/Manufacturer.sol\":674:811  function isManufacturer(address account )... */\n    tag_53:\n        /* \"Contracts/Access/Manufacturer.sol\":754:758  bool */\n      0x00\n        /* \"Contracts/Access/Manufacturer.sol\":777:803  manufacturers.has(account) */\n      tag_197\n        /* \"Contracts/Access/Manufacturer.sol\":795:802  account */\n      dup3\n        /* \"Contracts/Access/Manufacturer.sol\":777:790  manufacturers */\n      0x00\n        /* \"Contracts/Access/Manufacturer.sol\":777:794  manufacturers.has */\n      tag_198\n      swap1\n        /* \"Contracts/Access/Manufacturer.sol\":777:803  manufacturers.has(account) */\n      swap2\n      swap1\n      0xffffffff\n      and\n      jump\t// in\n    tag_197:\n        /* \"Contracts/Access/Manufacturer.sol\":770:803  return manufacturers.has(account) */\n      swap1\n      pop\n        /* \"Contracts/Access/Manufacturer.sol\":674:811  function isManufacturer(address account )... */\n      swap2\n      swap1\n      pop\n      jump\t// out\n        /* \"Contracts/Supplychain/Supplychain1.sol\":11882:12306  function receivedItemByDistributor(uint256 _productCode)... */\n    tag_59:\n        /* \"Contracts/Access/Distributor.sol\":552:579  isDistributor(_msgSender()) */\n      tag_200\n        /* \"Contracts/Access/Distributor.sol\":566:578  _msgSender() */\n      tag_201\n        /* \"Contracts/Access/Distributor.sol\":566:576  _msgSender */\n      tag_157\n        /* \"Contracts/Access/Distributor.sol\":566:578  _msgSender() */\n      jump\t// in\n    tag_201:\n        /* \"Contracts/Access/Distributor.sol\":552:565  isDistributor */\n      tag_117\n        /* \"Contracts/Access/Distributor.sol\":552:579  isDistributor(_msgSender()) */\n      jump\t// in\n    tag_200:\n        /* \"Contracts/Access/Distributor.sol\":544:580  require(isDistributor(_msgSender())) */\n      tag_202\n      jumpi\n      0x00\n      dup1\n      revert\n    tag_202:\n        /* \"Contracts/Supplychain/Supplychain1.sol\":12061:12073  _productCode */\n      dup1\n        /* \"Contracts/Supplychain/Supplychain1.sol\":4983:5009  state.ShippedByDistributor */\n      0x08\n        /* \"Contracts/Supplychain/Supplychain1.sol\":4950:5009  items[_ProductCode].itemState == state.ShippedByDistributor */\n      0x10\n      dup2\n      gt\n      iszero\n      tag_204\n      jumpi\n      tag_205\n      tag_173\n      jump\t// in\n    tag_205:\n    tag_204:\n        /* \"Contracts/Supplychain/Supplychain1.sol\":4950:4955  items */\n      0x08\n        /* \"Contracts/Supplychain/Supplychain1.sol\":4950:4969  items[_ProductCode] */\n      0x00\n        /* \"Contracts/Supplychain/Supplychain1.sol\":4956:4968  _ProductCode */\n      dup4\n        /* \"Contracts/Supplychain/Supplychain1.sol\":4950:4969  items[_ProductCode] */\n      dup2\n      mstore\n      0x20\n      add\n      swap1\n      dup2\n      mstore\n      0x20\n      add\n      0x00\n      keccak256\n        /* \"Contracts/Supplychain/Supplychain1.sol\":4950:4979  items[_ProductCode].itemState */\n      0x06\n      add\n      0x00\n      swap1\n      sload\n      swap1\n      0x0100\n      exp\n      swap1\n      div\n      0xff\n      and\n        /* \"Contracts/Supplychain/Supplychain1.sol\":4950:5009  items[_ProductCode].itemState == state.ShippedByDistributor */\n      0x10\n      dup2\n      gt\n      iszero\n      tag_206\n      jumpi\n      tag_207\n      tag_173\n      jump\t// in\n    tag_207:\n    tag_206:\n      eq\n        /* \"Contracts/Supplychain/Supplychain1.sol\":4942:5010  require(items[_ProductCode].itemState == state.ShippedByDistributor) */\n      tag_208\n      jumpi\n      0x00\n      dup1\n      revert\n    tag_208:\n        /* \"Contracts/Supplychain/Supplychain1.sol\":12097:12102  items */\n      0x08\n        /* \"Contracts/Supplychain/Supplychain1.sol\":12097:12116  items[_productCode] */\n      0x00\n        /* \"Contracts/Supplychain/Supplychain1.sol\":12103:12115  _productCode */\n      dup4\n        /* \"Contracts/Supplychain/Supplychain1.sol\":12097:12116  items[_productCode] */\n      dup2\n      mstore\n      0x20\n      add\n      swap1\n      dup2\n      mstore\n      0x20\n      add\n      0x00\n      keccak256\n        /* \"Contracts/Supplychain/Supplychain1.sol\":12097:12124  items[_productCode].ownerID */\n      0x02\n      add\n      0x00\n      swap1\n      sload\n      swap1\n      0x0100\n      exp\n      swap1\n      div\n      0xffffffffffffffffffffffffffffffffffffffff\n      and\n        /* \"Contracts/Supplychain/Supplychain1.sol\":3744:3752  _address */\n      dup1\n        /* \"Contracts/Supplychain/Supplychain1.sol\":3728:3752  _msgSender() == _address */\n      0xffffffffffffffffffffffffffffffffffffffff\n      and\n        /* \"Contracts/Supplychain/Supplychain1.sol\":3728:3740  _msgSender() */\n      tag_210\n        /* \"Contracts/Supplychain/Supplychain1.sol\":3728:3738  _msgSender */\n      tag_157\n        /* \"Contracts/Supplychain/Supplychain1.sol\":3728:3740  _msgSender() */\n      jump\t// in\n    tag_210:\n        /* \"Contracts/Supplychain/Supplychain1.sol\":3728:3752  _msgSender() == _address */\n      0xffffffffffffffffffffffffffffffffffffffff\n      and\n      eq\n        /* \"Contracts/Supplychain/Supplychain1.sol\":3720:3753  require(_msgSender() == _address) */\n      tag_211\n      jumpi\n      0x00\n      dup1\n      revert\n    tag_211:\n        /* \"Contracts/Supplychain/Supplychain1.sol\":12204:12231  state.ReceivedByDistributor */\n      0x04\n        /* \"Contracts/Supplychain/Supplychain1.sol\":12173:12178  items */\n      0x08\n        /* \"Contracts/Supplychain/Supplychain1.sol\":12173:12192  items[_productCode] */\n      0x00\n        /* \"Contracts/Supplychain/Supplychain1.sol\":12179:12191  _productCode */\n      dup6\n        /* \"Contracts/Supplychain/Supplychain1.sol\":12173:12192  items[_productCode] */\n      dup2\n      mstore\n      0x20\n      add\n      swap1\n      dup2\n      mstore\n      0x20\n      add\n      0x00\n      keccak256\n        /* \"Contracts/Supplychain/Supplychain1.sol\":12173:12202  items[_productCode].itemState */\n      0x06\n      add\n      0x00\n        /* \"Contracts/Supplychain/Supplychain1.sol\":12173:12231  items[_productCode].itemState =state.ReceivedByDistributor */\n      0x0100\n      exp\n      dup2\n      sload\n      dup2\n      0xff\n      mul\n      not\n      and\n      swap1\n      dup4\n      0x10\n      dup2\n      gt\n      iszero\n      tag_213\n      jumpi\n      tag_214\n      tag_173\n      jump\t// in\n    tag_214:\n    tag_213:\n      mul\n      or\n      swap1\n      sstore\n      pop\n        /* \"Contracts/Supplychain/Supplychain1.sol\":12263:12298  ReceivedByDistributor(_productCode) */\n      0xc8ca2150e6e1849a10ef5aa4932060fa353bcacdffeb150c9e1890c6ab9403cc\n        /* \"Contracts/Supplychain/Supplychain1.sol\":12285:12297  _productCode */\n      dup4\n        /* \"Contracts/Supplychain/Supplychain1.sol\":12263:12298  ReceivedByDistributor(_productCode) */\n      mload(0x40)\n      tag_215\n      swap2\n      swap1\n      tag_195\n      jump\t// in\n    tag_215:\n      mload(0x40)\n      dup1\n      swap2\n      sub\n      swap1\n      log1\n        /* \"Contracts/Supplychain/Supplychain1.sol\":5024:5025  _ */\n      pop\n        /* \"Contracts/Access/Distributor.sol\":590:591  _ */\n      pop\n        /* \"Contracts/Supplychain/Supplychain1.sol\":11882:12306  function receivedItemByDistributor(uint256 _productCode)... */\n      pop\n      jump\t// out\n        /* \"Contracts/Supplychain/Supplychain1.sol\":16268:17117  function purchaseItemByRetailer(uint256 _productCode)... */\n    tag_62:\n        /* \"Contracts/Access/Wholesaler.sol\":546:572  isWholesaler(_msgSender()) */\n      tag_217\n        /* \"Contracts/Access/Wholesaler.sol\":559:571  _msgSender() */\n      tag_218\n        /* \"Contracts/Access/Wholesaler.sol\":559:569  _msgSender */\n      tag_157\n        /* \"Contracts/Access/Wholesaler.sol\":559:571  _msgSender() */\n      jump\t// in\n    tag_218:\n        /* \"Contracts/Access/Wholesaler.sol\":546:558  isWholesaler */\n      tag_89\n        /* \"Contracts/Access/Wholesaler.sol\":546:572  isWholesaler(_msgSender()) */\n      jump\t// in\n    tag_217:\n        /* \"Contracts/Access/Wholesaler.sol\":538:573  require(isWholesaler(_msgSender())) */\n      tag_219\n      jumpi\n      0x00\n      dup1\n      revert\n    tag_219:\n        /* \"Contracts/Supplychain/Supplychain1.sol\":16410:16422  _productCode */\n      dup1\n        /* \"Contracts/Supplychain/Supplychain1.sol\":6403:6428  state.ForSaleByWholesaler */\n      0x0b\n        /* \"Contracts/Supplychain/Supplychain1.sol\":6370:6428  items[_ProductCode].itemState == state.ForSaleByWholesaler */\n      0x10\n      dup2\n      gt\n      iszero\n      tag_221\n      jumpi\n      tag_222\n      tag_173\n      jump\t// in\n    tag_222:\n    tag_221:\n        /* \"Contracts/Supplychain/Supplychain1.sol\":6370:6375  items */\n      0x08\n        /* \"Contracts/Supplychain/Supplychain1.sol\":6370:6389  items[_ProductCode] */\n      0x00\n        /* \"Contracts/Supplychain/Supplychain1.sol\":6376:6388  _ProductCode */\n      dup4\n        /* \"Contracts/Supplychain/Supplychain1.sol\":6370:6389  items[_ProductCode] */\n      dup2\n      mstore\n      0x20\n      add\n      swap1\n      dup2\n      mstore\n      0x20\n      add\n      0x00\n      keccak256\n        /* \"Contracts/Supplychain/Supplychain1.sol\":6370:6399  items[_ProductCode].itemState */\n      0x06\n      add\n      0x00\n      swap1\n      sload\n      swap1\n      0x0100\n      exp\n      swap1\n      div\n      0xff\n      and\n        /* \"Contracts/Supplychain/Supplychain1.sol\":6370:6428  items[_ProductCode].itemState == state.ForSaleByWholesaler */\n      0x10\n      dup2\n      gt\n      iszero\n      tag_223\n      jumpi\n      tag_224\n      tag_173\n      jump\t// in\n    tag_224:\n    tag_223:\n      eq\n        /* \"Contracts/Supplychain/Supplychain1.sol\":6362:6429  require(items[_ProductCode].itemState == state.ForSaleByWholesaler) */\n      tag_225\n      jumpi\n      0x00\n      dup1\n      revert\n    tag_225:\n        /* \"Contracts/Supplychain/Supplychain1.sol\":16487:16492  items */\n      0x08\n        /* \"Contracts/Supplychain/Supplychain1.sol\":16487:16506  items[_productCode] */\n      0x00\n        /* \"Contracts/Supplychain/Supplychain1.sol\":16493:16505  _productCode */\n      dup4\n        /* \"Contracts/Supplychain/Supplychain1.sol\":16487:16506  items[_productCode] */\n      dup2\n      mstore\n      0x20\n      add\n      swap1\n      dup2\n      mstore\n      0x20\n      add\n      0x00\n      keccak256\n        /* \"Contracts/Supplychain/Supplychain1.sol\":16487:16519  items[_productCode].productPrice */\n      0x07\n      add\n      sload\n        /* \"Contracts/Supplychain/Supplychain1.sol\":3939:3945  _price */\n      dup1\n        /* \"Contracts/Supplychain/Supplychain1.sol\":3926:3935  msg.value */\n      callvalue\n        /* \"Contracts/Supplychain/Supplychain1.sol\":3926:3945  msg.value >= _price */\n      lt\n      iszero\n        /* \"Contracts/Supplychain/Supplychain1.sol\":3918:3946  require(msg.value >= _price) */\n      tag_227\n      jumpi\n      0x00\n      dup1\n      revert\n    tag_227:\n        /* \"Contracts/Supplychain/Supplychain1.sol\":16542:16554  _productCode */\n      dup3\n        /* \"Contracts/Supplychain/Supplychain1.sol\":16564:16576  _msgSender() */\n      tag_228\n        /* \"Contracts/Supplychain/Supplychain1.sol\":16564:16574  _msgSender */\n      tag_157\n        /* \"Contracts/Supplychain/Supplychain1.sol\":16564:16576  _msgSender() */\n      jump\t// in\n    tag_228:\n        /* \"Contracts/Supplychain/Supplychain1.sol\":4140:4154  uint256 _price */\n      0x00\n        /* \"Contracts/Supplychain/Supplychain1.sol\":4157:4162  items */\n      0x08\n        /* \"Contracts/Supplychain/Supplychain1.sol\":4157:4176  items[_productCode] */\n      0x00\n        /* \"Contracts/Supplychain/Supplychain1.sol\":4163:4175  _productCode */\n      dup5\n        /* \"Contracts/Supplychain/Supplychain1.sol\":4157:4176  items[_productCode] */\n      dup2\n      mstore\n      0x20\n      add\n      swap1\n      dup2\n      mstore\n      0x20\n      add\n      0x00\n      keccak256\n        /* \"Contracts/Supplychain/Supplychain1.sol\":4157:4186  items[_productCode].itemPrice */\n      0x0d\n      add\n      sload\n        /* \"Contracts/Supplychain/Supplychain1.sol\":4140:4186  uint256 _price = items[_productCode].itemPrice */\n      swap1\n      pop\n        /* \"Contracts/Supplychain/Supplychain1.sol\":4197:4219  uint256 amountToReturn */\n      0x00\n        /* \"Contracts/Supplychain/Supplychain1.sol\":4234:4240  _price */\n      dup2\n        /* \"Contracts/Supplychain/Supplychain1.sol\":4222:4231  msg.value */\n      callvalue\n        /* \"Contracts/Supplychain/Supplychain1.sol\":4222:4240  msg.value - _price */\n      tag_230\n      swap2\n      swap1\n      tag_182\n      jump\t// in\n    tag_230:\n        /* \"Contracts/Supplychain/Supplychain1.sol\":4197:4240  uint256 amountToReturn = msg.value - _price */\n      swap1\n      pop\n        /* \"Contracts/Supplychain/Supplychain1.sol\":4251:4264  addressToFund */\n      dup3\n        /* \"Contracts/Supplychain/Supplychain1.sol\":4251:4273  addressToFund.transfer */\n      0xffffffffffffffffffffffffffffffffffffffff\n      and\n        /* \"Contracts/Supplychain/Supplychain1.sol\":4251:4289  addressToFund.transfer(amountToReturn) */\n      0x08fc\n        /* \"Contracts/Supplychain/Supplychain1.sol\":4274:4288  amountToReturn */\n      dup3\n        /* \"Contracts/Supplychain/Supplychain1.sol\":4251:4289  addressToFund.transfer(amountToReturn) */\n      swap1\n      dup2\n      iszero\n      mul\n      swap1\n      mload(0x40)\n      0x00\n      mload(0x40)\n      dup1\n      dup4\n      sub\n      dup2\n      dup6\n      dup9\n      dup9\n      call\n      swap4\n      pop\n      pop\n      pop\n      pop\n      iszero\n      dup1\n      iszero\n      tag_232\n      jumpi\n      returndatasize\n      0x00\n      dup1\n      returndatacopy\n      revert(0x00, returndatasize)\n    tag_232:\n      pop\n        /* \"Contracts/Supplychain/Supplychain1.sol\":16591:16626  address payable ownerAddressPayable */\n      0x00\n        /* \"Contracts/Supplychain/Supplychain1.sol\":16629:16700  _make_payable(... */\n      tag_234\n        /* \"Contracts/Supplychain/Supplychain1.sol\":16657:16662  items */\n      0x08\n        /* \"Contracts/Supplychain/Supplychain1.sol\":16657:16676  items[_productCode] */\n      0x00\n        /* \"Contracts/Supplychain/Supplychain1.sol\":16663:16675  _productCode */\n      dup11\n        /* \"Contracts/Supplychain/Supplychain1.sol\":16657:16676  items[_productCode] */\n      dup2\n      mstore\n      0x20\n      add\n      swap1\n      dup2\n      mstore\n      0x20\n      add\n      0x00\n      keccak256\n        /* \"Contracts/Supplychain/Supplychain1.sol\":16657:16689  items[_productCode].wholesalerID */\n      0x09\n      add\n      0x00\n      swap1\n      sload\n      swap1\n      0x0100\n      exp\n      swap1\n      div\n      0xffffffffffffffffffffffffffffffffffffffff\n      and\n        /* \"Contracts/Supplychain/Supplychain1.sol\":16629:16642  _make_payable */\n      tag_187\n        /* \"Contracts/Supplychain/Supplychain1.sol\":16629:16700  _make_payable(... */\n      jump\t// in\n    tag_234:\n        /* \"Contracts/Supplychain/Supplychain1.sol\":16591:16700  address payable ownerAddressPayable = _make_payable(... */\n      swap1\n      pop\n        /* \"Contracts/Supplychain/Supplychain1.sol\":16712:16731  ownerAddressPayable */\n      dup1\n        /* \"Contracts/Supplychain/Supplychain1.sol\":16712:16740  ownerAddressPayable.transfer */\n      0xffffffffffffffffffffffffffffffffffffffff\n      and\n        /* \"Contracts/Supplychain/Supplychain1.sol\":16712:16774  ownerAddressPayable.transfer(items[_productCode].productPrice) */\n      0x08fc\n        /* \"Contracts/Supplychain/Supplychain1.sol\":16741:16746  items */\n      0x08\n        /* \"Contracts/Supplychain/Supplychain1.sol\":16741:16760  items[_productCode] */\n      0x00\n        /* \"Contracts/Supplychain/Supplychain1.sol\":16747:16759  _productCode */\n      dup12\n        /* \"Contracts/Supplychain/Supplychain1.sol\":16741:16760  items[_productCode] */\n      dup2\n      mstore\n      0x20\n      add\n      swap1\n      dup2\n      mstore\n      0x20\n      add\n      0x00\n      keccak256\n        /* \"Contracts/Supplychain/Supplychain1.sol\":16741:16773  items[_productCode].productPrice */\n      0x07\n      add\n      sload\n        /* \"Contracts/Supplychain/Supplychain1.sol\":16712:16774  ownerAddressPayable.transfer(items[_productCode].productPrice) */\n      swap1\n      dup2\n      iszero\n      mul\n      swap1\n      mload(0x40)\n      0x00\n      mload(0x40)\n      dup1\n      dup4\n      sub\n      dup2\n      dup6\n      dup9\n      dup9\n      call\n      swap4\n      pop\n      pop\n      pop\n      pop\n      iszero\n      dup1\n      iszero\n      tag_236\n      jumpi\n      returndatasize\n      0x00\n      dup1\n      returndatacopy\n      revert(0x00, returndatasize)\n    tag_236:\n      pop\n        /* \"Contracts/Supplychain/Supplychain1.sol\":16816:16828  _msgSender() */\n      tag_237\n        /* \"Contracts/Supplychain/Supplychain1.sol\":16816:16826  _msgSender */\n      tag_157\n        /* \"Contracts/Supplychain/Supplychain1.sol\":16816:16828  _msgSender() */\n      jump\t// in\n    tag_237:\n        /* \"Contracts/Supplychain/Supplychain1.sol\":16786:16791  items */\n      0x08\n        /* \"Contracts/Supplychain/Supplychain1.sol\":16786:16805  items[_productCode] */\n      0x00\n        /* \"Contracts/Supplychain/Supplychain1.sol\":16792:16804  _productCode */\n      dup11\n        /* \"Contracts/Supplychain/Supplychain1.sol\":16786:16805  items[_productCode] */\n      dup2\n      mstore\n      0x20\n      add\n      swap1\n      dup2\n      mstore\n      0x20\n      add\n      0x00\n      keccak256\n        /* \"Contracts/Supplychain/Supplychain1.sol\":16786:16813  items[_productCode].ownerID */\n      0x02\n      add\n      0x00\n        /* \"Contracts/Supplychain/Supplychain1.sol\":16786:16828  items[_productCode].ownerID = _msgSender() */\n      0x0100\n      exp\n      dup2\n      sload\n      dup2\n      0xffffffffffffffffffffffffffffffffffffffff\n      mul\n      not\n      and\n      swap1\n      dup4\n      0xffffffffffffffffffffffffffffffffffffffff\n      and\n      mul\n      or\n      swap1\n      sstore\n      pop\n        /* \"Contracts/Supplychain/Supplychain1.sol\":16888:16900  _msgSender() */\n      tag_238\n        /* \"Contracts/Supplychain/Supplychain1.sol\":16888:16898  _msgSender */\n      tag_157\n        /* \"Contracts/Supplychain/Supplychain1.sol\":16888:16900  _msgSender() */\n      jump\t// in\n    tag_238:\n        /* \"Contracts/Supplychain/Supplychain1.sol\":16855:16860  items */\n      0x08\n        /* \"Contracts/Supplychain/Supplychain1.sol\":16855:16874  items[_productCode] */\n      0x00\n        /* \"Contracts/Supplychain/Supplychain1.sol\":16861:16873  _productCode */\n      dup11\n        /* \"Contracts/Supplychain/Supplychain1.sol\":16855:16874  items[_productCode] */\n      dup2\n      mstore\n      0x20\n      add\n      swap1\n      dup2\n      mstore\n      0x20\n      add\n      0x00\n      keccak256\n        /* \"Contracts/Supplychain/Supplychain1.sol\":16855:16885  items[_productCode].retailerID */\n      0x0b\n      add\n      0x00\n        /* \"Contracts/Supplychain/Supplychain1.sol\":16855:16900  items[_productCode].retailerID = _msgSender() */\n      0x0100\n      exp\n      dup2\n      sload\n      dup2\n      0xffffffffffffffffffffffffffffffffffffffff\n      mul\n      not\n      and\n      swap1\n      dup4\n      0xffffffffffffffffffffffffffffffffffffffff\n      and\n      mul\n      or\n      swap1\n      sstore\n      pop\n        /* \"Contracts/Supplychain/Supplychain1.sol\":16943:16968  state.PurchasedByRetailer */\n      0x0c\n        /* \"Contracts/Supplychain/Supplychain1.sol\":16911:16916  items */\n      0x08\n        /* \"Contracts/Supplychain/Supplychain1.sol\":16911:16930  items[_productCode] */\n      0x00\n        /* \"Contracts/Supplychain/Supplychain1.sol\":16917:16929  _productCode */\n      dup11\n        /* \"Contracts/Supplychain/Supplychain1.sol\":16911:16930  items[_productCode] */\n      dup2\n      mstore\n      0x20\n      add\n      swap1\n      dup2\n      mstore\n      0x20\n      add\n      0x00\n      keccak256\n        /* \"Contracts/Supplychain/Supplychain1.sol\":16911:16940  items[_productCode].itemState */\n      0x06\n      add\n      0x00\n        /* \"Contracts/Supplychain/Supplychain1.sol\":16911:16968  items[_productCode].itemState = state.PurchasedByRetailer */\n      0x0100\n      exp\n      dup2\n      sload\n      dup2\n      0xff\n      mul\n      not\n      and\n      swap1\n      dup4\n      0x10\n      dup2\n      gt\n      iszero\n      tag_239\n      jumpi\n      tag_240\n      tag_173\n      jump\t// in\n    tag_240:\n    tag_239:\n      mul\n      or\n      swap1\n      sstore\n      pop\n        /* \"Contracts/Supplychain/Supplychain1.sol\":17028:17040  block.number */\n      number\n        /* \"Contracts/Supplychain/Supplychain1.sol\":16995:17007  itemsHistory */\n      0x09\n        /* \"Contracts/Supplychain/Supplychain1.sol\":16995:17021  itemsHistory[_productCode] */\n      0x00\n        /* \"Contracts/Supplychain/Supplychain1.sol\":17008:17020  _productCode */\n      dup11\n        /* \"Contracts/Supplychain/Supplychain1.sol\":16995:17021  itemsHistory[_productCode] */\n      dup2\n      mstore\n      0x20\n      add\n      swap1\n      dup2\n      mstore\n      0x20\n      add\n      0x00\n      keccak256\n        /* \"Contracts/Supplychain/Supplychain1.sol\":16995:17025  itemsHistory[_productCode].WTR */\n      0x02\n      add\n        /* \"Contracts/Supplychain/Supplychain1.sol\":16995:17040  itemsHistory[_productCode].WTR = block.number */\n      dup2\n      swap1\n      sstore\n      pop\n        /* \"Contracts/Supplychain/Supplychain1.sol\":17076:17109  PurchasedByRetailer(_productCode) */\n      0xaa7352d10146444c3afd9bd7fb0ae56b0a85e81139536bbec3f1f660fddd7be1\n        /* \"Contracts/Supplychain/Supplychain1.sol\":17096:17108  _productCode */\n      dup9\n        /* \"Contracts/Supplychain/Supplychain1.sol\":17076:17109  PurchasedByRetailer(_productCode) */\n      mload(0x40)\n      tag_241\n      swap2\n      swap1\n      tag_195\n      jump\t// in\n    tag_241:\n      mload(0x40)\n      dup1\n      swap2\n      sub\n      swap1\n      log1\n        /* \"Contracts/Supplychain/Supplychain1.sol\":16578:17117  {... */\n      pop\n        /* \"Contracts/Supplychain/Supplychain1.sol\":4129:4309  {... */\n      pop\n      pop\n        /* \"Contracts/Supplychain/Supplychain1.sol\":3957:3958  _ */\n      pop\n      pop\n        /* \"Contracts/Supplychain/Supplychain1.sol\":6443:6444  _ */\n      pop\n        /* \"Contracts/Access/Wholesaler.sol\":583:584  _ */\n      pop\n        /* \"Contracts/Supplychain/Supplychain1.sol\":16268:17117  function purchaseItemByRetailer(uint256 _productCode)... */\n      pop\n      jump\t// out\n        /* \"Contracts/Supplychain/Supplychain1.sol\":15393:15774  function processedItemByWholesaler(uint256 _productCode , uint256 slices)... */\n    tag_67:\n        /* \"Contracts/Access/Wholesaler.sol\":546:572  isWholesaler(_msgSender()) */\n      tag_243\n        /* \"Contracts/Access/Wholesaler.sol\":559:571  _msgSender() */\n      tag_244\n        /* \"Contracts/Access/Wholesaler.sol\":559:569  _msgSender */\n      tag_157\n        /* \"Contracts/Access/Wholesaler.sol\":559:571  _msgSender() */\n      jump\t// in\n    tag_244:\n        /* \"Contracts/Access/Wholesaler.sol\":546:558  isWholesaler */\n      tag_89\n        /* \"Contracts/Access/Wholesaler.sol\":546:572  isWholesaler(_msgSender()) */\n      jump\t// in\n    tag_243:\n        /* \"Contracts/Access/Wholesaler.sol\":538:573  require(isWholesaler(_msgSender())) */\n      tag_245\n      jumpi\n      0x00\n      dup1\n      revert\n    tag_245:\n        /* \"Contracts/Supplychain/Supplychain1.sol\":15528:15540  _productCode */\n      dup2\n        /* \"Contracts/Supplychain/Supplychain1.sol\":6049:6075  state.ReceivedByWholesaler */\n      0x09\n        /* \"Contracts/Supplychain/Supplychain1.sol\":6016:6075  items[_ProductCode].itemState == state.ReceivedByWholesaler */\n      0x10\n      dup2\n      gt\n      iszero\n      tag_247\n      jumpi\n      tag_248\n      tag_173\n      jump\t// in\n    tag_248:\n    tag_247:\n        /* \"Contracts/Supplychain/Supplychain1.sol\":6016:6021  items */\n      0x08\n        /* \"Contracts/Supplychain/Supplychain1.sol\":6016:6035  items[_ProductCode] */\n      0x00\n        /* \"Contracts/Supplychain/Supplychain1.sol\":6022:6034  _ProductCode */\n      dup4\n        /* \"Contracts/Supplychain/Supplychain1.sol\":6016:6035  items[_ProductCode] */\n      dup2\n      mstore\n      0x20\n      add\n      swap1\n      dup2\n      mstore\n      0x20\n      add\n      0x00\n      keccak256\n        /* \"Contracts/Supplychain/Supplychain1.sol\":6016:6045  items[_ProductCode].itemState */\n      0x06\n      add\n      0x00\n      swap1\n      sload\n      swap1\n      0x0100\n      exp\n      swap1\n      div\n      0xff\n      and\n        /* \"Contracts/Supplychain/Supplychain1.sol\":6016:6075  items[_ProductCode].itemState == state.ReceivedByWholesaler */\n      0x10\n      dup2\n      gt\n      iszero\n      tag_249\n      jumpi\n      tag_250\n      tag_173\n      jump\t// in\n    tag_250:\n    tag_249:\n      eq\n        /* \"Contracts/Supplychain/Supplychain1.sol\":6008:6076  require(items[_ProductCode].itemState == state.ReceivedByWholesaler) */\n      tag_251\n      jumpi\n      0x00\n      dup1\n      revert\n    tag_251:\n        /* \"Contracts/Supplychain/Supplychain1.sol\":15562:15567  items */\n      0x08\n        /* \"Contracts/Supplychain/Supplychain1.sol\":15562:15581  items[_productCode] */\n      0x00\n        /* \"Contracts/Supplychain/Supplychain1.sol\":15568:15580  _productCode */\n      dup5\n        /* \"Contracts/Supplychain/Supplychain1.sol\":15562:15581  items[_productCode] */\n      dup2\n      mstore\n      0x20\n      add\n      swap1\n      dup2\n      mstore\n      0x20\n      add\n      0x00\n      keccak256\n        /* \"Contracts/Supplychain/Supplychain1.sol\":15562:15589  items[_productCode].ownerID */\n      0x02\n      add\n      0x00\n      swap1\n      sload\n      swap1\n      0x0100\n      exp\n      swap1\n      div\n      0xffffffffffffffffffffffffffffffffffffffff\n      and\n        /* \"Contracts/Supplychain/Supplychain1.sol\":3744:3752  _address */\n      dup1\n        /* \"Contracts/Supplychain/Supplychain1.sol\":3728:3752  _msgSender() == _address */\n      0xffffffffffffffffffffffffffffffffffffffff\n      and\n        /* \"Contracts/Supplychain/Supplychain1.sol\":3728:3740  _msgSender() */\n      tag_253\n        /* \"Contracts/Supplychain/Supplychain1.sol\":3728:3738  _msgSender */\n      tag_157\n        /* \"Contracts/Supplychain/Supplychain1.sol\":3728:3740  _msgSender() */\n      jump\t// in\n    tag_253:\n        /* \"Contracts/Supplychain/Supplychain1.sol\":3728:3752  _msgSender() == _address */\n      0xffffffffffffffffffffffffffffffffffffffff\n      and\n      eq\n        /* \"Contracts/Supplychain/Supplychain1.sol\":3720:3753  require(_msgSender() == _address) */\n      tag_254\n      jumpi\n      0x00\n      dup1\n      revert\n    tag_254:\n        /* \"Contracts/Supplychain/Supplychain1.sol\":15632:15659  state.ProcessedByWholesaler */\n      0x0a\n        /* \"Contracts/Supplychain/Supplychain1.sol\":15600:15605  items */\n      0x08\n        /* \"Contracts/Supplychain/Supplychain1.sol\":15600:15619  items[_productCode] */\n      0x00\n        /* \"Contracts/Supplychain/Supplychain1.sol\":15606:15618  _productCode */\n      dup7\n        /* \"Contracts/Supplychain/Supplychain1.sol\":15600:15619  items[_productCode] */\n      dup2\n      mstore\n      0x20\n      add\n      swap1\n      dup2\n      mstore\n      0x20\n      add\n      0x00\n      keccak256\n        /* \"Contracts/Supplychain/Supplychain1.sol\":15600:15629  items[_productCode].itemState */\n      0x06\n      add\n      0x00\n        /* \"Contracts/Supplychain/Supplychain1.sol\":15600:15659  items[_productCode].itemState = state.ProcessedByWholesaler */\n      0x0100\n      exp\n      dup2\n      sload\n      dup2\n      0xff\n      mul\n      not\n      and\n      swap1\n      dup4\n      0x10\n      dup2\n      gt\n      iszero\n      tag_256\n      jumpi\n      tag_257\n      tag_173\n      jump\t// in\n    tag_257:\n    tag_256:\n      mul\n      or\n      swap1\n      sstore\n      pop\n        /* \"Contracts/Supplychain/Supplychain1.sol\":15705:15711  slices */\n      dup3\n        /* \"Contracts/Supplychain/Supplychain1.sol\":15669:15674  items */\n      0x08\n        /* \"Contracts/Supplychain/Supplychain1.sol\":15669:15688  items[_productCode] */\n      0x00\n        /* \"Contracts/Supplychain/Supplychain1.sol\":15675:15687  _productCode */\n      dup7\n        /* \"Contracts/Supplychain/Supplychain1.sol\":15669:15688  items[_productCode] */\n      dup2\n      mstore\n      0x20\n      add\n      swap1\n      dup2\n      mstore\n      0x20\n      add\n      0x00\n      keccak256\n        /* \"Contracts/Supplychain/Supplychain1.sol\":15669:15702  items[_productCode].productSliced */\n      0x08\n      add\n        /* \"Contracts/Supplychain/Supplychain1.sol\":15669:15711  items[_productCode].productSliced = slices */\n      dup2\n      swap1\n      sstore\n      pop\n        /* \"Contracts/Supplychain/Supplychain1.sol\":15726:15761  ProcessedByWholesaler(_productCode) */\n      0xe0326eb12edef57b95f5c62083ba2b46710c31108309cf7f3a93d075dbfd2968\n        /* \"Contracts/Supplychain/Supplychain1.sol\":15748:15760  _productCode */\n      dup5\n        /* \"Contracts/Supplychain/Supplychain1.sol\":15726:15761  ProcessedByWholesaler(_productCode) */\n      mload(0x40)\n      tag_258\n      swap2\n      swap1\n      tag_195\n      jump\t// in\n    tag_258:\n      mload(0x40)\n      dup1\n      swap2\n      sub\n      swap1\n      log1\n        /* \"Contracts/Supplychain/Supplychain1.sol\":6090:6091  _ */\n      pop\n        /* \"Contracts/Access/Wholesaler.sol\":583:584  _ */\n      pop\n        /* \"Contracts/Supplychain/Supplychain1.sol\":15393:15774  function processedItemByWholesaler(uint256 _productCode , uint256 slices)... */\n      pop\n      pop\n      jump\t// out\n        /* \"Contracts/Access/Consumer.sol\":893:985  function  renouceConsumer() public{... */\n    tag_70:\n        /* \"Contracts/Access/Consumer.sol\":948:977  _removeConsumer(_msgSender()) */\n      tag_260\n        /* \"Contracts/Access/Consumer.sol\":964:976  _msgSender() */\n      tag_261\n        /* \"Contracts/Access/Consumer.sol\":964:974  _msgSender */\n      tag_157\n        /* \"Contracts/Access/Consumer.sol\":964:976  _msgSender() */\n      jump\t// in\n    tag_261:\n        /* \"Contracts/Access/Consumer.sol\":948:963  _removeConsumer */\n      tag_262\n        /* \"Contracts/Access/Consumer.sol\":948:977  _removeConsumer(_msgSender()) */\n      jump\t// in\n    tag_260:\n        /* \"Contracts/Access/Consumer.sol\":893:985  function  renouceConsumer() public{... */\n      jump\t// out\n        /* \"Contracts/Supplychain/Supplychain1.sol\":7529:7730  function kill() public {... */\n    tag_73:\n        /* \"Contracts/Supplychain/Supplychain1.sol\":7583:7588  owner */\n      0x05\n      0x00\n      swap1\n      sload\n      swap1\n      0x0100\n      exp\n      swap1\n      div\n      0xffffffffffffffffffffffffffffffffffffffff\n      and\n        /* \"Contracts/Supplychain/Supplychain1.sol\":7567:7588  _msgSender() == owner */\n      0xffffffffffffffffffffffffffffffffffffffff\n      and\n        /* \"Contracts/Supplychain/Supplychain1.sol\":7567:7579  _msgSender() */\n      tag_264\n        /* \"Contracts/Supplychain/Supplychain1.sol\":7567:7577  _msgSender */\n      tag_157\n        /* \"Contracts/Supplychain/Supplychain1.sol\":7567:7579  _msgSender() */\n      jump\t// in\n    tag_264:\n        /* \"Contracts/Supplychain/Supplychain1.sol\":7567:7588  _msgSender() == owner */\n      0xffffffffffffffffffffffffffffffffffffffff\n      and\n      sub\n        /* \"Contracts/Supplychain/Supplychain1.sol\":7563:7723  if (_msgSender() == owner) {... */\n      tag_265\n      jumpi\n        /* \"Contracts/Supplychain/Supplychain1.sol\":7605:7640  address payable ownerAddressPayable */\n      0x00\n        /* \"Contracts/Supplychain/Supplychain1.sol\":7643:7663  _make_payable(owner) */\n      tag_266\n        /* \"Contracts/Supplychain/Supplychain1.sol\":7657:7662  owner */\n      0x05\n      0x00\n      swap1\n      sload\n      swap1\n      0x0100\n      exp\n      swap1\n      div\n      0xffffffffffffffffffffffffffffffffffffffff\n      and\n        /* \"Contracts/Supplychain/Supplychain1.sol\":7643:7656  _make_payable */\n      tag_187\n        /* \"Contracts/Supplychain/Supplychain1.sol\":7643:7663  _make_payable(owner) */\n      jump\t// in\n    tag_266:\n        /* \"Contracts/Supplychain/Supplychain1.sol\":7605:7663  address payable ownerAddressPayable = _make_payable(owner) */\n      swap1\n      pop\n        /* \"Contracts/Supplychain/Supplychain1.sol\":7691:7710  ownerAddressPayable */\n      dup1\n        /* \"Contracts/Supplychain/Supplychain1.sol\":7678:7711  selfdestruct(ownerAddressPayable) */\n      0xffffffffffffffffffffffffffffffffffffffff\n      and\n      selfdestruct\n        /* \"Contracts/Supplychain/Supplychain1.sol\":7563:7723  if (_msgSender() == owner) {... */\n    tag_265:\n        /* \"Contracts/Supplychain/Supplychain1.sol\":7529:7730  function kill() public {... */\n      jump\t// out\n        /* \"Contracts/Access/Distributor.sol\":929:1027  function  renouceDistributor() public{... */\n    tag_76:\n        /* \"Contracts/Access/Distributor.sol\":987:1019  _removeDistributor(_msgSender()) */\n      tag_268\n        /* \"Contracts/Access/Distributor.sol\":1006:1018  _msgSender() */\n      tag_269\n        /* \"Contracts/Access/Distributor.sol\":1006:1016  _msgSender */\n      tag_157\n        /* \"Contracts/Access/Distributor.sol\":1006:1018  _msgSender() */\n      jump\t// in\n    tag_269:\n        /* \"Contracts/Access/Distributor.sol\":987:1005  _removeDistributor */\n      tag_270\n        /* \"Contracts/Access/Distributor.sol\":987:1019  _removeDistributor(_msgSender()) */\n      jump\t// in\n    tag_268:\n        /* \"Contracts/Access/Distributor.sol\":929:1027  function  renouceDistributor() public{... */\n      jump\t// out\n        /* \"Contracts/Access/Retailer.sol\":646:775  function isRetailer(address account )... */\n    tag_80:\n        /* \"Contracts/Access/Retailer.sol\":722:726  bool */\n      0x00\n        /* \"Contracts/Access/Retailer.sol\":745:767  retailers.has(account) */\n      tag_272\n        /* \"Contracts/Access/Retailer.sol\":759:766  account */\n      dup3\n        /* \"Contracts/Access/Retailer.sol\":745:754  retailers */\n      0x03\n        /* \"Contracts/Access/Retailer.sol\":745:758  retailers.has */\n      tag_198\n      swap1\n        /* \"Contracts/Access/Retailer.sol\":745:767  retailers.has(account) */\n      swap2\n      swap1\n      0xffffffff\n      and\n      jump\t// in\n    tag_272:\n        /* \"Contracts/Access/Retailer.sol\":738:767  return retailers.has(account) */\n      swap1\n      pop\n        /* \"Contracts/Access/Retailer.sol\":646:775  function isRetailer(address account )... */\n      swap2\n      swap1\n      pop\n      jump\t// out\n        /* \"Contracts/Access/Manufacturer.sol\":823:933  function addManufacturer (address account) public onlyManufacturer{... */\n    tag_85:\n        /* \"Contracts/Access/Manufacturer.sol\":558:586  isManufacturer(_msgSender()) */\n      tag_274\n        /* \"Contracts/Access/Manufacturer.sol\":573:585  _msgSender() */\n      tag_275\n        /* \"Contracts/Access/Manufacturer.sol\":573:583  _msgSender */\n      tag_157\n        /* \"Contracts/Access/Manufacturer.sol\":573:585  _msgSender() */\n      jump\t// in\n    tag_275:\n        /* \"Contracts/Access/Manufacturer.sol\":558:572  isManufacturer */\n      tag_53\n        /* \"Contracts/Access/Manufacturer.sol\":558:586  isManufacturer(_msgSender()) */\n      jump\t// in\n    tag_274:\n        /* \"Contracts/Access/Manufacturer.sol\":550:587  require(isManufacturer(_msgSender())) */\n      tag_276\n      jumpi\n      0x00\n      dup1\n      revert\n    tag_276:\n        /* \"Contracts/Access/Manufacturer.sol\":900:925  _addManufacturer(account) */\n      tag_278\n        /* \"Contracts/Access/Manufacturer.sol\":917:924  account */\n      dup2\n        /* \"Contracts/Access/Manufacturer.sol\":900:916  _addManufacturer */\n      tag_279\n        /* \"Contracts/Access/Manufacturer.sol\":900:925  _addManufacturer(account) */\n      jump\t// in\n    tag_278:\n        /* \"Contracts/Access/Manufacturer.sol\":823:933  function addManufacturer (address account) public onlyManufacturer{... */\n      pop\n      jump\t// out\n        /* \"Contracts/Access/Wholesaler.sol\":660:793  function isWholesaler(address account )... */\n    tag_89:\n        /* \"Contracts/Access/Wholesaler.sol\":738:742  bool */\n      0x00\n        /* \"Contracts/Access/Wholesaler.sol\":761:785  wholesalers.has(account) */\n      tag_281\n        /* \"Contracts/Access/Wholesaler.sol\":777:784  account */\n      dup3\n        /* \"Contracts/Access/Wholesaler.sol\":761:772  wholesalers */\n      0x02\n        /* \"Contracts/Access/Wholesaler.sol\":761:776  wholesalers.has */\n      tag_198\n      swap1\n        /* \"Contracts/Access/Wholesaler.sol\":761:785  wholesalers.has(account) */\n      swap2\n      swap1\n      0xffffffff\n      and\n      jump\t// in\n    tag_281:\n        /* \"Contracts/Access/Wholesaler.sol\":754:785  return wholesalers.has(account) */\n      swap1\n      pop\n        /* \"Contracts/Access/Wholesaler.sol\":660:793  function isWholesaler(address account )... */\n      swap2\n      swap1\n      pop\n      jump\t// out\n        /* \"Contracts/Access/Distributor.sol\":814:921  function addDistributor (address account) public onlyDistributor{... */\n    tag_94:\n        /* \"Contracts/Access/Distributor.sol\":552:579  isDistributor(_msgSender()) */\n      tag_283\n        /* \"Contracts/Access/Distributor.sol\":566:578  _msgSender() */\n      tag_284\n        /* \"Contracts/Access/Distributor.sol\":566:576  _msgSender */\n      tag_157\n        /* \"Contracts/Access/Distributor.sol\":566:578  _msgSender() */\n      jump\t// in\n    tag_284:\n        /* \"Contracts/Access/Distributor.sol\":552:565  isDistributor */\n      tag_117\n        /* \"Contracts/Access/Distributor.sol\":552:579  isDistributor(_msgSender()) */\n      jump\t// in\n    tag_283:\n        /* \"Contracts/Access/Distributor.sol\":544:580  require(isDistributor(_msgSender())) */\n      tag_285\n      jumpi\n      0x00\n      dup1\n      revert\n    tag_285:\n        /* \"Contracts/Access/Distributor.sol\":889:913  _addDistributor(account) */\n      tag_287\n        /* \"Contracts/Access/Distributor.sol\":905:912  account */\n      dup2\n        /* \"Contracts/Access/Distributor.sol\":889:904  _addDistributor */\n      tag_288\n        /* \"Contracts/Access/Distributor.sol\":889:913  _addDistributor(account) */\n      jump\t// in\n    tag_287:\n        /* \"Contracts/Access/Distributor.sol\":814:921  function addDistributor (address account) public onlyDistributor{... */\n      pop\n      jump\t// out\n        /* \"Contracts/Supplychain/Supplychain1.sol\":14411:14848  function shippedItemByDistributor(uint256 _productCode)... */\n    tag_97:\n        /* \"Contracts/Access/Distributor.sol\":552:579  isDistributor(_msgSender()) */\n      tag_290\n        /* \"Contracts/Access/Distributor.sol\":566:578  _msgSender() */\n      tag_291\n        /* \"Contracts/Access/Distributor.sol\":566:576  _msgSender */\n      tag_157\n        /* \"Contracts/Access/Distributor.sol\":566:578  _msgSender() */\n      jump\t// in\n    tag_291:\n        /* \"Contracts/Access/Distributor.sol\":552:565  isDistributor */\n      tag_117\n        /* \"Contracts/Access/Distributor.sol\":552:579  isDistributor(_msgSender()) */\n      jump\t// in\n    tag_290:\n        /* \"Contracts/Access/Distributor.sol\":544:580  require(isDistributor(_msgSender())) */\n      tag_292\n      jumpi\n      0x00\n      dup1\n      revert\n    tag_292:\n        /* \"Contracts/Supplychain/Supplychain1.sol\":14600:14612  _productCode */\n      dup1\n        /* \"Contracts/Supplychain/Supplychain1.sol\":5696:5723  state.PurchasedByWholesaler */\n      0x07\n        /* \"Contracts/Supplychain/Supplychain1.sol\":5663:5723  items[_ProductCode].itemState == state.PurchasedByWholesaler */\n      0x10\n      dup2\n      gt\n      iszero\n      tag_294\n      jumpi\n      tag_295\n      tag_173\n      jump\t// in\n    tag_295:\n    tag_294:\n        /* \"Contracts/Supplychain/Supplychain1.sol\":5663:5668  items */\n      0x08\n        /* \"Contracts/Supplychain/Supplychain1.sol\":5663:5682  items[_ProductCode] */\n      0x00\n        /* \"Contracts/Supplychain/Supplychain1.sol\":5669:5681  _ProductCode */\n      dup4\n        /* \"Contracts/Supplychain/Supplychain1.sol\":5663:5682  items[_ProductCode] */\n      dup2\n      mstore\n      0x20\n      add\n      swap1\n      dup2\n      mstore\n      0x20\n      add\n      0x00\n      keccak256\n        /* \"Contracts/Supplychain/Supplychain1.sol\":5663:5692  items[_ProductCode].itemState */\n      0x06\n      add\n      0x00\n      swap1\n      sload\n      swap1\n      0x0100\n      exp\n      swap1\n      div\n      0xff\n      and\n        /* \"Contracts/Supplychain/Supplychain1.sol\":5663:5723  items[_ProductCode].itemState == state.PurchasedByWholesaler */\n      0x10\n      dup2\n      gt\n      iszero\n      tag_296\n      jumpi\n      tag_297\n      tag_173\n      jump\t// in\n    tag_297:\n    tag_296:\n      eq\n        /* \"Contracts/Supplychain/Supplychain1.sol\":5655:5724  require(items[_ProductCode].itemState == state.PurchasedByWholesaler) */\n      tag_298\n      jumpi\n      0x00\n      dup1\n      revert\n    tag_298:\n        /* \"Contracts/Supplychain/Supplychain1.sol\":14636:14641  items */\n      0x08\n        /* \"Contracts/Supplychain/Supplychain1.sol\":14636:14655  items[_productCode] */\n      0x00\n        /* \"Contracts/Supplychain/Supplychain1.sol\":14642:14654  _productCode */\n      dup4\n        /* \"Contracts/Supplychain/Supplychain1.sol\":14636:14655  items[_productCode] */\n      dup2\n      mstore\n      0x20\n      add\n      swap1\n      dup2\n      mstore\n      0x20\n      add\n      0x00\n      keccak256\n        /* \"Contracts/Supplychain/Supplychain1.sol\":14636:14669  items[_productCode].distributorID */\n      0x0a\n      add\n      0x00\n      swap1\n      sload\n      swap1\n      0x0100\n      exp\n      swap1\n      div\n      0xffffffffffffffffffffffffffffffffffffffff\n      and\n        /* \"Contracts/Supplychain/Supplychain1.sol\":3744:3752  _address */\n      dup1\n        /* \"Contracts/Supplychain/Supplychain1.sol\":3728:3752  _msgSender() == _address */\n      0xffffffffffffffffffffffffffffffffffffffff\n      and\n        /* \"Contracts/Supplychain/Supplychain1.sol\":3728:3740  _msgSender() */\n      tag_300\n        /* \"Contracts/Supplychain/Supplychain1.sol\":3728:3738  _msgSender */\n      tag_157\n        /* \"Contracts/Supplychain/Supplychain1.sol\":3728:3740  _msgSender() */\n      jump\t// in\n    tag_300:\n        /* \"Contracts/Supplychain/Supplychain1.sol\":3728:3752  _msgSender() == _address */\n      0xffffffffffffffffffffffffffffffffffffffff\n      and\n      eq\n        /* \"Contracts/Supplychain/Supplychain1.sol\":3720:3753  require(_msgSender() == _address) */\n      tag_301\n      jumpi\n      0x00\n      dup1\n      revert\n    tag_301:\n        /* \"Contracts/Supplychain/Supplychain1.sol\":14743:14769  state.ShippedByDistributor */\n      0x08\n        /* \"Contracts/Supplychain/Supplychain1.sol\":14711:14716  items */\n      dup1\n        /* \"Contracts/Supplychain/Supplychain1.sol\":14711:14730  items[_productCode] */\n      0x00\n        /* \"Contracts/Supplychain/Supplychain1.sol\":14717:14729  _productCode */\n      dup6\n        /* \"Contracts/Supplychain/Supplychain1.sol\":14711:14730  items[_productCode] */\n      dup2\n      mstore\n      0x20\n      add\n      swap1\n      dup2\n      mstore\n      0x20\n      add\n      0x00\n      keccak256\n        /* \"Contracts/Supplychain/Supplychain1.sol\":14711:14740  items[_productCode].itemState */\n      0x06\n      add\n      0x00\n        /* \"Contracts/Supplychain/Supplychain1.sol\":14711:14769  items[_productCode].itemState = state.ShippedByDistributor */\n      0x0100\n      exp\n      dup2\n      sload\n      dup2\n      0xff\n      mul\n      not\n      and\n      swap1\n      dup4\n      0x10\n      dup2\n      gt\n      iszero\n      tag_303\n      jumpi\n      tag_304\n      tag_173\n      jump\t// in\n    tag_304:\n    tag_303:\n      mul\n      or\n      swap1\n      sstore\n      pop\n        /* \"Contracts/Supplychain/Supplychain1.sol\":14801:14834  ShippedByDistributor(productCode) */\n      0xc5c33776d405e5686e4386e1ef31a65cf6195e4f7ceb8808ab64d05b6ccbc2a6\n        /* \"Contracts/Supplychain/Supplychain1.sol\":14822:14833  productCode */\n      sload(0x06)\n        /* \"Contracts/Supplychain/Supplychain1.sol\":14801:14834  ShippedByDistributor(productCode) */\n      mload(0x40)\n      tag_305\n      swap2\n      swap1\n      tag_195\n      jump\t// in\n    tag_305:\n      mload(0x40)\n      dup1\n      swap2\n      sub\n      swap1\n      log1\n        /* \"Contracts/Supplychain/Supplychain1.sol\":5738:5739  _ */\n      pop\n        /* \"Contracts/Access/Distributor.sol\":590:591  _ */\n      pop\n        /* \"Contracts/Supplychain/Supplychain1.sol\":14411:14848  function shippedItemByDistributor(uint256 _productCode)... */\n      pop\n      jump\t// out\n        /* \"Contracts/Access/Consumer.sol\":646:775  function isConsumer(address account )... */\n    tag_101:\n        /* \"Contracts/Access/Consumer.sol\":722:726  bool */\n      0x00\n        /* \"Contracts/Access/Consumer.sol\":745:767  consumers.has(account) */\n      tag_307\n        /* \"Contracts/Access/Consumer.sol\":759:766  account */\n      dup3\n        /* \"Contracts/Access/Consumer.sol\":745:754  consumers */\n      0x04\n        /* \"Contracts/Access/Consumer.sol\":745:758  consumers.has */\n      tag_198\n      swap1\n        /* \"Contracts/Access/Consumer.sol\":745:767  consumers.has(account) */\n      swap2\n      swap1\n      0xffffffff\n      and\n      jump\t// in\n    tag_307:\n        /* \"Contracts/Access/Consumer.sol\":738:767  return consumers.has(account) */\n      swap1\n      pop\n        /* \"Contracts/Access/Consumer.sol\":646:775  function isConsumer(address account )... */\n      swap2\n      swap1\n      pop\n      jump\t// out\n        /* \"Contracts/Supplychain/Supplychain1.sol\":12819:13188  function sellItemByDistributor(uint256 _productCode, uint _price)... */\n    tag_106:\n        /* \"Contracts/Access/Distributor.sol\":552:579  isDistributor(_msgSender()) */\n      tag_309\n        /* \"Contracts/Access/Distributor.sol\":566:578  _msgSender() */\n      tag_310\n        /* \"Contracts/Access/Distributor.sol\":566:576  _msgSender */\n      tag_157\n        /* \"Contracts/Access/Distributor.sol\":566:578  _msgSender() */\n      jump\t// in\n    tag_310:\n        /* \"Contracts/Access/Distributor.sol\":552:565  isDistributor */\n      tag_117\n        /* \"Contracts/Access/Distributor.sol\":552:579  isDistributor(_msgSender()) */\n      jump\t// in\n    tag_309:\n        /* \"Contracts/Access/Distributor.sol\":544:580  require(isDistributor(_msgSender())) */\n      tag_311\n      jumpi\n      0x00\n      dup1\n      revert\n    tag_311:\n        /* \"Contracts/Supplychain/Supplychain1.sol\":12951:12963  _productCode */\n      dup2\n        /* \"Contracts/Supplychain/Supplychain1.sol\":5343:5371  state.ProcessedByDistributor */\n      0x05\n        /* \"Contracts/Supplychain/Supplychain1.sol\":5309:5371  items[ _ProductCode].itemState == state.ProcessedByDistributor */\n      0x10\n      dup2\n      gt\n      iszero\n      tag_313\n      jumpi\n      tag_314\n      tag_173\n      jump\t// in\n    tag_314:\n    tag_313:\n        /* \"Contracts/Supplychain/Supplychain1.sol\":5309:5314  items */\n      0x08\n        /* \"Contracts/Supplychain/Supplychain1.sol\":5309:5329  items[ _ProductCode] */\n      0x00\n        /* \"Contracts/Supplychain/Supplychain1.sol\":5316:5328  _ProductCode */\n      dup4\n        /* \"Contracts/Supplychain/Supplychain1.sol\":5309:5329  items[ _ProductCode] */\n      dup2\n      mstore\n      0x20\n      add\n      swap1\n      dup2\n      mstore\n      0x20\n      add\n      0x00\n      keccak256\n        /* \"Contracts/Supplychain/Supplychain1.sol\":5309:5339  items[ _ProductCode].itemState */\n      0x06\n      add\n      0x00\n      swap1\n      sload\n      swap1\n      0x0100\n      exp\n      swap1\n      div\n      0xff\n      and\n        /* \"Contracts/Supplychain/Supplychain1.sol\":5309:5371  items[ _ProductCode].itemState == state.ProcessedByDistributor */\n      0x10\n      dup2\n      gt\n      iszero\n      tag_315\n      jumpi\n      tag_316\n      tag_173\n      jump\t// in\n    tag_316:\n    tag_315:\n      eq\n        /* \"Contracts/Supplychain/Supplychain1.sol\":5300:5372  require (items[ _ProductCode].itemState == state.ProcessedByDistributor) */\n      tag_317\n      jumpi\n      0x00\n      dup1\n      revert\n    tag_317:\n        /* \"Contracts/Supplychain/Supplychain1.sol\":12984:12989  items */\n      0x08\n        /* \"Contracts/Supplychain/Supplychain1.sol\":12984:13003  items[_productCode] */\n      0x00\n        /* \"Contracts/Supplychain/Supplychain1.sol\":12990:13002  _productCode */\n      dup5\n        /* \"Contracts/Supplychain/Supplychain1.sol\":12984:13003  items[_productCode] */\n      dup2\n      mstore\n      0x20\n      add\n      swap1\n      dup2\n      mstore\n      0x20\n      add\n      0x00\n      keccak256\n        /* \"Contracts/Supplychain/Supplychain1.sol\":12984:13011  items[_productCode].ownerID */\n      0x02\n      add\n      0x00\n      swap1\n      sload\n      swap1\n      0x0100\n      exp\n      swap1\n      div\n      0xffffffffffffffffffffffffffffffffffffffff\n      and\n        /* \"Contracts/Supplychain/Supplychain1.sol\":3744:3752  _address */\n      dup1\n        /* \"Contracts/Supplychain/Supplychain1.sol\":3728:3752  _msgSender() == _address */\n      0xffffffffffffffffffffffffffffffffffffffff\n      and\n        /* \"Contracts/Supplychain/Supplychain1.sol\":3728:3740  _msgSender() */\n      tag_319\n        /* \"Contracts/Supplychain/Supplychain1.sol\":3728:3738  _msgSender */\n      tag_157\n        /* \"Contracts/Supplychain/Supplychain1.sol\":3728:3740  _msgSender() */\n      jump\t// in\n    tag_319:\n        /* \"Contracts/Supplychain/Supplychain1.sol\":3728:3752  _msgSender() == _address */\n      0xffffffffffffffffffffffffffffffffffffffff\n      and\n      eq\n        /* \"Contracts/Supplychain/Supplychain1.sol\":3720:3753  require(_msgSender() == _address) */\n      tag_320\n      jumpi\n      0x00\n      dup1\n      revert\n    tag_320:\n        /* \"Contracts/Supplychain/Supplychain1.sol\":13054:13079  state.ForSaleByWholesaler */\n      0x0b\n        /* \"Contracts/Supplychain/Supplychain1.sol\":13022:13027  items */\n      0x08\n        /* \"Contracts/Supplychain/Supplychain1.sol\":13022:13041  items[_productCode] */\n      0x00\n        /* \"Contracts/Supplychain/Supplychain1.sol\":13028:13040  _productCode */\n      dup7\n        /* \"Contracts/Supplychain/Supplychain1.sol\":13022:13041  items[_productCode] */\n      dup2\n      mstore\n      0x20\n      add\n      swap1\n      dup2\n      mstore\n      0x20\n      add\n      0x00\n      keccak256\n        /* \"Contracts/Supplychain/Supplychain1.sol\":13022:13051  items[_productCode].itemState */\n      0x06\n      add\n      0x00\n        /* \"Contracts/Supplychain/Supplychain1.sol\":13022:13079  items[_productCode].itemState = state.ForSaleByWholesaler */\n      0x0100\n      exp\n      dup2\n      sload\n      dup2\n      0xff\n      mul\n      not\n      and\n      swap1\n      dup4\n      0x10\n      dup2\n      gt\n      iszero\n      tag_322\n      jumpi\n      tag_323\n      tag_173\n      jump\t// in\n    tag_323:\n    tag_322:\n      mul\n      or\n      swap1\n      sstore\n      pop\n        /* \"Contracts/Supplychain/Supplychain1.sol\":13124:13130  _price */\n      dup3\n        /* \"Contracts/Supplychain/Supplychain1.sol\":13089:13094  items */\n      0x08\n        /* \"Contracts/Supplychain/Supplychain1.sol\":13089:13108  items[_productCode] */\n      0x00\n        /* \"Contracts/Supplychain/Supplychain1.sol\":13095:13107  _productCode */\n      dup7\n        /* \"Contracts/Supplychain/Supplychain1.sol\":13089:13108  items[_productCode] */\n      dup2\n      mstore\n      0x20\n      add\n      swap1\n      dup2\n      mstore\n      0x20\n      add\n      0x00\n      keccak256\n        /* \"Contracts/Supplychain/Supplychain1.sol\":13089:13121  items[_productCode].productPrice */\n      0x07\n      add\n        /* \"Contracts/Supplychain/Supplychain1.sol\":13089:13130  items[_productCode].productPrice = _price */\n      dup2\n      swap1\n      sstore\n      pop\n        /* \"Contracts/Supplychain/Supplychain1.sol\":13145:13179  ForSaleByDistributor(_productCode) */\n      0x539b4a835a8a5d1bc5756a9f146e2bfeaa6bd6b1fa77a7631c0a5154c86cdd03\n        /* \"Contracts/Supplychain/Supplychain1.sol\":13166:13178  _productCode */\n      dup5\n        /* \"Contracts/Supplychain/Supplychain1.sol\":13145:13179  ForSaleByDistributor(_productCode) */\n      mload(0x40)\n      tag_324\n      swap2\n      swap1\n      tag_195\n      jump\t// in\n    tag_324:\n      mload(0x40)\n      dup1\n      swap2\n      sub\n      swap1\n      log1\n        /* \"Contracts/Supplychain/Supplychain1.sol\":5385:5386  _ */\n      pop\n        /* \"Contracts/Access/Distributor.sol\":590:591  _ */\n      pop\n        /* \"Contracts/Supplychain/Supplychain1.sol\":12819:13188  function sellItemByDistributor(uint256 _productCode, uint _price)... */\n      pop\n      pop\n      jump\t// out\n        /* \"Contracts/Access/Manufacturer.sol\":941:1040  function  renouceManufaturer() public{... */\n    tag_109:\n        /* \"Contracts/Access/Manufacturer.sol\":999:1032  _removeManufacturer(_msgSender()) */\n      tag_326\n        /* \"Contracts/Access/Manufacturer.sol\":1019:1031  _msgSender() */\n      tag_327\n        /* \"Contracts/Access/Manufacturer.sol\":1019:1029  _msgSender */\n      tag_157\n        /* \"Contracts/Access/Manufacturer.sol\":1019:1031  _msgSender() */\n      jump\t// in\n    tag_327:\n        /* \"Contracts/Access/Manufacturer.sol\":999:1018  _removeManufacturer */\n      tag_328\n        /* \"Contracts/Access/Manufacturer.sol\":999:1032  _removeManufacturer(_msgSender()) */\n      jump\t// in\n    tag_326:\n        /* \"Contracts/Access/Manufacturer.sol\":941:1040  function  renouceManufaturer() public{... */\n      jump\t// out\n        /* \"Contracts/Access/Retailer.sol\":787:885  function addRetailer (address account) public onlyRetailer{... */\n    tag_113:\n        /* \"Contracts/Access/Retailer.sol\":534:558  isRetailer(_msgSender()) */\n      tag_330\n        /* \"Contracts/Access/Retailer.sol\":545:557  _msgSender() */\n      tag_331\n        /* \"Contracts/Access/Retailer.sol\":545:555  _msgSender */\n      tag_157\n        /* \"Contracts/Access/Retailer.sol\":545:557  _msgSender() */\n      jump\t// in\n    tag_331:\n        /* \"Contracts/Access/Retailer.sol\":534:544  isRetailer */\n      tag_80\n        /* \"Contracts/Access/Retailer.sol\":534:558  isRetailer(_msgSender()) */\n      jump\t// in\n    tag_330:\n        /* \"Contracts/Access/Retailer.sol\":526:559  require(isRetailer(_msgSender())) */\n      tag_332\n      jumpi\n      0x00\n      dup1\n      revert\n    tag_332:\n        /* \"Contracts/Access/Retailer.sol\":856:877  _addRetailer(account) */\n      tag_334\n        /* \"Contracts/Access/Retailer.sol\":869:876  account */\n      dup2\n        /* \"Contracts/Access/Retailer.sol\":856:868  _addRetailer */\n      tag_335\n        /* \"Contracts/Access/Retailer.sol\":856:877  _addRetailer(account) */\n      jump\t// in\n    tag_334:\n        /* \"Contracts/Access/Retailer.sol\":787:885  function addRetailer (address account) public onlyRetailer{... */\n      pop\n      jump\t// out\n        /* \"Contracts/Access/Distributor.sol\":667:802  function isDistributor(address account )... */\n    tag_117:\n        /* \"Contracts/Access/Distributor.sol\":746:750  bool */\n      0x00\n        /* \"Contracts/Access/Distributor.sol\":769:794  distributors.has(account) */\n      tag_337\n        /* \"Contracts/Access/Distributor.sol\":786:793  account */\n      dup3\n        /* \"Contracts/Access/Distributor.sol\":769:781  distributors */\n      0x01\n        /* \"Contracts/Access/Distributor.sol\":769:785  distributors.has */\n      tag_198\n      swap1\n        /* \"Contracts/Access/Distributor.sol\":769:794  distributors.has(account) */\n      swap2\n      swap1\n      0xffffffff\n      and\n      jump\t// in\n    tag_337:\n        /* \"Contracts/Access/Distributor.sol\":762:794  return distributors.has(account) */\n      swap1\n      pop\n        /* \"Contracts/Access/Distributor.sol\":667:802  function isDistributor(address account )... */\n      swap2\n      swap1\n      pop\n      jump\t// out\n        /* \"Contracts/Supplychain/Supplychain1.sol\":8027:9536  function ProduceItemByManufacturer(... */\n    tag_123:\n        /* \"Contracts/Access/Manufacturer.sol\":558:586  isManufacturer(_msgSender()) */\n      tag_339\n        /* \"Contracts/Access/Manufacturer.sol\":573:585  _msgSender() */\n      tag_340\n        /* \"Contracts/Access/Manufacturer.sol\":573:583  _msgSender */\n      tag_157\n        /* \"Contracts/Access/Manufacturer.sol\":573:585  _msgSender() */\n      jump\t// in\n    tag_340:\n        /* \"Contracts/Access/Manufacturer.sol\":558:572  isManufacturer */\n      tag_53\n        /* \"Contracts/Access/Manufacturer.sol\":558:586  isManufacturer(_msgSender()) */\n      jump\t// in\n    tag_339:\n        /* \"Contracts/Access/Manufacturer.sol\":550:587  require(isManufacturer(_msgSender())) */\n      tag_341\n      jumpi\n      0x00\n      dup1\n      revert\n    tag_341:\n        /* \"Contracts/Supplychain/Supplychain1.sol\":8276:8297  address distributorID */\n      0x00\n        /* \"Contracts/Supplychain/Supplychain1.sol\":8310:8330  address wholesalerID */\n      dup1\n        /* \"Contracts/Supplychain/Supplychain1.sol\":8343:8361  address retailerID */\n      0x00\n        /* \"Contracts/Supplychain/Supplychain1.sol\":8374:8392  address consumerID */\n      dup1\n        /* \"Contracts/Supplychain/Supplychain1.sol\":8417:8439  Item memory newProduce */\n      tag_343\n      tag_344\n      jump\t// in\n    tag_343:\n        /* \"Contracts/Supplychain/Supplychain1.sol\":8480:8492  _msgSender() */\n      tag_345\n        /* \"Contracts/Supplychain/Supplychain1.sol\":8480:8490  _msgSender */\n      tag_157\n        /* \"Contracts/Supplychain/Supplychain1.sol\":8480:8492  _msgSender() */\n      jump\t// in\n    tag_345:\n        /* \"Contracts/Supplychain/Supplychain1.sol\":8452:8462  newProduce */\n      dup2\n        /* \"Contracts/Supplychain/Supplychain1.sol\":8452:8477  newProduce.manufacturerID */\n      0x60\n      add\n        /* \"Contracts/Supplychain/Supplychain1.sol\":8452:8492  newProduce.manufacturerID = _msgSender() */\n      swap1\n      0xffffffffffffffffffffffffffffffffffffffff\n      and\n      swap1\n      dup2\n      0xffffffffffffffffffffffffffffffffffffffff\n      and\n      dup2\n      mstore\n      pop\n      pop\n        /* \"Contracts/Supplychain/Supplychain1.sol\":8528:8537  stockUnit */\n      sload(0x07)\n        /* \"Contracts/Supplychain/Supplychain1.sol\":8505:8515  newProduce */\n      dup2\n        /* \"Contracts/Supplychain/Supplychain1.sol\":8505:8525  newProduce.stockUnit */\n      0x00\n      add\n        /* \"Contracts/Supplychain/Supplychain1.sol\":8505:8537  newProduce.stockUnit = stockUnit */\n      dup2\n      dup2\n      mstore\n      pop\n      pop\n        /* \"Contracts/Supplychain/Supplychain1.sol\":8575:8587  _productCode */\n      dup8\n        /* \"Contracts/Supplychain/Supplychain1.sol\":8550:8560  newProduce */\n      dup2\n        /* \"Contracts/Supplychain/Supplychain1.sol\":8550:8572  newProduce.productCode */\n      0x20\n      add\n        /* \"Contracts/Supplychain/Supplychain1.sol\":8550:8587  newProduce.productCode = _productCode */\n      dup2\n      dup2\n      mstore\n      pop\n      pop\n        /* \"Contracts/Supplychain/Supplychain1.sol\":8621:8633  _msgSender() */\n      tag_346\n        /* \"Contracts/Supplychain/Supplychain1.sol\":8621:8631  _msgSender */\n      tag_157\n        /* \"Contracts/Supplychain/Supplychain1.sol\":8621:8633  _msgSender() */\n      jump\t// in\n    tag_346:\n        /* \"Contracts/Supplychain/Supplychain1.sol\":8600:8610  newProduce */\n      dup2\n        /* \"Contracts/Supplychain/Supplychain1.sol\":8600:8618  newProduce.ownerID */\n      0x40\n      add\n        /* \"Contracts/Supplychain/Supplychain1.sol\":8600:8633  newProduce.ownerID = _msgSender() */\n      swap1\n      0xffffffffffffffffffffffffffffffffffffffff\n      and\n      swap1\n      dup2\n      0xffffffffffffffffffffffffffffffffffffffff\n      and\n      dup2\n      mstore\n      pop\n      pop\n        /* \"Contracts/Supplychain/Supplychain1.sol\":8671:8683  _productInfo */\n      dup7\n        /* \"Contracts/Supplychain/Supplychain1.sol\":8646:8656  newProduce */\n      dup2\n        /* \"Contracts/Supplychain/Supplychain1.sol\":8646:8668  newProduce.productInfo */\n      0xa0\n      add\n        /* \"Contracts/Supplychain/Supplychain1.sol\":8646:8683  newProduce.productInfo = _productInfo */\n      dup2\n      swap1\n      mstore\n      pop\n        /* \"Contracts/Supplychain/Supplychain1.sol\":8722:8728  _price */\n      dup6\n        /* \"Contracts/Supplychain/Supplychain1.sol\":8696:8706  newProduce */\n      dup2\n        /* \"Contracts/Supplychain/Supplychain1.sol\":8696:8719  newProduce.productPrice */\n      0xe0\n      add\n        /* \"Contracts/Supplychain/Supplychain1.sol\":8696:8728  newProduce.productPrice = _price */\n      dup2\n      dup2\n      mstore\n      pop\n      pop\n        /* \"Contracts/Supplychain/Supplychain1.sol\":8777:8786  stockUnit */\n      sload(0x07)\n        /* \"Contracts/Supplychain/Supplychain1.sol\":8764:8776  _productCode */\n      dup9\n        /* \"Contracts/Supplychain/Supplychain1.sol\":8764:8786  _productCode+stockUnit */\n      tag_347\n      swap2\n      swap1\n      tag_348\n      jump\t// in\n    tag_347:\n        /* \"Contracts/Supplychain/Supplychain1.sol\":8741:8751  newProduce */\n      dup2\n        /* \"Contracts/Supplychain/Supplychain1.sol\":8741:8761  newProduce.productID */\n      0x80\n      add\n        /* \"Contracts/Supplychain/Supplychain1.sol\":8741:8786  newProduce.productID = _productCode+stockUnit */\n      dup2\n      dup2\n      mstore\n      pop\n      pop\n        /* \"Contracts/Supplychain/Supplychain1.sol\":1240:1268  state.ProducedByManufacturer */\n      0x00\n        /* \"Contracts/Supplychain/Supplychain1.sol\":8799:8809  newProduce */\n      dup2\n        /* \"Contracts/Supplychain/Supplychain1.sol\":8799:8819  newProduce.itemState */\n      0xc0\n      add\n        /* \"Contracts/Supplychain/Supplychain1.sol\":8799:8834  newProduce.itemState = defaultState */\n      swap1\n      0x10\n      dup2\n      gt\n      iszero\n      tag_349\n      jumpi\n      tag_350\n      tag_173\n      jump\t// in\n    tag_350:\n    tag_349:\n      swap1\n      dup2\n      0x10\n      dup2\n      gt\n      iszero\n      tag_351\n      jumpi\n      tag_352\n      tag_173\n      jump\t// in\n    tag_352:\n    tag_351:\n      dup2\n      mstore\n      pop\n      pop\n        /* \"Contracts/Supplychain/Supplychain1.sol\":8877:8889  wholesalerID */\n      dup4\n        /* \"Contracts/Supplychain/Supplychain1.sol\":8851:8861  newProduce */\n      dup2\n        /* \"Contracts/Supplychain/Supplychain1.sol\":8851:8874  newProduce.wholesalerID */\n      0x0120\n      add\n        /* \"Contracts/Supplychain/Supplychain1.sol\":8851:8889  newProduce.wholesalerID = wholesalerID */\n      swap1\n      0xffffffffffffffffffffffffffffffffffffffff\n      and\n      swap1\n      dup2\n      0xffffffffffffffffffffffffffffffffffffffff\n      and\n      dup2\n      mstore\n      pop\n      pop\n        /* \"Contracts/Supplychain/Supplychain1.sol\":8929:8942  distributorID */\n      dup5\n        /* \"Contracts/Supplychain/Supplychain1.sol\":8902:8912  newProduce */\n      dup2\n        /* \"Contracts/Supplychain/Supplychain1.sol\":8902:8926  newProduce.distributorID */\n      0x0140\n      add\n        /* \"Contracts/Supplychain/Supplychain1.sol\":8902:8942  newProduce.distributorID = distributorID */\n      swap1\n      0xffffffffffffffffffffffffffffffffffffffff\n      and\n      swap1\n      dup2\n      0xffffffffffffffffffffffffffffffffffffffff\n      and\n      dup2\n      mstore\n      pop\n      pop\n        /* \"Contracts/Supplychain/Supplychain1.sol\":8979:8989  retailerID */\n      dup3\n        /* \"Contracts/Supplychain/Supplychain1.sol\":8955:8965  newProduce */\n      dup2\n        /* \"Contracts/Supplychain/Supplychain1.sol\":8955:8976  newProduce.retailerID */\n      0x0160\n      add\n        /* \"Contracts/Supplychain/Supplychain1.sol\":8955:8989  newProduce.retailerID = retailerID */\n      swap1\n      0xffffffffffffffffffffffffffffffffffffffff\n      and\n      swap1\n      dup2\n      0xffffffffffffffffffffffffffffffffffffffff\n      and\n      dup2\n      mstore\n      pop\n      pop\n        /* \"Contracts/Supplychain/Supplychain1.sol\":9026:9036  consumerID */\n      dup2\n        /* \"Contracts/Supplychain/Supplychain1.sol\":9002:9012  newProduce */\n      dup2\n        /* \"Contracts/Supplychain/Supplychain1.sol\":9002:9023  newProduce.consumerID */\n      0x0180\n      add\n        /* \"Contracts/Supplychain/Supplychain1.sol\":9002:9036  newProduce.consumerID = consumerID */\n      swap1\n      0xffffffffffffffffffffffffffffffffffffffff\n      and\n      swap1\n      dup2\n      0xffffffffffffffffffffffffffffffffffffffff\n      and\n      dup2\n      mstore\n      pop\n      pop\n        /* \"Contracts/Supplychain/Supplychain1.sol\":9076:9077  0 */\n      0x00\n        /* \"Contracts/Supplychain/Supplychain1.sol\":9049:9059  newProduce */\n      dup2\n        /* \"Contracts/Supplychain/Supplychain1.sol\":9049:9073  newProduce.productSliced */\n      0x0100\n      add\n        /* \"Contracts/Supplychain/Supplychain1.sol\":9049:9077  newProduce.productSliced = 0 */\n      dup2\n      dup2\n      mstore\n      pop\n      pop\n        /* \"Contracts/Supplychain/Supplychain1.sol\":9124:9134  newProduce */\n      dup1\n        /* \"Contracts/Supplychain/Supplychain1.sol\":9102:9107  items */\n      0x08\n        /* \"Contracts/Supplychain/Supplychain1.sol\":9102:9121  items[_productCode] */\n      0x00\n        /* \"Contracts/Supplychain/Supplychain1.sol\":9108:9120  _productCode */\n      dup11\n        /* \"Contracts/Supplychain/Supplychain1.sol\":9102:9121  items[_productCode] */\n      dup2\n      mstore\n      0x20\n      add\n      swap1\n      dup2\n      mstore\n      0x20\n      add\n      0x00\n      keccak256\n        /* \"Contracts/Supplychain/Supplychain1.sol\":9102:9134  items[_productCode] = newProduce */\n      0x00\n      dup3\n      add\n      mload\n      dup2\n      0x00\n      add\n      sstore\n      0x20\n      dup3\n      add\n      mload\n      dup2\n      0x01\n      add\n      sstore\n      0x40\n      dup3\n      add\n      mload\n      dup2\n      0x02\n      add\n      exp(0x0100, 0x00)\n      dup2\n      sload\n      dup2\n      0xffffffffffffffffffffffffffffffffffffffff\n      mul\n      not\n      and\n      swap1\n      dup4\n      0xffffffffffffffffffffffffffffffffffffffff\n      and\n      mul\n      or\n      swap1\n      sstore\n      pop\n      0x60\n      dup3\n      add\n      mload\n      dup2\n      0x03\n      add\n      exp(0x0100, 0x00)\n      dup2\n      sload\n      dup2\n      0xffffffffffffffffffffffffffffffffffffffff\n      mul\n      not\n      and\n      swap1\n      dup4\n      0xffffffffffffffffffffffffffffffffffffffff\n      and\n      mul\n      or\n      swap1\n      sstore\n      pop\n      0x80\n      dup3\n      add\n      mload\n      dup2\n      0x04\n      add\n      sstore\n      0xa0\n      dup3\n      add\n      mload\n      dup2\n      0x05\n      add\n      swap1\n      dup2\n      tag_353\n      swap2\n      swap1\n      tag_354\n      jump\t// in\n    tag_353:\n      pop\n      0xc0\n      dup3\n      add\n      mload\n      dup2\n      0x06\n      add\n      exp(0x0100, 0x00)\n      dup2\n      sload\n      dup2\n      0xff\n      mul\n      not\n      and\n      swap1\n      dup4\n      0x10\n      dup2\n      gt\n      iszero\n      tag_355\n      jumpi\n      tag_356\n      tag_173\n      jump\t// in\n    tag_356:\n    tag_355:\n      mul\n      or\n      swap1\n      sstore\n      pop\n      0xe0\n      dup3\n      add\n      mload\n      dup2\n      0x07\n      add\n      sstore\n      0x0100\n      dup3\n      add\n      mload\n      dup2\n      0x08\n      add\n      sstore\n      0x0120\n      dup3\n      add\n      mload\n      dup2\n      0x09\n      add\n      exp(0x0100, 0x00)\n      dup2\n      sload\n      dup2\n      0xffffffffffffffffffffffffffffffffffffffff\n      mul\n      not\n      and\n      swap1\n      dup4\n      0xffffffffffffffffffffffffffffffffffffffff\n      and\n      mul\n      or\n      swap1\n      sstore\n      pop\n      0x0140\n      dup3\n      add\n      mload\n      dup2\n      0x0a\n      add\n      exp(0x0100, 0x00)\n      dup2\n      sload\n      dup2\n      0xffffffffffffffffffffffffffffffffffffffff\n      mul\n      not\n      and\n      swap1\n      dup4\n      0xffffffffffffffffffffffffffffffffffffffff\n      and\n      mul\n      or\n      swap1\n      sstore\n      pop\n      0x0160\n      dup3\n      add\n      mload\n      dup2\n      0x0b\n      add\n      exp(0x0100, 0x00)\n      dup2\n      sload\n      dup2\n      0xffffffffffffffffffffffffffffffffffffffff\n      mul\n      not\n      and\n      swap1\n      dup4\n      0xffffffffffffffffffffffffffffffffffffffff\n      and\n      mul\n      or\n      swap1\n      sstore\n      pop\n      0x0180\n      dup3\n      add\n      mload\n      dup2\n      0x0c\n      add\n      exp(0x0100, 0x00)\n      dup2\n      sload\n      dup2\n      0xffffffffffffffffffffffffffffffffffffffff\n      mul\n      not\n      and\n      swap1\n      dup4\n      0xffffffffffffffffffffffffffffffffffffffff\n      and\n      mul\n      or\n      swap1\n      sstore\n      pop\n      0x01a0\n      dup3\n      add\n      mload\n      dup2\n      0x0d\n      add\n      sstore\n      0x01c0\n      dup3\n      add\n      mload\n      dup2\n      0x0e\n      add\n      sstore\n      swap1\n      pop\n      pop\n        /* \"Contracts/Supplychain/Supplychain1.sol\":9148:9168  uint256  placeholder */\n      0x00\n        /* \"Contracts/Supplychain/Supplychain1.sol\":9181:9204  txBlocks memory txBlock */\n      tag_357\n      tag_358\n      jump\t// in\n    tag_357:\n        /* \"Contracts/Supplychain/Supplychain1.sol\":9243:9254  placeholder */\n      dup2\n        /* \"Contracts/Supplychain/Supplychain1.sol\":9229:9236  txBlock */\n      dup2\n        /* \"Contracts/Supplychain/Supplychain1.sol\":9229:9240  txBlock.MTD */\n      0x00\n      add\n        /* \"Contracts/Supplychain/Supplychain1.sol\":9229:9254  txBlock.MTD = placeholder */\n      dup2\n      dup2\n      mstore\n      pop\n      pop\n        /* \"Contracts/Supplychain/Supplychain1.sol\":9310:9321  placeholder */\n      dup2\n        /* \"Contracts/Supplychain/Supplychain1.sol\":9296:9303  txBlock */\n      dup2\n        /* \"Contracts/Supplychain/Supplychain1.sol\":9296:9307  txBlock.DTW */\n      0x20\n      add\n        /* \"Contracts/Supplychain/Supplychain1.sol\":9296:9321  txBlock.DTW = placeholder */\n      dup2\n      dup2\n      mstore\n      pop\n      pop\n        /* \"Contracts/Supplychain/Supplychain1.sol\":9348:9359  placeholder */\n      dup2\n        /* \"Contracts/Supplychain/Supplychain1.sol\":9334:9341  txBlock */\n      dup2\n        /* \"Contracts/Supplychain/Supplychain1.sol\":9334:9345  txBlock.WTR */\n      0x40\n      add\n        /* \"Contracts/Supplychain/Supplychain1.sol\":9334:9359  txBlock.WTR = placeholder */\n      dup2\n      dup2\n      mstore\n      pop\n      pop\n        /* \"Contracts/Supplychain/Supplychain1.sol\":9386:9397  placeholder */\n      dup2\n        /* \"Contracts/Supplychain/Supplychain1.sol\":9372:9379  txBlock */\n      dup2\n        /* \"Contracts/Supplychain/Supplychain1.sol\":9372:9383  txBlock.RTC */\n      0x60\n      add\n        /* \"Contracts/Supplychain/Supplychain1.sol\":9372:9397  txBlock.RTC = placeholder */\n      dup2\n      dup2\n      mstore\n      pop\n      pop\n        /* \"Contracts/Supplychain/Supplychain1.sol\":9438:9445  txBlock */\n      dup1\n        /* \"Contracts/Supplychain/Supplychain1.sol\":9410:9422  itemsHistory */\n      0x09\n        /* \"Contracts/Supplychain/Supplychain1.sol\":9410:9435  itemsHistory[productCode] */\n      0x00\n        /* \"Contracts/Supplychain/Supplychain1.sol\":9423:9434  productCode */\n      sload(0x06)\n        /* \"Contracts/Supplychain/Supplychain1.sol\":9410:9435  itemsHistory[productCode] */\n      dup2\n      mstore\n      0x20\n      add\n      swap1\n      dup2\n      mstore\n      0x20\n      add\n      0x00\n      keccak256\n        /* \"Contracts/Supplychain/Supplychain1.sol\":9410:9445  itemsHistory[productCode] = txBlock */\n      0x00\n      dup3\n      add\n      mload\n      dup2\n      0x00\n      add\n      sstore\n      0x20\n      dup3\n      add\n      mload\n      dup2\n      0x01\n      add\n      sstore\n      0x40\n      dup3\n      add\n      mload\n      dup2\n      0x02\n      add\n      sstore\n      0x60\n      dup3\n      add\n      mload\n      dup2\n      0x03\n      add\n      sstore\n      swap1\n      pop\n      pop\n        /* \"Contracts/Supplychain/Supplychain1.sol\":9460:9469  stockUnit */\n      0x07\n      0x00\n        /* \"Contracts/Supplychain/Supplychain1.sol\":9460:9471  stockUnit++ */\n      dup2\n      sload\n      dup1\n      swap3\n      swap2\n      swap1\n      tag_359\n      swap1\n      tag_360\n      jump\t// in\n    tag_359:\n      swap2\n      swap1\n      pop\n      sstore\n      pop\n        /* \"Contracts/Supplychain/Supplychain1.sol\":9489:9524  ProducedByManufacturer(productCode) */\n      0xb7cacbe76ffd2319b73ee6a0f921b205bdb46926c6342d478b159eedd699d4b6\n        /* \"Contracts/Supplychain/Supplychain1.sol\":9512:9523  productCode */\n      sload(0x06)\n        /* \"Contracts/Supplychain/Supplychain1.sol\":9489:9524  ProducedByManufacturer(productCode) */\n      mload(0x40)\n      tag_361\n      swap2\n      swap1\n      tag_195\n      jump\t// in\n    tag_361:\n      mload(0x40)\n      dup1\n      swap2\n      sub\n      swap1\n      log1\n        /* \"Contracts/Supplychain/Supplychain1.sol\":8226:9536  {... */\n      pop\n      pop\n      pop\n      pop\n      pop\n      pop\n      pop\n        /* \"Contracts/Supplychain/Supplychain1.sol\":8027:9536  function ProduceItemByManufacturer(... */\n      pop\n      pop\n      pop\n      jump\t// out\n        /* \"Contracts/Supplychain/Supplychain1.sol\":11324:11789  function shippedItemByManufacturer(uint256 _productCode)... */\n    tag_126:\n        /* \"Contracts/Access/Manufacturer.sol\":558:586  isManufacturer(_msgSender()) */\n      tag_363\n        /* \"Contracts/Access/Manufacturer.sol\":573:585  _msgSender() */\n      tag_364\n        /* \"Contracts/Access/Manufacturer.sol\":573:583  _msgSender */\n      tag_157\n        /* \"Contracts/Access/Manufacturer.sol\":573:585  _msgSender() */\n      jump\t// in\n    tag_364:\n        /* \"Contracts/Access/Manufacturer.sol\":558:572  isManufacturer */\n      tag_53\n        /* \"Contracts/Access/Manufacturer.sol\":558:586  isManufacturer(_msgSender()) */\n      jump\t// in\n    tag_363:\n        /* \"Contracts/Access/Manufacturer.sol\":550:587  require(isManufacturer(_msgSender())) */\n      tag_365\n      jumpi\n      0x00\n      dup1\n      revert\n    tag_365:\n        /* \"Contracts/Supplychain/Supplychain1.sol\":11516:11528  _productCode */\n      dup1\n        /* \"Contracts/Supplychain/Supplychain1.sol\":4805:4833  state.PurchasedByDistributor */\n      0x02\n        /* \"Contracts/Supplychain/Supplychain1.sol\":4772:4833  items[_ProductCode].itemState == state.PurchasedByDistributor */\n      0x10\n      dup2\n      gt\n      iszero\n      tag_367\n      jumpi\n      tag_368\n      tag_173\n      jump\t// in\n    tag_368:\n    tag_367:\n        /* \"Contracts/Supplychain/Supplychain1.sol\":4772:4777  items */\n      0x08\n        /* \"Contracts/Supplychain/Supplychain1.sol\":4772:4791  items[_ProductCode] */\n      0x00\n        /* \"Contracts/Supplychain/Supplychain1.sol\":4778:4790  _ProductCode */\n      dup4\n        /* \"Contracts/Supplychain/Supplychain1.sol\":4772:4791  items[_ProductCode] */\n      dup2\n      mstore\n      0x20\n      add\n      swap1\n      dup2\n      mstore\n      0x20\n      add\n      0x00\n      keccak256\n        /* \"Contracts/Supplychain/Supplychain1.sol\":4772:4801  items[_ProductCode].itemState */\n      0x06\n      add\n      0x00\n      swap1\n      sload\n      swap1\n      0x0100\n      exp\n      swap1\n      div\n      0xff\n      and\n        /* \"Contracts/Supplychain/Supplychain1.sol\":4772:4833  items[_ProductCode].itemState == state.PurchasedByDistributor */\n      0x10\n      dup2\n      gt\n      iszero\n      tag_369\n      jumpi\n      tag_370\n      tag_173\n      jump\t// in\n    tag_370:\n    tag_369:\n      eq\n        /* \"Contracts/Supplychain/Supplychain1.sol\":4764:4834  require(items[_ProductCode].itemState == state.PurchasedByDistributor) */\n      tag_371\n      jumpi\n      0x00\n      dup1\n      revert\n    tag_371:\n        /* \"Contracts/Supplychain/Supplychain1.sol\":11552:11557  items */\n      0x08\n        /* \"Contracts/Supplychain/Supplychain1.sol\":11552:11571  items[_productCode] */\n      0x00\n        /* \"Contracts/Supplychain/Supplychain1.sol\":11558:11570  _productCode */\n      dup4\n        /* \"Contracts/Supplychain/Supplychain1.sol\":11552:11571  items[_productCode] */\n      dup2\n      mstore\n      0x20\n      add\n      swap1\n      dup2\n      mstore\n      0x20\n      add\n      0x00\n      keccak256\n        /* \"Contracts/Supplychain/Supplychain1.sol\":11552:11586  items[_productCode].manufacturerID */\n      0x03\n      add\n      0x00\n      swap1\n      sload\n      swap1\n      0x0100\n      exp\n      swap1\n      div\n      0xffffffffffffffffffffffffffffffffffffffff\n      and\n        /* \"Contracts/Supplychain/Supplychain1.sol\":3744:3752  _address */\n      dup1\n        /* \"Contracts/Supplychain/Supplychain1.sol\":3728:3752  _msgSender() == _address */\n      0xffffffffffffffffffffffffffffffffffffffff\n      and\n        /* \"Contracts/Supplychain/Supplychain1.sol\":3728:3740  _msgSender() */\n      tag_373\n        /* \"Contracts/Supplychain/Supplychain1.sol\":3728:3738  _msgSender */\n      tag_157\n        /* \"Contracts/Supplychain/Supplychain1.sol\":3728:3740  _msgSender() */\n      jump\t// in\n    tag_373:\n        /* \"Contracts/Supplychain/Supplychain1.sol\":3728:3752  _msgSender() == _address */\n      0xffffffffffffffffffffffffffffffffffffffff\n      and\n      eq\n        /* \"Contracts/Supplychain/Supplychain1.sol\":3720:3753  require(_msgSender() == _address) */\n      tag_374\n      jumpi\n      0x00\n      dup1\n      revert\n    tag_374:\n        /* \"Contracts/Supplychain/Supplychain1.sol\":11682:11709  state.ShippedByManufacturer */\n      0x03\n        /* \"Contracts/Supplychain/Supplychain1.sol\":11650:11655  items */\n      0x08\n        /* \"Contracts/Supplychain/Supplychain1.sol\":11650:11669  items[_productCode] */\n      0x00\n        /* \"Contracts/Supplychain/Supplychain1.sol\":11656:11668  _productCode */\n      dup6\n        /* \"Contracts/Supplychain/Supplychain1.sol\":11650:11669  items[_productCode] */\n      dup2\n      mstore\n      0x20\n      add\n      swap1\n      dup2\n      mstore\n      0x20\n      add\n      0x00\n      keccak256\n        /* \"Contracts/Supplychain/Supplychain1.sol\":11650:11679  items[_productCode].itemState */\n      0x06\n      add\n      0x00\n        /* \"Contracts/Supplychain/Supplychain1.sol\":11650:11709  items[_productCode].itemState = state.ShippedByManufacturer */\n      0x0100\n      exp\n      dup2\n      sload\n      dup2\n      0xff\n      mul\n      not\n      and\n      swap1\n      dup4\n      0x10\n      dup2\n      gt\n      iszero\n      tag_376\n      jumpi\n      tag_377\n      tag_173\n      jump\t// in\n    tag_377:\n    tag_376:\n      mul\n      or\n      swap1\n      sstore\n      pop\n        /* \"Contracts/Supplychain/Supplychain1.sol\":11741:11775  ShippedByManufacturer(productCode) */\n      0x25727bef8a186dd95a062151451f2d651551b53124c18208d7653b1217ae31ba\n        /* \"Contracts/Supplychain/Supplychain1.sol\":11763:11774  productCode */\n      sload(0x06)\n        /* \"Contracts/Supplychain/Supplychain1.sol\":11741:11775  ShippedByManufacturer(productCode) */\n      mload(0x40)\n      tag_378\n      swap2\n      swap1\n      tag_195\n      jump\t// in\n    tag_378:\n      mload(0x40)\n      dup1\n      swap2\n      sub\n      swap1\n      log1\n        /* \"Contracts/Supplychain/Supplychain1.sol\":4848:4849  _ */\n      pop\n        /* \"Contracts/Access/Manufacturer.sol\":597:598  _ */\n      pop\n        /* \"Contracts/Supplychain/Supplychain1.sol\":11324:11789  function shippedItemByManufacturer(uint256 _productCode)... */\n      pop\n      jump\t// out\n        /* \"Contracts/Supplychain/Supplychain1.sol\":15845:16210  function sellItemByWholesaler(uint256 _productCode, uint _price)... */\n    tag_130:\n        /* \"Contracts/Access/Wholesaler.sol\":546:572  isWholesaler(_msgSender()) */\n      tag_380\n        /* \"Contracts/Access/Wholesaler.sol\":559:571  _msgSender() */\n      tag_381\n        /* \"Contracts/Access/Wholesaler.sol\":559:569  _msgSender */\n      tag_157\n        /* \"Contracts/Access/Wholesaler.sol\":559:571  _msgSender() */\n      jump\t// in\n    tag_381:\n        /* \"Contracts/Access/Wholesaler.sol\":546:558  isWholesaler */\n      tag_89\n        /* \"Contracts/Access/Wholesaler.sol\":546:572  isWholesaler(_msgSender()) */\n      jump\t// in\n    tag_380:\n        /* \"Contracts/Access/Wholesaler.sol\":538:573  require(isWholesaler(_msgSender())) */\n      tag_382\n      jumpi\n      0x00\n      dup1\n      revert\n    tag_382:\n        /* \"Contracts/Supplychain/Supplychain1.sol\":15974:15986  _productCode */\n      dup2\n        /* \"Contracts/Supplychain/Supplychain1.sol\":6228:6255  state.ProcessedByWholesaler */\n      0x0a\n        /* \"Contracts/Supplychain/Supplychain1.sol\":6194:6255  items[ _ProductCode].itemState == state.ProcessedByWholesaler */\n      0x10\n      dup2\n      gt\n      iszero\n      tag_384\n      jumpi\n      tag_385\n      tag_173\n      jump\t// in\n    tag_385:\n    tag_384:\n        /* \"Contracts/Supplychain/Supplychain1.sol\":6194:6199  items */\n      0x08\n        /* \"Contracts/Supplychain/Supplychain1.sol\":6194:6214  items[ _ProductCode] */\n      0x00\n        /* \"Contracts/Supplychain/Supplychain1.sol\":6201:6213  _ProductCode */\n      dup4\n        /* \"Contracts/Supplychain/Supplychain1.sol\":6194:6214  items[ _ProductCode] */\n      dup2\n      mstore\n      0x20\n      add\n      swap1\n      dup2\n      mstore\n      0x20\n      add\n      0x00\n      keccak256\n        /* \"Contracts/Supplychain/Supplychain1.sol\":6194:6224  items[ _ProductCode].itemState */\n      0x06\n      add\n      0x00\n      swap1\n      sload\n      swap1\n      0x0100\n      exp\n      swap1\n      div\n      0xff\n      and\n        /* \"Contracts/Supplychain/Supplychain1.sol\":6194:6255  items[ _ProductCode].itemState == state.ProcessedByWholesaler */\n      0x10\n      dup2\n      gt\n      iszero\n      tag_386\n      jumpi\n      tag_387\n      tag_173\n      jump\t// in\n    tag_387:\n    tag_386:\n      eq\n        /* \"Contracts/Supplychain/Supplychain1.sol\":6185:6256  require (items[ _ProductCode].itemState == state.ProcessedByWholesaler) */\n      tag_388\n      jumpi\n      0x00\n      dup1\n      revert\n    tag_388:\n        /* \"Contracts/Supplychain/Supplychain1.sol\":16007:16012  items */\n      0x08\n        /* \"Contracts/Supplychain/Supplychain1.sol\":16007:16026  items[_productCode] */\n      0x00\n        /* \"Contracts/Supplychain/Supplychain1.sol\":16013:16025  _productCode */\n      dup5\n        /* \"Contracts/Supplychain/Supplychain1.sol\":16007:16026  items[_productCode] */\n      dup2\n      mstore\n      0x20\n      add\n      swap1\n      dup2\n      mstore\n      0x20\n      add\n      0x00\n      keccak256\n        /* \"Contracts/Supplychain/Supplychain1.sol\":16007:16034  items[_productCode].ownerID */\n      0x02\n      add\n      0x00\n      swap1\n      sload\n      swap1\n      0x0100\n      exp\n      swap1\n      div\n      0xffffffffffffffffffffffffffffffffffffffff\n      and\n        /* \"Contracts/Supplychain/Supplychain1.sol\":3744:3752  _address */\n      dup1\n        /* \"Contracts/Supplychain/Supplychain1.sol\":3728:3752  _msgSender() == _address */\n      0xffffffffffffffffffffffffffffffffffffffff\n      and\n        /* \"Contracts/Supplychain/Supplychain1.sol\":3728:3740  _msgSender() */\n      tag_390\n        /* \"Contracts/Supplychain/Supplychain1.sol\":3728:3738  _msgSender */\n      tag_157\n        /* \"Contracts/Supplychain/Supplychain1.sol\":3728:3740  _msgSender() */\n      jump\t// in\n    tag_390:\n        /* \"Contracts/Supplychain/Supplychain1.sol\":3728:3752  _msgSender() == _address */\n      0xffffffffffffffffffffffffffffffffffffffff\n      and\n      eq\n        /* \"Contracts/Supplychain/Supplychain1.sol\":3720:3753  require(_msgSender() == _address) */\n      tag_391\n      jumpi\n      0x00\n      dup1\n      revert\n    tag_391:\n        /* \"Contracts/Supplychain/Supplychain1.sol\":16077:16102  state.ForSaleByWholesaler */\n      0x0b\n        /* \"Contracts/Supplychain/Supplychain1.sol\":16045:16050  items */\n      0x08\n        /* \"Contracts/Supplychain/Supplychain1.sol\":16045:16064  items[_productCode] */\n      0x00\n        /* \"Contracts/Supplychain/Supplychain1.sol\":16051:16063  _productCode */\n      dup7\n        /* \"Contracts/Supplychain/Supplychain1.sol\":16045:16064  items[_productCode] */\n      dup2\n      mstore\n      0x20\n      add\n      swap1\n      dup2\n      mstore\n      0x20\n      add\n      0x00\n      keccak256\n        /* \"Contracts/Supplychain/Supplychain1.sol\":16045:16074  items[_productCode].itemState */\n      0x06\n      add\n      0x00\n        /* \"Contracts/Supplychain/Supplychain1.sol\":16045:16102  items[_productCode].itemState = state.ForSaleByWholesaler */\n      0x0100\n      exp\n      dup2\n      sload\n      dup2\n      0xff\n      mul\n      not\n      and\n      swap1\n      dup4\n      0x10\n      dup2\n      gt\n      iszero\n      tag_393\n      jumpi\n      tag_394\n      tag_173\n      jump\t// in\n    tag_394:\n    tag_393:\n      mul\n      or\n      swap1\n      sstore\n      pop\n        /* \"Contracts/Supplychain/Supplychain1.sol\":16147:16153  _price */\n      dup3\n        /* \"Contracts/Supplychain/Supplychain1.sol\":16112:16117  items */\n      0x08\n        /* \"Contracts/Supplychain/Supplychain1.sol\":16112:16131  items[_productCode] */\n      0x00\n        /* \"Contracts/Supplychain/Supplychain1.sol\":16118:16130  _productCode */\n      dup7\n        /* \"Contracts/Supplychain/Supplychain1.sol\":16112:16131  items[_productCode] */\n      dup2\n      mstore\n      0x20\n      add\n      swap1\n      dup2\n      mstore\n      0x20\n      add\n      0x00\n      keccak256\n        /* \"Contracts/Supplychain/Supplychain1.sol\":16112:16144  items[_productCode].productPrice */\n      0x07\n      add\n        /* \"Contracts/Supplychain/Supplychain1.sol\":16112:16153  items[_productCode].productPrice = _price */\n      dup2\n      swap1\n      sstore\n      pop\n        /* \"Contracts/Supplychain/Supplychain1.sol\":16168:16201  ForSaleByWholesaler(_productCode) */\n      0x86c3594f216ced937eb7fdc5b2c3e64fb4ae2badf95562d2db7d99f58c6e56d6\n        /* \"Contracts/Supplychain/Supplychain1.sol\":16188:16200  _productCode */\n      dup5\n        /* \"Contracts/Supplychain/Supplychain1.sol\":16168:16201  ForSaleByWholesaler(_productCode) */\n      mload(0x40)\n      tag_395\n      swap2\n      swap1\n      tag_195\n      jump\t// in\n    tag_395:\n      mload(0x40)\n      dup1\n      swap2\n      sub\n      swap1\n      log1\n        /* \"Contracts/Supplychain/Supplychain1.sol\":6269:6270  _ */\n      pop\n        /* \"Contracts/Access/Wholesaler.sol\":583:584  _ */\n      pop\n        /* \"Contracts/Supplychain/Supplychain1.sol\":15845:16210  function sellItemByWholesaler(uint256 _productCode, uint _price)... */\n      pop\n      pop\n      jump\t// out\n        /* \"Contracts/Supplychain/Supplychain1.sol\":14901:15322  function receivedItemByWholesalerr(uint256 _productCode)... */\n    tag_134:\n        /* \"Contracts/Access/Distributor.sol\":552:579  isDistributor(_msgSender()) */\n      tag_397\n        /* \"Contracts/Access/Distributor.sol\":566:578  _msgSender() */\n      tag_398\n        /* \"Contracts/Access/Distributor.sol\":566:576  _msgSender */\n      tag_157\n        /* \"Contracts/Access/Distributor.sol\":566:578  _msgSender() */\n      jump\t// in\n    tag_398:\n        /* \"Contracts/Access/Distributor.sol\":552:565  isDistributor */\n      tag_117\n        /* \"Contracts/Access/Distributor.sol\":552:579  isDistributor(_msgSender()) */\n      jump\t// in\n    tag_397:\n        /* \"Contracts/Access/Distributor.sol\":544:580  require(isDistributor(_msgSender())) */\n      tag_399\n      jumpi\n      0x00\n      dup1\n      revert\n    tag_399:\n        /* \"Contracts/Supplychain/Supplychain1.sol\":15079:15091  _productCode */\n      dup1\n        /* \"Contracts/Supplychain/Supplychain1.sol\":5873:5899  state.ShippedByDistributor */\n      0x08\n        /* \"Contracts/Supplychain/Supplychain1.sol\":5840:5899  items[_ProductCode].itemState == state.ShippedByDistributor */\n      0x10\n      dup2\n      gt\n      iszero\n      tag_401\n      jumpi\n      tag_402\n      tag_173\n      jump\t// in\n    tag_402:\n    tag_401:\n        /* \"Contracts/Supplychain/Supplychain1.sol\":5840:5845  items */\n      0x08\n        /* \"Contracts/Supplychain/Supplychain1.sol\":5840:5859  items[_ProductCode] */\n      0x00\n        /* \"Contracts/Supplychain/Supplychain1.sol\":5846:5858  _ProductCode */\n      dup4\n        /* \"Contracts/Supplychain/Supplychain1.sol\":5840:5859  items[_ProductCode] */\n      dup2\n      mstore\n      0x20\n      add\n      swap1\n      dup2\n      mstore\n      0x20\n      add\n      0x00\n      keccak256\n        /* \"Contracts/Supplychain/Supplychain1.sol\":5840:5869  items[_ProductCode].itemState */\n      0x06\n      add\n      0x00\n      swap1\n      sload\n      swap1\n      0x0100\n      exp\n      swap1\n      div\n      0xff\n      and\n        /* \"Contracts/Supplychain/Supplychain1.sol\":5840:5899  items[_ProductCode].itemState == state.ShippedByDistributor */\n      0x10\n      dup2\n      gt\n      iszero\n      tag_403\n      jumpi\n      tag_404\n      tag_173\n      jump\t// in\n    tag_404:\n    tag_403:\n      eq\n        /* \"Contracts/Supplychain/Supplychain1.sol\":5832:5900  require(items[_ProductCode].itemState == state.ShippedByDistributor) */\n      tag_405\n      jumpi\n      0x00\n      dup1\n      revert\n    tag_405:\n        /* \"Contracts/Supplychain/Supplychain1.sol\":15115:15120  items */\n      0x08\n        /* \"Contracts/Supplychain/Supplychain1.sol\":15115:15134  items[_productCode] */\n      0x00\n        /* \"Contracts/Supplychain/Supplychain1.sol\":15121:15133  _productCode */\n      dup4\n        /* \"Contracts/Supplychain/Supplychain1.sol\":15115:15134  items[_productCode] */\n      dup2\n      mstore\n      0x20\n      add\n      swap1\n      dup2\n      mstore\n      0x20\n      add\n      0x00\n      keccak256\n        /* \"Contracts/Supplychain/Supplychain1.sol\":15115:15142  items[_productCode].ownerID */\n      0x02\n      add\n      0x00\n      swap1\n      sload\n      swap1\n      0x0100\n      exp\n      swap1\n      div\n      0xffffffffffffffffffffffffffffffffffffffff\n      and\n        /* \"Contracts/Supplychain/Supplychain1.sol\":3744:3752  _address */\n      dup1\n        /* \"Contracts/Supplychain/Supplychain1.sol\":3728:3752  _msgSender() == _address */\n      0xffffffffffffffffffffffffffffffffffffffff\n      and\n        /* \"Contracts/Supplychain/Supplychain1.sol\":3728:3740  _msgSender() */\n      tag_407\n        /* \"Contracts/Supplychain/Supplychain1.sol\":3728:3738  _msgSender */\n      tag_157\n        /* \"Contracts/Supplychain/Supplychain1.sol\":3728:3740  _msgSender() */\n      jump\t// in\n    tag_407:\n        /* \"Contracts/Supplychain/Supplychain1.sol\":3728:3752  _msgSender() == _address */\n      0xffffffffffffffffffffffffffffffffffffffff\n      and\n      eq\n        /* \"Contracts/Supplychain/Supplychain1.sol\":3720:3753  require(_msgSender() == _address) */\n      tag_408\n      jumpi\n      0x00\n      dup1\n      revert\n    tag_408:\n        /* \"Contracts/Supplychain/Supplychain1.sol\":15222:15248  state.ReceivedByWholesaler */\n      0x09\n        /* \"Contracts/Supplychain/Supplychain1.sol\":15191:15196  items */\n      0x08\n        /* \"Contracts/Supplychain/Supplychain1.sol\":15191:15210  items[_productCode] */\n      0x00\n        /* \"Contracts/Supplychain/Supplychain1.sol\":15197:15209  _productCode */\n      dup6\n        /* \"Contracts/Supplychain/Supplychain1.sol\":15191:15210  items[_productCode] */\n      dup2\n      mstore\n      0x20\n      add\n      swap1\n      dup2\n      mstore\n      0x20\n      add\n      0x00\n      keccak256\n        /* \"Contracts/Supplychain/Supplychain1.sol\":15191:15220  items[_productCode].itemState */\n      0x06\n      add\n      0x00\n        /* \"Contracts/Supplychain/Supplychain1.sol\":15191:15248  items[_productCode].itemState =state.ReceivedByWholesaler */\n      0x0100\n      exp\n      dup2\n      sload\n      dup2\n      0xff\n      mul\n      not\n      and\n      swap1\n      dup4\n      0x10\n      dup2\n      gt\n      iszero\n      tag_410\n      jumpi\n      tag_411\n      tag_173\n      jump\t// in\n    tag_411:\n    tag_410:\n      mul\n      or\n      swap1\n      sstore\n      pop\n        /* \"Contracts/Supplychain/Supplychain1.sol\":15280:15314  ReceivedByWholesaler(_productCode) */\n      0xee82be1f7a6bfb16a15acf8ecbb38327cf93ef35166206492b476fb143be5a2d\n        /* \"Contracts/Supplychain/Supplychain1.sol\":15301:15313  _productCode */\n      dup4\n        /* \"Contracts/Supplychain/Supplychain1.sol\":15280:15314  ReceivedByWholesaler(_productCode) */\n      mload(0x40)\n      tag_412\n      swap2\n      swap1\n      tag_195\n      jump\t// in\n    tag_412:\n      mload(0x40)\n      dup1\n      swap2\n      sub\n      swap1\n      log1\n        /* \"Contracts/Supplychain/Supplychain1.sol\":5914:5915  _ */\n      pop\n        /* \"Contracts/Access/Distributor.sol\":590:591  _ */\n      pop\n        /* \"Contracts/Supplychain/Supplychain1.sol\":14901:15322  function receivedItemByWholesalerr(uint256 _productCode)... */\n      pop\n      jump\t// out\n        /* \"Contracts/Access/Wholesaler.sol\":805:909  function addWholesaler (address account) public onlyWholesaler{... */\n    tag_138:\n        /* \"Contracts/Access/Wholesaler.sol\":546:572  isWholesaler(_msgSender()) */\n      tag_414\n        /* \"Contracts/Access/Wholesaler.sol\":559:571  _msgSender() */\n      tag_415\n        /* \"Contracts/Access/Wholesaler.sol\":559:569  _msgSender */\n      tag_157\n        /* \"Contracts/Access/Wholesaler.sol\":559:571  _msgSender() */\n      jump\t// in\n    tag_415:\n        /* \"Contracts/Access/Wholesaler.sol\":546:558  isWholesaler */\n      tag_89\n        /* \"Contracts/Access/Wholesaler.sol\":546:572  isWholesaler(_msgSender()) */\n      jump\t// in\n    tag_414:\n        /* \"Contracts/Access/Wholesaler.sol\":538:573  require(isWholesaler(_msgSender())) */\n      tag_416\n      jumpi\n      0x00\n      dup1\n      revert\n    tag_416:\n        /* \"Contracts/Access/Wholesaler.sol\":878:901  _addWholesaler(account) */\n      tag_418\n        /* \"Contracts/Access/Wholesaler.sol\":893:900  account */\n      dup2\n        /* \"Contracts/Access/Wholesaler.sol\":878:892  _addWholesaler */\n      tag_419\n        /* \"Contracts/Access/Wholesaler.sol\":878:901  _addWholesaler(account) */\n      jump\t// in\n    tag_418:\n        /* \"Contracts/Access/Wholesaler.sol\":805:909  function addWholesaler (address account) public onlyWholesaler{... */\n      pop\n      jump\t// out\n        /* \"Contracts/Access/Retailer.sol\":893:985  function  renouceRetailer() public{... */\n    tag_141:\n        /* \"Contracts/Access/Retailer.sol\":948:977  _removeRetailer(_msgSender()) */\n      tag_421\n        /* \"Contracts/Access/Retailer.sol\":964:976  _msgSender() */\n      tag_422\n        /* \"Contracts/Access/Retailer.sol\":964:974  _msgSender */\n      tag_157\n        /* \"Contracts/Access/Retailer.sol\":964:976  _msgSender() */\n      jump\t// in\n    tag_422:\n        /* \"Contracts/Access/Retailer.sol\":948:963  _removeRetailer */\n      tag_423\n        /* \"Contracts/Access/Retailer.sol\":948:977  _removeRetailer(_msgSender()) */\n      jump\t// in\n    tag_421:\n        /* \"Contracts/Access/Retailer.sol\":893:985  function  renouceRetailer() public{... */\n      jump\t// out\n        /* \"Contracts/Supplychain/Supplychain1.sol\":9596:10058  function sellItemByFarmer(uint256 _productCode, uint256 _price)... */\n    tag_145:\n        /* \"Contracts/Access/Manufacturer.sol\":558:586  isManufacturer(_msgSender()) */\n      tag_425\n        /* \"Contracts/Access/Manufacturer.sol\":573:585  _msgSender() */\n      tag_426\n        /* \"Contracts/Access/Manufacturer.sol\":573:583  _msgSender */\n      tag_157\n        /* \"Contracts/Access/Manufacturer.sol\":573:585  _msgSender() */\n      jump\t// in\n    tag_426:\n        /* \"Contracts/Access/Manufacturer.sol\":558:572  isManufacturer */\n      tag_53\n        /* \"Contracts/Access/Manufacturer.sol\":558:586  isManufacturer(_msgSender()) */\n      jump\t// in\n    tag_425:\n        /* \"Contracts/Access/Manufacturer.sol\":550:587  require(isManufacturer(_msgSender())) */\n      tag_427\n      jumpi\n      0x00\n      dup1\n      revert\n    tag_427:\n        /* \"Contracts/Supplychain/Supplychain1.sol\":9738:9750  _productCode */\n      dup2\n        /* \"Contracts/Supplychain/Supplychain1.sol\":4428:4456  state.ProducedByManufacturer */\n      0x00\n        /* \"Contracts/Supplychain/Supplychain1.sol\":4395:4456  items[_ProductCode].itemState == state.ProducedByManufacturer */\n      0x10\n      dup2\n      gt\n      iszero\n      tag_429\n      jumpi\n      tag_430\n      tag_173\n      jump\t// in\n    tag_430:\n    tag_429:\n        /* \"Contracts/Supplychain/Supplychain1.sol\":4395:4400  items */\n      0x08\n        /* \"Contracts/Supplychain/Supplychain1.sol\":4395:4414  items[_ProductCode] */\n      0x00\n        /* \"Contracts/Supplychain/Supplychain1.sol\":4401:4413  _ProductCode */\n      dup4\n        /* \"Contracts/Supplychain/Supplychain1.sol\":4395:4414  items[_ProductCode] */\n      dup2\n      mstore\n      0x20\n      add\n      swap1\n      dup2\n      mstore\n      0x20\n      add\n      0x00\n      keccak256\n        /* \"Contracts/Supplychain/Supplychain1.sol\":4395:4424  items[_ProductCode].itemState */\n      0x06\n      add\n      0x00\n      swap1\n      sload\n      swap1\n      0x0100\n      exp\n      swap1\n      div\n      0xff\n      and\n        /* \"Contracts/Supplychain/Supplychain1.sol\":4395:4456  items[_ProductCode].itemState == state.ProducedByManufacturer */\n      0x10\n      dup2\n      gt\n      iszero\n      tag_431\n      jumpi\n      tag_432\n      tag_173\n      jump\t// in\n    tag_432:\n    tag_431:\n      eq\n        /* \"Contracts/Supplychain/Supplychain1.sol\":4387:4457  require(items[_ProductCode].itemState == state.ProducedByManufacturer) */\n      tag_433\n      jumpi\n      0x00\n      dup1\n      revert\n    tag_433:\n        /* \"Contracts/Supplychain/Supplychain1.sol\":9812:9817  items */\n      0x08\n        /* \"Contracts/Supplychain/Supplychain1.sol\":9812:9831  items[_productCode] */\n      0x00\n        /* \"Contracts/Supplychain/Supplychain1.sol\":9818:9830  _productCode */\n      dup5\n        /* \"Contracts/Supplychain/Supplychain1.sol\":9812:9831  items[_productCode] */\n      dup2\n      mstore\n      0x20\n      add\n      swap1\n      dup2\n      mstore\n      0x20\n      add\n      0x00\n      keccak256\n        /* \"Contracts/Supplychain/Supplychain1.sol\":9812:9839  items[_productCode].ownerID */\n      0x02\n      add\n      0x00\n      swap1\n      sload\n      swap1\n      0x0100\n      exp\n      swap1\n      div\n      0xffffffffffffffffffffffffffffffffffffffff\n      and\n        /* \"Contracts/Supplychain/Supplychain1.sol\":3744:3752  _address */\n      dup1\n        /* \"Contracts/Supplychain/Supplychain1.sol\":3728:3752  _msgSender() == _address */\n      0xffffffffffffffffffffffffffffffffffffffff\n      and\n        /* \"Contracts/Supplychain/Supplychain1.sol\":3728:3740  _msgSender() */\n      tag_435\n        /* \"Contracts/Supplychain/Supplychain1.sol\":3728:3738  _msgSender */\n      tag_157\n        /* \"Contracts/Supplychain/Supplychain1.sol\":3728:3740  _msgSender() */\n      jump\t// in\n    tag_435:\n        /* \"Contracts/Supplychain/Supplychain1.sol\":3728:3752  _msgSender() == _address */\n      0xffffffffffffffffffffffffffffffffffffffff\n      and\n      eq\n        /* \"Contracts/Supplychain/Supplychain1.sol\":3720:3753  require(_msgSender() == _address) */\n      tag_436\n      jumpi\n      0x00\n      dup1\n      revert\n    tag_436:\n        /* \"Contracts/Supplychain/Supplychain1.sol\":9920:9947  state.ForSaleByManufacturer */\n      0x01\n        /* \"Contracts/Supplychain/Supplychain1.sol\":9888:9893  items */\n      0x08\n        /* \"Contracts/Supplychain/Supplychain1.sol\":9888:9907  items[_productCode] */\n      0x00\n        /* \"Contracts/Supplychain/Supplychain1.sol\":9894:9906  _productCode */\n      dup7\n        /* \"Contracts/Supplychain/Supplychain1.sol\":9888:9907  items[_productCode] */\n      dup2\n      mstore\n      0x20\n      add\n      swap1\n      dup2\n      mstore\n      0x20\n      add\n      0x00\n      keccak256\n        /* \"Contracts/Supplychain/Supplychain1.sol\":9888:9917  items[_productCode].itemState */\n      0x06\n      add\n      0x00\n        /* \"Contracts/Supplychain/Supplychain1.sol\":9888:9947  items[_productCode].itemState = state.ForSaleByManufacturer */\n      0x0100\n      exp\n      dup2\n      sload\n      dup2\n      0xff\n      mul\n      not\n      and\n      swap1\n      dup4\n      0x10\n      dup2\n      gt\n      iszero\n      tag_438\n      jumpi\n      tag_439\n      tag_173\n      jump\t// in\n    tag_439:\n    tag_438:\n      mul\n      or\n      swap1\n      sstore\n      pop\n        /* \"Contracts/Supplychain/Supplychain1.sol\":9993:9999  _price */\n      dup3\n        /* \"Contracts/Supplychain/Supplychain1.sol\":9958:9963  items */\n      0x08\n        /* \"Contracts/Supplychain/Supplychain1.sol\":9958:9977  items[_productCode] */\n      0x00\n        /* \"Contracts/Supplychain/Supplychain1.sol\":9964:9976  _productCode */\n      dup7\n        /* \"Contracts/Supplychain/Supplychain1.sol\":9958:9977  items[_productCode] */\n      dup2\n      mstore\n      0x20\n      add\n      swap1\n      dup2\n      mstore\n      0x20\n      add\n      0x00\n      keccak256\n        /* \"Contracts/Supplychain/Supplychain1.sol\":9958:9990  items[_productCode].productPrice */\n      0x07\n      add\n        /* \"Contracts/Supplychain/Supplychain1.sol\":9958:9999  items[_productCode].productPrice = _price */\n      dup2\n      swap1\n      sstore\n      pop\n        /* \"Contracts/Supplychain/Supplychain1.sol\":10015:10050  ForSaleByManufacturer(_productCode) */\n      0xaec623c8803eb3c795344cb3d2178da45139e85d984a1dc348cf9dc8bd7ff160\n        /* \"Contracts/Supplychain/Supplychain1.sol\":10037:10049  _productCode */\n      dup5\n        /* \"Contracts/Supplychain/Supplychain1.sol\":10015:10050  ForSaleByManufacturer(_productCode) */\n      mload(0x40)\n      tag_440\n      swap2\n      swap1\n      tag_195\n      jump\t// in\n    tag_440:\n      mload(0x40)\n      dup1\n      swap2\n      sub\n      swap1\n      log1\n        /* \"Contracts/Supplychain/Supplychain1.sol\":4471:4472  _ */\n      pop\n        /* \"Contracts/Access/Manufacturer.sol\":597:598  _ */\n      pop\n        /* \"Contracts/Supplychain/Supplychain1.sol\":9596:10058  function sellItemByFarmer(uint256 _productCode, uint256 _price)... */\n      pop\n      pop\n      jump\t// out\n        /* \"Contracts/Supplychain/Supplychain1.sol\":12376:12763  function processedItemByDistributor(uint256 _productCode , uint256 slices)... */\n    tag_149:\n        /* \"Contracts/Access/Distributor.sol\":552:579  isDistributor(_msgSender()) */\n      tag_442\n        /* \"Contracts/Access/Distributor.sol\":566:578  _msgSender() */\n      tag_443\n        /* \"Contracts/Access/Distributor.sol\":566:576  _msgSender */\n      tag_157\n        /* \"Contracts/Access/Distributor.sol\":566:578  _msgSender() */\n      jump\t// in\n    tag_443:\n        /* \"Contracts/Access/Distributor.sol\":552:565  isDistributor */\n      tag_117\n        /* \"Contracts/Access/Distributor.sol\":552:579  isDistributor(_msgSender()) */\n      jump\t// in\n    tag_442:\n        /* \"Contracts/Access/Distributor.sol\":544:580  require(isDistributor(_msgSender())) */\n      tag_444\n      jumpi\n      0x00\n      dup1\n      revert\n    tag_444:\n        /* \"Contracts/Supplychain/Supplychain1.sol\":12515:12527  _productCode */\n      dup2\n        /* \"Contracts/Supplychain/Supplychain1.sol\":5160:5187  state.ReceivedByDistributor */\n      0x04\n        /* \"Contracts/Supplychain/Supplychain1.sol\":5127:5187  items[_ProductCode].itemState == state.ReceivedByDistributor */\n      0x10\n      dup2\n      gt\n      iszero\n      tag_446\n      jumpi\n      tag_447\n      tag_173\n      jump\t// in\n    tag_447:\n    tag_446:\n        /* \"Contracts/Supplychain/Supplychain1.sol\":5127:5132  items */\n      0x08\n        /* \"Contracts/Supplychain/Supplychain1.sol\":5127:5146  items[_ProductCode] */\n      0x00\n        /* \"Contracts/Supplychain/Supplychain1.sol\":5133:5145  _ProductCode */\n      dup4\n        /* \"Contracts/Supplychain/Supplychain1.sol\":5127:5146  items[_ProductCode] */\n      dup2\n      mstore\n      0x20\n      add\n      swap1\n      dup2\n      mstore\n      0x20\n      add\n      0x00\n      keccak256\n        /* \"Contracts/Supplychain/Supplychain1.sol\":5127:5156  items[_ProductCode].itemState */\n      0x06\n      add\n      0x00\n      swap1\n      sload\n      swap1\n      0x0100\n      exp\n      swap1\n      div\n      0xff\n      and\n        /* \"Contracts/Supplychain/Supplychain1.sol\":5127:5187  items[_ProductCode].itemState == state.ReceivedByDistributor */\n      0x10\n      dup2\n      gt\n      iszero\n      tag_448\n      jumpi\n      tag_449\n      tag_173\n      jump\t// in\n    tag_449:\n    tag_448:\n      eq\n        /* \"Contracts/Supplychain/Supplychain1.sol\":5119:5188  require(items[_ProductCode].itemState == state.ReceivedByDistributor) */\n      tag_450\n      jumpi\n      0x00\n      dup1\n      revert\n    tag_450:\n        /* \"Contracts/Supplychain/Supplychain1.sol\":12549:12554  items */\n      0x08\n        /* \"Contracts/Supplychain/Supplychain1.sol\":12549:12568  items[_productCode] */\n      0x00\n        /* \"Contracts/Supplychain/Supplychain1.sol\":12555:12567  _productCode */\n      dup5\n        /* \"Contracts/Supplychain/Supplychain1.sol\":12549:12568  items[_productCode] */\n      dup2\n      mstore\n      0x20\n      add\n      swap1\n      dup2\n      mstore\n      0x20\n      add\n      0x00\n      keccak256\n        /* \"Contracts/Supplychain/Supplychain1.sol\":12549:12576  items[_productCode].ownerID */\n      0x02\n      add\n      0x00\n      swap1\n      sload\n      swap1\n      0x0100\n      exp\n      swap1\n      div\n      0xffffffffffffffffffffffffffffffffffffffff\n      and\n        /* \"Contracts/Supplychain/Supplychain1.sol\":3744:3752  _address */\n      dup1\n        /* \"Contracts/Supplychain/Supplychain1.sol\":3728:3752  _msgSender() == _address */\n      0xffffffffffffffffffffffffffffffffffffffff\n      and\n        /* \"Contracts/Supplychain/Supplychain1.sol\":3728:3740  _msgSender() */\n      tag_452\n        /* \"Contracts/Supplychain/Supplychain1.sol\":3728:3738  _msgSender */\n      tag_157\n        /* \"Contracts/Supplychain/Supplychain1.sol\":3728:3740  _msgSender() */\n      jump\t// in\n    tag_452:\n        /* \"Contracts/Supplychain/Supplychain1.sol\":3728:3752  _msgSender() == _address */\n      0xffffffffffffffffffffffffffffffffffffffff\n      and\n      eq\n        /* \"Contracts/Supplychain/Supplychain1.sol\":3720:3753  require(_msgSender() == _address) */\n      tag_453\n      jumpi\n      0x00\n      dup1\n      revert\n    tag_453:\n        /* \"Contracts/Supplychain/Supplychain1.sol\":12619:12647  state.ProcessedByDistributor */\n      0x05\n        /* \"Contracts/Supplychain/Supplychain1.sol\":12587:12592  items */\n      0x08\n        /* \"Contracts/Supplychain/Supplychain1.sol\":12587:12606  items[_productCode] */\n      0x00\n        /* \"Contracts/Supplychain/Supplychain1.sol\":12593:12605  _productCode */\n      dup7\n        /* \"Contracts/Supplychain/Supplychain1.sol\":12587:12606  items[_productCode] */\n      dup2\n      mstore\n      0x20\n      add\n      swap1\n      dup2\n      mstore\n      0x20\n      add\n      0x00\n      keccak256\n        /* \"Contracts/Supplychain/Supplychain1.sol\":12587:12616  items[_productCode].itemState */\n      0x06\n      add\n      0x00\n        /* \"Contracts/Supplychain/Supplychain1.sol\":12587:12647  items[_productCode].itemState = state.ProcessedByDistributor */\n      0x0100\n      exp\n      dup2\n      sload\n      dup2\n      0xff\n      mul\n      not\n      and\n      swap1\n      dup4\n      0x10\n      dup2\n      gt\n      iszero\n      tag_455\n      jumpi\n      tag_456\n      tag_173\n      jump\t// in\n    tag_456:\n    tag_455:\n      mul\n      or\n      swap1\n      sstore\n      pop\n        /* \"Contracts/Supplychain/Supplychain1.sol\":12693:12699  slices */\n      dup3\n        /* \"Contracts/Supplychain/Supplychain1.sol\":12657:12662  items */\n      0x08\n        /* \"Contracts/Supplychain/Supplychain1.sol\":12657:12676  items[_productCode] */\n      0x00\n        /* \"Contracts/Supplychain/Supplychain1.sol\":12663:12675  _productCode */\n      dup7\n        /* \"Contracts/Supplychain/Supplychain1.sol\":12657:12676  items[_productCode] */\n      dup2\n      mstore\n      0x20\n      add\n      swap1\n      dup2\n      mstore\n      0x20\n      add\n      0x00\n      keccak256\n        /* \"Contracts/Supplychain/Supplychain1.sol\":12657:12690  items[_productCode].productSliced */\n      0x08\n      add\n        /* \"Contracts/Supplychain/Supplychain1.sol\":12657:12699  items[_productCode].productSliced = slices */\n      dup2\n      swap1\n      sstore\n      pop\n        /* \"Contracts/Supplychain/Supplychain1.sol\":12714:12750  ProcessedByDistributor(_productCode) */\n      0x5725e53fd0efed5294b7db2af148f040264a63630b4deb0afbccf6e60830988a\n        /* \"Contracts/Supplychain/Supplychain1.sol\":12737:12749  _productCode */\n      dup5\n        /* \"Contracts/Supplychain/Supplychain1.sol\":12714:12750  ProcessedByDistributor(_productCode) */\n      mload(0x40)\n      tag_457\n      swap2\n      swap1\n      tag_195\n      jump\t// in\n    tag_457:\n      mload(0x40)\n      dup1\n      swap2\n      sub\n      swap1\n      log1\n        /* \"Contracts/Supplychain/Supplychain1.sol\":5202:5203  _ */\n      pop\n        /* \"Contracts/Access/Distributor.sol\":590:591  _ */\n      pop\n        /* \"Contracts/Supplychain/Supplychain1.sol\":12376:12763  function processedItemByDistributor(uint256 _productCode , uint256 slices)... */\n      pop\n      pop\n      jump\t// out\n        /* \"Contracts/Supplychain/Supplychain1.sol\":10112:11210  function purchaseItemByDistributor(uint256 _productCode)... */\n    tag_152:\n        /* \"Contracts/Access/Distributor.sol\":552:579  isDistributor(_msgSender()) */\n      tag_459\n        /* \"Contracts/Access/Distributor.sol\":566:578  _msgSender() */\n      tag_460\n        /* \"Contracts/Access/Distributor.sol\":566:576  _msgSender */\n      tag_157\n        /* \"Contracts/Access/Distributor.sol\":566:578  _msgSender() */\n      jump\t// in\n    tag_460:\n        /* \"Contracts/Access/Distributor.sol\":552:565  isDistributor */\n      tag_117\n        /* \"Contracts/Access/Distributor.sol\":552:579  isDistributor(_msgSender()) */\n      jump\t// in\n    tag_459:\n        /* \"Contracts/Access/Distributor.sol\":544:580  require(isDistributor(_msgSender())) */\n      tag_461\n      jumpi\n      0x00\n      dup1\n      revert\n    tag_461:\n        /* \"Contracts/Supplychain/Supplychain1.sol\":10308:10320  _productCode */\n      dup1\n        /* \"Contracts/Supplychain/Supplychain1.sol\":4626:4653  state.ForSaleByManufacturer */\n      0x01\n        /* \"Contracts/Supplychain/Supplychain1.sol\":4593:4653  items[_ProductCode].itemState == state.ForSaleByManufacturer */\n      0x10\n      dup2\n      gt\n      iszero\n      tag_463\n      jumpi\n      tag_464\n      tag_173\n      jump\t// in\n    tag_464:\n    tag_463:\n        /* \"Contracts/Supplychain/Supplychain1.sol\":4593:4598  items */\n      0x08\n        /* \"Contracts/Supplychain/Supplychain1.sol\":4593:4612  items[_ProductCode] */\n      0x00\n        /* \"Contracts/Supplychain/Supplychain1.sol\":4599:4611  _ProductCode */\n      dup4\n        /* \"Contracts/Supplychain/Supplychain1.sol\":4593:4612  items[_ProductCode] */\n      dup2\n      mstore\n      0x20\n      add\n      swap1\n      dup2\n      mstore\n      0x20\n      add\n      0x00\n      keccak256\n        /* \"Contracts/Supplychain/Supplychain1.sol\":4593:4622  items[_ProductCode].itemState */\n      0x06\n      add\n      0x00\n      swap1\n      sload\n      swap1\n      0x0100\n      exp\n      swap1\n      div\n      0xff\n      and\n        /* \"Contracts/Supplychain/Supplychain1.sol\":4593:4653  items[_ProductCode].itemState == state.ForSaleByManufacturer */\n      0x10\n      dup2\n      gt\n      iszero\n      tag_465\n      jumpi\n      tag_466\n      tag_173\n      jump\t// in\n    tag_466:\n    tag_465:\n      eq\n        /* \"Contracts/Supplychain/Supplychain1.sol\":4585:4654  require(items[_ProductCode].itemState == state.ForSaleByManufacturer) */\n      tag_467\n      jumpi\n      0x00\n      dup1\n      revert\n    tag_467:\n        /* \"Contracts/Supplychain/Supplychain1.sol\":10385:10390  items */\n      0x08\n        /* \"Contracts/Supplychain/Supplychain1.sol\":10385:10404  items[_productCode] */\n      0x00\n        /* \"Contracts/Supplychain/Supplychain1.sol\":10391:10403  _productCode */\n      dup4\n        /* \"Contracts/Supplychain/Supplychain1.sol\":10385:10404  items[_productCode] */\n      dup2\n      mstore\n      0x20\n      add\n      swap1\n      dup2\n      mstore\n      0x20\n      add\n      0x00\n      keccak256\n        /* \"Contracts/Supplychain/Supplychain1.sol\":10385:10417  items[_productCode].productPrice */\n      0x07\n      add\n      sload\n        /* \"Contracts/Supplychain/Supplychain1.sol\":3939:3945  _price */\n      dup1\n        /* \"Contracts/Supplychain/Supplychain1.sol\":3926:3935  msg.value */\n      callvalue\n        /* \"Contracts/Supplychain/Supplychain1.sol\":3926:3945  msg.value >= _price */\n      lt\n      iszero\n        /* \"Contracts/Supplychain/Supplychain1.sol\":3918:3946  require(msg.value >= _price) */\n      tag_469\n      jumpi\n      0x00\n      dup1\n      revert\n    tag_469:\n        /* \"Contracts/Supplychain/Supplychain1.sol\":10490:10502  _productCode */\n      dup3\n        /* \"Contracts/Supplychain/Supplychain1.sol\":10512:10524  _msgSender() */\n      tag_470\n        /* \"Contracts/Supplychain/Supplychain1.sol\":10512:10522  _msgSender */\n      tag_157\n        /* \"Contracts/Supplychain/Supplychain1.sol\":10512:10524  _msgSender() */\n      jump\t// in\n    tag_470:\n        /* \"Contracts/Supplychain/Supplychain1.sol\":4140:4154  uint256 _price */\n      0x00\n        /* \"Contracts/Supplychain/Supplychain1.sol\":4157:4162  items */\n      0x08\n        /* \"Contracts/Supplychain/Supplychain1.sol\":4157:4176  items[_productCode] */\n      0x00\n        /* \"Contracts/Supplychain/Supplychain1.sol\":4163:4175  _productCode */\n      dup5\n        /* \"Contracts/Supplychain/Supplychain1.sol\":4157:4176  items[_productCode] */\n      dup2\n      mstore\n      0x20\n      add\n      swap1\n      dup2\n      mstore\n      0x20\n      add\n      0x00\n      keccak256\n        /* \"Contracts/Supplychain/Supplychain1.sol\":4157:4186  items[_productCode].itemPrice */\n      0x0d\n      add\n      sload\n        /* \"Contracts/Supplychain/Supplychain1.sol\":4140:4186  uint256 _price = items[_productCode].itemPrice */\n      swap1\n      pop\n        /* \"Contracts/Supplychain/Supplychain1.sol\":4197:4219  uint256 amountToReturn */\n      0x00\n        /* \"Contracts/Supplychain/Supplychain1.sol\":4234:4240  _price */\n      dup2\n        /* \"Contracts/Supplychain/Supplychain1.sol\":4222:4231  msg.value */\n      callvalue\n        /* \"Contracts/Supplychain/Supplychain1.sol\":4222:4240  msg.value - _price */\n      tag_472\n      swap2\n      swap1\n      tag_182\n      jump\t// in\n    tag_472:\n        /* \"Contracts/Supplychain/Supplychain1.sol\":4197:4240  uint256 amountToReturn = msg.value - _price */\n      swap1\n      pop\n        /* \"Contracts/Supplychain/Supplychain1.sol\":4251:4264  addressToFund */\n      dup3\n        /* \"Contracts/Supplychain/Supplychain1.sol\":4251:4273  addressToFund.transfer */\n      0xffffffffffffffffffffffffffffffffffffffff\n      and\n        /* \"Contracts/Supplychain/Supplychain1.sol\":4251:4289  addressToFund.transfer(amountToReturn) */\n      0x08fc\n        /* \"Contracts/Supplychain/Supplychain1.sol\":4274:4288  amountToReturn */\n      dup3\n        /* \"Contracts/Supplychain/Supplychain1.sol\":4251:4289  addressToFund.transfer(amountToReturn) */\n      swap1\n      dup2\n      iszero\n      mul\n      swap1\n      mload(0x40)\n      0x00\n      mload(0x40)\n      dup1\n      dup4\n      sub\n      dup2\n      dup6\n      dup9\n      dup9\n      call\n      swap4\n      pop\n      pop\n      pop\n      pop\n      iszero\n      dup1\n      iszero\n      tag_474\n      jumpi\n      returndatasize\n      0x00\n      dup1\n      returndatacopy\n      revert(0x00, returndatasize)\n    tag_474:\n      pop\n        /* \"Contracts/Supplychain/Supplychain1.sol\":10607:10642  address payable ownerAddressPayable */\n      0x00\n        /* \"Contracts/Supplychain/Supplychain1.sol\":10645:10718  _make_payable(... */\n      tag_476\n        /* \"Contracts/Supplychain/Supplychain1.sol\":10673:10678  items */\n      0x08\n        /* \"Contracts/Supplychain/Supplychain1.sol\":10673:10692  items[_productCode] */\n      0x00\n        /* \"Contracts/Supplychain/Supplychain1.sol\":10679:10691  _productCode */\n      dup11\n        /* \"Contracts/Supplychain/Supplychain1.sol\":10673:10692  items[_productCode] */\n      dup2\n      mstore\n      0x20\n      add\n      swap1\n      dup2\n      mstore\n      0x20\n      add\n      0x00\n      keccak256\n        /* \"Contracts/Supplychain/Supplychain1.sol\":10673:10707  items[_productCode].manufacturerID */\n      0x03\n      add\n      0x00\n      swap1\n      sload\n      swap1\n      0x0100\n      exp\n      swap1\n      div\n      0xffffffffffffffffffffffffffffffffffffffff\n      and\n        /* \"Contracts/Supplychain/Supplychain1.sol\":10645:10658  _make_payable */\n      tag_187\n        /* \"Contracts/Supplychain/Supplychain1.sol\":10645:10718  _make_payable(... */\n      jump\t// in\n    tag_476:\n        /* \"Contracts/Supplychain/Supplychain1.sol\":10607:10718  address payable ownerAddressPayable = _make_payable(... */\n      swap1\n      pop\n        /* \"Contracts/Supplychain/Supplychain1.sol\":10730:10749  ownerAddressPayable */\n      dup1\n        /* \"Contracts/Supplychain/Supplychain1.sol\":10730:10758  ownerAddressPayable.transfer */\n      0xffffffffffffffffffffffffffffffffffffffff\n      and\n        /* \"Contracts/Supplychain/Supplychain1.sol\":10730:10792  ownerAddressPayable.transfer(items[_productCode].productPrice) */\n      0x08fc\n        /* \"Contracts/Supplychain/Supplychain1.sol\":10759:10764  items */\n      0x08\n        /* \"Contracts/Supplychain/Supplychain1.sol\":10759:10778  items[_productCode] */\n      0x00\n        /* \"Contracts/Supplychain/Supplychain1.sol\":10765:10777  _productCode */\n      dup12\n        /* \"Contracts/Supplychain/Supplychain1.sol\":10759:10778  items[_productCode] */\n      dup2\n      mstore\n      0x20\n      add\n      swap1\n      dup2\n      mstore\n      0x20\n      add\n      0x00\n      keccak256\n        /* \"Contracts/Supplychain/Supplychain1.sol\":10759:10791  items[_productCode].productPrice */\n      0x07\n      add\n      sload\n        /* \"Contracts/Supplychain/Supplychain1.sol\":10730:10792  ownerAddressPayable.transfer(items[_productCode].productPrice) */\n      swap1\n      dup2\n      iszero\n      mul\n      swap1\n      mload(0x40)\n      0x00\n      mload(0x40)\n      dup1\n      dup4\n      sub\n      dup2\n      dup6\n      dup9\n      dup9\n      call\n      swap4\n      pop\n      pop\n      pop\n      pop\n      iszero\n      dup1\n      iszero\n      tag_478\n      jumpi\n      returndatasize\n      0x00\n      dup1\n      returndatacopy\n      revert(0x00, returndatasize)\n    tag_478:\n      pop\n        /* \"Contracts/Supplychain/Supplychain1.sol\":10878:10890  _msgSender() */\n      tag_479\n        /* \"Contracts/Supplychain/Supplychain1.sol\":10878:10888  _msgSender */\n      tag_157\n        /* \"Contracts/Supplychain/Supplychain1.sol\":10878:10890  _msgSender() */\n      jump\t// in\n    tag_479:\n        /* \"Contracts/Supplychain/Supplychain1.sol\":10848:10853  items */\n      0x08\n        /* \"Contracts/Supplychain/Supplychain1.sol\":10848:10867  items[_productCode] */\n      0x00\n        /* \"Contracts/Supplychain/Supplychain1.sol\":10854:10866  _productCode */\n      dup11\n        /* \"Contracts/Supplychain/Supplychain1.sol\":10848:10867  items[_productCode] */\n      dup2\n      mstore\n      0x20\n      add\n      swap1\n      dup2\n      mstore\n      0x20\n      add\n      0x00\n      keccak256\n        /* \"Contracts/Supplychain/Supplychain1.sol\":10848:10875  items[_productCode].ownerID */\n      0x02\n      add\n      0x00\n        /* \"Contracts/Supplychain/Supplychain1.sol\":10848:10890  items[_productCode].ownerID = _msgSender() */\n      0x0100\n      exp\n      dup2\n      sload\n      dup2\n      0xffffffffffffffffffffffffffffffffffffffff\n      mul\n      not\n      and\n      swap1\n      dup4\n      0xffffffffffffffffffffffffffffffffffffffff\n      and\n      mul\n      or\n      swap1\n      sstore\n      pop\n        /* \"Contracts/Supplychain/Supplychain1.sol\":10953:10965  _msgSender() */\n      tag_480\n        /* \"Contracts/Supplychain/Supplychain1.sol\":10953:10963  _msgSender */\n      tag_157\n        /* \"Contracts/Supplychain/Supplychain1.sol\":10953:10965  _msgSender() */\n      jump\t// in\n    tag_480:\n        /* \"Contracts/Supplychain/Supplychain1.sol\":10917:10922  items */\n      0x08\n        /* \"Contracts/Supplychain/Supplychain1.sol\":10917:10936  items[_productCode] */\n      0x00\n        /* \"Contracts/Supplychain/Supplychain1.sol\":10923:10935  _productCode */\n      dup11\n        /* \"Contracts/Supplychain/Supplychain1.sol\":10917:10936  items[_productCode] */\n      dup2\n      mstore\n      0x20\n      add\n      swap1\n      dup2\n      mstore\n      0x20\n      add\n      0x00\n      keccak256\n        /* \"Contracts/Supplychain/Supplychain1.sol\":10917:10950  items[_productCode].distributorID */\n      0x0a\n      add\n      0x00\n        /* \"Contracts/Supplychain/Supplychain1.sol\":10917:10965  items[_productCode].distributorID = _msgSender() */\n      0x0100\n      exp\n      dup2\n      sload\n      dup2\n      0xffffffffffffffffffffffffffffffffffffffff\n      mul\n      not\n      and\n      swap1\n      dup4\n      0xffffffffffffffffffffffffffffffffffffffff\n      and\n      mul\n      or\n      swap1\n      sstore\n      pop\n        /* \"Contracts/Supplychain/Supplychain1.sol\":11030:11058  state.PurchasedByDistributor */\n      0x02\n        /* \"Contracts/Supplychain/Supplychain1.sol\":10998:11003  items */\n      0x08\n        /* \"Contracts/Supplychain/Supplychain1.sol\":10998:11017  items[_productCode] */\n      0x00\n        /* \"Contracts/Supplychain/Supplychain1.sol\":11004:11016  _productCode */\n      dup11\n        /* \"Contracts/Supplychain/Supplychain1.sol\":10998:11017  items[_productCode] */\n      dup2\n      mstore\n      0x20\n      add\n      swap1\n      dup2\n      mstore\n      0x20\n      add\n      0x00\n      keccak256\n        /* \"Contracts/Supplychain/Supplychain1.sol\":10998:11027  items[_productCode].itemState */\n      0x06\n      add\n      0x00\n        /* \"Contracts/Supplychain/Supplychain1.sol\":10998:11058  items[_productCode].itemState = state.PurchasedByDistributor */\n      0x0100\n      exp\n      dup2\n      sload\n      dup2\n      0xff\n      mul\n      not\n      and\n      swap1\n      dup4\n      0x10\n      dup2\n      gt\n      iszero\n      tag_481\n      jumpi\n      tag_482\n      tag_173\n      jump\t// in\n    tag_482:\n    tag_481:\n      mul\n      or\n      swap1\n      sstore\n      pop\n        /* \"Contracts/Supplychain/Supplychain1.sol\":11118:11130  block.number */\n      number\n        /* \"Contracts/Supplychain/Supplychain1.sol\":11085:11097  itemsHistory */\n      0x09\n        /* \"Contracts/Supplychain/Supplychain1.sol\":11085:11111  itemsHistory[_productCode] */\n      0x00\n        /* \"Contracts/Supplychain/Supplychain1.sol\":11098:11110  _productCode */\n      dup11\n        /* \"Contracts/Supplychain/Supplychain1.sol\":11085:11111  itemsHistory[_productCode] */\n      dup2\n      mstore\n      0x20\n      add\n      swap1\n      dup2\n      mstore\n      0x20\n      add\n      0x00\n      keccak256\n        /* \"Contracts/Supplychain/Supplychain1.sol\":11085:11115  itemsHistory[_productCode].MTD */\n      0x00\n      add\n        /* \"Contracts/Supplychain/Supplychain1.sol\":11085:11130  itemsHistory[_productCode].MTD = block.number */\n      dup2\n      swap1\n      sstore\n      pop\n        /* \"Contracts/Supplychain/Supplychain1.sol\":11166:11202  PurchasedByDistributor(_productCode) */\n      0xacd9402b9f9e8c15fa7c1819f8393ca56eb61316cc354fc6ac2150aed3ce7931\n        /* \"Contracts/Supplychain/Supplychain1.sol\":11189:11201  _productCode */\n      dup9\n        /* \"Contracts/Supplychain/Supplychain1.sol\":11166:11202  PurchasedByDistributor(_productCode) */\n      mload(0x40)\n      tag_483\n      swap2\n      swap1\n      tag_195\n      jump\t// in\n    tag_483:\n      mload(0x40)\n      dup1\n      swap2\n      sub\n      swap1\n      log1\n        /* \"Contracts/Supplychain/Supplychain1.sol\":10596:11210  {... */\n      pop\n        /* \"Contracts/Supplychain/Supplychain1.sol\":4129:4309  {... */\n      pop\n      pop\n        /* \"Contracts/Supplychain/Supplychain1.sol\":3957:3958  _ */\n      pop\n      pop\n        /* \"Contracts/Supplychain/Supplychain1.sol\":4668:4669  _ */\n      pop\n        /* \"Contracts/Access/Distributor.sol\":590:591  _ */\n      pop\n        /* \"Contracts/Supplychain/Supplychain1.sol\":10112:11210  function purchaseItemByDistributor(uint256 _productCode)... */\n      pop\n      jump\t// out\n        /* \"Contracts/Access/Roles.sol\":153:344  function add(Role storage role , address account) internal {... */\n    tag_153:\n        /* \"Contracts/Access/Roles.sol\":252:253  0 */\n      0x00\n        /* \"Contracts/Access/Roles.sol\":233:254  account != address(0) */\n      0xffffffffffffffffffffffffffffffffffffffff\n      and\n        /* \"Contracts/Access/Roles.sol\":233:240  account */\n      dup2\n        /* \"Contracts/Access/Roles.sol\":233:254  account != address(0) */\n      0xffffffffffffffffffffffffffffffffffffffff\n      and\n      sub\n        /* \"Contracts/Access/Roles.sol\":223:256  require( (account != address(0))) */\n      tag_485\n      jumpi\n      0x00\n      dup1\n      revert\n    tag_485:\n        /* \"Contracts/Access/Roles.sol\":276:296  has(role , account ) */\n      tag_486\n        /* \"Contracts/Access/Roles.sol\":280:284  role */\n      dup3\n        /* \"Contracts/Access/Roles.sol\":287:294  account */\n      dup3\n        /* \"Contracts/Access/Roles.sol\":276:279  has */\n      tag_198\n        /* \"Contracts/Access/Roles.sol\":276:296  has(role , account ) */\n      jump\t// in\n    tag_486:\n        /* \"Contracts/Access/Roles.sol\":275:296  !has(role , account ) */\n      iszero\n        /* \"Contracts/Access/Roles.sol\":267:297  require(!has(role , account )) */\n      tag_487\n      jumpi\n      0x00\n      dup1\n      revert\n    tag_487:\n        /* \"Contracts/Access/Roles.sol\":330:334  true */\n      0x01\n        /* \"Contracts/Access/Roles.sol\":308:312  role */\n      dup3\n        /* \"Contracts/Access/Roles.sol\":308:319  role.bearer */\n      0x00\n      add\n        /* \"Contracts/Access/Roles.sol\":308:328  role.bearer[account] */\n      0x00\n        /* \"Contracts/Access/Roles.sol\":320:327  account */\n      dup4\n        /* \"Contracts/Access/Roles.sol\":308:328  role.bearer[account] */\n      0xffffffffffffffffffffffffffffffffffffffff\n      and\n      0xffffffffffffffffffffffffffffffffffffffff\n      and\n      dup2\n      mstore\n      0x20\n      add\n      swap1\n      dup2\n      mstore\n      0x20\n      add\n      0x00\n      keccak256\n      0x00\n        /* \"Contracts/Access/Roles.sol\":308:334  role.bearer[account]= true */\n      0x0100\n      exp\n      dup2\n      sload\n      dup2\n      0xff\n      mul\n      not\n      and\n      swap1\n      dup4\n      iszero\n      iszero\n      mul\n      or\n      swap1\n      sstore\n      pop\n        /* \"Contracts/Access/Roles.sol\":153:344  function add(Role storage role , address account) internal {... */\n      pop\n      pop\n      jump\t// out\n        /* \"Contracts/Utils/Context.sol\":97:201  function _msgSender() internal view virtual returns (address) ... */\n    tag_157:\n        /* \"Contracts/Utils/Context.sol\":150:157  address */\n      0x00\n        /* \"Contracts/Utils/Context.sol\":183:193  msg.sender */\n      caller\n        /* \"Contracts/Utils/Context.sol\":176:193  return msg.sender */\n      swap1\n      pop\n        /* \"Contracts/Utils/Context.sol\":97:201  function _msgSender() internal view virtual returns (address) ... */\n      swap1\n      jump\t// out\n        /* \"Contracts/Access/Wholesaler.sol\":1168:1311  function _removeWholesaler(address account ) internal {... */\n    tag_158:\n        /* \"Contracts/Access/Wholesaler.sol\":1233:1260  wholesalers.remove(account) */\n      tag_490\n        /* \"Contracts/Access/Wholesaler.sol\":1252:1259  account */\n      dup2\n        /* \"Contracts/Access/Wholesaler.sol\":1233:1244  wholesalers */\n      0x02\n        /* \"Contracts/Access/Wholesaler.sol\":1233:1251  wholesalers.remove */\n      tag_491\n      swap1\n        /* \"Contracts/Access/Wholesaler.sol\":1233:1260  wholesalers.remove(account) */\n      swap2\n      swap1\n      0xffffffff\n      and\n      jump\t// in\n    tag_490:\n        /* \"Contracts/Access/Wholesaler.sol\":1294:1301  account */\n      dup1\n        /* \"Contracts/Access/Wholesaler.sol\":1276:1303  WholesalerRemoved(account ) */\n      0xffffffffffffffffffffffffffffffffffffffff\n      and\n      0x7f865f710a7604537eb2bc0334f082fa642d210a705398937f53663384485b28\n      mload(0x40)\n      mload(0x40)\n      dup1\n      swap2\n      sub\n      swap1\n      log2\n        /* \"Contracts/Access/Wholesaler.sol\":1168:1311  function _removeWholesaler(address account ) internal {... */\n      pop\n      jump\t// out\n        /* \"Contracts/Access/Consumer.sol\":993:1122  function _addConsumer  (address account ) internal{... */\n    tag_165:\n        /* \"Contracts/Access/Consumer.sol\":1054:1076  consumers.add(account) */\n      tag_493\n        /* \"Contracts/Access/Consumer.sol\":1068:1075  account */\n      dup2\n        /* \"Contracts/Access/Consumer.sol\":1054:1063  consumers */\n      0x04\n        /* \"Contracts/Access/Consumer.sol\":1054:1067  consumers.add */\n      tag_153\n      swap1\n        /* \"Contracts/Access/Consumer.sol\":1054:1076  consumers.add(account) */\n      swap2\n      swap1\n      0xffffffff\n      and\n      jump\t// in\n    tag_493:\n        /* \"Contracts/Access/Consumer.sol\":1106:1113  account */\n      dup1\n        /* \"Contracts/Access/Consumer.sol\":1092:1114  ConsumerAdded(account) */\n      0xffffffffffffffffffffffffffffffffffffffff\n      and\n      0x28b26e7a3d20aedbc5f8f2ebf7da671c0491723a2b78f47a097b0e46dee07142\n      mload(0x40)\n      mload(0x40)\n      dup1\n      swap2\n      sub\n      swap1\n      log2\n        /* \"Contracts/Access/Consumer.sol\":993:1122  function _addConsumer  (address account ) internal{... */\n      pop\n      jump\t// out\n        /* \"Contracts/Supplychain/Supplychain1.sol\":7802:7930  function _make_payable(address x) internal pure returns (address payable) {... */\n    tag_187:\n        /* \"Contracts/Supplychain/Supplychain1.sol\":7859:7874  address payable */\n      0x00\n        /* \"Contracts/Supplychain/Supplychain1.sol\":7918:7919  x */\n      dup2\n        /* \"Contracts/Supplychain/Supplychain1.sol\":7887:7922  return payable(address(uint160(x))) */\n      swap1\n      pop\n        /* \"Contracts/Supplychain/Supplychain1.sol\":7802:7930  function _make_payable(address x) internal pure returns (address payable) {... */\n      swap2\n      swap1\n      pop\n      jump\t// out\n        /* \"Contracts/Access/Roles.sol\":552:724  function has(Role storage role , address account ) internal view returns (bool) {... */\n    tag_198:\n        /* \"Contracts/Access/Roles.sol\":626:630  bool */\n      0x00\n        /* \"Contracts/Access/Roles.sol\":671:672  0 */\n      dup1\n        /* \"Contracts/Access/Roles.sol\":652:673  account != address(0) */\n      0xffffffffffffffffffffffffffffffffffffffff\n      and\n        /* \"Contracts/Access/Roles.sol\":652:659  account */\n      dup3\n        /* \"Contracts/Access/Roles.sol\":652:673  account != address(0) */\n      0xffffffffffffffffffffffffffffffffffffffff\n      and\n      sub\n        /* \"Contracts/Access/Roles.sol\":644:674  require(account != address(0)) */\n      tag_496\n      jumpi\n      0x00\n      dup1\n      revert\n    tag_496:\n        /* \"Contracts/Access/Roles.sol\":693:697  role */\n      dup3\n        /* \"Contracts/Access/Roles.sol\":693:704  role.bearer */\n      0x00\n      add\n        /* \"Contracts/Access/Roles.sol\":693:713  role.bearer[account] */\n      0x00\n        /* \"Contracts/Access/Roles.sol\":705:712  account */\n      dup4\n        /* \"Contracts/Access/Roles.sol\":693:713  role.bearer[account] */\n      0xffffffffffffffffffffffffffffffffffffffff\n      and\n      0xffffffffffffffffffffffffffffffffffffffff\n      and\n      dup2\n      mstore\n      0x20\n      add\n      swap1\n      dup2\n      mstore\n      0x20\n      add\n      0x00\n      keccak256\n      0x00\n      swap1\n      sload\n      swap1\n      0x0100\n      exp\n      swap1\n      div\n      0xff\n      and\n        /* \"Contracts/Access/Roles.sol\":686:713  return role.bearer[account] */\n      swap1\n      pop\n        /* \"Contracts/Access/Roles.sol\":552:724  function has(Role storage role , address account ) internal view returns (bool) {... */\n      swap3\n      swap2\n      pop\n      pop\n      jump\t// out\n        /* \"Contracts/Access/Consumer.sol\":1134:1271  function _removeConsumer(address account ) internal {... */\n    tag_262:\n        /* \"Contracts/Access/Consumer.sol\":1197:1222  consumers.remove(account) */\n      tag_498\n        /* \"Contracts/Access/Consumer.sol\":1214:1221  account */\n      dup2\n        /* \"Contracts/Access/Consumer.sol\":1197:1206  consumers */\n      0x04\n        /* \"Contracts/Access/Consumer.sol\":1197:1213  consumers.remove */\n      tag_491\n      swap1\n        /* \"Contracts/Access/Consumer.sol\":1197:1222  consumers.remove(account) */\n      swap2\n      swap1\n      0xffffffff\n      and\n      jump\t// in\n    tag_498:\n        /* \"Contracts/Access/Consumer.sol\":1254:1261  account */\n      dup1\n        /* \"Contracts/Access/Consumer.sol\":1238:1263  ConsumerRemoved(account ) */\n      0xffffffffffffffffffffffffffffffffffffffff\n      and\n      0xe3f5ed5f263f1f01764a96edfc7d025f511ec5f7d180e8816908b78bcf74f098\n      mload(0x40)\n      mload(0x40)\n      dup1\n      swap2\n      sub\n      swap1\n      log2\n        /* \"Contracts/Access/Consumer.sol\":1134:1271  function _removeConsumer(address account ) internal {... */\n      pop\n      jump\t// out\n        /* \"Contracts/Access/Distributor.sol\":1185:1331  function _removeDistributor(address account ) internal {... */\n    tag_270:\n        /* \"Contracts/Access/Distributor.sol\":1251:1279  distributors.remove(account) */\n      tag_500\n        /* \"Contracts/Access/Distributor.sol\":1271:1278  account */\n      dup2\n        /* \"Contracts/Access/Distributor.sol\":1251:1263  distributors */\n      0x01\n        /* \"Contracts/Access/Distributor.sol\":1251:1270  distributors.remove */\n      tag_491\n      swap1\n        /* \"Contracts/Access/Distributor.sol\":1251:1279  distributors.remove(account) */\n      swap2\n      swap1\n      0xffffffff\n      and\n      jump\t// in\n    tag_500:\n        /* \"Contracts/Access/Distributor.sol\":1314:1321  account */\n      dup1\n        /* \"Contracts/Access/Distributor.sol\":1295:1323  DistributorRemoved(account ) */\n      0xffffffffffffffffffffffffffffffffffffffff\n      and\n      0x126174f6cf49c81cdb4a9214c6b8f037bef55b4ec31e4fc776cea2a1c8a88d59\n      mload(0x40)\n      mload(0x40)\n      dup1\n      swap2\n      sub\n      swap1\n      log2\n        /* \"Contracts/Access/Distributor.sol\":1185:1331  function _removeDistributor(address account ) internal {... */\n      pop\n      jump\t// out\n        /* \"Contracts/Access/Manufacturer.sol\":1048:1189  function _addManufacturer  (address account ) internal{... */\n    tag_279:\n        /* \"Contracts/Access/Manufacturer.sol\":1113:1139  manufacturers.add(account) */\n      tag_502\n        /* \"Contracts/Access/Manufacturer.sol\":1131:1138  account */\n      dup2\n        /* \"Contracts/Access/Manufacturer.sol\":1113:1126  manufacturers */\n      0x00\n        /* \"Contracts/Access/Manufacturer.sol\":1113:1130  manufacturers.add */\n      tag_153\n      swap1\n        /* \"Contracts/Access/Manufacturer.sol\":1113:1139  manufacturers.add(account) */\n      swap2\n      swap1\n      0xffffffff\n      and\n      jump\t// in\n    tag_502:\n        /* \"Contracts/Access/Manufacturer.sol\":1173:1180  account */\n      dup1\n        /* \"Contracts/Access/Manufacturer.sol\":1155:1181  ManufacturerAdded(account) */\n      0xffffffffffffffffffffffffffffffffffffffff\n      and\n      0x561138658ca49a8540dc70dcfe64c9026c1c5b9344642242dd6562970f9c1278\n      mload(0x40)\n      mload(0x40)\n      dup1\n      swap2\n      sub\n      swap1\n      log2\n        /* \"Contracts/Access/Manufacturer.sol\":1048:1189  function _addManufacturer  (address account ) internal{... */\n      pop\n      jump\t// out\n        /* \"Contracts/Access/Distributor.sol\":1035:1173  function _addDistributor  (address account ) internal{... */\n    tag_288:\n        /* \"Contracts/Access/Distributor.sol\":1099:1124  distributors.add(account) */\n      tag_504\n        /* \"Contracts/Access/Distributor.sol\":1116:1123  account */\n      dup2\n        /* \"Contracts/Access/Distributor.sol\":1099:1111  distributors */\n      0x01\n        /* \"Contracts/Access/Distributor.sol\":1099:1115  distributors.add */\n      tag_153\n      swap1\n        /* \"Contracts/Access/Distributor.sol\":1099:1124  distributors.add(account) */\n      swap2\n      swap1\n      0xffffffff\n      and\n      jump\t// in\n    tag_504:\n        /* \"Contracts/Access/Distributor.sol\":1157:1164  account */\n      dup1\n        /* \"Contracts/Access/Distributor.sol\":1140:1165  DistributorAdded(account) */\n      0xffffffffffffffffffffffffffffffffffffffff\n      and\n      0xddbf200aa634dc3fb81cfd68583dd1040d1c751d335e1d86b631bde3e977fea8\n      mload(0x40)\n      mload(0x40)\n      dup1\n      swap2\n      sub\n      swap1\n      log2\n        /* \"Contracts/Access/Distributor.sol\":1035:1173  function _addDistributor  (address account ) internal{... */\n      pop\n      jump\t// out\n        /* \"Contracts/Access/Manufacturer.sol\":1201:1350  function _removeManufacturer(address account ) internal {... */\n    tag_328:\n        /* \"Contracts/Access/Manufacturer.sol\":1268:1297  manufacturers.remove(account) */\n      tag_506\n        /* \"Contracts/Access/Manufacturer.sol\":1289:1296  account */\n      dup2\n        /* \"Contracts/Access/Manufacturer.sol\":1268:1281  manufacturers */\n      0x00\n        /* \"Contracts/Access/Manufacturer.sol\":1268:1288  manufacturers.remove */\n      tag_491\n      swap1\n        /* \"Contracts/Access/Manufacturer.sol\":1268:1297  manufacturers.remove(account) */\n      swap2\n      swap1\n      0xffffffff\n      and\n      jump\t// in\n    tag_506:\n        /* \"Contracts/Access/Manufacturer.sol\":1333:1340  account */\n      dup1\n        /* \"Contracts/Access/Manufacturer.sol\":1313:1342  ManufacturerRemoved(account ) */\n      0xffffffffffffffffffffffffffffffffffffffff\n      and\n      0x2fed5abf6a80d6dfe30b4895481b2fc5d7dce5f8f7b931832f4a2947d5040c7f\n      mload(0x40)\n      mload(0x40)\n      dup1\n      swap2\n      sub\n      swap1\n      log2\n        /* \"Contracts/Access/Manufacturer.sol\":1201:1350  function _removeManufacturer(address account ) internal {... */\n      pop\n      jump\t// out\n        /* \"Contracts/Access/Retailer.sol\":993:1122  function _addRetailer  (address account ) internal{... */\n    tag_335:\n        /* \"Contracts/Access/Retailer.sol\":1054:1076  retailers.add(account) */\n      tag_508\n        /* \"Contracts/Access/Retailer.sol\":1068:1075  account */\n      dup2\n        /* \"Contracts/Access/Retailer.sol\":1054:1063  retailers */\n      0x03\n        /* \"Contracts/Access/Retailer.sol\":1054:1067  retailers.add */\n      tag_153\n      swap1\n        /* \"Contracts/Access/Retailer.sol\":1054:1076  retailers.add(account) */\n      swap2\n      swap1\n      0xffffffff\n      and\n      jump\t// in\n    tag_508:\n        /* \"Contracts/Access/Retailer.sol\":1106:1113  account */\n      dup1\n        /* \"Contracts/Access/Retailer.sol\":1092:1114  RetailerAdded(account) */\n      0xffffffffffffffffffffffffffffffffffffffff\n      and\n      0x71ae26cad02663e3d92efd6ec56031a80d74a20c0ab4183faa8bf262261c9baa\n      mload(0x40)\n      mload(0x40)\n      dup1\n      swap2\n      sub\n      swap1\n      log2\n        /* \"Contracts/Access/Retailer.sol\":993:1122  function _addRetailer  (address account ) internal{... */\n      pop\n      jump\t// out\n        /* \"Contracts/Access/Wholesaler.sol\":1021:1156  function _addWholesaler  (address account ) internal{... */\n    tag_419:\n        /* \"Contracts/Access/Wholesaler.sol\":1084:1108  wholesalers.add(account) */\n      tag_510\n        /* \"Contracts/Access/Wholesaler.sol\":1100:1107  account */\n      dup2\n        /* \"Contracts/Access/Wholesaler.sol\":1084:1095  wholesalers */\n      0x02\n        /* \"Contracts/Access/Wholesaler.sol\":1084:1099  wholesalers.add */\n      tag_153\n      swap1\n        /* \"Contracts/Access/Wholesaler.sol\":1084:1108  wholesalers.add(account) */\n      swap2\n      swap1\n      0xffffffff\n      and\n      jump\t// in\n    tag_510:\n        /* \"Contracts/Access/Wholesaler.sol\":1140:1147  account */\n      dup1\n        /* \"Contracts/Access/Wholesaler.sol\":1124:1148  WholesalerAdded(account) */\n      0xffffffffffffffffffffffffffffffffffffffff\n      and\n      0xd8a7ad7929975a375d2b12bf49040286b5b105df0fe351f10df6d85e5b7142f7\n      mload(0x40)\n      mload(0x40)\n      dup1\n      swap2\n      sub\n      swap1\n      log2\n        /* \"Contracts/Access/Wholesaler.sol\":1021:1156  function _addWholesaler  (address account ) internal{... */\n      pop\n      jump\t// out\n        /* \"Contracts/Access/Retailer.sol\":1134:1271  function _removeRetailer(address account ) internal {... */\n    tag_423:\n        /* \"Contracts/Access/Retailer.sol\":1197:1222  retailers.remove(account) */\n      tag_512\n        /* \"Contracts/Access/Retailer.sol\":1214:1221  account */\n      dup2\n        /* \"Contracts/Access/Retailer.sol\":1197:1206  retailers */\n      0x03\n        /* \"Contracts/Access/Retailer.sol\":1197:1213  retailers.remove */\n      tag_491\n      swap1\n        /* \"Contracts/Access/Retailer.sol\":1197:1222  retailers.remove(account) */\n      swap2\n      swap1\n      0xffffffff\n      and\n      jump\t// in\n    tag_512:\n        /* \"Contracts/Access/Retailer.sol\":1254:1261  account */\n      dup1\n        /* \"Contracts/Access/Retailer.sol\":1238:1263  RetailerRemoved(account ) */\n      0xffffffffffffffffffffffffffffffffffffffff\n      and\n      0xdb7176e79cffef81cb01767dd0447a0b24bb72ca9778d4b245581086b2a7e6db\n      mload(0x40)\n      mload(0x40)\n      dup1\n      swap2\n      sub\n      swap1\n      log2\n        /* \"Contracts/Access/Retailer.sol\":1134:1271  function _removeRetailer(address account ) internal {... */\n      pop\n      jump\t// out\n        /* \"Contracts/Access/Roles.sol\":351:545  function remove(Role storage role , address account) internal {... */\n    tag_491:\n        /* \"Contracts/Access/Roles.sol\":453:454  0 */\n      0x00\n        /* \"Contracts/Access/Roles.sol\":434:455  account != address(0) */\n      0xffffffffffffffffffffffffffffffffffffffff\n      and\n        /* \"Contracts/Access/Roles.sol\":434:441  account */\n      dup2\n        /* \"Contracts/Access/Roles.sol\":434:455  account != address(0) */\n      0xffffffffffffffffffffffffffffffffffffffff\n      and\n      sub\n        /* \"Contracts/Access/Roles.sol\":424:457  require( (account != address(0))) */\n      tag_514\n      jumpi\n      0x00\n      dup1\n      revert\n    tag_514:\n        /* \"Contracts/Access/Roles.sol\":476:496  has(role , account ) */\n      tag_515\n        /* \"Contracts/Access/Roles.sol\":480:484  role */\n      dup3\n        /* \"Contracts/Access/Roles.sol\":487:494  account */\n      dup3\n        /* \"Contracts/Access/Roles.sol\":476:479  has */\n      tag_198\n        /* \"Contracts/Access/Roles.sol\":476:496  has(role , account ) */\n      jump\t// in\n    tag_515:\n        /* \"Contracts/Access/Roles.sol\":468:497  require(has(role , account )) */\n      tag_516\n      jumpi\n      0x00\n      dup1\n      revert\n    tag_516:\n        /* \"Contracts/Access/Roles.sol\":530:535  false */\n      0x00\n        /* \"Contracts/Access/Roles.sol\":508:512  role */\n      dup3\n        /* \"Contracts/Access/Roles.sol\":508:519  role.bearer */\n      0x00\n      add\n        /* \"Contracts/Access/Roles.sol\":508:528  role.bearer[account] */\n      0x00\n        /* \"Contracts/Access/Roles.sol\":520:527  account */\n      dup4\n        /* \"Contracts/Access/Roles.sol\":508:528  role.bearer[account] */\n      0xffffffffffffffffffffffffffffffffffffffff\n      and\n      0xffffffffffffffffffffffffffffffffffffffff\n      and\n      dup2\n      mstore\n      0x20\n      add\n      swap1\n      dup2\n      mstore\n      0x20\n      add\n      0x00\n      keccak256\n      0x00\n        /* \"Contracts/Access/Roles.sol\":508:535  role.bearer[account]= false */\n      0x0100\n      exp\n      dup2\n      sload\n      dup2\n      0xff\n      mul\n      not\n      and\n      swap1\n      dup4\n      iszero\n      iszero\n      mul\n      or\n      swap1\n      sstore\n      pop\n        /* \"Contracts/Access/Roles.sol\":351:545  function remove(Role storage role , address account) internal {... */\n      pop\n      pop\n      jump\t// out\n    tag_344:\n      mload(0x40)\n      dup1\n      0x01e0\n      add\n      0x40\n      mstore\n      dup1\n      0x00\n      dup2\n      mstore\n      0x20\n      add\n      0x00\n      dup2\n      mstore\n      0x20\n      add\n      and(0xffffffffffffffffffffffffffffffffffffffff, 0x00)\n      dup2\n      mstore\n      0x20\n      add\n      and(0xffffffffffffffffffffffffffffffffffffffff, 0x00)\n      dup2\n      mstore\n      0x20\n      add\n      0x00\n      dup2\n      mstore\n      0x20\n      add\n      0x60\n      dup2\n      mstore\n      0x20\n      add\n      0x00\n      0x10\n      dup2\n      gt\n      iszero\n      tag_517\n      jumpi\n      tag_518\n      tag_173\n      jump\t// in\n    tag_518:\n    tag_517:\n      dup2\n      mstore\n      0x20\n      add\n      0x00\n      dup2\n      mstore\n      0x20\n      add\n      0x00\n      dup2\n      mstore\n      0x20\n      add\n      and(0xffffffffffffffffffffffffffffffffffffffff, 0x00)\n      dup2\n      mstore\n      0x20\n      add\n      and(0xffffffffffffffffffffffffffffffffffffffff, 0x00)\n      dup2\n      mstore\n      0x20\n      add\n      and(0xffffffffffffffffffffffffffffffffffffffff, 0x00)\n      dup2\n      mstore\n      0x20\n      add\n      and(0xffffffffffffffffffffffffffffffffffffffff, 0x00)\n      dup2\n      mstore\n      0x20\n      add\n      0x00\n      dup2\n      mstore\n      0x20\n      add\n      0x00\n      dup2\n      mstore\n      pop\n      swap1\n      jump\t// out\n    tag_358:\n      mload(0x40)\n      dup1\n      0x80\n      add\n      0x40\n      mstore\n      dup1\n      0x00\n      dup2\n      mstore\n      0x20\n      add\n      0x00\n      dup2\n      mstore\n      0x20\n      add\n      0x00\n      dup2\n      mstore\n      0x20\n      add\n      0x00\n      dup2\n      mstore\n      pop\n      swap1\n      jump\t// out\n        /* \"#utility.yul\":7:82   */\n    tag_519:\n        /* \"#utility.yul\":40:46   */\n      0x00\n        /* \"#utility.yul\":73:75   */\n      0x40\n        /* \"#utility.yul\":67:76   */\n      mload\n        /* \"#utility.yul\":57:76   */\n      swap1\n      pop\n        /* \"#utility.yul\":7:82   */\n      swap1\n      jump\t// out\n        /* \"#utility.yul\":88:205   */\n    tag_520:\n        /* \"#utility.yul\":197:198   */\n      0x00\n        /* \"#utility.yul\":194:195   */\n      dup1\n        /* \"#utility.yul\":187:199   */\n      revert\n        /* \"#utility.yul\":211:328   */\n    tag_521:\n        /* \"#utility.yul\":320:321   */\n      0x00\n        /* \"#utility.yul\":317:318   */\n      dup1\n        /* \"#utility.yul\":310:322   */\n      revert\n        /* \"#utility.yul\":334:460   */\n    tag_522:\n        /* \"#utility.yul\":371:378   */\n      0x00\n        /* \"#utility.yul\":411:453   */\n      0xffffffffffffffffffffffffffffffffffffffff\n        /* \"#utility.yul\":404:409   */\n      dup3\n        /* \"#utility.yul\":400:454   */\n      and\n        /* \"#utility.yul\":389:454   */\n      swap1\n      pop\n        /* \"#utility.yul\":334:460   */\n      swap2\n      swap1\n      pop\n      jump\t// out\n        /* \"#utility.yul\":466:562   */\n    tag_523:\n        /* \"#utility.yul\":503:510   */\n      0x00\n        /* \"#utility.yul\":532:556   */\n      tag_567\n        /* \"#utility.yul\":550:555   */\n      dup3\n        /* \"#utility.yul\":532:556   */\n      tag_522\n      jump\t// in\n    tag_567:\n        /* \"#utility.yul\":521:556   */\n      swap1\n      pop\n        /* \"#utility.yul\":466:562   */\n      swap2\n      swap1\n      pop\n      jump\t// out\n        /* \"#utility.yul\":568:690   */\n    tag_524:\n        /* \"#utility.yul\":641:665   */\n      tag_569\n        /* \"#utility.yul\":659:664   */\n      dup2\n        /* \"#utility.yul\":641:665   */\n      tag_523\n      jump\t// in\n    tag_569:\n        /* \"#utility.yul\":634:639   */\n      dup2\n        /* \"#utility.yul\":631:666   */\n      eq\n        /* \"#utility.yul\":621:684   */\n      tag_570\n      jumpi\n        /* \"#utility.yul\":680:681   */\n      0x00\n        /* \"#utility.yul\":677:678   */\n      dup1\n        /* \"#utility.yul\":670:682   */\n      revert\n        /* \"#utility.yul\":621:684   */\n    tag_570:\n        /* \"#utility.yul\":568:690   */\n      pop\n      jump\t// out\n        /* \"#utility.yul\":696:835   */\n    tag_525:\n        /* \"#utility.yul\":742:747   */\n      0x00\n        /* \"#utility.yul\":780:786   */\n      dup2\n        /* \"#utility.yul\":767:787   */\n      calldataload\n        /* \"#utility.yul\":758:787   */\n      swap1\n      pop\n        /* \"#utility.yul\":796:829   */\n      tag_572\n        /* \"#utility.yul\":823:828   */\n      dup2\n        /* \"#utility.yul\":796:829   */\n      tag_524\n      jump\t// in\n    tag_572:\n        /* \"#utility.yul\":696:835   */\n      swap3\n      swap2\n      pop\n      pop\n      jump\t// out\n        /* \"#utility.yul\":841:1170   */\n    tag_44:\n        /* \"#utility.yul\":900:906   */\n      0x00\n        /* \"#utility.yul\":949:951   */\n      0x20\n        /* \"#utility.yul\":937:946   */\n      dup3\n        /* \"#utility.yul\":928:935   */\n      dup5\n        /* \"#utility.yul\":924:947   */\n      sub\n        /* \"#utility.yul\":920:952   */\n      slt\n        /* \"#utility.yul\":917:1036   */\n      iszero\n      tag_574\n      jumpi\n        /* \"#utility.yul\":955:1034   */\n      tag_575\n      tag_520\n      jump\t// in\n    tag_575:\n        /* \"#utility.yul\":917:1036   */\n    tag_574:\n        /* \"#utility.yul\":1075:1076   */\n      0x00\n        /* \"#utility.yul\":1100:1153   */\n      tag_576\n        /* \"#utility.yul\":1145:1152   */\n      dup5\n        /* \"#utility.yul\":1136:1142   */\n      dup3\n        /* \"#utility.yul\":1125:1134   */\n      dup6\n        /* \"#utility.yul\":1121:1143   */\n      add\n        /* \"#utility.yul\":1100:1153   */\n      tag_525\n      jump\t// in\n    tag_576:\n        /* \"#utility.yul\":1090:1153   */\n      swap2\n      pop\n        /* \"#utility.yul\":1046:1163   */\n      pop\n        /* \"#utility.yul\":841:1170   */\n      swap3\n      swap2\n      pop\n      pop\n      jump\t// out\n        /* \"#utility.yul\":1176:1253   */\n    tag_526:\n        /* \"#utility.yul\":1213:1220   */\n      0x00\n        /* \"#utility.yul\":1242:1247   */\n      dup2\n        /* \"#utility.yul\":1231:1247   */\n      swap1\n      pop\n        /* \"#utility.yul\":1176:1253   */\n      swap2\n      swap1\n      pop\n      jump\t// out\n        /* \"#utility.yul\":1259:1381   */\n    tag_527:\n        /* \"#utility.yul\":1332:1356   */\n      tag_579\n        /* \"#utility.yul\":1350:1355   */\n      dup2\n        /* \"#utility.yul\":1332:1356   */\n      tag_526\n      jump\t// in\n    tag_579:\n        /* \"#utility.yul\":1325:1330   */\n      dup2\n        /* \"#utility.yul\":1322:1357   */\n      eq\n        /* \"#utility.yul\":1312:1375   */\n      tag_580\n      jumpi\n        /* \"#utility.yul\":1371:1372   */\n      0x00\n        /* \"#utility.yul\":1368:1369   */\n      dup1\n        /* \"#utility.yul\":1361:1373   */\n      revert\n        /* \"#utility.yul\":1312:1375   */\n    tag_580:\n        /* \"#utility.yul\":1259:1381   */\n      pop\n      jump\t// out\n        /* \"#utility.yul\":1387:1526   */\n    tag_528:\n        /* \"#utility.yul\":1433:1438   */\n      0x00\n        /* \"#utility.yul\":1471:1477   */\n      dup2\n        /* \"#utility.yul\":1458:1478   */\n      calldataload\n        /* \"#utility.yul\":1449:1478   */\n      swap1\n      pop\n        /* \"#utility.yul\":1487:1520   */\n      tag_582\n        /* \"#utility.yul\":1514:1519   */\n      dup2\n        /* \"#utility.yul\":1487:1520   */\n      tag_527\n      jump\t// in\n    tag_582:\n        /* \"#utility.yul\":1387:1526   */\n      swap3\n      swap2\n      pop\n      pop\n      jump\t// out\n        /* \"#utility.yul\":1532:1861   */\n    tag_48:\n        /* \"#utility.yul\":1591:1597   */\n      0x00\n        /* \"#utility.yul\":1640:1642   */\n      0x20\n        /* \"#utility.yul\":1628:1637   */\n      dup3\n        /* \"#utility.yul\":1619:1626   */\n      dup5\n        /* \"#utility.yul\":1615:1638   */\n      sub\n        /* \"#utility.yul\":1611:1643   */\n      slt\n        /* \"#utility.yul\":1608:1727   */\n      iszero\n      tag_584\n      jumpi\n        /* \"#utility.yul\":1646:1725   */\n      tag_585\n      tag_520\n      jump\t// in\n    tag_585:\n        /* \"#utility.yul\":1608:1727   */\n    tag_584:\n        /* \"#utility.yul\":1766:1767   */\n      0x00\n        /* \"#utility.yul\":1791:1844   */\n      tag_586\n        /* \"#utility.yul\":1836:1843   */\n      dup5\n        /* \"#utility.yul\":1827:1833   */\n      dup3\n        /* \"#utility.yul\":1816:1825   */\n      dup6\n        /* \"#utility.yul\":1812:1834   */\n      add\n        /* \"#utility.yul\":1791:1844   */\n      tag_528\n      jump\t// in\n    tag_586:\n        /* \"#utility.yul\":1781:1844   */\n      swap2\n      pop\n        /* \"#utility.yul\":1737:1854   */\n      pop\n        /* \"#utility.yul\":1532:1861   */\n      swap3\n      swap2\n      pop\n      pop\n      jump\t// out\n        /* \"#utility.yul\":1867:1957   */\n    tag_529:\n        /* \"#utility.yul\":1901:1908   */\n      0x00\n        /* \"#utility.yul\":1944:1949   */\n      dup2\n        /* \"#utility.yul\":1937:1950   */\n      iszero\n        /* \"#utility.yul\":1930:1951   */\n      iszero\n        /* \"#utility.yul\":1919:1951   */\n      swap1\n      pop\n        /* \"#utility.yul\":1867:1957   */\n      swap2\n      swap1\n      pop\n      jump\t// out\n        /* \"#utility.yul\":1963:2072   */\n    tag_530:\n        /* \"#utility.yul\":2044:2065   */\n      tag_589\n        /* \"#utility.yul\":2059:2064   */\n      dup2\n        /* \"#utility.yul\":2044:2065   */\n      tag_529\n      jump\t// in\n    tag_589:\n        /* \"#utility.yul\":2039:2042   */\n      dup3\n        /* \"#utility.yul\":2032:2066   */\n      mstore\n        /* \"#utility.yul\":1963:2072   */\n      pop\n      pop\n      jump\t// out\n        /* \"#utility.yul\":2078:2288   */\n    tag_55:\n        /* \"#utility.yul\":2165:2169   */\n      0x00\n        /* \"#utility.yul\":2203:2205   */\n      0x20\n        /* \"#utility.yul\":2192:2201   */\n      dup3\n        /* \"#utility.yul\":2188:2206   */\n      add\n        /* \"#utility.yul\":2180:2206   */\n      swap1\n      pop\n        /* \"#utility.yul\":2216:2281   */\n      tag_591\n        /* \"#utility.yul\":2278:2279   */\n      0x00\n        /* \"#utility.yul\":2267:2276   */\n      dup4\n        /* \"#utility.yul\":2263:2280   */\n      add\n        /* \"#utility.yul\":2254:2260   */\n      dup5\n        /* \"#utility.yul\":2216:2281   */\n      tag_530\n      jump\t// in\n    tag_591:\n        /* \"#utility.yul\":2078:2288   */\n      swap3\n      swap2\n      pop\n      pop\n      jump\t// out\n        /* \"#utility.yul\":2294:2768   */\n    tag_66:\n        /* \"#utility.yul\":2362:2368   */\n      0x00\n        /* \"#utility.yul\":2370:2376   */\n      dup1\n        /* \"#utility.yul\":2419:2421   */\n      0x40\n        /* \"#utility.yul\":2407:2416   */\n      dup4\n        /* \"#utility.yul\":2398:2405   */\n      dup6\n        /* \"#utility.yul\":2394:2417   */\n      sub\n        /* \"#utility.yul\":2390:2422   */\n      slt\n        /* \"#utility.yul\":2387:2506   */\n      iszero\n      tag_593\n      jumpi\n        /* \"#utility.yul\":2425:2504   */\n      tag_594\n      tag_520\n      jump\t// in\n    tag_594:\n        /* \"#utility.yul\":2387:2506   */\n    tag_593:\n        /* \"#utility.yul\":2545:2546   */\n      0x00\n        /* \"#utility.yul\":2570:2623   */\n      tag_595\n        /* \"#utility.yul\":2615:2622   */\n      dup6\n        /* \"#utility.yul\":2606:2612   */\n      dup3\n        /* \"#utility.yul\":2595:2604   */\n      dup7\n        /* \"#utility.yul\":2591:2613   */\n      add\n        /* \"#utility.yul\":2570:2623   */\n      tag_528\n      jump\t// in\n    tag_595:\n        /* \"#utility.yul\":2560:2623   */\n      swap3\n      pop\n        /* \"#utility.yul\":2516:2633   */\n      pop\n        /* \"#utility.yul\":2672:2674   */\n      0x20\n        /* \"#utility.yul\":2698:2751   */\n      tag_596\n        /* \"#utility.yul\":2743:2750   */\n      dup6\n        /* \"#utility.yul\":2734:2740   */\n      dup3\n        /* \"#utility.yul\":2723:2732   */\n      dup7\n        /* \"#utility.yul\":2719:2741   */\n      add\n        /* \"#utility.yul\":2698:2751   */\n      tag_528\n      jump\t// in\n    tag_596:\n        /* \"#utility.yul\":2688:2751   */\n      swap2\n      pop\n        /* \"#utility.yul\":2643:2761   */\n      pop\n        /* \"#utility.yul\":2294:2768   */\n      swap3\n      pop\n      swap3\n      swap1\n      pop\n      jump\t// out\n        /* \"#utility.yul\":2774:2891   */\n    tag_531:\n        /* \"#utility.yul\":2883:2884   */\n      0x00\n        /* \"#utility.yul\":2880:2881   */\n      dup1\n        /* \"#utility.yul\":2873:2885   */\n      revert\n        /* \"#utility.yul\":2897:3014   */\n    tag_532:\n        /* \"#utility.yul\":3006:3007   */\n      0x00\n        /* \"#utility.yul\":3003:3004   */\n      dup1\n        /* \"#utility.yul\":2996:3008   */\n      revert\n        /* \"#utility.yul\":3020:3122   */\n    tag_533:\n        /* \"#utility.yul\":3061:3067   */\n      0x00\n        /* \"#utility.yul\":3112:3114   */\n      0x1f\n        /* \"#utility.yul\":3108:3115   */\n      not\n        /* \"#utility.yul\":3103:3105   */\n      0x1f\n        /* \"#utility.yul\":3096:3101   */\n      dup4\n        /* \"#utility.yul\":3092:3106   */\n      add\n        /* \"#utility.yul\":3088:3116   */\n      and\n        /* \"#utility.yul\":3078:3116   */\n      swap1\n      pop\n        /* \"#utility.yul\":3020:3122   */\n      swap2\n      swap1\n      pop\n      jump\t// out\n        /* \"#utility.yul\":3128:3308   */\n    tag_534:\n        /* \"#utility.yul\":3176:3253   */\n      0x4e487b7100000000000000000000000000000000000000000000000000000000\n        /* \"#utility.yul\":3173:3174   */\n      0x00\n        /* \"#utility.yul\":3166:3254   */\n      mstore\n        /* \"#utility.yul\":3273:3277   */\n      0x41\n        /* \"#utility.yul\":3270:3271   */\n      0x04\n        /* \"#utility.yul\":3263:3278   */\n      mstore\n        /* \"#utility.yul\":3297:3301   */\n      0x24\n        /* \"#utility.yul\":3294:3295   */\n      0x00\n        /* \"#utility.yul\":3287:3302   */\n      revert\n        /* \"#utility.yul\":3314:3595   */\n    tag_535:\n        /* \"#utility.yul\":3397:3424   */\n      tag_602\n        /* \"#utility.yul\":3419:3423   */\n      dup3\n        /* \"#utility.yul\":3397:3424   */\n      tag_533\n      jump\t// in\n    tag_602:\n        /* \"#utility.yul\":3389:3395   */\n      dup2\n        /* \"#utility.yul\":3385:3425   */\n      add\n        /* \"#utility.yul\":3527:3533   */\n      dup2\n        /* \"#utility.yul\":3515:3525   */\n      dup2\n        /* \"#utility.yul\":3512:3534   */\n      lt\n        /* \"#utility.yul\":3491:3509   */\n      0xffffffffffffffff\n        /* \"#utility.yul\":3479:3489   */\n      dup3\n        /* \"#utility.yul\":3476:3510   */\n      gt\n        /* \"#utility.yul\":3473:3535   */\n      or\n        /* \"#utility.yul\":3470:3558   */\n      iszero\n      tag_603\n      jumpi\n        /* \"#utility.yul\":3538:3556   */\n      tag_604\n      tag_534\n      jump\t// in\n    tag_604:\n        /* \"#utility.yul\":3470:3558   */\n    tag_603:\n        /* \"#utility.yul\":3578:3588   */\n      dup1\n        /* \"#utility.yul\":3574:3576   */\n      0x40\n        /* \"#utility.yul\":3567:3589   */\n      mstore\n        /* \"#utility.yul\":3357:3595   */\n      pop\n        /* \"#utility.yul\":3314:3595   */\n      pop\n      pop\n      jump\t// out\n        /* \"#utility.yul\":3601:3730   */\n    tag_536:\n        /* \"#utility.yul\":3635:3641   */\n      0x00\n        /* \"#utility.yul\":3662:3682   */\n      tag_606\n      tag_519\n      jump\t// in\n    tag_606:\n        /* \"#utility.yul\":3652:3682   */\n      swap1\n      pop\n        /* \"#utility.yul\":3691:3724   */\n      tag_607\n        /* \"#utility.yul\":3719:3723   */\n      dup3\n        /* \"#utility.yul\":3711:3717   */\n      dup3\n        /* \"#utility.yul\":3691:3724   */\n      tag_535\n      jump\t// in\n    tag_607:\n        /* \"#utility.yul\":3601:3730   */\n      swap2\n      swap1\n      pop\n      jump\t// out\n        /* \"#utility.yul\":3736:4044   */\n    tag_537:\n        /* \"#utility.yul\":3798:3802   */\n      0x00\n        /* \"#utility.yul\":3888:3906   */\n      0xffffffffffffffff\n        /* \"#utility.yul\":3880:3886   */\n      dup3\n        /* \"#utility.yul\":3877:3907   */\n      gt\n        /* \"#utility.yul\":3874:3930   */\n      iszero\n      tag_609\n      jumpi\n        /* \"#utility.yul\":3910:3928   */\n      tag_610\n      tag_534\n      jump\t// in\n    tag_610:\n        /* \"#utility.yul\":3874:3930   */\n    tag_609:\n        /* \"#utility.yul\":3948:3977   */\n      tag_611\n        /* \"#utility.yul\":3970:3976   */\n      dup3\n        /* \"#utility.yul\":3948:3977   */\n      tag_533\n      jump\t// in\n    tag_611:\n        /* \"#utility.yul\":3940:3977   */\n      swap1\n      pop\n        /* \"#utility.yul\":4032:4036   */\n      0x20\n        /* \"#utility.yul\":4026:4030   */\n      dup2\n        /* \"#utility.yul\":4022:4037   */\n      add\n        /* \"#utility.yul\":4014:4037   */\n      swap1\n      pop\n        /* \"#utility.yul\":3736:4044   */\n      swap2\n      swap1\n      pop\n      jump\t// out\n        /* \"#utility.yul\":4050:4196   */\n    tag_538:\n        /* \"#utility.yul\":4147:4153   */\n      dup3\n        /* \"#utility.yul\":4142:4145   */\n      dup2\n        /* \"#utility.yul\":4137:4140   */\n      dup4\n        /* \"#utility.yul\":4124:4154   */\n      calldatacopy\n        /* \"#utility.yul\":4188:4189   */\n      0x00\n        /* \"#utility.yul\":4179:4185   */\n      dup4\n        /* \"#utility.yul\":4174:4177   */\n      dup4\n        /* \"#utility.yul\":4170:4186   */\n      add\n        /* \"#utility.yul\":4163:4190   */\n      mstore\n        /* \"#utility.yul\":4050:4196   */\n      pop\n      pop\n      pop\n      jump\t// out\n        /* \"#utility.yul\":4202:4627   */\n    tag_539:\n        /* \"#utility.yul\":4280:4285   */\n      0x00\n        /* \"#utility.yul\":4305:4371   */\n      tag_614\n        /* \"#utility.yul\":4321:4370   */\n      tag_615\n        /* \"#utility.yul\":4363:4369   */\n      dup5\n        /* \"#utility.yul\":4321:4370   */\n      tag_537\n      jump\t// in\n    tag_615:\n        /* \"#utility.yul\":4305:4371   */\n      tag_536\n      jump\t// in\n    tag_614:\n        /* \"#utility.yul\":4296:4371   */\n      swap1\n      pop\n        /* \"#utility.yul\":4394:4400   */\n      dup3\n        /* \"#utility.yul\":4387:4392   */\n      dup2\n        /* \"#utility.yul\":4380:4401   */\n      mstore\n        /* \"#utility.yul\":4432:4436   */\n      0x20\n        /* \"#utility.yul\":4425:4430   */\n      dup2\n        /* \"#utility.yul\":4421:4437   */\n      add\n        /* \"#utility.yul\":4470:4473   */\n      dup5\n        /* \"#utility.yul\":4461:4467   */\n      dup5\n        /* \"#utility.yul\":4456:4459   */\n      dup5\n        /* \"#utility.yul\":4452:4468   */\n      add\n        /* \"#utility.yul\":4449:4474   */\n      gt\n        /* \"#utility.yul\":4446:4558   */\n      iszero\n      tag_616\n      jumpi\n        /* \"#utility.yul\":4477:4556   */\n      tag_617\n      tag_532\n      jump\t// in\n    tag_617:\n        /* \"#utility.yul\":4446:4558   */\n    tag_616:\n        /* \"#utility.yul\":4567:4621   */\n      tag_618\n        /* \"#utility.yul\":4614:4620   */\n      dup5\n        /* \"#utility.yul\":4609:4612   */\n      dup3\n        /* \"#utility.yul\":4604:4607   */\n      dup6\n        /* \"#utility.yul\":4567:4621   */\n      tag_538\n      jump\t// in\n    tag_618:\n        /* \"#utility.yul\":4286:4627   */\n      pop\n        /* \"#utility.yul\":4202:4627   */\n      swap4\n      swap3\n      pop\n      pop\n      pop\n      jump\t// out\n        /* \"#utility.yul\":4647:4987   */\n    tag_540:\n        /* \"#utility.yul\":4703:4708   */\n      0x00\n        /* \"#utility.yul\":4752:4755   */\n      dup3\n        /* \"#utility.yul\":4745:4749   */\n      0x1f\n        /* \"#utility.yul\":4737:4743   */\n      dup4\n        /* \"#utility.yul\":4733:4750   */\n      add\n        /* \"#utility.yul\":4729:4756   */\n      slt\n        /* \"#utility.yul\":4719:4841   */\n      tag_620\n      jumpi\n        /* \"#utility.yul\":4760:4839   */\n      tag_621\n      tag_531\n      jump\t// in\n    tag_621:\n        /* \"#utility.yul\":4719:4841   */\n    tag_620:\n        /* \"#utility.yul\":4877:4883   */\n      dup2\n        /* \"#utility.yul\":4864:4884   */\n      calldataload\n        /* \"#utility.yul\":4902:4981   */\n      tag_622\n        /* \"#utility.yul\":4977:4980   */\n      dup5\n        /* \"#utility.yul\":4969:4975   */\n      dup3\n        /* \"#utility.yul\":4962:4966   */\n      0x20\n        /* \"#utility.yul\":4954:4960   */\n      dup7\n        /* \"#utility.yul\":4950:4967   */\n      add\n        /* \"#utility.yul\":4902:4981   */\n      tag_539\n      jump\t// in\n    tag_622:\n        /* \"#utility.yul\":4893:4981   */\n      swap2\n      pop\n        /* \"#utility.yul\":4709:4987   */\n      pop\n        /* \"#utility.yul\":4647:4987   */\n      swap3\n      swap2\n      pop\n      pop\n      jump\t// out\n        /* \"#utility.yul\":4993:5792   */\n    tag_122:\n        /* \"#utility.yul\":5080:5086   */\n      0x00\n        /* \"#utility.yul\":5088:5094   */\n      dup1\n        /* \"#utility.yul\":5096:5102   */\n      0x00\n        /* \"#utility.yul\":5145:5147   */\n      0x60\n        /* \"#utility.yul\":5133:5142   */\n      dup5\n        /* \"#utility.yul\":5124:5131   */\n      dup7\n        /* \"#utility.yul\":5120:5143   */\n      sub\n        /* \"#utility.yul\":5116:5148   */\n      slt\n        /* \"#utility.yul\":5113:5232   */\n      iszero\n      tag_624\n      jumpi\n        /* \"#utility.yul\":5151:5230   */\n      tag_625\n      tag_520\n      jump\t// in\n    tag_625:\n        /* \"#utility.yul\":5113:5232   */\n    tag_624:\n        /* \"#utility.yul\":5271:5272   */\n      0x00\n        /* \"#utility.yul\":5296:5349   */\n      tag_626\n        /* \"#utility.yul\":5341:5348   */\n      dup7\n        /* \"#utility.yul\":5332:5338   */\n      dup3\n        /* \"#utility.yul\":5321:5330   */\n      dup8\n        /* \"#utility.yul\":5317:5339   */\n      add\n        /* \"#utility.yul\":5296:5349   */\n      tag_528\n      jump\t// in\n    tag_626:\n        /* \"#utility.yul\":5286:5349   */\n      swap4\n      pop\n        /* \"#utility.yul\":5242:5359   */\n      pop\n        /* \"#utility.yul\":5426:5428   */\n      0x20\n        /* \"#utility.yul\":5415:5424   */\n      dup5\n        /* \"#utility.yul\":5411:5429   */\n      add\n        /* \"#utility.yul\":5398:5430   */\n      calldataload\n        /* \"#utility.yul\":5457:5475   */\n      0xffffffffffffffff\n        /* \"#utility.yul\":5449:5455   */\n      dup2\n        /* \"#utility.yul\":5446:5476   */\n      gt\n        /* \"#utility.yul\":5443:5560   */\n      iszero\n      tag_627\n      jumpi\n        /* \"#utility.yul\":5479:5558   */\n      tag_628\n      tag_521\n      jump\t// in\n    tag_628:\n        /* \"#utility.yul\":5443:5560   */\n    tag_627:\n        /* \"#utility.yul\":5584:5647   */\n      tag_629\n        /* \"#utility.yul\":5639:5646   */\n      dup7\n        /* \"#utility.yul\":5630:5636   */\n      dup3\n        /* \"#utility.yul\":5619:5628   */\n      dup8\n        /* \"#utility.yul\":5615:5637   */\n      add\n        /* \"#utility.yul\":5584:5647   */\n      tag_540\n      jump\t// in\n    tag_629:\n        /* \"#utility.yul\":5574:5647   */\n      swap3\n      pop\n        /* \"#utility.yul\":5369:5657   */\n      pop\n        /* \"#utility.yul\":5696:5698   */\n      0x40\n        /* \"#utility.yul\":5722:5775   */\n      tag_630\n        /* \"#utility.yul\":5767:5774   */\n      dup7\n        /* \"#utility.yul\":5758:5764   */\n      dup3\n        /* \"#utility.yul\":5747:5756   */\n      dup8\n        /* \"#utility.yul\":5743:5765   */\n      add\n        /* \"#utility.yul\":5722:5775   */\n      tag_528\n      jump\t// in\n    tag_630:\n        /* \"#utility.yul\":5712:5775   */\n      swap2\n      pop\n        /* \"#utility.yul\":5667:5785   */\n      pop\n        /* \"#utility.yul\":4993:5792   */\n      swap3\n      pop\n      swap3\n      pop\n      swap3\n      jump\t// out\n        /* \"#utility.yul\":5798:5978   */\n    tag_173:\n        /* \"#utility.yul\":5846:5923   */\n      0x4e487b7100000000000000000000000000000000000000000000000000000000\n        /* \"#utility.yul\":5843:5844   */\n      0x00\n        /* \"#utility.yul\":5836:5924   */\n      mstore\n        /* \"#utility.yul\":5943:5947   */\n      0x21\n        /* \"#utility.yul\":5940:5941   */\n      0x04\n        /* \"#utility.yul\":5933:5948   */\n      mstore\n        /* \"#utility.yul\":5967:5971   */\n      0x24\n        /* \"#utility.yul\":5964:5965   */\n      0x00\n        /* \"#utility.yul\":5957:5972   */\n      revert\n        /* \"#utility.yul\":5984:6164   */\n    tag_541:\n        /* \"#utility.yul\":6032:6109   */\n      0x4e487b7100000000000000000000000000000000000000000000000000000000\n        /* \"#utility.yul\":6029:6030   */\n      0x00\n        /* \"#utility.yul\":6022:6110   */\n      mstore\n        /* \"#utility.yul\":6129:6133   */\n      0x11\n        /* \"#utility.yul\":6126:6127   */\n      0x04\n        /* \"#utility.yul\":6119:6134   */\n      mstore\n        /* \"#utility.yul\":6153:6157   */\n      0x24\n        /* \"#utility.yul\":6150:6151   */\n      0x00\n        /* \"#utility.yul\":6143:6158   */\n      revert\n        /* \"#utility.yul\":6170:6364   */\n    tag_182:\n        /* \"#utility.yul\":6210:6214   */\n      0x00\n        /* \"#utility.yul\":6230:6250   */\n      tag_634\n        /* \"#utility.yul\":6248:6249   */\n      dup3\n        /* \"#utility.yul\":6230:6250   */\n      tag_526\n      jump\t// in\n    tag_634:\n        /* \"#utility.yul\":6225:6250   */\n      swap2\n      pop\n        /* \"#utility.yul\":6264:6284   */\n      tag_635\n        /* \"#utility.yul\":6282:6283   */\n      dup4\n        /* \"#utility.yul\":6264:6284   */\n      tag_526\n      jump\t// in\n    tag_635:\n        /* \"#utility.yul\":6259:6284   */\n      swap3\n      pop\n        /* \"#utility.yul\":6308:6309   */\n      dup3\n        /* \"#utility.yul\":6305:6306   */\n      dup3\n        /* \"#utility.yul\":6301:6310   */\n      sub\n        /* \"#utility.yul\":6293:6310   */\n      swap1\n      pop\n        /* \"#utility.yul\":6332:6333   */\n      dup2\n        /* \"#utility.yul\":6326:6330   */\n      dup2\n        /* \"#utility.yul\":6323:6334   */\n      gt\n        /* \"#utility.yul\":6320:6357   */\n      iszero\n      tag_636\n      jumpi\n        /* \"#utility.yul\":6337:6355   */\n      tag_637\n      tag_541\n      jump\t// in\n    tag_637:\n        /* \"#utility.yul\":6320:6357   */\n    tag_636:\n        /* \"#utility.yul\":6170:6364   */\n      swap3\n      swap2\n      pop\n      pop\n      jump\t// out\n        /* \"#utility.yul\":6370:6488   */\n    tag_542:\n        /* \"#utility.yul\":6457:6481   */\n      tag_639\n        /* \"#utility.yul\":6475:6480   */\n      dup2\n        /* \"#utility.yul\":6457:6481   */\n      tag_526\n      jump\t// in\n    tag_639:\n        /* \"#utility.yul\":6452:6455   */\n      dup3\n        /* \"#utility.yul\":6445:6482   */\n      mstore\n        /* \"#utility.yul\":6370:6488   */\n      pop\n      pop\n      jump\t// out\n        /* \"#utility.yul\":6494:6716   */\n    tag_195:\n        /* \"#utility.yul\":6587:6591   */\n      0x00\n        /* \"#utility.yul\":6625:6627   */\n      0x20\n        /* \"#utility.yul\":6614:6623   */\n      dup3\n        /* \"#utility.yul\":6610:6628   */\n      add\n        /* \"#utility.yul\":6602:6628   */\n      swap1\n      pop\n        /* \"#utility.yul\":6638:6709   */\n      tag_641\n        /* \"#utility.yul\":6706:6707   */\n      0x00\n        /* \"#utility.yul\":6695:6704   */\n      dup4\n        /* \"#utility.yul\":6691:6708   */\n      add\n        /* \"#utility.yul\":6682:6688   */\n      dup5\n        /* \"#utility.yul\":6638:6709   */\n      tag_542\n      jump\t// in\n    tag_641:\n        /* \"#utility.yul\":6494:6716   */\n      swap3\n      swap2\n      pop\n      pop\n      jump\t// out\n        /* \"#utility.yul\":6722:6913   */\n    tag_348:\n        /* \"#utility.yul\":6762:6765   */\n      0x00\n        /* \"#utility.yul\":6781:6801   */\n      tag_643\n        /* \"#utility.yul\":6799:6800   */\n      dup3\n        /* \"#utility.yul\":6781:6801   */\n      tag_526\n      jump\t// in\n    tag_643:\n        /* \"#utility.yul\":6776:6801   */\n      swap2\n      pop\n        /* \"#utility.yul\":6815:6835   */\n      tag_644\n        /* \"#utility.yul\":6833:6834   */\n      dup4\n        /* \"#utility.yul\":6815:6835   */\n      tag_526\n      jump\t// in\n    tag_644:\n        /* \"#utility.yul\":6810:6835   */\n      swap3\n      pop\n        /* \"#utility.yul\":6858:6859   */\n      dup3\n        /* \"#utility.yul\":6855:6856   */\n      dup3\n        /* \"#utility.yul\":6851:6860   */\n      add\n        /* \"#utility.yul\":6844:6860   */\n      swap1\n      pop\n        /* \"#utility.yul\":6879:6882   */\n      dup1\n        /* \"#utility.yul\":6876:6877   */\n      dup3\n        /* \"#utility.yul\":6873:6883   */\n      gt\n        /* \"#utility.yul\":6870:6906   */\n      iszero\n      tag_645\n      jumpi\n        /* \"#utility.yul\":6886:6904   */\n      tag_646\n      tag_541\n      jump\t// in\n    tag_646:\n        /* \"#utility.yul\":6870:6906   */\n    tag_645:\n        /* \"#utility.yul\":6722:6913   */\n      swap3\n      swap2\n      pop\n      pop\n      jump\t// out\n        /* \"#utility.yul\":6919:7018   */\n    tag_543:\n        /* \"#utility.yul\":6971:6977   */\n      0x00\n        /* \"#utility.yul\":7005:7010   */\n      dup2\n        /* \"#utility.yul\":6999:7011   */\n      mload\n        /* \"#utility.yul\":6989:7011   */\n      swap1\n      pop\n        /* \"#utility.yul\":6919:7018   */\n      swap2\n      swap1\n      pop\n      jump\t// out\n        /* \"#utility.yul\":7024:7204   */\n    tag_544:\n        /* \"#utility.yul\":7072:7149   */\n      0x4e487b7100000000000000000000000000000000000000000000000000000000\n        /* \"#utility.yul\":7069:7070   */\n      0x00\n        /* \"#utility.yul\":7062:7150   */\n      mstore\n        /* \"#utility.yul\":7169:7173   */\n      0x22\n        /* \"#utility.yul\":7166:7167   */\n      0x04\n        /* \"#utility.yul\":7159:7174   */\n      mstore\n        /* \"#utility.yul\":7193:7197   */\n      0x24\n        /* \"#utility.yul\":7190:7191   */\n      0x00\n        /* \"#utility.yul\":7183:7198   */\n      revert\n        /* \"#utility.yul\":7210:7530   */\n    tag_545:\n        /* \"#utility.yul\":7254:7260   */\n      0x00\n        /* \"#utility.yul\":7291:7292   */\n      0x02\n        /* \"#utility.yul\":7285:7289   */\n      dup3\n        /* \"#utility.yul\":7281:7293   */\n      div\n        /* \"#utility.yul\":7271:7293   */\n      swap1\n      pop\n        /* \"#utility.yul\":7338:7339   */\n      0x01\n        /* \"#utility.yul\":7332:7336   */\n      dup3\n        /* \"#utility.yul\":7328:7340   */\n      and\n        /* \"#utility.yul\":7359:7377   */\n      dup1\n        /* \"#utility.yul\":7349:7430   */\n      tag_650\n      jumpi\n        /* \"#utility.yul\":7415:7419   */\n      0x7f\n        /* \"#utility.yul\":7407:7413   */\n      dup3\n        /* \"#utility.yul\":7403:7420   */\n      and\n        /* \"#utility.yul\":7393:7420   */\n      swap2\n      pop\n        /* \"#utility.yul\":7349:7430   */\n    tag_650:\n        /* \"#utility.yul\":7477:7479   */\n      0x20\n        /* \"#utility.yul\":7469:7475   */\n      dup3\n        /* \"#utility.yul\":7466:7480   */\n      lt\n        /* \"#utility.yul\":7446:7464   */\n      dup2\n        /* \"#utility.yul\":7443:7481   */\n      sub\n        /* \"#utility.yul\":7440:7524   */\n      tag_651\n      jumpi\n        /* \"#utility.yul\":7496:7514   */\n      tag_652\n      tag_544\n      jump\t// in\n    tag_652:\n        /* \"#utility.yul\":7440:7524   */\n    tag_651:\n        /* \"#utility.yul\":7261:7530   */\n      pop\n        /* \"#utility.yul\":7210:7530   */\n      swap2\n      swap1\n      pop\n      jump\t// out\n        /* \"#utility.yul\":7536:7677   */\n    tag_546:\n        /* \"#utility.yul\":7585:7589   */\n      0x00\n        /* \"#utility.yul\":7608:7611   */\n      dup2\n        /* \"#utility.yul\":7600:7611   */\n      swap1\n      pop\n        /* \"#utility.yul\":7631:7634   */\n      dup2\n        /* \"#utility.yul\":7628:7629   */\n      0x00\n        /* \"#utility.yul\":7621:7635   */\n      mstore\n        /* \"#utility.yul\":7665:7669   */\n      0x20\n        /* \"#utility.yul\":7662:7663   */\n      0x00\n        /* \"#utility.yul\":7652:7670   */\n      keccak256\n        /* \"#utility.yul\":7644:7670   */\n      swap1\n      pop\n        /* \"#utility.yul\":7536:7677   */\n      swap2\n      swap1\n      pop\n      jump\t// out\n        /* \"#utility.yul\":7683:7776   */\n    tag_547:\n        /* \"#utility.yul\":7720:7726   */\n      0x00\n        /* \"#utility.yul\":7767:7769   */\n      0x20\n        /* \"#utility.yul\":7762:7764   */\n      0x1f\n        /* \"#utility.yul\":7755:7760   */\n      dup4\n        /* \"#utility.yul\":7751:7765   */\n      add\n        /* \"#utility.yul\":7747:7770   */\n      div\n        /* \"#utility.yul\":7737:7770   */\n      swap1\n      pop\n        /* \"#utility.yul\":7683:7776   */\n      swap2\n      swap1\n      pop\n      jump\t// out\n        /* \"#utility.yul\":7782:7889   */\n    tag_548:\n        /* \"#utility.yul\":7826:7834   */\n      0x00\n        /* \"#utility.yul\":7876:7881   */\n      dup3\n        /* \"#utility.yul\":7870:7874   */\n      dup3\n        /* \"#utility.yul\":7866:7882   */\n      shl\n        /* \"#utility.yul\":7845:7882   */\n      swap1\n      pop\n        /* \"#utility.yul\":7782:7889   */\n      swap3\n      swap2\n      pop\n      pop\n      jump\t// out\n        /* \"#utility.yul\":7895:8288   */\n    tag_549:\n        /* \"#utility.yul\":7964:7970   */\n      0x00\n        /* \"#utility.yul\":8014:8015   */\n      0x08\n        /* \"#utility.yul\":8002:8012   */\n      dup4\n        /* \"#utility.yul\":7998:8016   */\n      mul\n        /* \"#utility.yul\":8037:8134   */\n      tag_657\n        /* \"#utility.yul\":8067:8133   */\n      0xffffffffffffffffffffffffffffffffffffffffffffffffffffffffffffffff\n        /* \"#utility.yul\":8056:8065   */\n      dup3\n        /* \"#utility.yul\":8037:8134   */\n      tag_548\n      jump\t// in\n    tag_657:\n        /* \"#utility.yul\":8155:8194   */\n      tag_658\n        /* \"#utility.yul\":8185:8193   */\n      dup7\n        /* \"#utility.yul\":8174:8183   */\n      dup4\n        /* \"#utility.yul\":8155:8194   */\n      tag_548\n      jump\t// in\n    tag_658:\n        /* \"#utility.yul\":8143:8194   */\n      swap6\n      pop\n        /* \"#utility.yul\":8227:8231   */\n      dup1\n        /* \"#utility.yul\":8223:8232   */\n      not\n        /* \"#utility.yul\":8216:8221   */\n      dup5\n        /* \"#utility.yul\":8212:8233   */\n      and\n        /* \"#utility.yul\":8203:8233   */\n      swap4\n      pop\n        /* \"#utility.yul\":8276:8280   */\n      dup1\n        /* \"#utility.yul\":8266:8274   */\n      dup7\n        /* \"#utility.yul\":8262:8281   */\n      and\n        /* \"#utility.yul\":8255:8260   */\n      dup5\n        /* \"#utility.yul\":8252:8282   */\n      or\n        /* \"#utility.yul\":8242:8282   */\n      swap3\n      pop\n        /* \"#utility.yul\":7971:8288   */\n      pop\n      pop\n        /* \"#utility.yul\":7895:8288   */\n      swap4\n      swap3\n      pop\n      pop\n      pop\n      jump\t// out\n        /* \"#utility.yul\":8294:8354   */\n    tag_550:\n        /* \"#utility.yul\":8322:8325   */\n      0x00\n        /* \"#utility.yul\":8343:8348   */\n      dup2\n        /* \"#utility.yul\":8336:8348   */\n      swap1\n      pop\n        /* \"#utility.yul\":8294:8354   */\n      swap2\n      swap1\n      pop\n      jump\t// out\n        /* \"#utility.yul\":8360:8502   */\n    tag_551:\n        /* \"#utility.yul\":8410:8419   */\n      0x00\n        /* \"#utility.yul\":8443:8496   */\n      tag_661\n        /* \"#utility.yul\":8461:8495   */\n      tag_662\n        /* \"#utility.yul\":8470:8494   */\n      tag_663\n        /* \"#utility.yul\":8488:8493   */\n      dup5\n        /* \"#utility.yul\":8470:8494   */\n      tag_526\n      jump\t// in\n    tag_663:\n        /* \"#utility.yul\":8461:8495   */\n      tag_550\n      jump\t// in\n    tag_662:\n        /* \"#utility.yul\":8443:8496   */\n      tag_526\n      jump\t// in\n    tag_661:\n        /* \"#utility.yul\":8430:8496   */\n      swap1\n      pop\n        /* \"#utility.yul\":8360:8502   */\n      swap2\n      swap1\n      pop\n      jump\t// out\n        /* \"#utility.yul\":8508:8583   */\n    tag_552:\n        /* \"#utility.yul\":8551:8554   */\n      0x00\n        /* \"#utility.yul\":8572:8577   */\n      dup2\n        /* \"#utility.yul\":8565:8577   */\n      swap1\n      pop\n        /* \"#utility.yul\":8508:8583   */\n      swap2\n      swap1\n      pop\n      jump\t// out\n        /* \"#utility.yul\":8589:8858   */\n    tag_553:\n        /* \"#utility.yul\":8699:8738   */\n      tag_666\n        /* \"#utility.yul\":8730:8737   */\n      dup4\n        /* \"#utility.yul\":8699:8738   */\n      tag_551\n      jump\t// in\n    tag_666:\n        /* \"#utility.yul\":8760:8851   */\n      tag_667\n        /* \"#utility.yul\":8809:8850   */\n      tag_668\n        /* \"#utility.yul\":8833:8849   */\n      dup3\n        /* \"#utility.yul\":8809:8850   */\n      tag_552\n      jump\t// in\n    tag_668:\n        /* \"#utility.yul\":8801:8807   */\n      dup5\n        /* \"#utility.yul\":8794:8798   */\n      dup5\n        /* \"#utility.yul\":8788:8799   */\n      sload\n        /* \"#utility.yul\":8760:8851   */\n      tag_549\n      jump\t// in\n    tag_667:\n        /* \"#utility.yul\":8754:8758   */\n      dup3\n        /* \"#utility.yul\":8747:8852   */\n      sstore\n        /* \"#utility.yul\":8665:8858   */\n      pop\n        /* \"#utility.yul\":8589:8858   */\n      pop\n      pop\n      pop\n      jump\t// out\n        /* \"#utility.yul\":8864:8937   */\n    tag_554:\n        /* \"#utility.yul\":8909:8912   */\n      0x00\n        /* \"#utility.yul\":8864:8937   */\n      swap1\n      jump\t// out\n        /* \"#utility.yul\":8943:9132   */\n    tag_555:\n        /* \"#utility.yul\":9020:9052   */\n      tag_671\n      tag_554\n      jump\t// in\n    tag_671:\n        /* \"#utility.yul\":9061:9126   */\n      tag_672\n        /* \"#utility.yul\":9119:9125   */\n      dup2\n        /* \"#utility.yul\":9111:9117   */\n      dup5\n        /* \"#utility.yul\":9105:9109   */\n      dup5\n        /* \"#utility.yul\":9061:9126   */\n      tag_553\n      jump\t// in\n    tag_672:\n        /* \"#utility.yul\":8996:9132   */\n      pop\n        /* \"#utility.yul\":8943:9132   */\n      pop\n      pop\n      jump\t// out\n        /* \"#utility.yul\":9138:9324   */\n    tag_556:\n        /* \"#utility.yul\":9198:9318   */\n    tag_674:\n        /* \"#utility.yul\":9215:9218   */\n      dup2\n        /* \"#utility.yul\":9208:9213   */\n      dup2\n        /* \"#utility.yul\":9205:9219   */\n      lt\n        /* \"#utility.yul\":9198:9318   */\n      iszero\n      tag_676\n      jumpi\n        /* \"#utility.yul\":9269:9308   */\n      tag_677\n        /* \"#utility.yul\":9306:9307   */\n      0x00\n        /* \"#utility.yul\":9299:9304   */\n      dup3\n        /* \"#utility.yul\":9269:9308   */\n      tag_555\n      jump\t// in\n    tag_677:\n        /* \"#utility.yul\":9242:9243   */\n      0x01\n        /* \"#utility.yul\":9235:9240   */\n      dup2\n        /* \"#utility.yul\":9231:9244   */\n      add\n        /* \"#utility.yul\":9222:9244   */\n      swap1\n      pop\n        /* \"#utility.yul\":9198:9318   */\n      jump(tag_674)\n    tag_676:\n        /* \"#utility.yul\":9138:9324   */\n      pop\n      pop\n      jump\t// out\n        /* \"#utility.yul\":9330:9873   */\n    tag_557:\n        /* \"#utility.yul\":9431:9433   */\n      0x1f\n        /* \"#utility.yul\":9426:9429   */\n      dup3\n        /* \"#utility.yul\":9423:9434   */\n      gt\n        /* \"#utility.yul\":9420:9866   */\n      iszero\n      tag_679\n      jumpi\n        /* \"#utility.yul\":9465:9503   */\n      tag_680\n        /* \"#utility.yul\":9497:9502   */\n      dup2\n        /* \"#utility.yul\":9465:9503   */\n      tag_546\n      jump\t// in\n    tag_680:\n        /* \"#utility.yul\":9549:9578   */\n      tag_681\n        /* \"#utility.yul\":9567:9577   */\n      dup5\n        /* \"#utility.yul\":9549:9578   */\n      tag_547\n      jump\t// in\n    tag_681:\n        /* \"#utility.yul\":9539:9547   */\n      dup2\n        /* \"#utility.yul\":9535:9579   */\n      add\n        /* \"#utility.yul\":9732:9734   */\n      0x20\n        /* \"#utility.yul\":9720:9730   */\n      dup6\n        /* \"#utility.yul\":9717:9735   */\n      lt\n        /* \"#utility.yul\":9714:9763   */\n      iszero\n      tag_682\n      jumpi\n        /* \"#utility.yul\":9753:9761   */\n      dup2\n        /* \"#utility.yul\":9738:9761   */\n      swap1\n      pop\n        /* \"#utility.yul\":9714:9763   */\n    tag_682:\n        /* \"#utility.yul\":9776:9856   */\n      tag_683\n        /* \"#utility.yul\":9832:9854   */\n      tag_684\n        /* \"#utility.yul\":9850:9853   */\n      dup6\n        /* \"#utility.yul\":9832:9854   */\n      tag_547\n      jump\t// in\n    tag_684:\n        /* \"#utility.yul\":9822:9830   */\n      dup4\n        /* \"#utility.yul\":9818:9855   */\n      add\n        /* \"#utility.yul\":9805:9816   */\n      dup3\n        /* \"#utility.yul\":9776:9856   */\n      tag_556\n      jump\t// in\n    tag_683:\n        /* \"#utility.yul\":9435:9866   */\n      pop\n      pop\n        /* \"#utility.yul\":9420:9866   */\n    tag_679:\n        /* \"#utility.yul\":9330:9873   */\n      pop\n      pop\n      pop\n      jump\t// out\n        /* \"#utility.yul\":9879:9996   */\n    tag_558:\n        /* \"#utility.yul\":9933:9941   */\n      0x00\n        /* \"#utility.yul\":9983:9988   */\n      dup3\n        /* \"#utility.yul\":9977:9981   */\n      dup3\n        /* \"#utility.yul\":9973:9989   */\n      shr\n        /* \"#utility.yul\":9952:9989   */\n      swap1\n      pop\n        /* \"#utility.yul\":9879:9996   */\n      swap3\n      swap2\n      pop\n      pop\n      jump\t// out\n        /* \"#utility.yul\":10002:10171   */\n    tag_559:\n        /* \"#utility.yul\":10046:10052   */\n      0x00\n        /* \"#utility.yul\":10079:10130   */\n      tag_687\n        /* \"#utility.yul\":10127:10128   */\n      0x00\n        /* \"#utility.yul\":10123:10129   */\n      not\n        /* \"#utility.yul\":10115:10120   */\n      dup5\n        /* \"#utility.yul\":10112:10113   */\n      0x08\n        /* \"#utility.yul\":10108:10121   */\n      mul\n        /* \"#utility.yul\":10079:10130   */\n      tag_558\n      jump\t// in\n    tag_687:\n        /* \"#utility.yul\":10075:10131   */\n      not\n        /* \"#utility.yul\":10160:10164   */\n      dup1\n        /* \"#utility.yul\":10154:10158   */\n      dup4\n        /* \"#utility.yul\":10150:10165   */\n      and\n        /* \"#utility.yul\":10140:10165   */\n      swap2\n      pop\n        /* \"#utility.yul\":10053:10171   */\n      pop\n        /* \"#utility.yul\":10002:10171   */\n      swap3\n      swap2\n      pop\n      pop\n      jump\t// out\n        /* \"#utility.yul\":10176:10471   */\n    tag_560:\n        /* \"#utility.yul\":10252:10256   */\n      0x00\n        /* \"#utility.yul\":10398:10427   */\n      tag_689\n        /* \"#utility.yul\":10423:10426   */\n      dup4\n        /* \"#utility.yul\":10417:10421   */\n      dup4\n        /* \"#utility.yul\":10398:10427   */\n      tag_559\n      jump\t// in\n    tag_689:\n        /* \"#utility.yul\":10390:10427   */\n      swap2\n      pop\n        /* \"#utility.yul\":10460:10463   */\n      dup3\n        /* \"#utility.yul\":10457:10458   */\n      0x02\n        /* \"#utility.yul\":10453:10464   */\n      mul\n        /* \"#utility.yul\":10447:10451   */\n      dup3\n        /* \"#utility.yul\":10444:10465   */\n      or\n        /* \"#utility.yul\":10436:10465   */\n      swap1\n      pop\n        /* \"#utility.yul\":10176:10471   */\n      swap3\n      swap2\n      pop\n      pop\n      jump\t// out\n        /* \"#utility.yul\":10476:11871   */\n    tag_354:\n        /* \"#utility.yul\":10593:10630   */\n      tag_691\n        /* \"#utility.yul\":10626:10629   */\n      dup3\n        /* \"#utility.yul\":10593:10630   */\n      tag_543\n      jump\t// in\n    tag_691:\n        /* \"#utility.yul\":10695:10713   */\n      0xffffffffffffffff\n        /* \"#utility.yul\":10687:10693   */\n      dup2\n        /* \"#utility.yul\":10684:10714   */\n      gt\n        /* \"#utility.yul\":10681:10737   */\n      iszero\n      tag_692\n      jumpi\n        /* \"#utility.yul\":10717:10735   */\n      tag_693\n      tag_534\n      jump\t// in\n    tag_693:\n        /* \"#utility.yul\":10681:10737   */\n    tag_692:\n        /* \"#utility.yul\":10761:10799   */\n      tag_694\n        /* \"#utility.yul\":10793:10797   */\n      dup3\n        /* \"#utility.yul\":10787:10798   */\n      sload\n        /* \"#utility.yul\":10761:10799   */\n      tag_545\n      jump\t// in\n    tag_694:\n        /* \"#utility.yul\":10846:10913   */\n      tag_695\n        /* \"#utility.yul\":10906:10912   */\n      dup3\n        /* \"#utility.yul\":10898:10904   */\n      dup3\n        /* \"#utility.yul\":10892:10896   */\n      dup6\n        /* \"#utility.yul\":10846:10913   */\n      tag_557\n      jump\t// in\n    tag_695:\n        /* \"#utility.yul\":10940:10941   */\n      0x00\n        /* \"#utility.yul\":10964:10968   */\n      0x20\n        /* \"#utility.yul\":10951:10968   */\n      swap1\n      pop\n        /* \"#utility.yul\":10996:10998   */\n      0x1f\n        /* \"#utility.yul\":10988:10994   */\n      dup4\n        /* \"#utility.yul\":10985:10999   */\n      gt\n        /* \"#utility.yul\":11013:11014   */\n      0x01\n        /* \"#utility.yul\":11008:11626   */\n      dup2\n      eq\n      tag_697\n      jumpi\n        /* \"#utility.yul\":11670:11671   */\n      0x00\n        /* \"#utility.yul\":11687:11693   */\n      dup5\n        /* \"#utility.yul\":11684:11761   */\n      iszero\n      tag_698\n      jumpi\n        /* \"#utility.yul\":11736:11745   */\n      dup3\n        /* \"#utility.yul\":11731:11734   */\n      dup8\n        /* \"#utility.yul\":11727:11746   */\n      add\n        /* \"#utility.yul\":11721:11747   */\n      mload\n        /* \"#utility.yul\":11712:11747   */\n      swap1\n      pop\n        /* \"#utility.yul\":11684:11761   */\n    tag_698:\n        /* \"#utility.yul\":11787:11854   */\n      tag_699\n        /* \"#utility.yul\":11847:11853   */\n      dup6\n        /* \"#utility.yul\":11840:11845   */\n      dup3\n        /* \"#utility.yul\":11787:11854   */\n      tag_560\n      jump\t// in\n    tag_699:\n        /* \"#utility.yul\":11781:11785   */\n      dup7\n        /* \"#utility.yul\":11774:11855   */\n      sstore\n        /* \"#utility.yul\":11643:11865   */\n      pop\n        /* \"#utility.yul\":10978:11865   */\n      jump(tag_696)\n        /* \"#utility.yul\":11008:11626   */\n    tag_697:\n        /* \"#utility.yul\":11060:11064   */\n      0x1f\n        /* \"#utility.yul\":11056:11065   */\n      not\n        /* \"#utility.yul\":11048:11054   */\n      dup5\n        /* \"#utility.yul\":11044:11066   */\n      and\n        /* \"#utility.yul\":11094:11131   */\n      tag_700\n        /* \"#utility.yul\":11126:11130   */\n      dup7\n        /* \"#utility.yul\":11094:11131   */\n      tag_546\n      jump\t// in\n    tag_700:\n        /* \"#utility.yul\":11153:11154   */\n      0x00\n        /* \"#utility.yul\":11167:11375   */\n    tag_701:\n        /* \"#utility.yul\":11181:11188   */\n      dup3\n        /* \"#utility.yul\":11178:11179   */\n      dup2\n        /* \"#utility.yul\":11175:11189   */\n      lt\n        /* \"#utility.yul\":11167:11375   */\n      iszero\n      tag_703\n      jumpi\n        /* \"#utility.yul\":11260:11269   */\n      dup5\n        /* \"#utility.yul\":11255:11258   */\n      dup10\n        /* \"#utility.yul\":11251:11270   */\n      add\n        /* \"#utility.yul\":11245:11271   */\n      mload\n        /* \"#utility.yul\":11237:11243   */\n      dup3\n        /* \"#utility.yul\":11230:11272   */\n      sstore\n        /* \"#utility.yul\":11311:11312   */\n      0x01\n        /* \"#utility.yul\":11303:11309   */\n      dup3\n        /* \"#utility.yul\":11299:11313   */\n      add\n        /* \"#utility.yul\":11289:11313   */\n      swap2\n      pop\n        /* \"#utility.yul\":11358:11360   */\n      0x20\n        /* \"#utility.yul\":11347:11356   */\n      dup6\n        /* \"#utility.yul\":11343:11361   */\n      add\n        /* \"#utility.yul\":11330:11361   */\n      swap5\n      pop\n        /* \"#utility.yul\":11204:11208   */\n      0x20\n        /* \"#utility.yul\":11201:11202   */\n      dup2\n        /* \"#utility.yul\":11197:11209   */\n      add\n        /* \"#utility.yul\":11192:11209   */\n      swap1\n      pop\n        /* \"#utility.yul\":11167:11375   */\n      jump(tag_701)\n    tag_703:\n        /* \"#utility.yul\":11403:11409   */\n      dup7\n        /* \"#utility.yul\":11394:11401   */\n      dup4\n        /* \"#utility.yul\":11391:11410   */\n      lt\n        /* \"#utility.yul\":11388:11567   */\n      iszero\n      tag_704\n      jumpi\n        /* \"#utility.yul\":11461:11470   */\n      dup5\n        /* \"#utility.yul\":11456:11459   */\n      dup10\n        /* \"#utility.yul\":11452:11471   */\n      add\n        /* \"#utility.yul\":11446:11472   */\n      mload\n        /* \"#utility.yul\":11504:11552   */\n      tag_705\n        /* \"#utility.yul\":11546:11550   */\n      0x1f\n        /* \"#utility.yul\":11538:11544   */\n      dup10\n        /* \"#utility.yul\":11534:11551   */\n      and\n        /* \"#utility.yul\":11523:11532   */\n      dup3\n        /* \"#utility.yul\":11504:11552   */\n      tag_559\n      jump\t// in\n    tag_705:\n        /* \"#utility.yul\":11496:11502   */\n      dup4\n        /* \"#utility.yul\":11489:11553   */\n      sstore\n        /* \"#utility.yul\":11411:11567   */\n      pop\n        /* \"#utility.yul\":11388:11567   */\n    tag_704:\n        /* \"#utility.yul\":11613:11614   */\n      0x01\n        /* \"#utility.yul\":11609:11610   */\n      0x02\n        /* \"#utility.yul\":11601:11607   */\n      dup9\n        /* \"#utility.yul\":11597:11611   */\n      mul\n        /* \"#utility.yul\":11593:11615   */\n      add\n        /* \"#utility.yul\":11587:11591   */\n      dup9\n        /* \"#utility.yul\":11580:11616   */\n      sstore\n        /* \"#utility.yul\":11015:11626   */\n      pop\n      pop\n      pop\n        /* \"#utility.yul\":10978:11865   */\n    tag_696:\n      pop\n        /* \"#utility.yul\":10568:11871   */\n      pop\n      pop\n      pop\n        /* \"#utility.yul\":10476:11871   */\n      pop\n      pop\n      jump\t// out\n        /* \"#utility.yul\":11877:12110   */\n    tag_360:\n        /* \"#utility.yul\":11916:11919   */\n      0x00\n        /* \"#utility.yul\":11939:11963   */\n      tag_707\n        /* \"#utility.yul\":11957:11962   */\n      dup3\n        /* \"#utility.yul\":11939:11963   */\n      tag_526\n      jump\t// in\n    tag_707:\n        /* \"#utility.yul\":11930:11963   */\n      swap2\n      pop\n        /* \"#utility.yul\":11985:12051   */\n      0xffffffffffffffffffffffffffffffffffffffffffffffffffffffffffffffff\n        /* \"#utility.yul\":11978:11983   */\n      dup3\n        /* \"#utility.yul\":11975:12052   */\n      sub\n        /* \"#utility.yul\":11972:12075   */\n      tag_708\n      jumpi\n        /* \"#utility.yul\":12055:12073   */\n      tag_709\n      tag_541\n      jump\t// in\n    tag_709:\n        /* \"#utility.yul\":11972:12075   */\n    tag_708:\n        /* \"#utility.yul\":12102:12103   */\n      0x01\n        /* \"#utility.yul\":12095:12100   */\n      dup3\n        /* \"#utility.yul\":12091:12104   */\n      add\n        /* \"#utility.yul\":12084:12104   */\n      swap1\n      pop\n        /* \"#utility.yul\":11877:12110   */\n      swap2\n      swap1\n      pop\n      jump\t// out\n\n    auxdata: 0xa264697066735822122019b06a712b0e7664a956d88a7a1d11f38a44aab31c5c398e595ec17018dce83664736f6c63430008120033\n}\n",
				"bytecode": {
					"linkReferences": {},
					"object": "608060405262000024620000186200010a60201b60201c565b6200011260201b60201c565b62000044620000386200010a60201b60201c565b6200017360201b60201c565b62000064620000586200010a60201b60201c565b620001d460201b60201c565b62000084620000786200010a60201b60201c565b6200023560201b60201c565b620000a4620000986200010a60201b60201c565b6200029660201b60201c565b620000b46200010a60201b60201c565b600560006101000a81548173ffffffffffffffffffffffffffffffffffffffff021916908373ffffffffffffffffffffffffffffffffffffffff160217905550600160078190555060016006819055506200043e565b600033905090565b6200012d816000620002f760201b6200237d1790919060201c565b8073ffffffffffffffffffffffffffffffffffffffff167f561138658ca49a8540dc70dcfe64c9026c1c5b9344642242dd6562970f9c127860405160405180910390a250565b6200018e816001620002f760201b6200237d1790919060201c565b8073ffffffffffffffffffffffffffffffffffffffff167fddbf200aa634dc3fb81cfd68583dd1040d1c751d335e1d86b631bde3e977fea860405160405180910390a250565b620001ef816002620002f760201b6200237d1790919060201c565b8073ffffffffffffffffffffffffffffffffffffffff167fd8a7ad7929975a375d2b12bf49040286b5b105df0fe351f10df6d85e5b7142f760405160405180910390a250565b62000250816003620002f760201b6200237d1790919060201c565b8073ffffffffffffffffffffffffffffffffffffffff167f71ae26cad02663e3d92efd6ec56031a80d74a20c0ab4183faa8bf262261c9baa60405160405180910390a250565b620002b1816004620002f760201b6200237d1790919060201c565b8073ffffffffffffffffffffffffffffffffffffffff167f28b26e7a3d20aedbc5f8f2ebf7da671c0491723a2b78f47a097b0e46dee0714260405160405180910390a250565b600073ffffffffffffffffffffffffffffffffffffffff168173ffffffffffffffffffffffffffffffffffffffff16036200033157600080fd5b620003438282620003ac60201b60201c565b156200034e57600080fd5b60018260000160008373ffffffffffffffffffffffffffffffffffffffff1673ffffffffffffffffffffffffffffffffffffffff16815260200190815260200160002060006101000a81548160ff0219169083151502179055505050565b60008073ffffffffffffffffffffffffffffffffffffffff168273ffffffffffffffffffffffffffffffffffffffff1603620003e757600080fd5b8260000160008373ffffffffffffffffffffffffffffffffffffffff1673ffffffffffffffffffffffffffffffffffffffff16815260200190815260200160002060009054906101000a900460ff16905092915050565b6131b1806200044e6000396000f3fe6080604052600436106101c25760003560e01c806382e831ec116100f7578063b9a40d0411610095578063e34d7a0711610064578063e34d7a071461059e578063e618f000146105b5578063eab7d6e8146105de578063fdcdc06f14610607576101c2565b8063b9a40d0414610507578063dd58903014610523578063de568ab91461054c578063de63bdb914610575576101c2565b80638b828a08116100d15780638b828a08146104615780638ec4f505146104785780638f0c86fa146104a1578063ad88bac8146104de576101c2565b806382e831ec146103df578063834ff739146103fb5780638adff8ba14610438576101c2565b80633496c175116101645780635da09b881161013e5780635da09b88146103135780635f8a5afa1461035057806364d1ba1f146103795780637250e224146103b6576101c2565b80633496c175146102ce57806341c0e1b5146102e55780634ea90d2d146102fc576101c2565b806317d4a491116101a057806317d4a4911461022357806324cb16691461026057806326d529b414610289578063297b47e7146102a5576101c2565b8063070ef987146101c7578063112940f9146101de578063152d0b3214610207575b600080fd5b3480156101d357600080fd5b506101dc610623565b005b3480156101ea57600080fd5b5061020560048036038101906102009190612a9f565b610635565b005b610221600480360381019061021c9190612b02565b61065a565b005b34801561022f57600080fd5b5061024a60048036038101906102459190612a9f565b61095a565b6040516102579190612b4a565b60405180910390f35b34801561026c57600080fd5b5061028760048036038101906102829190612b02565b610977565b005b6102a3600480360381019061029e9190612b02565b610ad6565b005b3480156102b157600080fd5b506102cc60048036038101906102c79190612b65565b610dd6565b005b3480156102da57600080fd5b506102e3610f51565b005b3480156102f157600080fd5b506102fa610f63565b005b34801561030857600080fd5b50610311611009565b005b34801561031f57600080fd5b5061033a60048036038101906103359190612a9f565b61101b565b6040516103479190612b4a565b60405180910390f35b34801561035c57600080fd5b5061037760048036038101906103729190612a9f565b611038565b005b34801561038557600080fd5b506103a0600480360381019061039b9190612a9f565b61105d565b6040516103ad9190612b4a565b60405180910390f35b3480156103c257600080fd5b506103dd60048036038101906103d89190612a9f565b61107a565b005b6103f960048036038101906103f49190612b02565b61109f565b005b34801561040757600080fd5b50610422600480360381019061041d9190612a9f565b6111ff565b60405161042f9190612b4a565b60405180910390f35b34801561044457600080fd5b5061045f600480360381019061045a9190612b65565b61121c565b005b34801561046d57600080fd5b50610476611397565b005b34801561048457600080fd5b5061049f600480360381019061049a9190612a9f565b6113a9565b005b3480156104ad57600080fd5b506104c860048036038101906104c39190612a9f565b6113ce565b6040516104d59190612b4a565b60405180910390f35b3480156104ea57600080fd5b5061050560048036038101906105009190612ceb565b6113eb565b005b610521600480360381019061051c9190612b02565b611915565b005b34801561052f57600080fd5b5061054a60048036038101906105459190612b65565b611a76565b005b34801561055857600080fd5b50610573600480360381019061056e9190612b02565b611bf1565b005b34801561058157600080fd5b5061059c60048036038101906105979190612a9f565b611d50565b005b3480156105aa57600080fd5b506105b3611d75565b005b3480156105c157600080fd5b506105dc60048036038101906105d79190612b65565b611d87565b005b3480156105ea57600080fd5b5061060560048036038101906106009190612b65565b611f02565b005b610621600480360381019061061c9190612b02565b61207d565b005b61063361062e612428565b612430565b565b610645610640612428565b6111ff565b61064e57600080fd5b6106578161248a565b50565b61066a610665612428565b61105d565b61067357600080fd5b806006601081111561068857610687612d5a565b5b6008600083815260200190815260200160002060060160009054906101000a900460ff1660108111156106be576106bd612d5a565b5b146106c857600080fd5b6008600083815260200190815260200160002060070154803410156106ec57600080fd5b826106f5612428565b600060086000848152602001908152602001600020600d015490506000813461071e9190612db8565b90508273ffffffffffffffffffffffffffffffffffffffff166108fc829081150290604051600060405180830381858888f19350505050158015610766573d6000803e3d6000fd5b5060006107a8600860008a8152602001908152602001600020600a0160009054906101000a900473ffffffffffffffffffffffffffffffffffffffff166124e4565b90508073ffffffffffffffffffffffffffffffffffffffff166108fc600860008b8152602001908152602001600020600701549081150290604051600060405180830381858888f19350505050158015610806573d6000803e3d6000fd5b5061080f612428565b600860008a815260200190815260200160002060020160006101000a81548173ffffffffffffffffffffffffffffffffffffffff021916908373ffffffffffffffffffffffffffffffffffffffff16021790555061086b612428565b600860008a815260200190815260200160002060090160006101000a81548173ffffffffffffffffffffffffffffffffffffffff021916908373ffffffffffffffffffffffffffffffffffffffff1602179055506007600860008a815260200190815260200160002060060160006101000a81548160ff021916908360108111156108f9576108f8612d5a565b5b021790555043600960008a8152602001908152602001600020600101819055507f0b2ad8447953e780f58d2343ea44f2be15d412dc219f1ca265728cdc5cac9b66886040516109489190612dfb565b60405180910390a15050505050505050565b60006109708260006124ee90919063ffffffff16565b9050919050565b610987610982612428565b6113ce565b61099057600080fd5b80600860108111156109a5576109a4612d5a565b5b6008600083815260200190815260200160002060060160009054906101000a900460ff1660108111156109db576109da612d5a565b5b146109e557600080fd5b6008600083815260200190815260200160002060020160009054906101000a900473ffffffffffffffffffffffffffffffffffffffff168073ffffffffffffffffffffffffffffffffffffffff16610a3b612428565b73ffffffffffffffffffffffffffffffffffffffff1614610a5b57600080fd5b60046008600085815260200190815260200160002060060160006101000a81548160ff02191690836010811115610a9557610a94612d5a565b5b02179055507fc8ca2150e6e1849a10ef5aa4932060fa353bcacdffeb150c9e1890c6ab9403cc83604051610ac99190612dfb565b60405180910390a1505050565b610ae6610ae1612428565b61105d565b610aef57600080fd5b80600b6010811115610b0457610b03612d5a565b5b6008600083815260200190815260200160002060060160009054906101000a900460ff166010811115610b3a57610b39612d5a565b5b14610b4457600080fd5b600860008381526020019081526020016000206007015480341015610b6857600080fd5b82610b71612428565b600060086000848152602001908152602001600020600d0154905060008134610b9a9190612db8565b90508273ffffffffffffffffffffffffffffffffffffffff166108fc829081150290604051600060405180830381858888f19350505050158015610be2573d6000803e3d6000fd5b506000610c24600860008a815260200190815260200160002060090160009054906101000a900473ffffffffffffffffffffffffffffffffffffffff166124e4565b90508073ffffffffffffffffffffffffffffffffffffffff166108fc600860008b8152602001908152602001600020600701549081150290604051600060405180830381858888f19350505050158015610c82573d6000803e3d6000fd5b50610c8b612428565b600860008a815260200190815260200160002060020160006101000a81548173ffffffffffffffffffffffffffffffffffffffff021916908373ffffffffffffffffffffffffffffffffffffffff160217905550610ce7612428565b600860008a8152602001908152602001600020600b0160006101000a81548173ffffffffffffffffffffffffffffffffffffffff021916908373ffffffffffffffffffffffffffffffffffffffff160217905550600c600860008a815260200190815260200160002060060160006101000a81548160ff02191690836010811115610d7557610d74612d5a565b5b021790555043600960008a8152602001908152602001600020600201819055507faa7352d10146444c3afd9bd7fb0ae56b0a85e81139536bbec3f1f660fddd7be188604051610dc49190612dfb565b60405180910390a15050505050505050565b610de6610de1612428565b61105d565b610def57600080fd5b8160096010811115610e0457610e03612d5a565b5b6008600083815260200190815260200160002060060160009054906101000a900460ff166010811115610e3a57610e39612d5a565b5b14610e4457600080fd5b6008600084815260200190815260200160002060020160009054906101000a900473ffffffffffffffffffffffffffffffffffffffff168073ffffffffffffffffffffffffffffffffffffffff16610e9a612428565b73ffffffffffffffffffffffffffffffffffffffff1614610eba57600080fd5b600a6008600086815260200190815260200160002060060160006101000a81548160ff02191690836010811115610ef457610ef3612d5a565b5b02179055508260086000868152602001908152602001600020600801819055507fe0326eb12edef57b95f5c62083ba2b46710c31108309cf7f3a93d075dbfd296884604051610f439190612dfb565b60405180910390a150505050565b610f61610f5c612428565b61257f565b565b600560009054906101000a900473ffffffffffffffffffffffffffffffffffffffff1673ffffffffffffffffffffffffffffffffffffffff16610fa4612428565b73ffffffffffffffffffffffffffffffffffffffff1603611007576000610fec600560009054906101000a900473ffffffffffffffffffffffffffffffffffffffff166124e4565b90508073ffffffffffffffffffffffffffffffffffffffff16ff5b565b611019611014612428565b6125d9565b565b60006110318260036124ee90919063ffffffff16565b9050919050565b611048611043612428565b61095a565b61105157600080fd5b61105a81612633565b50565b60006110738260026124ee90919063ffffffff16565b9050919050565b61108a611085612428565b6113ce565b61109357600080fd5b61109c8161268d565b50565b6110af6110aa612428565b6113ce565b6110b857600080fd5b80600760108111156110cd576110cc612d5a565b5b6008600083815260200190815260200160002060060160009054906101000a900460ff16601081111561110357611102612d5a565b5b1461110d57600080fd5b60086000838152602001908152602001600020600a0160009054906101000a900473ffffffffffffffffffffffffffffffffffffffff168073ffffffffffffffffffffffffffffffffffffffff16611163612428565b73ffffffffffffffffffffffffffffffffffffffff161461118357600080fd5b600880600085815260200190815260200160002060060160006101000a81548160ff021916908360108111156111bc576111bb612d5a565b5b02179055507fc5c33776d405e5686e4386e1ef31a65cf6195e4f7ceb8808ab64d05b6ccbc2a66006546040516111f29190612dfb565b60405180910390a1505050565b60006112158260046124ee90919063ffffffff16565b9050919050565b61122c611227612428565b6113ce565b61123557600080fd5b816005601081111561124a57611249612d5a565b5b6008600083815260200190815260200160002060060160009054906101000a900460ff1660108111156112805761127f612d5a565b5b1461128a57600080fd5b6008600084815260200190815260200160002060020160009054906101000a900473ffffffffffffffffffffffffffffffffffffffff168073ffffffffffffffffffffffffffffffffffffffff166112e0612428565b73ffffffffffffffffffffffffffffffffffffffff161461130057600080fd5b600b6008600086815260200190815260200160002060060160006101000a81548160ff0219169083601081111561133a57611339612d5a565b5b02179055508260086000868152602001908152602001600020600701819055507f539b4a835a8a5d1bc5756a9f146e2bfeaa6bd6b1fa77a7631c0a5154c86cdd03846040516113899190612dfb565b60405180910390a150505050565b6113a76113a2612428565b6126e7565b565b6113b96113b4612428565b61101b565b6113c257600080fd5b6113cb81612741565b50565b60006113e48260016124ee90919063ffffffff16565b9050919050565b6113fb6113f6612428565b61095a565b61140457600080fd5b6000806000806114126128f9565b61141a612428565b816060019073ffffffffffffffffffffffffffffffffffffffff16908173ffffffffffffffffffffffffffffffffffffffff16815250506007548160000181815250508781602001818152505061146f612428565b816040019073ffffffffffffffffffffffffffffffffffffffff16908173ffffffffffffffffffffffffffffffffffffffff1681525050868160a00181905250858160e0018181525050600754886114c79190612e16565b81608001818152505060008160c0019060108111156114e9576114e8612d5a565b5b908160108111156114fd576114fc612d5a565b5b815250508381610120019073ffffffffffffffffffffffffffffffffffffffff16908173ffffffffffffffffffffffffffffffffffffffff16815250508481610140019073ffffffffffffffffffffffffffffffffffffffff16908173ffffffffffffffffffffffffffffffffffffffff16815250508281610160019073ffffffffffffffffffffffffffffffffffffffff16908173ffffffffffffffffffffffffffffffffffffffff16815250508181610180019073ffffffffffffffffffffffffffffffffffffffff16908173ffffffffffffffffffffffffffffffffffffffff168152505060008161010001818152505080600860008a8152602001908152602001600020600082015181600001556020820151816001015560408201518160020160006101000a81548173ffffffffffffffffffffffffffffffffffffffff021916908373ffffffffffffffffffffffffffffffffffffffff16021790555060608201518160030160006101000a81548173ffffffffffffffffffffffffffffffffffffffff021916908373ffffffffffffffffffffffffffffffffffffffff1602179055506080820151816004015560a08201518160050190816116c69190613061565b5060c08201518160060160006101000a81548160ff021916908360108111156116f2576116f1612d5a565b5b021790555060e0820151816007015561010082015181600801556101208201518160090160006101000a81548173ffffffffffffffffffffffffffffffffffffffff021916908373ffffffffffffffffffffffffffffffffffffffff16021790555061014082015181600a0160006101000a81548173ffffffffffffffffffffffffffffffffffffffff021916908373ffffffffffffffffffffffffffffffffffffffff16021790555061016082015181600b0160006101000a81548173ffffffffffffffffffffffffffffffffffffffff021916908373ffffffffffffffffffffffffffffffffffffffff16021790555061018082015181600c0160006101000a81548173ffffffffffffffffffffffffffffffffffffffff021916908373ffffffffffffffffffffffffffffffffffffffff1602179055506101a082015181600d01556101c082015181600e0155905050600061184f612a05565b818160000181815250508181602001818152505081816040018181525050818160600181815250508060096000600654815260200190815260200160002060008201518160000155602082015181600101556040820151816002015560608201518160030155905050600760008154809291906118cb90613133565b91905055507fb7cacbe76ffd2319b73ee6a0f921b205bdb46926c6342d478b159eedd699d4b66006546040516119019190612dfb565b60405180910390a150505050505050505050565b611925611920612428565b61095a565b61192e57600080fd5b806002601081111561194357611942612d5a565b5b6008600083815260200190815260200160002060060160009054906101000a900460ff16601081111561197957611978612d5a565b5b1461198357600080fd5b6008600083815260200190815260200160002060030160009054906101000a900473ffffffffffffffffffffffffffffffffffffffff168073ffffffffffffffffffffffffffffffffffffffff166119d9612428565b73ffffffffffffffffffffffffffffffffffffffff16146119f957600080fd5b60036008600085815260200190815260200160002060060160006101000a81548160ff02191690836010811115611a3357611a32612d5a565b5b02179055507f25727bef8a186dd95a062151451f2d651551b53124c18208d7653b1217ae31ba600654604051611a699190612dfb565b60405180910390a1505050565b611a86611a81612428565b61105d565b611a8f57600080fd5b81600a6010811115611aa457611aa3612d5a565b5b6008600083815260200190815260200160002060060160009054906101000a900460ff166010811115611ada57611ad9612d5a565b5b14611ae457600080fd5b6008600084815260200190815260200160002060020160009054906101000a900473ffffffffffffffffffffffffffffffffffffffff168073ffffffffffffffffffffffffffffffffffffffff16611b3a612428565b73ffffffffffffffffffffffffffffffffffffffff1614611b5a57600080fd5b600b6008600086815260200190815260200160002060060160006101000a81548160ff02191690836010811115611b9457611b93612d5a565b5b02179055508260086000868152602001908152602001600020600701819055507f86c3594f216ced937eb7fdc5b2c3e64fb4ae2badf95562d2db7d99f58c6e56d684604051611be39190612dfb565b60405180910390a150505050565b611c01611bfc612428565b6113ce565b611c0a57600080fd5b8060086010811115611c1f57611c1e612d5a565b5b6008600083815260200190815260200160002060060160009054906101000a900460ff166010811115611c5557611c54612d5a565b5b14611c5f57600080fd5b6008600083815260200190815260200160002060020160009054906101000a900473ffffffffffffffffffffffffffffffffffffffff168073ffffffffffffffffffffffffffffffffffffffff16611cb5612428565b73ffffffffffffffffffffffffffffffffffffffff1614611cd557600080fd5b60096008600085815260200190815260200160002060060160006101000a81548160ff02191690836010811115611d0f57611d0e612d5a565b5b02179055507fee82be1f7a6bfb16a15acf8ecbb38327cf93ef35166206492b476fb143be5a2d83604051611d439190612dfb565b60405180910390a1505050565b611d60611d5b612428565b61105d565b611d6957600080fd5b611d728161279b565b50565b611d85611d80612428565b6127f5565b565b611d97611d92612428565b61095a565b611da057600080fd5b8160006010811115611db557611db4612d5a565b5b6008600083815260200190815260200160002060060160009054906101000a900460ff166010811115611deb57611dea612d5a565b5b14611df557600080fd5b6008600084815260200190815260200160002060020160009054906101000a900473ffffffffffffffffffffffffffffffffffffffff168073ffffffffffffffffffffffffffffffffffffffff16611e4b612428565b73ffffffffffffffffffffffffffffffffffffffff1614611e6b57600080fd5b60016008600086815260200190815260200160002060060160006101000a81548160ff02191690836010811115611ea557611ea4612d5a565b5b02179055508260086000868152602001908152602001600020600701819055507faec623c8803eb3c795344cb3d2178da45139e85d984a1dc348cf9dc8bd7ff16084604051611ef49190612dfb565b60405180910390a150505050565b611f12611f0d612428565b6113ce565b611f1b57600080fd5b8160046010811115611f3057611f2f612d5a565b5b6008600083815260200190815260200160002060060160009054906101000a900460ff166010811115611f6657611f65612d5a565b5b14611f7057600080fd5b6008600084815260200190815260200160002060020160009054906101000a900473ffffffffffffffffffffffffffffffffffffffff168073ffffffffffffffffffffffffffffffffffffffff16611fc6612428565b73ffffffffffffffffffffffffffffffffffffffff1614611fe657600080fd5b60056008600086815260200190815260200160002060060160006101000a81548160ff021916908360108111156120205761201f612d5a565b5b02179055508260086000868152602001908152602001600020600801819055507f5725e53fd0efed5294b7db2af148f040264a63630b4deb0afbccf6e60830988a8460405161206f9190612dfb565b60405180910390a150505050565b61208d612088612428565b6113ce565b61209657600080fd5b80600160108111156120ab576120aa612d5a565b5b6008600083815260200190815260200160002060060160009054906101000a900460ff1660108111156120e1576120e0612d5a565b5b146120eb57600080fd5b60086000838152602001908152602001600020600701548034101561210f57600080fd5b82612118612428565b600060086000848152602001908152602001600020600d01549050600081346121419190612db8565b90508273ffffffffffffffffffffffffffffffffffffffff166108fc829081150290604051600060405180830381858888f19350505050158015612189573d6000803e3d6000fd5b5060006121cb600860008a815260200190815260200160002060030160009054906101000a900473ffffffffffffffffffffffffffffffffffffffff166124e4565b90508073ffffffffffffffffffffffffffffffffffffffff166108fc600860008b8152602001908152602001600020600701549081150290604051600060405180830381858888f19350505050158015612229573d6000803e3d6000fd5b50612232612428565b600860008a815260200190815260200160002060020160006101000a81548173ffffffffffffffffffffffffffffffffffffffff021916908373ffffffffffffffffffffffffffffffffffffffff16021790555061228e612428565b600860008a8152602001908152602001600020600a0160006101000a81548173ffffffffffffffffffffffffffffffffffffffff021916908373ffffffffffffffffffffffffffffffffffffffff1602179055506002600860008a815260200190815260200160002060060160006101000a81548160ff0219169083601081111561231c5761231b612d5a565b5b021790555043600960008a8152602001908152602001600020600001819055507facd9402b9f9e8c15fa7c1819f8393ca56eb61316cc354fc6ac2150aed3ce79318860405161236b9190612dfb565b60405180910390a15050505050505050565b600073ffffffffffffffffffffffffffffffffffffffff168173ffffffffffffffffffffffffffffffffffffffff16036123b657600080fd5b6123c082826124ee565b156123ca57600080fd5b60018260000160008373ffffffffffffffffffffffffffffffffffffffff1673ffffffffffffffffffffffffffffffffffffffff16815260200190815260200160002060006101000a81548160ff0219169083151502179055505050565b600033905090565b61244481600261284f90919063ffffffff16565b8073ffffffffffffffffffffffffffffffffffffffff167f7f865f710a7604537eb2bc0334f082fa642d210a705398937f53663384485b2860405160405180910390a250565b61249e81600461237d90919063ffffffff16565b8073ffffffffffffffffffffffffffffffffffffffff167f28b26e7a3d20aedbc5f8f2ebf7da671c0491723a2b78f47a097b0e46dee0714260405160405180910390a250565b6000819050919050565b60008073ffffffffffffffffffffffffffffffffffffffff168273ffffffffffffffffffffffffffffffffffffffff160361252857600080fd5b8260000160008373ffffffffffffffffffffffffffffffffffffffff1673ffffffffffffffffffffffffffffffffffffffff16815260200190815260200160002060009054906101000a900460ff16905092915050565b61259381600461284f90919063ffffffff16565b8073ffffffffffffffffffffffffffffffffffffffff167fe3f5ed5f263f1f01764a96edfc7d025f511ec5f7d180e8816908b78bcf74f09860405160405180910390a250565b6125ed81600161284f90919063ffffffff16565b8073ffffffffffffffffffffffffffffffffffffffff167f126174f6cf49c81cdb4a9214c6b8f037bef55b4ec31e4fc776cea2a1c8a88d5960405160405180910390a250565b61264781600061237d90919063ffffffff16565b8073ffffffffffffffffffffffffffffffffffffffff167f561138658ca49a8540dc70dcfe64c9026c1c5b9344642242dd6562970f9c127860405160405180910390a250565b6126a181600161237d90919063ffffffff16565b8073ffffffffffffffffffffffffffffffffffffffff167fddbf200aa634dc3fb81cfd68583dd1040d1c751d335e1d86b631bde3e977fea860405160405180910390a250565b6126fb81600061284f90919063ffffffff16565b8073ffffffffffffffffffffffffffffffffffffffff167f2fed5abf6a80d6dfe30b4895481b2fc5d7dce5f8f7b931832f4a2947d5040c7f60405160405180910390a250565b61275581600361237d90919063ffffffff16565b8073ffffffffffffffffffffffffffffffffffffffff167f71ae26cad02663e3d92efd6ec56031a80d74a20c0ab4183faa8bf262261c9baa60405160405180910390a250565b6127af81600261237d90919063ffffffff16565b8073ffffffffffffffffffffffffffffffffffffffff167fd8a7ad7929975a375d2b12bf49040286b5b105df0fe351f10df6d85e5b7142f760405160405180910390a250565b61280981600361284f90919063ffffffff16565b8073ffffffffffffffffffffffffffffffffffffffff167fdb7176e79cffef81cb01767dd0447a0b24bb72ca9778d4b245581086b2a7e6db60405160405180910390a250565b600073ffffffffffffffffffffffffffffffffffffffff168173ffffffffffffffffffffffffffffffffffffffff160361288857600080fd5b61289282826124ee565b61289b57600080fd5b60008260000160008373ffffffffffffffffffffffffffffffffffffffff1673ffffffffffffffffffffffffffffffffffffffff16815260200190815260200160002060006101000a81548160ff0219169083151502179055505050565b604051806101e001604052806000815260200160008152602001600073ffffffffffffffffffffffffffffffffffffffff168152602001600073ffffffffffffffffffffffffffffffffffffffff16815260200160008152602001606081526020016000601081111561296f5761296e612d5a565b5b81526020016000815260200160008152602001600073ffffffffffffffffffffffffffffffffffffffff168152602001600073ffffffffffffffffffffffffffffffffffffffff168152602001600073ffffffffffffffffffffffffffffffffffffffff168152602001600073ffffffffffffffffffffffffffffffffffffffff16815260200160008152602001600081525090565b6040518060800160405280600081526020016000815260200160008152602001600081525090565b6000604051905090565b600080fd5b600080fd5b600073ffffffffffffffffffffffffffffffffffffffff82169050919050565b6000612a6c82612a41565b9050919050565b612a7c81612a61565b8114612a8757600080fd5b50565b600081359050612a9981612a73565b92915050565b600060208284031215612ab557612ab4612a37565b5b6000612ac384828501612a8a565b91505092915050565b6000819050919050565b612adf81612acc565b8114612aea57600080fd5b50565b600081359050612afc81612ad6565b92915050565b600060208284031215612b1857612b17612a37565b5b6000612b2684828501612aed565b91505092915050565b60008115159050919050565b612b4481612b2f565b82525050565b6000602082019050612b5f6000830184612b3b565b92915050565b60008060408385031215612b7c57612b7b612a37565b5b6000612b8a85828601612aed565b9250506020612b9b85828601612aed565b9150509250929050565b600080fd5b600080fd5b6000601f19601f8301169050919050565b7f4e487b7100000000000000000000000000000000000000000000000000000000600052604160045260246000fd5b612bf882612baf565b810181811067ffffffffffffffff82111715612c1757612c16612bc0565b5b80604052505050565b6000612c2a612a2d565b9050612c368282612bef565b919050565b600067ffffffffffffffff821115612c5657612c55612bc0565b5b612c5f82612baf565b9050602081019050919050565b82818337600083830152505050565b6000612c8e612c8984612c3b565b612c20565b905082815260208101848484011115612caa57612ca9612baa565b5b612cb5848285612c6c565b509392505050565b600082601f830112612cd257612cd1612ba5565b5b8135612ce2848260208601612c7b565b91505092915050565b600080600060608486031215612d0457612d03612a37565b5b6000612d1286828701612aed565b935050602084013567ffffffffffffffff811115612d3357612d32612a3c565b5b612d3f86828701612cbd565b9250506040612d5086828701612aed565b9150509250925092565b7f4e487b7100000000000000000000000000000000000000000000000000000000600052602160045260246000fd5b7f4e487b7100000000000000000000000000000000000000000000000000000000600052601160045260246000fd5b6000612dc382612acc565b9150612dce83612acc565b9250828203905081811115612de657612de5612d89565b5b92915050565b612df581612acc565b82525050565b6000602082019050612e106000830184612dec565b92915050565b6000612e2182612acc565b9150612e2c83612acc565b9250828201905080821115612e4457612e43612d89565b5b92915050565b600081519050919050565b7f4e487b7100000000000000000000000000000000000000000000000000000000600052602260045260246000fd5b60006002820490506001821680612e9c57607f821691505b602082108103612eaf57612eae612e55565b5b50919050565b60008190508160005260206000209050919050565b60006020601f8301049050919050565b600082821b905092915050565b600060088302612f177fffffffffffffffffffffffffffffffffffffffffffffffffffffffffffffffff82612eda565b612f218683612eda565b95508019841693508086168417925050509392505050565b6000819050919050565b6000612f5e612f59612f5484612acc565b612f39565b612acc565b9050919050565b6000819050919050565b612f7883612f43565b612f8c612f8482612f65565b848454612ee7565b825550505050565b600090565b612fa1612f94565b612fac818484612f6f565b505050565b5b81811015612fd057612fc5600082612f99565b600181019050612fb2565b5050565b601f82111561301557612fe681612eb5565b612fef84612eca565b81016020851015612ffe578190505b61301261300a85612eca565b830182612fb1565b50505b505050565b600082821c905092915050565b60006130386000198460080261301a565b1980831691505092915050565b60006130518383613027565b9150826002028217905092915050565b61306a82612e4a565b67ffffffffffffffff81111561308357613082612bc0565b5b61308d8254612e84565b613098828285612fd4565b600060209050601f8311600181146130cb57600084156130b9578287015190505b6130c38582613045565b86555061312b565b601f1984166130d986612eb5565b60005b82811015613101578489015182556001820191506020850194506020810190506130dc565b8683101561311e578489015161311a601f891682613027565b8355505b6001600288020188555050505b505050505050565b600061313e82612acc565b91507fffffffffffffffffffffffffffffffffffffffffffffffffffffffffffffffff82036131705761316f612d89565b5b60018201905091905056fea264697066735822122019b06a712b0e7664a956d88a7a1d11f38a44aab31c5c398e595ec17018dce83664736f6c63430008120033",
					"opcodes": "PUSH1 0x80 PUSH1 0x40 MSTORE PUSH3 0x24 PUSH3 0x18 PUSH3 0x10A PUSH1 0x20 SHL PUSH1 0x20 SHR JUMP JUMPDEST PUSH3 0x112 PUSH1 0x20 SHL PUSH1 0x20 SHR JUMP JUMPDEST PUSH3 0x44 PUSH3 0x38 PUSH3 0x10A PUSH1 0x20 SHL PUSH1 0x20 SHR JUMP JUMPDEST PUSH3 0x173 PUSH1 0x20 SHL PUSH1 0x20 SHR JUMP JUMPDEST PUSH3 0x64 PUSH3 0x58 PUSH3 0x10A PUSH1 0x20 SHL PUSH1 0x20 SHR JUMP JUMPDEST PUSH3 0x1D4 PUSH1 0x20 SHL PUSH1 0x20 SHR JUMP JUMPDEST PUSH3 0x84 PUSH3 0x78 PUSH3 0x10A PUSH1 0x20 SHL PUSH1 0x20 SHR JUMP JUMPDEST PUSH3 0x235 PUSH1 0x20 SHL PUSH1 0x20 SHR JUMP JUMPDEST PUSH3 0xA4 PUSH3 0x98 PUSH3 0x10A PUSH1 0x20 SHL PUSH1 0x20 SHR JUMP JUMPDEST PUSH3 0x296 PUSH1 0x20 SHL PUSH1 0x20 SHR JUMP JUMPDEST PUSH3 0xB4 PUSH3 0x10A PUSH1 0x20 SHL PUSH1 0x20 SHR JUMP JUMPDEST PUSH1 0x5 PUSH1 0x0 PUSH2 0x100 EXP DUP2 SLOAD DUP2 PUSH20 0xFFFFFFFFFFFFFFFFFFFFFFFFFFFFFFFFFFFFFFFF MUL NOT AND SWAP1 DUP4 PUSH20 0xFFFFFFFFFFFFFFFFFFFFFFFFFFFFFFFFFFFFFFFF AND MUL OR SWAP1 SSTORE POP PUSH1 0x1 PUSH1 0x7 DUP2 SWAP1 SSTORE POP PUSH1 0x1 PUSH1 0x6 DUP2 SWAP1 SSTORE POP PUSH3 0x43E JUMP JUMPDEST PUSH1 0x0 CALLER SWAP1 POP SWAP1 JUMP JUMPDEST PUSH3 0x12D DUP2 PUSH1 0x0 PUSH3 0x2F7 PUSH1 0x20 SHL PUSH3 0x237D OR SWAP1 SWAP2 SWAP1 PUSH1 0x20 SHR JUMP JUMPDEST DUP1 PUSH20 0xFFFFFFFFFFFFFFFFFFFFFFFFFFFFFFFFFFFFFFFF AND PUSH32 0x561138658CA49A8540DC70DCFE64C9026C1C5B9344642242DD6562970F9C1278 PUSH1 0x40 MLOAD PUSH1 0x40 MLOAD DUP1 SWAP2 SUB SWAP1 LOG2 POP JUMP JUMPDEST PUSH3 0x18E DUP2 PUSH1 0x1 PUSH3 0x2F7 PUSH1 0x20 SHL PUSH3 0x237D OR SWAP1 SWAP2 SWAP1 PUSH1 0x20 SHR JUMP JUMPDEST DUP1 PUSH20 0xFFFFFFFFFFFFFFFFFFFFFFFFFFFFFFFFFFFFFFFF AND PUSH32 0xDDBF200AA634DC3FB81CFD68583DD1040D1C751D335E1D86B631BDE3E977FEA8 PUSH1 0x40 MLOAD PUSH1 0x40 MLOAD DUP1 SWAP2 SUB SWAP1 LOG2 POP JUMP JUMPDEST PUSH3 0x1EF DUP2 PUSH1 0x2 PUSH3 0x2F7 PUSH1 0x20 SHL PUSH3 0x237D OR SWAP1 SWAP2 SWAP1 PUSH1 0x20 SHR JUMP JUMPDEST DUP1 PUSH20 0xFFFFFFFFFFFFFFFFFFFFFFFFFFFFFFFFFFFFFFFF AND PUSH32 0xD8A7AD7929975A375D2B12BF49040286B5B105DF0FE351F10DF6D85E5B7142F7 PUSH1 0x40 MLOAD PUSH1 0x40 MLOAD DUP1 SWAP2 SUB SWAP1 LOG2 POP JUMP JUMPDEST PUSH3 0x250 DUP2 PUSH1 0x3 PUSH3 0x2F7 PUSH1 0x20 SHL PUSH3 0x237D OR SWAP1 SWAP2 SWAP1 PUSH1 0x20 SHR JUMP JUMPDEST DUP1 PUSH20 0xFFFFFFFFFFFFFFFFFFFFFFFFFFFFFFFFFFFFFFFF AND PUSH32 0x71AE26CAD02663E3D92EFD6EC56031A80D74A20C0AB4183FAA8BF262261C9BAA PUSH1 0x40 MLOAD PUSH1 0x40 MLOAD DUP1 SWAP2 SUB SWAP1 LOG2 POP JUMP JUMPDEST PUSH3 0x2B1 DUP2 PUSH1 0x4 PUSH3 0x2F7 PUSH1 0x20 SHL PUSH3 0x237D OR SWAP1 SWAP2 SWAP1 PUSH1 0x20 SHR JUMP JUMPDEST DUP1 PUSH20 0xFFFFFFFFFFFFFFFFFFFFFFFFFFFFFFFFFFFFFFFF AND PUSH32 0x28B26E7A3D20AEDBC5F8F2EBF7DA671C0491723A2B78F47A097B0E46DEE07142 PUSH1 0x40 MLOAD PUSH1 0x40 MLOAD DUP1 SWAP2 SUB SWAP1 LOG2 POP JUMP JUMPDEST PUSH1 0x0 PUSH20 0xFFFFFFFFFFFFFFFFFFFFFFFFFFFFFFFFFFFFFFFF AND DUP2 PUSH20 0xFFFFFFFFFFFFFFFFFFFFFFFFFFFFFFFFFFFFFFFF AND SUB PUSH3 0x331 JUMPI PUSH1 0x0 DUP1 REVERT JUMPDEST PUSH3 0x343 DUP3 DUP3 PUSH3 0x3AC PUSH1 0x20 SHL PUSH1 0x20 SHR JUMP JUMPDEST ISZERO PUSH3 0x34E JUMPI PUSH1 0x0 DUP1 REVERT JUMPDEST PUSH1 0x1 DUP3 PUSH1 0x0 ADD PUSH1 0x0 DUP4 PUSH20 0xFFFFFFFFFFFFFFFFFFFFFFFFFFFFFFFFFFFFFFFF AND PUSH20 0xFFFFFFFFFFFFFFFFFFFFFFFFFFFFFFFFFFFFFFFF AND DUP2 MSTORE PUSH1 0x20 ADD SWAP1 DUP2 MSTORE PUSH1 0x20 ADD PUSH1 0x0 KECCAK256 PUSH1 0x0 PUSH2 0x100 EXP DUP2 SLOAD DUP2 PUSH1 0xFF MUL NOT AND SWAP1 DUP4 ISZERO ISZERO MUL OR SWAP1 SSTORE POP POP POP JUMP JUMPDEST PUSH1 0x0 DUP1 PUSH20 0xFFFFFFFFFFFFFFFFFFFFFFFFFFFFFFFFFFFFFFFF AND DUP3 PUSH20 0xFFFFFFFFFFFFFFFFFFFFFFFFFFFFFFFFFFFFFFFF AND SUB PUSH3 0x3E7 JUMPI PUSH1 0x0 DUP1 REVERT JUMPDEST DUP3 PUSH1 0x0 ADD PUSH1 0x0 DUP4 PUSH20 0xFFFFFFFFFFFFFFFFFFFFFFFFFFFFFFFFFFFFFFFF AND PUSH20 0xFFFFFFFFFFFFFFFFFFFFFFFFFFFFFFFFFFFFFFFF AND DUP2 MSTORE PUSH1 0x20 ADD SWAP1 DUP2 MSTORE PUSH1 0x20 ADD PUSH1 0x0 KECCAK256 PUSH1 0x0 SWAP1 SLOAD SWAP1 PUSH2 0x100 EXP SWAP1 DIV PUSH1 0xFF AND SWAP1 POP SWAP3 SWAP2 POP POP JUMP JUMPDEST PUSH2 0x31B1 DUP1 PUSH3 0x44E PUSH1 0x0 CODECOPY PUSH1 0x0 RETURN INVALID PUSH1 0x80 PUSH1 0x40 MSTORE PUSH1 0x4 CALLDATASIZE LT PUSH2 0x1C2 JUMPI PUSH1 0x0 CALLDATALOAD PUSH1 0xE0 SHR DUP1 PUSH4 0x82E831EC GT PUSH2 0xF7 JUMPI DUP1 PUSH4 0xB9A40D04 GT PUSH2 0x95 JUMPI DUP1 PUSH4 0xE34D7A07 GT PUSH2 0x64 JUMPI DUP1 PUSH4 0xE34D7A07 EQ PUSH2 0x59E JUMPI DUP1 PUSH4 0xE618F000 EQ PUSH2 0x5B5 JUMPI DUP1 PUSH4 0xEAB7D6E8 EQ PUSH2 0x5DE JUMPI DUP1 PUSH4 0xFDCDC06F EQ PUSH2 0x607 JUMPI PUSH2 0x1C2 JUMP JUMPDEST DUP1 PUSH4 0xB9A40D04 EQ PUSH2 0x507 JUMPI DUP1 PUSH4 0xDD589030 EQ PUSH2 0x523 JUMPI DUP1 PUSH4 0xDE568AB9 EQ PUSH2 0x54C JUMPI DUP1 PUSH4 0xDE63BDB9 EQ PUSH2 0x575 JUMPI PUSH2 0x1C2 JUMP JUMPDEST DUP1 PUSH4 0x8B828A08 GT PUSH2 0xD1 JUMPI DUP1 PUSH4 0x8B828A08 EQ PUSH2 0x461 JUMPI DUP1 PUSH4 0x8EC4F505 EQ PUSH2 0x478 JUMPI DUP1 PUSH4 0x8F0C86FA EQ PUSH2 0x4A1 JUMPI DUP1 PUSH4 0xAD88BAC8 EQ PUSH2 0x4DE JUMPI PUSH2 0x1C2 JUMP JUMPDEST DUP1 PUSH4 0x82E831EC EQ PUSH2 0x3DF JUMPI DUP1 PUSH4 0x834FF739 EQ PUSH2 0x3FB JUMPI DUP1 PUSH4 0x8ADFF8BA EQ PUSH2 0x438 JUMPI PUSH2 0x1C2 JUMP JUMPDEST DUP1 PUSH4 0x3496C175 GT PUSH2 0x164 JUMPI DUP1 PUSH4 0x5DA09B88 GT PUSH2 0x13E JUMPI DUP1 PUSH4 0x5DA09B88 EQ PUSH2 0x313 JUMPI DUP1 PUSH4 0x5F8A5AFA EQ PUSH2 0x350 JUMPI DUP1 PUSH4 0x64D1BA1F EQ PUSH2 0x379 JUMPI DUP1 PUSH4 0x7250E224 EQ PUSH2 0x3B6 JUMPI PUSH2 0x1C2 JUMP JUMPDEST DUP1 PUSH4 0x3496C175 EQ PUSH2 0x2CE JUMPI DUP1 PUSH4 0x41C0E1B5 EQ PUSH2 0x2E5 JUMPI DUP1 PUSH4 0x4EA90D2D EQ PUSH2 0x2FC JUMPI PUSH2 0x1C2 JUMP JUMPDEST DUP1 PUSH4 0x17D4A491 GT PUSH2 0x1A0 JUMPI DUP1 PUSH4 0x17D4A491 EQ PUSH2 0x223 JUMPI DUP1 PUSH4 0x24CB1669 EQ PUSH2 0x260 JUMPI DUP1 PUSH4 0x26D529B4 EQ PUSH2 0x289 JUMPI DUP1 PUSH4 0x297B47E7 EQ PUSH2 0x2A5 JUMPI PUSH2 0x1C2 JUMP JUMPDEST DUP1 PUSH4 0x70EF987 EQ PUSH2 0x1C7 JUMPI DUP1 PUSH4 0x112940F9 EQ PUSH2 0x1DE JUMPI DUP1 PUSH4 0x152D0B32 EQ PUSH2 0x207 JUMPI JUMPDEST PUSH1 0x0 DUP1 REVERT JUMPDEST CALLVALUE DUP1 ISZERO PUSH2 0x1D3 JUMPI PUSH1 0x0 DUP1 REVERT JUMPDEST POP PUSH2 0x1DC PUSH2 0x623 JUMP JUMPDEST STOP JUMPDEST CALLVALUE DUP1 ISZERO PUSH2 0x1EA JUMPI PUSH1 0x0 DUP1 REVERT JUMPDEST POP PUSH2 0x205 PUSH1 0x4 DUP1 CALLDATASIZE SUB DUP2 ADD SWAP1 PUSH2 0x200 SWAP2 SWAP1 PUSH2 0x2A9F JUMP JUMPDEST PUSH2 0x635 JUMP JUMPDEST STOP JUMPDEST PUSH2 0x221 PUSH1 0x4 DUP1 CALLDATASIZE SUB DUP2 ADD SWAP1 PUSH2 0x21C SWAP2 SWAP1 PUSH2 0x2B02 JUMP JUMPDEST PUSH2 0x65A JUMP JUMPDEST STOP JUMPDEST CALLVALUE DUP1 ISZERO PUSH2 0x22F JUMPI PUSH1 0x0 DUP1 REVERT JUMPDEST POP PUSH2 0x24A PUSH1 0x4 DUP1 CALLDATASIZE SUB DUP2 ADD SWAP1 PUSH2 0x245 SWAP2 SWAP1 PUSH2 0x2A9F JUMP JUMPDEST PUSH2 0x95A JUMP JUMPDEST PUSH1 0x40 MLOAD PUSH2 0x257 SWAP2 SWAP1 PUSH2 0x2B4A JUMP JUMPDEST PUSH1 0x40 MLOAD DUP1 SWAP2 SUB SWAP1 RETURN JUMPDEST CALLVALUE DUP1 ISZERO PUSH2 0x26C JUMPI PUSH1 0x0 DUP1 REVERT JUMPDEST POP PUSH2 0x287 PUSH1 0x4 DUP1 CALLDATASIZE SUB DUP2 ADD SWAP1 PUSH2 0x282 SWAP2 SWAP1 PUSH2 0x2B02 JUMP JUMPDEST PUSH2 0x977 JUMP JUMPDEST STOP JUMPDEST PUSH2 0x2A3 PUSH1 0x4 DUP1 CALLDATASIZE SUB DUP2 ADD SWAP1 PUSH2 0x29E SWAP2 SWAP1 PUSH2 0x2B02 JUMP JUMPDEST PUSH2 0xAD6 JUMP JUMPDEST STOP JUMPDEST CALLVALUE DUP1 ISZERO PUSH2 0x2B1 JUMPI PUSH1 0x0 DUP1 REVERT JUMPDEST POP PUSH2 0x2CC PUSH1 0x4 DUP1 CALLDATASIZE SUB DUP2 ADD SWAP1 PUSH2 0x2C7 SWAP2 SWAP1 PUSH2 0x2B65 JUMP JUMPDEST PUSH2 0xDD6 JUMP JUMPDEST STOP JUMPDEST CALLVALUE DUP1 ISZERO PUSH2 0x2DA JUMPI PUSH1 0x0 DUP1 REVERT JUMPDEST POP PUSH2 0x2E3 PUSH2 0xF51 JUMP JUMPDEST STOP JUMPDEST CALLVALUE DUP1 ISZERO PUSH2 0x2F1 JUMPI PUSH1 0x0 DUP1 REVERT JUMPDEST POP PUSH2 0x2FA PUSH2 0xF63 JUMP JUMPDEST STOP JUMPDEST CALLVALUE DUP1 ISZERO PUSH2 0x308 JUMPI PUSH1 0x0 DUP1 REVERT JUMPDEST POP PUSH2 0x311 PUSH2 0x1009 JUMP JUMPDEST STOP JUMPDEST CALLVALUE DUP1 ISZERO PUSH2 0x31F JUMPI PUSH1 0x0 DUP1 REVERT JUMPDEST POP PUSH2 0x33A PUSH1 0x4 DUP1 CALLDATASIZE SUB DUP2 ADD SWAP1 PUSH2 0x335 SWAP2 SWAP1 PUSH2 0x2A9F JUMP JUMPDEST PUSH2 0x101B JUMP JUMPDEST PUSH1 0x40 MLOAD PUSH2 0x347 SWAP2 SWAP1 PUSH2 0x2B4A JUMP JUMPDEST PUSH1 0x40 MLOAD DUP1 SWAP2 SUB SWAP1 RETURN JUMPDEST CALLVALUE DUP1 ISZERO PUSH2 0x35C JUMPI PUSH1 0x0 DUP1 REVERT JUMPDEST POP PUSH2 0x377 PUSH1 0x4 DUP1 CALLDATASIZE SUB DUP2 ADD SWAP1 PUSH2 0x372 SWAP2 SWAP1 PUSH2 0x2A9F JUMP JUMPDEST PUSH2 0x1038 JUMP JUMPDEST STOP JUMPDEST CALLVALUE DUP1 ISZERO PUSH2 0x385 JUMPI PUSH1 0x0 DUP1 REVERT JUMPDEST POP PUSH2 0x3A0 PUSH1 0x4 DUP1 CALLDATASIZE SUB DUP2 ADD SWAP1 PUSH2 0x39B SWAP2 SWAP1 PUSH2 0x2A9F JUMP JUMPDEST PUSH2 0x105D JUMP JUMPDEST PUSH1 0x40 MLOAD PUSH2 0x3AD SWAP2 SWAP1 PUSH2 0x2B4A JUMP JUMPDEST PUSH1 0x40 MLOAD DUP1 SWAP2 SUB SWAP1 RETURN JUMPDEST CALLVALUE DUP1 ISZERO PUSH2 0x3C2 JUMPI PUSH1 0x0 DUP1 REVERT JUMPDEST POP PUSH2 0x3DD PUSH1 0x4 DUP1 CALLDATASIZE SUB DUP2 ADD SWAP1 PUSH2 0x3D8 SWAP2 SWAP1 PUSH2 0x2A9F JUMP JUMPDEST PUSH2 0x107A JUMP JUMPDEST STOP JUMPDEST PUSH2 0x3F9 PUSH1 0x4 DUP1 CALLDATASIZE SUB DUP2 ADD SWAP1 PUSH2 0x3F4 SWAP2 SWAP1 PUSH2 0x2B02 JUMP JUMPDEST PUSH2 0x109F JUMP JUMPDEST STOP JUMPDEST CALLVALUE DUP1 ISZERO PUSH2 0x407 JUMPI PUSH1 0x0 DUP1 REVERT JUMPDEST POP PUSH2 0x422 PUSH1 0x4 DUP1 CALLDATASIZE SUB DUP2 ADD SWAP1 PUSH2 0x41D SWAP2 SWAP1 PUSH2 0x2A9F JUMP JUMPDEST PUSH2 0x11FF JUMP JUMPDEST PUSH1 0x40 MLOAD PUSH2 0x42F SWAP2 SWAP1 PUSH2 0x2B4A JUMP JUMPDEST PUSH1 0x40 MLOAD DUP1 SWAP2 SUB SWAP1 RETURN JUMPDEST CALLVALUE DUP1 ISZERO PUSH2 0x444 JUMPI PUSH1 0x0 DUP1 REVERT JUMPDEST POP PUSH2 0x45F PUSH1 0x4 DUP1 CALLDATASIZE SUB DUP2 ADD SWAP1 PUSH2 0x45A SWAP2 SWAP1 PUSH2 0x2B65 JUMP JUMPDEST PUSH2 0x121C JUMP JUMPDEST STOP JUMPDEST CALLVALUE DUP1 ISZERO PUSH2 0x46D JUMPI PUSH1 0x0 DUP1 REVERT JUMPDEST POP PUSH2 0x476 PUSH2 0x1397 JUMP JUMPDEST STOP JUMPDEST CALLVALUE DUP1 ISZERO PUSH2 0x484 JUMPI PUSH1 0x0 DUP1 REVERT JUMPDEST POP PUSH2 0x49F PUSH1 0x4 DUP1 CALLDATASIZE SUB DUP2 ADD SWAP1 PUSH2 0x49A SWAP2 SWAP1 PUSH2 0x2A9F JUMP JUMPDEST PUSH2 0x13A9 JUMP JUMPDEST STOP JUMPDEST CALLVALUE DUP1 ISZERO PUSH2 0x4AD JUMPI PUSH1 0x0 DUP1 REVERT JUMPDEST POP PUSH2 0x4C8 PUSH1 0x4 DUP1 CALLDATASIZE SUB DUP2 ADD SWAP1 PUSH2 0x4C3 SWAP2 SWAP1 PUSH2 0x2A9F JUMP JUMPDEST PUSH2 0x13CE JUMP JUMPDEST PUSH1 0x40 MLOAD PUSH2 0x4D5 SWAP2 SWAP1 PUSH2 0x2B4A JUMP JUMPDEST PUSH1 0x40 MLOAD DUP1 SWAP2 SUB SWAP1 RETURN JUMPDEST CALLVALUE DUP1 ISZERO PUSH2 0x4EA JUMPI PUSH1 0x0 DUP1 REVERT JUMPDEST POP PUSH2 0x505 PUSH1 0x4 DUP1 CALLDATASIZE SUB DUP2 ADD SWAP1 PUSH2 0x500 SWAP2 SWAP1 PUSH2 0x2CEB JUMP JUMPDEST PUSH2 0x13EB JUMP JUMPDEST STOP JUMPDEST PUSH2 0x521 PUSH1 0x4 DUP1 CALLDATASIZE SUB DUP2 ADD SWAP1 PUSH2 0x51C SWAP2 SWAP1 PUSH2 0x2B02 JUMP JUMPDEST PUSH2 0x1915 JUMP JUMPDEST STOP JUMPDEST CALLVALUE DUP1 ISZERO PUSH2 0x52F JUMPI PUSH1 0x0 DUP1 REVERT JUMPDEST POP PUSH2 0x54A PUSH1 0x4 DUP1 CALLDATASIZE SUB DUP2 ADD SWAP1 PUSH2 0x545 SWAP2 SWAP1 PUSH2 0x2B65 JUMP JUMPDEST PUSH2 0x1A76 JUMP JUMPDEST STOP JUMPDEST CALLVALUE DUP1 ISZERO PUSH2 0x558 JUMPI PUSH1 0x0 DUP1 REVERT JUMPDEST POP PUSH2 0x573 PUSH1 0x4 DUP1 CALLDATASIZE SUB DUP2 ADD SWAP1 PUSH2 0x56E SWAP2 SWAP1 PUSH2 0x2B02 JUMP JUMPDEST PUSH2 0x1BF1 JUMP JUMPDEST STOP JUMPDEST CALLVALUE DUP1 ISZERO PUSH2 0x581 JUMPI PUSH1 0x0 DUP1 REVERT JUMPDEST POP PUSH2 0x59C PUSH1 0x4 DUP1 CALLDATASIZE SUB DUP2 ADD SWAP1 PUSH2 0x597 SWAP2 SWAP1 PUSH2 0x2A9F JUMP JUMPDEST PUSH2 0x1D50 JUMP JUMPDEST STOP JUMPDEST CALLVALUE DUP1 ISZERO PUSH2 0x5AA JUMPI PUSH1 0x0 DUP1 REVERT JUMPDEST POP PUSH2 0x5B3 PUSH2 0x1D75 JUMP JUMPDEST STOP JUMPDEST CALLVALUE DUP1 ISZERO PUSH2 0x5C1 JUMPI PUSH1 0x0 DUP1 REVERT JUMPDEST POP PUSH2 0x5DC PUSH1 0x4 DUP1 CALLDATASIZE SUB DUP2 ADD SWAP1 PUSH2 0x5D7 SWAP2 SWAP1 PUSH2 0x2B65 JUMP JUMPDEST PUSH2 0x1D87 JUMP JUMPDEST STOP JUMPDEST CALLVALUE DUP1 ISZERO PUSH2 0x5EA JUMPI PUSH1 0x0 DUP1 REVERT JUMPDEST POP PUSH2 0x605 PUSH1 0x4 DUP1 CALLDATASIZE SUB DUP2 ADD SWAP1 PUSH2 0x600 SWAP2 SWAP1 PUSH2 0x2B65 JUMP JUMPDEST PUSH2 0x1F02 JUMP JUMPDEST STOP JUMPDEST PUSH2 0x621 PUSH1 0x4 DUP1 CALLDATASIZE SUB DUP2 ADD SWAP1 PUSH2 0x61C SWAP2 SWAP1 PUSH2 0x2B02 JUMP JUMPDEST PUSH2 0x207D JUMP JUMPDEST STOP JUMPDEST PUSH2 0x633 PUSH2 0x62E PUSH2 0x2428 JUMP JUMPDEST PUSH2 0x2430 JUMP JUMPDEST JUMP JUMPDEST PUSH2 0x645 PUSH2 0x640 PUSH2 0x2428 JUMP JUMPDEST PUSH2 0x11FF JUMP JUMPDEST PUSH2 0x64E JUMPI PUSH1 0x0 DUP1 REVERT JUMPDEST PUSH2 0x657 DUP2 PUSH2 0x248A JUMP JUMPDEST POP JUMP JUMPDEST PUSH2 0x66A PUSH2 0x665 PUSH2 0x2428 JUMP JUMPDEST PUSH2 0x105D JUMP JUMPDEST PUSH2 0x673 JUMPI PUSH1 0x0 DUP1 REVERT JUMPDEST DUP1 PUSH1 0x6 PUSH1 0x10 DUP2 GT ISZERO PUSH2 0x688 JUMPI PUSH2 0x687 PUSH2 0x2D5A JUMP JUMPDEST JUMPDEST PUSH1 0x8 PUSH1 0x0 DUP4 DUP2 MSTORE PUSH1 0x20 ADD SWAP1 DUP2 MSTORE PUSH1 0x20 ADD PUSH1 0x0 KECCAK256 PUSH1 0x6 ADD PUSH1 0x0 SWAP1 SLOAD SWAP1 PUSH2 0x100 EXP SWAP1 DIV PUSH1 0xFF AND PUSH1 0x10 DUP2 GT ISZERO PUSH2 0x6BE JUMPI PUSH2 0x6BD PUSH2 0x2D5A JUMP JUMPDEST JUMPDEST EQ PUSH2 0x6C8 JUMPI PUSH1 0x0 DUP1 REVERT JUMPDEST PUSH1 0x8 PUSH1 0x0 DUP4 DUP2 MSTORE PUSH1 0x20 ADD SWAP1 DUP2 MSTORE PUSH1 0x20 ADD PUSH1 0x0 KECCAK256 PUSH1 0x7 ADD SLOAD DUP1 CALLVALUE LT ISZERO PUSH2 0x6EC JUMPI PUSH1 0x0 DUP1 REVERT JUMPDEST DUP3 PUSH2 0x6F5 PUSH2 0x2428 JUMP JUMPDEST PUSH1 0x0 PUSH1 0x8 PUSH1 0x0 DUP5 DUP2 MSTORE PUSH1 0x20 ADD SWAP1 DUP2 MSTORE PUSH1 0x20 ADD PUSH1 0x0 KECCAK256 PUSH1 0xD ADD SLOAD SWAP1 POP PUSH1 0x0 DUP2 CALLVALUE PUSH2 0x71E SWAP2 SWAP1 PUSH2 0x2DB8 JUMP JUMPDEST SWAP1 POP DUP3 PUSH20 0xFFFFFFFFFFFFFFFFFFFFFFFFFFFFFFFFFFFFFFFF AND PUSH2 0x8FC DUP3 SWAP1 DUP2 ISZERO MUL SWAP1 PUSH1 0x40 MLOAD PUSH1 0x0 PUSH1 0x40 MLOAD DUP1 DUP4 SUB DUP2 DUP6 DUP9 DUP9 CALL SWAP4 POP POP POP POP ISZERO DUP1 ISZERO PUSH2 0x766 JUMPI RETURNDATASIZE PUSH1 0x0 DUP1 RETURNDATACOPY RETURNDATASIZE PUSH1 0x0 REVERT JUMPDEST POP PUSH1 0x0 PUSH2 0x7A8 PUSH1 0x8 PUSH1 0x0 DUP11 DUP2 MSTORE PUSH1 0x20 ADD SWAP1 DUP2 MSTORE PUSH1 0x20 ADD PUSH1 0x0 KECCAK256 PUSH1 0xA ADD PUSH1 0x0 SWAP1 SLOAD SWAP1 PUSH2 0x100 EXP SWAP1 DIV PUSH20 0xFFFFFFFFFFFFFFFFFFFFFFFFFFFFFFFFFFFFFFFF AND PUSH2 0x24E4 JUMP JUMPDEST SWAP1 POP DUP1 PUSH20 0xFFFFFFFFFFFFFFFFFFFFFFFFFFFFFFFFFFFFFFFF AND PUSH2 0x8FC PUSH1 0x8 PUSH1 0x0 DUP12 DUP2 MSTORE PUSH1 0x20 ADD SWAP1 DUP2 MSTORE PUSH1 0x20 ADD PUSH1 0x0 KECCAK256 PUSH1 0x7 ADD SLOAD SWAP1 DUP2 ISZERO MUL SWAP1 PUSH1 0x40 MLOAD PUSH1 0x0 PUSH1 0x40 MLOAD DUP1 DUP4 SUB DUP2 DUP6 DUP9 DUP9 CALL SWAP4 POP POP POP POP ISZERO DUP1 ISZERO PUSH2 0x806 JUMPI RETURNDATASIZE PUSH1 0x0 DUP1 RETURNDATACOPY RETURNDATASIZE PUSH1 0x0 REVERT JUMPDEST POP PUSH2 0x80F PUSH2 0x2428 JUMP JUMPDEST PUSH1 0x8 PUSH1 0x0 DUP11 DUP2 MSTORE PUSH1 0x20 ADD SWAP1 DUP2 MSTORE PUSH1 0x20 ADD PUSH1 0x0 KECCAK256 PUSH1 0x2 ADD PUSH1 0x0 PUSH2 0x100 EXP DUP2 SLOAD DUP2 PUSH20 0xFFFFFFFFFFFFFFFFFFFFFFFFFFFFFFFFFFFFFFFF MUL NOT AND SWAP1 DUP4 PUSH20 0xFFFFFFFFFFFFFFFFFFFFFFFFFFFFFFFFFFFFFFFF AND MUL OR SWAP1 SSTORE POP PUSH2 0x86B PUSH2 0x2428 JUMP JUMPDEST PUSH1 0x8 PUSH1 0x0 DUP11 DUP2 MSTORE PUSH1 0x20 ADD SWAP1 DUP2 MSTORE PUSH1 0x20 ADD PUSH1 0x0 KECCAK256 PUSH1 0x9 ADD PUSH1 0x0 PUSH2 0x100 EXP DUP2 SLOAD DUP2 PUSH20 0xFFFFFFFFFFFFFFFFFFFFFFFFFFFFFFFFFFFFFFFF MUL NOT AND SWAP1 DUP4 PUSH20 0xFFFFFFFFFFFFFFFFFFFFFFFFFFFFFFFFFFFFFFFF AND MUL OR SWAP1 SSTORE POP PUSH1 0x7 PUSH1 0x8 PUSH1 0x0 DUP11 DUP2 MSTORE PUSH1 0x20 ADD SWAP1 DUP2 MSTORE PUSH1 0x20 ADD PUSH1 0x0 KECCAK256 PUSH1 0x6 ADD PUSH1 0x0 PUSH2 0x100 EXP DUP2 SLOAD DUP2 PUSH1 0xFF MUL NOT AND SWAP1 DUP4 PUSH1 0x10 DUP2 GT ISZERO PUSH2 0x8F9 JUMPI PUSH2 0x8F8 PUSH2 0x2D5A JUMP JUMPDEST JUMPDEST MUL OR SWAP1 SSTORE POP NUMBER PUSH1 0x9 PUSH1 0x0 DUP11 DUP2 MSTORE PUSH1 0x20 ADD SWAP1 DUP2 MSTORE PUSH1 0x20 ADD PUSH1 0x0 KECCAK256 PUSH1 0x1 ADD DUP2 SWAP1 SSTORE POP PUSH32 0xB2AD8447953E780F58D2343EA44F2BE15D412DC219F1CA265728CDC5CAC9B66 DUP9 PUSH1 0x40 MLOAD PUSH2 0x948 SWAP2 SWAP1 PUSH2 0x2DFB JUMP JUMPDEST PUSH1 0x40 MLOAD DUP1 SWAP2 SUB SWAP1 LOG1 POP POP POP POP POP POP POP POP JUMP JUMPDEST PUSH1 0x0 PUSH2 0x970 DUP3 PUSH1 0x0 PUSH2 0x24EE SWAP1 SWAP2 SWAP1 PUSH4 0xFFFFFFFF AND JUMP JUMPDEST SWAP1 POP SWAP2 SWAP1 POP JUMP JUMPDEST PUSH2 0x987 PUSH2 0x982 PUSH2 0x2428 JUMP JUMPDEST PUSH2 0x13CE JUMP JUMPDEST PUSH2 0x990 JUMPI PUSH1 0x0 DUP1 REVERT JUMPDEST DUP1 PUSH1 0x8 PUSH1 0x10 DUP2 GT ISZERO PUSH2 0x9A5 JUMPI PUSH2 0x9A4 PUSH2 0x2D5A JUMP JUMPDEST JUMPDEST PUSH1 0x8 PUSH1 0x0 DUP4 DUP2 MSTORE PUSH1 0x20 ADD SWAP1 DUP2 MSTORE PUSH1 0x20 ADD PUSH1 0x0 KECCAK256 PUSH1 0x6 ADD PUSH1 0x0 SWAP1 SLOAD SWAP1 PUSH2 0x100 EXP SWAP1 DIV PUSH1 0xFF AND PUSH1 0x10 DUP2 GT ISZERO PUSH2 0x9DB JUMPI PUSH2 0x9DA PUSH2 0x2D5A JUMP JUMPDEST JUMPDEST EQ PUSH2 0x9E5 JUMPI PUSH1 0x0 DUP1 REVERT JUMPDEST PUSH1 0x8 PUSH1 0x0 DUP4 DUP2 MSTORE PUSH1 0x20 ADD SWAP1 DUP2 MSTORE PUSH1 0x20 ADD PUSH1 0x0 KECCAK256 PUSH1 0x2 ADD PUSH1 0x0 SWAP1 SLOAD SWAP1 PUSH2 0x100 EXP SWAP1 DIV PUSH20 0xFFFFFFFFFFFFFFFFFFFFFFFFFFFFFFFFFFFFFFFF AND DUP1 PUSH20 0xFFFFFFFFFFFFFFFFFFFFFFFFFFFFFFFFFFFFFFFF AND PUSH2 0xA3B PUSH2 0x2428 JUMP JUMPDEST PUSH20 0xFFFFFFFFFFFFFFFFFFFFFFFFFFFFFFFFFFFFFFFF AND EQ PUSH2 0xA5B JUMPI PUSH1 0x0 DUP1 REVERT JUMPDEST PUSH1 0x4 PUSH1 0x8 PUSH1 0x0 DUP6 DUP2 MSTORE PUSH1 0x20 ADD SWAP1 DUP2 MSTORE PUSH1 0x20 ADD PUSH1 0x0 KECCAK256 PUSH1 0x6 ADD PUSH1 0x0 PUSH2 0x100 EXP DUP2 SLOAD DUP2 PUSH1 0xFF MUL NOT AND SWAP1 DUP4 PUSH1 0x10 DUP2 GT ISZERO PUSH2 0xA95 JUMPI PUSH2 0xA94 PUSH2 0x2D5A JUMP JUMPDEST JUMPDEST MUL OR SWAP1 SSTORE POP PUSH32 0xC8CA2150E6E1849A10EF5AA4932060FA353BCACDFFEB150C9E1890C6AB9403CC DUP4 PUSH1 0x40 MLOAD PUSH2 0xAC9 SWAP2 SWAP1 PUSH2 0x2DFB JUMP JUMPDEST PUSH1 0x40 MLOAD DUP1 SWAP2 SUB SWAP1 LOG1 POP POP POP JUMP JUMPDEST PUSH2 0xAE6 PUSH2 0xAE1 PUSH2 0x2428 JUMP JUMPDEST PUSH2 0x105D JUMP JUMPDEST PUSH2 0xAEF JUMPI PUSH1 0x0 DUP1 REVERT JUMPDEST DUP1 PUSH1 0xB PUSH1 0x10 DUP2 GT ISZERO PUSH2 0xB04 JUMPI PUSH2 0xB03 PUSH2 0x2D5A JUMP JUMPDEST JUMPDEST PUSH1 0x8 PUSH1 0x0 DUP4 DUP2 MSTORE PUSH1 0x20 ADD SWAP1 DUP2 MSTORE PUSH1 0x20 ADD PUSH1 0x0 KECCAK256 PUSH1 0x6 ADD PUSH1 0x0 SWAP1 SLOAD SWAP1 PUSH2 0x100 EXP SWAP1 DIV PUSH1 0xFF AND PUSH1 0x10 DUP2 GT ISZERO PUSH2 0xB3A JUMPI PUSH2 0xB39 PUSH2 0x2D5A JUMP JUMPDEST JUMPDEST EQ PUSH2 0xB44 JUMPI PUSH1 0x0 DUP1 REVERT JUMPDEST PUSH1 0x8 PUSH1 0x0 DUP4 DUP2 MSTORE PUSH1 0x20 ADD SWAP1 DUP2 MSTORE PUSH1 0x20 ADD PUSH1 0x0 KECCAK256 PUSH1 0x7 ADD SLOAD DUP1 CALLVALUE LT ISZERO PUSH2 0xB68 JUMPI PUSH1 0x0 DUP1 REVERT JUMPDEST DUP3 PUSH2 0xB71 PUSH2 0x2428 JUMP JUMPDEST PUSH1 0x0 PUSH1 0x8 PUSH1 0x0 DUP5 DUP2 MSTORE PUSH1 0x20 ADD SWAP1 DUP2 MSTORE PUSH1 0x20 ADD PUSH1 0x0 KECCAK256 PUSH1 0xD ADD SLOAD SWAP1 POP PUSH1 0x0 DUP2 CALLVALUE PUSH2 0xB9A SWAP2 SWAP1 PUSH2 0x2DB8 JUMP JUMPDEST SWAP1 POP DUP3 PUSH20 0xFFFFFFFFFFFFFFFFFFFFFFFFFFFFFFFFFFFFFFFF AND PUSH2 0x8FC DUP3 SWAP1 DUP2 ISZERO MUL SWAP1 PUSH1 0x40 MLOAD PUSH1 0x0 PUSH1 0x40 MLOAD DUP1 DUP4 SUB DUP2 DUP6 DUP9 DUP9 CALL SWAP4 POP POP POP POP ISZERO DUP1 ISZERO PUSH2 0xBE2 JUMPI RETURNDATASIZE PUSH1 0x0 DUP1 RETURNDATACOPY RETURNDATASIZE PUSH1 0x0 REVERT JUMPDEST POP PUSH1 0x0 PUSH2 0xC24 PUSH1 0x8 PUSH1 0x0 DUP11 DUP2 MSTORE PUSH1 0x20 ADD SWAP1 DUP2 MSTORE PUSH1 0x20 ADD PUSH1 0x0 KECCAK256 PUSH1 0x9 ADD PUSH1 0x0 SWAP1 SLOAD SWAP1 PUSH2 0x100 EXP SWAP1 DIV PUSH20 0xFFFFFFFFFFFFFFFFFFFFFFFFFFFFFFFFFFFFFFFF AND PUSH2 0x24E4 JUMP JUMPDEST SWAP1 POP DUP1 PUSH20 0xFFFFFFFFFFFFFFFFFFFFFFFFFFFFFFFFFFFFFFFF AND PUSH2 0x8FC PUSH1 0x8 PUSH1 0x0 DUP12 DUP2 MSTORE PUSH1 0x20 ADD SWAP1 DUP2 MSTORE PUSH1 0x20 ADD PUSH1 0x0 KECCAK256 PUSH1 0x7 ADD SLOAD SWAP1 DUP2 ISZERO MUL SWAP1 PUSH1 0x40 MLOAD PUSH1 0x0 PUSH1 0x40 MLOAD DUP1 DUP4 SUB DUP2 DUP6 DUP9 DUP9 CALL SWAP4 POP POP POP POP ISZERO DUP1 ISZERO PUSH2 0xC82 JUMPI RETURNDATASIZE PUSH1 0x0 DUP1 RETURNDATACOPY RETURNDATASIZE PUSH1 0x0 REVERT JUMPDEST POP PUSH2 0xC8B PUSH2 0x2428 JUMP JUMPDEST PUSH1 0x8 PUSH1 0x0 DUP11 DUP2 MSTORE PUSH1 0x20 ADD SWAP1 DUP2 MSTORE PUSH1 0x20 ADD PUSH1 0x0 KECCAK256 PUSH1 0x2 ADD PUSH1 0x0 PUSH2 0x100 EXP DUP2 SLOAD DUP2 PUSH20 0xFFFFFFFFFFFFFFFFFFFFFFFFFFFFFFFFFFFFFFFF MUL NOT AND SWAP1 DUP4 PUSH20 0xFFFFFFFFFFFFFFFFFFFFFFFFFFFFFFFFFFFFFFFF AND MUL OR SWAP1 SSTORE POP PUSH2 0xCE7 PUSH2 0x2428 JUMP JUMPDEST PUSH1 0x8 PUSH1 0x0 DUP11 DUP2 MSTORE PUSH1 0x20 ADD SWAP1 DUP2 MSTORE PUSH1 0x20 ADD PUSH1 0x0 KECCAK256 PUSH1 0xB ADD PUSH1 0x0 PUSH2 0x100 EXP DUP2 SLOAD DUP2 PUSH20 0xFFFFFFFFFFFFFFFFFFFFFFFFFFFFFFFFFFFFFFFF MUL NOT AND SWAP1 DUP4 PUSH20 0xFFFFFFFFFFFFFFFFFFFFFFFFFFFFFFFFFFFFFFFF AND MUL OR SWAP1 SSTORE POP PUSH1 0xC PUSH1 0x8 PUSH1 0x0 DUP11 DUP2 MSTORE PUSH1 0x20 ADD SWAP1 DUP2 MSTORE PUSH1 0x20 ADD PUSH1 0x0 KECCAK256 PUSH1 0x6 ADD PUSH1 0x0 PUSH2 0x100 EXP DUP2 SLOAD DUP2 PUSH1 0xFF MUL NOT AND SWAP1 DUP4 PUSH1 0x10 DUP2 GT ISZERO PUSH2 0xD75 JUMPI PUSH2 0xD74 PUSH2 0x2D5A JUMP JUMPDEST JUMPDEST MUL OR SWAP1 SSTORE POP NUMBER PUSH1 0x9 PUSH1 0x0 DUP11 DUP2 MSTORE PUSH1 0x20 ADD SWAP1 DUP2 MSTORE PUSH1 0x20 ADD PUSH1 0x0 KECCAK256 PUSH1 0x2 ADD DUP2 SWAP1 SSTORE POP PUSH32 0xAA7352D10146444C3AFD9BD7FB0AE56B0A85E81139536BBEC3F1F660FDDD7BE1 DUP9 PUSH1 0x40 MLOAD PUSH2 0xDC4 SWAP2 SWAP1 PUSH2 0x2DFB JUMP JUMPDEST PUSH1 0x40 MLOAD DUP1 SWAP2 SUB SWAP1 LOG1 POP POP POP POP POP POP POP POP JUMP JUMPDEST PUSH2 0xDE6 PUSH2 0xDE1 PUSH2 0x2428 JUMP JUMPDEST PUSH2 0x105D JUMP JUMPDEST PUSH2 0xDEF JUMPI PUSH1 0x0 DUP1 REVERT JUMPDEST DUP2 PUSH1 0x9 PUSH1 0x10 DUP2 GT ISZERO PUSH2 0xE04 JUMPI PUSH2 0xE03 PUSH2 0x2D5A JUMP JUMPDEST JUMPDEST PUSH1 0x8 PUSH1 0x0 DUP4 DUP2 MSTORE PUSH1 0x20 ADD SWAP1 DUP2 MSTORE PUSH1 0x20 ADD PUSH1 0x0 KECCAK256 PUSH1 0x6 ADD PUSH1 0x0 SWAP1 SLOAD SWAP1 PUSH2 0x100 EXP SWAP1 DIV PUSH1 0xFF AND PUSH1 0x10 DUP2 GT ISZERO PUSH2 0xE3A JUMPI PUSH2 0xE39 PUSH2 0x2D5A JUMP JUMPDEST JUMPDEST EQ PUSH2 0xE44 JUMPI PUSH1 0x0 DUP1 REVERT JUMPDEST PUSH1 0x8 PUSH1 0x0 DUP5 DUP2 MSTORE PUSH1 0x20 ADD SWAP1 DUP2 MSTORE PUSH1 0x20 ADD PUSH1 0x0 KECCAK256 PUSH1 0x2 ADD PUSH1 0x0 SWAP1 SLOAD SWAP1 PUSH2 0x100 EXP SWAP1 DIV PUSH20 0xFFFFFFFFFFFFFFFFFFFFFFFFFFFFFFFFFFFFFFFF AND DUP1 PUSH20 0xFFFFFFFFFFFFFFFFFFFFFFFFFFFFFFFFFFFFFFFF AND PUSH2 0xE9A PUSH2 0x2428 JUMP JUMPDEST PUSH20 0xFFFFFFFFFFFFFFFFFFFFFFFFFFFFFFFFFFFFFFFF AND EQ PUSH2 0xEBA JUMPI PUSH1 0x0 DUP1 REVERT JUMPDEST PUSH1 0xA PUSH1 0x8 PUSH1 0x0 DUP7 DUP2 MSTORE PUSH1 0x20 ADD SWAP1 DUP2 MSTORE PUSH1 0x20 ADD PUSH1 0x0 KECCAK256 PUSH1 0x6 ADD PUSH1 0x0 PUSH2 0x100 EXP DUP2 SLOAD DUP2 PUSH1 0xFF MUL NOT AND SWAP1 DUP4 PUSH1 0x10 DUP2 GT ISZERO PUSH2 0xEF4 JUMPI PUSH2 0xEF3 PUSH2 0x2D5A JUMP JUMPDEST JUMPDEST MUL OR SWAP1 SSTORE POP DUP3 PUSH1 0x8 PUSH1 0x0 DUP7 DUP2 MSTORE PUSH1 0x20 ADD SWAP1 DUP2 MSTORE PUSH1 0x20 ADD PUSH1 0x0 KECCAK256 PUSH1 0x8 ADD DUP2 SWAP1 SSTORE POP PUSH32 0xE0326EB12EDEF57B95F5C62083BA2B46710C31108309CF7F3A93D075DBFD2968 DUP5 PUSH1 0x40 MLOAD PUSH2 0xF43 SWAP2 SWAP1 PUSH2 0x2DFB JUMP JUMPDEST PUSH1 0x40 MLOAD DUP1 SWAP2 SUB SWAP1 LOG1 POP POP POP POP JUMP JUMPDEST PUSH2 0xF61 PUSH2 0xF5C PUSH2 0x2428 JUMP JUMPDEST PUSH2 0x257F JUMP JUMPDEST JUMP JUMPDEST PUSH1 0x5 PUSH1 0x0 SWAP1 SLOAD SWAP1 PUSH2 0x100 EXP SWAP1 DIV PUSH20 0xFFFFFFFFFFFFFFFFFFFFFFFFFFFFFFFFFFFFFFFF AND PUSH20 0xFFFFFFFFFFFFFFFFFFFFFFFFFFFFFFFFFFFFFFFF AND PUSH2 0xFA4 PUSH2 0x2428 JUMP JUMPDEST PUSH20 0xFFFFFFFFFFFFFFFFFFFFFFFFFFFFFFFFFFFFFFFF AND SUB PUSH2 0x1007 JUMPI PUSH1 0x0 PUSH2 0xFEC PUSH1 0x5 PUSH1 0x0 SWAP1 SLOAD SWAP1 PUSH2 0x100 EXP SWAP1 DIV PUSH20 0xFFFFFFFFFFFFFFFFFFFFFFFFFFFFFFFFFFFFFFFF AND PUSH2 0x24E4 JUMP JUMPDEST SWAP1 POP DUP1 PUSH20 0xFFFFFFFFFFFFFFFFFFFFFFFFFFFFFFFFFFFFFFFF AND SELFDESTRUCT JUMPDEST JUMP JUMPDEST PUSH2 0x1019 PUSH2 0x1014 PUSH2 0x2428 JUMP JUMPDEST PUSH2 0x25D9 JUMP JUMPDEST JUMP JUMPDEST PUSH1 0x0 PUSH2 0x1031 DUP3 PUSH1 0x3 PUSH2 0x24EE SWAP1 SWAP2 SWAP1 PUSH4 0xFFFFFFFF AND JUMP JUMPDEST SWAP1 POP SWAP2 SWAP1 POP JUMP JUMPDEST PUSH2 0x1048 PUSH2 0x1043 PUSH2 0x2428 JUMP JUMPDEST PUSH2 0x95A JUMP JUMPDEST PUSH2 0x1051 JUMPI PUSH1 0x0 DUP1 REVERT JUMPDEST PUSH2 0x105A DUP2 PUSH2 0x2633 JUMP JUMPDEST POP JUMP JUMPDEST PUSH1 0x0 PUSH2 0x1073 DUP3 PUSH1 0x2 PUSH2 0x24EE SWAP1 SWAP2 SWAP1 PUSH4 0xFFFFFFFF AND JUMP JUMPDEST SWAP1 POP SWAP2 SWAP1 POP JUMP JUMPDEST PUSH2 0x108A PUSH2 0x1085 PUSH2 0x2428 JUMP JUMPDEST PUSH2 0x13CE JUMP JUMPDEST PUSH2 0x1093 JUMPI PUSH1 0x0 DUP1 REVERT JUMPDEST PUSH2 0x109C DUP2 PUSH2 0x268D JUMP JUMPDEST POP JUMP JUMPDEST PUSH2 0x10AF PUSH2 0x10AA PUSH2 0x2428 JUMP JUMPDEST PUSH2 0x13CE JUMP JUMPDEST PUSH2 0x10B8 JUMPI PUSH1 0x0 DUP1 REVERT JUMPDEST DUP1 PUSH1 0x7 PUSH1 0x10 DUP2 GT ISZERO PUSH2 0x10CD JUMPI PUSH2 0x10CC PUSH2 0x2D5A JUMP JUMPDEST JUMPDEST PUSH1 0x8 PUSH1 0x0 DUP4 DUP2 MSTORE PUSH1 0x20 ADD SWAP1 DUP2 MSTORE PUSH1 0x20 ADD PUSH1 0x0 KECCAK256 PUSH1 0x6 ADD PUSH1 0x0 SWAP1 SLOAD SWAP1 PUSH2 0x100 EXP SWAP1 DIV PUSH1 0xFF AND PUSH1 0x10 DUP2 GT ISZERO PUSH2 0x1103 JUMPI PUSH2 0x1102 PUSH2 0x2D5A JUMP JUMPDEST JUMPDEST EQ PUSH2 0x110D JUMPI PUSH1 0x0 DUP1 REVERT JUMPDEST PUSH1 0x8 PUSH1 0x0 DUP4 DUP2 MSTORE PUSH1 0x20 ADD SWAP1 DUP2 MSTORE PUSH1 0x20 ADD PUSH1 0x0 KECCAK256 PUSH1 0xA ADD PUSH1 0x0 SWAP1 SLOAD SWAP1 PUSH2 0x100 EXP SWAP1 DIV PUSH20 0xFFFFFFFFFFFFFFFFFFFFFFFFFFFFFFFFFFFFFFFF AND DUP1 PUSH20 0xFFFFFFFFFFFFFFFFFFFFFFFFFFFFFFFFFFFFFFFF AND PUSH2 0x1163 PUSH2 0x2428 JUMP JUMPDEST PUSH20 0xFFFFFFFFFFFFFFFFFFFFFFFFFFFFFFFFFFFFFFFF AND EQ PUSH2 0x1183 JUMPI PUSH1 0x0 DUP1 REVERT JUMPDEST PUSH1 0x8 DUP1 PUSH1 0x0 DUP6 DUP2 MSTORE PUSH1 0x20 ADD SWAP1 DUP2 MSTORE PUSH1 0x20 ADD PUSH1 0x0 KECCAK256 PUSH1 0x6 ADD PUSH1 0x0 PUSH2 0x100 EXP DUP2 SLOAD DUP2 PUSH1 0xFF MUL NOT AND SWAP1 DUP4 PUSH1 0x10 DUP2 GT ISZERO PUSH2 0x11BC JUMPI PUSH2 0x11BB PUSH2 0x2D5A JUMP JUMPDEST JUMPDEST MUL OR SWAP1 SSTORE POP PUSH32 0xC5C33776D405E5686E4386E1EF31A65CF6195E4F7CEB8808AB64D05B6CCBC2A6 PUSH1 0x6 SLOAD PUSH1 0x40 MLOAD PUSH2 0x11F2 SWAP2 SWAP1 PUSH2 0x2DFB JUMP JUMPDEST PUSH1 0x40 MLOAD DUP1 SWAP2 SUB SWAP1 LOG1 POP POP POP JUMP JUMPDEST PUSH1 0x0 PUSH2 0x1215 DUP3 PUSH1 0x4 PUSH2 0x24EE SWAP1 SWAP2 SWAP1 PUSH4 0xFFFFFFFF AND JUMP JUMPDEST SWAP1 POP SWAP2 SWAP1 POP JUMP JUMPDEST PUSH2 0x122C PUSH2 0x1227 PUSH2 0x2428 JUMP JUMPDEST PUSH2 0x13CE JUMP JUMPDEST PUSH2 0x1235 JUMPI PUSH1 0x0 DUP1 REVERT JUMPDEST DUP2 PUSH1 0x5 PUSH1 0x10 DUP2 GT ISZERO PUSH2 0x124A JUMPI PUSH2 0x1249 PUSH2 0x2D5A JUMP JUMPDEST JUMPDEST PUSH1 0x8 PUSH1 0x0 DUP4 DUP2 MSTORE PUSH1 0x20 ADD SWAP1 DUP2 MSTORE PUSH1 0x20 ADD PUSH1 0x0 KECCAK256 PUSH1 0x6 ADD PUSH1 0x0 SWAP1 SLOAD SWAP1 PUSH2 0x100 EXP SWAP1 DIV PUSH1 0xFF AND PUSH1 0x10 DUP2 GT ISZERO PUSH2 0x1280 JUMPI PUSH2 0x127F PUSH2 0x2D5A JUMP JUMPDEST JUMPDEST EQ PUSH2 0x128A JUMPI PUSH1 0x0 DUP1 REVERT JUMPDEST PUSH1 0x8 PUSH1 0x0 DUP5 DUP2 MSTORE PUSH1 0x20 ADD SWAP1 DUP2 MSTORE PUSH1 0x20 ADD PUSH1 0x0 KECCAK256 PUSH1 0x2 ADD PUSH1 0x0 SWAP1 SLOAD SWAP1 PUSH2 0x100 EXP SWAP1 DIV PUSH20 0xFFFFFFFFFFFFFFFFFFFFFFFFFFFFFFFFFFFFFFFF AND DUP1 PUSH20 0xFFFFFFFFFFFFFFFFFFFFFFFFFFFFFFFFFFFFFFFF AND PUSH2 0x12E0 PUSH2 0x2428 JUMP JUMPDEST PUSH20 0xFFFFFFFFFFFFFFFFFFFFFFFFFFFFFFFFFFFFFFFF AND EQ PUSH2 0x1300 JUMPI PUSH1 0x0 DUP1 REVERT JUMPDEST PUSH1 0xB PUSH1 0x8 PUSH1 0x0 DUP7 DUP2 MSTORE PUSH1 0x20 ADD SWAP1 DUP2 MSTORE PUSH1 0x20 ADD PUSH1 0x0 KECCAK256 PUSH1 0x6 ADD PUSH1 0x0 PUSH2 0x100 EXP DUP2 SLOAD DUP2 PUSH1 0xFF MUL NOT AND SWAP1 DUP4 PUSH1 0x10 DUP2 GT ISZERO PUSH2 0x133A JUMPI PUSH2 0x1339 PUSH2 0x2D5A JUMP JUMPDEST JUMPDEST MUL OR SWAP1 SSTORE POP DUP3 PUSH1 0x8 PUSH1 0x0 DUP7 DUP2 MSTORE PUSH1 0x20 ADD SWAP1 DUP2 MSTORE PUSH1 0x20 ADD PUSH1 0x0 KECCAK256 PUSH1 0x7 ADD DUP2 SWAP1 SSTORE POP PUSH32 0x539B4A835A8A5D1BC5756A9F146E2BFEAA6BD6B1FA77A7631C0A5154C86CDD03 DUP5 PUSH1 0x40 MLOAD PUSH2 0x1389 SWAP2 SWAP1 PUSH2 0x2DFB JUMP JUMPDEST PUSH1 0x40 MLOAD DUP1 SWAP2 SUB SWAP1 LOG1 POP POP POP POP JUMP JUMPDEST PUSH2 0x13A7 PUSH2 0x13A2 PUSH2 0x2428 JUMP JUMPDEST PUSH2 0x26E7 JUMP JUMPDEST JUMP JUMPDEST PUSH2 0x13B9 PUSH2 0x13B4 PUSH2 0x2428 JUMP JUMPDEST PUSH2 0x101B JUMP JUMPDEST PUSH2 0x13C2 JUMPI PUSH1 0x0 DUP1 REVERT JUMPDEST PUSH2 0x13CB DUP2 PUSH2 0x2741 JUMP JUMPDEST POP JUMP JUMPDEST PUSH1 0x0 PUSH2 0x13E4 DUP3 PUSH1 0x1 PUSH2 0x24EE SWAP1 SWAP2 SWAP1 PUSH4 0xFFFFFFFF AND JUMP JUMPDEST SWAP1 POP SWAP2 SWAP1 POP JUMP JUMPDEST PUSH2 0x13FB PUSH2 0x13F6 PUSH2 0x2428 JUMP JUMPDEST PUSH2 0x95A JUMP JUMPDEST PUSH2 0x1404 JUMPI PUSH1 0x0 DUP1 REVERT JUMPDEST PUSH1 0x0 DUP1 PUSH1 0x0 DUP1 PUSH2 0x1412 PUSH2 0x28F9 JUMP JUMPDEST PUSH2 0x141A PUSH2 0x2428 JUMP JUMPDEST DUP2 PUSH1 0x60 ADD SWAP1 PUSH20 0xFFFFFFFFFFFFFFFFFFFFFFFFFFFFFFFFFFFFFFFF AND SWAP1 DUP2 PUSH20 0xFFFFFFFFFFFFFFFFFFFFFFFFFFFFFFFFFFFFFFFF AND DUP2 MSTORE POP POP PUSH1 0x7 SLOAD DUP2 PUSH1 0x0 ADD DUP2 DUP2 MSTORE POP POP DUP8 DUP2 PUSH1 0x20 ADD DUP2 DUP2 MSTORE POP POP PUSH2 0x146F PUSH2 0x2428 JUMP JUMPDEST DUP2 PUSH1 0x40 ADD SWAP1 PUSH20 0xFFFFFFFFFFFFFFFFFFFFFFFFFFFFFFFFFFFFFFFF AND SWAP1 DUP2 PUSH20 0xFFFFFFFFFFFFFFFFFFFFFFFFFFFFFFFFFFFFFFFF AND DUP2 MSTORE POP POP DUP7 DUP2 PUSH1 0xA0 ADD DUP2 SWAP1 MSTORE POP DUP6 DUP2 PUSH1 0xE0 ADD DUP2 DUP2 MSTORE POP POP PUSH1 0x7 SLOAD DUP9 PUSH2 0x14C7 SWAP2 SWAP1 PUSH2 0x2E16 JUMP JUMPDEST DUP2 PUSH1 0x80 ADD DUP2 DUP2 MSTORE POP POP PUSH1 0x0 DUP2 PUSH1 0xC0 ADD SWAP1 PUSH1 0x10 DUP2 GT ISZERO PUSH2 0x14E9 JUMPI PUSH2 0x14E8 PUSH2 0x2D5A JUMP JUMPDEST JUMPDEST SWAP1 DUP2 PUSH1 0x10 DUP2 GT ISZERO PUSH2 0x14FD JUMPI PUSH2 0x14FC PUSH2 0x2D5A JUMP JUMPDEST JUMPDEST DUP2 MSTORE POP POP DUP4 DUP2 PUSH2 0x120 ADD SWAP1 PUSH20 0xFFFFFFFFFFFFFFFFFFFFFFFFFFFFFFFFFFFFFFFF AND SWAP1 DUP2 PUSH20 0xFFFFFFFFFFFFFFFFFFFFFFFFFFFFFFFFFFFFFFFF AND DUP2 MSTORE POP POP DUP5 DUP2 PUSH2 0x140 ADD SWAP1 PUSH20 0xFFFFFFFFFFFFFFFFFFFFFFFFFFFFFFFFFFFFFFFF AND SWAP1 DUP2 PUSH20 0xFFFFFFFFFFFFFFFFFFFFFFFFFFFFFFFFFFFFFFFF AND DUP2 MSTORE POP POP DUP3 DUP2 PUSH2 0x160 ADD SWAP1 PUSH20 0xFFFFFFFFFFFFFFFFFFFFFFFFFFFFFFFFFFFFFFFF AND SWAP1 DUP2 PUSH20 0xFFFFFFFFFFFFFFFFFFFFFFFFFFFFFFFFFFFFFFFF AND DUP2 MSTORE POP POP DUP2 DUP2 PUSH2 0x180 ADD SWAP1 PUSH20 0xFFFFFFFFFFFFFFFFFFFFFFFFFFFFFFFFFFFFFFFF AND SWAP1 DUP2 PUSH20 0xFFFFFFFFFFFFFFFFFFFFFFFFFFFFFFFFFFFFFFFF AND DUP2 MSTORE POP POP PUSH1 0x0 DUP2 PUSH2 0x100 ADD DUP2 DUP2 MSTORE POP POP DUP1 PUSH1 0x8 PUSH1 0x0 DUP11 DUP2 MSTORE PUSH1 0x20 ADD SWAP1 DUP2 MSTORE PUSH1 0x20 ADD PUSH1 0x0 KECCAK256 PUSH1 0x0 DUP3 ADD MLOAD DUP2 PUSH1 0x0 ADD SSTORE PUSH1 0x20 DUP3 ADD MLOAD DUP2 PUSH1 0x1 ADD SSTORE PUSH1 0x40 DUP3 ADD MLOAD DUP2 PUSH1 0x2 ADD PUSH1 0x0 PUSH2 0x100 EXP DUP2 SLOAD DUP2 PUSH20 0xFFFFFFFFFFFFFFFFFFFFFFFFFFFFFFFFFFFFFFFF MUL NOT AND SWAP1 DUP4 PUSH20 0xFFFFFFFFFFFFFFFFFFFFFFFFFFFFFFFFFFFFFFFF AND MUL OR SWAP1 SSTORE POP PUSH1 0x60 DUP3 ADD MLOAD DUP2 PUSH1 0x3 ADD PUSH1 0x0 PUSH2 0x100 EXP DUP2 SLOAD DUP2 PUSH20 0xFFFFFFFFFFFFFFFFFFFFFFFFFFFFFFFFFFFFFFFF MUL NOT AND SWAP1 DUP4 PUSH20 0xFFFFFFFFFFFFFFFFFFFFFFFFFFFFFFFFFFFFFFFF AND MUL OR SWAP1 SSTORE POP PUSH1 0x80 DUP3 ADD MLOAD DUP2 PUSH1 0x4 ADD SSTORE PUSH1 0xA0 DUP3 ADD MLOAD DUP2 PUSH1 0x5 ADD SWAP1 DUP2 PUSH2 0x16C6 SWAP2 SWAP1 PUSH2 0x3061 JUMP JUMPDEST POP PUSH1 0xC0 DUP3 ADD MLOAD DUP2 PUSH1 0x6 ADD PUSH1 0x0 PUSH2 0x100 EXP DUP2 SLOAD DUP2 PUSH1 0xFF MUL NOT AND SWAP1 DUP4 PUSH1 0x10 DUP2 GT ISZERO PUSH2 0x16F2 JUMPI PUSH2 0x16F1 PUSH2 0x2D5A JUMP JUMPDEST JUMPDEST MUL OR SWAP1 SSTORE POP PUSH1 0xE0 DUP3 ADD MLOAD DUP2 PUSH1 0x7 ADD SSTORE PUSH2 0x100 DUP3 ADD MLOAD DUP2 PUSH1 0x8 ADD SSTORE PUSH2 0x120 DUP3 ADD MLOAD DUP2 PUSH1 0x9 ADD PUSH1 0x0 PUSH2 0x100 EXP DUP2 SLOAD DUP2 PUSH20 0xFFFFFFFFFFFFFFFFFFFFFFFFFFFFFFFFFFFFFFFF MUL NOT AND SWAP1 DUP4 PUSH20 0xFFFFFFFFFFFFFFFFFFFFFFFFFFFFFFFFFFFFFFFF AND MUL OR SWAP1 SSTORE POP PUSH2 0x140 DUP3 ADD MLOAD DUP2 PUSH1 0xA ADD PUSH1 0x0 PUSH2 0x100 EXP DUP2 SLOAD DUP2 PUSH20 0xFFFFFFFFFFFFFFFFFFFFFFFFFFFFFFFFFFFFFFFF MUL NOT AND SWAP1 DUP4 PUSH20 0xFFFFFFFFFFFFFFFFFFFFFFFFFFFFFFFFFFFFFFFF AND MUL OR SWAP1 SSTORE POP PUSH2 0x160 DUP3 ADD MLOAD DUP2 PUSH1 0xB ADD PUSH1 0x0 PUSH2 0x100 EXP DUP2 SLOAD DUP2 PUSH20 0xFFFFFFFFFFFFFFFFFFFFFFFFFFFFFFFFFFFFFFFF MUL NOT AND SWAP1 DUP4 PUSH20 0xFFFFFFFFFFFFFFFFFFFFFFFFFFFFFFFFFFFFFFFF AND MUL OR SWAP1 SSTORE POP PUSH2 0x180 DUP3 ADD MLOAD DUP2 PUSH1 0xC ADD PUSH1 0x0 PUSH2 0x100 EXP DUP2 SLOAD DUP2 PUSH20 0xFFFFFFFFFFFFFFFFFFFFFFFFFFFFFFFFFFFFFFFF MUL NOT AND SWAP1 DUP4 PUSH20 0xFFFFFFFFFFFFFFFFFFFFFFFFFFFFFFFFFFFFFFFF AND MUL OR SWAP1 SSTORE POP PUSH2 0x1A0 DUP3 ADD MLOAD DUP2 PUSH1 0xD ADD SSTORE PUSH2 0x1C0 DUP3 ADD MLOAD DUP2 PUSH1 0xE ADD SSTORE SWAP1 POP POP PUSH1 0x0 PUSH2 0x184F PUSH2 0x2A05 JUMP JUMPDEST DUP2 DUP2 PUSH1 0x0 ADD DUP2 DUP2 MSTORE POP POP DUP2 DUP2 PUSH1 0x20 ADD DUP2 DUP2 MSTORE POP POP DUP2 DUP2 PUSH1 0x40 ADD DUP2 DUP2 MSTORE POP POP DUP2 DUP2 PUSH1 0x60 ADD DUP2 DUP2 MSTORE POP POP DUP1 PUSH1 0x9 PUSH1 0x0 PUSH1 0x6 SLOAD DUP2 MSTORE PUSH1 0x20 ADD SWAP1 DUP2 MSTORE PUSH1 0x20 ADD PUSH1 0x0 KECCAK256 PUSH1 0x0 DUP3 ADD MLOAD DUP2 PUSH1 0x0 ADD SSTORE PUSH1 0x20 DUP3 ADD MLOAD DUP2 PUSH1 0x1 ADD SSTORE PUSH1 0x40 DUP3 ADD MLOAD DUP2 PUSH1 0x2 ADD SSTORE PUSH1 0x60 DUP3 ADD MLOAD DUP2 PUSH1 0x3 ADD SSTORE SWAP1 POP POP PUSH1 0x7 PUSH1 0x0 DUP2 SLOAD DUP1 SWAP3 SWAP2 SWAP1 PUSH2 0x18CB SWAP1 PUSH2 0x3133 JUMP JUMPDEST SWAP2 SWAP1 POP SSTORE POP PUSH32 0xB7CACBE76FFD2319B73EE6A0F921B205BDB46926C6342D478B159EEDD699D4B6 PUSH1 0x6 SLOAD PUSH1 0x40 MLOAD PUSH2 0x1901 SWAP2 SWAP1 PUSH2 0x2DFB JUMP JUMPDEST PUSH1 0x40 MLOAD DUP1 SWAP2 SUB SWAP1 LOG1 POP POP POP POP POP POP POP POP POP POP JUMP JUMPDEST PUSH2 0x1925 PUSH2 0x1920 PUSH2 0x2428 JUMP JUMPDEST PUSH2 0x95A JUMP JUMPDEST PUSH2 0x192E JUMPI PUSH1 0x0 DUP1 REVERT JUMPDEST DUP1 PUSH1 0x2 PUSH1 0x10 DUP2 GT ISZERO PUSH2 0x1943 JUMPI PUSH2 0x1942 PUSH2 0x2D5A JUMP JUMPDEST JUMPDEST PUSH1 0x8 PUSH1 0x0 DUP4 DUP2 MSTORE PUSH1 0x20 ADD SWAP1 DUP2 MSTORE PUSH1 0x20 ADD PUSH1 0x0 KECCAK256 PUSH1 0x6 ADD PUSH1 0x0 SWAP1 SLOAD SWAP1 PUSH2 0x100 EXP SWAP1 DIV PUSH1 0xFF AND PUSH1 0x10 DUP2 GT ISZERO PUSH2 0x1979 JUMPI PUSH2 0x1978 PUSH2 0x2D5A JUMP JUMPDEST JUMPDEST EQ PUSH2 0x1983 JUMPI PUSH1 0x0 DUP1 REVERT JUMPDEST PUSH1 0x8 PUSH1 0x0 DUP4 DUP2 MSTORE PUSH1 0x20 ADD SWAP1 DUP2 MSTORE PUSH1 0x20 ADD PUSH1 0x0 KECCAK256 PUSH1 0x3 ADD PUSH1 0x0 SWAP1 SLOAD SWAP1 PUSH2 0x100 EXP SWAP1 DIV PUSH20 0xFFFFFFFFFFFFFFFFFFFFFFFFFFFFFFFFFFFFFFFF AND DUP1 PUSH20 0xFFFFFFFFFFFFFFFFFFFFFFFFFFFFFFFFFFFFFFFF AND PUSH2 0x19D9 PUSH2 0x2428 JUMP JUMPDEST PUSH20 0xFFFFFFFFFFFFFFFFFFFFFFFFFFFFFFFFFFFFFFFF AND EQ PUSH2 0x19F9 JUMPI PUSH1 0x0 DUP1 REVERT JUMPDEST PUSH1 0x3 PUSH1 0x8 PUSH1 0x0 DUP6 DUP2 MSTORE PUSH1 0x20 ADD SWAP1 DUP2 MSTORE PUSH1 0x20 ADD PUSH1 0x0 KECCAK256 PUSH1 0x6 ADD PUSH1 0x0 PUSH2 0x100 EXP DUP2 SLOAD DUP2 PUSH1 0xFF MUL NOT AND SWAP1 DUP4 PUSH1 0x10 DUP2 GT ISZERO PUSH2 0x1A33 JUMPI PUSH2 0x1A32 PUSH2 0x2D5A JUMP JUMPDEST JUMPDEST MUL OR SWAP1 SSTORE POP PUSH32 0x25727BEF8A186DD95A062151451F2D651551B53124C18208D7653B1217AE31BA PUSH1 0x6 SLOAD PUSH1 0x40 MLOAD PUSH2 0x1A69 SWAP2 SWAP1 PUSH2 0x2DFB JUMP JUMPDEST PUSH1 0x40 MLOAD DUP1 SWAP2 SUB SWAP1 LOG1 POP POP POP JUMP JUMPDEST PUSH2 0x1A86 PUSH2 0x1A81 PUSH2 0x2428 JUMP JUMPDEST PUSH2 0x105D JUMP JUMPDEST PUSH2 0x1A8F JUMPI PUSH1 0x0 DUP1 REVERT JUMPDEST DUP2 PUSH1 0xA PUSH1 0x10 DUP2 GT ISZERO PUSH2 0x1AA4 JUMPI PUSH2 0x1AA3 PUSH2 0x2D5A JUMP JUMPDEST JUMPDEST PUSH1 0x8 PUSH1 0x0 DUP4 DUP2 MSTORE PUSH1 0x20 ADD SWAP1 DUP2 MSTORE PUSH1 0x20 ADD PUSH1 0x0 KECCAK256 PUSH1 0x6 ADD PUSH1 0x0 SWAP1 SLOAD SWAP1 PUSH2 0x100 EXP SWAP1 DIV PUSH1 0xFF AND PUSH1 0x10 DUP2 GT ISZERO PUSH2 0x1ADA JUMPI PUSH2 0x1AD9 PUSH2 0x2D5A JUMP JUMPDEST JUMPDEST EQ PUSH2 0x1AE4 JUMPI PUSH1 0x0 DUP1 REVERT JUMPDEST PUSH1 0x8 PUSH1 0x0 DUP5 DUP2 MSTORE PUSH1 0x20 ADD SWAP1 DUP2 MSTORE PUSH1 0x20 ADD PUSH1 0x0 KECCAK256 PUSH1 0x2 ADD PUSH1 0x0 SWAP1 SLOAD SWAP1 PUSH2 0x100 EXP SWAP1 DIV PUSH20 0xFFFFFFFFFFFFFFFFFFFFFFFFFFFFFFFFFFFFFFFF AND DUP1 PUSH20 0xFFFFFFFFFFFFFFFFFFFFFFFFFFFFFFFFFFFFFFFF AND PUSH2 0x1B3A PUSH2 0x2428 JUMP JUMPDEST PUSH20 0xFFFFFFFFFFFFFFFFFFFFFFFFFFFFFFFFFFFFFFFF AND EQ PUSH2 0x1B5A JUMPI PUSH1 0x0 DUP1 REVERT JUMPDEST PUSH1 0xB PUSH1 0x8 PUSH1 0x0 DUP7 DUP2 MSTORE PUSH1 0x20 ADD SWAP1 DUP2 MSTORE PUSH1 0x20 ADD PUSH1 0x0 KECCAK256 PUSH1 0x6 ADD PUSH1 0x0 PUSH2 0x100 EXP DUP2 SLOAD DUP2 PUSH1 0xFF MUL NOT AND SWAP1 DUP4 PUSH1 0x10 DUP2 GT ISZERO PUSH2 0x1B94 JUMPI PUSH2 0x1B93 PUSH2 0x2D5A JUMP JUMPDEST JUMPDEST MUL OR SWAP1 SSTORE POP DUP3 PUSH1 0x8 PUSH1 0x0 DUP7 DUP2 MSTORE PUSH1 0x20 ADD SWAP1 DUP2 MSTORE PUSH1 0x20 ADD PUSH1 0x0 KECCAK256 PUSH1 0x7 ADD DUP2 SWAP1 SSTORE POP PUSH32 0x86C3594F216CED937EB7FDC5B2C3E64FB4AE2BADF95562D2DB7D99F58C6E56D6 DUP5 PUSH1 0x40 MLOAD PUSH2 0x1BE3 SWAP2 SWAP1 PUSH2 0x2DFB JUMP JUMPDEST PUSH1 0x40 MLOAD DUP1 SWAP2 SUB SWAP1 LOG1 POP POP POP POP JUMP JUMPDEST PUSH2 0x1C01 PUSH2 0x1BFC PUSH2 0x2428 JUMP JUMPDEST PUSH2 0x13CE JUMP JUMPDEST PUSH2 0x1C0A JUMPI PUSH1 0x0 DUP1 REVERT JUMPDEST DUP1 PUSH1 0x8 PUSH1 0x10 DUP2 GT ISZERO PUSH2 0x1C1F JUMPI PUSH2 0x1C1E PUSH2 0x2D5A JUMP JUMPDEST JUMPDEST PUSH1 0x8 PUSH1 0x0 DUP4 DUP2 MSTORE PUSH1 0x20 ADD SWAP1 DUP2 MSTORE PUSH1 0x20 ADD PUSH1 0x0 KECCAK256 PUSH1 0x6 ADD PUSH1 0x0 SWAP1 SLOAD SWAP1 PUSH2 0x100 EXP SWAP1 DIV PUSH1 0xFF AND PUSH1 0x10 DUP2 GT ISZERO PUSH2 0x1C55 JUMPI PUSH2 0x1C54 PUSH2 0x2D5A JUMP JUMPDEST JUMPDEST EQ PUSH2 0x1C5F JUMPI PUSH1 0x0 DUP1 REVERT JUMPDEST PUSH1 0x8 PUSH1 0x0 DUP4 DUP2 MSTORE PUSH1 0x20 ADD SWAP1 DUP2 MSTORE PUSH1 0x20 ADD PUSH1 0x0 KECCAK256 PUSH1 0x2 ADD PUSH1 0x0 SWAP1 SLOAD SWAP1 PUSH2 0x100 EXP SWAP1 DIV PUSH20 0xFFFFFFFFFFFFFFFFFFFFFFFFFFFFFFFFFFFFFFFF AND DUP1 PUSH20 0xFFFFFFFFFFFFFFFFFFFFFFFFFFFFFFFFFFFFFFFF AND PUSH2 0x1CB5 PUSH2 0x2428 JUMP JUMPDEST PUSH20 0xFFFFFFFFFFFFFFFFFFFFFFFFFFFFFFFFFFFFFFFF AND EQ PUSH2 0x1CD5 JUMPI PUSH1 0x0 DUP1 REVERT JUMPDEST PUSH1 0x9 PUSH1 0x8 PUSH1 0x0 DUP6 DUP2 MSTORE PUSH1 0x20 ADD SWAP1 DUP2 MSTORE PUSH1 0x20 ADD PUSH1 0x0 KECCAK256 PUSH1 0x6 ADD PUSH1 0x0 PUSH2 0x100 EXP DUP2 SLOAD DUP2 PUSH1 0xFF MUL NOT AND SWAP1 DUP4 PUSH1 0x10 DUP2 GT ISZERO PUSH2 0x1D0F JUMPI PUSH2 0x1D0E PUSH2 0x2D5A JUMP JUMPDEST JUMPDEST MUL OR SWAP1 SSTORE POP PUSH32 0xEE82BE1F7A6BFB16A15ACF8ECBB38327CF93EF35166206492B476FB143BE5A2D DUP4 PUSH1 0x40 MLOAD PUSH2 0x1D43 SWAP2 SWAP1 PUSH2 0x2DFB JUMP JUMPDEST PUSH1 0x40 MLOAD DUP1 SWAP2 SUB SWAP1 LOG1 POP POP POP JUMP JUMPDEST PUSH2 0x1D60 PUSH2 0x1D5B PUSH2 0x2428 JUMP JUMPDEST PUSH2 0x105D JUMP JUMPDEST PUSH2 0x1D69 JUMPI PUSH1 0x0 DUP1 REVERT JUMPDEST PUSH2 0x1D72 DUP2 PUSH2 0x279B JUMP JUMPDEST POP JUMP JUMPDEST PUSH2 0x1D85 PUSH2 0x1D80 PUSH2 0x2428 JUMP JUMPDEST PUSH2 0x27F5 JUMP JUMPDEST JUMP JUMPDEST PUSH2 0x1D97 PUSH2 0x1D92 PUSH2 0x2428 JUMP JUMPDEST PUSH2 0x95A JUMP JUMPDEST PUSH2 0x1DA0 JUMPI PUSH1 0x0 DUP1 REVERT JUMPDEST DUP2 PUSH1 0x0 PUSH1 0x10 DUP2 GT ISZERO PUSH2 0x1DB5 JUMPI PUSH2 0x1DB4 PUSH2 0x2D5A JUMP JUMPDEST JUMPDEST PUSH1 0x8 PUSH1 0x0 DUP4 DUP2 MSTORE PUSH1 0x20 ADD SWAP1 DUP2 MSTORE PUSH1 0x20 ADD PUSH1 0x0 KECCAK256 PUSH1 0x6 ADD PUSH1 0x0 SWAP1 SLOAD SWAP1 PUSH2 0x100 EXP SWAP1 DIV PUSH1 0xFF AND PUSH1 0x10 DUP2 GT ISZERO PUSH2 0x1DEB JUMPI PUSH2 0x1DEA PUSH2 0x2D5A JUMP JUMPDEST JUMPDEST EQ PUSH2 0x1DF5 JUMPI PUSH1 0x0 DUP1 REVERT JUMPDEST PUSH1 0x8 PUSH1 0x0 DUP5 DUP2 MSTORE PUSH1 0x20 ADD SWAP1 DUP2 MSTORE PUSH1 0x20 ADD PUSH1 0x0 KECCAK256 PUSH1 0x2 ADD PUSH1 0x0 SWAP1 SLOAD SWAP1 PUSH2 0x100 EXP SWAP1 DIV PUSH20 0xFFFFFFFFFFFFFFFFFFFFFFFFFFFFFFFFFFFFFFFF AND DUP1 PUSH20 0xFFFFFFFFFFFFFFFFFFFFFFFFFFFFFFFFFFFFFFFF AND PUSH2 0x1E4B PUSH2 0x2428 JUMP JUMPDEST PUSH20 0xFFFFFFFFFFFFFFFFFFFFFFFFFFFFFFFFFFFFFFFF AND EQ PUSH2 0x1E6B JUMPI PUSH1 0x0 DUP1 REVERT JUMPDEST PUSH1 0x1 PUSH1 0x8 PUSH1 0x0 DUP7 DUP2 MSTORE PUSH1 0x20 ADD SWAP1 DUP2 MSTORE PUSH1 0x20 ADD PUSH1 0x0 KECCAK256 PUSH1 0x6 ADD PUSH1 0x0 PUSH2 0x100 EXP DUP2 SLOAD DUP2 PUSH1 0xFF MUL NOT AND SWAP1 DUP4 PUSH1 0x10 DUP2 GT ISZERO PUSH2 0x1EA5 JUMPI PUSH2 0x1EA4 PUSH2 0x2D5A JUMP JUMPDEST JUMPDEST MUL OR SWAP1 SSTORE POP DUP3 PUSH1 0x8 PUSH1 0x0 DUP7 DUP2 MSTORE PUSH1 0x20 ADD SWAP1 DUP2 MSTORE PUSH1 0x20 ADD PUSH1 0x0 KECCAK256 PUSH1 0x7 ADD DUP2 SWAP1 SSTORE POP PUSH32 0xAEC623C8803EB3C795344CB3D2178DA45139E85D984A1DC348CF9DC8BD7FF160 DUP5 PUSH1 0x40 MLOAD PUSH2 0x1EF4 SWAP2 SWAP1 PUSH2 0x2DFB JUMP JUMPDEST PUSH1 0x40 MLOAD DUP1 SWAP2 SUB SWAP1 LOG1 POP POP POP POP JUMP JUMPDEST PUSH2 0x1F12 PUSH2 0x1F0D PUSH2 0x2428 JUMP JUMPDEST PUSH2 0x13CE JUMP JUMPDEST PUSH2 0x1F1B JUMPI PUSH1 0x0 DUP1 REVERT JUMPDEST DUP2 PUSH1 0x4 PUSH1 0x10 DUP2 GT ISZERO PUSH2 0x1F30 JUMPI PUSH2 0x1F2F PUSH2 0x2D5A JUMP JUMPDEST JUMPDEST PUSH1 0x8 PUSH1 0x0 DUP4 DUP2 MSTORE PUSH1 0x20 ADD SWAP1 DUP2 MSTORE PUSH1 0x20 ADD PUSH1 0x0 KECCAK256 PUSH1 0x6 ADD PUSH1 0x0 SWAP1 SLOAD SWAP1 PUSH2 0x100 EXP SWAP1 DIV PUSH1 0xFF AND PUSH1 0x10 DUP2 GT ISZERO PUSH2 0x1F66 JUMPI PUSH2 0x1F65 PUSH2 0x2D5A JUMP JUMPDEST JUMPDEST EQ PUSH2 0x1F70 JUMPI PUSH1 0x0 DUP1 REVERT JUMPDEST PUSH1 0x8 PUSH1 0x0 DUP5 DUP2 MSTORE PUSH1 0x20 ADD SWAP1 DUP2 MSTORE PUSH1 0x20 ADD PUSH1 0x0 KECCAK256 PUSH1 0x2 ADD PUSH1 0x0 SWAP1 SLOAD SWAP1 PUSH2 0x100 EXP SWAP1 DIV PUSH20 0xFFFFFFFFFFFFFFFFFFFFFFFFFFFFFFFFFFFFFFFF AND DUP1 PUSH20 0xFFFFFFFFFFFFFFFFFFFFFFFFFFFFFFFFFFFFFFFF AND PUSH2 0x1FC6 PUSH2 0x2428 JUMP JUMPDEST PUSH20 0xFFFFFFFFFFFFFFFFFFFFFFFFFFFFFFFFFFFFFFFF AND EQ PUSH2 0x1FE6 JUMPI PUSH1 0x0 DUP1 REVERT JUMPDEST PUSH1 0x5 PUSH1 0x8 PUSH1 0x0 DUP7 DUP2 MSTORE PUSH1 0x20 ADD SWAP1 DUP2 MSTORE PUSH1 0x20 ADD PUSH1 0x0 KECCAK256 PUSH1 0x6 ADD PUSH1 0x0 PUSH2 0x100 EXP DUP2 SLOAD DUP2 PUSH1 0xFF MUL NOT AND SWAP1 DUP4 PUSH1 0x10 DUP2 GT ISZERO PUSH2 0x2020 JUMPI PUSH2 0x201F PUSH2 0x2D5A JUMP JUMPDEST JUMPDEST MUL OR SWAP1 SSTORE POP DUP3 PUSH1 0x8 PUSH1 0x0 DUP7 DUP2 MSTORE PUSH1 0x20 ADD SWAP1 DUP2 MSTORE PUSH1 0x20 ADD PUSH1 0x0 KECCAK256 PUSH1 0x8 ADD DUP2 SWAP1 SSTORE POP PUSH32 0x5725E53FD0EFED5294B7DB2AF148F040264A63630B4DEB0AFBCCF6E60830988A DUP5 PUSH1 0x40 MLOAD PUSH2 0x206F SWAP2 SWAP1 PUSH2 0x2DFB JUMP JUMPDEST PUSH1 0x40 MLOAD DUP1 SWAP2 SUB SWAP1 LOG1 POP POP POP POP JUMP JUMPDEST PUSH2 0x208D PUSH2 0x2088 PUSH2 0x2428 JUMP JUMPDEST PUSH2 0x13CE JUMP JUMPDEST PUSH2 0x2096 JUMPI PUSH1 0x0 DUP1 REVERT JUMPDEST DUP1 PUSH1 0x1 PUSH1 0x10 DUP2 GT ISZERO PUSH2 0x20AB JUMPI PUSH2 0x20AA PUSH2 0x2D5A JUMP JUMPDEST JUMPDEST PUSH1 0x8 PUSH1 0x0 DUP4 DUP2 MSTORE PUSH1 0x20 ADD SWAP1 DUP2 MSTORE PUSH1 0x20 ADD PUSH1 0x0 KECCAK256 PUSH1 0x6 ADD PUSH1 0x0 SWAP1 SLOAD SWAP1 PUSH2 0x100 EXP SWAP1 DIV PUSH1 0xFF AND PUSH1 0x10 DUP2 GT ISZERO PUSH2 0x20E1 JUMPI PUSH2 0x20E0 PUSH2 0x2D5A JUMP JUMPDEST JUMPDEST EQ PUSH2 0x20EB JUMPI PUSH1 0x0 DUP1 REVERT JUMPDEST PUSH1 0x8 PUSH1 0x0 DUP4 DUP2 MSTORE PUSH1 0x20 ADD SWAP1 DUP2 MSTORE PUSH1 0x20 ADD PUSH1 0x0 KECCAK256 PUSH1 0x7 ADD SLOAD DUP1 CALLVALUE LT ISZERO PUSH2 0x210F JUMPI PUSH1 0x0 DUP1 REVERT JUMPDEST DUP3 PUSH2 0x2118 PUSH2 0x2428 JUMP JUMPDEST PUSH1 0x0 PUSH1 0x8 PUSH1 0x0 DUP5 DUP2 MSTORE PUSH1 0x20 ADD SWAP1 DUP2 MSTORE PUSH1 0x20 ADD PUSH1 0x0 KECCAK256 PUSH1 0xD ADD SLOAD SWAP1 POP PUSH1 0x0 DUP2 CALLVALUE PUSH2 0x2141 SWAP2 SWAP1 PUSH2 0x2DB8 JUMP JUMPDEST SWAP1 POP DUP3 PUSH20 0xFFFFFFFFFFFFFFFFFFFFFFFFFFFFFFFFFFFFFFFF AND PUSH2 0x8FC DUP3 SWAP1 DUP2 ISZERO MUL SWAP1 PUSH1 0x40 MLOAD PUSH1 0x0 PUSH1 0x40 MLOAD DUP1 DUP4 SUB DUP2 DUP6 DUP9 DUP9 CALL SWAP4 POP POP POP POP ISZERO DUP1 ISZERO PUSH2 0x2189 JUMPI RETURNDATASIZE PUSH1 0x0 DUP1 RETURNDATACOPY RETURNDATASIZE PUSH1 0x0 REVERT JUMPDEST POP PUSH1 0x0 PUSH2 0x21CB PUSH1 0x8 PUSH1 0x0 DUP11 DUP2 MSTORE PUSH1 0x20 ADD SWAP1 DUP2 MSTORE PUSH1 0x20 ADD PUSH1 0x0 KECCAK256 PUSH1 0x3 ADD PUSH1 0x0 SWAP1 SLOAD SWAP1 PUSH2 0x100 EXP SWAP1 DIV PUSH20 0xFFFFFFFFFFFFFFFFFFFFFFFFFFFFFFFFFFFFFFFF AND PUSH2 0x24E4 JUMP JUMPDEST SWAP1 POP DUP1 PUSH20 0xFFFFFFFFFFFFFFFFFFFFFFFFFFFFFFFFFFFFFFFF AND PUSH2 0x8FC PUSH1 0x8 PUSH1 0x0 DUP12 DUP2 MSTORE PUSH1 0x20 ADD SWAP1 DUP2 MSTORE PUSH1 0x20 ADD PUSH1 0x0 KECCAK256 PUSH1 0x7 ADD SLOAD SWAP1 DUP2 ISZERO MUL SWAP1 PUSH1 0x40 MLOAD PUSH1 0x0 PUSH1 0x40 MLOAD DUP1 DUP4 SUB DUP2 DUP6 DUP9 DUP9 CALL SWAP4 POP POP POP POP ISZERO DUP1 ISZERO PUSH2 0x2229 JUMPI RETURNDATASIZE PUSH1 0x0 DUP1 RETURNDATACOPY RETURNDATASIZE PUSH1 0x0 REVERT JUMPDEST POP PUSH2 0x2232 PUSH2 0x2428 JUMP JUMPDEST PUSH1 0x8 PUSH1 0x0 DUP11 DUP2 MSTORE PUSH1 0x20 ADD SWAP1 DUP2 MSTORE PUSH1 0x20 ADD PUSH1 0x0 KECCAK256 PUSH1 0x2 ADD PUSH1 0x0 PUSH2 0x100 EXP DUP2 SLOAD DUP2 PUSH20 0xFFFFFFFFFFFFFFFFFFFFFFFFFFFFFFFFFFFFFFFF MUL NOT AND SWAP1 DUP4 PUSH20 0xFFFFFFFFFFFFFFFFFFFFFFFFFFFFFFFFFFFFFFFF AND MUL OR SWAP1 SSTORE POP PUSH2 0x228E PUSH2 0x2428 JUMP JUMPDEST PUSH1 0x8 PUSH1 0x0 DUP11 DUP2 MSTORE PUSH1 0x20 ADD SWAP1 DUP2 MSTORE PUSH1 0x20 ADD PUSH1 0x0 KECCAK256 PUSH1 0xA ADD PUSH1 0x0 PUSH2 0x100 EXP DUP2 SLOAD DUP2 PUSH20 0xFFFFFFFFFFFFFFFFFFFFFFFFFFFFFFFFFFFFFFFF MUL NOT AND SWAP1 DUP4 PUSH20 0xFFFFFFFFFFFFFFFFFFFFFFFFFFFFFFFFFFFFFFFF AND MUL OR SWAP1 SSTORE POP PUSH1 0x2 PUSH1 0x8 PUSH1 0x0 DUP11 DUP2 MSTORE PUSH1 0x20 ADD SWAP1 DUP2 MSTORE PUSH1 0x20 ADD PUSH1 0x0 KECCAK256 PUSH1 0x6 ADD PUSH1 0x0 PUSH2 0x100 EXP DUP2 SLOAD DUP2 PUSH1 0xFF MUL NOT AND SWAP1 DUP4 PUSH1 0x10 DUP2 GT ISZERO PUSH2 0x231C JUMPI PUSH2 0x231B PUSH2 0x2D5A JUMP JUMPDEST JUMPDEST MUL OR SWAP1 SSTORE POP NUMBER PUSH1 0x9 PUSH1 0x0 DUP11 DUP2 MSTORE PUSH1 0x20 ADD SWAP1 DUP2 MSTORE PUSH1 0x20 ADD PUSH1 0x0 KECCAK256 PUSH1 0x0 ADD DUP2 SWAP1 SSTORE POP PUSH32 0xACD9402B9F9E8C15FA7C1819F8393CA56EB61316CC354FC6AC2150AED3CE7931 DUP9 PUSH1 0x40 MLOAD PUSH2 0x236B SWAP2 SWAP1 PUSH2 0x2DFB JUMP JUMPDEST PUSH1 0x40 MLOAD DUP1 SWAP2 SUB SWAP1 LOG1 POP POP POP POP POP POP POP POP JUMP JUMPDEST PUSH1 0x0 PUSH20 0xFFFFFFFFFFFFFFFFFFFFFFFFFFFFFFFFFFFFFFFF AND DUP2 PUSH20 0xFFFFFFFFFFFFFFFFFFFFFFFFFFFFFFFFFFFFFFFF AND SUB PUSH2 0x23B6 JUMPI PUSH1 0x0 DUP1 REVERT JUMPDEST PUSH2 0x23C0 DUP3 DUP3 PUSH2 0x24EE JUMP JUMPDEST ISZERO PUSH2 0x23CA JUMPI PUSH1 0x0 DUP1 REVERT JUMPDEST PUSH1 0x1 DUP3 PUSH1 0x0 ADD PUSH1 0x0 DUP4 PUSH20 0xFFFFFFFFFFFFFFFFFFFFFFFFFFFFFFFFFFFFFFFF AND PUSH20 0xFFFFFFFFFFFFFFFFFFFFFFFFFFFFFFFFFFFFFFFF AND DUP2 MSTORE PUSH1 0x20 ADD SWAP1 DUP2 MSTORE PUSH1 0x20 ADD PUSH1 0x0 KECCAK256 PUSH1 0x0 PUSH2 0x100 EXP DUP2 SLOAD DUP2 PUSH1 0xFF MUL NOT AND SWAP1 DUP4 ISZERO ISZERO MUL OR SWAP1 SSTORE POP POP POP JUMP JUMPDEST PUSH1 0x0 CALLER SWAP1 POP SWAP1 JUMP JUMPDEST PUSH2 0x2444 DUP2 PUSH1 0x2 PUSH2 0x284F SWAP1 SWAP2 SWAP1 PUSH4 0xFFFFFFFF AND JUMP JUMPDEST DUP1 PUSH20 0xFFFFFFFFFFFFFFFFFFFFFFFFFFFFFFFFFFFFFFFF AND PUSH32 0x7F865F710A7604537EB2BC0334F082FA642D210A705398937F53663384485B28 PUSH1 0x40 MLOAD PUSH1 0x40 MLOAD DUP1 SWAP2 SUB SWAP1 LOG2 POP JUMP JUMPDEST PUSH2 0x249E DUP2 PUSH1 0x4 PUSH2 0x237D SWAP1 SWAP2 SWAP1 PUSH4 0xFFFFFFFF AND JUMP JUMPDEST DUP1 PUSH20 0xFFFFFFFFFFFFFFFFFFFFFFFFFFFFFFFFFFFFFFFF AND PUSH32 0x28B26E7A3D20AEDBC5F8F2EBF7DA671C0491723A2B78F47A097B0E46DEE07142 PUSH1 0x40 MLOAD PUSH1 0x40 MLOAD DUP1 SWAP2 SUB SWAP1 LOG2 POP JUMP JUMPDEST PUSH1 0x0 DUP2 SWAP1 POP SWAP2 SWAP1 POP JUMP JUMPDEST PUSH1 0x0 DUP1 PUSH20 0xFFFFFFFFFFFFFFFFFFFFFFFFFFFFFFFFFFFFFFFF AND DUP3 PUSH20 0xFFFFFFFFFFFFFFFFFFFFFFFFFFFFFFFFFFFFFFFF AND SUB PUSH2 0x2528 JUMPI PUSH1 0x0 DUP1 REVERT JUMPDEST DUP3 PUSH1 0x0 ADD PUSH1 0x0 DUP4 PUSH20 0xFFFFFFFFFFFFFFFFFFFFFFFFFFFFFFFFFFFFFFFF AND PUSH20 0xFFFFFFFFFFFFFFFFFFFFFFFFFFFFFFFFFFFFFFFF AND DUP2 MSTORE PUSH1 0x20 ADD SWAP1 DUP2 MSTORE PUSH1 0x20 ADD PUSH1 0x0 KECCAK256 PUSH1 0x0 SWAP1 SLOAD SWAP1 PUSH2 0x100 EXP SWAP1 DIV PUSH1 0xFF AND SWAP1 POP SWAP3 SWAP2 POP POP JUMP JUMPDEST PUSH2 0x2593 DUP2 PUSH1 0x4 PUSH2 0x284F SWAP1 SWAP2 SWAP1 PUSH4 0xFFFFFFFF AND JUMP JUMPDEST DUP1 PUSH20 0xFFFFFFFFFFFFFFFFFFFFFFFFFFFFFFFFFFFFFFFF AND PUSH32 0xE3F5ED5F263F1F01764A96EDFC7D025F511EC5F7D180E8816908B78BCF74F098 PUSH1 0x40 MLOAD PUSH1 0x40 MLOAD DUP1 SWAP2 SUB SWAP1 LOG2 POP JUMP JUMPDEST PUSH2 0x25ED DUP2 PUSH1 0x1 PUSH2 0x284F SWAP1 SWAP2 SWAP1 PUSH4 0xFFFFFFFF AND JUMP JUMPDEST DUP1 PUSH20 0xFFFFFFFFFFFFFFFFFFFFFFFFFFFFFFFFFFFFFFFF AND PUSH32 0x126174F6CF49C81CDB4A9214C6B8F037BEF55B4EC31E4FC776CEA2A1C8A88D59 PUSH1 0x40 MLOAD PUSH1 0x40 MLOAD DUP1 SWAP2 SUB SWAP1 LOG2 POP JUMP JUMPDEST PUSH2 0x2647 DUP2 PUSH1 0x0 PUSH2 0x237D SWAP1 SWAP2 SWAP1 PUSH4 0xFFFFFFFF AND JUMP JUMPDEST DUP1 PUSH20 0xFFFFFFFFFFFFFFFFFFFFFFFFFFFFFFFFFFFFFFFF AND PUSH32 0x561138658CA49A8540DC70DCFE64C9026C1C5B9344642242DD6562970F9C1278 PUSH1 0x40 MLOAD PUSH1 0x40 MLOAD DUP1 SWAP2 SUB SWAP1 LOG2 POP JUMP JUMPDEST PUSH2 0x26A1 DUP2 PUSH1 0x1 PUSH2 0x237D SWAP1 SWAP2 SWAP1 PUSH4 0xFFFFFFFF AND JUMP JUMPDEST DUP1 PUSH20 0xFFFFFFFFFFFFFFFFFFFFFFFFFFFFFFFFFFFFFFFF AND PUSH32 0xDDBF200AA634DC3FB81CFD68583DD1040D1C751D335E1D86B631BDE3E977FEA8 PUSH1 0x40 MLOAD PUSH1 0x40 MLOAD DUP1 SWAP2 SUB SWAP1 LOG2 POP JUMP JUMPDEST PUSH2 0x26FB DUP2 PUSH1 0x0 PUSH2 0x284F SWAP1 SWAP2 SWAP1 PUSH4 0xFFFFFFFF AND JUMP JUMPDEST DUP1 PUSH20 0xFFFFFFFFFFFFFFFFFFFFFFFFFFFFFFFFFFFFFFFF AND PUSH32 0x2FED5ABF6A80D6DFE30B4895481B2FC5D7DCE5F8F7B931832F4A2947D5040C7F PUSH1 0x40 MLOAD PUSH1 0x40 MLOAD DUP1 SWAP2 SUB SWAP1 LOG2 POP JUMP JUMPDEST PUSH2 0x2755 DUP2 PUSH1 0x3 PUSH2 0x237D SWAP1 SWAP2 SWAP1 PUSH4 0xFFFFFFFF AND JUMP JUMPDEST DUP1 PUSH20 0xFFFFFFFFFFFFFFFFFFFFFFFFFFFFFFFFFFFFFFFF AND PUSH32 0x71AE26CAD02663E3D92EFD6EC56031A80D74A20C0AB4183FAA8BF262261C9BAA PUSH1 0x40 MLOAD PUSH1 0x40 MLOAD DUP1 SWAP2 SUB SWAP1 LOG2 POP JUMP JUMPDEST PUSH2 0x27AF DUP2 PUSH1 0x2 PUSH2 0x237D SWAP1 SWAP2 SWAP1 PUSH4 0xFFFFFFFF AND JUMP JUMPDEST DUP1 PUSH20 0xFFFFFFFFFFFFFFFFFFFFFFFFFFFFFFFFFFFFFFFF AND PUSH32 0xD8A7AD7929975A375D2B12BF49040286B5B105DF0FE351F10DF6D85E5B7142F7 PUSH1 0x40 MLOAD PUSH1 0x40 MLOAD DUP1 SWAP2 SUB SWAP1 LOG2 POP JUMP JUMPDEST PUSH2 0x2809 DUP2 PUSH1 0x3 PUSH2 0x284F SWAP1 SWAP2 SWAP1 PUSH4 0xFFFFFFFF AND JUMP JUMPDEST DUP1 PUSH20 0xFFFFFFFFFFFFFFFFFFFFFFFFFFFFFFFFFFFFFFFF AND PUSH32 0xDB7176E79CFFEF81CB01767DD0447A0B24BB72CA9778D4B245581086B2A7E6DB PUSH1 0x40 MLOAD PUSH1 0x40 MLOAD DUP1 SWAP2 SUB SWAP1 LOG2 POP JUMP JUMPDEST PUSH1 0x0 PUSH20 0xFFFFFFFFFFFFFFFFFFFFFFFFFFFFFFFFFFFFFFFF AND DUP2 PUSH20 0xFFFFFFFFFFFFFFFFFFFFFFFFFFFFFFFFFFFFFFFF AND SUB PUSH2 0x2888 JUMPI PUSH1 0x0 DUP1 REVERT JUMPDEST PUSH2 0x2892 DUP3 DUP3 PUSH2 0x24EE JUMP JUMPDEST PUSH2 0x289B JUMPI PUSH1 0x0 DUP1 REVERT JUMPDEST PUSH1 0x0 DUP3 PUSH1 0x0 ADD PUSH1 0x0 DUP4 PUSH20 0xFFFFFFFFFFFFFFFFFFFFFFFFFFFFFFFFFFFFFFFF AND PUSH20 0xFFFFFFFFFFFFFFFFFFFFFFFFFFFFFFFFFFFFFFFF AND DUP2 MSTORE PUSH1 0x20 ADD SWAP1 DUP2 MSTORE PUSH1 0x20 ADD PUSH1 0x0 KECCAK256 PUSH1 0x0 PUSH2 0x100 EXP DUP2 SLOAD DUP2 PUSH1 0xFF MUL NOT AND SWAP1 DUP4 ISZERO ISZERO MUL OR SWAP1 SSTORE POP POP POP JUMP JUMPDEST PUSH1 0x40 MLOAD DUP1 PUSH2 0x1E0 ADD PUSH1 0x40 MSTORE DUP1 PUSH1 0x0 DUP2 MSTORE PUSH1 0x20 ADD PUSH1 0x0 DUP2 MSTORE PUSH1 0x20 ADD PUSH1 0x0 PUSH20 0xFFFFFFFFFFFFFFFFFFFFFFFFFFFFFFFFFFFFFFFF AND DUP2 MSTORE PUSH1 0x20 ADD PUSH1 0x0 PUSH20 0xFFFFFFFFFFFFFFFFFFFFFFFFFFFFFFFFFFFFFFFF AND DUP2 MSTORE PUSH1 0x20 ADD PUSH1 0x0 DUP2 MSTORE PUSH1 0x20 ADD PUSH1 0x60 DUP2 MSTORE PUSH1 0x20 ADD PUSH1 0x0 PUSH1 0x10 DUP2 GT ISZERO PUSH2 0x296F JUMPI PUSH2 0x296E PUSH2 0x2D5A JUMP JUMPDEST JUMPDEST DUP2 MSTORE PUSH1 0x20 ADD PUSH1 0x0 DUP2 MSTORE PUSH1 0x20 ADD PUSH1 0x0 DUP2 MSTORE PUSH1 0x20 ADD PUSH1 0x0 PUSH20 0xFFFFFFFFFFFFFFFFFFFFFFFFFFFFFFFFFFFFFFFF AND DUP2 MSTORE PUSH1 0x20 ADD PUSH1 0x0 PUSH20 0xFFFFFFFFFFFFFFFFFFFFFFFFFFFFFFFFFFFFFFFF AND DUP2 MSTORE PUSH1 0x20 ADD PUSH1 0x0 PUSH20 0xFFFFFFFFFFFFFFFFFFFFFFFFFFFFFFFFFFFFFFFF AND DUP2 MSTORE PUSH1 0x20 ADD PUSH1 0x0 PUSH20 0xFFFFFFFFFFFFFFFFFFFFFFFFFFFFFFFFFFFFFFFF AND DUP2 MSTORE PUSH1 0x20 ADD PUSH1 0x0 DUP2 MSTORE PUSH1 0x20 ADD PUSH1 0x0 DUP2 MSTORE POP SWAP1 JUMP JUMPDEST PUSH1 0x40 MLOAD DUP1 PUSH1 0x80 ADD PUSH1 0x40 MSTORE DUP1 PUSH1 0x0 DUP2 MSTORE PUSH1 0x20 ADD PUSH1 0x0 DUP2 MSTORE PUSH1 0x20 ADD PUSH1 0x0 DUP2 MSTORE PUSH1 0x20 ADD PUSH1 0x0 DUP2 MSTORE POP SWAP1 JUMP JUMPDEST PUSH1 0x0 PUSH1 0x40 MLOAD SWAP1 POP SWAP1 JUMP JUMPDEST PUSH1 0x0 DUP1 REVERT JUMPDEST PUSH1 0x0 DUP1 REVERT JUMPDEST PUSH1 0x0 PUSH20 0xFFFFFFFFFFFFFFFFFFFFFFFFFFFFFFFFFFFFFFFF DUP3 AND SWAP1 POP SWAP2 SWAP1 POP JUMP JUMPDEST PUSH1 0x0 PUSH2 0x2A6C DUP3 PUSH2 0x2A41 JUMP JUMPDEST SWAP1 POP SWAP2 SWAP1 POP JUMP JUMPDEST PUSH2 0x2A7C DUP2 PUSH2 0x2A61 JUMP JUMPDEST DUP2 EQ PUSH2 0x2A87 JUMPI PUSH1 0x0 DUP1 REVERT JUMPDEST POP JUMP JUMPDEST PUSH1 0x0 DUP2 CALLDATALOAD SWAP1 POP PUSH2 0x2A99 DUP2 PUSH2 0x2A73 JUMP JUMPDEST SWAP3 SWAP2 POP POP JUMP JUMPDEST PUSH1 0x0 PUSH1 0x20 DUP3 DUP5 SUB SLT ISZERO PUSH2 0x2AB5 JUMPI PUSH2 0x2AB4 PUSH2 0x2A37 JUMP JUMPDEST JUMPDEST PUSH1 0x0 PUSH2 0x2AC3 DUP5 DUP3 DUP6 ADD PUSH2 0x2A8A JUMP JUMPDEST SWAP2 POP POP SWAP3 SWAP2 POP POP JUMP JUMPDEST PUSH1 0x0 DUP2 SWAP1 POP SWAP2 SWAP1 POP JUMP JUMPDEST PUSH2 0x2ADF DUP2 PUSH2 0x2ACC JUMP JUMPDEST DUP2 EQ PUSH2 0x2AEA JUMPI PUSH1 0x0 DUP1 REVERT JUMPDEST POP JUMP JUMPDEST PUSH1 0x0 DUP2 CALLDATALOAD SWAP1 POP PUSH2 0x2AFC DUP2 PUSH2 0x2AD6 JUMP JUMPDEST SWAP3 SWAP2 POP POP JUMP JUMPDEST PUSH1 0x0 PUSH1 0x20 DUP3 DUP5 SUB SLT ISZERO PUSH2 0x2B18 JUMPI PUSH2 0x2B17 PUSH2 0x2A37 JUMP JUMPDEST JUMPDEST PUSH1 0x0 PUSH2 0x2B26 DUP5 DUP3 DUP6 ADD PUSH2 0x2AED JUMP JUMPDEST SWAP2 POP POP SWAP3 SWAP2 POP POP JUMP JUMPDEST PUSH1 0x0 DUP2 ISZERO ISZERO SWAP1 POP SWAP2 SWAP1 POP JUMP JUMPDEST PUSH2 0x2B44 DUP2 PUSH2 0x2B2F JUMP JUMPDEST DUP3 MSTORE POP POP JUMP JUMPDEST PUSH1 0x0 PUSH1 0x20 DUP3 ADD SWAP1 POP PUSH2 0x2B5F PUSH1 0x0 DUP4 ADD DUP5 PUSH2 0x2B3B JUMP JUMPDEST SWAP3 SWAP2 POP POP JUMP JUMPDEST PUSH1 0x0 DUP1 PUSH1 0x40 DUP4 DUP6 SUB SLT ISZERO PUSH2 0x2B7C JUMPI PUSH2 0x2B7B PUSH2 0x2A37 JUMP JUMPDEST JUMPDEST PUSH1 0x0 PUSH2 0x2B8A DUP6 DUP3 DUP7 ADD PUSH2 0x2AED JUMP JUMPDEST SWAP3 POP POP PUSH1 0x20 PUSH2 0x2B9B DUP6 DUP3 DUP7 ADD PUSH2 0x2AED JUMP JUMPDEST SWAP2 POP POP SWAP3 POP SWAP3 SWAP1 POP JUMP JUMPDEST PUSH1 0x0 DUP1 REVERT JUMPDEST PUSH1 0x0 DUP1 REVERT JUMPDEST PUSH1 0x0 PUSH1 0x1F NOT PUSH1 0x1F DUP4 ADD AND SWAP1 POP SWAP2 SWAP1 POP JUMP JUMPDEST PUSH32 0x4E487B7100000000000000000000000000000000000000000000000000000000 PUSH1 0x0 MSTORE PUSH1 0x41 PUSH1 0x4 MSTORE PUSH1 0x24 PUSH1 0x0 REVERT JUMPDEST PUSH2 0x2BF8 DUP3 PUSH2 0x2BAF JUMP JUMPDEST DUP2 ADD DUP2 DUP2 LT PUSH8 0xFFFFFFFFFFFFFFFF DUP3 GT OR ISZERO PUSH2 0x2C17 JUMPI PUSH2 0x2C16 PUSH2 0x2BC0 JUMP JUMPDEST JUMPDEST DUP1 PUSH1 0x40 MSTORE POP POP POP JUMP JUMPDEST PUSH1 0x0 PUSH2 0x2C2A PUSH2 0x2A2D JUMP JUMPDEST SWAP1 POP PUSH2 0x2C36 DUP3 DUP3 PUSH2 0x2BEF JUMP JUMPDEST SWAP2 SWAP1 POP JUMP JUMPDEST PUSH1 0x0 PUSH8 0xFFFFFFFFFFFFFFFF DUP3 GT ISZERO PUSH2 0x2C56 JUMPI PUSH2 0x2C55 PUSH2 0x2BC0 JUMP JUMPDEST JUMPDEST PUSH2 0x2C5F DUP3 PUSH2 0x2BAF JUMP JUMPDEST SWAP1 POP PUSH1 0x20 DUP2 ADD SWAP1 POP SWAP2 SWAP1 POP JUMP JUMPDEST DUP3 DUP2 DUP4 CALLDATACOPY PUSH1 0x0 DUP4 DUP4 ADD MSTORE POP POP POP JUMP JUMPDEST PUSH1 0x0 PUSH2 0x2C8E PUSH2 0x2C89 DUP5 PUSH2 0x2C3B JUMP JUMPDEST PUSH2 0x2C20 JUMP JUMPDEST SWAP1 POP DUP3 DUP2 MSTORE PUSH1 0x20 DUP2 ADD DUP5 DUP5 DUP5 ADD GT ISZERO PUSH2 0x2CAA JUMPI PUSH2 0x2CA9 PUSH2 0x2BAA JUMP JUMPDEST JUMPDEST PUSH2 0x2CB5 DUP5 DUP3 DUP6 PUSH2 0x2C6C JUMP JUMPDEST POP SWAP4 SWAP3 POP POP POP JUMP JUMPDEST PUSH1 0x0 DUP3 PUSH1 0x1F DUP4 ADD SLT PUSH2 0x2CD2 JUMPI PUSH2 0x2CD1 PUSH2 0x2BA5 JUMP JUMPDEST JUMPDEST DUP2 CALLDATALOAD PUSH2 0x2CE2 DUP5 DUP3 PUSH1 0x20 DUP7 ADD PUSH2 0x2C7B JUMP JUMPDEST SWAP2 POP POP SWAP3 SWAP2 POP POP JUMP JUMPDEST PUSH1 0x0 DUP1 PUSH1 0x0 PUSH1 0x60 DUP5 DUP7 SUB SLT ISZERO PUSH2 0x2D04 JUMPI PUSH2 0x2D03 PUSH2 0x2A37 JUMP JUMPDEST JUMPDEST PUSH1 0x0 PUSH2 0x2D12 DUP7 DUP3 DUP8 ADD PUSH2 0x2AED JUMP JUMPDEST SWAP4 POP POP PUSH1 0x20 DUP5 ADD CALLDATALOAD PUSH8 0xFFFFFFFFFFFFFFFF DUP2 GT ISZERO PUSH2 0x2D33 JUMPI PUSH2 0x2D32 PUSH2 0x2A3C JUMP JUMPDEST JUMPDEST PUSH2 0x2D3F DUP7 DUP3 DUP8 ADD PUSH2 0x2CBD JUMP JUMPDEST SWAP3 POP POP PUSH1 0x40 PUSH2 0x2D50 DUP7 DUP3 DUP8 ADD PUSH2 0x2AED JUMP JUMPDEST SWAP2 POP POP SWAP3 POP SWAP3 POP SWAP3 JUMP JUMPDEST PUSH32 0x4E487B7100000000000000000000000000000000000000000000000000000000 PUSH1 0x0 MSTORE PUSH1 0x21 PUSH1 0x4 MSTORE PUSH1 0x24 PUSH1 0x0 REVERT JUMPDEST PUSH32 0x4E487B7100000000000000000000000000000000000000000000000000000000 PUSH1 0x0 MSTORE PUSH1 0x11 PUSH1 0x4 MSTORE PUSH1 0x24 PUSH1 0x0 REVERT JUMPDEST PUSH1 0x0 PUSH2 0x2DC3 DUP3 PUSH2 0x2ACC JUMP JUMPDEST SWAP2 POP PUSH2 0x2DCE DUP4 PUSH2 0x2ACC JUMP JUMPDEST SWAP3 POP DUP3 DUP3 SUB SWAP1 POP DUP2 DUP2 GT ISZERO PUSH2 0x2DE6 JUMPI PUSH2 0x2DE5 PUSH2 0x2D89 JUMP JUMPDEST JUMPDEST SWAP3 SWAP2 POP POP JUMP JUMPDEST PUSH2 0x2DF5 DUP2 PUSH2 0x2ACC JUMP JUMPDEST DUP3 MSTORE POP POP JUMP JUMPDEST PUSH1 0x0 PUSH1 0x20 DUP3 ADD SWAP1 POP PUSH2 0x2E10 PUSH1 0x0 DUP4 ADD DUP5 PUSH2 0x2DEC JUMP JUMPDEST SWAP3 SWAP2 POP POP JUMP JUMPDEST PUSH1 0x0 PUSH2 0x2E21 DUP3 PUSH2 0x2ACC JUMP JUMPDEST SWAP2 POP PUSH2 0x2E2C DUP4 PUSH2 0x2ACC JUMP JUMPDEST SWAP3 POP DUP3 DUP3 ADD SWAP1 POP DUP1 DUP3 GT ISZERO PUSH2 0x2E44 JUMPI PUSH2 0x2E43 PUSH2 0x2D89 JUMP JUMPDEST JUMPDEST SWAP3 SWAP2 POP POP JUMP JUMPDEST PUSH1 0x0 DUP2 MLOAD SWAP1 POP SWAP2 SWAP1 POP JUMP JUMPDEST PUSH32 0x4E487B7100000000000000000000000000000000000000000000000000000000 PUSH1 0x0 MSTORE PUSH1 0x22 PUSH1 0x4 MSTORE PUSH1 0x24 PUSH1 0x0 REVERT JUMPDEST PUSH1 0x0 PUSH1 0x2 DUP3 DIV SWAP1 POP PUSH1 0x1 DUP3 AND DUP1 PUSH2 0x2E9C JUMPI PUSH1 0x7F DUP3 AND SWAP2 POP JUMPDEST PUSH1 0x20 DUP3 LT DUP2 SUB PUSH2 0x2EAF JUMPI PUSH2 0x2EAE PUSH2 0x2E55 JUMP JUMPDEST JUMPDEST POP SWAP2 SWAP1 POP JUMP JUMPDEST PUSH1 0x0 DUP2 SWAP1 POP DUP2 PUSH1 0x0 MSTORE PUSH1 0x20 PUSH1 0x0 KECCAK256 SWAP1 POP SWAP2 SWAP1 POP JUMP JUMPDEST PUSH1 0x0 PUSH1 0x20 PUSH1 0x1F DUP4 ADD DIV SWAP1 POP SWAP2 SWAP1 POP JUMP JUMPDEST PUSH1 0x0 DUP3 DUP3 SHL SWAP1 POP SWAP3 SWAP2 POP POP JUMP JUMPDEST PUSH1 0x0 PUSH1 0x8 DUP4 MUL PUSH2 0x2F17 PUSH32 0xFFFFFFFFFFFFFFFFFFFFFFFFFFFFFFFFFFFFFFFFFFFFFFFFFFFFFFFFFFFFFFFF DUP3 PUSH2 0x2EDA JUMP JUMPDEST PUSH2 0x2F21 DUP7 DUP4 PUSH2 0x2EDA JUMP JUMPDEST SWAP6 POP DUP1 NOT DUP5 AND SWAP4 POP DUP1 DUP7 AND DUP5 OR SWAP3 POP POP POP SWAP4 SWAP3 POP POP POP JUMP JUMPDEST PUSH1 0x0 DUP2 SWAP1 POP SWAP2 SWAP1 POP JUMP JUMPDEST PUSH1 0x0 PUSH2 0x2F5E PUSH2 0x2F59 PUSH2 0x2F54 DUP5 PUSH2 0x2ACC JUMP JUMPDEST PUSH2 0x2F39 JUMP JUMPDEST PUSH2 0x2ACC JUMP JUMPDEST SWAP1 POP SWAP2 SWAP1 POP JUMP JUMPDEST PUSH1 0x0 DUP2 SWAP1 POP SWAP2 SWAP1 POP JUMP JUMPDEST PUSH2 0x2F78 DUP4 PUSH2 0x2F43 JUMP JUMPDEST PUSH2 0x2F8C PUSH2 0x2F84 DUP3 PUSH2 0x2F65 JUMP JUMPDEST DUP5 DUP5 SLOAD PUSH2 0x2EE7 JUMP JUMPDEST DUP3 SSTORE POP POP POP POP JUMP JUMPDEST PUSH1 0x0 SWAP1 JUMP JUMPDEST PUSH2 0x2FA1 PUSH2 0x2F94 JUMP JUMPDEST PUSH2 0x2FAC DUP2 DUP5 DUP5 PUSH2 0x2F6F JUMP JUMPDEST POP POP POP JUMP JUMPDEST JUMPDEST DUP2 DUP2 LT ISZERO PUSH2 0x2FD0 JUMPI PUSH2 0x2FC5 PUSH1 0x0 DUP3 PUSH2 0x2F99 JUMP JUMPDEST PUSH1 0x1 DUP2 ADD SWAP1 POP PUSH2 0x2FB2 JUMP JUMPDEST POP POP JUMP JUMPDEST PUSH1 0x1F DUP3 GT ISZERO PUSH2 0x3015 JUMPI PUSH2 0x2FE6 DUP2 PUSH2 0x2EB5 JUMP JUMPDEST PUSH2 0x2FEF DUP5 PUSH2 0x2ECA JUMP JUMPDEST DUP2 ADD PUSH1 0x20 DUP6 LT ISZERO PUSH2 0x2FFE JUMPI DUP2 SWAP1 POP JUMPDEST PUSH2 0x3012 PUSH2 0x300A DUP6 PUSH2 0x2ECA JUMP JUMPDEST DUP4 ADD DUP3 PUSH2 0x2FB1 JUMP JUMPDEST POP POP JUMPDEST POP POP POP JUMP JUMPDEST PUSH1 0x0 DUP3 DUP3 SHR SWAP1 POP SWAP3 SWAP2 POP POP JUMP JUMPDEST PUSH1 0x0 PUSH2 0x3038 PUSH1 0x0 NOT DUP5 PUSH1 0x8 MUL PUSH2 0x301A JUMP JUMPDEST NOT DUP1 DUP4 AND SWAP2 POP POP SWAP3 SWAP2 POP POP JUMP JUMPDEST PUSH1 0x0 PUSH2 0x3051 DUP4 DUP4 PUSH2 0x3027 JUMP JUMPDEST SWAP2 POP DUP3 PUSH1 0x2 MUL DUP3 OR SWAP1 POP SWAP3 SWAP2 POP POP JUMP JUMPDEST PUSH2 0x306A DUP3 PUSH2 0x2E4A JUMP JUMPDEST PUSH8 0xFFFFFFFFFFFFFFFF DUP2 GT ISZERO PUSH2 0x3083 JUMPI PUSH2 0x3082 PUSH2 0x2BC0 JUMP JUMPDEST JUMPDEST PUSH2 0x308D DUP3 SLOAD PUSH2 0x2E84 JUMP JUMPDEST PUSH2 0x3098 DUP3 DUP3 DUP6 PUSH2 0x2FD4 JUMP JUMPDEST PUSH1 0x0 PUSH1 0x20 SWAP1 POP PUSH1 0x1F DUP4 GT PUSH1 0x1 DUP2 EQ PUSH2 0x30CB JUMPI PUSH1 0x0 DUP5 ISZERO PUSH2 0x30B9 JUMPI DUP3 DUP8 ADD MLOAD SWAP1 POP JUMPDEST PUSH2 0x30C3 DUP6 DUP3 PUSH2 0x3045 JUMP JUMPDEST DUP7 SSTORE POP PUSH2 0x312B JUMP JUMPDEST PUSH1 0x1F NOT DUP5 AND PUSH2 0x30D9 DUP7 PUSH2 0x2EB5 JUMP JUMPDEST PUSH1 0x0 JUMPDEST DUP3 DUP2 LT ISZERO PUSH2 0x3101 JUMPI DUP5 DUP10 ADD MLOAD DUP3 SSTORE PUSH1 0x1 DUP3 ADD SWAP2 POP PUSH1 0x20 DUP6 ADD SWAP5 POP PUSH1 0x20 DUP2 ADD SWAP1 POP PUSH2 0x30DC JUMP JUMPDEST DUP7 DUP4 LT ISZERO PUSH2 0x311E JUMPI DUP5 DUP10 ADD MLOAD PUSH2 0x311A PUSH1 0x1F DUP10 AND DUP3 PUSH2 0x3027 JUMP JUMPDEST DUP4 SSTORE POP JUMPDEST PUSH1 0x1 PUSH1 0x2 DUP9 MUL ADD DUP9 SSTORE POP POP POP JUMPDEST POP POP POP POP POP POP JUMP JUMPDEST PUSH1 0x0 PUSH2 0x313E DUP3 PUSH2 0x2ACC JUMP JUMPDEST SWAP2 POP PUSH32 0xFFFFFFFFFFFFFFFFFFFFFFFFFFFFFFFFFFFFFFFFFFFFFFFFFFFFFFFFFFFFFFFF DUP3 SUB PUSH2 0x3170 JUMPI PUSH2 0x316F PUSH2 0x2D89 JUMP JUMPDEST JUMPDEST PUSH1 0x1 DUP3 ADD SWAP1 POP SWAP2 SWAP1 POP JUMP INVALID LOG2 PUSH5 0x6970667358 0x22 SLT KECCAK256 NOT 0xB0 PUSH11 0x712B0E7664A956D88A7A1D GT RETURN DUP11 PREVRANDAO 0xAA 0xB3 SHR 0x5C CODECOPY DUP15 MSIZE 0x5E 0xC1 PUSH17 0x18DCE83664736F6C634300081200330000 "
				},
				"gasEstimates": {
					"creation": {
						"codeDepositCost": "2544200",
						"executionCost": "infinite",
						"totalCost": "infinite"
					},
					"external": {
						"ProduceItemByManufacturer(uint256,string,uint256)": "infinite",
						"addConsumer(address)": "infinite",
						"addDistributor(address)": "infinite",
						"addManufacturer(address)": "infinite",
						"addRetailer(address)": "infinite",
						"addWholesaler(address)": "infinite",
						"isConsumer(address)": "infinite",
						"isDistributor(address)": "infinite",
						"isManufacturer(address)": "infinite",
						"isRetailer(address)": "infinite",
						"isWholesaler(address)": "infinite",
						"kill()": "32206",
						"processedItemByDistributor(uint256,uint256)": "infinite",
						"processedItemByWholesaler(uint256,uint256)": "infinite",
						"purchaseItemByDistributor(uint256)": "infinite",
						"purchaseItemByRetailer(uint256)": "infinite",
						"purchaseItemByWholesaler(uint256)": "infinite",
						"receivedItemByDistributor(uint256)": "infinite",
						"receivedItemByWholesalerr(uint256)": "infinite",
						"renouceConsumer()": "infinite",
						"renouceDistributor()": "infinite",
						"renouceManufaturer()": "infinite",
						"renouceRetailer()": "infinite",
						"renouceWholesaler()": "infinite",
						"sellItemByDistributor(uint256,uint256)": "infinite",
						"sellItemByFarmer(uint256,uint256)": "infinite",
						"sellItemByWholesaler(uint256,uint256)": "infinite",
						"shippedItemByDistributor(uint256)": "infinite",
						"shippedItemByManufacturer(uint256)": "infinite"
					},
					"internal": {
						"_make_payable(address)": "28"
					}
				},
				"methodIdentifiers": {
					"ProduceItemByManufacturer(uint256,string,uint256)": "ad88bac8",
					"addConsumer(address)": "112940f9",
					"addDistributor(address)": "7250e224",
					"addManufacturer(address)": "5f8a5afa",
					"addRetailer(address)": "8ec4f505",
					"addWholesaler(address)": "de63bdb9",
					"isConsumer(address)": "834ff739",
					"isDistributor(address)": "8f0c86fa",
					"isManufacturer(address)": "17d4a491",
					"isRetailer(address)": "5da09b88",
					"isWholesaler(address)": "64d1ba1f",
					"kill()": "41c0e1b5",
					"processedItemByDistributor(uint256,uint256)": "eab7d6e8",
					"processedItemByWholesaler(uint256,uint256)": "297b47e7",
					"purchaseItemByDistributor(uint256)": "fdcdc06f",
					"purchaseItemByRetailer(uint256)": "26d529b4",
					"purchaseItemByWholesaler(uint256)": "152d0b32",
					"receivedItemByDistributor(uint256)": "24cb1669",
					"receivedItemByWholesalerr(uint256)": "de568ab9",
					"renouceConsumer()": "3496c175",
					"renouceDistributor()": "4ea90d2d",
					"renouceManufaturer()": "8b828a08",
					"renouceRetailer()": "e34d7a07",
					"renouceWholesaler()": "070ef987",
					"sellItemByDistributor(uint256,uint256)": "8adff8ba",
					"sellItemByFarmer(uint256,uint256)": "e618f000",
					"sellItemByWholesaler(uint256,uint256)": "dd589030",
					"shippedItemByDistributor(uint256)": "82e831ec",
					"shippedItemByManufacturer(uint256)": "b9a40d04"
				}
			},
			"storageLayout": {
				"storage": [
					{
						"astId": 236,
						"contract": "Contracts/Supplychain/Supplychain1.sol:Supplychain1",
						"label": "manufacturers",
						"offset": 0,
						"slot": "0",
						"type": "t_struct(Role)438_storage"
					},
					{
						"astId": 128,
						"contract": "Contracts/Supplychain/Supplychain1.sol:Supplychain1",
						"label": "distributors",
						"offset": 0,
						"slot": "1",
						"type": "t_struct(Role)438_storage"
					},
					{
						"astId": 554,
						"contract": "Contracts/Supplychain/Supplychain1.sol:Supplychain1",
						"label": "wholesalers",
						"offset": 0,
						"slot": "2",
						"type": "t_struct(Role)438_storage"
					},
					{
						"astId": 344,
						"contract": "Contracts/Supplychain/Supplychain1.sol:Supplychain1",
						"label": "retailers",
						"offset": 0,
						"slot": "3",
						"type": "t_struct(Role)438_storage"
					},
					{
						"astId": 20,
						"contract": "Contracts/Supplychain/Supplychain1.sol:Supplychain1",
						"label": "consumers",
						"offset": 0,
						"slot": "4",
						"type": "t_struct(Role)438_storage"
					},
					{
						"astId": 781,
						"contract": "Contracts/Supplychain/Supplychain1.sol:Supplychain1",
						"label": "owner",
						"offset": 0,
						"slot": "5",
						"type": "t_address"
					},
					{
						"astId": 783,
						"contract": "Contracts/Supplychain/Supplychain1.sol:Supplychain1",
						"label": "productCode",
						"offset": 0,
						"slot": "6",
						"type": "t_uint256"
					},
					{
						"astId": 785,
						"contract": "Contracts/Supplychain/Supplychain1.sol:Supplychain1",
						"label": "stockUnit",
						"offset": 0,
						"slot": "7",
						"type": "t_uint256"
					},
					{
						"astId": 790,
						"contract": "Contracts/Supplychain/Supplychain1.sol:Supplychain1",
						"label": "items",
						"offset": 0,
						"slot": "8",
						"type": "t_mapping(t_uint256,t_struct(Item)867_storage)"
					},
					{
						"astId": 795,
						"contract": "Contracts/Supplychain/Supplychain1.sol:Supplychain1",
						"label": "itemsHistory",
						"offset": 0,
						"slot": "9",
						"type": "t_mapping(t_uint256,t_struct(txBlocks)876_storage)"
					}
				],
				"types": {
					"t_address": {
						"encoding": "inplace",
						"label": "address",
						"numberOfBytes": "20"
					},
					"t_bool": {
						"encoding": "inplace",
						"label": "bool",
						"numberOfBytes": "1"
					},
					"t_enum(state)813": {
						"encoding": "inplace",
						"label": "enum Supplychain1.state",
						"numberOfBytes": "1"
					},
					"t_mapping(t_address,t_bool)": {
						"encoding": "mapping",
						"key": "t_address",
						"label": "mapping(address => bool)",
						"numberOfBytes": "32",
						"value": "t_bool"
					},
					"t_mapping(t_uint256,t_struct(Item)867_storage)": {
						"encoding": "mapping",
						"key": "t_uint256",
						"label": "mapping(uint256 => struct Supplychain1.Item)",
						"numberOfBytes": "32",
						"value": "t_struct(Item)867_storage"
					},
					"t_mapping(t_uint256,t_struct(txBlocks)876_storage)": {
						"encoding": "mapping",
						"key": "t_uint256",
						"label": "mapping(uint256 => struct Supplychain1.txBlocks)",
						"numberOfBytes": "32",
						"value": "t_struct(txBlocks)876_storage"
					},
					"t_string_storage": {
						"encoding": "bytes",
						"label": "string",
						"numberOfBytes": "32"
					},
					"t_struct(Item)867_storage": {
						"encoding": "inplace",
						"label": "struct Supplychain1.Item",
						"members": [
							{
								"astId": 837,
								"contract": "Contracts/Supplychain/Supplychain1.sol:Supplychain1",
								"label": "stockUnit",
								"offset": 0,
								"slot": "0",
								"type": "t_uint256"
							},
							{
								"astId": 839,
								"contract": "Contracts/Supplychain/Supplychain1.sol:Supplychain1",
								"label": "productCode",
								"offset": 0,
								"slot": "1",
								"type": "t_uint256"
							},
							{
								"astId": 841,
								"contract": "Contracts/Supplychain/Supplychain1.sol:Supplychain1",
								"label": "ownerID",
								"offset": 0,
								"slot": "2",
								"type": "t_address"
							},
							{
								"astId": 843,
								"contract": "Contracts/Supplychain/Supplychain1.sol:Supplychain1",
								"label": "manufacturerID",
								"offset": 0,
								"slot": "3",
								"type": "t_address"
							},
							{
								"astId": 845,
								"contract": "Contracts/Supplychain/Supplychain1.sol:Supplychain1",
								"label": "productID",
								"offset": 0,
								"slot": "4",
								"type": "t_uint256"
							},
							{
								"astId": 847,
								"contract": "Contracts/Supplychain/Supplychain1.sol:Supplychain1",
								"label": "productInfo",
								"offset": 0,
								"slot": "5",
								"type": "t_string_storage"
							},
							{
								"astId": 850,
								"contract": "Contracts/Supplychain/Supplychain1.sol:Supplychain1",
								"label": "itemState",
								"offset": 0,
								"slot": "6",
								"type": "t_enum(state)813"
							},
							{
								"astId": 852,
								"contract": "Contracts/Supplychain/Supplychain1.sol:Supplychain1",
								"label": "productPrice",
								"offset": 0,
								"slot": "7",
								"type": "t_uint256"
							},
							{
								"astId": 854,
								"contract": "Contracts/Supplychain/Supplychain1.sol:Supplychain1",
								"label": "productSliced",
								"offset": 0,
								"slot": "8",
								"type": "t_uint256"
							},
							{
								"astId": 856,
								"contract": "Contracts/Supplychain/Supplychain1.sol:Supplychain1",
								"label": "wholesalerID",
								"offset": 0,
								"slot": "9",
								"type": "t_address"
							},
							{
								"astId": 858,
								"contract": "Contracts/Supplychain/Supplychain1.sol:Supplychain1",
								"label": "distributorID",
								"offset": 0,
								"slot": "10",
								"type": "t_address"
							},
							{
								"astId": 860,
								"contract": "Contracts/Supplychain/Supplychain1.sol:Supplychain1",
								"label": "retailerID",
								"offset": 0,
								"slot": "11",
								"type": "t_address"
							},
							{
								"astId": 862,
								"contract": "Contracts/Supplychain/Supplychain1.sol:Supplychain1",
								"label": "consumerID",
								"offset": 0,
								"slot": "12",
								"type": "t_address"
							},
							{
								"astId": 864,
								"contract": "Contracts/Supplychain/Supplychain1.sol:Supplychain1",
								"label": "itemPrice",
								"offset": 0,
								"slot": "13",
								"type": "t_uint256"
							},
							{
								"astId": 866,
								"contract": "Contracts/Supplychain/Supplychain1.sol:Supplychain1",
								"label": "ProductQuantity",
								"offset": 0,
								"slot": "14",
								"type": "t_uint256"
							}
						],
						"numberOfBytes": "480"
					},
					"t_struct(Role)438_storage": {
						"encoding": "inplace",
						"label": "struct Roles.Role",
						"members": [
							{
								"astId": 437,
								"contract": "Contracts/Supplychain/Supplychain1.sol:Supplychain1",
								"label": "bearer",
								"offset": 0,
								"slot": "0",
								"type": "t_mapping(t_address,t_bool)"
							}
						],
						"numberOfBytes": "32"
					},
					"t_struct(txBlocks)876_storage": {
						"encoding": "inplace",
						"label": "struct Supplychain1.txBlocks",
						"members": [
							{
								"astId": 869,
								"contract": "Contracts/Supplychain/Supplychain1.sol:Supplychain1",
								"label": "MTD",
								"offset": 0,
								"slot": "0",
								"type": "t_uint256"
							},
							{
								"astId": 871,
								"contract": "Contracts/Supplychain/Supplychain1.sol:Supplychain1",
								"label": "DTW",
								"offset": 0,
								"slot": "1",
								"type": "t_uint256"
							},
							{
								"astId": 873,
								"contract": "Contracts/Supplychain/Supplychain1.sol:Supplychain1",
								"label": "WTR",
								"offset": 0,
								"slot": "2",
								"type": "t_uint256"
							},
							{
								"astId": 875,
								"contract": "Contracts/Supplychain/Supplychain1.sol:Supplychain1",
								"label": "RTC",
								"offset": 0,
								"slot": "3",
								"type": "t_uint256"
							}
						],
						"numberOfBytes": "128"
					},
					"t_uint256": {
						"encoding": "inplace",
						"label": "uint256",
						"numberOfBytes": "32"
					}
				}
			},
			"userdoc": {
				"kind": "user",
				"methods": {},
				"version": 1
			}
		}
	}
}