{
	"Supplychain/Supplychain.sol": {
		"Supplychain": {
			"abi": [
				{
					"inputs": [],
					"stateMutability": "payable",
					"type": "constructor"
				},
				{
					"anonymous": false,
					"inputs": [
						{
							"indexed": true,
							"internalType": "address",
							"name": "account",
							"type": "address"
						}
					],
					"name": "ConsumerAdded",
					"type": "event"
				},
				{
					"anonymous": false,
					"inputs": [
						{
							"indexed": true,
							"internalType": "address",
							"name": "account",
							"type": "address"
						}
					],
					"name": "ConsumerRemoved",
					"type": "event"
				},
				{
					"anonymous": false,
					"inputs": [
						{
							"indexed": true,
							"internalType": "address",
							"name": "account",
							"type": "address"
						}
					],
					"name": "DistributorAdded",
					"type": "event"
				},
				{
					"anonymous": false,
					"inputs": [
						{
							"indexed": true,
							"internalType": "address",
							"name": "account",
							"type": "address"
						}
					],
					"name": "DistributorRemoved",
					"type": "event"
				},
				{
					"anonymous": false,
					"inputs": [
						{
							"indexed": false,
							"internalType": "uint256",
							"name": "MedicineCode",
							"type": "uint256"
						}
					],
					"name": "ForSaleByDistributor",
					"type": "event"
				},
				{
					"anonymous": false,
					"inputs": [
						{
							"indexed": false,
							"internalType": "uint256",
							"name": "MedicineCode",
							"type": "uint256"
						}
					],
					"name": "ForSaleByManufacturer",
					"type": "event"
				},
				{
					"anonymous": false,
					"inputs": [
						{
							"indexed": false,
							"internalType": "uint256",
							"name": "MedicineCode",
							"type": "uint256"
						}
					],
					"name": "ForSaleByRetailer",
					"type": "event"
				},
				{
					"anonymous": false,
					"inputs": [
						{
							"indexed": false,
							"internalType": "uint256",
							"name": "MedicineCode",
							"type": "uint256"
						}
					],
					"name": "ForSaleByWholesaler",
					"type": "event"
				},
				{
					"anonymous": false,
					"inputs": [
						{
							"indexed": true,
							"internalType": "address",
							"name": "account",
							"type": "address"
						}
					],
					"name": "ManufacturerAdded",
					"type": "event"
				},
				{
					"anonymous": false,
					"inputs": [
						{
							"indexed": true,
							"internalType": "address",
							"name": "account",
							"type": "address"
						}
					],
					"name": "ManufacturerRemoved",
					"type": "event"
				},
				{
					"anonymous": false,
					"inputs": [
						{
							"indexed": false,
							"internalType": "uint256",
							"name": "MedicineCode",
							"type": "uint256"
						}
					],
					"name": "ProducedByManufacturer",
					"type": "event"
				},
				{
					"anonymous": false,
					"inputs": [
						{
							"indexed": false,
							"internalType": "uint256",
							"name": "MedicineCode",
							"type": "uint256"
						}
					],
					"name": "PurchasedByConsumer",
					"type": "event"
				},
				{
					"anonymous": false,
					"inputs": [
						{
							"indexed": false,
							"internalType": "uint256",
							"name": "MedicineCode",
							"type": "uint256"
						}
					],
					"name": "PurchasedByDistributor",
					"type": "event"
				},
				{
					"anonymous": false,
					"inputs": [
						{
							"indexed": false,
							"internalType": "uint256",
							"name": "MedicineCode",
							"type": "uint256"
						}
					],
					"name": "PurchasedByRetailer",
					"type": "event"
				},
				{
					"anonymous": false,
					"inputs": [
						{
							"indexed": false,
							"internalType": "uint256",
							"name": "MedicineCode",
							"type": "uint256"
						}
					],
					"name": "PurchasedByWholesaler",
					"type": "event"
				},
				{
					"anonymous": false,
					"inputs": [
						{
							"indexed": false,
							"internalType": "uint256",
							"name": "MedicineCode",
							"type": "uint256"
						}
					],
					"name": "ReceivedByDistributor",
					"type": "event"
				},
				{
					"anonymous": false,
					"inputs": [
						{
							"indexed": false,
							"internalType": "uint256",
							"name": "MedicineCode",
							"type": "uint256"
						}
					],
					"name": "ReceivedByRetailer",
					"type": "event"
				},
				{
					"anonymous": false,
					"inputs": [
						{
							"indexed": false,
							"internalType": "uint256",
							"name": "MedicineCode",
							"type": "uint256"
						}
					],
					"name": "ReceivedByWholesaler",
					"type": "event"
				},
				{
					"anonymous": false,
					"inputs": [
						{
							"indexed": true,
							"internalType": "address",
							"name": "account",
							"type": "address"
						}
					],
					"name": "RetailerAdded",
					"type": "event"
				},
				{
					"anonymous": false,
					"inputs": [
						{
							"indexed": true,
							"internalType": "address",
							"name": "account",
							"type": "address"
						}
					],
					"name": "RetailerRemoved",
					"type": "event"
				},
				{
					"anonymous": false,
					"inputs": [
						{
							"indexed": false,
							"internalType": "uint256",
							"name": "MedicineCode",
							"type": "uint256"
						}
					],
					"name": "ShippedByDistributor",
					"type": "event"
				},
				{
					"anonymous": false,
					"inputs": [
						{
							"indexed": false,
							"internalType": "uint256",
							"name": "MedicineCode",
							"type": "uint256"
						}
					],
					"name": "ShippedByManufacturer",
					"type": "event"
				},
				{
					"anonymous": false,
					"inputs": [
						{
							"indexed": true,
							"internalType": "address",
							"name": "account",
							"type": "address"
						}
					],
					"name": "WholesalerAdded",
					"type": "event"
				},
				{
					"anonymous": false,
					"inputs": [
						{
							"indexed": true,
							"internalType": "address",
							"name": "account",
							"type": "address"
						}
					],
					"name": "WholesalerRemoved",
					"type": "event"
				},
				{
					"inputs": [
						{
							"internalType": "uint256",
							"name": "_MedicineCode",
							"type": "uint256"
						},
						{
							"internalType": "string",
							"name": "_ManufacturerName",
							"type": "string"
						},
						{
							"internalType": "string",
							"name": "_ManufacturerInfo",
							"type": "string"
						},
						{
							"internalType": "uint256",
							"name": "_MedicinePrice",
							"type": "uint256"
						}
					],
					"name": "MedicineProducedByManufacturer",
					"outputs": [],
					"stateMutability": "nonpayable",
					"type": "function"
				},
				{
					"inputs": [
						{
							"internalType": "address",
							"name": "account",
							"type": "address"
						}
					],
					"name": "addConsumer",
					"outputs": [],
					"stateMutability": "nonpayable",
					"type": "function"
				},
				{
					"inputs": [
						{
							"internalType": "address",
							"name": "account",
							"type": "address"
						}
					],
					"name": "addDistributor",
					"outputs": [],
					"stateMutability": "nonpayable",
					"type": "function"
				},
				{
					"inputs": [
						{
							"internalType": "address",
							"name": "account",
							"type": "address"
						}
					],
					"name": "addManufacturer",
					"outputs": [],
					"stateMutability": "nonpayable",
					"type": "function"
				},
				{
					"inputs": [
						{
							"internalType": "address",
							"name": "account",
							"type": "address"
						}
					],
					"name": "addRetailer",
					"outputs": [],
					"stateMutability": "nonpayable",
					"type": "function"
				},
				{
					"inputs": [
						{
							"internalType": "address",
							"name": "account",
							"type": "address"
						}
					],
					"name": "addWholesaler",
					"outputs": [],
					"stateMutability": "nonpayable",
					"type": "function"
				},
				{
					"inputs": [
						{
							"internalType": "address",
							"name": "account",
							"type": "address"
						}
					],
					"name": "isConsumer",
					"outputs": [
						{
							"internalType": "bool",
							"name": "",
							"type": "bool"
						}
					],
					"stateMutability": "view",
					"type": "function"
				},
				{
					"inputs": [
						{
							"internalType": "address",
							"name": "account",
							"type": "address"
						}
					],
					"name": "isDistributor",
					"outputs": [
						{
							"internalType": "bool",
							"name": "",
							"type": "bool"
						}
					],
					"stateMutability": "view",
					"type": "function"
				},
				{
					"inputs": [
						{
							"internalType": "address",
							"name": "account",
							"type": "address"
						}
					],
					"name": "isManufacturer",
					"outputs": [
						{
							"internalType": "bool",
							"name": "",
							"type": "bool"
						}
					],
					"stateMutability": "view",
					"type": "function"
				},
				{
					"inputs": [
						{
							"internalType": "address",
							"name": "account",
							"type": "address"
						}
					],
					"name": "isRetailer",
					"outputs": [
						{
							"internalType": "bool",
							"name": "",
							"type": "bool"
						}
					],
					"stateMutability": "view",
					"type": "function"
				},
				{
					"inputs": [
						{
							"internalType": "address",
							"name": "account",
							"type": "address"
						}
					],
					"name": "isWholesaler",
					"outputs": [
						{
							"internalType": "bool",
							"name": "",
							"type": "bool"
						}
					],
					"stateMutability": "view",
					"type": "function"
				},
				{
					"inputs": [],
					"name": "renouceConsumer",
					"outputs": [],
					"stateMutability": "nonpayable",
					"type": "function"
				},
				{
					"inputs": [],
					"name": "renouceDistributor",
					"outputs": [],
					"stateMutability": "nonpayable",
					"type": "function"
				},
				{
					"inputs": [],
					"name": "renouceManufaturer",
					"outputs": [],
					"stateMutability": "nonpayable",
					"type": "function"
				},
				{
					"inputs": [],
					"name": "renouceRetailer",
					"outputs": [],
					"stateMutability": "nonpayable",
					"type": "function"
				},
				{
					"inputs": [],
					"name": "renouceWholesaler",
					"outputs": [],
					"stateMutability": "nonpayable",
					"type": "function"
				}
			],
			"devdoc": {
				"kind": "dev",
				"methods": {},
				"version": 1
			},
			"evm": {
				"assembly": "    /* \"Supplychain/Supplychain.sol\":286:10729  contract Supplychain is ... */\n  mstore(0x40, 0x80)\n    /* \"Access/Manufacturer.sol\":389:419  _addManufacturer(_msgSender()) */\n  tag_8\n    /* \"Access/Manufacturer.sol\":406:418  _msgSender() */\n  tag_9\n    /* \"Access/Manufacturer.sol\":406:416  _msgSender */\n  shl(0x20, tag_10)\n    /* \"Access/Manufacturer.sol\":406:418  _msgSender() */\n  0x20\n  shr\n  jump\t// in\ntag_9:\n    /* \"Access/Manufacturer.sol\":389:405  _addManufacturer */\n  shl(0x20, tag_11)\n    /* \"Access/Manufacturer.sol\":389:419  _addManufacturer(_msgSender()) */\n  0x20\n  shr\n  jump\t// in\ntag_8:\n    /* \"Access/Distributor.sol\":385:414  _addDistributor(_msgSender()) */\n  tag_13\n    /* \"Access/Distributor.sol\":401:413  _msgSender() */\n  tag_14\n    /* \"Access/Distributor.sol\":401:411  _msgSender */\n  shl(0x20, tag_10)\n    /* \"Access/Distributor.sol\":401:413  _msgSender() */\n  0x20\n  shr\n  jump\t// in\ntag_14:\n    /* \"Access/Distributor.sol\":385:400  _addDistributor */\n  shl(0x20, tag_15)\n    /* \"Access/Distributor.sol\":385:414  _addDistributor(_msgSender()) */\n  0x20\n  shr\n  jump\t// in\ntag_13:\n    /* \"Access/Wholesaler.sol\":381:409  _addWholesaler(_msgSender()) */\n  tag_17\n    /* \"Access/Wholesaler.sol\":396:408  _msgSender() */\n  tag_18\n    /* \"Access/Wholesaler.sol\":396:406  _msgSender */\n  shl(0x20, tag_10)\n    /* \"Access/Wholesaler.sol\":396:408  _msgSender() */\n  0x20\n  shr\n  jump\t// in\ntag_18:\n    /* \"Access/Wholesaler.sol\":381:395  _addWholesaler */\n  shl(0x20, tag_19)\n    /* \"Access/Wholesaler.sol\":381:409  _addWholesaler(_msgSender()) */\n  0x20\n  shr\n  jump\t// in\ntag_17:\n    /* \"Access/Retailer.sol\":373:399  _addRetailer(_msgSender()) */\n  tag_21\n    /* \"Access/Retailer.sol\":386:398  _msgSender() */\n  tag_22\n    /* \"Access/Retailer.sol\":386:396  _msgSender */\n  shl(0x20, tag_10)\n    /* \"Access/Retailer.sol\":386:398  _msgSender() */\n  0x20\n  shr\n  jump\t// in\ntag_22:\n    /* \"Access/Retailer.sol\":373:385  _addRetailer */\n  shl(0x20, tag_23)\n    /* \"Access/Retailer.sol\":373:399  _addRetailer(_msgSender()) */\n  0x20\n  shr\n  jump\t// in\ntag_21:\n    /* \"Access/Consumer.sol\":373:399  _addConsumer(_msgSender()) */\n  tag_25\n    /* \"Access/Consumer.sol\":386:398  _msgSender() */\n  tag_26\n    /* \"Access/Consumer.sol\":386:396  _msgSender */\n  shl(0x20, tag_10)\n    /* \"Access/Consumer.sol\":386:398  _msgSender() */\n  0x20\n  shr\n  jump\t// in\ntag_26:\n    /* \"Access/Consumer.sol\":373:385  _addConsumer */\n  shl(0x20, tag_27)\n    /* \"Access/Consumer.sol\":373:399  _addConsumer(_msgSender()) */\n  0x20\n  shr\n  jump\t// in\ntag_25:\n    /* \"Supplychain/Supplychain.sol\":7773:7785  _msgSender() */\n  tag_29\n    /* \"Supplychain/Supplychain.sol\":7773:7783  _msgSender */\n  shl(0x20, tag_10)\n    /* \"Supplychain/Supplychain.sol\":7773:7785  _msgSender() */\n  0x20\n  shr\n  jump\t// in\ntag_29:\n    /* \"Supplychain/Supplychain.sol\":7765:7770  owner */\n  0x05\n  0x00\n    /* \"Supplychain/Supplychain.sol\":7765:7785  owner = _msgSender() */\n  0x0100\n  exp\n  dup2\n  sload\n  dup2\n  0xffffffffffffffffffffffffffffffffffffffff\n  mul\n  not\n  and\n  swap1\n  dup4\n  0xffffffffffffffffffffffffffffffffffffffff\n  and\n  mul\n  or\n  swap1\n  sstore\n  pop\n    /* \"Supplychain/Supplychain.sol\":7816:7817  1 */\n  0x01\n    /* \"Supplychain/Supplychain.sol\":7804:7813  StockUnit */\n  0x07\n    /* \"Supplychain/Supplychain.sol\":7804:7817  StockUnit = 1 */\n  dup2\n  swap1\n  sstore\n  pop\n    /* \"Supplychain/Supplychain.sol\":7851:7852  1 */\n  0x01\n    /* \"Supplychain/Supplychain.sol\":7836:7848  MedicineCode */\n  0x06\n    /* \"Supplychain/Supplychain.sol\":7836:7852  MedicineCode = 1 */\n  dup2\n  swap1\n  sstore\n  pop\n    /* \"Supplychain/Supplychain.sol\":286:10729  contract Supplychain is ... */\n  jump(tag_30)\n    /* \"Utils/Context.sol\":97:195  function _msgSender() internal view virtual returns (address) {... */\ntag_10:\n    /* \"Utils/Context.sol\":150:157  address */\n  0x00\n    /* \"Utils/Context.sol\":177:187  msg.sender */\n  caller\n    /* \"Utils/Context.sol\":170:187  return msg.sender */\n  swap1\n  pop\n    /* \"Utils/Context.sol\":97:195  function _msgSender() internal view virtual returns (address) {... */\n  swap1\n  jump\t// out\n    /* \"Access/Manufacturer.sol\":1048:1189  function _addManufacturer  (address account ) internal{... */\ntag_11:\n    /* \"Access/Manufacturer.sol\":1113:1139  manufacturers.add(account) */\n  tag_33\n    /* \"Access/Manufacturer.sol\":1131:1138  account */\n  dup2\n    /* \"Access/Manufacturer.sol\":1113:1126  manufacturers */\n  0x00\n    /* \"Access/Manufacturer.sol\":1113:1130  manufacturers.add */\n  or(tag_0_73, shl(0x20, tag_34))\n  swap1\n    /* \"Access/Manufacturer.sol\":1113:1139  manufacturers.add(account) */\n  swap2\n  swap1\n  0x20\n  shr\n  jump\t// in\ntag_33:\n    /* \"Access/Manufacturer.sol\":1173:1180  account */\n  dup1\n    /* \"Access/Manufacturer.sol\":1155:1181  ManufacturerAdded(account) */\n  0xffffffffffffffffffffffffffffffffffffffff\n  and\n  0x561138658ca49a8540dc70dcfe64c9026c1c5b9344642242dd6562970f9c1278\n  mload(0x40)\n  mload(0x40)\n  dup1\n  swap2\n  sub\n  swap1\n  log2\n    /* \"Access/Manufacturer.sol\":1048:1189  function _addManufacturer  (address account ) internal{... */\n  pop\n  jump\t// out\n    /* \"Access/Distributor.sol\":1035:1173  function _addDistributor  (address account ) internal{... */\ntag_15:\n    /* \"Access/Distributor.sol\":1099:1124  distributors.add(account) */\n  tag_36\n    /* \"Access/Distributor.sol\":1116:1123  account */\n  dup2\n    /* \"Access/Distributor.sol\":1099:1111  distributors */\n  0x01\n    /* \"Access/Distributor.sol\":1099:1115  distributors.add */\n  or(tag_0_73, shl(0x20, tag_34))\n  swap1\n    /* \"Access/Distributor.sol\":1099:1124  distributors.add(account) */\n  swap2\n  swap1\n  0x20\n  shr\n  jump\t// in\ntag_36:\n    /* \"Access/Distributor.sol\":1157:1164  account */\n  dup1\n    /* \"Access/Distributor.sol\":1140:1165  DistributorAdded(account) */\n  0xffffffffffffffffffffffffffffffffffffffff\n  and\n  0xddbf200aa634dc3fb81cfd68583dd1040d1c751d335e1d86b631bde3e977fea8\n  mload(0x40)\n  mload(0x40)\n  dup1\n  swap2\n  sub\n  swap1\n  log2\n    /* \"Access/Distributor.sol\":1035:1173  function _addDistributor  (address account ) internal{... */\n  pop\n  jump\t// out\n    /* \"Access/Wholesaler.sol\":1021:1156  function _addWholesaler  (address account ) internal{... */\ntag_19:\n    /* \"Access/Wholesaler.sol\":1084:1108  wholesalers.add(account) */\n  tag_38\n    /* \"Access/Wholesaler.sol\":1100:1107  account */\n  dup2\n    /* \"Access/Wholesaler.sol\":1084:1095  wholesalers */\n  0x02\n    /* \"Access/Wholesaler.sol\":1084:1099  wholesalers.add */\n  or(tag_0_73, shl(0x20, tag_34))\n  swap1\n    /* \"Access/Wholesaler.sol\":1084:1108  wholesalers.add(account) */\n  swap2\n  swap1\n  0x20\n  shr\n  jump\t// in\ntag_38:\n    /* \"Access/Wholesaler.sol\":1140:1147  account */\n  dup1\n    /* \"Access/Wholesaler.sol\":1124:1148  WholesalerAdded(account) */\n  0xffffffffffffffffffffffffffffffffffffffff\n  and\n  0xd8a7ad7929975a375d2b12bf49040286b5b105df0fe351f10df6d85e5b7142f7\n  mload(0x40)\n  mload(0x40)\n  dup1\n  swap2\n  sub\n  swap1\n  log2\n    /* \"Access/Wholesaler.sol\":1021:1156  function _addWholesaler  (address account ) internal{... */\n  pop\n  jump\t// out\n    /* \"Access/Retailer.sol\":993:1122  function _addRetailer  (address account ) internal{... */\ntag_23:\n    /* \"Access/Retailer.sol\":1054:1076  retailers.add(account) */\n  tag_40\n    /* \"Access/Retailer.sol\":1068:1075  account */\n  dup2\n    /* \"Access/Retailer.sol\":1054:1063  retailers */\n  0x03\n    /* \"Access/Retailer.sol\":1054:1067  retailers.add */\n  or(tag_0_73, shl(0x20, tag_34))\n  swap1\n    /* \"Access/Retailer.sol\":1054:1076  retailers.add(account) */\n  swap2\n  swap1\n  0x20\n  shr\n  jump\t// in\ntag_40:\n    /* \"Access/Retailer.sol\":1106:1113  account */\n  dup1\n    /* \"Access/Retailer.sol\":1092:1114  RetailerAdded(account) */\n  0xffffffffffffffffffffffffffffffffffffffff\n  and\n  0x71ae26cad02663e3d92efd6ec56031a80d74a20c0ab4183faa8bf262261c9baa\n  mload(0x40)\n  mload(0x40)\n  dup1\n  swap2\n  sub\n  swap1\n  log2\n    /* \"Access/Retailer.sol\":993:1122  function _addRetailer  (address account ) internal{... */\n  pop\n  jump\t// out\n    /* \"Access/Consumer.sol\":993:1122  function _addConsumer  (address account ) internal{... */\ntag_27:\n    /* \"Access/Consumer.sol\":1054:1076  consumers.add(account) */\n  tag_42\n    /* \"Access/Consumer.sol\":1068:1075  account */\n  dup2\n    /* \"Access/Consumer.sol\":1054:1063  consumers */\n  0x04\n    /* \"Access/Consumer.sol\":1054:1067  consumers.add */\n  or(tag_0_73, shl(0x20, tag_34))\n  swap1\n    /* \"Access/Consumer.sol\":1054:1076  consumers.add(account) */\n  swap2\n  swap1\n  0x20\n  shr\n  jump\t// in\ntag_42:\n    /* \"Access/Consumer.sol\":1106:1113  account */\n  dup1\n    /* \"Access/Consumer.sol\":1092:1114  ConsumerAdded(account) */\n  0xffffffffffffffffffffffffffffffffffffffff\n  and\n  0x28b26e7a3d20aedbc5f8f2ebf7da671c0491723a2b78f47a097b0e46dee07142\n  mload(0x40)\n  mload(0x40)\n  dup1\n  swap2\n  sub\n  swap1\n  log2\n    /* \"Access/Consumer.sol\":993:1122  function _addConsumer  (address account ) internal{... */\n  pop\n  jump\t// out\n    /* \"Access/Roles.sol\":153:344  function add(Role storage role , address account) internal {... */\ntag_34:\n    /* \"Access/Roles.sol\":252:253  0 */\n  0x00\n    /* \"Access/Roles.sol\":233:254  account != address(0) */\n  0xffffffffffffffffffffffffffffffffffffffff\n  and\n    /* \"Access/Roles.sol\":233:240  account */\n  dup2\n    /* \"Access/Roles.sol\":233:254  account != address(0) */\n  0xffffffffffffffffffffffffffffffffffffffff\n  and\n  sub\n    /* \"Access/Roles.sol\":223:256  require( (account != address(0))) */\n  tag_44\n  jumpi\n  0x00\n  dup1\n  revert\ntag_44:\n    /* \"Access/Roles.sol\":276:296  has(role , account ) */\n  tag_45\n    /* \"Access/Roles.sol\":280:284  role */\n  dup3\n    /* \"Access/Roles.sol\":287:294  account */\n  dup3\n    /* \"Access/Roles.sol\":276:279  has */\n  shl(0x20, tag_46)\n    /* \"Access/Roles.sol\":276:296  has(role , account ) */\n  0x20\n  shr\n  jump\t// in\ntag_45:\n    /* \"Access/Roles.sol\":275:296  !has(role , account ) */\n  iszero\n    /* \"Access/Roles.sol\":267:297  require(!has(role , account )) */\n  tag_47\n  jumpi\n  0x00\n  dup1\n  revert\ntag_47:\n    /* \"Access/Roles.sol\":330:334  true */\n  0x01\n    /* \"Access/Roles.sol\":308:312  role */\n  dup3\n    /* \"Access/Roles.sol\":308:319  role.bearer */\n  0x00\n  add\n    /* \"Access/Roles.sol\":308:328  role.bearer[account] */\n  0x00\n    /* \"Access/Roles.sol\":320:327  account */\n  dup4\n    /* \"Access/Roles.sol\":308:328  role.bearer[account] */\n  0xffffffffffffffffffffffffffffffffffffffff\n  and\n  0xffffffffffffffffffffffffffffffffffffffff\n  and\n  dup2\n  mstore\n  0x20\n  add\n  swap1\n  dup2\n  mstore\n  0x20\n  add\n  0x00\n  keccak256\n  0x00\n    /* \"Access/Roles.sol\":308:334  role.bearer[account]= true */\n  0x0100\n  exp\n  dup2\n  sload\n  dup2\n  0xff\n  mul\n  not\n  and\n  swap1\n  dup4\n  iszero\n  iszero\n  mul\n  or\n  swap1\n  sstore\n  pop\n    /* \"Access/Roles.sol\":153:344  function add(Role storage role , address account) internal {... */\n  pop\n  pop\n  jump\t// out\n    /* \"Access/Roles.sol\":552:724  function has(Role storage role , address account ) internal view returns (bool) {... */\ntag_46:\n    /* \"Access/Roles.sol\":626:630  bool */\n  0x00\n    /* \"Access/Roles.sol\":671:672  0 */\n  dup1\n    /* \"Access/Roles.sol\":652:673  account != address(0) */\n  0xffffffffffffffffffffffffffffffffffffffff\n  and\n    /* \"Access/Roles.sol\":652:659  account */\n  dup3\n    /* \"Access/Roles.sol\":652:673  account != address(0) */\n  0xffffffffffffffffffffffffffffffffffffffff\n  and\n  sub\n    /* \"Access/Roles.sol\":644:674  require(account != address(0)) */\n  tag_49\n  jumpi\n  0x00\n  dup1\n  revert\ntag_49:\n    /* \"Access/Roles.sol\":693:697  role */\n  dup3\n    /* \"Access/Roles.sol\":693:704  role.bearer */\n  0x00\n  add\n    /* \"Access/Roles.sol\":693:713  role.bearer[account] */\n  0x00\n    /* \"Access/Roles.sol\":705:712  account */\n  dup4\n    /* \"Access/Roles.sol\":693:713  role.bearer[account] */\n  0xffffffffffffffffffffffffffffffffffffffff\n  and\n  0xffffffffffffffffffffffffffffffffffffffff\n  and\n  dup2\n  mstore\n  0x20\n  add\n  swap1\n  dup2\n  mstore\n  0x20\n  add\n  0x00\n  keccak256\n  0x00\n  swap1\n  sload\n  swap1\n  0x0100\n  exp\n  swap1\n  div\n  0xff\n  and\n    /* \"Access/Roles.sol\":686:713  return role.bearer[account] */\n  swap1\n  pop\n    /* \"Access/Roles.sol\":552:724  function has(Role storage role , address account ) internal view returns (bool) {... */\n  swap3\n  swap2\n  pop\n  pop\n  jump\t// out\n    /* \"Supplychain/Supplychain.sol\":286:10729  contract Supplychain is ... */\ntag_30:\n  dataSize(sub_0)\n  dup1\n  dataOffset(sub_0)\n  0x00\n  codecopy\n  0x00\n  return\nstop\n\nsub_0: assembly {\n        /* \"Supplychain/Supplychain.sol\":286:10729  contract Supplychain is ... */\n      mstore(0x40, 0x80)\n      callvalue\n      dup1\n      iszero\n      tag_1\n      jumpi\n      0x00\n      dup1\n      revert\n    tag_1:\n      pop\n      jumpi(tag_2, lt(calldatasize, 0x04))\n      shr(0xe0, calldataload(0x00))\n      dup1\n      0x64d1ba1f\n      gt\n      tag_19\n      jumpi\n      dup1\n      0x8ec4f505\n      gt\n      tag_20\n      jumpi\n      dup1\n      0x8ec4f505\n      eq\n      tag_15\n      jumpi\n      dup1\n      0x8f0c86fa\n      eq\n      tag_16\n      jumpi\n      dup1\n      0xde63bdb9\n      eq\n      tag_17\n      jumpi\n      dup1\n      0xe34d7a07\n      eq\n      tag_18\n      jumpi\n      jump(tag_2)\n    tag_20:\n      dup1\n      0x64d1ba1f\n      eq\n      tag_11\n      jumpi\n      dup1\n      0x7250e224\n      eq\n      tag_12\n      jumpi\n      dup1\n      0x834ff739\n      eq\n      tag_13\n      jumpi\n      dup1\n      0x8b828a08\n      eq\n      tag_14\n      jumpi\n      jump(tag_2)\n    tag_19:\n      dup1\n      0x4ea90d2d\n      gt\n      tag_21\n      jumpi\n      dup1\n      0x4ea90d2d\n      eq\n      tag_7\n      jumpi\n      dup1\n      0x53fb741e\n      eq\n      tag_8\n      jumpi\n      dup1\n      0x5da09b88\n      eq\n      tag_9\n      jumpi\n      dup1\n      0x5f8a5afa\n      eq\n      tag_10\n      jumpi\n      jump(tag_2)\n    tag_21:\n      dup1\n      0x070ef987\n      eq\n      tag_3\n      jumpi\n      dup1\n      0x112940f9\n      eq\n      tag_4\n      jumpi\n      dup1\n      0x17d4a491\n      eq\n      tag_5\n      jumpi\n      dup1\n      0x3496c175\n      eq\n      tag_6\n      jumpi\n    tag_2:\n      0x00\n      dup1\n      revert\n        /* \"Access/Wholesaler.sol\":917:1013  function  renouceWholesaler() public{... */\n    tag_3:\n      tag_22\n      tag_23\n      jump\t// in\n    tag_22:\n      stop\n        /* \"Access/Consumer.sol\":787:885  function addConsumer (address account) public onlyConsumer{... */\n    tag_4:\n      tag_24\n      0x04\n      dup1\n      calldatasize\n      sub\n      dup2\n      add\n      swap1\n      tag_25\n      swap2\n      swap1\n      tag_26\n      jump\t// in\n    tag_25:\n      tag_27\n      jump\t// in\n    tag_24:\n      stop\n        /* \"Access/Manufacturer.sol\":674:811  function isManufacturer(address account )... */\n    tag_5:\n      tag_28\n      0x04\n      dup1\n      calldatasize\n      sub\n      dup2\n      add\n      swap1\n      tag_29\n      swap2\n      swap1\n      tag_26\n      jump\t// in\n    tag_29:\n      tag_30\n      jump\t// in\n    tag_28:\n      mload(0x40)\n      tag_31\n      swap2\n      swap1\n      tag_32\n      jump\t// in\n    tag_31:\n      mload(0x40)\n      dup1\n      swap2\n      sub\n      swap1\n      return\n        /* \"Access/Consumer.sol\":893:985  function  renouceConsumer() public{... */\n    tag_6:\n      tag_33\n      tag_34\n      jump\t// in\n    tag_33:\n      stop\n        /* \"Access/Distributor.sol\":929:1027  function  renouceDistributor() public{... */\n    tag_7:\n      tag_35\n      tag_36\n      jump\t// in\n    tag_35:\n      stop\n        /* \"Supplychain/Supplychain.sol\":7876:10714  function MedicineProducedByManufacturer (... */\n    tag_8:\n      tag_37\n      0x04\n      dup1\n      calldatasize\n      sub\n      dup2\n      add\n      swap1\n      tag_38\n      swap2\n      swap1\n      tag_39\n      jump\t// in\n    tag_38:\n      tag_40\n      jump\t// in\n    tag_37:\n      stop\n        /* \"Access/Retailer.sol\":646:775  function isRetailer(address account )... */\n    tag_9:\n      tag_41\n      0x04\n      dup1\n      calldatasize\n      sub\n      dup2\n      add\n      swap1\n      tag_42\n      swap2\n      swap1\n      tag_26\n      jump\t// in\n    tag_42:\n      tag_43\n      jump\t// in\n    tag_41:\n      mload(0x40)\n      tag_44\n      swap2\n      swap1\n      tag_32\n      jump\t// in\n    tag_44:\n      mload(0x40)\n      dup1\n      swap2\n      sub\n      swap1\n      return\n        /* \"Access/Manufacturer.sol\":823:933  function addManufacturer (address account) public onlyManufacturer{... */\n    tag_10:\n      tag_45\n      0x04\n      dup1\n      calldatasize\n      sub\n      dup2\n      add\n      swap1\n      tag_46\n      swap2\n      swap1\n      tag_26\n      jump\t// in\n    tag_46:\n      tag_47\n      jump\t// in\n    tag_45:\n      stop\n        /* \"Access/Wholesaler.sol\":660:793  function isWholesaler(address account )... */\n    tag_11:\n      tag_48\n      0x04\n      dup1\n      calldatasize\n      sub\n      dup2\n      add\n      swap1\n      tag_49\n      swap2\n      swap1\n      tag_26\n      jump\t// in\n    tag_49:\n      tag_50\n      jump\t// in\n    tag_48:\n      mload(0x40)\n      tag_51\n      swap2\n      swap1\n      tag_32\n      jump\t// in\n    tag_51:\n      mload(0x40)\n      dup1\n      swap2\n      sub\n      swap1\n      return\n        /* \"Access/Distributor.sol\":814:921  function addDistributor (address account) public onlyDistributor{... */\n    tag_12:\n      tag_52\n      0x04\n      dup1\n      calldatasize\n      sub\n      dup2\n      add\n      swap1\n      tag_53\n      swap2\n      swap1\n      tag_26\n      jump\t// in\n    tag_53:\n      tag_54\n      jump\t// in\n    tag_52:\n      stop\n        /* \"Access/Consumer.sol\":646:775  function isConsumer(address account )... */\n    tag_13:\n      tag_55\n      0x04\n      dup1\n      calldatasize\n      sub\n      dup2\n      add\n      swap1\n      tag_56\n      swap2\n      swap1\n      tag_26\n      jump\t// in\n    tag_56:\n      tag_57\n      jump\t// in\n    tag_55:\n      mload(0x40)\n      tag_58\n      swap2\n      swap1\n      tag_32\n      jump\t// in\n    tag_58:\n      mload(0x40)\n      dup1\n      swap2\n      sub\n      swap1\n      return\n        /* \"Access/Manufacturer.sol\":941:1040  function  renouceManufaturer() public{... */\n    tag_14:\n      tag_59\n      tag_60\n      jump\t// in\n    tag_59:\n      stop\n        /* \"Access/Retailer.sol\":787:885  function addRetailer (address account) public onlyRetailer{... */\n    tag_15:\n      tag_61\n      0x04\n      dup1\n      calldatasize\n      sub\n      dup2\n      add\n      swap1\n      tag_62\n      swap2\n      swap1\n      tag_26\n      jump\t// in\n    tag_62:\n      tag_63\n      jump\t// in\n    tag_61:\n      stop\n        /* \"Access/Distributor.sol\":667:802  function isDistributor(address account )... */\n    tag_16:\n      tag_64\n      0x04\n      dup1\n      calldatasize\n      sub\n      dup2\n      add\n      swap1\n      tag_65\n      swap2\n      swap1\n      tag_26\n      jump\t// in\n    tag_65:\n      tag_66\n      jump\t// in\n    tag_64:\n      mload(0x40)\n      tag_67\n      swap2\n      swap1\n      tag_32\n      jump\t// in\n    tag_67:\n      mload(0x40)\n      dup1\n      swap2\n      sub\n      swap1\n      return\n        /* \"Access/Wholesaler.sol\":805:909  function addWholesaler (address account) public onlyWholesaler{... */\n    tag_17:\n      tag_68\n      0x04\n      dup1\n      calldatasize\n      sub\n      dup2\n      add\n      swap1\n      tag_69\n      swap2\n      swap1\n      tag_26\n      jump\t// in\n    tag_69:\n      tag_70\n      jump\t// in\n    tag_68:\n      stop\n        /* \"Access/Retailer.sol\":893:985  function  renouceRetailer() public{... */\n    tag_18:\n      tag_71\n      tag_72\n      jump\t// in\n    tag_71:\n      stop\n        /* \"Access/Wholesaler.sol\":917:1013  function  renouceWholesaler() public{... */\n    tag_23:\n        /* \"Access/Wholesaler.sol\":974:1005  _removeWholesaler(_msgSender()) */\n      tag_75\n        /* \"Access/Wholesaler.sol\":992:1004  _msgSender() */\n      tag_76\n        /* \"Access/Wholesaler.sol\":992:1002  _msgSender */\n      tag_77\n        /* \"Access/Wholesaler.sol\":992:1004  _msgSender() */\n      jump\t// in\n    tag_76:\n        /* \"Access/Wholesaler.sol\":974:991  _removeWholesaler */\n      tag_78\n        /* \"Access/Wholesaler.sol\":974:1005  _removeWholesaler(_msgSender()) */\n      jump\t// in\n    tag_75:\n        /* \"Access/Wholesaler.sol\":917:1013  function  renouceWholesaler() public{... */\n      jump\t// out\n        /* \"Access/Consumer.sol\":787:885  function addConsumer (address account) public onlyConsumer{... */\n    tag_27:\n        /* \"Access/Consumer.sol\":534:558  isConsumer(_msgSender()) */\n      tag_80\n        /* \"Access/Consumer.sol\":545:557  _msgSender() */\n      tag_81\n        /* \"Access/Consumer.sol\":545:555  _msgSender */\n      tag_77\n        /* \"Access/Consumer.sol\":545:557  _msgSender() */\n      jump\t// in\n    tag_81:\n        /* \"Access/Consumer.sol\":534:544  isConsumer */\n      tag_57\n        /* \"Access/Consumer.sol\":534:558  isConsumer(_msgSender()) */\n      jump\t// in\n    tag_80:\n        /* \"Access/Consumer.sol\":526:559  require(isConsumer(_msgSender())) */\n      tag_82\n      jumpi\n      0x00\n      dup1\n      revert\n    tag_82:\n        /* \"Access/Consumer.sol\":856:877  _addConsumer(account) */\n      tag_84\n        /* \"Access/Consumer.sol\":869:876  account */\n      dup2\n        /* \"Access/Consumer.sol\":856:868  _addConsumer */\n      tag_85\n        /* \"Access/Consumer.sol\":856:877  _addConsumer(account) */\n      jump\t// in\n    tag_84:\n        /* \"Access/Consumer.sol\":787:885  function addConsumer (address account) public onlyConsumer{... */\n      pop\n      jump\t// out\n        /* \"Access/Manufacturer.sol\":674:811  function isManufacturer(address account )... */\n    tag_30:\n        /* \"Access/Manufacturer.sol\":754:758  bool */\n      0x00\n        /* \"Access/Manufacturer.sol\":777:803  manufacturers.has(account) */\n      tag_87\n        /* \"Access/Manufacturer.sol\":795:802  account */\n      dup3\n        /* \"Access/Manufacturer.sol\":777:790  manufacturers */\n      0x00\n        /* \"Access/Manufacturer.sol\":777:794  manufacturers.has */\n      tag_88\n      swap1\n        /* \"Access/Manufacturer.sol\":777:803  manufacturers.has(account) */\n      swap2\n      swap1\n      0xffffffff\n      and\n      jump\t// in\n    tag_87:\n        /* \"Access/Manufacturer.sol\":770:803  return manufacturers.has(account) */\n      swap1\n      pop\n        /* \"Access/Manufacturer.sol\":674:811  function isManufacturer(address account )... */\n      swap2\n      swap1\n      pop\n      jump\t// out\n        /* \"Access/Consumer.sol\":893:985  function  renouceConsumer() public{... */\n    tag_34:\n        /* \"Access/Consumer.sol\":948:977  _removeConsumer(_msgSender()) */\n      tag_90\n        /* \"Access/Consumer.sol\":964:976  _msgSender() */\n      tag_91\n        /* \"Access/Consumer.sol\":964:974  _msgSender */\n      tag_77\n        /* \"Access/Consumer.sol\":964:976  _msgSender() */\n      jump\t// in\n    tag_91:\n        /* \"Access/Consumer.sol\":948:963  _removeConsumer */\n      tag_92\n        /* \"Access/Consumer.sol\":948:977  _removeConsumer(_msgSender()) */\n      jump\t// in\n    tag_90:\n        /* \"Access/Consumer.sol\":893:985  function  renouceConsumer() public{... */\n      jump\t// out\n        /* \"Access/Distributor.sol\":929:1027  function  renouceDistributor() public{... */\n    tag_36:\n        /* \"Access/Distributor.sol\":987:1019  _removeDistributor(_msgSender()) */\n      tag_94\n        /* \"Access/Distributor.sol\":1006:1018  _msgSender() */\n      tag_95\n        /* \"Access/Distributor.sol\":1006:1016  _msgSender */\n      tag_77\n        /* \"Access/Distributor.sol\":1006:1018  _msgSender() */\n      jump\t// in\n    tag_95:\n        /* \"Access/Distributor.sol\":987:1005  _removeDistributor */\n      tag_96\n        /* \"Access/Distributor.sol\":987:1019  _removeDistributor(_msgSender()) */\n      jump\t// in\n    tag_94:\n        /* \"Access/Distributor.sol\":929:1027  function  renouceDistributor() public{... */\n      jump\t// out\n        /* \"Supplychain/Supplychain.sol\":7876:10714  function MedicineProducedByManufacturer (... */\n    tag_40:\n        /* \"Access/Manufacturer.sol\":558:586  isManufacturer(_msgSender()) */\n      tag_98\n        /* \"Access/Manufacturer.sol\":573:585  _msgSender() */\n      tag_99\n        /* \"Access/Manufacturer.sol\":573:583  _msgSender */\n      tag_77\n        /* \"Access/Manufacturer.sol\":573:585  _msgSender() */\n      jump\t// in\n    tag_99:\n        /* \"Access/Manufacturer.sol\":558:572  isManufacturer */\n      tag_30\n        /* \"Access/Manufacturer.sol\":558:586  isManufacturer(_msgSender()) */\n      jump\t// in\n    tag_98:\n        /* \"Access/Manufacturer.sol\":550:587  require(isManufacturer(_msgSender())) */\n      tag_100\n      jumpi\n      0x00\n      dup1\n      revert\n    tag_100:\n        /* \"Supplychain/Supplychain.sol\":8145:8166  address DistributorID */\n      0x00\n        /* \"Supplychain/Supplychain.sol\":8268:8288  address wholesalerID */\n      dup1\n        /* \"Supplychain/Supplychain.sol\":8384:8402  address RetailerID */\n      0x00\n        /* \"Supplychain/Supplychain.sol\":8499:8517  address consumerID */\n      dup1\n        /* \"Supplychain/Supplychain.sol\":8564:8590  Medicine memory newProduce */\n      tag_102\n      tag_103\n      jump\t// in\n    tag_102:\n        /* \"Supplychain/Supplychain.sol\":8670:8679  StockUnit */\n      sload(0x07)\n        /* \"Supplychain/Supplychain.sol\":8647:8657  newProduce */\n      dup2\n        /* \"Supplychain/Supplychain.sol\":8647:8667  newProduce.stockUnit */\n      0x00\n      add\n        /* \"Supplychain/Supplychain.sol\":8647:8679  newProduce.stockUnit = StockUnit */\n      dup2\n      dup2\n      mstore\n      pop\n      pop\n        /* \"Supplychain/Supplychain.sol\":8758:8771  _MedicineCode */\n      dup9\n        /* \"Supplychain/Supplychain.sol\":8732:8742  newProduce */\n      dup2\n        /* \"Supplychain/Supplychain.sol\":8732:8755  newProduce.MedicineCode */\n      0x20\n      add\n        /* \"Supplychain/Supplychain.sol\":8732:8771  newProduce.MedicineCode = _MedicineCode */\n      dup2\n      dup2\n      mstore\n      pop\n      pop\n        /* \"Supplychain/Supplychain.sol\":8904:8916  _msgSender() */\n      tag_104\n        /* \"Supplychain/Supplychain.sol\":8904:8914  _msgSender */\n      tag_77\n        /* \"Supplychain/Supplychain.sol\":8904:8916  _msgSender() */\n      jump\t// in\n    tag_104:\n        /* \"Supplychain/Supplychain.sol\":8883:8893  newProduce */\n      dup2\n        /* \"Supplychain/Supplychain.sol\":8883:8901  newProduce.ownerID */\n      0x40\n      add\n        /* \"Supplychain/Supplychain.sol\":8883:8916  newProduce.ownerID = _msgSender() */\n      swap1\n      0xffffffffffffffffffffffffffffffffffffffff\n      and\n      swap1\n      dup2\n      0xffffffffffffffffffffffffffffffffffffffff\n      and\n      dup2\n      mstore\n      pop\n      pop\n        /* \"Supplychain/Supplychain.sol\":9051:9063  _msgSender() */\n      tag_105\n        /* \"Supplychain/Supplychain.sol\":9051:9061  _msgSender */\n      tag_77\n        /* \"Supplychain/Supplychain.sol\":9051:9063  _msgSender() */\n      jump\t// in\n    tag_105:\n        /* \"Supplychain/Supplychain.sol\":9023:9033  newProduce */\n      dup2\n        /* \"Supplychain/Supplychain.sol\":9023:9048  newProduce.ManufacturerID */\n      0x60\n      add\n        /* \"Supplychain/Supplychain.sol\":9023:9063  newProduce.ManufacturerID = _msgSender() */\n      swap1\n      0xffffffffffffffffffffffffffffffffffffffff\n      and\n      swap1\n      dup2\n      0xffffffffffffffffffffffffffffffffffffffff\n      and\n      dup2\n      mstore\n      pop\n      pop\n        /* \"Supplychain/Supplychain.sol\":9155:9172  _ManufacturerName */\n      dup8\n        /* \"Supplychain/Supplychain.sol\":9125:9135  newProduce */\n      dup2\n        /* \"Supplychain/Supplychain.sol\":9125:9152  newProduce.ManufacturerName */\n      0x80\n      add\n        /* \"Supplychain/Supplychain.sol\":9125:9172  newProduce.ManufacturerName = _ManufacturerName */\n      dup2\n      swap1\n      mstore\n      pop\n        /* \"Supplychain/Supplychain.sol\":9236:9253  _ManufacturerInfo */\n      dup7\n        /* \"Supplychain/Supplychain.sol\":9206:9216  newProduce */\n      dup2\n        /* \"Supplychain/Supplychain.sol\":9206:9233  newProduce.ManufacturerInfo */\n      0xa0\n      add\n        /* \"Supplychain/Supplychain.sol\":9206:9253  newProduce.ManufacturerInfo = _ManufacturerInfo */\n      dup2\n      swap1\n      mstore\n      pop\n        /* \"Supplychain/Supplychain.sol\":9317:9331  _MedicinePrice */\n      dup6\n        /* \"Supplychain/Supplychain.sol\":9290:9300  newProduce */\n      dup2\n        /* \"Supplychain/Supplychain.sol\":9290:9314  newProduce.MedicinePrice */\n      0x0100\n      add\n        /* \"Supplychain/Supplychain.sol\":9290:9331  newProduce.MedicinePrice = _MedicinePrice */\n      dup2\n      dup2\n      mstore\n      pop\n      pop\n        /* \"Supplychain/Supplychain.sol\":9398:9413  block.timestamp */\n      timestamp\n        /* \"Supplychain/Supplychain.sol\":9367:9377  newProduce */\n      dup2\n        /* \"Supplychain/Supplychain.sol\":9367:9395  newProduce.ManufacturingDate */\n      0xe0\n      add\n        /* \"Supplychain/Supplychain.sol\":9367:9413  newProduce.ManufacturingDate = block.timestamp */\n      dup2\n      dup2\n      mstore\n      pop\n      pop\n        /* \"Supplychain/Supplychain.sol\":1176:1204  state.ProducedByManufacturer */\n      0x00\n        /* \"Supplychain/Supplychain.sol\":9450:9460  newProduce */\n      dup2\n        /* \"Supplychain/Supplychain.sol\":9450:9474  newProduce.MedicineState */\n      0x0120\n      add\n        /* \"Supplychain/Supplychain.sol\":9450:9489  newProduce.MedicineState = defaultState */\n      swap1\n      0x0d\n      dup2\n      gt\n      iszero\n      tag_106\n      jumpi\n      tag_107\n      tag_108\n      jump\t// in\n    tag_107:\n    tag_106:\n      swap1\n      dup2\n      0x0d\n      dup2\n      gt\n      iszero\n      tag_109\n      jumpi\n      tag_110\n      tag_108\n      jump\t// in\n    tag_110:\n    tag_109:\n      dup2\n      mstore\n      pop\n      pop\n        /* \"Supplychain/Supplychain.sol\":9585:9598  DistributorID */\n      dup5\n        /* \"Supplychain/Supplychain.sol\":9558:9568  newProduce */\n      dup2\n        /* \"Supplychain/Supplychain.sol\":9558:9582  newProduce.DistributorID */\n      0x0140\n      add\n        /* \"Supplychain/Supplychain.sol\":9558:9598  newProduce.DistributorID = DistributorID */\n      swap1\n      0xffffffffffffffffffffffffffffffffffffffff\n      and\n      swap1\n      dup2\n      0xffffffffffffffffffffffffffffffffffffffff\n      and\n      dup2\n      mstore\n      pop\n      pop\n        /* \"Supplychain/Supplychain.sol\":9691:9703  wholesalerID */\n      dup4\n        /* \"Supplychain/Supplychain.sol\":9665:9675  newProduce */\n      dup2\n        /* \"Supplychain/Supplychain.sol\":9665:9688  newProduce.WholesalerID */\n      0x0180\n      add\n        /* \"Supplychain/Supplychain.sol\":9665:9703  newProduce.WholesalerID = wholesalerID */\n      swap1\n      0xffffffffffffffffffffffffffffffffffffffff\n      and\n      swap1\n      dup2\n      0xffffffffffffffffffffffffffffffffffffffff\n      and\n      dup2\n      mstore\n      pop\n      pop\n        /* \"Supplychain/Supplychain.sol\":9747:9757  RetailerID */\n      dup3\n        /* \"Supplychain/Supplychain.sol\":9723:9733  newProduce */\n      dup2\n        /* \"Supplychain/Supplychain.sol\":9723:9744  newProduce.RetailerID */\n      0x01c0\n      add\n        /* \"Supplychain/Supplychain.sol\":9723:9757  newProduce.RetailerID = RetailerID */\n      swap1\n      0xffffffffffffffffffffffffffffffffffffffff\n      and\n      swap1\n      dup2\n      0xffffffffffffffffffffffffffffffffffffffff\n      and\n      dup2\n      mstore\n      pop\n      pop\n        /* \"Supplychain/Supplychain.sol\":9845:9855  consumerID */\n      dup2\n        /* \"Supplychain/Supplychain.sol\":9821:9831  newProduce */\n      dup2\n        /* \"Supplychain/Supplychain.sol\":9821:9842  newProduce.ConsumerID */\n      0x0200\n      add\n        /* \"Supplychain/Supplychain.sol\":9821:9855  newProduce.ConsumerID = consumerID */\n      swap1\n      0xffffffffffffffffffffffffffffffffffffffff\n      and\n      swap1\n      dup2\n      0xffffffffffffffffffffffffffffffffffffffff\n      and\n      dup2\n      mstore\n      pop\n      pop\n        /* \"Supplychain/Supplychain.sol\":9964:9974  newProduce */\n      dup1\n        /* \"Supplychain/Supplychain.sol\":9937:9946  medicines */\n      0x08\n        /* \"Supplychain/Supplychain.sol\":9937:9961  medicines[_MedicineCode] */\n      0x00\n        /* \"Supplychain/Supplychain.sol\":9947:9960  _MedicineCode */\n      dup12\n        /* \"Supplychain/Supplychain.sol\":9937:9961  medicines[_MedicineCode] */\n      dup2\n      mstore\n      0x20\n      add\n      swap1\n      dup2\n      mstore\n      0x20\n      add\n      0x00\n      keccak256\n        /* \"Supplychain/Supplychain.sol\":9937:9974  medicines[_MedicineCode] = newProduce */\n      0x00\n      dup3\n      add\n      mload\n      dup2\n      0x00\n      add\n      sstore\n      0x20\n      dup3\n      add\n      mload\n      dup2\n      0x01\n      add\n      sstore\n      0x40\n      dup3\n      add\n      mload\n      dup2\n      0x02\n      add\n      exp(0x0100, 0x00)\n      dup2\n      sload\n      dup2\n      0xffffffffffffffffffffffffffffffffffffffff\n      mul\n      not\n      and\n      swap1\n      dup4\n      0xffffffffffffffffffffffffffffffffffffffff\n      and\n      mul\n      or\n      swap1\n      sstore\n      pop\n      0x60\n      dup3\n      add\n      mload\n      dup2\n      0x03\n      add\n      exp(0x0100, 0x00)\n      dup2\n      sload\n      dup2\n      0xffffffffffffffffffffffffffffffffffffffff\n      mul\n      not\n      and\n      swap1\n      dup4\n      0xffffffffffffffffffffffffffffffffffffffff\n      and\n      mul\n      or\n      swap1\n      sstore\n      pop\n      0x80\n      dup3\n      add\n      mload\n      dup2\n      0x04\n      add\n      swap1\n      dup2\n      tag_111\n      swap2\n      swap1\n      tag_112\n      jump\t// in\n    tag_111:\n      pop\n      0xa0\n      dup3\n      add\n      mload\n      dup2\n      0x05\n      add\n      swap1\n      dup2\n      tag_113\n      swap2\n      swap1\n      tag_112\n      jump\t// in\n    tag_113:\n      pop\n      0xc0\n      dup3\n      add\n      mload\n      dup2\n      0x06\n      add\n      sstore\n      0xe0\n      dup3\n      add\n      mload\n      dup2\n      0x07\n      add\n      sstore\n      0x0100\n      dup3\n      add\n      mload\n      dup2\n      0x08\n      add\n      sstore\n      0x0120\n      dup3\n      add\n      mload\n      dup2\n      0x09\n      add\n      exp(0x0100, 0x00)\n      dup2\n      sload\n      dup2\n      0xff\n      mul\n      not\n      and\n      swap1\n      dup4\n      0x0d\n      dup2\n      gt\n      iszero\n      tag_114\n      jumpi\n      tag_115\n      tag_108\n      jump\t// in\n    tag_115:\n    tag_114:\n      mul\n      or\n      swap1\n      sstore\n      pop\n      0x0140\n      dup3\n      add\n      mload\n      dup2\n      0x09\n      add\n      exp(0x0100, 0x01)\n      dup2\n      sload\n      dup2\n      0xffffffffffffffffffffffffffffffffffffffff\n      mul\n      not\n      and\n      swap1\n      dup4\n      0xffffffffffffffffffffffffffffffffffffffff\n      and\n      mul\n      or\n      swap1\n      sstore\n      pop\n      0x0160\n      dup3\n      add\n      mload\n      dup2\n      0x0a\n      add\n      swap1\n      dup2\n      tag_116\n      swap2\n      swap1\n      tag_112\n      jump\t// in\n    tag_116:\n      pop\n      0x0180\n      dup3\n      add\n      mload\n      dup2\n      0x0b\n      add\n      exp(0x0100, 0x00)\n      dup2\n      sload\n      dup2\n      0xffffffffffffffffffffffffffffffffffffffff\n      mul\n      not\n      and\n      swap1\n      dup4\n      0xffffffffffffffffffffffffffffffffffffffff\n      and\n      mul\n      or\n      swap1\n      sstore\n      pop\n      0x01a0\n      dup3\n      add\n      mload\n      dup2\n      0x0c\n      add\n      swap1\n      dup2\n      tag_117\n      swap2\n      swap1\n      tag_112\n      jump\t// in\n    tag_117:\n      pop\n      0x01c0\n      dup3\n      add\n      mload\n      dup2\n      0x0d\n      add\n      exp(0x0100, 0x00)\n      dup2\n      sload\n      dup2\n      0xffffffffffffffffffffffffffffffffffffffff\n      mul\n      not\n      and\n      swap1\n      dup4\n      0xffffffffffffffffffffffffffffffffffffffff\n      and\n      mul\n      or\n      swap1\n      sstore\n      pop\n      0x01e0\n      dup3\n      add\n      mload\n      dup2\n      0x0e\n      add\n      swap1\n      dup2\n      tag_118\n      swap2\n      swap1\n      tag_112\n      jump\t// in\n    tag_118:\n      pop\n      0x0200\n      dup3\n      add\n      mload\n      dup2\n      0x0f\n      add\n      exp(0x0100, 0x00)\n      dup2\n      sload\n      dup2\n      0xffffffffffffffffffffffffffffffffffffffff\n      mul\n      not\n      and\n      swap1\n      dup4\n      0xffffffffffffffffffffffffffffffffffffffff\n      and\n      mul\n      or\n      swap1\n      sstore\n      pop\n      0x0220\n      dup3\n      add\n      mload\n      dup2\n      0x10\n      add\n      sstore\n      swap1\n      pop\n      pop\n        /* \"Supplychain/Supplychain.sol\":10042:10061  uint256 placeholder */\n      0x00\n        /* \"Supplychain/Supplychain.sol\":10109:10132  Txblocks memory Txblock */\n      tag_119\n      tag_120\n      jump\t// in\n    tag_119:\n        /* \"Supplychain/Supplychain.sol\":10194:10205  placeholder */\n      dup2\n        /* \"Supplychain/Supplychain.sol\":10180:10187  Txblock */\n      dup2\n        /* \"Supplychain/Supplychain.sol\":10180:10191  Txblock.FTD */\n      0x00\n      add\n        /* \"Supplychain/Supplychain.sol\":10180:10205  Txblock.FTD = placeholder */\n      dup2\n      dup2\n      mstore\n      pop\n      pop\n        /* \"Supplychain/Supplychain.sol\":10267:10278  placeholder */\n      dup2\n        /* \"Supplychain/Supplychain.sol\":10253:10260  Txblock */\n      dup2\n        /* \"Supplychain/Supplychain.sol\":10253:10264  Txblock.DTW */\n      0x20\n      add\n        /* \"Supplychain/Supplychain.sol\":10253:10278  Txblock.DTW = placeholder */\n      dup2\n      dup2\n      mstore\n      pop\n      pop\n        /* \"Supplychain/Supplychain.sol\":10311:10322  placeholder */\n      dup2\n        /* \"Supplychain/Supplychain.sol\":10297:10304  Txblock */\n      dup2\n        /* \"Supplychain/Supplychain.sol\":10297:10308  Txblock.WTR */\n      0x40\n      add\n        /* \"Supplychain/Supplychain.sol\":10297:10322  Txblock.WTR = placeholder */\n      dup2\n      dup2\n      mstore\n      pop\n      pop\n        /* \"Supplychain/Supplychain.sol\":10355:10366  placeholder */\n      dup2\n        /* \"Supplychain/Supplychain.sol\":10341:10348  Txblock */\n      dup2\n        /* \"Supplychain/Supplychain.sol\":10341:10352  Txblock.RTC */\n      0x60\n      add\n        /* \"Supplychain/Supplychain.sol\":10341:10366  Txblock.RTC = placeholder */\n      dup2\n      dup2\n      mstore\n      pop\n      pop\n        /* \"Supplychain/Supplychain.sol\":10419:10426  Txblock */\n      dup1\n        /* \"Supplychain/Supplychain.sol\":10385:10401  medicinesHistory */\n      0x09\n        /* \"Supplychain/Supplychain.sol\":10385:10416  medicinesHistory[_MedicineCode] */\n      0x00\n        /* \"Supplychain/Supplychain.sol\":10402:10415  _MedicineCode */\n      dup14\n        /* \"Supplychain/Supplychain.sol\":10385:10416  medicinesHistory[_MedicineCode] */\n      dup2\n      mstore\n      0x20\n      add\n      swap1\n      dup2\n      mstore\n      0x20\n      add\n      0x00\n      keccak256\n        /* \"Supplychain/Supplychain.sol\":10385:10426  medicinesHistory[_MedicineCode] = Txblock */\n      0x00\n      dup3\n      add\n      mload\n      dup2\n      0x00\n      add\n      sstore\n      0x20\n      dup3\n      add\n      mload\n      dup2\n      0x01\n      add\n      sstore\n      0x40\n      dup3\n      add\n      mload\n      dup2\n      0x02\n      add\n      sstore\n      0x60\n      dup3\n      add\n      mload\n      dup2\n      0x03\n      add\n      sstore\n      swap1\n      pop\n      pop\n        /* \"Supplychain/Supplychain.sol\":10565:10566  1 */\n      0x01\n        /* \"Supplychain/Supplychain.sol\":10553:10562  StockUnit */\n      sload(0x07)\n        /* \"Supplychain/Supplychain.sol\":10553:10566  StockUnit + 1 */\n      tag_121\n      swap2\n      swap1\n      tag_122\n      jump\t// in\n    tag_121:\n        /* \"Supplychain/Supplychain.sol\":10541:10550  StockUnit */\n      0x07\n        /* \"Supplychain/Supplychain.sol\":10541:10566  StockUnit = StockUnit + 1 */\n      dup2\n      swap1\n      sstore\n      pop\n        /* \"Supplychain/Supplychain.sol\":10639:10676  ProducedByManufacturer(_MedicineCode) */\n      0xb7cacbe76ffd2319b73ee6a0f921b205bdb46926c6342d478b159eedd699d4b6\n        /* \"Supplychain/Supplychain.sol\":10662:10675  _MedicineCode */\n      dup12\n        /* \"Supplychain/Supplychain.sol\":10639:10676  ProducedByManufacturer(_MedicineCode) */\n      mload(0x40)\n      tag_123\n      swap2\n      swap1\n      tag_124\n      jump\t// in\n    tag_123:\n      mload(0x40)\n      dup1\n      swap2\n      sub\n      swap1\n      log1\n        /* \"Supplychain/Supplychain.sol\":8127:10714  {... */\n      pop\n      pop\n      pop\n      pop\n      pop\n      pop\n      pop\n        /* \"Supplychain/Supplychain.sol\":7876:10714  function MedicineProducedByManufacturer (... */\n      pop\n      pop\n      pop\n      pop\n      jump\t// out\n        /* \"Access/Retailer.sol\":646:775  function isRetailer(address account )... */\n    tag_43:\n        /* \"Access/Retailer.sol\":722:726  bool */\n      0x00\n        /* \"Access/Retailer.sol\":745:767  retailers.has(account) */\n      tag_126\n        /* \"Access/Retailer.sol\":759:766  account */\n      dup3\n        /* \"Access/Retailer.sol\":745:754  retailers */\n      0x03\n        /* \"Access/Retailer.sol\":745:758  retailers.has */\n      tag_88\n      swap1\n        /* \"Access/Retailer.sol\":745:767  retailers.has(account) */\n      swap2\n      swap1\n      0xffffffff\n      and\n      jump\t// in\n    tag_126:\n        /* \"Access/Retailer.sol\":738:767  return retailers.has(account) */\n      swap1\n      pop\n        /* \"Access/Retailer.sol\":646:775  function isRetailer(address account )... */\n      swap2\n      swap1\n      pop\n      jump\t// out\n        /* \"Access/Manufacturer.sol\":823:933  function addManufacturer (address account) public onlyManufacturer{... */\n    tag_47:\n        /* \"Access/Manufacturer.sol\":558:586  isManufacturer(_msgSender()) */\n      tag_128\n        /* \"Access/Manufacturer.sol\":573:585  _msgSender() */\n      tag_129\n        /* \"Access/Manufacturer.sol\":573:583  _msgSender */\n      tag_77\n        /* \"Access/Manufacturer.sol\":573:585  _msgSender() */\n      jump\t// in\n    tag_129:\n        /* \"Access/Manufacturer.sol\":558:572  isManufacturer */\n      tag_30\n        /* \"Access/Manufacturer.sol\":558:586  isManufacturer(_msgSender()) */\n      jump\t// in\n    tag_128:\n        /* \"Access/Manufacturer.sol\":550:587  require(isManufacturer(_msgSender())) */\n      tag_130\n      jumpi\n      0x00\n      dup1\n      revert\n    tag_130:\n        /* \"Access/Manufacturer.sol\":900:925  _addManufacturer(account) */\n      tag_132\n        /* \"Access/Manufacturer.sol\":917:924  account */\n      dup2\n        /* \"Access/Manufacturer.sol\":900:916  _addManufacturer */\n      tag_133\n        /* \"Access/Manufacturer.sol\":900:925  _addManufacturer(account) */\n      jump\t// in\n    tag_132:\n        /* \"Access/Manufacturer.sol\":823:933  function addManufacturer (address account) public onlyManufacturer{... */\n      pop\n      jump\t// out\n        /* \"Access/Wholesaler.sol\":660:793  function isWholesaler(address account )... */\n    tag_50:\n        /* \"Access/Wholesaler.sol\":738:742  bool */\n      0x00\n        /* \"Access/Wholesaler.sol\":761:785  wholesalers.has(account) */\n      tag_135\n        /* \"Access/Wholesaler.sol\":777:784  account */\n      dup3\n        /* \"Access/Wholesaler.sol\":761:772  wholesalers */\n      0x02\n        /* \"Access/Wholesaler.sol\":761:776  wholesalers.has */\n      tag_88\n      swap1\n        /* \"Access/Wholesaler.sol\":761:785  wholesalers.has(account) */\n      swap2\n      swap1\n      0xffffffff\n      and\n      jump\t// in\n    tag_135:\n        /* \"Access/Wholesaler.sol\":754:785  return wholesalers.has(account) */\n      swap1\n      pop\n        /* \"Access/Wholesaler.sol\":660:793  function isWholesaler(address account )... */\n      swap2\n      swap1\n      pop\n      jump\t// out\n        /* \"Access/Distributor.sol\":814:921  function addDistributor (address account) public onlyDistributor{... */\n    tag_54:\n        /* \"Access/Distributor.sol\":552:579  isDistributor(_msgSender()) */\n      tag_137\n        /* \"Access/Distributor.sol\":566:578  _msgSender() */\n      tag_138\n        /* \"Access/Distributor.sol\":566:576  _msgSender */\n      tag_77\n        /* \"Access/Distributor.sol\":566:578  _msgSender() */\n      jump\t// in\n    tag_138:\n        /* \"Access/Distributor.sol\":552:565  isDistributor */\n      tag_66\n        /* \"Access/Distributor.sol\":552:579  isDistributor(_msgSender()) */\n      jump\t// in\n    tag_137:\n        /* \"Access/Distributor.sol\":544:580  require(isDistributor(_msgSender())) */\n      tag_139\n      jumpi\n      0x00\n      dup1\n      revert\n    tag_139:\n        /* \"Access/Distributor.sol\":889:913  _addDistributor(account) */\n      tag_141\n        /* \"Access/Distributor.sol\":905:912  account */\n      dup2\n        /* \"Access/Distributor.sol\":889:904  _addDistributor */\n      tag_142\n        /* \"Access/Distributor.sol\":889:913  _addDistributor(account) */\n      jump\t// in\n    tag_141:\n        /* \"Access/Distributor.sol\":814:921  function addDistributor (address account) public onlyDistributor{... */\n      pop\n      jump\t// out\n        /* \"Access/Consumer.sol\":646:775  function isConsumer(address account )... */\n    tag_57:\n        /* \"Access/Consumer.sol\":722:726  bool */\n      0x00\n        /* \"Access/Consumer.sol\":745:767  consumers.has(account) */\n      tag_144\n        /* \"Access/Consumer.sol\":759:766  account */\n      dup3\n        /* \"Access/Consumer.sol\":745:754  consumers */\n      0x04\n        /* \"Access/Consumer.sol\":745:758  consumers.has */\n      tag_88\n      swap1\n        /* \"Access/Consumer.sol\":745:767  consumers.has(account) */\n      swap2\n      swap1\n      0xffffffff\n      and\n      jump\t// in\n    tag_144:\n        /* \"Access/Consumer.sol\":738:767  return consumers.has(account) */\n      swap1\n      pop\n        /* \"Access/Consumer.sol\":646:775  function isConsumer(address account )... */\n      swap2\n      swap1\n      pop\n      jump\t// out\n        /* \"Access/Manufacturer.sol\":941:1040  function  renouceManufaturer() public{... */\n    tag_60:\n        /* \"Access/Manufacturer.sol\":999:1032  _removeManufacturer(_msgSender()) */\n      tag_146\n        /* \"Access/Manufacturer.sol\":1019:1031  _msgSender() */\n      tag_147\n        /* \"Access/Manufacturer.sol\":1019:1029  _msgSender */\n      tag_77\n        /* \"Access/Manufacturer.sol\":1019:1031  _msgSender() */\n      jump\t// in\n    tag_147:\n        /* \"Access/Manufacturer.sol\":999:1018  _removeManufacturer */\n      tag_148\n        /* \"Access/Manufacturer.sol\":999:1032  _removeManufacturer(_msgSender()) */\n      jump\t// in\n    tag_146:\n        /* \"Access/Manufacturer.sol\":941:1040  function  renouceManufaturer() public{... */\n      jump\t// out\n        /* \"Access/Retailer.sol\":787:885  function addRetailer (address account) public onlyRetailer{... */\n    tag_63:\n        /* \"Access/Retailer.sol\":534:558  isRetailer(_msgSender()) */\n      tag_150\n        /* \"Access/Retailer.sol\":545:557  _msgSender() */\n      tag_151\n        /* \"Access/Retailer.sol\":545:555  _msgSender */\n      tag_77\n        /* \"Access/Retailer.sol\":545:557  _msgSender() */\n      jump\t// in\n    tag_151:\n        /* \"Access/Retailer.sol\":534:544  isRetailer */\n      tag_43\n        /* \"Access/Retailer.sol\":534:558  isRetailer(_msgSender()) */\n      jump\t// in\n    tag_150:\n        /* \"Access/Retailer.sol\":526:559  require(isRetailer(_msgSender())) */\n      tag_152\n      jumpi\n      0x00\n      dup1\n      revert\n    tag_152:\n        /* \"Access/Retailer.sol\":856:877  _addRetailer(account) */\n      tag_154\n        /* \"Access/Retailer.sol\":869:876  account */\n      dup2\n        /* \"Access/Retailer.sol\":856:868  _addRetailer */\n      tag_155\n        /* \"Access/Retailer.sol\":856:877  _addRetailer(account) */\n      jump\t// in\n    tag_154:\n        /* \"Access/Retailer.sol\":787:885  function addRetailer (address account) public onlyRetailer{... */\n      pop\n      jump\t// out\n        /* \"Access/Distributor.sol\":667:802  function isDistributor(address account )... */\n    tag_66:\n        /* \"Access/Distributor.sol\":746:750  bool */\n      0x00\n        /* \"Access/Distributor.sol\":769:794  distributors.has(account) */\n      tag_157\n        /* \"Access/Distributor.sol\":786:793  account */\n      dup3\n        /* \"Access/Distributor.sol\":769:781  distributors */\n      0x01\n        /* \"Access/Distributor.sol\":769:785  distributors.has */\n      tag_88\n      swap1\n        /* \"Access/Distributor.sol\":769:794  distributors.has(account) */\n      swap2\n      swap1\n      0xffffffff\n      and\n      jump\t// in\n    tag_157:\n        /* \"Access/Distributor.sol\":762:794  return distributors.has(account) */\n      swap1\n      pop\n        /* \"Access/Distributor.sol\":667:802  function isDistributor(address account )... */\n      swap2\n      swap1\n      pop\n      jump\t// out\n        /* \"Access/Wholesaler.sol\":805:909  function addWholesaler (address account) public onlyWholesaler{... */\n    tag_70:\n        /* \"Access/Wholesaler.sol\":546:572  isWholesaler(_msgSender()) */\n      tag_159\n        /* \"Access/Wholesaler.sol\":559:571  _msgSender() */\n      tag_160\n        /* \"Access/Wholesaler.sol\":559:569  _msgSender */\n      tag_77\n        /* \"Access/Wholesaler.sol\":559:571  _msgSender() */\n      jump\t// in\n    tag_160:\n        /* \"Access/Wholesaler.sol\":546:558  isWholesaler */\n      tag_50\n        /* \"Access/Wholesaler.sol\":546:572  isWholesaler(_msgSender()) */\n      jump\t// in\n    tag_159:\n        /* \"Access/Wholesaler.sol\":538:573  require(isWholesaler(_msgSender())) */\n      tag_161\n      jumpi\n      0x00\n      dup1\n      revert\n    tag_161:\n        /* \"Access/Wholesaler.sol\":878:901  _addWholesaler(account) */\n      tag_163\n        /* \"Access/Wholesaler.sol\":893:900  account */\n      dup2\n        /* \"Access/Wholesaler.sol\":878:892  _addWholesaler */\n      tag_164\n        /* \"Access/Wholesaler.sol\":878:901  _addWholesaler(account) */\n      jump\t// in\n    tag_163:\n        /* \"Access/Wholesaler.sol\":805:909  function addWholesaler (address account) public onlyWholesaler{... */\n      pop\n      jump\t// out\n        /* \"Access/Retailer.sol\":893:985  function  renouceRetailer() public{... */\n    tag_72:\n        /* \"Access/Retailer.sol\":948:977  _removeRetailer(_msgSender()) */\n      tag_166\n        /* \"Access/Retailer.sol\":964:976  _msgSender() */\n      tag_167\n        /* \"Access/Retailer.sol\":964:974  _msgSender */\n      tag_77\n        /* \"Access/Retailer.sol\":964:976  _msgSender() */\n      jump\t// in\n    tag_167:\n        /* \"Access/Retailer.sol\":948:963  _removeRetailer */\n      tag_168\n        /* \"Access/Retailer.sol\":948:977  _removeRetailer(_msgSender()) */\n      jump\t// in\n    tag_166:\n        /* \"Access/Retailer.sol\":893:985  function  renouceRetailer() public{... */\n      jump\t// out\n        /* \"Access/Roles.sol\":153:344  function add(Role storage role , address account) internal {... */\n    tag_73:\n        /* \"Access/Roles.sol\":252:253  0 */\n      0x00\n        /* \"Access/Roles.sol\":233:254  account != address(0) */\n      0xffffffffffffffffffffffffffffffffffffffff\n      and\n        /* \"Access/Roles.sol\":233:240  account */\n      dup2\n        /* \"Access/Roles.sol\":233:254  account != address(0) */\n      0xffffffffffffffffffffffffffffffffffffffff\n      and\n      sub\n        /* \"Access/Roles.sol\":223:256  require( (account != address(0))) */\n      tag_170\n      jumpi\n      0x00\n      dup1\n      revert\n    tag_170:\n        /* \"Access/Roles.sol\":276:296  has(role , account ) */\n      tag_171\n        /* \"Access/Roles.sol\":280:284  role */\n      dup3\n        /* \"Access/Roles.sol\":287:294  account */\n      dup3\n        /* \"Access/Roles.sol\":276:279  has */\n      tag_88\n        /* \"Access/Roles.sol\":276:296  has(role , account ) */\n      jump\t// in\n    tag_171:\n        /* \"Access/Roles.sol\":275:296  !has(role , account ) */\n      iszero\n        /* \"Access/Roles.sol\":267:297  require(!has(role , account )) */\n      tag_172\n      jumpi\n      0x00\n      dup1\n      revert\n    tag_172:\n        /* \"Access/Roles.sol\":330:334  true */\n      0x01\n        /* \"Access/Roles.sol\":308:312  role */\n      dup3\n        /* \"Access/Roles.sol\":308:319  role.bearer */\n      0x00\n      add\n        /* \"Access/Roles.sol\":308:328  role.bearer[account] */\n      0x00\n        /* \"Access/Roles.sol\":320:327  account */\n      dup4\n        /* \"Access/Roles.sol\":308:328  role.bearer[account] */\n      0xffffffffffffffffffffffffffffffffffffffff\n      and\n      0xffffffffffffffffffffffffffffffffffffffff\n      and\n      dup2\n      mstore\n      0x20\n      add\n      swap1\n      dup2\n      mstore\n      0x20\n      add\n      0x00\n      keccak256\n      0x00\n        /* \"Access/Roles.sol\":308:334  role.bearer[account]= true */\n      0x0100\n      exp\n      dup2\n      sload\n      dup2\n      0xff\n      mul\n      not\n      and\n      swap1\n      dup4\n      iszero\n      iszero\n      mul\n      or\n      swap1\n      sstore\n      pop\n        /* \"Access/Roles.sol\":153:344  function add(Role storage role , address account) internal {... */\n      pop\n      pop\n      jump\t// out\n        /* \"Utils/Context.sol\":97:195  function _msgSender() internal view virtual returns (address) {... */\n    tag_77:\n        /* \"Utils/Context.sol\":150:157  address */\n      0x00\n        /* \"Utils/Context.sol\":177:187  msg.sender */\n      caller\n        /* \"Utils/Context.sol\":170:187  return msg.sender */\n      swap1\n      pop\n        /* \"Utils/Context.sol\":97:195  function _msgSender() internal view virtual returns (address) {... */\n      swap1\n      jump\t// out\n        /* \"Access/Wholesaler.sol\":1168:1311  function _removeWholesaler(address account ) internal {... */\n    tag_78:\n        /* \"Access/Wholesaler.sol\":1233:1260  wholesalers.remove(account) */\n      tag_175\n        /* \"Access/Wholesaler.sol\":1252:1259  account */\n      dup2\n        /* \"Access/Wholesaler.sol\":1233:1244  wholesalers */\n      0x02\n        /* \"Access/Wholesaler.sol\":1233:1251  wholesalers.remove */\n      tag_176\n      swap1\n        /* \"Access/Wholesaler.sol\":1233:1260  wholesalers.remove(account) */\n      swap2\n      swap1\n      0xffffffff\n      and\n      jump\t// in\n    tag_175:\n        /* \"Access/Wholesaler.sol\":1294:1301  account */\n      dup1\n        /* \"Access/Wholesaler.sol\":1276:1303  WholesalerRemoved(account ) */\n      0xffffffffffffffffffffffffffffffffffffffff\n      and\n      0x7f865f710a7604537eb2bc0334f082fa642d210a705398937f53663384485b28\n      mload(0x40)\n      mload(0x40)\n      dup1\n      swap2\n      sub\n      swap1\n      log2\n        /* \"Access/Wholesaler.sol\":1168:1311  function _removeWholesaler(address account ) internal {... */\n      pop\n      jump\t// out\n        /* \"Access/Consumer.sol\":993:1122  function _addConsumer  (address account ) internal{... */\n    tag_85:\n        /* \"Access/Consumer.sol\":1054:1076  consumers.add(account) */\n      tag_178\n        /* \"Access/Consumer.sol\":1068:1075  account */\n      dup2\n        /* \"Access/Consumer.sol\":1054:1063  consumers */\n      0x04\n        /* \"Access/Consumer.sol\":1054:1067  consumers.add */\n      tag_73\n      swap1\n        /* \"Access/Consumer.sol\":1054:1076  consumers.add(account) */\n      swap2\n      swap1\n      0xffffffff\n      and\n      jump\t// in\n    tag_178:\n        /* \"Access/Consumer.sol\":1106:1113  account */\n      dup1\n        /* \"Access/Consumer.sol\":1092:1114  ConsumerAdded(account) */\n      0xffffffffffffffffffffffffffffffffffffffff\n      and\n      0x28b26e7a3d20aedbc5f8f2ebf7da671c0491723a2b78f47a097b0e46dee07142\n      mload(0x40)\n      mload(0x40)\n      dup1\n      swap2\n      sub\n      swap1\n      log2\n        /* \"Access/Consumer.sol\":993:1122  function _addConsumer  (address account ) internal{... */\n      pop\n      jump\t// out\n        /* \"Access/Roles.sol\":552:724  function has(Role storage role , address account ) internal view returns (bool) {... */\n    tag_88:\n        /* \"Access/Roles.sol\":626:630  bool */\n      0x00\n        /* \"Access/Roles.sol\":671:672  0 */\n      dup1\n        /* \"Access/Roles.sol\":652:673  account != address(0) */\n      0xffffffffffffffffffffffffffffffffffffffff\n      and\n        /* \"Access/Roles.sol\":652:659  account */\n      dup3\n        /* \"Access/Roles.sol\":652:673  account != address(0) */\n      0xffffffffffffffffffffffffffffffffffffffff\n      and\n      sub\n        /* \"Access/Roles.sol\":644:674  require(account != address(0)) */\n      tag_180\n      jumpi\n      0x00\n      dup1\n      revert\n    tag_180:\n        /* \"Access/Roles.sol\":693:697  role */\n      dup3\n        /* \"Access/Roles.sol\":693:704  role.bearer */\n      0x00\n      add\n        /* \"Access/Roles.sol\":693:713  role.bearer[account] */\n      0x00\n        /* \"Access/Roles.sol\":705:712  account */\n      dup4\n        /* \"Access/Roles.sol\":693:713  role.bearer[account] */\n      0xffffffffffffffffffffffffffffffffffffffff\n      and\n      0xffffffffffffffffffffffffffffffffffffffff\n      and\n      dup2\n      mstore\n      0x20\n      add\n      swap1\n      dup2\n      mstore\n      0x20\n      add\n      0x00\n      keccak256\n      0x00\n      swap1\n      sload\n      swap1\n      0x0100\n      exp\n      swap1\n      div\n      0xff\n      and\n        /* \"Access/Roles.sol\":686:713  return role.bearer[account] */\n      swap1\n      pop\n        /* \"Access/Roles.sol\":552:724  function has(Role storage role , address account ) internal view returns (bool) {... */\n      swap3\n      swap2\n      pop\n      pop\n      jump\t// out\n        /* \"Access/Consumer.sol\":1134:1271  function _removeConsumer(address account ) internal {... */\n    tag_92:\n        /* \"Access/Consumer.sol\":1197:1222  consumers.remove(account) */\n      tag_182\n        /* \"Access/Consumer.sol\":1214:1221  account */\n      dup2\n        /* \"Access/Consumer.sol\":1197:1206  consumers */\n      0x04\n        /* \"Access/Consumer.sol\":1197:1213  consumers.remove */\n      tag_176\n      swap1\n        /* \"Access/Consumer.sol\":1197:1222  consumers.remove(account) */\n      swap2\n      swap1\n      0xffffffff\n      and\n      jump\t// in\n    tag_182:\n        /* \"Access/Consumer.sol\":1254:1261  account */\n      dup1\n        /* \"Access/Consumer.sol\":1238:1263  ConsumerRemoved(account ) */\n      0xffffffffffffffffffffffffffffffffffffffff\n      and\n      0xe3f5ed5f263f1f01764a96edfc7d025f511ec5f7d180e8816908b78bcf74f098\n      mload(0x40)\n      mload(0x40)\n      dup1\n      swap2\n      sub\n      swap1\n      log2\n        /* \"Access/Consumer.sol\":1134:1271  function _removeConsumer(address account ) internal {... */\n      pop\n      jump\t// out\n        /* \"Access/Distributor.sol\":1185:1331  function _removeDistributor(address account ) internal {... */\n    tag_96:\n        /* \"Access/Distributor.sol\":1251:1279  distributors.remove(account) */\n      tag_184\n        /* \"Access/Distributor.sol\":1271:1278  account */\n      dup2\n        /* \"Access/Distributor.sol\":1251:1263  distributors */\n      0x01\n        /* \"Access/Distributor.sol\":1251:1270  distributors.remove */\n      tag_176\n      swap1\n        /* \"Access/Distributor.sol\":1251:1279  distributors.remove(account) */\n      swap2\n      swap1\n      0xffffffff\n      and\n      jump\t// in\n    tag_184:\n        /* \"Access/Distributor.sol\":1314:1321  account */\n      dup1\n        /* \"Access/Distributor.sol\":1295:1323  DistributorRemoved(account ) */\n      0xffffffffffffffffffffffffffffffffffffffff\n      and\n      0x126174f6cf49c81cdb4a9214c6b8f037bef55b4ec31e4fc776cea2a1c8a88d59\n      mload(0x40)\n      mload(0x40)\n      dup1\n      swap2\n      sub\n      swap1\n      log2\n        /* \"Access/Distributor.sol\":1185:1331  function _removeDistributor(address account ) internal {... */\n      pop\n      jump\t// out\n        /* \"Access/Manufacturer.sol\":1048:1189  function _addManufacturer  (address account ) internal{... */\n    tag_133:\n        /* \"Access/Manufacturer.sol\":1113:1139  manufacturers.add(account) */\n      tag_186\n        /* \"Access/Manufacturer.sol\":1131:1138  account */\n      dup2\n        /* \"Access/Manufacturer.sol\":1113:1126  manufacturers */\n      0x00\n        /* \"Access/Manufacturer.sol\":1113:1130  manufacturers.add */\n      tag_73\n      swap1\n        /* \"Access/Manufacturer.sol\":1113:1139  manufacturers.add(account) */\n      swap2\n      swap1\n      0xffffffff\n      and\n      jump\t// in\n    tag_186:\n        /* \"Access/Manufacturer.sol\":1173:1180  account */\n      dup1\n        /* \"Access/Manufacturer.sol\":1155:1181  ManufacturerAdded(account) */\n      0xffffffffffffffffffffffffffffffffffffffff\n      and\n      0x561138658ca49a8540dc70dcfe64c9026c1c5b9344642242dd6562970f9c1278\n      mload(0x40)\n      mload(0x40)\n      dup1\n      swap2\n      sub\n      swap1\n      log2\n        /* \"Access/Manufacturer.sol\":1048:1189  function _addManufacturer  (address account ) internal{... */\n      pop\n      jump\t// out\n        /* \"Access/Distributor.sol\":1035:1173  function _addDistributor  (address account ) internal{... */\n    tag_142:\n        /* \"Access/Distributor.sol\":1099:1124  distributors.add(account) */\n      tag_188\n        /* \"Access/Distributor.sol\":1116:1123  account */\n      dup2\n        /* \"Access/Distributor.sol\":1099:1111  distributors */\n      0x01\n        /* \"Access/Distributor.sol\":1099:1115  distributors.add */\n      tag_73\n      swap1\n        /* \"Access/Distributor.sol\":1099:1124  distributors.add(account) */\n      swap2\n      swap1\n      0xffffffff\n      and\n      jump\t// in\n    tag_188:\n        /* \"Access/Distributor.sol\":1157:1164  account */\n      dup1\n        /* \"Access/Distributor.sol\":1140:1165  DistributorAdded(account) */\n      0xffffffffffffffffffffffffffffffffffffffff\n      and\n      0xddbf200aa634dc3fb81cfd68583dd1040d1c751d335e1d86b631bde3e977fea8\n      mload(0x40)\n      mload(0x40)\n      dup1\n      swap2\n      sub\n      swap1\n      log2\n        /* \"Access/Distributor.sol\":1035:1173  function _addDistributor  (address account ) internal{... */\n      pop\n      jump\t// out\n        /* \"Access/Manufacturer.sol\":1201:1350  function _removeManufacturer(address account ) internal {... */\n    tag_148:\n        /* \"Access/Manufacturer.sol\":1268:1297  manufacturers.remove(account) */\n      tag_190\n        /* \"Access/Manufacturer.sol\":1289:1296  account */\n      dup2\n        /* \"Access/Manufacturer.sol\":1268:1281  manufacturers */\n      0x00\n        /* \"Access/Manufacturer.sol\":1268:1288  manufacturers.remove */\n      tag_176\n      swap1\n        /* \"Access/Manufacturer.sol\":1268:1297  manufacturers.remove(account) */\n      swap2\n      swap1\n      0xffffffff\n      and\n      jump\t// in\n    tag_190:\n        /* \"Access/Manufacturer.sol\":1333:1340  account */\n      dup1\n        /* \"Access/Manufacturer.sol\":1313:1342  ManufacturerRemoved(account ) */\n      0xffffffffffffffffffffffffffffffffffffffff\n      and\n      0x2fed5abf6a80d6dfe30b4895481b2fc5d7dce5f8f7b931832f4a2947d5040c7f\n      mload(0x40)\n      mload(0x40)\n      dup1\n      swap2\n      sub\n      swap1\n      log2\n        /* \"Access/Manufacturer.sol\":1201:1350  function _removeManufacturer(address account ) internal {... */\n      pop\n      jump\t// out\n        /* \"Access/Retailer.sol\":993:1122  function _addRetailer  (address account ) internal{... */\n    tag_155:\n        /* \"Access/Retailer.sol\":1054:1076  retailers.add(account) */\n      tag_192\n        /* \"Access/Retailer.sol\":1068:1075  account */\n      dup2\n        /* \"Access/Retailer.sol\":1054:1063  retailers */\n      0x03\n        /* \"Access/Retailer.sol\":1054:1067  retailers.add */\n      tag_73\n      swap1\n        /* \"Access/Retailer.sol\":1054:1076  retailers.add(account) */\n      swap2\n      swap1\n      0xffffffff\n      and\n      jump\t// in\n    tag_192:\n        /* \"Access/Retailer.sol\":1106:1113  account */\n      dup1\n        /* \"Access/Retailer.sol\":1092:1114  RetailerAdded(account) */\n      0xffffffffffffffffffffffffffffffffffffffff\n      and\n      0x71ae26cad02663e3d92efd6ec56031a80d74a20c0ab4183faa8bf262261c9baa\n      mload(0x40)\n      mload(0x40)\n      dup1\n      swap2\n      sub\n      swap1\n      log2\n        /* \"Access/Retailer.sol\":993:1122  function _addRetailer  (address account ) internal{... */\n      pop\n      jump\t// out\n        /* \"Access/Wholesaler.sol\":1021:1156  function _addWholesaler  (address account ) internal{... */\n    tag_164:\n        /* \"Access/Wholesaler.sol\":1084:1108  wholesalers.add(account) */\n      tag_194\n        /* \"Access/Wholesaler.sol\":1100:1107  account */\n      dup2\n        /* \"Access/Wholesaler.sol\":1084:1095  wholesalers */\n      0x02\n        /* \"Access/Wholesaler.sol\":1084:1099  wholesalers.add */\n      tag_73\n      swap1\n        /* \"Access/Wholesaler.sol\":1084:1108  wholesalers.add(account) */\n      swap2\n      swap1\n      0xffffffff\n      and\n      jump\t// in\n    tag_194:\n        /* \"Access/Wholesaler.sol\":1140:1147  account */\n      dup1\n        /* \"Access/Wholesaler.sol\":1124:1148  WholesalerAdded(account) */\n      0xffffffffffffffffffffffffffffffffffffffff\n      and\n      0xd8a7ad7929975a375d2b12bf49040286b5b105df0fe351f10df6d85e5b7142f7\n      mload(0x40)\n      mload(0x40)\n      dup1\n      swap2\n      sub\n      swap1\n      log2\n        /* \"Access/Wholesaler.sol\":1021:1156  function _addWholesaler  (address account ) internal{... */\n      pop\n      jump\t// out\n        /* \"Access/Retailer.sol\":1134:1271  function _removeRetailer(address account ) internal {... */\n    tag_168:\n        /* \"Access/Retailer.sol\":1197:1222  retailers.remove(account) */\n      tag_196\n        /* \"Access/Retailer.sol\":1214:1221  account */\n      dup2\n        /* \"Access/Retailer.sol\":1197:1206  retailers */\n      0x03\n        /* \"Access/Retailer.sol\":1197:1213  retailers.remove */\n      tag_176\n      swap1\n        /* \"Access/Retailer.sol\":1197:1222  retailers.remove(account) */\n      swap2\n      swap1\n      0xffffffff\n      and\n      jump\t// in\n    tag_196:\n        /* \"Access/Retailer.sol\":1254:1261  account */\n      dup1\n        /* \"Access/Retailer.sol\":1238:1263  RetailerRemoved(account ) */\n      0xffffffffffffffffffffffffffffffffffffffff\n      and\n      0xdb7176e79cffef81cb01767dd0447a0b24bb72ca9778d4b245581086b2a7e6db\n      mload(0x40)\n      mload(0x40)\n      dup1\n      swap2\n      sub\n      swap1\n      log2\n        /* \"Access/Retailer.sol\":1134:1271  function _removeRetailer(address account ) internal {... */\n      pop\n      jump\t// out\n        /* \"Access/Roles.sol\":351:545  function remove(Role storage role , address account) internal {... */\n    tag_176:\n        /* \"Access/Roles.sol\":453:454  0 */\n      0x00\n        /* \"Access/Roles.sol\":434:455  account != address(0) */\n      0xffffffffffffffffffffffffffffffffffffffff\n      and\n        /* \"Access/Roles.sol\":434:441  account */\n      dup2\n        /* \"Access/Roles.sol\":434:455  account != address(0) */\n      0xffffffffffffffffffffffffffffffffffffffff\n      and\n      sub\n        /* \"Access/Roles.sol\":424:457  require( (account != address(0))) */\n      tag_198\n      jumpi\n      0x00\n      dup1\n      revert\n    tag_198:\n        /* \"Access/Roles.sol\":476:496  has(role , account ) */\n      tag_199\n        /* \"Access/Roles.sol\":480:484  role */\n      dup3\n        /* \"Access/Roles.sol\":487:494  account */\n      dup3\n        /* \"Access/Roles.sol\":476:479  has */\n      tag_88\n        /* \"Access/Roles.sol\":476:496  has(role , account ) */\n      jump\t// in\n    tag_199:\n        /* \"Access/Roles.sol\":468:497  require(has(role , account )) */\n      tag_200\n      jumpi\n      0x00\n      dup1\n      revert\n    tag_200:\n        /* \"Access/Roles.sol\":530:535  false */\n      0x00\n        /* \"Access/Roles.sol\":508:512  role */\n      dup3\n        /* \"Access/Roles.sol\":508:519  role.bearer */\n      0x00\n      add\n        /* \"Access/Roles.sol\":508:528  role.bearer[account] */\n      0x00\n        /* \"Access/Roles.sol\":520:527  account */\n      dup4\n        /* \"Access/Roles.sol\":508:528  role.bearer[account] */\n      0xffffffffffffffffffffffffffffffffffffffff\n      and\n      0xffffffffffffffffffffffffffffffffffffffff\n      and\n      dup2\n      mstore\n      0x20\n      add\n      swap1\n      dup2\n      mstore\n      0x20\n      add\n      0x00\n      keccak256\n      0x00\n        /* \"Access/Roles.sol\":508:535  role.bearer[account]= false */\n      0x0100\n      exp\n      dup2\n      sload\n      dup2\n      0xff\n      mul\n      not\n      and\n      swap1\n      dup4\n      iszero\n      iszero\n      mul\n      or\n      swap1\n      sstore\n      pop\n        /* \"Access/Roles.sol\":351:545  function remove(Role storage role , address account) internal {... */\n      pop\n      pop\n      jump\t// out\n    tag_103:\n      mload(0x40)\n      dup1\n      0x0240\n      add\n      0x40\n      mstore\n      dup1\n      0x00\n      dup2\n      mstore\n      0x20\n      add\n      0x00\n      dup2\n      mstore\n      0x20\n      add\n      and(0xffffffffffffffffffffffffffffffffffffffff, 0x00)\n      dup2\n      mstore\n      0x20\n      add\n      and(0xffffffffffffffffffffffffffffffffffffffff, 0x00)\n      dup2\n      mstore\n      0x20\n      add\n      0x60\n      dup2\n      mstore\n      0x20\n      add\n      0x60\n      dup2\n      mstore\n      0x20\n      add\n      0x00\n      dup2\n      mstore\n      0x20\n      add\n      0x00\n      dup2\n      mstore\n      0x20\n      add\n      0x00\n      dup2\n      mstore\n      0x20\n      add\n      0x00\n      0x0d\n      dup2\n      gt\n      iszero\n      tag_201\n      jumpi\n      tag_202\n      tag_108\n      jump\t// in\n    tag_202:\n    tag_201:\n      dup2\n      mstore\n      0x20\n      add\n      and(0xffffffffffffffffffffffffffffffffffffffff, 0x00)\n      dup2\n      mstore\n      0x20\n      add\n      0x60\n      dup2\n      mstore\n      0x20\n      add\n      and(0xffffffffffffffffffffffffffffffffffffffff, 0x00)\n      dup2\n      mstore\n      0x20\n      add\n      0x60\n      dup2\n      mstore\n      0x20\n      add\n      and(0xffffffffffffffffffffffffffffffffffffffff, 0x00)\n      dup2\n      mstore\n      0x20\n      add\n      0x60\n      dup2\n      mstore\n      0x20\n      add\n      and(0xffffffffffffffffffffffffffffffffffffffff, 0x00)\n      dup2\n      mstore\n      0x20\n      add\n      0x00\n      dup2\n      mstore\n      pop\n      swap1\n      jump\t// out\n    tag_120:\n      mload(0x40)\n      dup1\n      0x80\n      add\n      0x40\n      mstore\n      dup1\n      0x00\n      dup2\n      mstore\n      0x20\n      add\n      0x00\n      dup2\n      mstore\n      0x20\n      add\n      0x00\n      dup2\n      mstore\n      0x20\n      add\n      0x00\n      dup2\n      mstore\n      pop\n      swap1\n      jump\t// out\n        /* \"#utility.yul\":7:82   */\n    tag_203:\n        /* \"#utility.yul\":40:46   */\n      0x00\n        /* \"#utility.yul\":73:75   */\n      0x40\n        /* \"#utility.yul\":67:76   */\n      mload\n        /* \"#utility.yul\":57:76   */\n      swap1\n      pop\n        /* \"#utility.yul\":7:82   */\n      swap1\n      jump\t// out\n        /* \"#utility.yul\":88:205   */\n    tag_204:\n        /* \"#utility.yul\":197:198   */\n      0x00\n        /* \"#utility.yul\":194:195   */\n      dup1\n        /* \"#utility.yul\":187:199   */\n      revert\n        /* \"#utility.yul\":211:328   */\n    tag_205:\n        /* \"#utility.yul\":320:321   */\n      0x00\n        /* \"#utility.yul\":317:318   */\n      dup1\n        /* \"#utility.yul\":310:322   */\n      revert\n        /* \"#utility.yul\":334:460   */\n    tag_206:\n        /* \"#utility.yul\":371:378   */\n      0x00\n        /* \"#utility.yul\":411:453   */\n      0xffffffffffffffffffffffffffffffffffffffff\n        /* \"#utility.yul\":404:409   */\n      dup3\n        /* \"#utility.yul\":400:454   */\n      and\n        /* \"#utility.yul\":389:454   */\n      swap1\n      pop\n        /* \"#utility.yul\":334:460   */\n      swap2\n      swap1\n      pop\n      jump\t// out\n        /* \"#utility.yul\":466:562   */\n    tag_207:\n        /* \"#utility.yul\":503:510   */\n      0x00\n        /* \"#utility.yul\":532:556   */\n      tag_251\n        /* \"#utility.yul\":550:555   */\n      dup3\n        /* \"#utility.yul\":532:556   */\n      tag_206\n      jump\t// in\n    tag_251:\n        /* \"#utility.yul\":521:556   */\n      swap1\n      pop\n        /* \"#utility.yul\":466:562   */\n      swap2\n      swap1\n      pop\n      jump\t// out\n        /* \"#utility.yul\":568:690   */\n    tag_208:\n        /* \"#utility.yul\":641:665   */\n      tag_253\n        /* \"#utility.yul\":659:664   */\n      dup2\n        /* \"#utility.yul\":641:665   */\n      tag_207\n      jump\t// in\n    tag_253:\n        /* \"#utility.yul\":634:639   */\n      dup2\n        /* \"#utility.yul\":631:666   */\n      eq\n        /* \"#utility.yul\":621:684   */\n      tag_254\n      jumpi\n        /* \"#utility.yul\":680:681   */\n      0x00\n        /* \"#utility.yul\":677:678   */\n      dup1\n        /* \"#utility.yul\":670:682   */\n      revert\n        /* \"#utility.yul\":621:684   */\n    tag_254:\n        /* \"#utility.yul\":568:690   */\n      pop\n      jump\t// out\n        /* \"#utility.yul\":696:835   */\n    tag_209:\n        /* \"#utility.yul\":742:747   */\n      0x00\n        /* \"#utility.yul\":780:786   */\n      dup2\n        /* \"#utility.yul\":767:787   */\n      calldataload\n        /* \"#utility.yul\":758:787   */\n      swap1\n      pop\n        /* \"#utility.yul\":796:829   */\n      tag_256\n        /* \"#utility.yul\":823:828   */\n      dup2\n        /* \"#utility.yul\":796:829   */\n      tag_208\n      jump\t// in\n    tag_256:\n        /* \"#utility.yul\":696:835   */\n      swap3\n      swap2\n      pop\n      pop\n      jump\t// out\n        /* \"#utility.yul\":841:1170   */\n    tag_26:\n        /* \"#utility.yul\":900:906   */\n      0x00\n        /* \"#utility.yul\":949:951   */\n      0x20\n        /* \"#utility.yul\":937:946   */\n      dup3\n        /* \"#utility.yul\":928:935   */\n      dup5\n        /* \"#utility.yul\":924:947   */\n      sub\n        /* \"#utility.yul\":920:952   */\n      slt\n        /* \"#utility.yul\":917:1036   */\n      iszero\n      tag_258\n      jumpi\n        /* \"#utility.yul\":955:1034   */\n      tag_259\n      tag_204\n      jump\t// in\n    tag_259:\n        /* \"#utility.yul\":917:1036   */\n    tag_258:\n        /* \"#utility.yul\":1075:1076   */\n      0x00\n        /* \"#utility.yul\":1100:1153   */\n      tag_260\n        /* \"#utility.yul\":1145:1152   */\n      dup5\n        /* \"#utility.yul\":1136:1142   */\n      dup3\n        /* \"#utility.yul\":1125:1134   */\n      dup6\n        /* \"#utility.yul\":1121:1143   */\n      add\n        /* \"#utility.yul\":1100:1153   */\n      tag_209\n      jump\t// in\n    tag_260:\n        /* \"#utility.yul\":1090:1153   */\n      swap2\n      pop\n        /* \"#utility.yul\":1046:1163   */\n      pop\n        /* \"#utility.yul\":841:1170   */\n      swap3\n      swap2\n      pop\n      pop\n      jump\t// out\n        /* \"#utility.yul\":1176:1266   */\n    tag_210:\n        /* \"#utility.yul\":1210:1217   */\n      0x00\n        /* \"#utility.yul\":1253:1258   */\n      dup2\n        /* \"#utility.yul\":1246:1259   */\n      iszero\n        /* \"#utility.yul\":1239:1260   */\n      iszero\n        /* \"#utility.yul\":1228:1260   */\n      swap1\n      pop\n        /* \"#utility.yul\":1176:1266   */\n      swap2\n      swap1\n      pop\n      jump\t// out\n        /* \"#utility.yul\":1272:1381   */\n    tag_211:\n        /* \"#utility.yul\":1353:1374   */\n      tag_263\n        /* \"#utility.yul\":1368:1373   */\n      dup2\n        /* \"#utility.yul\":1353:1374   */\n      tag_210\n      jump\t// in\n    tag_263:\n        /* \"#utility.yul\":1348:1351   */\n      dup3\n        /* \"#utility.yul\":1341:1375   */\n      mstore\n        /* \"#utility.yul\":1272:1381   */\n      pop\n      pop\n      jump\t// out\n        /* \"#utility.yul\":1387:1597   */\n    tag_32:\n        /* \"#utility.yul\":1474:1478   */\n      0x00\n        /* \"#utility.yul\":1512:1514   */\n      0x20\n        /* \"#utility.yul\":1501:1510   */\n      dup3\n        /* \"#utility.yul\":1497:1515   */\n      add\n        /* \"#utility.yul\":1489:1515   */\n      swap1\n      pop\n        /* \"#utility.yul\":1525:1590   */\n      tag_265\n        /* \"#utility.yul\":1587:1588   */\n      0x00\n        /* \"#utility.yul\":1576:1585   */\n      dup4\n        /* \"#utility.yul\":1572:1589   */\n      add\n        /* \"#utility.yul\":1563:1569   */\n      dup5\n        /* \"#utility.yul\":1525:1590   */\n      tag_211\n      jump\t// in\n    tag_265:\n        /* \"#utility.yul\":1387:1597   */\n      swap3\n      swap2\n      pop\n      pop\n      jump\t// out\n        /* \"#utility.yul\":1603:1680   */\n    tag_212:\n        /* \"#utility.yul\":1640:1647   */\n      0x00\n        /* \"#utility.yul\":1669:1674   */\n      dup2\n        /* \"#utility.yul\":1658:1674   */\n      swap1\n      pop\n        /* \"#utility.yul\":1603:1680   */\n      swap2\n      swap1\n      pop\n      jump\t// out\n        /* \"#utility.yul\":1686:1808   */\n    tag_213:\n        /* \"#utility.yul\":1759:1783   */\n      tag_268\n        /* \"#utility.yul\":1777:1782   */\n      dup2\n        /* \"#utility.yul\":1759:1783   */\n      tag_212\n      jump\t// in\n    tag_268:\n        /* \"#utility.yul\":1752:1757   */\n      dup2\n        /* \"#utility.yul\":1749:1784   */\n      eq\n        /* \"#utility.yul\":1739:1802   */\n      tag_269\n      jumpi\n        /* \"#utility.yul\":1798:1799   */\n      0x00\n        /* \"#utility.yul\":1795:1796   */\n      dup1\n        /* \"#utility.yul\":1788:1800   */\n      revert\n        /* \"#utility.yul\":1739:1802   */\n    tag_269:\n        /* \"#utility.yul\":1686:1808   */\n      pop\n      jump\t// out\n        /* \"#utility.yul\":1814:1953   */\n    tag_214:\n        /* \"#utility.yul\":1860:1865   */\n      0x00\n        /* \"#utility.yul\":1898:1904   */\n      dup2\n        /* \"#utility.yul\":1885:1905   */\n      calldataload\n        /* \"#utility.yul\":1876:1905   */\n      swap1\n      pop\n        /* \"#utility.yul\":1914:1947   */\n      tag_271\n        /* \"#utility.yul\":1941:1946   */\n      dup2\n        /* \"#utility.yul\":1914:1947   */\n      tag_213\n      jump\t// in\n    tag_271:\n        /* \"#utility.yul\":1814:1953   */\n      swap3\n      swap2\n      pop\n      pop\n      jump\t// out\n        /* \"#utility.yul\":1959:2076   */\n    tag_215:\n        /* \"#utility.yul\":2068:2069   */\n      0x00\n        /* \"#utility.yul\":2065:2066   */\n      dup1\n        /* \"#utility.yul\":2058:2070   */\n      revert\n        /* \"#utility.yul\":2082:2199   */\n    tag_216:\n        /* \"#utility.yul\":2191:2192   */\n      0x00\n        /* \"#utility.yul\":2188:2189   */\n      dup1\n        /* \"#utility.yul\":2181:2193   */\n      revert\n        /* \"#utility.yul\":2205:2307   */\n    tag_217:\n        /* \"#utility.yul\":2246:2252   */\n      0x00\n        /* \"#utility.yul\":2297:2299   */\n      0x1f\n        /* \"#utility.yul\":2293:2300   */\n      not\n        /* \"#utility.yul\":2288:2290   */\n      0x1f\n        /* \"#utility.yul\":2281:2286   */\n      dup4\n        /* \"#utility.yul\":2277:2291   */\n      add\n        /* \"#utility.yul\":2273:2301   */\n      and\n        /* \"#utility.yul\":2263:2301   */\n      swap1\n      pop\n        /* \"#utility.yul\":2205:2307   */\n      swap2\n      swap1\n      pop\n      jump\t// out\n        /* \"#utility.yul\":2313:2493   */\n    tag_218:\n        /* \"#utility.yul\":2361:2438   */\n      0x4e487b7100000000000000000000000000000000000000000000000000000000\n        /* \"#utility.yul\":2358:2359   */\n      0x00\n        /* \"#utility.yul\":2351:2439   */\n      mstore\n        /* \"#utility.yul\":2458:2462   */\n      0x41\n        /* \"#utility.yul\":2455:2456   */\n      0x04\n        /* \"#utility.yul\":2448:2463   */\n      mstore\n        /* \"#utility.yul\":2482:2486   */\n      0x24\n        /* \"#utility.yul\":2479:2480   */\n      0x00\n        /* \"#utility.yul\":2472:2487   */\n      revert\n        /* \"#utility.yul\":2499:2780   */\n    tag_219:\n        /* \"#utility.yul\":2582:2609   */\n      tag_277\n        /* \"#utility.yul\":2604:2608   */\n      dup3\n        /* \"#utility.yul\":2582:2609   */\n      tag_217\n      jump\t// in\n    tag_277:\n        /* \"#utility.yul\":2574:2580   */\n      dup2\n        /* \"#utility.yul\":2570:2610   */\n      add\n        /* \"#utility.yul\":2712:2718   */\n      dup2\n        /* \"#utility.yul\":2700:2710   */\n      dup2\n        /* \"#utility.yul\":2697:2719   */\n      lt\n        /* \"#utility.yul\":2676:2694   */\n      0xffffffffffffffff\n        /* \"#utility.yul\":2664:2674   */\n      dup3\n        /* \"#utility.yul\":2661:2695   */\n      gt\n        /* \"#utility.yul\":2658:2720   */\n      or\n        /* \"#utility.yul\":2655:2743   */\n      iszero\n      tag_278\n      jumpi\n        /* \"#utility.yul\":2723:2741   */\n      tag_279\n      tag_218\n      jump\t// in\n    tag_279:\n        /* \"#utility.yul\":2655:2743   */\n    tag_278:\n        /* \"#utility.yul\":2763:2773   */\n      dup1\n        /* \"#utility.yul\":2759:2761   */\n      0x40\n        /* \"#utility.yul\":2752:2774   */\n      mstore\n        /* \"#utility.yul\":2542:2780   */\n      pop\n        /* \"#utility.yul\":2499:2780   */\n      pop\n      pop\n      jump\t// out\n        /* \"#utility.yul\":2786:2915   */\n    tag_220:\n        /* \"#utility.yul\":2820:2826   */\n      0x00\n        /* \"#utility.yul\":2847:2867   */\n      tag_281\n      tag_203\n      jump\t// in\n    tag_281:\n        /* \"#utility.yul\":2837:2867   */\n      swap1\n      pop\n        /* \"#utility.yul\":2876:2909   */\n      tag_282\n        /* \"#utility.yul\":2904:2908   */\n      dup3\n        /* \"#utility.yul\":2896:2902   */\n      dup3\n        /* \"#utility.yul\":2876:2909   */\n      tag_219\n      jump\t// in\n    tag_282:\n        /* \"#utility.yul\":2786:2915   */\n      swap2\n      swap1\n      pop\n      jump\t// out\n        /* \"#utility.yul\":2921:3229   */\n    tag_221:\n        /* \"#utility.yul\":2983:2987   */\n      0x00\n        /* \"#utility.yul\":3073:3091   */\n      0xffffffffffffffff\n        /* \"#utility.yul\":3065:3071   */\n      dup3\n        /* \"#utility.yul\":3062:3092   */\n      gt\n        /* \"#utility.yul\":3059:3115   */\n      iszero\n      tag_284\n      jumpi\n        /* \"#utility.yul\":3095:3113   */\n      tag_285\n      tag_218\n      jump\t// in\n    tag_285:\n        /* \"#utility.yul\":3059:3115   */\n    tag_284:\n        /* \"#utility.yul\":3133:3162   */\n      tag_286\n        /* \"#utility.yul\":3155:3161   */\n      dup3\n        /* \"#utility.yul\":3133:3162   */\n      tag_217\n      jump\t// in\n    tag_286:\n        /* \"#utility.yul\":3125:3162   */\n      swap1\n      pop\n        /* \"#utility.yul\":3217:3221   */\n      0x20\n        /* \"#utility.yul\":3211:3215   */\n      dup2\n        /* \"#utility.yul\":3207:3222   */\n      add\n        /* \"#utility.yul\":3199:3222   */\n      swap1\n      pop\n        /* \"#utility.yul\":2921:3229   */\n      swap2\n      swap1\n      pop\n      jump\t// out\n        /* \"#utility.yul\":3235:3381   */\n    tag_222:\n        /* \"#utility.yul\":3332:3338   */\n      dup3\n        /* \"#utility.yul\":3327:3330   */\n      dup2\n        /* \"#utility.yul\":3322:3325   */\n      dup4\n        /* \"#utility.yul\":3309:3339   */\n      calldatacopy\n        /* \"#utility.yul\":3373:3374   */\n      0x00\n        /* \"#utility.yul\":3364:3370   */\n      dup4\n        /* \"#utility.yul\":3359:3362   */\n      dup4\n        /* \"#utility.yul\":3355:3371   */\n      add\n        /* \"#utility.yul\":3348:3375   */\n      mstore\n        /* \"#utility.yul\":3235:3381   */\n      pop\n      pop\n      pop\n      jump\t// out\n        /* \"#utility.yul\":3387:3812   */\n    tag_223:\n        /* \"#utility.yul\":3465:3470   */\n      0x00\n        /* \"#utility.yul\":3490:3556   */\n      tag_289\n        /* \"#utility.yul\":3506:3555   */\n      tag_290\n        /* \"#utility.yul\":3548:3554   */\n      dup5\n        /* \"#utility.yul\":3506:3555   */\n      tag_221\n      jump\t// in\n    tag_290:\n        /* \"#utility.yul\":3490:3556   */\n      tag_220\n      jump\t// in\n    tag_289:\n        /* \"#utility.yul\":3481:3556   */\n      swap1\n      pop\n        /* \"#utility.yul\":3579:3585   */\n      dup3\n        /* \"#utility.yul\":3572:3577   */\n      dup2\n        /* \"#utility.yul\":3565:3586   */\n      mstore\n        /* \"#utility.yul\":3617:3621   */\n      0x20\n        /* \"#utility.yul\":3610:3615   */\n      dup2\n        /* \"#utility.yul\":3606:3622   */\n      add\n        /* \"#utility.yul\":3655:3658   */\n      dup5\n        /* \"#utility.yul\":3646:3652   */\n      dup5\n        /* \"#utility.yul\":3641:3644   */\n      dup5\n        /* \"#utility.yul\":3637:3653   */\n      add\n        /* \"#utility.yul\":3634:3659   */\n      gt\n        /* \"#utility.yul\":3631:3743   */\n      iszero\n      tag_291\n      jumpi\n        /* \"#utility.yul\":3662:3741   */\n      tag_292\n      tag_216\n      jump\t// in\n    tag_292:\n        /* \"#utility.yul\":3631:3743   */\n    tag_291:\n        /* \"#utility.yul\":3752:3806   */\n      tag_293\n        /* \"#utility.yul\":3799:3805   */\n      dup5\n        /* \"#utility.yul\":3794:3797   */\n      dup3\n        /* \"#utility.yul\":3789:3792   */\n      dup6\n        /* \"#utility.yul\":3752:3806   */\n      tag_222\n      jump\t// in\n    tag_293:\n        /* \"#utility.yul\":3471:3812   */\n      pop\n        /* \"#utility.yul\":3387:3812   */\n      swap4\n      swap3\n      pop\n      pop\n      pop\n      jump\t// out\n        /* \"#utility.yul\":3832:4172   */\n    tag_224:\n        /* \"#utility.yul\":3888:3893   */\n      0x00\n        /* \"#utility.yul\":3937:3940   */\n      dup3\n        /* \"#utility.yul\":3930:3934   */\n      0x1f\n        /* \"#utility.yul\":3922:3928   */\n      dup4\n        /* \"#utility.yul\":3918:3935   */\n      add\n        /* \"#utility.yul\":3914:3941   */\n      slt\n        /* \"#utility.yul\":3904:4026   */\n      tag_295\n      jumpi\n        /* \"#utility.yul\":3945:4024   */\n      tag_296\n      tag_215\n      jump\t// in\n    tag_296:\n        /* \"#utility.yul\":3904:4026   */\n    tag_295:\n        /* \"#utility.yul\":4062:4068   */\n      dup2\n        /* \"#utility.yul\":4049:4069   */\n      calldataload\n        /* \"#utility.yul\":4087:4166   */\n      tag_297\n        /* \"#utility.yul\":4162:4165   */\n      dup5\n        /* \"#utility.yul\":4154:4160   */\n      dup3\n        /* \"#utility.yul\":4147:4151   */\n      0x20\n        /* \"#utility.yul\":4139:4145   */\n      dup7\n        /* \"#utility.yul\":4135:4152   */\n      add\n        /* \"#utility.yul\":4087:4166   */\n      tag_223\n      jump\t// in\n    tag_297:\n        /* \"#utility.yul\":4078:4166   */\n      swap2\n      pop\n        /* \"#utility.yul\":3894:4172   */\n      pop\n        /* \"#utility.yul\":3832:4172   */\n      swap3\n      swap2\n      pop\n      pop\n      jump\t// out\n        /* \"#utility.yul\":4178:5303   */\n    tag_39:\n        /* \"#utility.yul\":4284:4290   */\n      0x00\n        /* \"#utility.yul\":4292:4298   */\n      dup1\n        /* \"#utility.yul\":4300:4306   */\n      0x00\n        /* \"#utility.yul\":4308:4314   */\n      dup1\n        /* \"#utility.yul\":4357:4360   */\n      0x80\n        /* \"#utility.yul\":4345:4354   */\n      dup6\n        /* \"#utility.yul\":4336:4343   */\n      dup8\n        /* \"#utility.yul\":4332:4355   */\n      sub\n        /* \"#utility.yul\":4328:4361   */\n      slt\n        /* \"#utility.yul\":4325:4445   */\n      iszero\n      tag_299\n      jumpi\n        /* \"#utility.yul\":4364:4443   */\n      tag_300\n      tag_204\n      jump\t// in\n    tag_300:\n        /* \"#utility.yul\":4325:4445   */\n    tag_299:\n        /* \"#utility.yul\":4484:4485   */\n      0x00\n        /* \"#utility.yul\":4509:4562   */\n      tag_301\n        /* \"#utility.yul\":4554:4561   */\n      dup8\n        /* \"#utility.yul\":4545:4551   */\n      dup3\n        /* \"#utility.yul\":4534:4543   */\n      dup9\n        /* \"#utility.yul\":4530:4552   */\n      add\n        /* \"#utility.yul\":4509:4562   */\n      tag_214\n      jump\t// in\n    tag_301:\n        /* \"#utility.yul\":4499:4562   */\n      swap5\n      pop\n        /* \"#utility.yul\":4455:4572   */\n      pop\n        /* \"#utility.yul\":4639:4641   */\n      0x20\n        /* \"#utility.yul\":4628:4637   */\n      dup6\n        /* \"#utility.yul\":4624:4642   */\n      add\n        /* \"#utility.yul\":4611:4643   */\n      calldataload\n        /* \"#utility.yul\":4670:4688   */\n      0xffffffffffffffff\n        /* \"#utility.yul\":4662:4668   */\n      dup2\n        /* \"#utility.yul\":4659:4689   */\n      gt\n        /* \"#utility.yul\":4656:4773   */\n      iszero\n      tag_302\n      jumpi\n        /* \"#utility.yul\":4692:4771   */\n      tag_303\n      tag_205\n      jump\t// in\n    tag_303:\n        /* \"#utility.yul\":4656:4773   */\n    tag_302:\n        /* \"#utility.yul\":4797:4860   */\n      tag_304\n        /* \"#utility.yul\":4852:4859   */\n      dup8\n        /* \"#utility.yul\":4843:4849   */\n      dup3\n        /* \"#utility.yul\":4832:4841   */\n      dup9\n        /* \"#utility.yul\":4828:4850   */\n      add\n        /* \"#utility.yul\":4797:4860   */\n      tag_224\n      jump\t// in\n    tag_304:\n        /* \"#utility.yul\":4787:4860   */\n      swap4\n      pop\n        /* \"#utility.yul\":4582:4870   */\n      pop\n        /* \"#utility.yul\":4937:4939   */\n      0x40\n        /* \"#utility.yul\":4926:4935   */\n      dup6\n        /* \"#utility.yul\":4922:4940   */\n      add\n        /* \"#utility.yul\":4909:4941   */\n      calldataload\n        /* \"#utility.yul\":4968:4986   */\n      0xffffffffffffffff\n        /* \"#utility.yul\":4960:4966   */\n      dup2\n        /* \"#utility.yul\":4957:4987   */\n      gt\n        /* \"#utility.yul\":4954:5071   */\n      iszero\n      tag_305\n      jumpi\n        /* \"#utility.yul\":4990:5069   */\n      tag_306\n      tag_205\n      jump\t// in\n    tag_306:\n        /* \"#utility.yul\":4954:5071   */\n    tag_305:\n        /* \"#utility.yul\":5095:5158   */\n      tag_307\n        /* \"#utility.yul\":5150:5157   */\n      dup8\n        /* \"#utility.yul\":5141:5147   */\n      dup3\n        /* \"#utility.yul\":5130:5139   */\n      dup9\n        /* \"#utility.yul\":5126:5148   */\n      add\n        /* \"#utility.yul\":5095:5158   */\n      tag_224\n      jump\t// in\n    tag_307:\n        /* \"#utility.yul\":5085:5158   */\n      swap3\n      pop\n        /* \"#utility.yul\":4880:5168   */\n      pop\n        /* \"#utility.yul\":5207:5209   */\n      0x60\n        /* \"#utility.yul\":5233:5286   */\n      tag_308\n        /* \"#utility.yul\":5278:5285   */\n      dup8\n        /* \"#utility.yul\":5269:5275   */\n      dup3\n        /* \"#utility.yul\":5258:5267   */\n      dup9\n        /* \"#utility.yul\":5254:5276   */\n      add\n        /* \"#utility.yul\":5233:5286   */\n      tag_214\n      jump\t// in\n    tag_308:\n        /* \"#utility.yul\":5223:5286   */\n      swap2\n      pop\n        /* \"#utility.yul\":5178:5296   */\n      pop\n        /* \"#utility.yul\":4178:5303   */\n      swap3\n      swap6\n      swap2\n      swap5\n      pop\n      swap3\n      pop\n      jump\t// out\n        /* \"#utility.yul\":5309:5489   */\n    tag_108:\n        /* \"#utility.yul\":5357:5434   */\n      0x4e487b7100000000000000000000000000000000000000000000000000000000\n        /* \"#utility.yul\":5354:5355   */\n      0x00\n        /* \"#utility.yul\":5347:5435   */\n      mstore\n        /* \"#utility.yul\":5454:5458   */\n      0x21\n        /* \"#utility.yul\":5451:5452   */\n      0x04\n        /* \"#utility.yul\":5444:5459   */\n      mstore\n        /* \"#utility.yul\":5478:5482   */\n      0x24\n        /* \"#utility.yul\":5475:5476   */\n      0x00\n        /* \"#utility.yul\":5468:5483   */\n      revert\n        /* \"#utility.yul\":5495:5594   */\n    tag_225:\n        /* \"#utility.yul\":5547:5553   */\n      0x00\n        /* \"#utility.yul\":5581:5586   */\n      dup2\n        /* \"#utility.yul\":5575:5587   */\n      mload\n        /* \"#utility.yul\":5565:5587   */\n      swap1\n      pop\n        /* \"#utility.yul\":5495:5594   */\n      swap2\n      swap1\n      pop\n      jump\t// out\n        /* \"#utility.yul\":5600:5780   */\n    tag_226:\n        /* \"#utility.yul\":5648:5725   */\n      0x4e487b7100000000000000000000000000000000000000000000000000000000\n        /* \"#utility.yul\":5645:5646   */\n      0x00\n        /* \"#utility.yul\":5638:5726   */\n      mstore\n        /* \"#utility.yul\":5745:5749   */\n      0x22\n        /* \"#utility.yul\":5742:5743   */\n      0x04\n        /* \"#utility.yul\":5735:5750   */\n      mstore\n        /* \"#utility.yul\":5769:5773   */\n      0x24\n        /* \"#utility.yul\":5766:5767   */\n      0x00\n        /* \"#utility.yul\":5759:5774   */\n      revert\n        /* \"#utility.yul\":5786:6106   */\n    tag_227:\n        /* \"#utility.yul\":5830:5836   */\n      0x00\n        /* \"#utility.yul\":5867:5868   */\n      0x02\n        /* \"#utility.yul\":5861:5865   */\n      dup3\n        /* \"#utility.yul\":5857:5869   */\n      div\n        /* \"#utility.yul\":5847:5869   */\n      swap1\n      pop\n        /* \"#utility.yul\":5914:5915   */\n      0x01\n        /* \"#utility.yul\":5908:5912   */\n      dup3\n        /* \"#utility.yul\":5904:5916   */\n      and\n        /* \"#utility.yul\":5935:5953   */\n      dup1\n        /* \"#utility.yul\":5925:6006   */\n      tag_313\n      jumpi\n        /* \"#utility.yul\":5991:5995   */\n      0x7f\n        /* \"#utility.yul\":5983:5989   */\n      dup3\n        /* \"#utility.yul\":5979:5996   */\n      and\n        /* \"#utility.yul\":5969:5996   */\n      swap2\n      pop\n        /* \"#utility.yul\":5925:6006   */\n    tag_313:\n        /* \"#utility.yul\":6053:6055   */\n      0x20\n        /* \"#utility.yul\":6045:6051   */\n      dup3\n        /* \"#utility.yul\":6042:6056   */\n      lt\n        /* \"#utility.yul\":6022:6040   */\n      dup2\n        /* \"#utility.yul\":6019:6057   */\n      sub\n        /* \"#utility.yul\":6016:6100   */\n      tag_314\n      jumpi\n        /* \"#utility.yul\":6072:6090   */\n      tag_315\n      tag_226\n      jump\t// in\n    tag_315:\n        /* \"#utility.yul\":6016:6100   */\n    tag_314:\n        /* \"#utility.yul\":5837:6106   */\n      pop\n        /* \"#utility.yul\":5786:6106   */\n      swap2\n      swap1\n      pop\n      jump\t// out\n        /* \"#utility.yul\":6112:6253   */\n    tag_228:\n        /* \"#utility.yul\":6161:6165   */\n      0x00\n        /* \"#utility.yul\":6184:6187   */\n      dup2\n        /* \"#utility.yul\":6176:6187   */\n      swap1\n      pop\n        /* \"#utility.yul\":6207:6210   */\n      dup2\n        /* \"#utility.yul\":6204:6205   */\n      0x00\n        /* \"#utility.yul\":6197:6211   */\n      mstore\n        /* \"#utility.yul\":6241:6245   */\n      0x20\n        /* \"#utility.yul\":6238:6239   */\n      0x00\n        /* \"#utility.yul\":6228:6246   */\n      keccak256\n        /* \"#utility.yul\":6220:6246   */\n      swap1\n      pop\n        /* \"#utility.yul\":6112:6253   */\n      swap2\n      swap1\n      pop\n      jump\t// out\n        /* \"#utility.yul\":6259:6352   */\n    tag_229:\n        /* \"#utility.yul\":6296:6302   */\n      0x00\n        /* \"#utility.yul\":6343:6345   */\n      0x20\n        /* \"#utility.yul\":6338:6340   */\n      0x1f\n        /* \"#utility.yul\":6331:6336   */\n      dup4\n        /* \"#utility.yul\":6327:6341   */\n      add\n        /* \"#utility.yul\":6323:6346   */\n      div\n        /* \"#utility.yul\":6313:6346   */\n      swap1\n      pop\n        /* \"#utility.yul\":6259:6352   */\n      swap2\n      swap1\n      pop\n      jump\t// out\n        /* \"#utility.yul\":6358:6465   */\n    tag_230:\n        /* \"#utility.yul\":6402:6410   */\n      0x00\n        /* \"#utility.yul\":6452:6457   */\n      dup3\n        /* \"#utility.yul\":6446:6450   */\n      dup3\n        /* \"#utility.yul\":6442:6458   */\n      shl\n        /* \"#utility.yul\":6421:6458   */\n      swap1\n      pop\n        /* \"#utility.yul\":6358:6465   */\n      swap3\n      swap2\n      pop\n      pop\n      jump\t// out\n        /* \"#utility.yul\":6471:6864   */\n    tag_231:\n        /* \"#utility.yul\":6540:6546   */\n      0x00\n        /* \"#utility.yul\":6590:6591   */\n      0x08\n        /* \"#utility.yul\":6578:6588   */\n      dup4\n        /* \"#utility.yul\":6574:6592   */\n      mul\n        /* \"#utility.yul\":6613:6710   */\n      tag_320\n        /* \"#utility.yul\":6643:6709   */\n      0xffffffffffffffffffffffffffffffffffffffffffffffffffffffffffffffff\n        /* \"#utility.yul\":6632:6641   */\n      dup3\n        /* \"#utility.yul\":6613:6710   */\n      tag_230\n      jump\t// in\n    tag_320:\n        /* \"#utility.yul\":6731:6770   */\n      tag_321\n        /* \"#utility.yul\":6761:6769   */\n      dup7\n        /* \"#utility.yul\":6750:6759   */\n      dup4\n        /* \"#utility.yul\":6731:6770   */\n      tag_230\n      jump\t// in\n    tag_321:\n        /* \"#utility.yul\":6719:6770   */\n      swap6\n      pop\n        /* \"#utility.yul\":6803:6807   */\n      dup1\n        /* \"#utility.yul\":6799:6808   */\n      not\n        /* \"#utility.yul\":6792:6797   */\n      dup5\n        /* \"#utility.yul\":6788:6809   */\n      and\n        /* \"#utility.yul\":6779:6809   */\n      swap4\n      pop\n        /* \"#utility.yul\":6852:6856   */\n      dup1\n        /* \"#utility.yul\":6842:6850   */\n      dup7\n        /* \"#utility.yul\":6838:6857   */\n      and\n        /* \"#utility.yul\":6831:6836   */\n      dup5\n        /* \"#utility.yul\":6828:6858   */\n      or\n        /* \"#utility.yul\":6818:6858   */\n      swap3\n      pop\n        /* \"#utility.yul\":6547:6864   */\n      pop\n      pop\n        /* \"#utility.yul\":6471:6864   */\n      swap4\n      swap3\n      pop\n      pop\n      pop\n      jump\t// out\n        /* \"#utility.yul\":6870:6930   */\n    tag_232:\n        /* \"#utility.yul\":6898:6901   */\n      0x00\n        /* \"#utility.yul\":6919:6924   */\n      dup2\n        /* \"#utility.yul\":6912:6924   */\n      swap1\n      pop\n        /* \"#utility.yul\":6870:6930   */\n      swap2\n      swap1\n      pop\n      jump\t// out\n        /* \"#utility.yul\":6936:7078   */\n    tag_233:\n        /* \"#utility.yul\":6986:6995   */\n      0x00\n        /* \"#utility.yul\":7019:7072   */\n      tag_324\n        /* \"#utility.yul\":7037:7071   */\n      tag_325\n        /* \"#utility.yul\":7046:7070   */\n      tag_326\n        /* \"#utility.yul\":7064:7069   */\n      dup5\n        /* \"#utility.yul\":7046:7070   */\n      tag_212\n      jump\t// in\n    tag_326:\n        /* \"#utility.yul\":7037:7071   */\n      tag_232\n      jump\t// in\n    tag_325:\n        /* \"#utility.yul\":7019:7072   */\n      tag_212\n      jump\t// in\n    tag_324:\n        /* \"#utility.yul\":7006:7072   */\n      swap1\n      pop\n        /* \"#utility.yul\":6936:7078   */\n      swap2\n      swap1\n      pop\n      jump\t// out\n        /* \"#utility.yul\":7084:7159   */\n    tag_234:\n        /* \"#utility.yul\":7127:7130   */\n      0x00\n        /* \"#utility.yul\":7148:7153   */\n      dup2\n        /* \"#utility.yul\":7141:7153   */\n      swap1\n      pop\n        /* \"#utility.yul\":7084:7159   */\n      swap2\n      swap1\n      pop\n      jump\t// out\n        /* \"#utility.yul\":7165:7434   */\n    tag_235:\n        /* \"#utility.yul\":7275:7314   */\n      tag_329\n        /* \"#utility.yul\":7306:7313   */\n      dup4\n        /* \"#utility.yul\":7275:7314   */\n      tag_233\n      jump\t// in\n    tag_329:\n        /* \"#utility.yul\":7336:7427   */\n      tag_330\n        /* \"#utility.yul\":7385:7426   */\n      tag_331\n        /* \"#utility.yul\":7409:7425   */\n      dup3\n        /* \"#utility.yul\":7385:7426   */\n      tag_234\n      jump\t// in\n    tag_331:\n        /* \"#utility.yul\":7377:7383   */\n      dup5\n        /* \"#utility.yul\":7370:7374   */\n      dup5\n        /* \"#utility.yul\":7364:7375   */\n      sload\n        /* \"#utility.yul\":7336:7427   */\n      tag_231\n      jump\t// in\n    tag_330:\n        /* \"#utility.yul\":7330:7334   */\n      dup3\n        /* \"#utility.yul\":7323:7428   */\n      sstore\n        /* \"#utility.yul\":7241:7434   */\n      pop\n        /* \"#utility.yul\":7165:7434   */\n      pop\n      pop\n      pop\n      jump\t// out\n        /* \"#utility.yul\":7440:7513   */\n    tag_236:\n        /* \"#utility.yul\":7485:7488   */\n      0x00\n        /* \"#utility.yul\":7440:7513   */\n      swap1\n      jump\t// out\n        /* \"#utility.yul\":7519:7708   */\n    tag_237:\n        /* \"#utility.yul\":7596:7628   */\n      tag_334\n      tag_236\n      jump\t// in\n    tag_334:\n        /* \"#utility.yul\":7637:7702   */\n      tag_335\n        /* \"#utility.yul\":7695:7701   */\n      dup2\n        /* \"#utility.yul\":7687:7693   */\n      dup5\n        /* \"#utility.yul\":7681:7685   */\n      dup5\n        /* \"#utility.yul\":7637:7702   */\n      tag_235\n      jump\t// in\n    tag_335:\n        /* \"#utility.yul\":7572:7708   */\n      pop\n        /* \"#utility.yul\":7519:7708   */\n      pop\n      pop\n      jump\t// out\n        /* \"#utility.yul\":7714:7900   */\n    tag_238:\n        /* \"#utility.yul\":7774:7894   */\n    tag_337:\n        /* \"#utility.yul\":7791:7794   */\n      dup2\n        /* \"#utility.yul\":7784:7789   */\n      dup2\n        /* \"#utility.yul\":7781:7795   */\n      lt\n        /* \"#utility.yul\":7774:7894   */\n      iszero\n      tag_339\n      jumpi\n        /* \"#utility.yul\":7845:7884   */\n      tag_340\n        /* \"#utility.yul\":7882:7883   */\n      0x00\n        /* \"#utility.yul\":7875:7880   */\n      dup3\n        /* \"#utility.yul\":7845:7884   */\n      tag_237\n      jump\t// in\n    tag_340:\n        /* \"#utility.yul\":7818:7819   */\n      0x01\n        /* \"#utility.yul\":7811:7816   */\n      dup2\n        /* \"#utility.yul\":7807:7820   */\n      add\n        /* \"#utility.yul\":7798:7820   */\n      swap1\n      pop\n        /* \"#utility.yul\":7774:7894   */\n      jump(tag_337)\n    tag_339:\n        /* \"#utility.yul\":7714:7900   */\n      pop\n      pop\n      jump\t// out\n        /* \"#utility.yul\":7906:8449   */\n    tag_239:\n        /* \"#utility.yul\":8007:8009   */\n      0x1f\n        /* \"#utility.yul\":8002:8005   */\n      dup3\n        /* \"#utility.yul\":7999:8010   */\n      gt\n        /* \"#utility.yul\":7996:8442   */\n      iszero\n      tag_342\n      jumpi\n        /* \"#utility.yul\":8041:8079   */\n      tag_343\n        /* \"#utility.yul\":8073:8078   */\n      dup2\n        /* \"#utility.yul\":8041:8079   */\n      tag_228\n      jump\t// in\n    tag_343:\n        /* \"#utility.yul\":8125:8154   */\n      tag_344\n        /* \"#utility.yul\":8143:8153   */\n      dup5\n        /* \"#utility.yul\":8125:8154   */\n      tag_229\n      jump\t// in\n    tag_344:\n        /* \"#utility.yul\":8115:8123   */\n      dup2\n        /* \"#utility.yul\":8111:8155   */\n      add\n        /* \"#utility.yul\":8308:8310   */\n      0x20\n        /* \"#utility.yul\":8296:8306   */\n      dup6\n        /* \"#utility.yul\":8293:8311   */\n      lt\n        /* \"#utility.yul\":8290:8339   */\n      iszero\n      tag_345\n      jumpi\n        /* \"#utility.yul\":8329:8337   */\n      dup2\n        /* \"#utility.yul\":8314:8337   */\n      swap1\n      pop\n        /* \"#utility.yul\":8290:8339   */\n    tag_345:\n        /* \"#utility.yul\":8352:8432   */\n      tag_346\n        /* \"#utility.yul\":8408:8430   */\n      tag_347\n        /* \"#utility.yul\":8426:8429   */\n      dup6\n        /* \"#utility.yul\":8408:8430   */\n      tag_229\n      jump\t// in\n    tag_347:\n        /* \"#utility.yul\":8398:8406   */\n      dup4\n        /* \"#utility.yul\":8394:8431   */\n      add\n        /* \"#utility.yul\":8381:8392   */\n      dup3\n        /* \"#utility.yul\":8352:8432   */\n      tag_238\n      jump\t// in\n    tag_346:\n        /* \"#utility.yul\":8011:8442   */\n      pop\n      pop\n        /* \"#utility.yul\":7996:8442   */\n    tag_342:\n        /* \"#utility.yul\":7906:8449   */\n      pop\n      pop\n      pop\n      jump\t// out\n        /* \"#utility.yul\":8455:8572   */\n    tag_240:\n        /* \"#utility.yul\":8509:8517   */\n      0x00\n        /* \"#utility.yul\":8559:8564   */\n      dup3\n        /* \"#utility.yul\":8553:8557   */\n      dup3\n        /* \"#utility.yul\":8549:8565   */\n      shr\n        /* \"#utility.yul\":8528:8565   */\n      swap1\n      pop\n        /* \"#utility.yul\":8455:8572   */\n      swap3\n      swap2\n      pop\n      pop\n      jump\t// out\n        /* \"#utility.yul\":8578:8747   */\n    tag_241:\n        /* \"#utility.yul\":8622:8628   */\n      0x00\n        /* \"#utility.yul\":8655:8706   */\n      tag_350\n        /* \"#utility.yul\":8703:8704   */\n      0x00\n        /* \"#utility.yul\":8699:8705   */\n      not\n        /* \"#utility.yul\":8691:8696   */\n      dup5\n        /* \"#utility.yul\":8688:8689   */\n      0x08\n        /* \"#utility.yul\":8684:8697   */\n      mul\n        /* \"#utility.yul\":8655:8706   */\n      tag_240\n      jump\t// in\n    tag_350:\n        /* \"#utility.yul\":8651:8707   */\n      not\n        /* \"#utility.yul\":8736:8740   */\n      dup1\n        /* \"#utility.yul\":8730:8734   */\n      dup4\n        /* \"#utility.yul\":8726:8741   */\n      and\n        /* \"#utility.yul\":8716:8741   */\n      swap2\n      pop\n        /* \"#utility.yul\":8629:8747   */\n      pop\n        /* \"#utility.yul\":8578:8747   */\n      swap3\n      swap2\n      pop\n      pop\n      jump\t// out\n        /* \"#utility.yul\":8752:9047   */\n    tag_242:\n        /* \"#utility.yul\":8828:8832   */\n      0x00\n        /* \"#utility.yul\":8974:9003   */\n      tag_352\n        /* \"#utility.yul\":8999:9002   */\n      dup4\n        /* \"#utility.yul\":8993:8997   */\n      dup4\n        /* \"#utility.yul\":8974:9003   */\n      tag_241\n      jump\t// in\n    tag_352:\n        /* \"#utility.yul\":8966:9003   */\n      swap2\n      pop\n        /* \"#utility.yul\":9036:9039   */\n      dup3\n        /* \"#utility.yul\":9033:9034   */\n      0x02\n        /* \"#utility.yul\":9029:9040   */\n      mul\n        /* \"#utility.yul\":9023:9027   */\n      dup3\n        /* \"#utility.yul\":9020:9041   */\n      or\n        /* \"#utility.yul\":9012:9041   */\n      swap1\n      pop\n        /* \"#utility.yul\":8752:9047   */\n      swap3\n      swap2\n      pop\n      pop\n      jump\t// out\n        /* \"#utility.yul\":9052:10447   */\n    tag_112:\n        /* \"#utility.yul\":9169:9206   */\n      tag_354\n        /* \"#utility.yul\":9202:9205   */\n      dup3\n        /* \"#utility.yul\":9169:9206   */\n      tag_225\n      jump\t// in\n    tag_354:\n        /* \"#utility.yul\":9271:9289   */\n      0xffffffffffffffff\n        /* \"#utility.yul\":9263:9269   */\n      dup2\n        /* \"#utility.yul\":9260:9290   */\n      gt\n        /* \"#utility.yul\":9257:9313   */\n      iszero\n      tag_355\n      jumpi\n        /* \"#utility.yul\":9293:9311   */\n      tag_356\n      tag_218\n      jump\t// in\n    tag_356:\n        /* \"#utility.yul\":9257:9313   */\n    tag_355:\n        /* \"#utility.yul\":9337:9375   */\n      tag_357\n        /* \"#utility.yul\":9369:9373   */\n      dup3\n        /* \"#utility.yul\":9363:9374   */\n      sload\n        /* \"#utility.yul\":9337:9375   */\n      tag_227\n      jump\t// in\n    tag_357:\n        /* \"#utility.yul\":9422:9489   */\n      tag_358\n        /* \"#utility.yul\":9482:9488   */\n      dup3\n        /* \"#utility.yul\":9474:9480   */\n      dup3\n        /* \"#utility.yul\":9468:9472   */\n      dup6\n        /* \"#utility.yul\":9422:9489   */\n      tag_239\n      jump\t// in\n    tag_358:\n        /* \"#utility.yul\":9516:9517   */\n      0x00\n        /* \"#utility.yul\":9540:9544   */\n      0x20\n        /* \"#utility.yul\":9527:9544   */\n      swap1\n      pop\n        /* \"#utility.yul\":9572:9574   */\n      0x1f\n        /* \"#utility.yul\":9564:9570   */\n      dup4\n        /* \"#utility.yul\":9561:9575   */\n      gt\n        /* \"#utility.yul\":9589:9590   */\n      0x01\n        /* \"#utility.yul\":9584:10202   */\n      dup2\n      eq\n      tag_360\n      jumpi\n        /* \"#utility.yul\":10246:10247   */\n      0x00\n        /* \"#utility.yul\":10263:10269   */\n      dup5\n        /* \"#utility.yul\":10260:10337   */\n      iszero\n      tag_361\n      jumpi\n        /* \"#utility.yul\":10312:10321   */\n      dup3\n        /* \"#utility.yul\":10307:10310   */\n      dup8\n        /* \"#utility.yul\":10303:10322   */\n      add\n        /* \"#utility.yul\":10297:10323   */\n      mload\n        /* \"#utility.yul\":10288:10323   */\n      swap1\n      pop\n        /* \"#utility.yul\":10260:10337   */\n    tag_361:\n        /* \"#utility.yul\":10363:10430   */\n      tag_362\n        /* \"#utility.yul\":10423:10429   */\n      dup6\n        /* \"#utility.yul\":10416:10421   */\n      dup3\n        /* \"#utility.yul\":10363:10430   */\n      tag_242\n      jump\t// in\n    tag_362:\n        /* \"#utility.yul\":10357:10361   */\n      dup7\n        /* \"#utility.yul\":10350:10431   */\n      sstore\n        /* \"#utility.yul\":10219:10441   */\n      pop\n        /* \"#utility.yul\":9554:10441   */\n      jump(tag_359)\n        /* \"#utility.yul\":9584:10202   */\n    tag_360:\n        /* \"#utility.yul\":9636:9640   */\n      0x1f\n        /* \"#utility.yul\":9632:9641   */\n      not\n        /* \"#utility.yul\":9624:9630   */\n      dup5\n        /* \"#utility.yul\":9620:9642   */\n      and\n        /* \"#utility.yul\":9670:9707   */\n      tag_363\n        /* \"#utility.yul\":9702:9706   */\n      dup7\n        /* \"#utility.yul\":9670:9707   */\n      tag_228\n      jump\t// in\n    tag_363:\n        /* \"#utility.yul\":9729:9730   */\n      0x00\n        /* \"#utility.yul\":9743:9951   */\n    tag_364:\n        /* \"#utility.yul\":9757:9764   */\n      dup3\n        /* \"#utility.yul\":9754:9755   */\n      dup2\n        /* \"#utility.yul\":9751:9765   */\n      lt\n        /* \"#utility.yul\":9743:9951   */\n      iszero\n      tag_366\n      jumpi\n        /* \"#utility.yul\":9836:9845   */\n      dup5\n        /* \"#utility.yul\":9831:9834   */\n      dup10\n        /* \"#utility.yul\":9827:9846   */\n      add\n        /* \"#utility.yul\":9821:9847   */\n      mload\n        /* \"#utility.yul\":9813:9819   */\n      dup3\n        /* \"#utility.yul\":9806:9848   */\n      sstore\n        /* \"#utility.yul\":9887:9888   */\n      0x01\n        /* \"#utility.yul\":9879:9885   */\n      dup3\n        /* \"#utility.yul\":9875:9889   */\n      add\n        /* \"#utility.yul\":9865:9889   */\n      swap2\n      pop\n        /* \"#utility.yul\":9934:9936   */\n      0x20\n        /* \"#utility.yul\":9923:9932   */\n      dup6\n        /* \"#utility.yul\":9919:9937   */\n      add\n        /* \"#utility.yul\":9906:9937   */\n      swap5\n      pop\n        /* \"#utility.yul\":9780:9784   */\n      0x20\n        /* \"#utility.yul\":9777:9778   */\n      dup2\n        /* \"#utility.yul\":9773:9785   */\n      add\n        /* \"#utility.yul\":9768:9785   */\n      swap1\n      pop\n        /* \"#utility.yul\":9743:9951   */\n      jump(tag_364)\n    tag_366:\n        /* \"#utility.yul\":9979:9985   */\n      dup7\n        /* \"#utility.yul\":9970:9977   */\n      dup4\n        /* \"#utility.yul\":9967:9986   */\n      lt\n        /* \"#utility.yul\":9964:10143   */\n      iszero\n      tag_367\n      jumpi\n        /* \"#utility.yul\":10037:10046   */\n      dup5\n        /* \"#utility.yul\":10032:10035   */\n      dup10\n        /* \"#utility.yul\":10028:10047   */\n      add\n        /* \"#utility.yul\":10022:10048   */\n      mload\n        /* \"#utility.yul\":10080:10128   */\n      tag_368\n        /* \"#utility.yul\":10122:10126   */\n      0x1f\n        /* \"#utility.yul\":10114:10120   */\n      dup10\n        /* \"#utility.yul\":10110:10127   */\n      and\n        /* \"#utility.yul\":10099:10108   */\n      dup3\n        /* \"#utility.yul\":10080:10128   */\n      tag_241\n      jump\t// in\n    tag_368:\n        /* \"#utility.yul\":10072:10078   */\n      dup4\n        /* \"#utility.yul\":10065:10129   */\n      sstore\n        /* \"#utility.yul\":9987:10143   */\n      pop\n        /* \"#utility.yul\":9964:10143   */\n    tag_367:\n        /* \"#utility.yul\":10189:10190   */\n      0x01\n        /* \"#utility.yul\":10185:10186   */\n      0x02\n        /* \"#utility.yul\":10177:10183   */\n      dup9\n        /* \"#utility.yul\":10173:10187   */\n      mul\n        /* \"#utility.yul\":10169:10191   */\n      add\n        /* \"#utility.yul\":10163:10167   */\n      dup9\n        /* \"#utility.yul\":10156:10192   */\n      sstore\n        /* \"#utility.yul\":9591:10202   */\n      pop\n      pop\n      pop\n        /* \"#utility.yul\":9554:10441   */\n    tag_359:\n      pop\n        /* \"#utility.yul\":9144:10447   */\n      pop\n      pop\n      pop\n        /* \"#utility.yul\":9052:10447   */\n      pop\n      pop\n      jump\t// out\n        /* \"#utility.yul\":10453:10633   */\n    tag_243:\n        /* \"#utility.yul\":10501:10578   */\n      0x4e487b7100000000000000000000000000000000000000000000000000000000\n        /* \"#utility.yul\":10498:10499   */\n      0x00\n        /* \"#utility.yul\":10491:10579   */\n      mstore\n        /* \"#utility.yul\":10598:10602   */\n      0x11\n        /* \"#utility.yul\":10595:10596   */\n      0x04\n        /* \"#utility.yul\":10588:10603   */\n      mstore\n        /* \"#utility.yul\":10622:10626   */\n      0x24\n        /* \"#utility.yul\":10619:10620   */\n      0x00\n        /* \"#utility.yul\":10612:10627   */\n      revert\n        /* \"#utility.yul\":10639:10830   */\n    tag_122:\n        /* \"#utility.yul\":10679:10682   */\n      0x00\n        /* \"#utility.yul\":10698:10718   */\n      tag_371\n        /* \"#utility.yul\":10716:10717   */\n      dup3\n        /* \"#utility.yul\":10698:10718   */\n      tag_212\n      jump\t// in\n    tag_371:\n        /* \"#utility.yul\":10693:10718   */\n      swap2\n      pop\n        /* \"#utility.yul\":10732:10752   */\n      tag_372\n        /* \"#utility.yul\":10750:10751   */\n      dup4\n        /* \"#utility.yul\":10732:10752   */\n      tag_212\n      jump\t// in\n    tag_372:\n        /* \"#utility.yul\":10727:10752   */\n      swap3\n      pop\n        /* \"#utility.yul\":10775:10776   */\n      dup3\n        /* \"#utility.yul\":10772:10773   */\n      dup3\n        /* \"#utility.yul\":10768:10777   */\n      add\n        /* \"#utility.yul\":10761:10777   */\n      swap1\n      pop\n        /* \"#utility.yul\":10796:10799   */\n      dup1\n        /* \"#utility.yul\":10793:10794   */\n      dup3\n        /* \"#utility.yul\":10790:10800   */\n      gt\n        /* \"#utility.yul\":10787:10823   */\n      iszero\n      tag_373\n      jumpi\n        /* \"#utility.yul\":10803:10821   */\n      tag_374\n      tag_243\n      jump\t// in\n    tag_374:\n        /* \"#utility.yul\":10787:10823   */\n    tag_373:\n        /* \"#utility.yul\":10639:10830   */\n      swap3\n      swap2\n      pop\n      pop\n      jump\t// out\n        /* \"#utility.yul\":10836:10954   */\n    tag_244:\n        /* \"#utility.yul\":10923:10947   */\n      tag_376\n        /* \"#utility.yul\":10941:10946   */\n      dup2\n        /* \"#utility.yul\":10923:10947   */\n      tag_212\n      jump\t// in\n    tag_376:\n        /* \"#utility.yul\":10918:10921   */\n      dup3\n        /* \"#utility.yul\":10911:10948   */\n      mstore\n        /* \"#utility.yul\":10836:10954   */\n      pop\n      pop\n      jump\t// out\n        /* \"#utility.yul\":10960:11182   */\n    tag_124:\n        /* \"#utility.yul\":11053:11057   */\n      0x00\n        /* \"#utility.yul\":11091:11093   */\n      0x20\n        /* \"#utility.yul\":11080:11089   */\n      dup3\n        /* \"#utility.yul\":11076:11094   */\n      add\n        /* \"#utility.yul\":11068:11094   */\n      swap1\n      pop\n        /* \"#utility.yul\":11104:11175   */\n      tag_378\n        /* \"#utility.yul\":11172:11173   */\n      0x00\n        /* \"#utility.yul\":11161:11170   */\n      dup4\n        /* \"#utility.yul\":11157:11174   */\n      add\n        /* \"#utility.yul\":11148:11154   */\n      dup5\n        /* \"#utility.yul\":11104:11175   */\n      tag_244\n      jump\t// in\n    tag_378:\n        /* \"#utility.yul\":10960:11182   */\n      swap3\n      swap2\n      pop\n      pop\n      jump\t// out\n\n    auxdata: 0xa264697066735822122063a0a8be3fe98fa7e065a4f90bf32d5cd3700742e7d4409483d8c4dfa00cd6e364736f6c63430008120033\n}\n",
				"bytecode": {
					"linkReferences": {},
					"object": "608060405262000024620000186200010a60201b60201c565b6200011260201b60201c565b62000044620000386200010a60201b60201c565b6200017360201b60201c565b62000064620000586200010a60201b60201c565b620001d460201b60201c565b62000084620000786200010a60201b60201c565b6200023560201b60201c565b620000a4620000986200010a60201b60201c565b6200029660201b60201c565b620000b46200010a60201b60201c565b600560006101000a81548173ffffffffffffffffffffffffffffffffffffffff021916908373ffffffffffffffffffffffffffffffffffffffff160217905550600160078190555060016006819055506200043e565b600033905090565b6200012d816000620002f760201b620009da1790919060201c565b8073ffffffffffffffffffffffffffffffffffffffff167f561138658ca49a8540dc70dcfe64c9026c1c5b9344642242dd6562970f9c127860405160405180910390a250565b6200018e816001620002f760201b620009da1790919060201c565b8073ffffffffffffffffffffffffffffffffffffffff167fddbf200aa634dc3fb81cfd68583dd1040d1c751d335e1d86b631bde3e977fea860405160405180910390a250565b620001ef816002620002f760201b620009da1790919060201c565b8073ffffffffffffffffffffffffffffffffffffffff167fd8a7ad7929975a375d2b12bf49040286b5b105df0fe351f10df6d85e5b7142f760405160405180910390a250565b62000250816003620002f760201b620009da1790919060201c565b8073ffffffffffffffffffffffffffffffffffffffff167f71ae26cad02663e3d92efd6ec56031a80d74a20c0ab4183faa8bf262261c9baa60405160405180910390a250565b620002b1816004620002f760201b620009da1790919060201c565b8073ffffffffffffffffffffffffffffffffffffffff167f28b26e7a3d20aedbc5f8f2ebf7da671c0491723a2b78f47a097b0e46dee0714260405160405180910390a250565b600073ffffffffffffffffffffffffffffffffffffffff168173ffffffffffffffffffffffffffffffffffffffff16036200033157600080fd5b620003438282620003ac60201b60201c565b156200034e57600080fd5b60018260000160008373ffffffffffffffffffffffffffffffffffffffff1673ffffffffffffffffffffffffffffffffffffffff16815260200190815260200160002060006101000a81548160ff0219169083151502179055505050565b60008073ffffffffffffffffffffffffffffffffffffffff168273ffffffffffffffffffffffffffffffffffffffff1603620003e757600080fd5b8260000160008373ffffffffffffffffffffffffffffffffffffffff1673ffffffffffffffffffffffffffffffffffffffff16815260200190815260200160002060009054906101000a900460ff16905092915050565b611760806200044e6000396000f3fe608060405234801561001057600080fd5b50600436106101005760003560e01c806364d1ba1f116100975780638ec4f505116100665780638ec4f5051461025d5780638f0c86fa14610279578063de63bdb9146102a9578063e34d7a07146102c557610100565b806364d1ba1f146101d75780637250e22414610207578063834ff739146102235780638b828a081461025357610100565b80634ea90d2d116100d35780634ea90d2d1461016557806353fb741e1461016f5780635da09b881461018b5780635f8a5afa146101bb57610100565b8063070ef98714610105578063112940f91461010f57806317d4a4911461012b5780633496c1751461015b575b600080fd5b61010d6102cf565b005b61012960048036038101906101249190611107565b6102e1565b005b61014560048036038101906101409190611107565b610306565b604051610152919061114f565b60405180910390f35b610163610323565b005b61016d610335565b005b610189600480360381019061018491906112e6565b610347565b005b6101a560048036038101906101a09190611107565b6108ae565b6040516101b2919061114f565b60405180910390f35b6101d560048036038101906101d09190611107565b6108cb565b005b6101f160048036038101906101ec9190611107565b6108f0565b6040516101fe919061114f565b60405180910390f35b610221600480360381019061021c9190611107565b61090d565b005b61023d60048036038101906102389190611107565b610932565b60405161024a919061114f565b60405180910390f35b61025b61094f565b005b61027760048036038101906102729190611107565b610961565b005b610293600480360381019061028e9190611107565b610986565b6040516102a0919061114f565b60405180910390f35b6102c360048036038101906102be9190611107565b6109a3565b005b6102cd6109c8565b005b6102df6102da610a85565b610a8d565b565b6102f16102ec610a85565b610932565b6102fa57600080fd5b61030381610ae7565b50565b600061031c826000610b4190919063ffffffff16565b9050919050565b61033361032e610a85565b610bd2565b565b610345610340610a85565b610c2c565b565b610357610352610a85565b610306565b61036057600080fd5b60008060008061036e610f4c565b6007548160000181815250508881602001818152505061038c610a85565b816040019073ffffffffffffffffffffffffffffffffffffffff16908173ffffffffffffffffffffffffffffffffffffffff16815250506103cb610a85565b816060019073ffffffffffffffffffffffffffffffffffffffff16908173ffffffffffffffffffffffffffffffffffffffff1681525050878160800181905250868160a001819052508581610100018181525050428160e00181815250506000816101200190600d81111561044357610442611385565b5b9081600d81111561045757610456611385565b5b815250508481610140019073ffffffffffffffffffffffffffffffffffffffff16908173ffffffffffffffffffffffffffffffffffffffff16815250508381610180019073ffffffffffffffffffffffffffffffffffffffff16908173ffffffffffffffffffffffffffffffffffffffff168152505082816101c0019073ffffffffffffffffffffffffffffffffffffffff16908173ffffffffffffffffffffffffffffffffffffffff16815250508181610200019073ffffffffffffffffffffffffffffffffffffffff16908173ffffffffffffffffffffffffffffffffffffffff168152505080600860008b8152602001908152602001600020600082015181600001556020820151816001015560408201518160020160006101000a81548173ffffffffffffffffffffffffffffffffffffffff021916908373ffffffffffffffffffffffffffffffffffffffff16021790555060608201518160030160006101000a81548173ffffffffffffffffffffffffffffffffffffffff021916908373ffffffffffffffffffffffffffffffffffffffff160217905550608082015181600401908161060a91906115cb565b5060a082015181600501908161062091906115cb565b5060c0820151816006015560e0820151816007015561010082015181600801556101208201518160090160006101000a81548160ff0219169083600d81111561066c5761066b611385565b5b02179055506101408201518160090160016101000a81548173ffffffffffffffffffffffffffffffffffffffff021916908373ffffffffffffffffffffffffffffffffffffffff16021790555061016082015181600a0190816106cf91906115cb565b5061018082015181600b0160006101000a81548173ffffffffffffffffffffffffffffffffffffffff021916908373ffffffffffffffffffffffffffffffffffffffff1602179055506101a082015181600c01908161072e91906115cb565b506101c082015181600d0160006101000a81548173ffffffffffffffffffffffffffffffffffffffff021916908373ffffffffffffffffffffffffffffffffffffffff1602179055506101e082015181600e01908161078d91906115cb565b5061020082015181600f0160006101000a81548173ffffffffffffffffffffffffffffffffffffffff021916908373ffffffffffffffffffffffffffffffffffffffff160217905550610220820151816010015590505060006107ee61106d565b8181600001818152505081816020018181525050818160400181815250508181606001818152505080600960008d815260200190815260200160002060008201518160000155602082015181600101556040820151816002015560608201518160030155905050600160075461086491906116cc565b6007819055507fb7cacbe76ffd2319b73ee6a0f921b205bdb46926c6342d478b159eedd699d4b68b604051610899919061170f565b60405180910390a15050505050505050505050565b60006108c4826003610b4190919063ffffffff16565b9050919050565b6108db6108d6610a85565b610306565b6108e457600080fd5b6108ed81610c86565b50565b6000610906826002610b4190919063ffffffff16565b9050919050565b61091d610918610a85565b610986565b61092657600080fd5b61092f81610ce0565b50565b6000610948826004610b4190919063ffffffff16565b9050919050565b61095f61095a610a85565b610d3a565b565b61097161096c610a85565b6108ae565b61097a57600080fd5b61098381610d94565b50565b600061099c826001610b4190919063ffffffff16565b9050919050565b6109b36109ae610a85565b6108f0565b6109bc57600080fd5b6109c581610dee565b50565b6109d86109d3610a85565b610e48565b565b600073ffffffffffffffffffffffffffffffffffffffff168173ffffffffffffffffffffffffffffffffffffffff1603610a1357600080fd5b610a1d8282610b41565b15610a2757600080fd5b60018260000160008373ffffffffffffffffffffffffffffffffffffffff1673ffffffffffffffffffffffffffffffffffffffff16815260200190815260200160002060006101000a81548160ff0219169083151502179055505050565b600033905090565b610aa1816002610ea290919063ffffffff16565b8073ffffffffffffffffffffffffffffffffffffffff167f7f865f710a7604537eb2bc0334f082fa642d210a705398937f53663384485b2860405160405180910390a250565b610afb8160046109da90919063ffffffff16565b8073ffffffffffffffffffffffffffffffffffffffff167f28b26e7a3d20aedbc5f8f2ebf7da671c0491723a2b78f47a097b0e46dee0714260405160405180910390a250565b60008073ffffffffffffffffffffffffffffffffffffffff168273ffffffffffffffffffffffffffffffffffffffff1603610b7b57600080fd5b8260000160008373ffffffffffffffffffffffffffffffffffffffff1673ffffffffffffffffffffffffffffffffffffffff16815260200190815260200160002060009054906101000a900460ff16905092915050565b610be6816004610ea290919063ffffffff16565b8073ffffffffffffffffffffffffffffffffffffffff167fe3f5ed5f263f1f01764a96edfc7d025f511ec5f7d180e8816908b78bcf74f09860405160405180910390a250565b610c40816001610ea290919063ffffffff16565b8073ffffffffffffffffffffffffffffffffffffffff167f126174f6cf49c81cdb4a9214c6b8f037bef55b4ec31e4fc776cea2a1c8a88d5960405160405180910390a250565b610c9a8160006109da90919063ffffffff16565b8073ffffffffffffffffffffffffffffffffffffffff167f561138658ca49a8540dc70dcfe64c9026c1c5b9344642242dd6562970f9c127860405160405180910390a250565b610cf48160016109da90919063ffffffff16565b8073ffffffffffffffffffffffffffffffffffffffff167fddbf200aa634dc3fb81cfd68583dd1040d1c751d335e1d86b631bde3e977fea860405160405180910390a250565b610d4e816000610ea290919063ffffffff16565b8073ffffffffffffffffffffffffffffffffffffffff167f2fed5abf6a80d6dfe30b4895481b2fc5d7dce5f8f7b931832f4a2947d5040c7f60405160405180910390a250565b610da88160036109da90919063ffffffff16565b8073ffffffffffffffffffffffffffffffffffffffff167f71ae26cad02663e3d92efd6ec56031a80d74a20c0ab4183faa8bf262261c9baa60405160405180910390a250565b610e028160026109da90919063ffffffff16565b8073ffffffffffffffffffffffffffffffffffffffff167fd8a7ad7929975a375d2b12bf49040286b5b105df0fe351f10df6d85e5b7142f760405160405180910390a250565b610e5c816003610ea290919063ffffffff16565b8073ffffffffffffffffffffffffffffffffffffffff167fdb7176e79cffef81cb01767dd0447a0b24bb72ca9778d4b245581086b2a7e6db60405160405180910390a250565b600073ffffffffffffffffffffffffffffffffffffffff168173ffffffffffffffffffffffffffffffffffffffff1603610edb57600080fd5b610ee58282610b41565b610eee57600080fd5b60008260000160008373ffffffffffffffffffffffffffffffffffffffff1673ffffffffffffffffffffffffffffffffffffffff16815260200190815260200160002060006101000a81548160ff0219169083151502179055505050565b6040518061024001604052806000815260200160008152602001600073ffffffffffffffffffffffffffffffffffffffff168152602001600073ffffffffffffffffffffffffffffffffffffffff16815260200160608152602001606081526020016000815260200160008152602001600081526020016000600d811115610fd757610fd6611385565b5b8152602001600073ffffffffffffffffffffffffffffffffffffffff16815260200160608152602001600073ffffffffffffffffffffffffffffffffffffffff16815260200160608152602001600073ffffffffffffffffffffffffffffffffffffffff16815260200160608152602001600073ffffffffffffffffffffffffffffffffffffffff168152602001600081525090565b6040518060800160405280600081526020016000815260200160008152602001600081525090565b6000604051905090565b600080fd5b600080fd5b600073ffffffffffffffffffffffffffffffffffffffff82169050919050565b60006110d4826110a9565b9050919050565b6110e4816110c9565b81146110ef57600080fd5b50565b600081359050611101816110db565b92915050565b60006020828403121561111d5761111c61109f565b5b600061112b848285016110f2565b91505092915050565b60008115159050919050565b61114981611134565b82525050565b60006020820190506111646000830184611140565b92915050565b6000819050919050565b61117d8161116a565b811461118857600080fd5b50565b60008135905061119a81611174565b92915050565b600080fd5b600080fd5b6000601f19601f8301169050919050565b7f4e487b7100000000000000000000000000000000000000000000000000000000600052604160045260246000fd5b6111f3826111aa565b810181811067ffffffffffffffff82111715611212576112116111bb565b5b80604052505050565b6000611225611095565b905061123182826111ea565b919050565b600067ffffffffffffffff821115611251576112506111bb565b5b61125a826111aa565b9050602081019050919050565b82818337600083830152505050565b600061128961128484611236565b61121b565b9050828152602081018484840111156112a5576112a46111a5565b5b6112b0848285611267565b509392505050565b600082601f8301126112cd576112cc6111a0565b5b81356112dd848260208601611276565b91505092915050565b60008060008060808587031215611300576112ff61109f565b5b600061130e8782880161118b565b945050602085013567ffffffffffffffff81111561132f5761132e6110a4565b5b61133b878288016112b8565b935050604085013567ffffffffffffffff81111561135c5761135b6110a4565b5b611368878288016112b8565b92505060606113798782880161118b565b91505092959194509250565b7f4e487b7100000000000000000000000000000000000000000000000000000000600052602160045260246000fd5b600081519050919050565b7f4e487b7100000000000000000000000000000000000000000000000000000000600052602260045260246000fd5b6000600282049050600182168061140657607f821691505b602082108103611419576114186113bf565b5b50919050565b60008190508160005260206000209050919050565b60006020601f8301049050919050565b600082821b905092915050565b6000600883026114817fffffffffffffffffffffffffffffffffffffffffffffffffffffffffffffffff82611444565b61148b8683611444565b95508019841693508086168417925050509392505050565b6000819050919050565b60006114c86114c36114be8461116a565b6114a3565b61116a565b9050919050565b6000819050919050565b6114e2836114ad565b6114f66114ee826114cf565b848454611451565b825550505050565b600090565b61150b6114fe565b6115168184846114d9565b505050565b5b8181101561153a5761152f600082611503565b60018101905061151c565b5050565b601f82111561157f576115508161141f565b61155984611434565b81016020851015611568578190505b61157c61157485611434565b83018261151b565b50505b505050565b600082821c905092915050565b60006115a260001984600802611584565b1980831691505092915050565b60006115bb8383611591565b9150826002028217905092915050565b6115d4826113b4565b67ffffffffffffffff8111156115ed576115ec6111bb565b5b6115f782546113ee565b61160282828561153e565b600060209050601f8311600181146116355760008415611623578287015190505b61162d85826115af565b865550611695565b601f1984166116438661141f565b60005b8281101561166b57848901518255600182019150602085019450602081019050611646565b868310156116885784890151611684601f891682611591565b8355505b6001600288020188555050505b505050505050565b7f4e487b7100000000000000000000000000000000000000000000000000000000600052601160045260246000fd5b60006116d78261116a565b91506116e28361116a565b92508282019050808211156116fa576116f961169d565b5b92915050565b6117098161116a565b82525050565b60006020820190506117246000830184611700565b9291505056fea264697066735822122063a0a8be3fe98fa7e065a4f90bf32d5cd3700742e7d4409483d8c4dfa00cd6e364736f6c63430008120033",
					"opcodes": "PUSH1 0x80 PUSH1 0x40 MSTORE PUSH3 0x24 PUSH3 0x18 PUSH3 0x10A PUSH1 0x20 SHL PUSH1 0x20 SHR JUMP JUMPDEST PUSH3 0x112 PUSH1 0x20 SHL PUSH1 0x20 SHR JUMP JUMPDEST PUSH3 0x44 PUSH3 0x38 PUSH3 0x10A PUSH1 0x20 SHL PUSH1 0x20 SHR JUMP JUMPDEST PUSH3 0x173 PUSH1 0x20 SHL PUSH1 0x20 SHR JUMP JUMPDEST PUSH3 0x64 PUSH3 0x58 PUSH3 0x10A PUSH1 0x20 SHL PUSH1 0x20 SHR JUMP JUMPDEST PUSH3 0x1D4 PUSH1 0x20 SHL PUSH1 0x20 SHR JUMP JUMPDEST PUSH3 0x84 PUSH3 0x78 PUSH3 0x10A PUSH1 0x20 SHL PUSH1 0x20 SHR JUMP JUMPDEST PUSH3 0x235 PUSH1 0x20 SHL PUSH1 0x20 SHR JUMP JUMPDEST PUSH3 0xA4 PUSH3 0x98 PUSH3 0x10A PUSH1 0x20 SHL PUSH1 0x20 SHR JUMP JUMPDEST PUSH3 0x296 PUSH1 0x20 SHL PUSH1 0x20 SHR JUMP JUMPDEST PUSH3 0xB4 PUSH3 0x10A PUSH1 0x20 SHL PUSH1 0x20 SHR JUMP JUMPDEST PUSH1 0x5 PUSH1 0x0 PUSH2 0x100 EXP DUP2 SLOAD DUP2 PUSH20 0xFFFFFFFFFFFFFFFFFFFFFFFFFFFFFFFFFFFFFFFF MUL NOT AND SWAP1 DUP4 PUSH20 0xFFFFFFFFFFFFFFFFFFFFFFFFFFFFFFFFFFFFFFFF AND MUL OR SWAP1 SSTORE POP PUSH1 0x1 PUSH1 0x7 DUP2 SWAP1 SSTORE POP PUSH1 0x1 PUSH1 0x6 DUP2 SWAP1 SSTORE POP PUSH3 0x43E JUMP JUMPDEST PUSH1 0x0 CALLER SWAP1 POP SWAP1 JUMP JUMPDEST PUSH3 0x12D DUP2 PUSH1 0x0 PUSH3 0x2F7 PUSH1 0x20 SHL PUSH3 0x9DA OR SWAP1 SWAP2 SWAP1 PUSH1 0x20 SHR JUMP JUMPDEST DUP1 PUSH20 0xFFFFFFFFFFFFFFFFFFFFFFFFFFFFFFFFFFFFFFFF AND PUSH32 0x561138658CA49A8540DC70DCFE64C9026C1C5B9344642242DD6562970F9C1278 PUSH1 0x40 MLOAD PUSH1 0x40 MLOAD DUP1 SWAP2 SUB SWAP1 LOG2 POP JUMP JUMPDEST PUSH3 0x18E DUP2 PUSH1 0x1 PUSH3 0x2F7 PUSH1 0x20 SHL PUSH3 0x9DA OR SWAP1 SWAP2 SWAP1 PUSH1 0x20 SHR JUMP JUMPDEST DUP1 PUSH20 0xFFFFFFFFFFFFFFFFFFFFFFFFFFFFFFFFFFFFFFFF AND PUSH32 0xDDBF200AA634DC3FB81CFD68583DD1040D1C751D335E1D86B631BDE3E977FEA8 PUSH1 0x40 MLOAD PUSH1 0x40 MLOAD DUP1 SWAP2 SUB SWAP1 LOG2 POP JUMP JUMPDEST PUSH3 0x1EF DUP2 PUSH1 0x2 PUSH3 0x2F7 PUSH1 0x20 SHL PUSH3 0x9DA OR SWAP1 SWAP2 SWAP1 PUSH1 0x20 SHR JUMP JUMPDEST DUP1 PUSH20 0xFFFFFFFFFFFFFFFFFFFFFFFFFFFFFFFFFFFFFFFF AND PUSH32 0xD8A7AD7929975A375D2B12BF49040286B5B105DF0FE351F10DF6D85E5B7142F7 PUSH1 0x40 MLOAD PUSH1 0x40 MLOAD DUP1 SWAP2 SUB SWAP1 LOG2 POP JUMP JUMPDEST PUSH3 0x250 DUP2 PUSH1 0x3 PUSH3 0x2F7 PUSH1 0x20 SHL PUSH3 0x9DA OR SWAP1 SWAP2 SWAP1 PUSH1 0x20 SHR JUMP JUMPDEST DUP1 PUSH20 0xFFFFFFFFFFFFFFFFFFFFFFFFFFFFFFFFFFFFFFFF AND PUSH32 0x71AE26CAD02663E3D92EFD6EC56031A80D74A20C0AB4183FAA8BF262261C9BAA PUSH1 0x40 MLOAD PUSH1 0x40 MLOAD DUP1 SWAP2 SUB SWAP1 LOG2 POP JUMP JUMPDEST PUSH3 0x2B1 DUP2 PUSH1 0x4 PUSH3 0x2F7 PUSH1 0x20 SHL PUSH3 0x9DA OR SWAP1 SWAP2 SWAP1 PUSH1 0x20 SHR JUMP JUMPDEST DUP1 PUSH20 0xFFFFFFFFFFFFFFFFFFFFFFFFFFFFFFFFFFFFFFFF AND PUSH32 0x28B26E7A3D20AEDBC5F8F2EBF7DA671C0491723A2B78F47A097B0E46DEE07142 PUSH1 0x40 MLOAD PUSH1 0x40 MLOAD DUP1 SWAP2 SUB SWAP1 LOG2 POP JUMP JUMPDEST PUSH1 0x0 PUSH20 0xFFFFFFFFFFFFFFFFFFFFFFFFFFFFFFFFFFFFFFFF AND DUP2 PUSH20 0xFFFFFFFFFFFFFFFFFFFFFFFFFFFFFFFFFFFFFFFF AND SUB PUSH3 0x331 JUMPI PUSH1 0x0 DUP1 REVERT JUMPDEST PUSH3 0x343 DUP3 DUP3 PUSH3 0x3AC PUSH1 0x20 SHL PUSH1 0x20 SHR JUMP JUMPDEST ISZERO PUSH3 0x34E JUMPI PUSH1 0x0 DUP1 REVERT JUMPDEST PUSH1 0x1 DUP3 PUSH1 0x0 ADD PUSH1 0x0 DUP4 PUSH20 0xFFFFFFFFFFFFFFFFFFFFFFFFFFFFFFFFFFFFFFFF AND PUSH20 0xFFFFFFFFFFFFFFFFFFFFFFFFFFFFFFFFFFFFFFFF AND DUP2 MSTORE PUSH1 0x20 ADD SWAP1 DUP2 MSTORE PUSH1 0x20 ADD PUSH1 0x0 KECCAK256 PUSH1 0x0 PUSH2 0x100 EXP DUP2 SLOAD DUP2 PUSH1 0xFF MUL NOT AND SWAP1 DUP4 ISZERO ISZERO MUL OR SWAP1 SSTORE POP POP POP JUMP JUMPDEST PUSH1 0x0 DUP1 PUSH20 0xFFFFFFFFFFFFFFFFFFFFFFFFFFFFFFFFFFFFFFFF AND DUP3 PUSH20 0xFFFFFFFFFFFFFFFFFFFFFFFFFFFFFFFFFFFFFFFF AND SUB PUSH3 0x3E7 JUMPI PUSH1 0x0 DUP1 REVERT JUMPDEST DUP3 PUSH1 0x0 ADD PUSH1 0x0 DUP4 PUSH20 0xFFFFFFFFFFFFFFFFFFFFFFFFFFFFFFFFFFFFFFFF AND PUSH20 0xFFFFFFFFFFFFFFFFFFFFFFFFFFFFFFFFFFFFFFFF AND DUP2 MSTORE PUSH1 0x20 ADD SWAP1 DUP2 MSTORE PUSH1 0x20 ADD PUSH1 0x0 KECCAK256 PUSH1 0x0 SWAP1 SLOAD SWAP1 PUSH2 0x100 EXP SWAP1 DIV PUSH1 0xFF AND SWAP1 POP SWAP3 SWAP2 POP POP JUMP JUMPDEST PUSH2 0x1760 DUP1 PUSH3 0x44E PUSH1 0x0 CODECOPY PUSH1 0x0 RETURN INVALID PUSH1 0x80 PUSH1 0x40 MSTORE CALLVALUE DUP1 ISZERO PUSH2 0x10 JUMPI PUSH1 0x0 DUP1 REVERT JUMPDEST POP PUSH1 0x4 CALLDATASIZE LT PUSH2 0x100 JUMPI PUSH1 0x0 CALLDATALOAD PUSH1 0xE0 SHR DUP1 PUSH4 0x64D1BA1F GT PUSH2 0x97 JUMPI DUP1 PUSH4 0x8EC4F505 GT PUSH2 0x66 JUMPI DUP1 PUSH4 0x8EC4F505 EQ PUSH2 0x25D JUMPI DUP1 PUSH4 0x8F0C86FA EQ PUSH2 0x279 JUMPI DUP1 PUSH4 0xDE63BDB9 EQ PUSH2 0x2A9 JUMPI DUP1 PUSH4 0xE34D7A07 EQ PUSH2 0x2C5 JUMPI PUSH2 0x100 JUMP JUMPDEST DUP1 PUSH4 0x64D1BA1F EQ PUSH2 0x1D7 JUMPI DUP1 PUSH4 0x7250E224 EQ PUSH2 0x207 JUMPI DUP1 PUSH4 0x834FF739 EQ PUSH2 0x223 JUMPI DUP1 PUSH4 0x8B828A08 EQ PUSH2 0x253 JUMPI PUSH2 0x100 JUMP JUMPDEST DUP1 PUSH4 0x4EA90D2D GT PUSH2 0xD3 JUMPI DUP1 PUSH4 0x4EA90D2D EQ PUSH2 0x165 JUMPI DUP1 PUSH4 0x53FB741E EQ PUSH2 0x16F JUMPI DUP1 PUSH4 0x5DA09B88 EQ PUSH2 0x18B JUMPI DUP1 PUSH4 0x5F8A5AFA EQ PUSH2 0x1BB JUMPI PUSH2 0x100 JUMP JUMPDEST DUP1 PUSH4 0x70EF987 EQ PUSH2 0x105 JUMPI DUP1 PUSH4 0x112940F9 EQ PUSH2 0x10F JUMPI DUP1 PUSH4 0x17D4A491 EQ PUSH2 0x12B JUMPI DUP1 PUSH4 0x3496C175 EQ PUSH2 0x15B JUMPI JUMPDEST PUSH1 0x0 DUP1 REVERT JUMPDEST PUSH2 0x10D PUSH2 0x2CF JUMP JUMPDEST STOP JUMPDEST PUSH2 0x129 PUSH1 0x4 DUP1 CALLDATASIZE SUB DUP2 ADD SWAP1 PUSH2 0x124 SWAP2 SWAP1 PUSH2 0x1107 JUMP JUMPDEST PUSH2 0x2E1 JUMP JUMPDEST STOP JUMPDEST PUSH2 0x145 PUSH1 0x4 DUP1 CALLDATASIZE SUB DUP2 ADD SWAP1 PUSH2 0x140 SWAP2 SWAP1 PUSH2 0x1107 JUMP JUMPDEST PUSH2 0x306 JUMP JUMPDEST PUSH1 0x40 MLOAD PUSH2 0x152 SWAP2 SWAP1 PUSH2 0x114F JUMP JUMPDEST PUSH1 0x40 MLOAD DUP1 SWAP2 SUB SWAP1 RETURN JUMPDEST PUSH2 0x163 PUSH2 0x323 JUMP JUMPDEST STOP JUMPDEST PUSH2 0x16D PUSH2 0x335 JUMP JUMPDEST STOP JUMPDEST PUSH2 0x189 PUSH1 0x4 DUP1 CALLDATASIZE SUB DUP2 ADD SWAP1 PUSH2 0x184 SWAP2 SWAP1 PUSH2 0x12E6 JUMP JUMPDEST PUSH2 0x347 JUMP JUMPDEST STOP JUMPDEST PUSH2 0x1A5 PUSH1 0x4 DUP1 CALLDATASIZE SUB DUP2 ADD SWAP1 PUSH2 0x1A0 SWAP2 SWAP1 PUSH2 0x1107 JUMP JUMPDEST PUSH2 0x8AE JUMP JUMPDEST PUSH1 0x40 MLOAD PUSH2 0x1B2 SWAP2 SWAP1 PUSH2 0x114F JUMP JUMPDEST PUSH1 0x40 MLOAD DUP1 SWAP2 SUB SWAP1 RETURN JUMPDEST PUSH2 0x1D5 PUSH1 0x4 DUP1 CALLDATASIZE SUB DUP2 ADD SWAP1 PUSH2 0x1D0 SWAP2 SWAP1 PUSH2 0x1107 JUMP JUMPDEST PUSH2 0x8CB JUMP JUMPDEST STOP JUMPDEST PUSH2 0x1F1 PUSH1 0x4 DUP1 CALLDATASIZE SUB DUP2 ADD SWAP1 PUSH2 0x1EC SWAP2 SWAP1 PUSH2 0x1107 JUMP JUMPDEST PUSH2 0x8F0 JUMP JUMPDEST PUSH1 0x40 MLOAD PUSH2 0x1FE SWAP2 SWAP1 PUSH2 0x114F JUMP JUMPDEST PUSH1 0x40 MLOAD DUP1 SWAP2 SUB SWAP1 RETURN JUMPDEST PUSH2 0x221 PUSH1 0x4 DUP1 CALLDATASIZE SUB DUP2 ADD SWAP1 PUSH2 0x21C SWAP2 SWAP1 PUSH2 0x1107 JUMP JUMPDEST PUSH2 0x90D JUMP JUMPDEST STOP JUMPDEST PUSH2 0x23D PUSH1 0x4 DUP1 CALLDATASIZE SUB DUP2 ADD SWAP1 PUSH2 0x238 SWAP2 SWAP1 PUSH2 0x1107 JUMP JUMPDEST PUSH2 0x932 JUMP JUMPDEST PUSH1 0x40 MLOAD PUSH2 0x24A SWAP2 SWAP1 PUSH2 0x114F JUMP JUMPDEST PUSH1 0x40 MLOAD DUP1 SWAP2 SUB SWAP1 RETURN JUMPDEST PUSH2 0x25B PUSH2 0x94F JUMP JUMPDEST STOP JUMPDEST PUSH2 0x277 PUSH1 0x4 DUP1 CALLDATASIZE SUB DUP2 ADD SWAP1 PUSH2 0x272 SWAP2 SWAP1 PUSH2 0x1107 JUMP JUMPDEST PUSH2 0x961 JUMP JUMPDEST STOP JUMPDEST PUSH2 0x293 PUSH1 0x4 DUP1 CALLDATASIZE SUB DUP2 ADD SWAP1 PUSH2 0x28E SWAP2 SWAP1 PUSH2 0x1107 JUMP JUMPDEST PUSH2 0x986 JUMP JUMPDEST PUSH1 0x40 MLOAD PUSH2 0x2A0 SWAP2 SWAP1 PUSH2 0x114F JUMP JUMPDEST PUSH1 0x40 MLOAD DUP1 SWAP2 SUB SWAP1 RETURN JUMPDEST PUSH2 0x2C3 PUSH1 0x4 DUP1 CALLDATASIZE SUB DUP2 ADD SWAP1 PUSH2 0x2BE SWAP2 SWAP1 PUSH2 0x1107 JUMP JUMPDEST PUSH2 0x9A3 JUMP JUMPDEST STOP JUMPDEST PUSH2 0x2CD PUSH2 0x9C8 JUMP JUMPDEST STOP JUMPDEST PUSH2 0x2DF PUSH2 0x2DA PUSH2 0xA85 JUMP JUMPDEST PUSH2 0xA8D JUMP JUMPDEST JUMP JUMPDEST PUSH2 0x2F1 PUSH2 0x2EC PUSH2 0xA85 JUMP JUMPDEST PUSH2 0x932 JUMP JUMPDEST PUSH2 0x2FA JUMPI PUSH1 0x0 DUP1 REVERT JUMPDEST PUSH2 0x303 DUP2 PUSH2 0xAE7 JUMP JUMPDEST POP JUMP JUMPDEST PUSH1 0x0 PUSH2 0x31C DUP3 PUSH1 0x0 PUSH2 0xB41 SWAP1 SWAP2 SWAP1 PUSH4 0xFFFFFFFF AND JUMP JUMPDEST SWAP1 POP SWAP2 SWAP1 POP JUMP JUMPDEST PUSH2 0x333 PUSH2 0x32E PUSH2 0xA85 JUMP JUMPDEST PUSH2 0xBD2 JUMP JUMPDEST JUMP JUMPDEST PUSH2 0x345 PUSH2 0x340 PUSH2 0xA85 JUMP JUMPDEST PUSH2 0xC2C JUMP JUMPDEST JUMP JUMPDEST PUSH2 0x357 PUSH2 0x352 PUSH2 0xA85 JUMP JUMPDEST PUSH2 0x306 JUMP JUMPDEST PUSH2 0x360 JUMPI PUSH1 0x0 DUP1 REVERT JUMPDEST PUSH1 0x0 DUP1 PUSH1 0x0 DUP1 PUSH2 0x36E PUSH2 0xF4C JUMP JUMPDEST PUSH1 0x7 SLOAD DUP2 PUSH1 0x0 ADD DUP2 DUP2 MSTORE POP POP DUP9 DUP2 PUSH1 0x20 ADD DUP2 DUP2 MSTORE POP POP PUSH2 0x38C PUSH2 0xA85 JUMP JUMPDEST DUP2 PUSH1 0x40 ADD SWAP1 PUSH20 0xFFFFFFFFFFFFFFFFFFFFFFFFFFFFFFFFFFFFFFFF AND SWAP1 DUP2 PUSH20 0xFFFFFFFFFFFFFFFFFFFFFFFFFFFFFFFFFFFFFFFF AND DUP2 MSTORE POP POP PUSH2 0x3CB PUSH2 0xA85 JUMP JUMPDEST DUP2 PUSH1 0x60 ADD SWAP1 PUSH20 0xFFFFFFFFFFFFFFFFFFFFFFFFFFFFFFFFFFFFFFFF AND SWAP1 DUP2 PUSH20 0xFFFFFFFFFFFFFFFFFFFFFFFFFFFFFFFFFFFFFFFF AND DUP2 MSTORE POP POP DUP8 DUP2 PUSH1 0x80 ADD DUP2 SWAP1 MSTORE POP DUP7 DUP2 PUSH1 0xA0 ADD DUP2 SWAP1 MSTORE POP DUP6 DUP2 PUSH2 0x100 ADD DUP2 DUP2 MSTORE POP POP TIMESTAMP DUP2 PUSH1 0xE0 ADD DUP2 DUP2 MSTORE POP POP PUSH1 0x0 DUP2 PUSH2 0x120 ADD SWAP1 PUSH1 0xD DUP2 GT ISZERO PUSH2 0x443 JUMPI PUSH2 0x442 PUSH2 0x1385 JUMP JUMPDEST JUMPDEST SWAP1 DUP2 PUSH1 0xD DUP2 GT ISZERO PUSH2 0x457 JUMPI PUSH2 0x456 PUSH2 0x1385 JUMP JUMPDEST JUMPDEST DUP2 MSTORE POP POP DUP5 DUP2 PUSH2 0x140 ADD SWAP1 PUSH20 0xFFFFFFFFFFFFFFFFFFFFFFFFFFFFFFFFFFFFFFFF AND SWAP1 DUP2 PUSH20 0xFFFFFFFFFFFFFFFFFFFFFFFFFFFFFFFFFFFFFFFF AND DUP2 MSTORE POP POP DUP4 DUP2 PUSH2 0x180 ADD SWAP1 PUSH20 0xFFFFFFFFFFFFFFFFFFFFFFFFFFFFFFFFFFFFFFFF AND SWAP1 DUP2 PUSH20 0xFFFFFFFFFFFFFFFFFFFFFFFFFFFFFFFFFFFFFFFF AND DUP2 MSTORE POP POP DUP3 DUP2 PUSH2 0x1C0 ADD SWAP1 PUSH20 0xFFFFFFFFFFFFFFFFFFFFFFFFFFFFFFFFFFFFFFFF AND SWAP1 DUP2 PUSH20 0xFFFFFFFFFFFFFFFFFFFFFFFFFFFFFFFFFFFFFFFF AND DUP2 MSTORE POP POP DUP2 DUP2 PUSH2 0x200 ADD SWAP1 PUSH20 0xFFFFFFFFFFFFFFFFFFFFFFFFFFFFFFFFFFFFFFFF AND SWAP1 DUP2 PUSH20 0xFFFFFFFFFFFFFFFFFFFFFFFFFFFFFFFFFFFFFFFF AND DUP2 MSTORE POP POP DUP1 PUSH1 0x8 PUSH1 0x0 DUP12 DUP2 MSTORE PUSH1 0x20 ADD SWAP1 DUP2 MSTORE PUSH1 0x20 ADD PUSH1 0x0 KECCAK256 PUSH1 0x0 DUP3 ADD MLOAD DUP2 PUSH1 0x0 ADD SSTORE PUSH1 0x20 DUP3 ADD MLOAD DUP2 PUSH1 0x1 ADD SSTORE PUSH1 0x40 DUP3 ADD MLOAD DUP2 PUSH1 0x2 ADD PUSH1 0x0 PUSH2 0x100 EXP DUP2 SLOAD DUP2 PUSH20 0xFFFFFFFFFFFFFFFFFFFFFFFFFFFFFFFFFFFFFFFF MUL NOT AND SWAP1 DUP4 PUSH20 0xFFFFFFFFFFFFFFFFFFFFFFFFFFFFFFFFFFFFFFFF AND MUL OR SWAP1 SSTORE POP PUSH1 0x60 DUP3 ADD MLOAD DUP2 PUSH1 0x3 ADD PUSH1 0x0 PUSH2 0x100 EXP DUP2 SLOAD DUP2 PUSH20 0xFFFFFFFFFFFFFFFFFFFFFFFFFFFFFFFFFFFFFFFF MUL NOT AND SWAP1 DUP4 PUSH20 0xFFFFFFFFFFFFFFFFFFFFFFFFFFFFFFFFFFFFFFFF AND MUL OR SWAP1 SSTORE POP PUSH1 0x80 DUP3 ADD MLOAD DUP2 PUSH1 0x4 ADD SWAP1 DUP2 PUSH2 0x60A SWAP2 SWAP1 PUSH2 0x15CB JUMP JUMPDEST POP PUSH1 0xA0 DUP3 ADD MLOAD DUP2 PUSH1 0x5 ADD SWAP1 DUP2 PUSH2 0x620 SWAP2 SWAP1 PUSH2 0x15CB JUMP JUMPDEST POP PUSH1 0xC0 DUP3 ADD MLOAD DUP2 PUSH1 0x6 ADD SSTORE PUSH1 0xE0 DUP3 ADD MLOAD DUP2 PUSH1 0x7 ADD SSTORE PUSH2 0x100 DUP3 ADD MLOAD DUP2 PUSH1 0x8 ADD SSTORE PUSH2 0x120 DUP3 ADD MLOAD DUP2 PUSH1 0x9 ADD PUSH1 0x0 PUSH2 0x100 EXP DUP2 SLOAD DUP2 PUSH1 0xFF MUL NOT AND SWAP1 DUP4 PUSH1 0xD DUP2 GT ISZERO PUSH2 0x66C JUMPI PUSH2 0x66B PUSH2 0x1385 JUMP JUMPDEST JUMPDEST MUL OR SWAP1 SSTORE POP PUSH2 0x140 DUP3 ADD MLOAD DUP2 PUSH1 0x9 ADD PUSH1 0x1 PUSH2 0x100 EXP DUP2 SLOAD DUP2 PUSH20 0xFFFFFFFFFFFFFFFFFFFFFFFFFFFFFFFFFFFFFFFF MUL NOT AND SWAP1 DUP4 PUSH20 0xFFFFFFFFFFFFFFFFFFFFFFFFFFFFFFFFFFFFFFFF AND MUL OR SWAP1 SSTORE POP PUSH2 0x160 DUP3 ADD MLOAD DUP2 PUSH1 0xA ADD SWAP1 DUP2 PUSH2 0x6CF SWAP2 SWAP1 PUSH2 0x15CB JUMP JUMPDEST POP PUSH2 0x180 DUP3 ADD MLOAD DUP2 PUSH1 0xB ADD PUSH1 0x0 PUSH2 0x100 EXP DUP2 SLOAD DUP2 PUSH20 0xFFFFFFFFFFFFFFFFFFFFFFFFFFFFFFFFFFFFFFFF MUL NOT AND SWAP1 DUP4 PUSH20 0xFFFFFFFFFFFFFFFFFFFFFFFFFFFFFFFFFFFFFFFF AND MUL OR SWAP1 SSTORE POP PUSH2 0x1A0 DUP3 ADD MLOAD DUP2 PUSH1 0xC ADD SWAP1 DUP2 PUSH2 0x72E SWAP2 SWAP1 PUSH2 0x15CB JUMP JUMPDEST POP PUSH2 0x1C0 DUP3 ADD MLOAD DUP2 PUSH1 0xD ADD PUSH1 0x0 PUSH2 0x100 EXP DUP2 SLOAD DUP2 PUSH20 0xFFFFFFFFFFFFFFFFFFFFFFFFFFFFFFFFFFFFFFFF MUL NOT AND SWAP1 DUP4 PUSH20 0xFFFFFFFFFFFFFFFFFFFFFFFFFFFFFFFFFFFFFFFF AND MUL OR SWAP1 SSTORE POP PUSH2 0x1E0 DUP3 ADD MLOAD DUP2 PUSH1 0xE ADD SWAP1 DUP2 PUSH2 0x78D SWAP2 SWAP1 PUSH2 0x15CB JUMP JUMPDEST POP PUSH2 0x200 DUP3 ADD MLOAD DUP2 PUSH1 0xF ADD PUSH1 0x0 PUSH2 0x100 EXP DUP2 SLOAD DUP2 PUSH20 0xFFFFFFFFFFFFFFFFFFFFFFFFFFFFFFFFFFFFFFFF MUL NOT AND SWAP1 DUP4 PUSH20 0xFFFFFFFFFFFFFFFFFFFFFFFFFFFFFFFFFFFFFFFF AND MUL OR SWAP1 SSTORE POP PUSH2 0x220 DUP3 ADD MLOAD DUP2 PUSH1 0x10 ADD SSTORE SWAP1 POP POP PUSH1 0x0 PUSH2 0x7EE PUSH2 0x106D JUMP JUMPDEST DUP2 DUP2 PUSH1 0x0 ADD DUP2 DUP2 MSTORE POP POP DUP2 DUP2 PUSH1 0x20 ADD DUP2 DUP2 MSTORE POP POP DUP2 DUP2 PUSH1 0x40 ADD DUP2 DUP2 MSTORE POP POP DUP2 DUP2 PUSH1 0x60 ADD DUP2 DUP2 MSTORE POP POP DUP1 PUSH1 0x9 PUSH1 0x0 DUP14 DUP2 MSTORE PUSH1 0x20 ADD SWAP1 DUP2 MSTORE PUSH1 0x20 ADD PUSH1 0x0 KECCAK256 PUSH1 0x0 DUP3 ADD MLOAD DUP2 PUSH1 0x0 ADD SSTORE PUSH1 0x20 DUP3 ADD MLOAD DUP2 PUSH1 0x1 ADD SSTORE PUSH1 0x40 DUP3 ADD MLOAD DUP2 PUSH1 0x2 ADD SSTORE PUSH1 0x60 DUP3 ADD MLOAD DUP2 PUSH1 0x3 ADD SSTORE SWAP1 POP POP PUSH1 0x1 PUSH1 0x7 SLOAD PUSH2 0x864 SWAP2 SWAP1 PUSH2 0x16CC JUMP JUMPDEST PUSH1 0x7 DUP2 SWAP1 SSTORE POP PUSH32 0xB7CACBE76FFD2319B73EE6A0F921B205BDB46926C6342D478B159EEDD699D4B6 DUP12 PUSH1 0x40 MLOAD PUSH2 0x899 SWAP2 SWAP1 PUSH2 0x170F JUMP JUMPDEST PUSH1 0x40 MLOAD DUP1 SWAP2 SUB SWAP1 LOG1 POP POP POP POP POP POP POP POP POP POP POP JUMP JUMPDEST PUSH1 0x0 PUSH2 0x8C4 DUP3 PUSH1 0x3 PUSH2 0xB41 SWAP1 SWAP2 SWAP1 PUSH4 0xFFFFFFFF AND JUMP JUMPDEST SWAP1 POP SWAP2 SWAP1 POP JUMP JUMPDEST PUSH2 0x8DB PUSH2 0x8D6 PUSH2 0xA85 JUMP JUMPDEST PUSH2 0x306 JUMP JUMPDEST PUSH2 0x8E4 JUMPI PUSH1 0x0 DUP1 REVERT JUMPDEST PUSH2 0x8ED DUP2 PUSH2 0xC86 JUMP JUMPDEST POP JUMP JUMPDEST PUSH1 0x0 PUSH2 0x906 DUP3 PUSH1 0x2 PUSH2 0xB41 SWAP1 SWAP2 SWAP1 PUSH4 0xFFFFFFFF AND JUMP JUMPDEST SWAP1 POP SWAP2 SWAP1 POP JUMP JUMPDEST PUSH2 0x91D PUSH2 0x918 PUSH2 0xA85 JUMP JUMPDEST PUSH2 0x986 JUMP JUMPDEST PUSH2 0x926 JUMPI PUSH1 0x0 DUP1 REVERT JUMPDEST PUSH2 0x92F DUP2 PUSH2 0xCE0 JUMP JUMPDEST POP JUMP JUMPDEST PUSH1 0x0 PUSH2 0x948 DUP3 PUSH1 0x4 PUSH2 0xB41 SWAP1 SWAP2 SWAP1 PUSH4 0xFFFFFFFF AND JUMP JUMPDEST SWAP1 POP SWAP2 SWAP1 POP JUMP JUMPDEST PUSH2 0x95F PUSH2 0x95A PUSH2 0xA85 JUMP JUMPDEST PUSH2 0xD3A JUMP JUMPDEST JUMP JUMPDEST PUSH2 0x971 PUSH2 0x96C PUSH2 0xA85 JUMP JUMPDEST PUSH2 0x8AE JUMP JUMPDEST PUSH2 0x97A JUMPI PUSH1 0x0 DUP1 REVERT JUMPDEST PUSH2 0x983 DUP2 PUSH2 0xD94 JUMP JUMPDEST POP JUMP JUMPDEST PUSH1 0x0 PUSH2 0x99C DUP3 PUSH1 0x1 PUSH2 0xB41 SWAP1 SWAP2 SWAP1 PUSH4 0xFFFFFFFF AND JUMP JUMPDEST SWAP1 POP SWAP2 SWAP1 POP JUMP JUMPDEST PUSH2 0x9B3 PUSH2 0x9AE PUSH2 0xA85 JUMP JUMPDEST PUSH2 0x8F0 JUMP JUMPDEST PUSH2 0x9BC JUMPI PUSH1 0x0 DUP1 REVERT JUMPDEST PUSH2 0x9C5 DUP2 PUSH2 0xDEE JUMP JUMPDEST POP JUMP JUMPDEST PUSH2 0x9D8 PUSH2 0x9D3 PUSH2 0xA85 JUMP JUMPDEST PUSH2 0xE48 JUMP JUMPDEST JUMP JUMPDEST PUSH1 0x0 PUSH20 0xFFFFFFFFFFFFFFFFFFFFFFFFFFFFFFFFFFFFFFFF AND DUP2 PUSH20 0xFFFFFFFFFFFFFFFFFFFFFFFFFFFFFFFFFFFFFFFF AND SUB PUSH2 0xA13 JUMPI PUSH1 0x0 DUP1 REVERT JUMPDEST PUSH2 0xA1D DUP3 DUP3 PUSH2 0xB41 JUMP JUMPDEST ISZERO PUSH2 0xA27 JUMPI PUSH1 0x0 DUP1 REVERT JUMPDEST PUSH1 0x1 DUP3 PUSH1 0x0 ADD PUSH1 0x0 DUP4 PUSH20 0xFFFFFFFFFFFFFFFFFFFFFFFFFFFFFFFFFFFFFFFF AND PUSH20 0xFFFFFFFFFFFFFFFFFFFFFFFFFFFFFFFFFFFFFFFF AND DUP2 MSTORE PUSH1 0x20 ADD SWAP1 DUP2 MSTORE PUSH1 0x20 ADD PUSH1 0x0 KECCAK256 PUSH1 0x0 PUSH2 0x100 EXP DUP2 SLOAD DUP2 PUSH1 0xFF MUL NOT AND SWAP1 DUP4 ISZERO ISZERO MUL OR SWAP1 SSTORE POP POP POP JUMP JUMPDEST PUSH1 0x0 CALLER SWAP1 POP SWAP1 JUMP JUMPDEST PUSH2 0xAA1 DUP2 PUSH1 0x2 PUSH2 0xEA2 SWAP1 SWAP2 SWAP1 PUSH4 0xFFFFFFFF AND JUMP JUMPDEST DUP1 PUSH20 0xFFFFFFFFFFFFFFFFFFFFFFFFFFFFFFFFFFFFFFFF AND PUSH32 0x7F865F710A7604537EB2BC0334F082FA642D210A705398937F53663384485B28 PUSH1 0x40 MLOAD PUSH1 0x40 MLOAD DUP1 SWAP2 SUB SWAP1 LOG2 POP JUMP JUMPDEST PUSH2 0xAFB DUP2 PUSH1 0x4 PUSH2 0x9DA SWAP1 SWAP2 SWAP1 PUSH4 0xFFFFFFFF AND JUMP JUMPDEST DUP1 PUSH20 0xFFFFFFFFFFFFFFFFFFFFFFFFFFFFFFFFFFFFFFFF AND PUSH32 0x28B26E7A3D20AEDBC5F8F2EBF7DA671C0491723A2B78F47A097B0E46DEE07142 PUSH1 0x40 MLOAD PUSH1 0x40 MLOAD DUP1 SWAP2 SUB SWAP1 LOG2 POP JUMP JUMPDEST PUSH1 0x0 DUP1 PUSH20 0xFFFFFFFFFFFFFFFFFFFFFFFFFFFFFFFFFFFFFFFF AND DUP3 PUSH20 0xFFFFFFFFFFFFFFFFFFFFFFFFFFFFFFFFFFFFFFFF AND SUB PUSH2 0xB7B JUMPI PUSH1 0x0 DUP1 REVERT JUMPDEST DUP3 PUSH1 0x0 ADD PUSH1 0x0 DUP4 PUSH20 0xFFFFFFFFFFFFFFFFFFFFFFFFFFFFFFFFFFFFFFFF AND PUSH20 0xFFFFFFFFFFFFFFFFFFFFFFFFFFFFFFFFFFFFFFFF AND DUP2 MSTORE PUSH1 0x20 ADD SWAP1 DUP2 MSTORE PUSH1 0x20 ADD PUSH1 0x0 KECCAK256 PUSH1 0x0 SWAP1 SLOAD SWAP1 PUSH2 0x100 EXP SWAP1 DIV PUSH1 0xFF AND SWAP1 POP SWAP3 SWAP2 POP POP JUMP JUMPDEST PUSH2 0xBE6 DUP2 PUSH1 0x4 PUSH2 0xEA2 SWAP1 SWAP2 SWAP1 PUSH4 0xFFFFFFFF AND JUMP JUMPDEST DUP1 PUSH20 0xFFFFFFFFFFFFFFFFFFFFFFFFFFFFFFFFFFFFFFFF AND PUSH32 0xE3F5ED5F263F1F01764A96EDFC7D025F511EC5F7D180E8816908B78BCF74F098 PUSH1 0x40 MLOAD PUSH1 0x40 MLOAD DUP1 SWAP2 SUB SWAP1 LOG2 POP JUMP JUMPDEST PUSH2 0xC40 DUP2 PUSH1 0x1 PUSH2 0xEA2 SWAP1 SWAP2 SWAP1 PUSH4 0xFFFFFFFF AND JUMP JUMPDEST DUP1 PUSH20 0xFFFFFFFFFFFFFFFFFFFFFFFFFFFFFFFFFFFFFFFF AND PUSH32 0x126174F6CF49C81CDB4A9214C6B8F037BEF55B4EC31E4FC776CEA2A1C8A88D59 PUSH1 0x40 MLOAD PUSH1 0x40 MLOAD DUP1 SWAP2 SUB SWAP1 LOG2 POP JUMP JUMPDEST PUSH2 0xC9A DUP2 PUSH1 0x0 PUSH2 0x9DA SWAP1 SWAP2 SWAP1 PUSH4 0xFFFFFFFF AND JUMP JUMPDEST DUP1 PUSH20 0xFFFFFFFFFFFFFFFFFFFFFFFFFFFFFFFFFFFFFFFF AND PUSH32 0x561138658CA49A8540DC70DCFE64C9026C1C5B9344642242DD6562970F9C1278 PUSH1 0x40 MLOAD PUSH1 0x40 MLOAD DUP1 SWAP2 SUB SWAP1 LOG2 POP JUMP JUMPDEST PUSH2 0xCF4 DUP2 PUSH1 0x1 PUSH2 0x9DA SWAP1 SWAP2 SWAP1 PUSH4 0xFFFFFFFF AND JUMP JUMPDEST DUP1 PUSH20 0xFFFFFFFFFFFFFFFFFFFFFFFFFFFFFFFFFFFFFFFF AND PUSH32 0xDDBF200AA634DC3FB81CFD68583DD1040D1C751D335E1D86B631BDE3E977FEA8 PUSH1 0x40 MLOAD PUSH1 0x40 MLOAD DUP1 SWAP2 SUB SWAP1 LOG2 POP JUMP JUMPDEST PUSH2 0xD4E DUP2 PUSH1 0x0 PUSH2 0xEA2 SWAP1 SWAP2 SWAP1 PUSH4 0xFFFFFFFF AND JUMP JUMPDEST DUP1 PUSH20 0xFFFFFFFFFFFFFFFFFFFFFFFFFFFFFFFFFFFFFFFF AND PUSH32 0x2FED5ABF6A80D6DFE30B4895481B2FC5D7DCE5F8F7B931832F4A2947D5040C7F PUSH1 0x40 MLOAD PUSH1 0x40 MLOAD DUP1 SWAP2 SUB SWAP1 LOG2 POP JUMP JUMPDEST PUSH2 0xDA8 DUP2 PUSH1 0x3 PUSH2 0x9DA SWAP1 SWAP2 SWAP1 PUSH4 0xFFFFFFFF AND JUMP JUMPDEST DUP1 PUSH20 0xFFFFFFFFFFFFFFFFFFFFFFFFFFFFFFFFFFFFFFFF AND PUSH32 0x71AE26CAD02663E3D92EFD6EC56031A80D74A20C0AB4183FAA8BF262261C9BAA PUSH1 0x40 MLOAD PUSH1 0x40 MLOAD DUP1 SWAP2 SUB SWAP1 LOG2 POP JUMP JUMPDEST PUSH2 0xE02 DUP2 PUSH1 0x2 PUSH2 0x9DA SWAP1 SWAP2 SWAP1 PUSH4 0xFFFFFFFF AND JUMP JUMPDEST DUP1 PUSH20 0xFFFFFFFFFFFFFFFFFFFFFFFFFFFFFFFFFFFFFFFF AND PUSH32 0xD8A7AD7929975A375D2B12BF49040286B5B105DF0FE351F10DF6D85E5B7142F7 PUSH1 0x40 MLOAD PUSH1 0x40 MLOAD DUP1 SWAP2 SUB SWAP1 LOG2 POP JUMP JUMPDEST PUSH2 0xE5C DUP2 PUSH1 0x3 PUSH2 0xEA2 SWAP1 SWAP2 SWAP1 PUSH4 0xFFFFFFFF AND JUMP JUMPDEST DUP1 PUSH20 0xFFFFFFFFFFFFFFFFFFFFFFFFFFFFFFFFFFFFFFFF AND PUSH32 0xDB7176E79CFFEF81CB01767DD0447A0B24BB72CA9778D4B245581086B2A7E6DB PUSH1 0x40 MLOAD PUSH1 0x40 MLOAD DUP1 SWAP2 SUB SWAP1 LOG2 POP JUMP JUMPDEST PUSH1 0x0 PUSH20 0xFFFFFFFFFFFFFFFFFFFFFFFFFFFFFFFFFFFFFFFF AND DUP2 PUSH20 0xFFFFFFFFFFFFFFFFFFFFFFFFFFFFFFFFFFFFFFFF AND SUB PUSH2 0xEDB JUMPI PUSH1 0x0 DUP1 REVERT JUMPDEST PUSH2 0xEE5 DUP3 DUP3 PUSH2 0xB41 JUMP JUMPDEST PUSH2 0xEEE JUMPI PUSH1 0x0 DUP1 REVERT JUMPDEST PUSH1 0x0 DUP3 PUSH1 0x0 ADD PUSH1 0x0 DUP4 PUSH20 0xFFFFFFFFFFFFFFFFFFFFFFFFFFFFFFFFFFFFFFFF AND PUSH20 0xFFFFFFFFFFFFFFFFFFFFFFFFFFFFFFFFFFFFFFFF AND DUP2 MSTORE PUSH1 0x20 ADD SWAP1 DUP2 MSTORE PUSH1 0x20 ADD PUSH1 0x0 KECCAK256 PUSH1 0x0 PUSH2 0x100 EXP DUP2 SLOAD DUP2 PUSH1 0xFF MUL NOT AND SWAP1 DUP4 ISZERO ISZERO MUL OR SWAP1 SSTORE POP POP POP JUMP JUMPDEST PUSH1 0x40 MLOAD DUP1 PUSH2 0x240 ADD PUSH1 0x40 MSTORE DUP1 PUSH1 0x0 DUP2 MSTORE PUSH1 0x20 ADD PUSH1 0x0 DUP2 MSTORE PUSH1 0x20 ADD PUSH1 0x0 PUSH20 0xFFFFFFFFFFFFFFFFFFFFFFFFFFFFFFFFFFFFFFFF AND DUP2 MSTORE PUSH1 0x20 ADD PUSH1 0x0 PUSH20 0xFFFFFFFFFFFFFFFFFFFFFFFFFFFFFFFFFFFFFFFF AND DUP2 MSTORE PUSH1 0x20 ADD PUSH1 0x60 DUP2 MSTORE PUSH1 0x20 ADD PUSH1 0x60 DUP2 MSTORE PUSH1 0x20 ADD PUSH1 0x0 DUP2 MSTORE PUSH1 0x20 ADD PUSH1 0x0 DUP2 MSTORE PUSH1 0x20 ADD PUSH1 0x0 DUP2 MSTORE PUSH1 0x20 ADD PUSH1 0x0 PUSH1 0xD DUP2 GT ISZERO PUSH2 0xFD7 JUMPI PUSH2 0xFD6 PUSH2 0x1385 JUMP JUMPDEST JUMPDEST DUP2 MSTORE PUSH1 0x20 ADD PUSH1 0x0 PUSH20 0xFFFFFFFFFFFFFFFFFFFFFFFFFFFFFFFFFFFFFFFF AND DUP2 MSTORE PUSH1 0x20 ADD PUSH1 0x60 DUP2 MSTORE PUSH1 0x20 ADD PUSH1 0x0 PUSH20 0xFFFFFFFFFFFFFFFFFFFFFFFFFFFFFFFFFFFFFFFF AND DUP2 MSTORE PUSH1 0x20 ADD PUSH1 0x60 DUP2 MSTORE PUSH1 0x20 ADD PUSH1 0x0 PUSH20 0xFFFFFFFFFFFFFFFFFFFFFFFFFFFFFFFFFFFFFFFF AND DUP2 MSTORE PUSH1 0x20 ADD PUSH1 0x60 DUP2 MSTORE PUSH1 0x20 ADD PUSH1 0x0 PUSH20 0xFFFFFFFFFFFFFFFFFFFFFFFFFFFFFFFFFFFFFFFF AND DUP2 MSTORE PUSH1 0x20 ADD PUSH1 0x0 DUP2 MSTORE POP SWAP1 JUMP JUMPDEST PUSH1 0x40 MLOAD DUP1 PUSH1 0x80 ADD PUSH1 0x40 MSTORE DUP1 PUSH1 0x0 DUP2 MSTORE PUSH1 0x20 ADD PUSH1 0x0 DUP2 MSTORE PUSH1 0x20 ADD PUSH1 0x0 DUP2 MSTORE PUSH1 0x20 ADD PUSH1 0x0 DUP2 MSTORE POP SWAP1 JUMP JUMPDEST PUSH1 0x0 PUSH1 0x40 MLOAD SWAP1 POP SWAP1 JUMP JUMPDEST PUSH1 0x0 DUP1 REVERT JUMPDEST PUSH1 0x0 DUP1 REVERT JUMPDEST PUSH1 0x0 PUSH20 0xFFFFFFFFFFFFFFFFFFFFFFFFFFFFFFFFFFFFFFFF DUP3 AND SWAP1 POP SWAP2 SWAP1 POP JUMP JUMPDEST PUSH1 0x0 PUSH2 0x10D4 DUP3 PUSH2 0x10A9 JUMP JUMPDEST SWAP1 POP SWAP2 SWAP1 POP JUMP JUMPDEST PUSH2 0x10E4 DUP2 PUSH2 0x10C9 JUMP JUMPDEST DUP2 EQ PUSH2 0x10EF JUMPI PUSH1 0x0 DUP1 REVERT JUMPDEST POP JUMP JUMPDEST PUSH1 0x0 DUP2 CALLDATALOAD SWAP1 POP PUSH2 0x1101 DUP2 PUSH2 0x10DB JUMP JUMPDEST SWAP3 SWAP2 POP POP JUMP JUMPDEST PUSH1 0x0 PUSH1 0x20 DUP3 DUP5 SUB SLT ISZERO PUSH2 0x111D JUMPI PUSH2 0x111C PUSH2 0x109F JUMP JUMPDEST JUMPDEST PUSH1 0x0 PUSH2 0x112B DUP5 DUP3 DUP6 ADD PUSH2 0x10F2 JUMP JUMPDEST SWAP2 POP POP SWAP3 SWAP2 POP POP JUMP JUMPDEST PUSH1 0x0 DUP2 ISZERO ISZERO SWAP1 POP SWAP2 SWAP1 POP JUMP JUMPDEST PUSH2 0x1149 DUP2 PUSH2 0x1134 JUMP JUMPDEST DUP3 MSTORE POP POP JUMP JUMPDEST PUSH1 0x0 PUSH1 0x20 DUP3 ADD SWAP1 POP PUSH2 0x1164 PUSH1 0x0 DUP4 ADD DUP5 PUSH2 0x1140 JUMP JUMPDEST SWAP3 SWAP2 POP POP JUMP JUMPDEST PUSH1 0x0 DUP2 SWAP1 POP SWAP2 SWAP1 POP JUMP JUMPDEST PUSH2 0x117D DUP2 PUSH2 0x116A JUMP JUMPDEST DUP2 EQ PUSH2 0x1188 JUMPI PUSH1 0x0 DUP1 REVERT JUMPDEST POP JUMP JUMPDEST PUSH1 0x0 DUP2 CALLDATALOAD SWAP1 POP PUSH2 0x119A DUP2 PUSH2 0x1174 JUMP JUMPDEST SWAP3 SWAP2 POP POP JUMP JUMPDEST PUSH1 0x0 DUP1 REVERT JUMPDEST PUSH1 0x0 DUP1 REVERT JUMPDEST PUSH1 0x0 PUSH1 0x1F NOT PUSH1 0x1F DUP4 ADD AND SWAP1 POP SWAP2 SWAP1 POP JUMP JUMPDEST PUSH32 0x4E487B7100000000000000000000000000000000000000000000000000000000 PUSH1 0x0 MSTORE PUSH1 0x41 PUSH1 0x4 MSTORE PUSH1 0x24 PUSH1 0x0 REVERT JUMPDEST PUSH2 0x11F3 DUP3 PUSH2 0x11AA JUMP JUMPDEST DUP2 ADD DUP2 DUP2 LT PUSH8 0xFFFFFFFFFFFFFFFF DUP3 GT OR ISZERO PUSH2 0x1212 JUMPI PUSH2 0x1211 PUSH2 0x11BB JUMP JUMPDEST JUMPDEST DUP1 PUSH1 0x40 MSTORE POP POP POP JUMP JUMPDEST PUSH1 0x0 PUSH2 0x1225 PUSH2 0x1095 JUMP JUMPDEST SWAP1 POP PUSH2 0x1231 DUP3 DUP3 PUSH2 0x11EA JUMP JUMPDEST SWAP2 SWAP1 POP JUMP JUMPDEST PUSH1 0x0 PUSH8 0xFFFFFFFFFFFFFFFF DUP3 GT ISZERO PUSH2 0x1251 JUMPI PUSH2 0x1250 PUSH2 0x11BB JUMP JUMPDEST JUMPDEST PUSH2 0x125A DUP3 PUSH2 0x11AA JUMP JUMPDEST SWAP1 POP PUSH1 0x20 DUP2 ADD SWAP1 POP SWAP2 SWAP1 POP JUMP JUMPDEST DUP3 DUP2 DUP4 CALLDATACOPY PUSH1 0x0 DUP4 DUP4 ADD MSTORE POP POP POP JUMP JUMPDEST PUSH1 0x0 PUSH2 0x1289 PUSH2 0x1284 DUP5 PUSH2 0x1236 JUMP JUMPDEST PUSH2 0x121B JUMP JUMPDEST SWAP1 POP DUP3 DUP2 MSTORE PUSH1 0x20 DUP2 ADD DUP5 DUP5 DUP5 ADD GT ISZERO PUSH2 0x12A5 JUMPI PUSH2 0x12A4 PUSH2 0x11A5 JUMP JUMPDEST JUMPDEST PUSH2 0x12B0 DUP5 DUP3 DUP6 PUSH2 0x1267 JUMP JUMPDEST POP SWAP4 SWAP3 POP POP POP JUMP JUMPDEST PUSH1 0x0 DUP3 PUSH1 0x1F DUP4 ADD SLT PUSH2 0x12CD JUMPI PUSH2 0x12CC PUSH2 0x11A0 JUMP JUMPDEST JUMPDEST DUP2 CALLDATALOAD PUSH2 0x12DD DUP5 DUP3 PUSH1 0x20 DUP7 ADD PUSH2 0x1276 JUMP JUMPDEST SWAP2 POP POP SWAP3 SWAP2 POP POP JUMP JUMPDEST PUSH1 0x0 DUP1 PUSH1 0x0 DUP1 PUSH1 0x80 DUP6 DUP8 SUB SLT ISZERO PUSH2 0x1300 JUMPI PUSH2 0x12FF PUSH2 0x109F JUMP JUMPDEST JUMPDEST PUSH1 0x0 PUSH2 0x130E DUP8 DUP3 DUP9 ADD PUSH2 0x118B JUMP JUMPDEST SWAP5 POP POP PUSH1 0x20 DUP6 ADD CALLDATALOAD PUSH8 0xFFFFFFFFFFFFFFFF DUP2 GT ISZERO PUSH2 0x132F JUMPI PUSH2 0x132E PUSH2 0x10A4 JUMP JUMPDEST JUMPDEST PUSH2 0x133B DUP8 DUP3 DUP9 ADD PUSH2 0x12B8 JUMP JUMPDEST SWAP4 POP POP PUSH1 0x40 DUP6 ADD CALLDATALOAD PUSH8 0xFFFFFFFFFFFFFFFF DUP2 GT ISZERO PUSH2 0x135C JUMPI PUSH2 0x135B PUSH2 0x10A4 JUMP JUMPDEST JUMPDEST PUSH2 0x1368 DUP8 DUP3 DUP9 ADD PUSH2 0x12B8 JUMP JUMPDEST SWAP3 POP POP PUSH1 0x60 PUSH2 0x1379 DUP8 DUP3 DUP9 ADD PUSH2 0x118B JUMP JUMPDEST SWAP2 POP POP SWAP3 SWAP6 SWAP2 SWAP5 POP SWAP3 POP JUMP JUMPDEST PUSH32 0x4E487B7100000000000000000000000000000000000000000000000000000000 PUSH1 0x0 MSTORE PUSH1 0x21 PUSH1 0x4 MSTORE PUSH1 0x24 PUSH1 0x0 REVERT JUMPDEST PUSH1 0x0 DUP2 MLOAD SWAP1 POP SWAP2 SWAP1 POP JUMP JUMPDEST PUSH32 0x4E487B7100000000000000000000000000000000000000000000000000000000 PUSH1 0x0 MSTORE PUSH1 0x22 PUSH1 0x4 MSTORE PUSH1 0x24 PUSH1 0x0 REVERT JUMPDEST PUSH1 0x0 PUSH1 0x2 DUP3 DIV SWAP1 POP PUSH1 0x1 DUP3 AND DUP1 PUSH2 0x1406 JUMPI PUSH1 0x7F DUP3 AND SWAP2 POP JUMPDEST PUSH1 0x20 DUP3 LT DUP2 SUB PUSH2 0x1419 JUMPI PUSH2 0x1418 PUSH2 0x13BF JUMP JUMPDEST JUMPDEST POP SWAP2 SWAP1 POP JUMP JUMPDEST PUSH1 0x0 DUP2 SWAP1 POP DUP2 PUSH1 0x0 MSTORE PUSH1 0x20 PUSH1 0x0 KECCAK256 SWAP1 POP SWAP2 SWAP1 POP JUMP JUMPDEST PUSH1 0x0 PUSH1 0x20 PUSH1 0x1F DUP4 ADD DIV SWAP1 POP SWAP2 SWAP1 POP JUMP JUMPDEST PUSH1 0x0 DUP3 DUP3 SHL SWAP1 POP SWAP3 SWAP2 POP POP JUMP JUMPDEST PUSH1 0x0 PUSH1 0x8 DUP4 MUL PUSH2 0x1481 PUSH32 0xFFFFFFFFFFFFFFFFFFFFFFFFFFFFFFFFFFFFFFFFFFFFFFFFFFFFFFFFFFFFFFFF DUP3 PUSH2 0x1444 JUMP JUMPDEST PUSH2 0x148B DUP7 DUP4 PUSH2 0x1444 JUMP JUMPDEST SWAP6 POP DUP1 NOT DUP5 AND SWAP4 POP DUP1 DUP7 AND DUP5 OR SWAP3 POP POP POP SWAP4 SWAP3 POP POP POP JUMP JUMPDEST PUSH1 0x0 DUP2 SWAP1 POP SWAP2 SWAP1 POP JUMP JUMPDEST PUSH1 0x0 PUSH2 0x14C8 PUSH2 0x14C3 PUSH2 0x14BE DUP5 PUSH2 0x116A JUMP JUMPDEST PUSH2 0x14A3 JUMP JUMPDEST PUSH2 0x116A JUMP JUMPDEST SWAP1 POP SWAP2 SWAP1 POP JUMP JUMPDEST PUSH1 0x0 DUP2 SWAP1 POP SWAP2 SWAP1 POP JUMP JUMPDEST PUSH2 0x14E2 DUP4 PUSH2 0x14AD JUMP JUMPDEST PUSH2 0x14F6 PUSH2 0x14EE DUP3 PUSH2 0x14CF JUMP JUMPDEST DUP5 DUP5 SLOAD PUSH2 0x1451 JUMP JUMPDEST DUP3 SSTORE POP POP POP POP JUMP JUMPDEST PUSH1 0x0 SWAP1 JUMP JUMPDEST PUSH2 0x150B PUSH2 0x14FE JUMP JUMPDEST PUSH2 0x1516 DUP2 DUP5 DUP5 PUSH2 0x14D9 JUMP JUMPDEST POP POP POP JUMP JUMPDEST JUMPDEST DUP2 DUP2 LT ISZERO PUSH2 0x153A JUMPI PUSH2 0x152F PUSH1 0x0 DUP3 PUSH2 0x1503 JUMP JUMPDEST PUSH1 0x1 DUP2 ADD SWAP1 POP PUSH2 0x151C JUMP JUMPDEST POP POP JUMP JUMPDEST PUSH1 0x1F DUP3 GT ISZERO PUSH2 0x157F JUMPI PUSH2 0x1550 DUP2 PUSH2 0x141F JUMP JUMPDEST PUSH2 0x1559 DUP5 PUSH2 0x1434 JUMP JUMPDEST DUP2 ADD PUSH1 0x20 DUP6 LT ISZERO PUSH2 0x1568 JUMPI DUP2 SWAP1 POP JUMPDEST PUSH2 0x157C PUSH2 0x1574 DUP6 PUSH2 0x1434 JUMP JUMPDEST DUP4 ADD DUP3 PUSH2 0x151B JUMP JUMPDEST POP POP JUMPDEST POP POP POP JUMP JUMPDEST PUSH1 0x0 DUP3 DUP3 SHR SWAP1 POP SWAP3 SWAP2 POP POP JUMP JUMPDEST PUSH1 0x0 PUSH2 0x15A2 PUSH1 0x0 NOT DUP5 PUSH1 0x8 MUL PUSH2 0x1584 JUMP JUMPDEST NOT DUP1 DUP4 AND SWAP2 POP POP SWAP3 SWAP2 POP POP JUMP JUMPDEST PUSH1 0x0 PUSH2 0x15BB DUP4 DUP4 PUSH2 0x1591 JUMP JUMPDEST SWAP2 POP DUP3 PUSH1 0x2 MUL DUP3 OR SWAP1 POP SWAP3 SWAP2 POP POP JUMP JUMPDEST PUSH2 0x15D4 DUP3 PUSH2 0x13B4 JUMP JUMPDEST PUSH8 0xFFFFFFFFFFFFFFFF DUP2 GT ISZERO PUSH2 0x15ED JUMPI PUSH2 0x15EC PUSH2 0x11BB JUMP JUMPDEST JUMPDEST PUSH2 0x15F7 DUP3 SLOAD PUSH2 0x13EE JUMP JUMPDEST PUSH2 0x1602 DUP3 DUP3 DUP6 PUSH2 0x153E JUMP JUMPDEST PUSH1 0x0 PUSH1 0x20 SWAP1 POP PUSH1 0x1F DUP4 GT PUSH1 0x1 DUP2 EQ PUSH2 0x1635 JUMPI PUSH1 0x0 DUP5 ISZERO PUSH2 0x1623 JUMPI DUP3 DUP8 ADD MLOAD SWAP1 POP JUMPDEST PUSH2 0x162D DUP6 DUP3 PUSH2 0x15AF JUMP JUMPDEST DUP7 SSTORE POP PUSH2 0x1695 JUMP JUMPDEST PUSH1 0x1F NOT DUP5 AND PUSH2 0x1643 DUP7 PUSH2 0x141F JUMP JUMPDEST PUSH1 0x0 JUMPDEST DUP3 DUP2 LT ISZERO PUSH2 0x166B JUMPI DUP5 DUP10 ADD MLOAD DUP3 SSTORE PUSH1 0x1 DUP3 ADD SWAP2 POP PUSH1 0x20 DUP6 ADD SWAP5 POP PUSH1 0x20 DUP2 ADD SWAP1 POP PUSH2 0x1646 JUMP JUMPDEST DUP7 DUP4 LT ISZERO PUSH2 0x1688 JUMPI DUP5 DUP10 ADD MLOAD PUSH2 0x1684 PUSH1 0x1F DUP10 AND DUP3 PUSH2 0x1591 JUMP JUMPDEST DUP4 SSTORE POP JUMPDEST PUSH1 0x1 PUSH1 0x2 DUP9 MUL ADD DUP9 SSTORE POP POP POP JUMPDEST POP POP POP POP POP POP JUMP JUMPDEST PUSH32 0x4E487B7100000000000000000000000000000000000000000000000000000000 PUSH1 0x0 MSTORE PUSH1 0x11 PUSH1 0x4 MSTORE PUSH1 0x24 PUSH1 0x0 REVERT JUMPDEST PUSH1 0x0 PUSH2 0x16D7 DUP3 PUSH2 0x116A JUMP JUMPDEST SWAP2 POP PUSH2 0x16E2 DUP4 PUSH2 0x116A JUMP JUMPDEST SWAP3 POP DUP3 DUP3 ADD SWAP1 POP DUP1 DUP3 GT ISZERO PUSH2 0x16FA JUMPI PUSH2 0x16F9 PUSH2 0x169D JUMP JUMPDEST JUMPDEST SWAP3 SWAP2 POP POP JUMP JUMPDEST PUSH2 0x1709 DUP2 PUSH2 0x116A JUMP JUMPDEST DUP3 MSTORE POP POP JUMP JUMPDEST PUSH1 0x0 PUSH1 0x20 DUP3 ADD SWAP1 POP PUSH2 0x1724 PUSH1 0x0 DUP4 ADD DUP5 PUSH2 0x1700 JUMP JUMPDEST SWAP3 SWAP2 POP POP JUMP INVALID LOG2 PUSH5 0x6970667358 0x22 SLT KECCAK256 PUSH4 0xA0A8BE3F 0xE9 DUP16 0xA7 0xE0 PUSH6 0xA4F90BF32D5C 0xD3 PUSH17 0x742E7D4409483D8C4DFA00CD6E364736F PUSH13 0x63430008120033000000000000 "
				},
				"gasEstimates": {
					"creation": {
						"codeDepositCost": "1196800",
						"executionCost": "infinite",
						"totalCost": "infinite"
					},
					"external": {
						"MedicineProducedByManufacturer(uint256,string,string,uint256)": "infinite",
						"addConsumer(address)": "infinite",
						"addDistributor(address)": "infinite",
						"addManufacturer(address)": "infinite",
						"addRetailer(address)": "infinite",
						"addWholesaler(address)": "infinite",
						"isConsumer(address)": "infinite",
						"isDistributor(address)": "infinite",
						"isManufacturer(address)": "infinite",
						"isRetailer(address)": "infinite",
						"isWholesaler(address)": "infinite",
						"renouceConsumer()": "infinite",
						"renouceDistributor()": "infinite",
						"renouceManufaturer()": "infinite",
						"renouceRetailer()": "infinite",
						"renouceWholesaler()": "infinite"
					}
				},
				"methodIdentifiers": {
					"MedicineProducedByManufacturer(uint256,string,string,uint256)": "53fb741e",
					"addConsumer(address)": "112940f9",
					"addDistributor(address)": "7250e224",
					"addManufacturer(address)": "5f8a5afa",
					"addRetailer(address)": "8ec4f505",
					"addWholesaler(address)": "de63bdb9",
					"isConsumer(address)": "834ff739",
					"isDistributor(address)": "8f0c86fa",
					"isManufacturer(address)": "17d4a491",
					"isRetailer(address)": "5da09b88",
					"isWholesaler(address)": "64d1ba1f",
					"renouceConsumer()": "3496c175",
					"renouceDistributor()": "4ea90d2d",
					"renouceManufaturer()": "8b828a08",
					"renouceRetailer()": "e34d7a07",
					"renouceWholesaler()": "070ef987"
				}
			},
			"storageLayout": {
				"storage": [
					{
						"astId": 236,
						"contract": "Supplychain/Supplychain.sol:Supplychain",
						"label": "manufacturers",
						"offset": 0,
						"slot": "0",
						"type": "t_struct(Role)438_storage"
					},
					{
						"astId": 128,
						"contract": "Supplychain/Supplychain.sol:Supplychain",
						"label": "distributors",
						"offset": 0,
						"slot": "1",
						"type": "t_struct(Role)438_storage"
					},
					{
						"astId": 554,
						"contract": "Supplychain/Supplychain.sol:Supplychain",
						"label": "wholesalers",
						"offset": 0,
						"slot": "2",
						"type": "t_struct(Role)438_storage"
					},
					{
						"astId": 344,
						"contract": "Supplychain/Supplychain.sol:Supplychain",
						"label": "retailers",
						"offset": 0,
						"slot": "3",
						"type": "t_struct(Role)438_storage"
					},
					{
						"astId": 20,
						"contract": "Supplychain/Supplychain.sol:Supplychain",
						"label": "consumers",
						"offset": 0,
						"slot": "4",
						"type": "t_struct(Role)438_storage"
					},
					{
						"astId": 781,
						"contract": "Supplychain/Supplychain.sol:Supplychain",
						"label": "owner",
						"offset": 0,
						"slot": "5",
						"type": "t_address"
					},
					{
						"astId": 783,
						"contract": "Supplychain/Supplychain.sol:Supplychain",
						"label": "MedicineCode",
						"offset": 0,
						"slot": "6",
						"type": "t_uint256"
					},
					{
						"astId": 785,
						"contract": "Supplychain/Supplychain.sol:Supplychain",
						"label": "StockUnit",
						"offset": 0,
						"slot": "7",
						"type": "t_uint256"
					},
					{
						"astId": 790,
						"contract": "Supplychain/Supplychain.sol:Supplychain",
						"label": "medicines",
						"offset": 0,
						"slot": "8",
						"type": "t_mapping(t_uint256,t_struct(Medicine)853_storage)"
					},
					{
						"astId": 795,
						"contract": "Supplychain/Supplychain.sol:Supplychain",
						"label": "medicinesHistory",
						"offset": 0,
						"slot": "9",
						"type": "t_mapping(t_uint256,t_struct(Txblocks)862_storage)"
					}
				],
				"types": {
					"t_address": {
						"encoding": "inplace",
						"label": "address",
						"numberOfBytes": "20"
					},
					"t_bool": {
						"encoding": "inplace",
						"label": "bool",
						"numberOfBytes": "1"
					},
					"t_enum(state)810": {
						"encoding": "inplace",
						"label": "enum Supplychain.state",
						"numberOfBytes": "1"
					},
					"t_mapping(t_address,t_bool)": {
						"encoding": "mapping",
						"key": "t_address",
						"label": "mapping(address => bool)",
						"numberOfBytes": "32",
						"value": "t_bool"
					},
					"t_mapping(t_uint256,t_struct(Medicine)853_storage)": {
						"encoding": "mapping",
						"key": "t_uint256",
						"label": "mapping(uint256 => struct Supplychain.Medicine)",
						"numberOfBytes": "32",
						"value": "t_struct(Medicine)853_storage"
					},
					"t_mapping(t_uint256,t_struct(Txblocks)862_storage)": {
						"encoding": "mapping",
						"key": "t_uint256",
						"label": "mapping(uint256 => struct Supplychain.Txblocks)",
						"numberOfBytes": "32",
						"value": "t_struct(Txblocks)862_storage"
					},
					"t_string_storage": {
						"encoding": "bytes",
						"label": "string",
						"numberOfBytes": "32"
					},
					"t_struct(Medicine)853_storage": {
						"encoding": "inplace",
						"label": "struct Supplychain.Medicine",
						"members": [
							{
								"astId": 817,
								"contract": "Supplychain/Supplychain.sol:Supplychain",
								"label": "stockUnit",
								"offset": 0,
								"slot": "0",
								"type": "t_uint256"
							},
							{
								"astId": 819,
								"contract": "Supplychain/Supplychain.sol:Supplychain",
								"label": "MedicineCode",
								"offset": 0,
								"slot": "1",
								"type": "t_uint256"
							},
							{
								"astId": 821,
								"contract": "Supplychain/Supplychain.sol:Supplychain",
								"label": "ownerID",
								"offset": 0,
								"slot": "2",
								"type": "t_address"
							},
							{
								"astId": 823,
								"contract": "Supplychain/Supplychain.sol:Supplychain",
								"label": "ManufacturerID",
								"offset": 0,
								"slot": "3",
								"type": "t_address"
							},
							{
								"astId": 825,
								"contract": "Supplychain/Supplychain.sol:Supplychain",
								"label": "ManufacturerName",
								"offset": 0,
								"slot": "4",
								"type": "t_string_storage"
							},
							{
								"astId": 827,
								"contract": "Supplychain/Supplychain.sol:Supplychain",
								"label": "ManufacturerInfo",
								"offset": 0,
								"slot": "5",
								"type": "t_string_storage"
							},
							{
								"astId": 829,
								"contract": "Supplychain/Supplychain.sol:Supplychain",
								"label": "MedicineID",
								"offset": 0,
								"slot": "6",
								"type": "t_uint256"
							},
							{
								"astId": 831,
								"contract": "Supplychain/Supplychain.sol:Supplychain",
								"label": "ManufacturingDate",
								"offset": 0,
								"slot": "7",
								"type": "t_uint256"
							},
							{
								"astId": 833,
								"contract": "Supplychain/Supplychain.sol:Supplychain",
								"label": "MedicinePrice",
								"offset": 0,
								"slot": "8",
								"type": "t_uint256"
							},
							{
								"astId": 836,
								"contract": "Supplychain/Supplychain.sol:Supplychain",
								"label": "MedicineState",
								"offset": 0,
								"slot": "9",
								"type": "t_enum(state)810"
							},
							{
								"astId": 838,
								"contract": "Supplychain/Supplychain.sol:Supplychain",
								"label": "DistributorID",
								"offset": 1,
								"slot": "9",
								"type": "t_address"
							},
							{
								"astId": 840,
								"contract": "Supplychain/Supplychain.sol:Supplychain",
								"label": "DistributorInfo",
								"offset": 0,
								"slot": "10",
								"type": "t_string_storage"
							},
							{
								"astId": 842,
								"contract": "Supplychain/Supplychain.sol:Supplychain",
								"label": "WholesalerID",
								"offset": 0,
								"slot": "11",
								"type": "t_address"
							},
							{
								"astId": 844,
								"contract": "Supplychain/Supplychain.sol:Supplychain",
								"label": "WholesalerInfo",
								"offset": 0,
								"slot": "12",
								"type": "t_string_storage"
							},
							{
								"astId": 846,
								"contract": "Supplychain/Supplychain.sol:Supplychain",
								"label": "RetailerID",
								"offset": 0,
								"slot": "13",
								"type": "t_address"
							},
							{
								"astId": 848,
								"contract": "Supplychain/Supplychain.sol:Supplychain",
								"label": "RetailerInfo",
								"offset": 0,
								"slot": "14",
								"type": "t_string_storage"
							},
							{
								"astId": 850,
								"contract": "Supplychain/Supplychain.sol:Supplychain",
								"label": "ConsumerID",
								"offset": 0,
								"slot": "15",
								"type": "t_address"
							},
							{
								"astId": 852,
								"contract": "Supplychain/Supplychain.sol:Supplychain",
								"label": "ProductQuantity",
								"offset": 0,
								"slot": "16",
								"type": "t_uint256"
							}
						],
						"numberOfBytes": "544"
					},
					"t_struct(Role)438_storage": {
						"encoding": "inplace",
						"label": "struct Roles.Role",
						"members": [
							{
								"astId": 437,
								"contract": "Supplychain/Supplychain.sol:Supplychain",
								"label": "bearer",
								"offset": 0,
								"slot": "0",
								"type": "t_mapping(t_address,t_bool)"
							}
						],
						"numberOfBytes": "32"
					},
					"t_struct(Txblocks)862_storage": {
						"encoding": "inplace",
						"label": "struct Supplychain.Txblocks",
						"members": [
							{
								"astId": 855,
								"contract": "Supplychain/Supplychain.sol:Supplychain",
								"label": "FTD",
								"offset": 0,
								"slot": "0",
								"type": "t_uint256"
							},
							{
								"astId": 857,
								"contract": "Supplychain/Supplychain.sol:Supplychain",
								"label": "DTW",
								"offset": 0,
								"slot": "1",
								"type": "t_uint256"
							},
							{
								"astId": 859,
								"contract": "Supplychain/Supplychain.sol:Supplychain",
								"label": "WTR",
								"offset": 0,
								"slot": "2",
								"type": "t_uint256"
							},
							{
								"astId": 861,
								"contract": "Supplychain/Supplychain.sol:Supplychain",
								"label": "RTC",
								"offset": 0,
								"slot": "3",
								"type": "t_uint256"
							}
						],
						"numberOfBytes": "128"
					},
					"t_uint256": {
						"encoding": "inplace",
						"label": "uint256",
						"numberOfBytes": "32"
					}
				}
			},
			"userdoc": {
				"kind": "user",
				"methods": {},
				"version": 1
			}
		}
	}
}